:02000004C0D06A
:1000000080B500AF06F056FE012006F0F2F8FEDEE5
:1000100080B500AF814207D3994203D81218091A5C
:10002000104680BD0846194605F07BFAFEDE80B515
:1000300000AFC6B0FF20143001AD00242C5489203D
:100040004100284608F007FA07204103284605F03A
:100050000BFF204606F0CDF8FEDED4D480B500AF0D
:1000600090B06846012202770146203100230B77C9
:100070000A4B0E9305210D91094979440C910221F7
:100080000A910892069307230593064B7B44049339
:100090000291009206F06FF810B080BD80000B0056
:1000A000EA860000D1860000B0B502AF90B06C4681
:1000B0002546203500F0A4FB002129770122227774
:1000C0000F4B0E9302210A91089206930D2305937C
:1000D0000C4B7B44049302910092002801D108222A
:1000E00000E007220D92002802D10848784401E080
:1000F000054878440C90204606F03DF810B0B0BD9D
:1001000080000B007E880000648600005D86000091
:1001100080B500AF90B068460122027701462031D9
:1001200000230B770A4B0E9305210D910949794461
:100130000C9102210A910892069308230593064B1D
:100140007B4404930291009206F015F810B080BD34
:1001500080000B00238600000186000080B500AF00
:1001600088B0684601210177064A0692042205926A
:10017000054A7A44049202220292009105F0FBFFA4
:1001800008B080BD80000B0007860000704780B576
:1001900000AF0A460121490200F00DF880BD80B58C
:1001A00000AF8A4202D34018511A80BD084611465A
:1001B00005F0B7F9FEDED0B502AF0B4604460020CD
:1001C00011462246FFF724FFD0BDD4D480B500AF3E
:1001D000002800D080BD034878442B2105F088F921
:1001E000FEDEC04610890000F8B504AF0D46044697
:1001F00050689168884201D1B8680AE0104603F05F
:10020000D0FC0E4601210840FFF7E0FF2E70034BA3
:100210001846A080638000202070F8BDFFFF00001A
:10022000F0B503AF87B01E461346059105465168E9
:100230009268B86891424ED00104049303D00599A6
:100240000C7881B20CE0184603F0ABFC0C4601219F
:1002500003910840FFF7BAFF0399049B05980470C7
:10026000C02020400295019605D0802805D0402866
:1002700005D1022606E0012604E0042602E03F2024
:100280000440661D701A009000240391069158687E
:100290009968884215D00698864211D0184603F016
:1002A00080FC0D4601210840FFF790FF06992129A7
:1002B00017D205984554491C0691641C049BE6E737
:1002C000009C03982018B04203D1084E3046029D8E
:1002D00001E0029D019EA8806E800020287007B07A
:1002E000F0BD0846212105F05CF9FEDEFFFF0000AD
:1002F0000178C32901D10120704744300421425EB6
:1003000000880121012800D80846002A00DA0846A2
:100310007047D4D4F0B503AF87B0164605468C6855
:10032000B868002C0393019021D4029508680490CA
:100330000498844212D27068B26890420ED030465F
:1003400035460E4603F02DFC01210840FFF73EFF25
:1003500031462E46039B641C8C60E9E70498844276
:1003600014D10020C143029DA980698013E0009050
:1003700005AC20460491324604F08AFB2078002820
:100380000CD005A840786870012004E0029D019817
:10039000A8806B800020287007B0F0BD05A8818878
:1003A000408802460A40054B9A4204D10024049931
:1003B0008C60039BB9E7A9806880EBE7FFFF000032
:1003C000F0B503AF91B00A93054650689368BC68D6
:1003D000984205D1AC800A98688000202870EEE031
:1003E000059408910C78042C0B9223D1104603F04D
:1003F000D8FB0C4601210840FFF7E8FEE0B2811E61
:10040000022906D3002804D0012806D0FF2002309C
:10041000C6E00CA8132108F01EF8089E701C0D21E0
:1004200007F0CEFD30460E300CA9142207F080FDF7
:1004300034700B9AE0B2800002A108580818089B9B
:1004400005998746140000002200000014000000F7
:10045000140000005A0100000091591C28460A9B14
:1004600004F05FFCABE0029556689168981D03901C
:10047000981C04900846864200D193E006905D895E
:100480000220022D00D996E016D0012D29D0002D92
:1004900000D090E09889002804990FD1D0684B498A
:1004A0007944012203F08CFBC1B2042900D082E020
:1004B000002004990B9A01E09889039900900CACF4
:1004C000204616462B4604F077FB2078002870D192
:1004D0007168B5680CA882880792408809903246F6
:1004E00022E031469C8958884601069DA0B2A94267
:1004F0000DD086420BD9104603F053FB0121084072
:10050000FFF764FE0B9A641C51689568EEE70B4692
:1005100086422D4900D02146079186422A480990FB
:1005200001D001200990194610680E461446069A1B
:100530002B4603F05FFB02460B46E06811461A4665
:1005400003F03EFBC1B2042935D1099A1046079940
:1005500008401D4CA04200D10021089BA0420791F9
:1005600001D159894A1C099292B2032A214600D02E
:1005700007999981032A224600D0099A5A81A042FC
:1005800010D190B2A04228460B9A00D073E788B2EF
:10059000A042284600D06EE70A94029904E0094878
:1005A00028800CE00299059C8C800A9848800020E5
:1005B00004E00CA84078029948700120087011B03E
:1005C000F0BDC04601020000FFFF0000AC8100004A
:1005D000F8B504AF14460D460246006800280ED058
:1005E000A54219D20120C602701C844214D2906820
:1005F00006F042FD024628462146334609E0A54260
:100600000ED201204302581C844209D20C322846E3
:100610002146FFF7FDFCF8BD054878443C2102E087
:10062000024878443A2104F063FFFEDE2B8000008C
:100630006D800000F8B504AF00920D4604460C3002
:10064000BE6819463246FFF7AAFD2A46009B04F011
:1006500099FF002041C4F8BDF8B504AF1C4616460A
:100660000A46054680681946334604F063F881B2AD
:10067000034A914202D10121A21906C5F8BDC04624
:1006800001EF0000FEB506AF029301920E4605464B
:1006900084680C30FFF77BFD02460B4600212046A4
:1006A00004F048F881B2094CA1420DD1A868314646
:1006B000019A029B04F03EF881B2A14204D10120CC
:1006C0000299891903C52046FEBDC04601EF00000E
:1006D000FEB506AF1D46044641C9083900280BD0B7
:1006E000084611462A463346FFF7B6FF81B2124A42
:1006F00091421DD1701918E073191048834209D234
:100700000093084611462A461D463346FFF792FFDE
:1007100065600BE00293084631462B46FFF7B2FFB7
:1007200081B2054A914203D102986060002001E045
:10073000608001202080FEBD01EF0000010200006A
:10074000BCB504AF0C460168002905D011461A4615
:100750002346FFF781FFBCBD1919074DA94207D2F7
:10076000009111461A462346FFF764FF0348BCBDBB
:100770002146FFF787FFBCBD0102000001EF00002A
:10078000BCB504AF1C4615465A180368002B0CD0A4
:10079000144B9A4214D280682A46234603F0CAFFBB
:1007A00080B2114988420FD1BCBD104B9A4213D27E
:1007B0000C30FFF7F4FC2A46234604F0E3FEBCBDF0
:1007C0000E4878442C210AE00948784401A9094AD6
:1007D0007A4404F092FEFEDE074878442A2104F0B1
:1007E00087FEFEDE0108000001EF000001020000AC
:1007F000498300006C7E0000E97E00002B7F000032
:1008000080B500AF04F034F804F002F80078411E1F
:10081000884180BDD0B502AF044605F05FF90548B8
:10082000784405F079FB0448784405F075FBA0474F
:10083000D0BDC046A47F0000B87F000080B500AFE7
:1008400002487844FFF7E6FF80BDC04663F8FFFF2B
:1008500080B500AFC0B2032814D8C04678440079F0
:10086000400087440107040A0848784407E0FFF77E
:10087000E5FF80BD0648784401E006487844FFF76C
:10088000C9FF80BD04F02FFEFEDEC046A3F8FFFFC7
:10089000E3F7FFFFDDF8FFFFF0B503AFEE4EB54421
:1008A000EE4868443090EE4868442590ED4868442E
:1008B0002690ED4868442890FF21123133A83190EA
:1008C0004118002632918E708921490007F0C3FD3E
:1008D000E64878AD28181421299007F0BCFD2E8732
:1008E000B696012108020C4627912F9028180E90E9
:1008F00004F062FA832080002D90281864022146BB
:1009000007F0A9FD2120239040012E902E54281994
:100910002146D74A46608260F8967896D24C6C445D
:1009200020460C3007F097FD232000012C90265222
:100930002D98265420181A9027994184F24868442B
:10094000066028990E60F24888602B963046FFF7C3
:100950007FFFF248201819904120800031990E182D
:100960002E98281820902C9820181390EC48684452
:10097000001D0F90BB486844011D17910830189066
:10098000B8486844001D1190E5486844011D249151
:1009900008302290B3486844001D2190B148684453
:1009A000001D1090F1486844411C1F91C01C1E900E
:1009B000DB486844C11C1D91401C1C90A948684438
:1009C000001D0A90EE486844411C0D91C01C0C901B
:1009D000D3486844001D0B9008351295D0486844F0
:1009E000011D1591083016909E486844001D149012
:1009F000372040023190812040002E902B982C907F
:100A000098486844802107F026FD0021DD48817167
:100A100001702D91418005F0D1FB002801D105F036
:100A2000D5FB904D6D4480242846214605F0BFFB40
:100A3000287801460E3908291DD86878AA7812024C
:100A4000121802204900C0467944898849008F4421
:100A50005D0108002400330033003300330033000D
:100A60002E0090B22F99884226D17E486844C078E3
:100A700005F0A0F920E005281ED1307B79496944B2
:100A8000C978490802460A43327300286FD000290A
:100A900000D17AE003290FD1BFE010BA000C022880
:100AA0000AD933A86F49694405F050F904E033A826
:100AB0006C49694405F024F9B24800780028AAD0AE
:100AC000B04840880028A6D0002432998C7030604D
:100AD000042802D23198C11C1EE09148684433A911
:100AE00005F09AF930990869002814D033A90878DC
:100AF000B02815D18A78002A12D1C97800290FD1DF
:100B000033A84078012849D0A72801D100F0C2FDC0
:100B10003198411C00E0496933A805F0A5F97AE74E
:100B2000329A1178002902D05178884270D13398D6
:100B3000000AC1B2032900D8DFE070682E99891C31
:100B4000884201D300F0A3FD33AA6E2313547068CA
:100B5000401C884201D300F09AFD33A901220A54B7
:100B60007068801C7060084605F03CF853E7032964
:100B7000A2D80225012000227944097949008F4436
:100B8000015154550020307396E70021317301283C
:100B900047D0022848D003288ED140E033A8012155
:100BA00001707268501C7060901C2E9B9C1CA042AF
:100BB00001D300F06BFD33A909189A1A012006F041
:100BC000B9FA7168A14201D300F05FFD33AA505415
:100BD00071684018421C7260801CA04201D300F072
:100BE00055FD33A909182E98801A421C022006F0E0
:100BF000A1FA7168A14201D300F047FD33AA505415
:100C000071684018401C7060104605F04AF902E710
:100C100033A8319905F028F9FDE6022506E00525FF
:100C200004E00322154601E004200546052D00D905
:100C3000F4E055487844A90001A2515851188F4654
:100C40003800000034000000DC010000D601000084
:100C5000E00100003E00000044F6FFFF5C090000D8
:100C6000D0080000400800000C0600000C04000042
:100C70008090D0C04548784405F04EF9C0E62C98E5
:100C8000C0B2022804D0032800D0B9E600F005FD68
:100C90003F4D7D442C95A8472D90A84703F0B8FD03
:100CA00001463C4D6D440A22284607F041F92D9833
:100CB00003F0AEFD0078414241412D9529702C98FA
:100CC00080470546015D007803F074FD2C468034B2
:100CD0002C900028284600D120462D9903F07AFD5B
:100CE0002C98002800D12C462B497944204603F04B
:100CF00089FDFFF7A3FD022081E602A2515C4900B5
:100D00008F44C0460410080A1006000000250BE0BE
:100D10008098D0C0022506E0032504E00D02000003
:100D20006C09000001252046000600D066E6306808
:100D3000002867D019486844142107F08CFB33A8B9
:100D400000786E238028299C61D12C93E8B2800022
:100D500007A108580818124B7B44124A7A441249DA
:100D60007944124D7D441B958746C046D408000047
:100D700040000000C00000000601000088010000E3
:100D8000D4080000000200205C7B0000227B0000F1
:100D9000DB3B000040080000EC7D0000C0080000C4
:100DA000207D0000507D00002C7D0000C07C0000F4
:100DB000E748784404F062F805462D9101202C9014
:100DC0000540E44C7C442846A047E348784404F0BE
:100DD00055F81B912C9A1040A047224628462D9C7E
:100DE00021469047DD4969448C701B9848700C700F
:100DF00033A8032205F076F82A9A2A9233A805F040
:100E000050F823E203246E232E992A9A09E22E99A0
:100E10002A9A2D9C05E22C98C11C03E0012083E74F
:100E20002C98411C032008402B90FFF711FDE5E5AD
:100E3000079308920991C948684433A904F0ECFF6C
:100E400026980568002D00D1C8E0406803241528C5
:100E500000D0E3E11421C24A6A44284605F03EFB73
:100E6000002800D1DAE133A9C8780690032800D918
:100E700017E1002016E1079308920991B7486844EA
:100E800033A904F0C9FF26980368002B00D1A5E020
:100E900040680324342800D0C0E11421B04A6A44D9
:100EA00018461D4605F01AFB002800D1B6E1AD48F2
:100EB0006844402107F0CFFA1435002004954028FB
:100EC00000D1BDE02D952D786909302257230529E1
:100ED000114600D319462C090919A24C6C4421541F
:100EE0000F2129400A2900D31A465118221851709F
:100EF0002D9D6D1C801CE2E707930892099197488D
:100F0000684433A904F088FF26980568002D65D051
:100F1000436820980078002865D0012800D08BE035
:100F200033A88078012800D0B4E078A81A468E4B08
:100F30006B44294601F002F8044680B28B4988428E
:100F400000D066E12098007802282A9A00D054E761
:100F50001A980078002800D1A5E3854C6C44212123
:100F6000204607F078FA1998214605F00BFD02F0AB
:100F7000ABFD02460B467B48684411461A4602F018
:100F8000FDFD309C2169002900D18BE262691A982D
:100F9000408C0128774B7B44774878442C9000D0D4
:100FA00089E20420259DEB640346503507C573494B
:100FB000694421611021079860630898A0630622A4
:100FC0002C98206261620998A062E26213984078CE
:100FD000002800D199E26A49794498E25F48684460
:100FE0008488230A10E733A86E2203212D91172B42
:100FF00054D38078002851D10020142106902A462D
:101000001B93FFF705F8224605F068FAE0212C91C2
:10101000002844D0564868442E2107F01CFA4F4857
:1010200068442D90214600F076FE2D980078202807
:1010300000D025E10524EEE0EF202C900024EAE02A
:101040001C9801782D9140780590309800690690A1
:101050004A4D6D443D2428461D99224606F068FFFE
:101060001E982946224606F063FF1F980599417095
:101070002D9901703E4969440698087039486844C2
:10108000402204F021FB309C206900287CD0EF2313
:101090000024B9E66E202C900224BCE02C922D9CFA
:1010A000B9E001208B78191F4A1E9141069A0593D9
:1010B0001A4304D0014302D06E230224D9E00598DC
:1010C000002800D1C7E00395244D6D4424496944AC
:1010D000284600F020FE2978202900D1C5E01F48CD
:1010E00068442C914478458848222498219906F038
:1010F0002FFF1C4868442D954580049444702C9C17
:10110000047016486844229900F04AFE00211D48E8
:10111000239B202906D0114A6A44525C5843801808
:10112000491CF6E70121084300BA010A020C4A40B3
:10113000010E51404140C8B2059906F0EBFE259AD8
:1011400015680698814200D1F3E0681C1060BBE787
:10115000E27D0000ED400000C97D00004008000075
:10116000C00800006C0900000C06000001EF000040
:10117000D4080000DF770000E67800001C090000BA
:10118000AC790000051500006169A0690690052092
:10119000E060F7487844A060072262601B982060F6
:1011A0000420F44B7B44259DEB642D9028656965F4
:1011B0000698A865F049794421630221E161EF496D
:1011C0006944A16101216161ED4969442161079888
:1011D00060636262EB48784420620898A06306204E
:1011E000E0620998A062E848684400F005FB002826
:1011F00042D0E64C6C44E64969442046049A00F02B
:10120000FDFD2088002800D13AE1E0486844448888
:10121000E7E6000A2C9078A800F076FE2E992A9A2C
:101220002C9B7068891C884200D330E22A9233AA32
:1012300013547068401C884200D328E233A90C5430
:101240007068801C7060084604F0CCFC2B98FFF797
:10125000FFFAFFF7D3FBCD4C6C44CD4969442046DF
:1012600000F059FD2478202C70D1C8486844448887
:10127000230A2A9A2E99D4E72E992A9A2D9CCFE7F1
:101280002D90C248684441780591448848221598B9
:10129000149906F05DFEBC4868444480059941708D
:1012A0002D990170B94C6C442046169900F078FDD8
:1012B000B3486844B74A6A44214600F0F5FD2599D1
:1012C000C86C002800D1F1E00C6DB24969442E22AF
:1012D000129806F02DFE01212098017079942D912D
:1012E0007891142228461B9900F0FAFC0C4602293A
:1012F00000D8D6E1054680781B90012804D1FFF77D
:101300007FFA002800D147E1139A069B13701A98C0
:101310002D99418403701B98401E414241415170F8
:1013200028980360436078A8E64B6B442946224620
:1013300000E6E64868444822249906F009FE202C7D
:1013400014D12D9C230A0295049A93E70395DC4857
:101350006844458840782A90DC48684448221199BE
:1013600006F0F6FD25980068029003E004982A90A4
:1013700002952D9DD54969444822179806F0E8FD4D
:10138000CF48684445802A99417004700398007DD5
:10139000002866D0CD4C6C442E21204607F05BF827
:1013A000CB4D6D442846189900F0FAFCC3486844B8
:1013B0002946224600F078FD309D2868002800D19B
:1013C000A1E068682D90C14969442E220F9C2046F7
:1013D00006F0AEFD2D992961204600F081FD024600
:1013E0000B46BA48684411461A4604F06DF925992F
:1013F0004868002800D04AE688682D90C8682C907C
:101400000822B44B7B4407241B9811C52B606A60EB
:10141000B14A7A44CA640C652D9848652C98886551
:10142000AE487844486202200861A4486844C86015
:1014300001208860A64868444860079888620F20A9
:101440008861A748784448610898C8620620086205
:101450000998C8619D48684400F0CEF9002800D181
:10146000F8E033AC41222046189904F03BFD029885
:1014700000BA309908619449694404222046B9E4CD
:10148000914C6C4448222046109906F061FD269844
:10149000C16C204603F020FD02460B4633A81146DE
:1014A0001A46A7E4884868448488C5E088486844A8
:1014B0008488200AAEE60420259DEB642D902B46FF
:1014C000503307C300252563E56189497944A1614B
:1014D000279961617E496944216107986063102101
:1014E00061622C9820620898A0630620E062099847
:1014F000A0627548684400F07FF9002820D16E2072
:101500002C902D9C9BE06D4869E57A497944309A8E
:1015100011630121516100281C4600D10221309A3B
:10152000D1611146002802D07448784401E0724825
:10153000784488616448684400F05EF9002814D05B
:1015400020980078022800D0B1E05F4C6C4420461F
:101550000E9903F073FC2078002845D05A4868445F
:10156000448857486844448066E06E2065E0C04681
:101570008B780000CD7500008E7800005C090000BB
:101580001C090000827800006C090000400800007F
:10159000C0080000D4080000494868442D90069D0A
:1015A0000575504878441B900F214F4A7A440D230B
:1015B0004E4C7C442698046043608260C1601B9955
:1015C000016104F08BFA2D9804F0BCFA3E4868449F
:1015D0000571309805613C48684404F03FFAC0B298
:1015E0000528F8D1042416E63748684441782D913F
:1015F00040882C90364C6C441D2520460B992A4679
:1016000006F096FC0C9821462A4606F091FC2C9A8E
:10161000100A0D9948700A702C4A6A442D9810706F
:10162000274C6C442046299900F0E8FB20880028CC
:1016300014D0234868444488200A2C90002578A8B8
:1016400000F062FC002D2E992A9A2C9B01D0FFF706
:10165000D4FBE6E56E230424FFF7D6FB1A4C6C445A
:10166000482220460A9906F073FC2698C16C204651
:1016700003F032FC02460B4633A811461A4604F02A
:1016800031FC00202C90279DD9E70846214603F025
:1016900088FFFEDE33A804F004FC002004F0A9FD5E
:1016A000FEDE0220F2E716487844272102E01548C2
:1016B0007844242103F01CFFFEDEC0465C090000D4
:1016C000400800000C0600006C090000D40800006F
:1016D0001C0900002D730000AE7600002276000089
:1016E00083760000A0720000707200005D7200003E
:1016F0002C7900003875000010740000367400006A
:10170000F07200003B710000D0B502AF0088284A9B
:101710008218052A0ED9274A8218042A15D8C046ED
:101720007A4412795200974402181B1F2300234B5E
:101730007B441BE07A44127952009744021C202417
:10174000272B234B7B4410222BE0092212039042CB
:1017500024D1194B7B44022223E0194B7B4405E042
:10176000184B7B4407221CE0174B7B44062218E0F1
:10177000164B7B4414E0174B7B440F2211E0164BB1
:101780007B4408220DE0154B7B4401E0144B7B4465
:10179000142206E0134B7B44172202E0124B7B44D9
:1017A0000D2248698969CC681946A047D0BDC0465A
:1017B0000020FFFF0092FFFF047100002A7100006B
:1017C0000471000004710000037100000171000049
:1017D0004C71000028710000996F00002771000013
:1017E00035710000417100005071000080B500AFFC
:1017F000FEF71DFCFEDED4D4F0B503AFCFB0044637
:10180000C0680028FD497944109110D0012812D1F8
:1018100017A80121017500201A9010981990206ACC
:101820001B90A06801684068189017910EE017A8F7
:10183000042101750AE017A800210175206A1B9098
:10184000A0680EC800681A9017A80EC017A800F06C
:101850002BFA1DA8012202750023209310991F91D5
:10186000606A219060691E9020691D9023A81392E0
:1018700002751A4626932591A06A2790E069249064
:10188000A069239060680C90401C0E90401E0A9046
:1018900000D20A922BA83C301190206803900C983B
:1018A000401E0890F64E1692109C0E98824200D16F
:1018B00084E10C98824200D1ADE100D3DBE117A8AE
:1018C000007D29A900230B7106932993042141402F
:1018D0001143481E81410591009210010399081897
:1018E0000790C06811210B9106F0A6FD01461398E0
:1018F000169A0240084600D110460F9007980246FB
:101900000C320992083004900191481C0290139DFA
:1019100004F0E4F8069840280BD02BA90D500918C4
:1019200000220A770C614A618E6102228A602030AF
:10193000F1E700201290C2430998046804980168F6
:101940000F981692002A4FD0002826D00D4611225B
:1019500000210B4606F0C1FA4A1E914144D1A04233
:1019600042D22A46034611339C42214600D31946EF
:10197000834200D22146159114922346FEF748FB7C
:1019800005460E4614982146159A00F0A9F9002D37
:101990002AD004461591294608E0002C24D0112CA9
:1019A000264600D30B9EA41B15948C19139D43A8A7
:1019B000324603F089FE4498459A4399119B129E42
:1019C0001E70AF4B3993022335933395002900D015
:1019D000324638920029169A00D010983790521C3F
:1019E00021463046159CACE73BA8152120221291D8
:1019F00006F02CFD0F98002817D1099800681128CF
:101A00000F9812D2079C616800203BAA00F073F97E
:101A10000CCC03F0B7FD43A83BA9152203F054FEFC
:101A2000439800284CD000234BE041A900248C703F
:101A30000C8042AEB4703480401C04F003FC16905D
:101A40000D460298314604F0FDFB139B4E938D4AE0
:101A50007A444D924C914B904A938B4878444990EC
:101A600048951698479002204690884878444590BB
:101A7000079903C9449143902046302CCBD012994A
:101A8000091A43AA121956688E42354600D30D46EC
:101A9000002DC0D0291816913BAA00F02CF9159002
:101AA000149143A8005931462A46FEF784FB0246AA
:101AB0000B461598149903F065FD08341698DCE779
:101AC000459B6F4E002802D07148784400E044984E
:101AD00016900021002B3ED01A461698C018431EBF
:101AE0001D786CB2002C31D5831E1D7812956DB215
:101AF0003F261596F6431495B54210DAC31E1D789D
:101B00000D956DB21295B5420FDA159E129D3540B6
:101B1000031F18784007C00D4519304609E01F2003
:101B2000129D0540564E159809E00F200D9D054069
:101B30001598149E0640A80185191598504E04402A
:101B4000A801051911200004854204D016981B1A1B
:101B5000202D1146BDD02BA8139D057731963091CD
:101B600016982F9002202D902B950598002803D0D1
:101B70004848784404F0D0F94748784404F0CCF958
:101B80002BA8022104F0F7FA109C29A803F066FFA5
:101B9000C0B20628F9D0042806D00328F5D10F9842
:101BA000002825D0401E07E001990F98884227D0D1
:101BB000401C884200D9ABE60F90A9E615462BA839
:101BC000002101712B9103F089FF3648784404F01D
:101BD000A3F923A803F0B6FF2BA803F03FFFC0B280
:101BE0000628F9D0052840D00328F5D10A9A5CE6EA
:101BF000009A002A09D0521E169556E6F27500008A
:101C0000009A521C002016904FE617A800F04CF8DE
:101C10000022169249E615462BA8002404712B9445
:101C200003F05CFF1D48784404F076F91C487844C2
:101C300004F072F91DA803F085FF2BA803F00EFF36
:101C4000C0B20628F9D005280FD004280BD00328ED
:101C5000F3D10C980228089A00D325E617A800F0C3
:101C600023F8224620E60E9A1EE60E98281A411EF8
:101C700088414FB0F0BD10460C9903F092FCFEDE97
:101C800080000B00837100008E6D00007C6D0000F1
:101C90002E730000526C0000666C00009E6B00000A
:101CA000B26B0000F86B0000DCB504AF0446007DA9
:101CB000042812D003F012FF0848784404F02CF9ED
:101CC000204603F03FFF68460021017100916846FD
:101CD00003F0C4FEC0B20428F9D1DCBD266B0000BD
:101CE00080B500AF914202D38018891A80BD10469A
:101CF00003F017FCFEDE80B500AF814208D3152942
:101D000003D81218091A104680BD1522084611463C
:101D100003F007FCFEDEF0B503AFB1B0019014AEE6
:101D2000304602F0ADFD307800901EAD28460830F8
:101D30004124214606F08FFB009828701F94012350
:101D40002946324605F0B2F9002803D002F0C0FD62
:101D500005460AE0291D1EA846884578047802A891
:101D6000482206F0F5F8202C09D16E202843C0B295
:101D7000019E708014A803F014F820240CE0009653
:101D8000019E301D02A9482206F0E2F814A803F0D3
:101D900008F8009870807570347031B0F0BDD4D4FC
:101DA000F0B503AF93B00E4604466D46681C491C5F
:101DB000202206F0BDF84020305C01210140881C43
:101DC000287009AE3046294603F00CF83078002818
:101DD00007D109A8411C2022204606F0A9F813B01B
:101DE000F0BD0448784412A9034A7A4403F085FB05
:101DF000FEDEC0462F6D0000B6690000F0B503AFEF
:101E0000B9B0069207901BA802F03AFD1C98212851
:101E100001D2032608E0312801D2042604E041283B
:101E200001D3092600E0052625AD48242846214691
:101E300006F011FB37940024389438A8039037A893
:101E400002900195202000901BA815493246069B60
:101E500005F026F9002804D01248079E708001245E
:101E600017E008A8801C049025A948252A4606F0FA
:101E70005FF83798069038980590079E301D0499B2
:101E80002A4606F055F80120059908400699F164A4
:101E9000306534801BA802F084FF39B0F0BDC04625
:101EA0000106000001E00000D0B502AF86B0044694
:101EB00005A80023037020230493039101210291BC
:101EC000019001A8114604F023FB002801D06160B5
:101ED00001E00249A180206006B0D0BD02E0000010
:101EE00080B500AF0A462E21FEF765F980BDB0B57A
:101EF00002AF14460D4602C8FFF7F2FF2A462346FA
:101F000003F0A6FCB0BDD4D4F8B504AF0446F82065
:101F100000252550258708482018152106F09BFA32
:101F200001263102601805F0B5F87002255020181E
:101F300045602560F8BDC0460C040000F0B503AF55
:101F4000FFB0B2B0764DFF2A01D901F027FD064659
:101F500001244A946402001950908324A0005F90E9
:101F60001D183C9523252D015D19359521256D0101
:101F7000751910953046383054900C463046603014
:101F80004F903046883059903046B03046903046B9
:101F9000E0305B9030463930114645923246683227
:101FA0002A923246E8322F92509A6392619160945D
:101FB0000022259262925B4D5A1924925A4D4D93FC
:101FC0005A193B925F997218229278ABDA1C2992C7
:101FD00078AB5A1C219266AA2132209278AA083244
:101FE000239278AB5A1C17923246413228923246DD
:101FF000BC324292C21C27923246A1321F92324614
:102000004B321E9202460F321D924890C01D1C900A
:1020100078AB581C2E90A0AB581C1B90D81C1A9063
:1020200066AB181D19903046C030369030464630A9
:102030003890549D28460C304E9028460A304790E0
:102040004F9908460C30319030463E303E90304635
:102050004C303490304645303390081D189030464F
:1020600072302C90304649302B90681D379078A8FC
:1020700002463632159202462F32149202460D3233
:102080001392024624321292303016905B9B181D38
:1020900032902A46281D5390599D28460C302D9089
:1020A00010461230409010313D91304650303A90F9
:1020B0001046143030901046114610304C901835B0
:1020C00039953046C2303F90184610304190304626
:1020D00040305790301D26900720119043034393C2
:1020E00044944B96164662986199814201D101F061
:1020F0002EFC5B98048B304604F0D1F980B2844208
:1021000001D301F03DFC30784000C046784480881F
:10211000400087440B000B001C008A00D800950487
:10212000036E00002E0200000D0200005B98408B41
:10213000009064AD60AA284648992346FEF754F8FB
:102140002878002801D100F03CFE01F019FC629DC6
:10215000619EAE4201D100F02EFE599800885F903A
:10216000539C2046FEF7C4F85F9B80B2834201D3A4
:1021700001F0D7FB2078C3281DD1B54201D301F06F
:10218000D9FB681C62906098455D4A98FEF71EF87E
:10219000002DF04C22461FD0012D539801D001F0A4
:1021A000E2FB04F080FA539C2078C32801D101F0AF
:1021B000B8FB5998038859984088009078AD60AA78
:1021C0002846214601F038FD2878002801D001F08A
:1021D000AEFB78A88288448825461540DD488542B4
:1021E000539900D1002285425F9202D1599800880C
:1021F000441CA6B20846FEF77BF881B28E42D54851
:1022000000D05F98599A50808E42D24900D0214622
:10221000599A1180CF4A954201D000F0CCFD01407F
:10222000CC48814293D1CB494AE04F9D5B9E629856
:102230006199814201D100F0BBFD29890220012969
:1022400001D901F072FB0CD0002901D001F06DFB27
:102250006889009078A860AA0023539902F018FCBE
:1022600007E06889009078A860AA01234E99FDF7DD
:10227000D7FF78A80078002801D001F054FB78A897
:102280004188799A0846104080B2B24B984200D1FA
:102290000022984201D12989491C8CB2022C00D01D
:1022A00013466B81022CAB4A00D00A462A81A94909
:1022B000884201D000F07CFD1A4090B28842B6D12D
:1022C000084600F07BFD08205B9956900D5E002DBE
:1022D00001D500F02EFD48880A889E498A420ED119
:1022E00088420CD12421429806F0B5F80A2053996F
:1022F0000870681C5B990881002008600246954DB3
:102300006299619B8B4201D100F0DBFF92B2022AFD
:1023100001D901F035FB35D0012A67D0002A8D4D57
:1023200001D001F02DFB82B2429880185C9004200D
:102330005E92801A5590002662985A906098589044
:102340005D938B4265D05E988419201F60D09942BE
:102350000D4604D25898405C5F904D1C5A959942A6
:1023600001D3002000E00120FDF730FF032C01D94C
:1023700001F02EFB5C985F998155761C2946754DBE
:102380005D9BDEE7539804780A2C00D0C0E09942A8
:1023900001D301F00BFB481C62906098455C4A98A1
:1023A000FDF714FF032D01D901F0EAFA0924A80072
:1023B00003A1085808180A9A0C9B0B998746C04637
:1023C00010000000720000009C00000002010000EC
:1023D000A0A8152106F03FF8062400221346099212
:1023E000089203920792114602926AE0009098A820
:1023F00060AA0123369902F094FC564D98A8007803
:10240000002801D001F0BCFA98A882884188A3E096
:10241000559E5A9862905E9830180428294601D03B
:102420005B99098804282A46549E00D194E002460C
:1024300092E02121179805F0C3FDA0A878A92222D7
:1024400005F076FD00214348059004910A460B46AD
:102450000991089107910691119C32E0169804F0B9
:1024600022F900201299086078AD05242C7088802C
:1024700088713848A8856878029068880B90287918
:10248000079068790390E8880890288909906889FE
:102490000C902E7BA0A82222139905F049FD1498D8
:1024A00000780190288E0590688E0690A88E049082
:1024B00066A84622159905F03BFD0B990C9B324608
:1024C000549E0A9232740C93F3810998B081089853
:1024D000708103987072079830720B91F1800298A6
:1024E0007071A0A922222B9805F022FD4F98049923
:1024F00001820699C181059981810199C17266A9FC
:1025000046222C9805F014FD00204699886034710D
:10251000104DA01FC1B2052900D30220C0B2800017
:1025200002A1085808182A462946874614000000C8
:102530006E030000780000002C000000541400001E
:102540005B9803884088009098A860AA379902F0A9
:10255000B5F853E7FFFF00000846104083B2AB42D6
:1025600000D10022AB4202D15B980088411C8CB2A2
:10257000032C284600D010465B9A5080032C2A4634
:1025800000D00A465B990A80AB4201D000F099FE68
:1025900091B2A94200D0B3E681B2A94200D0AFE621
:1025A00000F0BAFD62996198884200D141E25F91E2
:1025B000042146985D91445E05890688304621468F
:1025C00003F062FF81B202208D4201D301F0D6F9FF
:1025D0000121012E00D80E46002C00DA0E46B5422D
:1025E00024D246984089009078A860AA31992B4659
:1025F00001F022FB61996098629B5F9A01F0FAFA00
:1026000002460B46639811461A4601F0D9FAC1B248
:10261000042901D001F0B2F978A80178002901D08D
:1026200001F0A6F982884488554D0CE15C904F9EDC
:102630005698315E002910D43088514B98422CD1E5
:1026400072889A42259E29D10520539A1070002045
:102650004F9A1060491C118120E0469840890090F3
:1026600078AC60AA204618992B4602F0A5FA20788B
:10267000002801D001F0BAF978A882884488204661
:1026800010403F4DA84200D0DDE000213181B088EC
:102690000028D1D12C462A46D5E0259E6299619D1D
:1026A0008D4200D1C5E0000401D001F052F95398E9
:1026B0000478052C2CD1A94201D301F05BF9481C08
:1026C0005F9062906098445C4A98FDF77FFD042C0F
:1026D00001D901F052F9A00002A1085808182346B8
:1026E0000E9987463C000000140000001400000012
:1026F0003000000038000000A0A800268670068088
:1027000078A8122105F0A7FE314633460D9607E062
:102710000A4620E00023D8430D9001E05D9933463E
:102720005E930020549AD0710E91917153714B9E1B
:10273000306454990873A0A90322339805F0F8FB7C
:102740000D98B06478A91422349805F0F1FB5498E0
:1027500004715E9E5F9A64007C44A4886400A74470
:1027600011000500050018002200F8084F980388A2
:102770004088009066A860AA3799FDF751FD1BE0DC
:10278000FFFF000095423ED14F9948880988FD4DD2
:102790001CE04F9803884088009066A860AA57996B
:1027A000FDF7B8FD08E04F9803884088009066A8C0
:1027B00060AA3E99FDF704FE66A800780028FA4D4D
:1027C00001D001F0D4F866A9888849880A460240F9
:1027D000AA4200D10020AA4202D14F990988491C7F
:1027E0008CB2012C2B4600D003464F984380012C1D
:1027F000284600D008464F990880AA421AD10340C3
:10280000AB421CD04AE70020AA42044603D2511C26
:10281000629160998C5CAA4200D20120E24DFDF7E2
:10282000D5FC601E41424141379801702846294637
:10283000CCE7DD4D259646984289048903E0314670
:102840002C462A46259626461640AE4201D05F9277
:1028500001E000205F90469805898188008803F098
:1028600013FED1498E4200D16C1C81B2A2B28A42C1
:10287000CD4D284600D05F98469B58818A42294614
:1028800000D02146469A1181AE4200D0D0E00140EE
:10289000A942549E00D085E6C7E0629861998142C2
:1028A00000D1C6E03E9800880121012800D80846E2
:1028B0000C254F9A545F002C00DA0846D389022673
:1028C000834201D301F03DF8002C61D44E9800887A
:1028D00047990988B44A91420FD190420DD12121E4
:1028E000409805F06DFB00204799887188804880EA
:1028F0000880611C319A11800146629A619B934263
:1029000066D089B2012901D901F01BF80BD000294A
:1029100001D001F016F8009078A860AA0023409931
:1029200001F0CCFE06E0009078A860AA0123389957
:1029300002F042F978A80078002801D000F0FFFFEB
:1029400078A84488799B2046184082B296488242F3
:1029500002D147980088441CA0B20228924900D0B6
:102960002146479C2180904CA24200D1002302289E
:102970008D4800D018464E9B18808B4B9A4227D129
:102980000A46024092B29A42B7D18749084622E0ED
:102990003D980088009078AC60AA20463E9902F0ED
:1029A0000BF92078002801D000F0C9FF78A88188B1
:1029B000408802460A407C4B9A420CD10024319850
:1029C00004803E98008800287749084603D07DE7B8
:1029D0004F98018AC0893E9A12880123012A00D8A3
:1029E0001A464F9C645F002C549E00DA1A46034638
:1029F0000B406D4CA34200D10021A34202D14F985D
:102A0000C089401C85B2954200D00C464F990C827B
:102A10009542654D294600D001464F98C181AB4291
:102A200007D12140A94200D037E72846294603E0D4
:102A3000549E5B984188008898AA91805080E3E476
:102A400014205B9E355E002D00D590E1748933899A
:102A5000554883421FD184421DD121213F9805F062
:102A6000AFFA00245798046044600420599E3076E1
:102A70004C980480409804704521309805F0EBFC98
:102A8000E04370613474F460474870815B9E681C59
:102A9000B082B4602346444D62986199814200D16E
:102AA000EBE258914C990988012900D801210A26A6
:102AB000599A955F002D499601DA052200E00A1D1A
:102AC00096B29AB2B242549E01D300F059FF022A44
:102AD0000BD0012A4AD0002A50D1009466A860AADF
:102AE00000233F99FDF79CFB6AE0A2B20821891AF6
:102AF00056910F92D10038225592511A5F915799F1
:102B00000C6849685E9100256299529160995191D3
:102B10005899814238D0569A954235D25D94884270
:102B2000024604D2519A125C5A92421C52920024DC
:102B300088425C9201D3204600E00120FDF746FB6D
:102B40005F9E3246559802405A98C0B2214605F021
:102B5000C9F95E9A0A435D9C0443579804605E92EB
:102B60004260083E5F966D1C5C98D1E7009466A8B1
:102B700060AA01233999FDF723FC21E0002D15DA25
:102B8000032014E0FFFF0000529862900F982A186B
:102B9000082A054D28465B9E00D03089082A294620
:102BA00019D0114617E0C046FFFF0000881C80B214
:102BB00082423ED9009466A860AA2D99FDF7AAFB2F
:102BC00066A800780028FA4D01D000F0D9FE66A86A
:102BD000818840885B9E599A499BD35E4C9A1288A3
:102BE000012A00D80122002B01DA052300E0131D81
:102BF00002460A4092B2AA4200D10021AA4201D163
:102C00003089401C9BB285B29D42E94C00D00C46F5
:102C100074819D42FA4D2B4600D003463381AA426F
:102C200000D02AE21846204080B2A84200D033E704
:102C300072E2002D55D4F08AB18AF14A91420AD14C
:102C4000904208D14521309805F005FC681C59993F
:102C5000488100200146EA4D629A619B934258D018
:102C600089B2012901D900F08BFE0BD0002901D0D7
:102C700000F086FE009078A860AA00233A9902F03E
:102C800050F806E0009078A860AA01233D99FDF76E
:102C9000C7FA78A80078002801D000F071FE78A863
:102CA000438879991846084082B2AA4200D100218F
:102CB000AA4201D1B08A431C9CB2022C284600D003
:102CC0000846F082022C294600D01946B182AA4259
:102CD0001FD10A46024092B2AA42BDD129462846D7
:102CE00078E7009478AC60AA20464C9901F064FF24
:102CF0002078002801D000F043FE78A88188408821
:102D000002460A40BE4DAA4207D066AA9180508072
:102D10005DE75B9E718930895DE7002559984581A3
:102D20004C980088002886D166A8B54D85804580DE
:102D30004DE7488B009078AD60AA2846329923462B
:102D400001F03AFF2878002801D000F0ECFD78A8C7
:102D50008188408802460A40A94B9A422ED100251C
:102D60005B990D81888800281DD0FFF7B4FA708B1D
:102D7000009078AD60AA28464199234601F01CFFD7
:102D80002878002801D000F0CEFD78A881884088FE
:102D900002460A409A4B9A4210D10025B582308AE9
:102DA000002800D052E664A895498180418008E05F
:102DB000718B308B02E05B98418B008B64AA918011
:102DC000508064A8848842888D4D16462640AE42C5
:102DD00000D10024AE4202D15B98008B421C5F926E
:102DE00095B2549803F05BFB80B28542844900D0D1
:102DF00021465B9A51838542814A104600D05F98F4
:102E00005B99088396424B9850994E9A01D000F0F6
:102E10009EFD0068002801D100F0F9FD549E307835
:102E200005281CD004282BD0032800D0D6E25398C4
:102E300000685F9016461578284603F096FC044615
:102E4000284603F0A3FC00282AD03046214603F090
:102E5000A8FC03F0ADFC00265A965C9642E05B9A13
:102E60005089674BC11A481E8141108998424A987F
:102E700000D108460028509900D087E0579D86E091
:102E80005B9A50885E4BC11A481E81411088984257
:102E90004A9800D10846002800D08BE0539E8AE073
:102EA000112C01D300F07FFD00207B907A90799067
:102EB00078904E98214603F0A7FC04460D46102159
:102EC0004A1B78A803F0A8FC22462B4602F05AFBC6
:102ED0007B987A99799A789B1BBA5C9312BA5A922A
:102EE0000EBA00BA5D9600245E9021465F9D2A4688
:102EF000234604F0F2FF58905691304621462A4668
:102F0000234604F0EAFF0E465699451866415E983E
:102F100021462246234604F0E0FF401956906141C5
:102F200070185590254665415D98214622462346F6
:102F300004F0D3FF0E465599401855906E415F98A6
:102F400021465A9A5C9B04F0C8FF05465F915E9843
:102F50005D992246234604F0C0FF4019589D5F9AB0
:102F60005141559A10187141569E32460A432B46DC
:102F7000034313439B0F02439200D21842D1402DCA
:102F800070D278A90D7066A801221AE200250028E7
:102F900000D021E211C90839002874D0886804F0F3
:102FA0006BF80121C9022246FDF705F96FE0C04622
:102FB000FFFF000000265099002800D00CE20822F4
:102FC0005B98855E8488A54201D300F026FD3078A9
:102FD000801FC1B2052900D30220C0B2032801D945
:102FE00000F024FD4000C0467844808840008744BB
:102FF0006E0103000300A901012035990870A1E1C9
:10300000FFFF00002ABAA39232BAA29200BAA1909E
:1030100008BAA0902046102805D0A0A9095C401C41
:103020000029F8D0441E20212E9804F0C9FF0C205E
:10303000001BC021014378AA11701120011B01203F
:1030400003F06DFB112C01D300F0EBFCA0AA1219C8
:1030500010231B1B02F096FA66A878A9212204F01F
:1030600067FFB0E1A80B00D0A0E178A94D70280A55
:103070004030087066A80222A3E1748B64A88480A3
:10308000328B4280A1E622982146FDF780F8064661
:103090000C46602055952D5C4D9840685690002D4B
:1030A00005D0012D3DD0022D01D000F0BFFC78AC41
:1030B0002E21204605F0CFF9032D01D30020C54372
:1030C000559A613266A82946234600F0CFFC669ADD
:1030D000002A01D100F072FC679BA0AC20464D99FC
:1030E000FDF7F6FA2088002801D000F065FCA19ACF
:1030F0004D9C204656995C92FDF76AFA02460B46B3
:10310000269811461A46FEF7F2FE002800D1AEE0DE
:103110000020206060605EE164A845802C462A465D
:1031200053E6A0A8402105F096F9301900255A95DC
:1031300051908642569A5E9500D151E35A98801874
:1031400058903478761C5296164678A8402105F09F
:1031500082F9589886422ED2324640324D985D967A
:1031600031465C92FDF734FA06465F910025204611
:10317000402D11D05F99A94200D1EFE3715D0902A2
:103180000C183A21204605F057F9C62141430A1987
:1031900078A94A556D1CEBE7044678AA40234D9860
:1031A0005D99FDF7CDFA054680B2A14988425C9E43
:1031B000CBD000F008FC5E9A5A98101A5F90412814
:1031C00001D300F036FC002620465F99B1420ED0B4
:1031D000A0ADA95D09020C183A21204605F02CF992
:1031E000C62141430919A9555E9A761CEDE716469A
:1031F000403E0021C9435F915A9C002831D05F991D
:10320000614371185E9201D0131B15E05C915D90D3
:1032100056982118A0AA40234D98FDF791FA05462B
:1032200080B28349884200D0CDE3A0A8402105F0B8
:1032300012F940345D985C9B402B00D3DBE33A21CC
:10324000354606465A941C4605F0F6F8C621414319
:1032500089192E46A0AA11555A9C5E9A6E1C521CC2
:10326000CBE75A9440363546529E519861E76068E4
:103270005E90249805880021239801715F91016078
:103280006C4979916C4978910524214603F01EF927
:10329000002D00D151E15D940C24002D00D151E1AD
:1032A000072C00D157E30A262846314605F0C4F81A
:1032B0004643A91B30220A4378A90A55641E0546D5
:1032C000EBE75B990A8B64A842804C8B7DE55F92AB
:1032D00078A82E2105F0BFF8711C66AE304601F0CB
:1032E00081FD3078002800D07AE366A841785E91AD
:1032F000468898A85D901D225C92199904F018FEEA
:103300001A985D995C9A04F013FE300A1B99487074
:103310000E70A0AA5E98107066A8002178AB00F02D
:10332000A5FB6699002900D15DE335980078002857
:1033300007D1679A2698FEF7DAFD012141403598BA
:1033400001705F9A601EA842509945D13598007867
:10335000002841D00F2069903848784468900A20AE
:1033600067903748784466903648784480900220C9
:103370007B9066A87A9000207990334878447890C2
:103380003248784481907D92314878447C9031482D
:103390007844829006207F902F4878447E9078A8C9
:1033A000FEF72AFA5099002816D116E378A9CD70B5
:1033B000280A8870280C4870280E4030087066A8CB
:1033C000042203F08AF966A921223B9804F0B0FD9B
:1033D00001203C9908705099549E307800240C606C
:1033E0004C6005281BD114205B99085E002800D58D
:1033F0009FE041990988002900D1A5E280B2491EC9
:10340000814200D095E05B9800891449884200D041
:103410008FE05B984089884200D08AE094E2C04601
:1034200078440079400087441B7020783100C04602
:1034300001EF0000757420234F757470655600000D
:103440006A5600001A5600007C5A0000F65600002A
:10345000AF5300001C570000F2560000FFFF0000B1
:10346000489804700120307063E02121299804F00D
:10347000A7FD78A92422289804F05AFD2798046013
:10348000032030704898C4712A9844E008205B9962
:10349000085E00284DD43299098800290CD080B2EA
:1034A000491E814245D15B980088FD49884240D140
:1034B0005B98408888423CD12121209804F080FD0F
:1034C0004521219804F07CFD78A946221E9804F03D
:1034D0002FFD66A942221F9804F02AFD1C98046063
:1034E0004460052030701D9804804898447404207E
:1034F00059990876E04348610C74CC60F54A4A81DA
:103500002F9882818472048105E0C3204899C87095
:1035100002203070599804600BE00A204899C87066
:10352000042030702B21429804F095FF2F98E94930
:1035300001805B988461FEF7D6FD78A83021017286
:10354000012223E008215D9B0D2905D078A8405C6D
:10355000302803D1491CF7E7194600E0083978A85C
:103560004218581A0823CC180D2C07D00D2B00D167
:1035700048E2D45C78ADEC545B1CF4E70522239957
:1035800003F084F8002800D1E5E10A46083278A863
:103590000D2100F08EFA02460B4666AC20464D9D8A
:1035A0002946FDF795F82088002800D009E26798A1
:1035B0005D9024990888401C088068685A9078AC0F
:1035C0002121204604F047FF559E30468230214697
:1035D00003F0D8F900F078FA02460B4666AC2046B4
:1035E0002946FDF775F82088002800D0E9E16798A2
:1035F00058903089529000285F9D294668D0344603
:10360000F089B44A5040B1895140014388B2002842
:1036100001D0002400E01034002800D0F7E14D98DC
:1036200040685F9078A8402104F015FF0020559471
:103630002146402816D00C78650930225723052DE5
:10364000154600D31D462609AE1978AD2E540F2617
:1036500026400A2E00D31A4692192B185A70491C7C
:10366000801CE6E766A8519078A94024224604F021
:103670005FFCA0AE30464D9D2946519A2346FDF78A
:1036800027F83088002800D096E1A198519068680A
:10369000499078AC4E262046314604F0DCFE559821
:1036A00020302146324603F0DDF800F00DFA0246E4
:1036B0000B4666AC20462946FDF70AF8208800280C
:1036C00000D07EE167980F905F9DA9B2DC4805406D
:1036D000559178A84D9C21465E9A5D9B00F002FAB8
:1036E000789E002E00D165E179985F9078A82146F8
:1036F0005A9A589B00F0F6F97898002800D159E1C1
:103700005D905E9679985A9078A82146569A5C9B6F
:1037100000F0E8F9789E002E00D14BE1799A52989A
:103720000028C94B7B44C94979443BD056935892F1
:103730005C91559A2A4378A84D9D2946519B00F0EB
:10374000D1F9789C002C00D134E17998559078A873
:103750002946499A0F9B00F0C5F97898002800D1B6
:1037600028E17999879186900C208590B848784413
:10377000849055988390829408208190B54878442D
:1037800080905A987F905D987E9056987C9058983B
:103790007B907A96072079905C98789004217D91AF
:1037A00078A80DE05A987F905D987E9004207D90D7
:1037B0007C937B927A9607207990789178A8022161
:1037C0005E9A5F9B00F09EF9054600204D990860C7
:1037D0004860A8B299498842509900D1FCE5D0E0F0
:1037E0005A9EA91B1446A0A800F05CF902460B469D
:1037F00031194D98FCF7A4FF2E46054680B28F493B
:10380000884200D0DFE066A84025294604F023FE68
:1038100078A84995294604F01EFE3219761E1546F1
:1038200021465C928D4200D862E46C1A412C854896
:1038300078445F904D985A914ED358960A4640323C
:1038400004465292FCF7C4FE06465D912946403973
:10385000204651912A46FCF7BBFE499B002B21D004
:103860005D9AD218402A00D1CAE032783A2A00D3B1
:10387000BEE0CC185F9DAA5C66ADED186D1E2A7087
:10388000402C00D1BAE002783A2A00D3B0E05F9C25
:10389000A25C5B1E78AC1A55761C401CDEE7C04665
:1038A000FFFF000078AA40244D9D28465A992346E0
:1038B000FCF766FF66AA2846519D29462346FCF779
:1038C0005FFF589E803E5E9880385E9052995C9A69
:1038D000A8E7C046FFFF00002A46FCF779FE0B462A
:1038E000721C10D2002B00D188E002783A2A7FD2D5
:1038F000402E00D388E05F9DAA5C66ADAA555B1E92
:10390000401C761EECE766A8214600F0CBF8024684
:103910000B464D9C20465A99FCF732FF5C9AFFF704
:10392000E8FB022120E078A8407864A927E078A885
:10393000417819E00020FCF749FC012114E078A847
:10394000467898A846701BE00220109908703B4DFD
:1039500017E05C9812E04398851C34E05F980146BC
:1039600001F01FFEFEDE4A9964A8417008E066A8D7
:10397000407803E00020FCF729FC012098A948705A
:10398000439D012000024B9908184499459A01F083
:1039900047FA81B2294A914200D005462846FC1FC9
:1039A000053CA546F0BD4398851CEAE70020FCF7DE
:1039B0000DFCE5E778A802E0A0A803E066A88588EA
:1039C00001E066A8458800204D9908604860D8E766
:1039D0005A98629004212046C2E71748451CD0E758
:1039E00066A84588CDE766A88588CAE778A8BFE7B6
:1039F0003A211046B4E740211846B1E70846AFE740
:103A00005D98ACE70520AAE740213046A8E71248B8
:103A100078442B2101F06CFDFEDE104878442C2107
:103A2000F8E71021204601F07CFDFEDE00F018F8DA
:103A3000FEDE40215F98F6E7036E000001EF000014
:103A40000000FFFFC85500006550000098530000BB
:103A5000B9510000A34F0000D8500000DF4E000015
:103A600080B500AF01F053FDFEDED4D4D0B502AF77
:103A700086B0044605A8017020210491039201211B
:103A80000291019001A8194602F042FD002801D0E0
:103A9000616001E00249A180206006B0D0BDC0464F
:103AA00002E0000080B500AF0A46402100F001F8B6
:103AB00080BD80B500AF8A4201D8114680BD104656
:103AC00001F02FFDFEDED4D480B500AF002800D079
:103AD00080BD034878442B2101F00AFDFEDEC0467C
:103AE00014500000D0B502AF0446084611461A46ED
:103AF000FCF76EFD02460B46204611461A4600F0C2
:103B00003DF8D0BD80B500AF90B00493039207227A
:103B10000292144A7A440192134A7A440D92022284
:103B2000089201AA05AB07C3104878440E900820FC
:103B30000A900F48784409900E4878440F90062068
:103B40000C900D4878440B9005A8FDF755FE002811
:103B500001D1034800E0014810B080BD01EFFFFF34
:103B6000046E0000104F00002A4F00004E4F00006E
:103B7000054C0000724F0000484F0000DFB506AF53
:103B8000044601A801F0A0FD0198002804D0EF2010
:103B90000002A080002002E003986060029820608C
:103BA000DFBD42688368934203D2591C816000687C
:103BB000C15C934201D30020704701207047D4D4E8
:103BC000DCB504AF00280DD013460A4601466C460A
:103BD0002046FCF77DFD2088002801D00320DCBDB5
:103BE0000420DCBD024878442B2101F081FCFEDE7C
:103BF000024F000080B500AF9A4204D8994202D328
:103C000000F00AF880BD03487844472101F070FCB9
:103C1000FEDEC046D04D000080B500AF934204D315
:103C20008B4205D88018991A80BD1046194600E0CD
:103C3000184601F076FCFEDEF0B503AFA7B01D46D6
:103C4000134604461E910A4640320820115E1B921C
:103C500090880122012800D81046002900DA104679
:103C6000AAB2904201D800F0DCFCBA6800291A948C
:103C70000C9201D500F0D7FC1B9C60882288534E23
:103C80001F92B2421BD1B04219D11E461E9B1A464A
:103C90003232002018865081107098861071188773
:103CA00010725862C2221A701885484A9A8520609C
:103CB0001A46334624329071491C21811F901E9967
:103CC0000A46143201920A46093214920A1D1592CC
:103CD0008A1C03924A1C13920A463C3212920A46EC
:103CE0003D3211920A46303210920A4634320F9217
:103CF0000A4638320E922831029117951D93596861
:103D00009A68914201D100F09DFC1E461E9C228DB6
:103D1000012A00D801222C211C91615E00291F9BE1
:103D200001DA062200E0521D95B29AB2AA4201D3EE
:103D300000F08DFC042A0FD85200C0467A449288C5
:103D4000520097440400E703EF03F403F9030090E3
:103D500020A800231299E1E3002901D500F02DFCF1
:103D6000A58C1A4A954209D1E08C904206D1C22016
:103D70001E9A107000255562481C90857068B168C5
:103D8000884201D100F02FFC1E9C204602F068FB07
:103D9000A9B280B2814201D300F059FC2278C22A34
:103DA000254600D019E21D98FFF7FBFE0C460121C5
:103DB0000840FCF70BFAE0B2D42800D90BE2224607
:103DC000800003A10858081821468746FFFF00001D
:103DD00056030000200700005403000054030000B5
:103DE0005403000054030000540300005403000077
:103DF0005403000054030000540300005403000067
:103E00005403000054030000540300005403000056
:103E10005403000054030000A2030000B403000098
:103E2000DA030000E803000020070000200700007C
:103E30005403000054030000540300005403000026
:103E40005403000054030000540300005403000016
:103E50005403000054030000540300005403000006
:103E600054030000540300005403000054030000F6
:103E700054030000540300005403000054030000E6
:103E800054030000540300005403000054030000D6
:103E900054030000540300005403000054030000C6
:103EA00054030000540300005403000054030000B6
:103EB00054030000540300005403000054030000A6
:103EC0005403000054030000540300005403000096
:103ED0005403000054030000540300005403000086
:103EE0005403000054030000540300005403000076
:103EF00054030000540300009E0300009E030000D2
:103F00009E0300005403000054030000540300000B
:103F10005403000054030000540300005403000045
:103F20005403000054030000540300005403000035
:103F30005403000054030000540300005403000025
:103F40005403000054030000540300005403000015
:103F50005403000054030000540300005403000005
:103F600054030000540300005403000054030000F5
:103F700054030000540300005403000054030000E5
:103F800054030000540300005403000054030000D5
:103F900054030000540300005403000054030000C5
:103FA00054030000540300005403000054030000B5
:103FB00054030000540300005403000054030000A5
:103FC0005403000054030000EE03000054030000FB
:103FD0005403000054030000540300005403000085
:103FE0005403000054030000540300005403000075
:103FF0005403000054030000540300005403000065
:10400000540300000604000006040000060400003B
:104010000604000006040000060400000604000078
:104020000604000006040000060400000604000068
:104030000604000006040000060400000604000058
:104040000604000006040000060400000604000048
:10405000660600006A0600006E0600007206000098
:10406000760600007A0600007E0600008206000048
:10407000860600008A0600008E06000092060000F8
:10408000960600009A0600009E060000A2060000A8
:10409000A6060000AA060000AE060000B206000058
:1040A000B6060000BA060000BE060000C206000008
:1040B000C6060000CA060000CE060000D2060000B8
:1040C000D6060000DA060000DE060000E206000068
:1040D000E6060000EA060000EE060000F206000018
:1040E000F6060000FA060000FE06000002070000C7
:1040F000060700000A0700000E0700001207000074
:10410000160700001A0700001E0700002407000021
:10411000280700002C0700003007000038070000C7
:104120003C07000018990B9828720D986860089C4D
:10413000EC700A98A870199169702A7026A9164621
:104140000322149803F0F4FE32466C832C83EC7542
:104150000798A8750698A88205986882049828820E
:104160000998E86025982499E961286237E00020E1
:104170001EE026A800218170018024A8818024915E
:10418000122207E026A800218170018024A88180E6
:104190002491132208460A910D910B9109910791E0
:1041A0000691059108910491BDE70020C143099152
:1041B00018990D900B90B6E704200A90B2E7002101
:1041C000C84309900B9128480890079106910591E2
:1041D0000D910491A7E7C2222A70189819901A9C91
:1041E000214ED0B201461239052917D90146BB39F3
:1041F000062923D9002842D0012840D04A2847D098
:104200004B2845D04C2843D07E2800D192E08D2801
:1042100035D08E283246314664D130E07944097970
:1042200049008F440202464F2C2CAB8CE88C009046
:1042300022A813991D9AFBF7F3FF4BE0880003A116
:1042400008580818324631468746C04632000000FA
:104250009800000098000000980000005600000040
:104260002000000020000000FFFF0000AB8CE88C65
:10427000009022A815991D9A00F00FFD2AE0AB8C42
:10428000E88C009022A813991D9AFBF7ADFF21E05E
:10429000AB8CE88C009022A815991D9A00F0F8FBD1
:1042A00018E0E88CAB8C002B59D0009022A8039921
:1042B000EAE7AB8CE88C009022A815991D9AFCF7D0
:1042C00029F807E0AB8CE88C009022A803991D9A8E
:1042D000FCF776F822A80078002800D0E8E122A8B0
:1042E000828841880C461440B44200D10022B44276
:1042F000169201D1A88C411C2E4618918DB23046E1
:1043000002F0AEF881B28D42EB4A104600D016980A
:10431000F0848D42154600D0189DB584944216460F
:10432000199900D070E12840B04218911D9E00D02C
:1043300024E56FE118202A5E002A14D4688A298AAD
:10434000B14229D1B0421D9B27D10020287268605C
:10435000C143E9602861511C298301461DE000909A
:1043600022A800238FE7AB8CE88C009024AE304667
:1043700001991D9A00F020FC3078002800D093E1CC
:1043800024A88188408802460A40CB4EB24249D0D8
:1043900022AA91805080A2E71D9B5D681A469B6807
:1043A0009D423BD0090400D03BE1009024AC0026A4
:1043B000204615993346FBF7ADFF2078002800D042
:1043C0003EE124A843882598194601408AB2BA499B
:1043D0008A4200D00646B84882421E9D01D1288AF2
:1043E000431C99B20129B4481A9C00D03046688217
:1043F0000129B14D294600D019461E9B19822E462F
:10440000AA421D9B0AD10A46024092B2B242C4D1CE
:1044100022A84680324631461E9D63E71E9DEA8CE7
:10442000A98C5FE700222A83A88A002886D122A8C7
:104430008680468053E78D225AE08E2258E08F22F4
:1044400070E690226EE691226CE692226AE6932252
:1044500068E6942266E6952264E6962262E6972252
:1044600060E698225EE699225CE69A225AE69B2252
:1044700058E69C2256E69D2254E69E2252E69F2252
:1044800050E6A0224EE6A1224CE6A2224AE6A32252
:1044900048E6A42246E6A52244E6A62242E6A72252
:1044A00040E6A8223EE6A9223CE6AA223AE6AB2252
:1044B00038E6AC2236E6AD2234E6AE2232E6AF2252
:1044C00030E6B0222EE6B1222CE6B2222AE6B32252
:1044D00028E6B42226E6B52224E6B62222E6B72252
:1044E00020E6B8221EE6B9221CE6BA221AE6BB2252
:1044F000002118E6BC2215E6BD2213E6BE2211E615
:10450000BF2200210A910EE6C02200E0C122002055
:104510000D9007E6009020A8012311993246FBF781
:1045200063FE10E0009020A80223109908E000909C
:1045300020A803230F9903E0009020A804230E99DC
:10454000324600F039FB5C4E20A80078002800D0ED
:10455000A2E020A8818843881C98225E208D012833
:1045600000D80120002A1B9C01DA062000E0401D33
:104570001A460A40B24200D10021B24201D123883A
:104580005B1C85B29EB2AE424B4800D008466080AC
:10459000AE42494E314600D019461F912180B242A9
:1045A000179D1D9B4ED11F9989B2B14201D0FFF7D3
:1045B000A6FBB04263D0FFF7A2FB0090324624AEC8
:1045C0003046029900F0F8FA3078002860D124A82B
:1045D0008188408802460A40374EB24207D020AA5E
:1045E00091805080B5E71E9C1F9B334E0FE0002149
:1045F000A185208D00281D9E01D0FFF7B1FB20A8CA
:104600002D4E86804680A4E718911E9C1F9B1B9808
:104610004188A1E7284E08463146334618901E9C33
:104620009AE702203BE01B98011D009224AC204633
:104630001A461E462B4600F0BFFA2078002808D004
:1046400024A82AE01A9C0C98A08065801EE0022015
:1046500024E01D9624A8828841880B461340164802
:10466000834210D100211B9A11819288002A1A9C42
:104670001D9B01D0FFF700FBA080608006E01A9C24
:10468000A680668002E01A9CA2806180002008E07B
:1046900024A8407820A9487020A840781A9C60700F
:1046A0000120207027B0F0BD24A8407822A94870CE
:1046B00022A84078F3E7C046FFFF0000F0B503AF43
:1046C00085B0009316460190F81D013002888818C5
:1046D000029021200492801A039000247068B1682F
:1046E000884212D0039884420FD23046FFF759FA1D
:1046F0000D4601210840FBF769FD049800192128A7
:1047000014D202980555641CE8E70020019B18703C
:1047100004996118C0432129024600D00A469A80B4
:10472000212900D00098588005B0F0BD212100F06B
:1047300038FFFEDEF0B503AF8DB01C4615460E46C1
:1047400002F09AFC0346294603950494A21901201D
:10475000C502681C824218D20292AE4218D898193B
:1047600001912246009302F0C9FC00982946324686
:10477000029BFFF751FA06910590019A234601F03A
:1047800067F8002809D00A4800E008480DB0F0BDDD
:104790003046294600F0C5FEFEDE0020079005A841
:1047A00003A907AA00F0D6F8FEDEC04602E000002A
:1047B00001EF000080B500AFC0B2A52802D0C9B299
:1047C000A52903D1A538411E884180BD00F08BFE8C
:1047D000FEDED4D4B0B502AF0D4604460749794495
:1047E00000F010F8204640300A22294602F086FCEC
:1047F00003497944204600F005F8B0BDF8420000B6
:10480000E542000080B500AF012202F077FC80BDD8
:10481000F0B503AF87B004468020255C267830468B
:104820002946FFF7C7FF002800D13546E9B2002826
:1048300000D08034A52903D14034204607B0F0BD14
:104840000020019001A9204600F002F8FEDED4D439
:10485000F8B504AF009102A803AA034979440B46B6
:1048600000F05AFEFEDEC0467C4200007047D4D401
:1048700080B500AF014802F0FFFB80BD808FD0C043
:10488000F0B503AF9DB00391049005AD40212846DB
:1048900003F0E1FD15AC20262046314603F0DBFD98
:1048A000009421200290052203992B4602F032FC4D
:1048B000049C204608302946324603F039FB28463E
:1048C00001F086F96660029921701DB0F0BDD4D464
:1048D000014602467F321020222A17D87A441279E4
:1048E00052009744111A1C1E20222426282A2C2EFE
:1048F0003333333333333333333333333333333388
:104900003333333333303200012070470A46BF322D
:104910001DD0DF311AD100207047022070470320DC
:104920007047042070470520704706207047072015
:10493000704708207047092070470A2070470B20F5
:1049400070470C2070470E2070470F2070470D20D5
:104950007047D4D4F8B504AF009202A803AA034963
:1049600079440B4600F0D8FDFEDEC046F041000061
:10497000F0B503AF95B00691006860C848698A69D0
:10498000D3683D4979440124224698472346069935
:104990000CAA203202920A46203201922246059445
:1049A000002E5CD00795C007184654D1CC6960072B
:1049B00012D4D0070BD148698969CB682F49794453
:1049C00002229847059B06990028184643D107A85C
:1049D00001F0EAFA059B33E0486904908869039086
:1049E000D0070BD00398C368254979440122049865
:1049F0009847059B0699002818462CD10BA8012240
:104A00000270019A1278029B1A700A90039809901A
:104A10000498089013941B487844129008A81190A9
:104A2000086804900C1D1DCC0DA91DC104980C90A4
:104A300007A80CA901F0B8FA002803D0059B184676
:104A4000069908E01298C36811980F497944022228
:104A500098470699059B6D1C761E0022A0E7C007AB
:104A600007D148698969CB68084979440122984788
:104A70000346184615B0F0BD60430000194300001E
:104A8000F942000080410000924200007B42000099
:104A9000F0B503AF87B00591064650689168BD68D0
:104AA000884203D1B5807380002070E0029328040F
:104AB0000690039202D00598047909E01046FFF7AA
:104AC00070F80C4601210840FBF780FB0598047143
:104AD000204600F05FF80490052803D9002070708C
:104AE000012054E0C020204003D0402801D080287D
:104AF00009D106980028039814D13F22A10607D5B2
:104B0000D1430C4305E0ADB2012D039809D909E06A
:104B100014400499CA001832182111408C4005999C
:104B20000C6001250196ABB2D943049A8918CE00D6
:104B300005990D68426881688A4219D004998B42B0
:104B400016D234461E46FFF72CF806910121084084
:104B5000FBF73CFB33462646039818222240069971
:104B6000C9B291400D4305990D60083E5B1CE1E719
:104B70000020C143049A93420A4600D01A46019E7F
:104B8000B280049A9342029A00D01146718030702C
:104B900007B0F0BDC0210140802905D0402905D0D3
:104BA000002905D10120704704207047022070477A
:104BB0003F210840401D7047F0B503AF87B01E4647
:104BC00053689468BD68A34203D185804680002362
:104BD00060E00591290404920290069102D00598A4
:104BE00080780AE01046FEF7DCFF0C460121084001
:104BF000FBF7ECFA0598847020460446FFF7CAFFDD
:104C00000390042804D9002102984170012341E057
:104C100001960698002806D0059800880690AEB246
:104C20000498039D0CE03F200440039DE8001830E9
:104C3000182101408C4005980694048001260498B0
:104C4000F1434919CC00426881688A4216D0AE42CD
:104C500014D2FEF7A6FF0D4601210840FBF7B6FA75
:104C6000049818222240E9B2039D9140069A0A4313
:104C7000059906920A80083C761CE4E70023D94394
:104C8000AE420A4600D0324602988280AE4200D040
:104C900001994180037007B0F0BDF0B503AF89B052
:104CA00001930390F81D013003880420C01A079077
:104CB0000293D800182305931B1A06910E6800244E
:104CC00004925068916888421AD00798844217D29B
:104CD00010461D46FEF765FF08940C46012108406A
:104CE000FBF774FA2B46049A284605990840E1B26E
:104CF000089C81400E4306980660083B641CE0E770
:104D00000020039B187002996118C04304290246D1
:104D100000D00A469A80042900D00198588009B032
:104D2000F0BDF0B503AF87B0029313460390F81DB2
:104D3000013002888818049020200692801A019081
:104D40000026059358689968884214D006988519FA
:104D5000284620380ED01846FEF723FF0C460121C6
:104D60000840FBF733FA202D16D204988455761CA0
:104D7000059BE7E7019E0020039B187006997118B8
:104D8000C0432029024600D00A469A80202900D03C
:104D90000298588007B0F0BD2021284600F001FCA1
:104DA000FEDEE0B502AF01462831019108300090E7
:104DB000684601F039F98CBDF0B503AFC1B00446C7
:104DC000012005026E463046294603F00AF93046B6
:104DD000294602F05FF9204631462A4603F0C2F820
:104DE00041B0F0BDF0B503AFC1B00D4604466E460C
:104DF0003046FFF7E1FF21223046294600F010F847
:104E000081B2064A914204D16946204600F016F864
:104E100002E001212170608041B0F0BD01EF00008F
:104E200080B500AF02F04EF9002801D0024880BDE5
:104E3000004880BD01EFFFFF01E0FFFFF0B503AFC9
:104E400089B00D46044601AE2021304603F003FB35
:104E50002846314602F030F9002803D00648608029
:104E6000012005E0601C01A9202203F061F8002068
:104E7000207009B0F0BDC04601E00000D0B502AF1F
:104E80000378012211462B2B12D02D2B10D000239A
:104E900019465A1E541EA241012B09D0C45C303C55
:104EA000092C04D80A224A4311195B1CF1E701219D
:104EB0001046D0BDE0B502AF002801D108468CBD38
:104EC0000348784401A9034A7A4400F016FBFEDE49
:104ED000513C0000783C000080B500AF492900D269
:104EE00080BD48220846114600F01BFBFEDE7047DD
:104EF000F0B503AF87B00C4601904869896902910B
:104F0000CB68344979440D2206461D469847012155
:104F100000284BD10091207F400720D42E497944AE
:104F200003223046A84700283FD12C497944042267
:104F30003046A847002838D1294979440222304612
:104F4000A847002831D101983146029A00F058F85C
:104F5000002800992AD129497944022235E02149C3
:104F6000794403223046A84700281ED106A8012113
:104F70000170059002980490039603A81A49794499
:104F8000042200F075FC00280FD103A817497944CA
:104F9000022200F06DFC002807D103A9144A7A44CC
:104FA000019800F02DF8002803D00099084607B0BA
:104FB000F0BD03A80F497944022200F059FC0028F3
:104FC0000099F3D10C49794401223046A8470146A3
:104FD000ECE7C046833C0000B63D000051380000BD
:104FE0009F3D00007B3D0000FF3700004B3D00006F
:104FF000FA3B0000283D00001A3D0000893D0000FA
:10500000B0B502AF0B4600780E4979440524C0467E
:105010007844007940008744100206090D000A49CF
:1050200079440C2409E00949794401E008497944AC
:105030000B2402E0074979440424D5681846224627
:10504000A847B0BD563B0000453B0000493B00006F
:105050004E3B00003737000080B500AF812903D2F6
:1050600040188022511A80BD80220846114600F067
:1050700058FAFEDEF0B503AF91B0202408AD03234B
:105080002B550C9400230DAC0BC40A93009308938A
:105090001469002C01923ED0203504951F20C006D3
:1050A00051699368039316684D01814302910596F7
:1050B000002D55D07268002A06D00E98C36831685A
:1050C0000D98984700285CD1204620300690207F1C
:1050D0000499087020690C90A0690F90214608314E
:1050E0000795039D284600F051F80991089028463D
:1050F000214600F04BF80B910A906069C100685896
:105100006918079D4A6808A990470836203D00287D
:10511000069CCDD035E0072040079468D16812681E
:105120000592CA0007928143029100250798A84280
:1051300016D0059840194268002A07D005984159B1
:105140000E98C3680D98984700281AD1264608364D
:1051500005CC08A99047083500283446E6D010E071
:1051600001984068029981420DD20298C000059AC8
:105170001158101842680E98C3680D989847002877
:1051800001D0012000E0009811B0F0BDD0B502AF11
:105190000B68002B0CD002460020012B0AD1496875
:1051A000CB00D1184968064C7C44A14203D0D0BD45
:1051B000081D01E0D0BDD05801680120D0BDC04617
:1051C000F5040000FEB506AF029301920E460446B8
:1051D0000025AE4209D00298026901982146904705
:1051E0006D1C0028F5D0681E00E03046B04201D3A7
:1051F0000020FEBD0120FEBDF0B503AF8DB00C92C6
:105200000A460546C6690121304609910840112128
:1052100009040028069100D02B210B91B96844188D
:1052200070070893079102D400200A9006E00C98BA
:1052300011180A92104600F085F804192868002811
:105240002AD06968A14227D930073BD4091B01261F
:105250002846324600F014F90446069884422ED0BF
:1052600009916969AD690C9800900C91084629462E
:105270000B9A0A9B00F0E8F8002820D1EB680C9804
:105280000899079A9847002819D1204609990C9A3D
:105290002B46FFF797FF11E06C69AD690C98009001
:1052A000204629460B9A0A9B00F0CEF80028099E5A
:1052B00005D1EB6820460899079A9847064630467C
:1052C0000DB0F0BD05912020295C039101262E54DC
:1052D00028690290302028616A69A9690C980090B9
:1052E000049210460C910B9A0A9B00F0ADF800282E
:1052F000E5D109960598011B0122284600F0C0F867
:1053000006460698864209D00B910C98C368049C07
:1053100020460899079A9847002801D0099ECEE7B1
:1053200030460B9922460C9BFFF74CFF0028099E44
:10533000C5D12846203003990170029828610026C3
:10534000BDE7D4D4F0B503AF8BB0091A102965D3EB
:10535000C21C03239A43121A8E1AB40805945DD016
:1053600034469C4381180C1901931E40049100F0AF
:10537000F5F80546A119204600F0F0F84019314E25
:10538000059A002A4DD00390C02A134600D3C023AB
:1053900007A8049900F0D0F8089A134601988343AF
:1053A0000A98059009980490079907A800F0C4F896
:1053B00008988000079B19180A980290099806908F
:1053C00000228B420DD00020102808D01D58AC09B7
:1053D000ED43ED0925433540AA18001DF4E71033CD
:1053E000EFE7100A16490A4008408018134948435D
:1053F000000C0399401802990029C1D004468A0084
:105400000021002A0FD0069B01CB06938309C043DD
:10541000C009184330404118121FF2E7411800F04C
:105420009DF80BB0F0BD080A054A11401040401825
:1054300002494143080C0019F3E7C046010001008E
:10544000FF00FF0001010101F8B504AF1C460E4644
:10545000054611200004824207D0336928461146D0
:105460009847002801D00120F8BD002C05D0BA686B
:10547000F368284621469847F8BD0020F8BDD4D4EB
:10548000FEB506AF2023C55CAB0002A4E358E318C9
:105490009F46C046260000001C00000010000000CF
:1054A000180000004D084A1C510806E0120603D0FF
:1054B00000220D46114600E0002501916C1C016997
:1054C000029146698569641E09D02A6930460299AD
:1054D00090470028F7D011200004019901E00199BC
:1054E000029803B0F0BD80B500AFFCF77FF9FEDE97
:1054F00080B500AFFFF7F7FFFEDE80B500AFFFF726
:10550000F2FFFEDE80B500AFFFF7EDFFFEDE80B5F7
:1055100000AFFFF7F7FFFEDE80B500AFFFF7E3FF58
:10552000FEDE80B500AF00F001F8FEDE80B500AF12
:10553000FFF7D9FFFEDED4D4D0B502AF9A4205D32F
:10554000D21A9C000C191AC00260D0BD02487844DF
:105550002321FFF7CDFFFEDE62360000B0B502AFBB
:1055600088420CD00A1A00231946C4564025ED4340
:10557000AC4200DD491C401C521EF6D100E0002167
:105580000846B0BDD0B502AF0C46994204D11146D1
:10559000224602F0CDFCD0BD2046194600F001F8AD
:1055A000FEDE80B500AFFFF79EFFFEDEF0B503AF75
:1055B00093B00291064627200890354C364878442F
:1055C0000390A6422DD93046324902F035FF0790AC
:1055D000611C4143701A069080B26426314602F085
:1055E0002BFF05464100039A505C059009AB089CCF
:1055F00018190490001F059B0370511849784170D9
:105600006E430698801B80B24000115C049B9B1E79
:105610001970101840785870241F08941C4C079E6D
:10562000CFE7632E13D9B0B26424214602F004FF01
:105630004443311B89B24900039D6A5C089CA41E47
:1056400009AB1A551A1969184978517001E03046AA
:10565000089C0A2804D2611E303009AA505409E07F
:105660004000039D2A5CA11E09AB5A545A18281801
:10567000407850702720401A009009A84318074925
:10568000794400220298FFF7B7FD13B0F0BDC04681
:105690000F270000102700006F3700007837000048
:1056A0000068FEE7B0B502AF0B46C4B20020014669
:1056B0008A4204D05D5CA54203D0491CF8E711463C
:1056C000B0BD0120B0BDD4D4F0B503AF88B0019017
:1056D000D61F0023072A00D21E46C81C03240094AC
:1056E000A043401A07905948784406900596934283
:1056F00000D38CE0CD5C6CB2002C17D40798C01A94
:105700008007514D02D05B1CF1E70833B34207D24A
:10571000C858CC18646804432C42F6D000E05B1CE7
:105720009342E4D2C8560028F9D5E0E70698405DD8
:1057300001260496022816D003281ED00428059EB0
:105740006BD1581C029000200390029890426ED2B8
:105750000856F02D22D0F42D25D104467020C043E8
:10576000844229DD59E05C1C94425ED208574025F2
:10577000ED43A842059E48DD4FE0581C00260396E5
:105780009042059E53D2085CE02D24D0ED2D45B209
:1057900026D16020C04385422FDD3EE07030C0B28C
:1057A000302809D339E005460F34E0B2022834D856
:1057B0003F20C043854230DA981C904237D20856C9
:1057C0004024E543A8422BDCDC1C94422FD208572E
:1057D000A8421ADD26E0E0242040A0280DD01CE0DD
:1057E00020461F30C0B20C2803D3E0B2400877280F
:1057F00013D13F20C04385420FDA9C1C944216D23D
:1058000008574025ED43A8420ADC631C6FE7019866
:10581000416001468260002012E00498009002E09E
:10582000022000900498039001E00020039000986B
:10583000C0B200020399081801994B60886004986F
:10584000086008B0F0BDC04680808080EC34000065
:10585000D0B502AF994208D10C461146224602F05B
:1058600054FB014640424841D0BD0020D0BDD4D4B5
:10587000F0B503AF99B00FAD0026AE84179216961F
:105880000A231593012401941494139209921192FE
:105890000C9110910F930168059141680491806803
:1058A0000690284618300290243503950796334613
:1058B00008963446002C099A00D09BE09A4265D3A2
:1058C0000C98C518D41A072C07D800218C425BD03D
:1058D000685C0A2841D0491CF8E7E81C032188438A
:1058E000A8420E950B930A9401D100250DE0451BAB
:1058F000A54200D30A9D0A200E992A46FFF7D2FE40
:10590000012802D1099A0B9B27E00A9808380D90CC
:105910000D98854215D80E9C6159394802468A4334
:10592000364B5940374E8919114062195268034667
:1059300093433248424092191A400A4301D1083534
:10594000E6E70E9841190A98421B0A20FFF7AAFEC3
:105950000128099A0B9B17D14919C818431C1293A7
:10596000ACD09342AAD80C9908180121029A1C467F
:105970000B46FFF76DFF2346099A00289ED0169329
:1059800000241D461E460CE012921346079800287C
:1059900030D1012403984470089D9542079416461F
:1059A00028D00698007800280B9308D00498C36884
:1059B00015497944042205989847002818D1089B76
:1059C000F21A0C98C1189E4201D1002005E050182F
:1059D000401E03780A3B58425841069B18700498B1
:1059E000C36805989847002808950B9B00D161E78C
:1059F000019800E0002019B0F0BDC0460A0A0A0A6A
:105A000080808080FFFEFEFECF2D0000F8B504AF41
:105A100060C80468207800280BD00091F368094919
:105A200079440422284698470099002801D0012093
:105A3000F8BD08460A38424242412270326928467F
:105A40009047F8BD612D000080B500AF0A460249BD
:105A50007944FFF70FFB80BD98320000B0B502AF6C
:105A6000044600F0ABFB002801D100F0AFFB062597
:105A700000F0A4FB00281FD00421204600F097FB73
:105A800020780528F3D12179E078420808461043B0
:105A90002071002904D0002A12D0032A0ED00BE076
:105AA000032A09D80020C0467A441279520097444C
:105AB000010F1005002020712846B0BD0220B0BDA6
:105AC000002020710429284602D2C9000248C8409B
:105AD000B0BD0120B0BDC04606030405F0B503AF5C
