:02000004C0D06A
:1000000080B500AF06F020FF012006F0BCF9FEDE4F
:10001000B0B502AF0D4604460749794400F02FF809
:10002000204640300A22294607F032F90349794434
:10003000204600F024F8B0BD628700004F87000022
:10004000F0B503AF87B004468020255C26783046A3
:10005000294600F030F8002800D13546E9B20028E2
:1000600000D08034A52903D14034204607B0F0BD2C
:100070000020019001A9204600F04AF8FEDE80B57C
:1000800000AF012207F004F980BD80B500AFC6B013
:10009000FF20143001AD00242C5489204100284653
:1000A00008F0A3FA07204103284605F01FFF204669
:1000B00006F069F9FEDE80B500AFC0B2A52802D017
:1000C000C9B2A52903D1A538411E884180BD04F0DD
:1000D000DCFFFEDE7047D4D480B500AF002800D02E
:1000E00080BD034878442B2104F0D4FFFEDEC046D7
:1000F000938B0000F8B504AF009202A803AA03494D
:1001000079440B4604F0DAFFFEDEC046908600001C
:10011000F8B504AF009102A803AA034979440B463D
:1001200004F0CCFFFEDEC04664860000F0B503AFED
:10013000A9B01E462092054621910A464032082069
:10014000115E1F9290880122012800D810460029D4
:1001500000DA1046B2B2904201D800F013FCBA683F
:100160000029109224D41F9A508813885A4CA34215
:100170001C9502962DD1A042209A2BD12546219C78
:10018000234632330020208658811870A0861871CB
:10019000208718726062C22323702085A5851F9D69
:1001A0002860234624339871491C2981034611E0B5
:1001B0001F98011D009226AC2046209A334601F07C
:1001C00027FE2078002801D100F0E5FB26A800F0EA
:1001D0000AFC209A21990C46143401940C460934E7
:1001E00018940C1D19948C1C04944C1C17940C46E8
:1001F0003C3416940C463D3415940C46303414941B
:100200000C46343413940C4638341294283103913C
:1002100051689468A14201D100F0B6FB21990C8D80
:10022000012C00D801242C25495F00291E9501DAF4
:10023000062400E0641DA4B29DB2A54201D300F0E3
:10024000A8FB042D0ED86D007D44AD886D00AF4431
:1002500004001A03210326032B03009022A8002385
:10026000169914E3002901D500F05DFB219CA58CB3
:10027000194B9D4208D1E28C9A4205D1C2222270CC
:1002800000256562491CA18520994A6889688A42CF
:1002900001D100F05DFB204606F0ACF9A9B280B2B6
:1002A000814201D300F075FB2378C22B00D04CE1D2
:1002B000209802F0B3F80C4601210840FFF70CFF2C
:1002C000E0B2D42800D93DE1234604A122464000F3
:1002D000085A40008744C046FFFF0000D800C5020E
:1002E000D700D700D700D700D700D700D700D70056
:1002F000D700D700D700D700D700D700D700D70046
:1003000002010B0120012701C502C502D700D70059
:10031000D700D700D700D700D700D700D700D70025
:10032000D700D700D700D700D700D700D700D70015
:10033000D700D700D700D700D700D700D700D70005
:10034000D700D700D700D700D700D700D700D700F5
:10035000D700D700D700D700D700D700D700D700E5
:10036000D700D700D700D700D700D700D700D700D5
:10037000000100010001D700D700D700D700D70047
:10038000D700D700D700D700D700D700D700D700B5
:10039000D700D700D700D700D700D700D700D700A5
:1003A000D700D700D700D700D700D700D700D70095
:1003B000D700D700D700D700D700D700D700D70085
:1003C000D700D700D700D700D700D700D700D70075
:1003D000D700D700D700D7002A01D700D700D70011
:1003E000D700D700D700D700D700D700D700D70055
:1003F000D700D700D7003601360136013601360165
:100400003601360136013601360136013601360134
:1004100036013601360136013601360168026A02BC
:100420006C026E02700272027402760278027A0224
:100430007C027E02800282028402860288028A0294
:100440008C028E02900292029402960298029A0204
:100450009C029E02A002A202A402A602A802AA0274
:10046000AC02AE02B002B202B402B602B802BA02E4
:10047000BC02BE02C002C202C402C702C902CB0251
:10048000CD02D102D3023246219C0F9820721198DE
:1004900060600798E0700E98A0701D9262702370E3
:1004A00028A9032218981D4607F00CFE2B46069833
:1004B00060830C9820830598E0750B98A0750A98C6
:1004C000A08209986082089820820D98E0602798A1
:1004D0002699E161206239E0002020E028A800226E
:1004E0008270028026A882802692122307E028A824
:1004F00000228270028026A88280269213230E9208
:10050000079211920F920D9206920C9205920B9205
:100510000A9209920892B7E70020C1430D91324632
:1005200011900F90B0E704200E90ACE70021C84373
:100530000D900F9128480C900B910A9109911191FF
:100540000891A1E7C223219C23701D961C9DD8B25F
:1005500001461239052918D90146BB39062925D982
:10056000002844D0012842D04A2849D04B2847D0FF
:100570004C2845D07E2800D194E08D2837D08E2895
:1005800015480346014667D131E0C04679440979F0
:1005900049008F44020247502C2CA38CE08C009021
:1005A00024A81799209A02F0E3F94CE0880003A1EF
:1005B0000858081808490B468746C0463200000014
:1005C0009C0000009C0000009C0000005600000001
:1005D0002000000020000000FFFF0000A38CE08C42
:1005E000009024A81999209A01F0D4FC2BE0A38C48
:1005F000E08C009024A81799209A02F09DF922E03F
:10060000A38CE08C009024A81999209A01F06CFB2F
:1006100019E0E08CA38C002B00D198E0009024A876
:100620000499E9E7A38CE08C009024A81999209AFA
:1006300002F022F807E0A38CE08C009024A8049933
:10064000209A02F06FF8219C24A80078002800D09E
:10065000C8E124A8838841880E461E40E5488642AA
:1006600000D1002386421A9301D1A08C411C1B911A
:100670008DB2204605F0BEFF81B28D42DD4B1A4699
:1006800000D01A9AE2848D421D4600D01B9DA5849D
:100690009E4200D06BE12A409A421D990E4600D03E
:1006A000F2E56AE11820225E002A54D4608A218A89
:1006B000D04B99420BD1984209D10020219B18724E
:1006C0005860C143D9601861511C19830146209BB1
:1006D0005A689B689A4258D0090400D052E10090B1
:1006E00026AE002430461999209A234601F0C4FF13
:1006F0003078002800D067E126A84388279819465B
:1007000001408AB2BB4DAA4200D00446AA4202D19F
:100710002198008A431C99B2012928461C9D00D0CB
:100720002046219C60820129B24900D01946219BB4
:100730001982B04B9A4228D10A46024092B29A429C
:10074000C5D124A8AB4941800B46219C84E7009089
:1007500024A800234FE7A38CE08C009026AC204611
:100760000199209A01F054FB2078002800D035E14F
:1007700026A88188408802460A409E4B9A4208D0AB
:1007800024AA91805080219C63E7219CE38CA18C5A
:1007900062E70022219C2283A08A002886D124A817
:1007A000944A8280428054E78D235AE08E2358E099
:1007B0008F2368E6902366E6912364E6922362E63F
:1007C000932360E694235EE695235CE696235AE63F
:1007D000972358E6982356E6992354E69A2352E63F
:1007E0009B2350E69C234EE69D234CE69E234AE63F
:1007F0009F2348E6A02346E6A12344E6A22342E63F
:10080000A32340E6A4233EE6A5233CE6A6233AE63E
:10081000A72338E6A82336E6A92334E6AA2332E63E
:10082000AB2330E6AC232EE6AD232CE6AE232AE63E
:10083000AF2328E6B02326E6B12324E6B22322E63E
:10084000B32320E6B4231EE6B5231CE6B6231AE63E
:10085000B72318E6B82316E6B92314E6BA2312E63E
:10086000BB23002210E6BC230DE6BD230BE6BE230E
:1008700009E6BF2300220E9206E6C02300E0C12352
:1008800000201190FFE5009022A80123159902F0A5
:1008900053F80FE0009022A80223149908E000907A
:1008A00022A80323139903E0009022A8042312999D
:1008B00001F0AEFA4F4D22A80078002800D089E060
:1008C00022A88288418821981E9BC35E008D012842
:1008D00000D80120002B01DA062000E0401D0C4664
:1008E0001440AC4200D10022AC4202D11F990988C9
:1008F000491C83B28DB29D423E4800D010461F9ADB
:1009000050809D423B4D2B4600D00B461380AC429D
:10091000209A39D199B2A94201D0FFF779FCA842B7
:1009200049D0FFF775FC009026AC2046039901F0F2
:100930006FFA2078002849D126A88188408802468D
:100940000A402C4DAA4206D022AA91805080B7E7D7
:100950001F98284D0EE0002121988185008D0028E8
:1009600001D0FFF783FC22A885804580A8E71D9E63
:100970001F981D4642880188A5E71E4D0E462A464F
:100980002946A0E702202FE01C9D1098A88002981D
:1009900014E0022020E026A8828841880B461340FC
:1009A000144883420DD100211F9A11819288002A98
:1009B00003D0FFF7D8FB28461C9DA8806880002044
:1009C00014E0AA806980FAE726A804E026A8407807
:1009D00022A9487022A840781C9D05E026A84078EE
:1009E00024A9487024A8407868700120287029B094
:1009F000F0BDC046FFFF0000F0B503AF87B0029323
:100A000013460390F81D01300288881804902120B5
:100A10000692801A019000260593586899688842CA
:100A200014D006988519284621380ED0184601F0B2
:100A3000F5FC0C4601210840FFF74EFB212D16D294
:100A400004988455761C059BE7E7019E0020039BD4
:100A5000187006997118C0432129024600D00A4631
:100A60009A80212900D00298588007B0F0BD21213A
:100A7000284604F0FAFBFEDEF0B503AFA1B0054650
:100A8000C068002807D0012809D17D497944A868A9
:100A90000123002207E008A8042101751FE0A868CF
:100AA0008168C268002308AC23750B920A91296AF9
:100AB0000C91016840680990089104F073FE14A835
:100AC000002101711491204604F076FE14A804F070
:100AD00029FEC0B20628F9D0C01E0228F6D80EA8FA
:100AE0000122027500261196664878441090696AC2
:100AF000129169690F9129690E9114A903920A75DF
:100B000017961690A86A1890E8691590A86914902D
:100B100068680790441C601E059000D205962868FE
:100B200002900798401E049035460694A54221D0B5
:100B30000798854236D11EA8002404711E9404F043
:100B400031FE0EA804F038FE1EA804F0EBFDC0B282
:100B50000628F9D0052800D186E004281FD00328F4
:100B6000F2D107980228049D1AD208A800F094F840
:100B7000254615E01EA8002101711E9104F012FE09
:100B800014A804F019FE1EA804F0CCFDC0B206287B
:100B9000F9D0052869D00328F5D1059DC6E7069D43
:100BA000069CC3E766D21AA80021017100911A9130
:100BB000280102990918019103981C90C868112115
:100BC00007F004FD0446401C1D901DA820901CA8A1
:100BD0001F9001981E900398064000D134461EA82D
:100BE000214604F0AFFE1AA804F09CFDC0B206280E
:100BF000F9D00428F7D8C0467844007940008744EB
:100C00000308021D0D00EEE71F48784405F0C6F901
:100C1000E9E71E48784405F0C1F9E4E71D48784447
:100C200005F004FA661C1D9886420FD000D32646B4
:100C30001EA8314604F086FE3446D4E714487844B2
:100C400005F0F4F9002C04D0641EC8E76D1C009E6A
:100C5000A6E7002D02D06D1E039EA1E708A800F0B4
:100C60001BF8002635469BE7069C281B411E884141
:100C700021B0F0BD2846079904F0F7FAFEDEC04621
:100C8000988400003A840000EA810000FC810000A2
:100C9000B6810000F2810000DCB504AF0446007D9F
:100CA000042812D004F07EFD204604F085FD68463D
:100CB000002101710091684604F034FDC1B206299B
:100CC000F9D0062108400428F5D1DCBDF0B503AF0A
:100CD000EE4EB544EE4868441490EE4868442E90B9
:100CE000ED4868442890ED4868441A90FF2112317D
:100CF00031A82F904118002630918E70892149002B
:100D000007F073FCE64876AD281814211D9007F013
:100D10006CFC2E87B496012108020C4619912D9087
:100D20002818079001F093FE832080002B9028184C
:100D30006402214607F059FC2120229040012C90AA
:100D40002E5428192146D74A46608260F696769638
:100D5000D24C6C4420460C3007F047FC23200001A5
:100D6000299026522B9826542018139019994184C3
:100D7000F248684406601A990E60F24888602A9624
:100D8000304601F04BF9F2482018109041208000C5
:100D90002F990E182C9828181F90299820180C901D
:100DA000EC486844001D0A90BB486844011D11913D
:100DB00008301290B8486844001D0990E54868441E
:100DC000011D239108302190B3486844001D2090F4
:100DD000B1486844001D0890F0486844411C1891CF
:100DE000C01C1790DB486844C11C1691401C15902C
:100DF000A9486844001D0390ED486844411C0691D1
:100E0000C01C0590D3486844001D049008350B951C
:100E1000D0486844011D0E9108300F909E486844E8
:100E2000001D0D90372040022F90812040002C9013
:100E30002A98299098486844802107F0D6FB002121
:100E4000F048817101702B91418005F081FA0028F2
:100E500001D105F085FA904D6D4480242846214645
:100E600005F06FFA287801460E3908291DD86878F0
:100E7000AA781202121802204900C04679448988D3
:100E800049008F445D010800240033003300330023
:100E9000330033002E0090B22D99884226D17E482F
:100EA0006844C07804F0C8FF20E005281ED1307BDC
:100EB00079496944C978490802460A4332730028CF
:100EC0006FD0002900D17AE003290FD1BFE010BA1A
:100ED000000C02280AD931A86F49694404F078FF50
:100EE00004E031A86C49694404F04CFFC84800781C
:100EF0000028AAD0C64840880028A6D000243099EF
:100F00008C703060042802D22F98C11C1EE09148DA
:100F1000684431A904F0C2FF2E99C86C002814D08F
:100F200031A90878B02815D18A78002A12D1C97859
:100F300000290FD131A84078012849D0A72801D134
:100F400000F0E3FD2F98411C00E0096D31A804F08A
:100F5000CDFF7AE7309A1178002902D05178884283
:100F600070D13198000AC1B2032900D8DFE070685F
:100F70002C99891C884201D300F0C4FD31AA6E234C
:100F800013547068401C884201D300F0BBFD31A9A6
:100F900001220A547068801C7060084604F064FEE8
:100FA00053E70329A2D802250120002279440979B8
:100FB00049008F44015154550020307396E70021B9
:100FC0003173012847D0022848D003288ED140E051
:100FD00031A8012101707268501C7060901C2C9B1C
:100FE0009C1CA04201D300F08CFD31A909189A1A6B
:100FF000012006F069F97168A14201D300F080FD7B
:1010000031AA505471684018421C7260801CA04282
:1010100001D300F076FD31A909182C98801A421CE2
:10102000022006F051F97168A14201D300F068FD79
:1010300031AA505471684018401C7060104604F08A
:1010400072FF02E731A82F9904F050FFFDE6022558
:1010500006E0052504E00322154601E004200546CC
:10106000052D00D9F1E16B487844A90001A251583F
:1010700051188F463400000038000000D6030000ED
:10108000D0030000DA0300003E0000004CF6FFFF32
:1010900060090000C80800003808000004060000CD
:1010A0000C040000C099D0C05B48784404F076FF7F
:1010B000C0E62998C0B2022804D0032800D0B9E6BF
:1010C00000F026FD554D7D442995A8472B90A84753
:1010D000FEF7B6FF0146524D6D440A22284606F03F
:1010E000F1FF2B98FEF7ACFF0078414241412B9570
:1010F0002970299880470546015D0078FEF7DBFFDF
:101100002C46803429900028284600D120462B996F
:10111000FEF77EFF2998002800D12C4641497944EA
:101120002046FEF7ACFF00F0FDFF022081E602A2A0
:10113000515C49008F44C0460410080A08060000AC
:1011400000250BE0C090D0C0022506E0032504E096
:101150000D0200001409000001252046000600D001
:1011600066E6306800284FD02F486844142107F005
:101170003CFA31A800786E24802865D12994E8B221
:10118000800007A108580818284A7A442849794459
:10119000284C7C44284B7B448746C046CC08000042
:1011A0001400000064010000E0000000B201000033
:1011B000CC0800002148784401F0BCFD05462B9185
:1011C0000120299005401E4C7C442846A0471D481C
:1011D000784401F0AFFD2791299A1040A04722469C
:1011E00028462B9C214690470D4969448C702798CE
:1011F00048700C7031A8032204F0B6FE31A804F048
:1012000092FE39E00002002003236E242C991DE099
:1012100000020020A87D00004A7D00000F0C0000A5
:10122000380800005E760000B8080000E277000091
:1012300012780000EE77000080770000BB79000094
:10124000A11B0000A27900002C992B9B7068891CBF
:10125000884201D300F056FC31AA14547068401C37
:10126000884201D300F04EFC31A90B547068801CF9
:101270007060084604F0F8FC2A9800F0CFFED7E52D
:10128000259326922791FE48684431A904F006FE72
:1012900028980568002D00D1CDE04068032334284C
:1012A00000D0CDE024941C461421F64A6A44284616
:1012B00005F0DEF9002800D1FDE0FE486844402139
:1012C00007F093F9143500201B95402800D1F6E073
:1012D0002B952D786909302257230529114600D313
:1012E00019462C090919F34C6C4421540F2129404B
:1012F0000A2900D31A465118221851702B9D6D1CD3
:10130000801CE2E7259326922791E848684431A99A
:1013100004F0C4FD28980568002D00D18BE04068DA
:101320000323152800D08BE024941421E04A6A445A
:1013300028461C4605F09CF9234600282C99299C38
:1013400084D031A9C8782990032800D9E4E000208E
:10135000E3E026922791D548684431A904F09EFD28
:1013600028980168002966D0249442681F98007864
:101370000028D14B7B441D9C71D0012800D097E000
:1013800031A88078012800D0C3E0259376A8CB4B04
:101390006B4401F095FD82B2C9498A4200D066E1F2
:1013A0001F980078022800D028E7139800780028BA
:1013B00000D1B1E3C34C6C442121204607F015F95C
:1013C0001098214605F0A8FB00F018FC02460B46D9
:1013D000B848684411461A4600F06AFC2E9AD16C4F
:1013E000002900D176E2156D1398408C0128B64B88
:1013F0007B44B6487844299000D075E20420149CC0
:1014000023602B90231D23C3B1496944D16410216B
:10141000269810672798506706232998D06511668B
:101420002498506693660C984078002800D181E299
:10143000A849794480E29D48684483881C0AE5E60F
:101440002C993AE02998411E03E0012086E629986C
:10145000411C032008402A9000F0E0FDE8E431A898
:101460006E25299503252B92172A1FD380780028F3
:101470001CD1259314201E912B9A05F0D1F92246F8
:1014800005F0F6F8E021299100280FD08D48684436
:101490002E2107F0AAF8854D6D442846214601F01B
:1014A00077FC2D78202D00D01EE10525299CE0E059
:1014B000EF240025DDE02C992346299CC6E61598EB
:1014C00001782B9140781C902E98C06C1E90804C17
:1014D0006C443D25204616992A4606F0F3FD1798E0
:1014E00021462A4606F0EEFD18981C9941702B996A
:1014F0000170744969441E9808706E48684440221F
:1015000003F046FF2E9AD06C00285CD0EF24002315
:101510007CE66E240225ACE001208B78191F4A1E60
:101520009141299A1E931A4304D0014302D06E249C
:1015300002236BE61E980028029500D1A7E05B4DC0
:101540006D445B496944284601F022FC2978202932
:1015500000D1A6E05548684444782B91458848223C
:101560002398209906F0BEFD524868441B9545809B
:101570002B9D1C94447005704C486844219901F0DF
:101580004BFC00215448229B202906D0474A6A443C
:10159000525C58438018491CF6E70121084300BA01
:1015A000010A020C4A40010E51404140C8B21E9946
:1015B00006F07AFD2998814200D1E4E02E9908686E
:1015C000401C0860BBE7106D1E90506D1C900523F9
:1015D000424C7C440720149D259929646864AC64BE
:1015E000EB6404243E4B7B442B602B946C601E996F
:1015F000A9601C99E9603B497944D1660221916553
:10160000FC49694451650121116531496944D1643E
:10161000269911671066F8487844D0652798506776
:10162000062090662498506622486844FFF724FA02
:10163000002829D01D4C6C441D49694420461B9A42
:1016400003F0E6F9208800282BD11A4C6C4448227C
:101650002046089906F046FD2898C16C204601F006
:1016600009FC02460B4631A811461A46C4E5054658
:10167000140A76A803F0B2F92C992B46E6E5C04689
:1016800038080000B80800002C992B9B15E7074C80
:101690006C4407496944204601F07AFB2578202DE7
:1016A0007CD1024868444388C8E6C0463808000038
:1016B000B808000014090000B07B00000406000018
:1016C00001EF0000CC080000E87300006074000027
:1016D0006009000066740000051500003F730000FB
:1016E000EE71000040730000C648684441781C91C8
:1016F000448848220E980D9906F0F4FCC2486844CC
:1017000044801C9941700570BE4D6D4428460F9968
:1017100001F082FBBD486844BD4A6A44294601F095
:10172000B3FB14990868002800D1D7E04D68B84988
:1017300069442E220B9806F0C5FC01241F98047002
:10174000779576941E998D7D012D05D101F0E8FAEB
:101750001E99002800D119E1143129952B9D143DC3
:1017600000200C9B1870139A54841070299A541EF0
:10177000624262415A701A9A1060506076A8EE4B2D
:101780006B442A4605E6EE4868444822239906F051
:10179000A9FC2E98006829901B9C0DE0E548684440
:1017A000448840781C90E64868444822099906F02D
:1017B00099FC2E9800682990E149694448221198C3
:1017C00006F090FCDB48684444801C994170057029
:1017D0000298007D00286ED0D94C6C442E21204602
:1017E00006F003FFD24D6D442846129901F014FB18
:1017F000D44868442946224601F046FB149D286CD3
:10180000002800D194E06C6CCD4969442E220A9DD9
:10181000284606F057FC2E98C4642846214603F05B
:10182000D7F902460B46C648684411461A4603F0EB
:10183000AFFD2E994868002800D067E688682B9095
:10184000C8681E900825C34B7B4407242598149A2A
:10185000106454649364D5641E98BB4B6B44186049
:101860002B98BA4B6B441860B94868440460BA4876
:1018700078441060B9487844486202200861B14851
:101880006844C86001208860A94868444860269878
:1018900088620F208861B248784448612798C862FE
:1018A000062008622498C861A5486844FFF7E4F858
:1018B000002800D10AE131AC41222046129904F0FF
:1018C00053FB299800BA2E99C8649C4969440422A4
:1018D000204691E4994868448088E9E09448684447
:1018E00080880546040AC4E60420149C23602B90DB
:1018F000231D23C30025D566956525985065199944
:1019000011658B496944D1642698106710211166CE
:101910002998D065279850670620906624985066CD
:1019200086486844FFF7A8F800281DD16E24C2E05D
:10193000844881E5904979442E9AD1660121116548
:10194000002800D102212E9A91651146002802D06C
:101950008B48784401E08948784448657748684472
:10196000FFF78AF800280FD01F980078022800D0CF
:10197000D6E0724C6C442046079901F0ABF8207811
:1019800000286DD06D4891E06E2493E003F00AFFCB
:101990006B486844002303712E9D6B6002201499EC
:1019A0000860644969440B77289A90601460259810
:1019B000106153611C465D4890615D4868441D227A
:1019C000684B7B44EB642A656965A86525465B48DE
:1019D0006844214603F036FF299C5948684403F0C7
:1019E000A1FEC0B20628F8D00528F6D803A1085CED
:1019F00040008744A00900003473000010150F1A3E
:101A00002233C046380800001409000060090000B5
:101A1000CC080000E1E75448784404F0BFFADCE762
:101A20005248784404F0BAFAD7E75148784404F0B1
:101A3000FDFA6D1E0CD200250AE04E48784404F0F1
:101A4000F5FA29466D1C14980068854200D30D46AE
:101A50003A486844294603F0F5FEBEE7042508E647
:101A60003648684441782B9140882990304C6C442A
:101A70001D25204604992A4606F024FB0598214698
:101A80002A4606F01FFB299A100A069948700A7028
:101A90002B4A6A442B981070264C6C4420461D99A2
:101AA00002F0B6FF2088002814D0224868444088FD
:101AB0002B90040A002576A802F090FF002D2C99A7
:101AC0002B9B01D0FFF79AFBFFF7C0FB6E2404238A
:101AD000FFF79CFB194C6C4448222046039906F002
:101AE00001FB2898C16C204601F0C4F902460B4660
:101AF00031A811461A4604F037FA0024199DDAE796
:101B00000846214603F0B1FBFEDE31A804F00BFAD3
:101B1000002004F038FCFEDE1A487844272102E059
:101B200019487844242103F0B5FAFEDE80000B004A
:101B300060090000380800000406000014090000D5
:101B4000CC080000A00900006C0900006809000032
:101B500064090000C06F000044710000C270000002
:101B600023710000D5710000DC730000EE730000EB
:101B7000C8730000D473000002700000EC6E000017
:101B8000226F0000926D00005170000080B500AF20
:101B9000FEF77BFAFEDE80B500AF03F08AFAFEDEC8
:101BA000D0B502AF86B0044605A80170202104918B
:101BB000039201210291019001A8194604F072FDDF
:101BC000002801D0616001E00249A180206006B0D8
:101BD000D0BDC04602E0000080B500AF0A464021FB
:101BE00000F001F880BD80B500AF8A4201D81146EF
:101BF00080BD104603F067FAFEDED4D480B500AF96
:101C0000002800D080BD034878442B2103F042FA1D
:101C1000FEDEC0466F700000D0B502AF0446084635
:101C200011461A4600F076FF02460B462046114642
:101C30001A4600F03DF8D0BD80B500AF90B00493D7
:101C4000039207220292144A7A440192134A7A4478
:101C50000D920222089201AA05AB07C310487844EE
:101C60000E9008200A900F48784409900E48784456
:101C70000F9006200C900D4878440B9005A8FEF7B5
:101C8000FBFE002801D1034800E0014810B080BDF0
:101C900001EFFFFF046E0000CE6C0000EA6C000054
:101CA0000E6D0000A86B0000326D0000086D000092
:101CB000DFB506AF044601A803F06AFB01980028CF
:101CC00004D0EF200002A080002002E003986060B2
:101CD00002982060DFBDD4D480B500AF014805F084
:101CE00095FA80BDC098D0C0F0B503AF87B005911C
:101CF000064650689168BD68884203D1B5807380FC
:101D0000002070E0029328040690039202D0059808
:101D1000047909E0104600F081FB0C4601210840DF
:101D2000FEF7DAF905980471204600F05FF8049098
:101D3000052803D900207070012054E0C020204005
:101D400003D0402801D0802809D1069800280398A4
:101D500014D13F22A10607D5D1430C4305E0ADB213
:101D6000012D039809D909E014400499CA001832DA
:101D7000182111408C4005990C6001250196ABB2E9
:101D8000D943049A8918CE0005990D684268816884
:101D90008A4219D004998B4216D234461E4600F06E
:101DA0003DFB069101210840FEF796F93346264691
:101DB0000398182222400699C9B291400D43059913
:101DC0000D60083E5B1CE1E70020C143049A93428A
:101DD0000A4600D01A46019EB280049A9342029AA3
:101DE00000D011467180307007B0F0BDC0210140B5
:101DF000802905D0402905D0002905D10120704750
:101E000004207047022070473F210840401D704762
:101E1000F0B503AF87B01E4653689468BD68A3420F
:101E200003D185804680002360E005912904049257
:101E30000290069102D0059880780AE0104600F0E2
:101E4000EDFA0C4601210840FEF746F9059884702A
:101E500020460446FFF7CAFF0390042804D9002156
:101E600002984170012341E001960698002806D0AF
:101E7000059800880690AEB20498039D0CE03F20C0
:101E80000440039DE8001830182101408C4005985B
:101E90000694048001260498F1434919CC00426855
:101EA00081688A4216D0AE4214D200F0B7FA0D46CD
:101EB00001210840FEF710F9049818222240E9B2E7
:101EC000039D9140069A0A43059906920A80083CB0
:101ED000761CE4E70023D943AE420A4600D03246DE
:101EE00002988280AE4200D001994180037007B011
:101EF000F0BDF0B503AF87B0029313460390F81D11
:101F0000013002888818049020200692801A0190DF
:101F10000026059358689968884214D00698851958
:101F2000284620380ED0184600F078FA0C460121D9
:101F30000840FEF7D1F8202D16D204988455761C5F
:101F4000059BE7E7019E0020039B18700699711816
:101F5000C0432029024600D00A469A80202900D09A
:101F60000298588007B0F0BD2021284603F07DF983
:101F7000FEDE0178C32901D10120704744300421DD
:101F8000425E00880121012800D80846002A00DAB4
:101F900008467047F0B503AF89B001930390F81D70
:101FA000013003880420C01A07900293D800182338
:101FB00005931B1A06910E680024049250689168DC
:101FC00088421AD00798844217D210461D4600F066
:101FD00025FA08940C4601210840FEF77DF82B46AF
:101FE000049A284605990840E1B2089C81400E43B6
:101FF00006980660083B641CE0E70020039B18700D
:1020000002996118C0430429024600D00A469A800A
:10201000042900D00198588009B0F0BD80B500AF08
:10202000C0B2032814D8C0467844007940008744E1
:102030000107040A0848784407E000F073F880BDFF
:102040000648784401E00648784400F031F880BD45
:1020500003F01BF8FEDEC0462B00000093000000DA
:10206000ED00000080B500AF90B068460122027715
:102070000146203100230B770A4B0E9305210D9169
:10208000094979440C9102210A9108920693082388
:102090000593064B7B4404930291009204F035F9BA
:1020A00010B080BD80000B006A68000084670000EB
:1020B000D0B502AF044603F075FB0548784403F041
:1020C0006DFF0448784403F069FFA047D0BDC046C7
:1020D000646D0000546D000080B500AF90B068469C
:1020E000012202770146203100230B770A4B0E9321
:1020F00005210D91094979440C9102210A91089218
:10210000069307230593064B7B44049302910092A8
:1021100004F0FBF810B080BD80000B0016680000D2
:10212000FD67000080B500AF02487844FFF7C0FFAC
:1021300080BDC0463B00000080B500AF88B0684657
:1021400001210177064A069204220592054A7A4443
:10215000049202220292009104F0D7F808B080BDE8
:1021600080000B008E660000B0B502AF90B06C46E8
:102170002546203500F0D4FD002129770122227761
:102180000F4B0E9302210A91089206930D2305939B
:102190000C4B7B44049302910092002801D1082249
:1021A00000E007220D92002802D10848784401E09F
:1021B000054878440C90204604F0A7F810B0B0BD54
:1021C00080000B005F6700004C6700007466000031
:1021D000F0B503AF9DB00391049005AD40212846B2
:1021E00006F003FA15AC20262046314606F0FDF92C
:1021F000009421200290052203992B4605F054F803
:10220000049C204608302946324605F05BFF2846EC
:1022100003F021FD6660029921701DB0F0BDD4D499
:10222000014602467F321020222A17D87A441279BA
:1022300052009744111A1C1E20222426282A2C2ED4
:10224000333333333333333333333333333333335E
:102250003333333333303200012070470A46BF3204
:102260001DD0DF311AD100207047022070470320B3
:1022700070470420704705207047062070470720EC
:10228000704708207047092070470A2070470B20CC
:1022900070470C2070470E2070470F2070470D20AC
:1022A0007047D4D4B0B502AF0B4600780E497944DC
:1022B0000524C0467844007940008744100206098E
:1022C0000D000A4979440C2409E00949794401E0E8
:1022D000084979440B2402E0074979440424D5686D
:1022E00018462246A847B0BD756700006467000025
:1022F000686700006D670000F6640000F0B503AF8A
:1023000095B00691006860C848698A69D3683D49FC
:102310007944012422469847234606990CAA203284
:1023200002920A462032019222460594002E5CD089
:102330000795C007184654D1CC69600712D4D0075E
:102340000BD148698969CB682F49794402229847A3
:10235000059B06990028184643D107A803F082FE82
:10236000059B33E04869049088690390D0070BD03F
:102370000398C36825497944012204989847059B2E
:102380000699002818462CD10BA801220270019A48
:102390001278029B1A700A9003980990049808908A
:1023A00013941B487844129008A811900868049070
:1023B0000C1D1DCC0DA91DC104980C9007A80CA9DB
:1023C00003F050FE002803D0059B1846069908E04C
:1023D0001298C36811980F497944022298470699C8
:1023E000059B6D1C761E0022A0E7C00707D1486937
:1023F0008969CB6808497944012298470346184601
:1024000015B0F0BDA26A00005B6A00003B6A0000E4
:1024100098680000D4690000BD69000042688368C4
:10242000934203D2591C81600068C15C934201D37E
:102430000020704701207047DCB504AF00280DD0A4
:1024400013460A4601466C46204600F00FF82088E5
:10245000002801D00320DCBD0420DCBD0248784404
:102460002B2102F017FEFEDE19680000FEB506AF54
:102470001D46044641C9083900280BD008461146BC
:102480002A46334600F02AF881B2124A91421DD101
:10249000701918E073191048834209D20093084656
:1024A00011462A461D46334600F054F865600BE09D
:1024B0000293084631462B4600F026F881B2054AC1
:1024C000914203D102986060002001E06080012009
:1024D0002080FEBD01EF000001020000F8B504AF4E
:1024E0001C4616460A46054680681946334600F0E3
:1024F00057F881B2034A914202D10121A21906C5BF
:10250000F8BDC04601EF0000FEB506AF0293019290
:102510000E46054684680C3000F03AF802460B4639
:102520000021204600F03CF881B2094CA1420DD1B7
:10253000A8683146019A029B00F032F881B2A142AC
:1025400004D101200299891903C52046FEBDC04669
:1025500001EF0000F8B504AF00920D4604460C30C0
:10256000BE681946324600F007F82A46009B02F082
:102570006DFE002041C4F8BD80B500AF8A4202D391
:102580004018511A80BD0846114602F09CFDFEDE3F
:1025900080B500AF0A460121490200F04AF880BD2B
:1025A000F0B503AF8DB01C4615460E4604F02EFE66
:1025B00003462A4603950494A5190120C102481C2C
:1025C000854217D28E4218D8981911460292224697
:1025D000019304F05DFE019831462A4600F01EF892
:1025E00006910590029A234602F096FF002808D033
:1025F000094800E007480DB0F0BD304602F063FD29
:10260000FEDE0020079005A803A907AAFDF772FDCA
:10261000FEDEC04602E0000001EF0000D0B502AFD0
:1026200004460120C30208461146224603F0F4FA8C
:10263000D0BDD0B502AF0B4604460020114622465D
:1026400003F0EAFAD0BDD4D4B0B502AF9A420AD8AA
:102650000C46994207D30546104619462A4623469A
:1026600003F0DAFAB0BD03487844472102F012FDC6
:10267000FEDEC04674630000F0B503AF87B01646B7
:1026800005468C68B868002C0393019021D402950C
:10269000086804900498844212D27068B26890422C
:1026A0000ED0304635460E46FFF7B8FE01210840F1
:1026B000FDF712FD31462E46039B641C8C60E9E752
:1026C0000498844214D10020C143029DA9806980EE
:1026D00013E0009005AC204604913246FFF704FB5E
:1026E000207800280CD005A840786870012004E00C
:1026F000029D0198A8806B800020287007B0F0BD73
:1027000005A88188408802460A40054B9A4204D1B8
:10271000002404998C60039BB9E7A9806880EBE7EB
:10272000FFFF0000F0B503AF91B00A930546506873
:102730009368BC68984205D1AC800A9868800020F4
:102740002870EEE0059408910C78042C0B9223D1AC
:102750001046FFF763FE0C4601210840FDF7BCFC64
:10276000E0B2811E022906D3002804D0012806D039
:10277000FF200230C6E00CA8132105F036FF089EAA
:10278000701C0D2105F0E6FC30460E300CA9142219
:1027900005F098FC34700B9AE0B2800002A1085852
:1027A0000818089B059987461400000022000000C5
:1027B00014000000140000005A0100000091591C90
:1027C00028460A9BFFF795FBABE002955668916897
:1027D000981D0390981C04900846864200D193E00F
:1027E00006905D890220022D00D996E016D0012DB9
:1027F00029D0002D00D090E09889002804990FD1AD
:10280000D0684C4979440122FFF716FEC0B2042873
:1028100000D088E0002004990B9A01E09889039980
:1028200000900CAC204616462B46FFF7F1FA2078B4
:10283000002870D17168B5680CA88288079240881A
:102840000990324622E031469C8958884601069D0F
:10285000A0B2A9420DD086420BD91046FFF7DEFD8B
:1028600001210840FDF738FC0B9A641C51689568FB
:10287000EEE70B4686422E4900D02146079186425C
:102880002B48099001D001200990194610680E4686
:102890001446069A2B46FFF7D7FE02460B46E06821
:1028A00011461A46FFF7C8FDC1B2042935D1099A6D
:1028B0001046079908401E4CA04200D10021089BF9
:1028C000A042079101D159894A1C099292B2032A68
:1028D000214600D007999981032A224600D0099AFF
:1028E0005A81A04210D190B2A04228460B9A00D043
:1028F00073E788B2A042284600D06EE70A94029996
:1029000004E00A4828800CE00299059C8C800A9813
:102910004880002004E00CA840780299487001200B
:10292000087011B0F0BD0320F7E7C04601020000B7
:10293000FFFF000046620000F8B504AF0D460446F4
:1029400050689168884201D1B8680AE01046FFF7E4
:1029500065FD0E4601210840FDF7BEFB2E70034BBE
:102960001846A080638000202070F8BDFFFF0000A3
:10297000F0B503AF87B003931646044653689268D8
:10298000B86893424AD0020403D00D7880B2069012
:102990000BE030460591FFF741FD0D460121069100
:1029A0000840FDF799FB05990D70C020284002945E
:1029B00005D0802805D0402805D1022206E001225A
:1029C00004E0042202E03F2005406A1D0698091831
:1029D00004910192101A059000247068B168884231
:1029E00012D0059884420FD23046FFF717FD0D46EE
:1029F00001210840FDF770FB06980019212814D228
:102A000004980555641CE8E7069820180199884247
:102A100003D108490846029C01E0029C0399A0806A
:102A200061800020207007B0F0BD212102F01DFC64
:102A3000FEDEC046FFFF0000E0B502AF01462831D0
:102A4000019108300090684603F04CFB8CBDF0B556
:102A500003AFC1B00446012005026E463046294648
:102A600005F089FB3046294604F0DEFB204631465E
:102A70002A4605F041FB41B0F0BDD4D4F0B503AF18
:102A8000C1B00D4604466E463046FFF7E0FF2122F6
:102A90003046294600F010F881B2064A914204D12E
:102AA0006946204600F016F802E00121217060809E
:102AB00041B0F0BD01EF000080B500AF04F0CCFBE9
:102AC000002801D0024880BD004880BD01EFFFFF13
:102AD00001E0FFFFF0B503AF89B00D46044601AE3B
:102AE0002021304605F081FD2846314604F0AEFB3A
:102AF000002803D006486080012005E0601C01A981
:102B0000202205F0DFFA0020207009B0F0BDC04699
:102B100001E00000B0B502AF14460D460246006861
:102B200000280CD0A54217D21048844214D29068D5
:102B300004F06CFB29462246FFF770FDB0BDA542AC
:102B40000ED201204302581C844209D20C3228467E
:102B5000214603F061F8B0BD064878443C2102E00C
:102B6000034878443A2102F095FAFEDE010800009D
:102B7000E95E00002B5F0000BCB504AF0C460168A5
:102B8000002905D011461A462346FFF7A7FCBCBD15
:102B90001919074DA94207D2009111461A4623463A
:102BA000FFF7D8FC0348BCBD2146FFF7ADFCBCBD18
:102BB0000102000001EF0000BCB504AF1C46154641
:102BC0005A180368002B0CD0144B9A4214D2806818
:102BD0002A462346FFF7E4FC80B2114988420FD110
:102BE000BCBD104B9A4213D20C30FFF7C5FC2A46ED
:102BF000234602F02BFBBCBD0E4878442C210AE092
:102C00000948784401A9094A7A4402F048FAFEDEEC
:102C1000074878442A2102F03DFAFEDE0108000050
:102C200001EF000001020000155F0000C45D00001C
:102C3000AF5E0000F15E00007047D4D4D0B502AFA3
:102C40000088284A8218052A0ED9274A8218042AA1
:102C500015D8C0467A4412795200974402181B1FB7
:102C60002300234B7B441BE07A44127952009744A3
:102C7000021C2024272B234B7B4410222BE009220B
:102C80001203904224D1194B7B44022223E0194BBA
:102C90007B4405E0184B7B4407221CE0174B7B4428
:102CA000062218E0164B7B4414E0174B7B440F229E
:102CB00011E0164B7B4408220DE0154B7B4401E0EC
:102CC000144B7B44142206E0134B7B44172202E092
:102CD000124B7B440D2248698969CC681946A0478C
:102CE000D0BDC0460020FFFF0092FFFF2C5F000018
:102CF000525F00002C5F00002C5F00002B5F000083
:102D0000295F0000EC5B0000305F00003C5B0000CE
:102D10002F5F00003D5F0000495F0000585F00002A
:102D200080B500AFFEF7D8FFFDF78AF90078411EA5
:102D3000884180BDD0B502AF0378012211462B2B0C
:102D400012D02D2B10D0002319465A1E541EA2411A
:102D5000012B09D0C45C303C092C04D80A224A4318
:102D600011195B1CF1E701211046D0BDE0B502AF9F
:102D7000002801D108468CBD0348784401A9034AC4
:102D80007A4402F08CF9FEDE9D5D0000D45D000007
:102D9000F0B503AFB1B0019014AE3046FFF718FAAA
:102DA000307800901EAD284608304124214605F0B9
:102DB0001CFC009828701F9401232946324604F019
:102DC0003FFA002803D0FFF72BFA05460AE0291D39
:102DD0001EA846884578047802A8482205F082F9A2
:102DE000202C09D16E202843C0B2019E708014A807
:102DF000FFF722FE20240CE00096019E301D02A960
:102E0000482205F06FF914A8FFF716FE00987080AD
:102E10007570347031B0F0BDF0B503AF93B00E46AD
:102E200004466D46681C491C202205F04BF94020E1
:102E3000305C01210140881C287009AE30462946CB
:102E4000FFF71CFE3078002807D109A8411C20227A
:102E5000204605F037F913B0F0BD0448784412A9B4
:102E6000034A7A4402F01BF9FEDEC046BB5C000058
:102E7000E25C000080B500AF0346482208461946D0
:102E800003F0CEFC80BDD4D4D0B502AF86B00446EA
:102E900005A80023037020230493039101210291CC
:102EA000019001A8114603F0FDFB002801D06160EC
:102EB00001E00249A180206006B0D0BD02E0000020
:102EC000F0B503AFFFB0B2B01D46764BFF2A02D972
:102ED0001D4601F02DFD044601234A935B02C618EE
:102EE0004C968323499298005F902B183C932323A0
:102EF0001B01EB18359321235B01E3181093234644
:102F000038334E9520466030509020468830599096
:102F10002046B03045902046E0305B902046393066
:102F20000A46214668312A912146E8312F9163965D
:102F30001E46499961916092002125916291614BF1
:102F4000E9182491604BE9183B915F99611822912F
:102F500078ABD91C299178AB591C219166A92131F4
:102F6000209178A90831239178AB591C17912146FB
:102F7000413128912146BC314291C11C2791214603
:102F8000A1311F9121464B311E9101460F311D91F8
:102F90004790C01D1C9078AB581C2E90A0AB581CBD
:102FA0001B90D81C1A9066AB181D19902046C03093
:102FB000369020464630389030460C304B903046A4
:102FC0000A304690509D28460C30319020463E30C5
:102FD0003E9020464C303490204645303390281D9A
:102FE0001890204672302C90204649302B90701D4E
:102FF000379078A801463631159101462F3114914A
:1030000001460D3113910146243112913030169052
:103010005B99081D3290301D5490599B18460C3016
:103020002D9030461230409010353D95204650305E
:103030003A90304614303090304610304F90184659
:10304000183039902046C2303F90084610304190E9
:10305000204640305790201D2690072011904303B2
:10306000439344924D94539662986199814201D161
:1030700001F02BFC5B98048B304603F0DAFA80B247
:10308000844201D301F046FC30785B9E4000C0468C
:103090007844808840008744070007001B008A00AE
:1030A000D7008804036E0000708B009064AD60AAA6
:1030B000284647992346FFF73FFC2878002805D18A
:1030C00000F038FE2E0200000D02000001F022FC8C
:1030D000629D619EAE4201D100F026FE59980088A3
:1030E0005F90549C2046FEF744FF5F9B80B2834272
:1030F00001D301F0D1FB2078C3281DD1B54201D303
:1031000001F0D4FB681C62906098455D4A98FCF71A
:10311000E3FF002DEE4C22461FD0012D549801D024
:1031200001F0DFFB03F089FB549C2078C32801D118
:1031300001F0B2FB5998038859984088009078AD07
:1031400060AA28462146FCF7F1FF2878002801D024
:1031500001F0A9FB78A88288448825461540DC4800
:103160008542549900D1002285425F9202D159983C
:103170000088441CA6B20846FEF7FBFE81B28E42D0
:10318000D34800D05F98599A50808E42D04900D0E1
:103190002146599A1180CE4A954201D000F0C4FDD3
:1031A0000140914294D11046114600F0C0FD509D5F
:1031B00062986199814201D100F0B3FD2989022012
:1031C000012901D901F06CFB0CD0002901D001F0DC
:1031D00067FB6889009078A860AA00235499FEF7DD
:1031E00083FD07E06889009078A860AA01234B99C5
:1031F000FFF7BEFB78A80078002801D001F04EFB55
:1032000078A84188799A0846104080B2B04B98421D
:1032100000D10022984201D12989491C8CB2022C8C
:1032200000D013466B81022CA94A00D00A462A819D
:10323000A749884201D000F074FD1A4090B288423C
:10324000B6D1084600F073FD08205690355E002D7B
:1032500001D500F027FD708832889D498A420DD142
:1032600088420BD12421429805F0BFF90A205499D5
:103270000870681C3081002030600246944D6299CD
:10328000619B8B4201D100F0D2FF92B2022A01D998
:1032900001F040FB35D0012A68D0002A8C4D01D0C6
:1032A00001F038FB82B2429880185C9004205E9254
:1032B000801A5590002662985A90609858905D93B5
:1032C0008B4266D05E988419201F61D099420D46CA
:1032D00004D25898405C5F904D1C5A95994201D396
:1032E000002000E00120FCF7F7FE032C01D901F0DB
:1032F0002AFB5C985F998155761C2946744D5D9B2D
:10330000DEE7549804780A2C539E00D0BDE0994221
:1033100001D301F0F4FA481C62906098455C4A9829
:10332000FCF7DAFE032D01D901F0F4FA0924A80014
:1033300003A1085808180C9A099D0B9B0A99874607
:10334000100000006E00000098000000FC0000006B
:10335000A0A8152105F049F9062400221346089279
:103360000792039206921146029267E0009098A895
:1033700060AA01233699FEF7BCFD554D98A8007848
:10338000002801D001F0C6FA98A882884188A1E0FF
:10339000559E5A9862905E9830180021042800D1FA
:1033A000C94304282A4600D194E0024692E0212134
:1033B000179804F0CFFEA0A878A9222204F082FE7C
:1033C0000021434804900D460A460B460891079198
:1033D00006910591119C31E0169803F02EFA002019
:1033E0001299086078AD05242C708880887138485F
:1033F000A8856878029068880A902879069068798C
:103400000390E88807902889089068890B90287BAA
:103410000C90A0A82222139904F054FE149800786E
:103420000190288E0490688E0590AD8E66A8462285
:10343000159904F047FE0A990B9B0C9A0C92327472
:103440000B93F3810898B08107987081039870728C
:10345000069830720A91F18002987071A0A9222218
:103460002B9804F02FFE5098099505820599C1818B
:10347000049981810199C17266A946222C9804F0B1
:1034800021FE0020459988603471114DA01FC1B202
:10349000052900D30220C0B2509E800002A1085826
:1034A00008182A46294687461400000068030000D1
:1034B000740000002C0000006C1400005B9803886E
:1034C0004088009098A860AA3799FDF795FA55E7CB
:1034D000FFFF00000846104083B2AB4200D100223B
:1034E000AB425B9E01D13088411C8CB2032C284634
:1034F00000D010467080032C2A4600D00A46328045
:10350000AB4201D000F093FE91B2A94200D0B6E6E2
:1035100081B2A94200D0B2E600F0C1FF6299619881
:10352000884200D13AE25F91042145985D91445E62
:10353000058906883046214603F070F880B20221E2
:10354000854201D301F0E4F90120012E00D806469E
:10355000002C00DA0646B54224D2459840890090F6
:1035600078A860AA31992B46FCF7E0FD6199609834
:10357000629B5F9AFFF768F802460B466398114614
:103580001A46FEF759FFC0B2042801D001F0BFF976
:1035900078A80178002901D001F0A7F98288448831
:1035A000554D0CE15C91509E5698315E002910D427
:1035B0003088514B98422CD172889A42259E29D14D
:1035C0000520549A10700020509A1060491C1181F7
:1035D00020E045984089009078AC60AA2046189970
:1035E0002B46FEF715FC2078002801D001F0C0F929
:1035F00078A882884488204610403F4DA84200D0D9
:10360000DDE000213181B0880028D1D12C462A4646
:10361000D5E0259E6299619D8D4200D1C5E00004F0
:1036200001D001F054F954980478052C2CD1A9420A
:1036300001D301F05CF9481C5F9062906098445C93
:103640004A98FCF749FD042C01D901F053F9A00078
:1036500002A10858081823460E9987463C0000002E
:1036600014000000140000003000000038000000CA
:10367000A0A800268670068078A8122104F0B5FF65
:10368000314633460D9607E00A4620E00023D84332
:103690000D9001E05D9933465E930020539AD071FE
:1036A0000E91917153714D9E306453990873A0A986
:1036B0000322339804F006FD0D98B06478A9142213
:1036C000349804F0FFFC539804715E9E5F9A640086
:1036D0007C44A4886400A74411000500050018007C
:1036E0002200FA08509803884088009066A860AAD3
:1036F0003799FFF73DF91BE0FFFF000095423ED1EF
:10370000509948880988F94D1CE0509803884088F2
:10371000009066A860AA5799FEF7AEFF08E050989F
:1037200003884088009066A860AA3E99FEF7FAFFD9
:1037300066A800780028F64D01D001F0D5F866A9FA
:10374000888849880A460240AA4200D10020AA423D
:1037500002D150990988491C8CB2012C2B4600D00B
:10376000034650984380012C284600D008465099C3
:103770000880AA421AD10340AB421CD04AE700207D
:10378000AA42044603D2511C629160998C5CAA4201
:1037900000D20120DE4DFCF79FFC601E41424141FA
:1037A0003798017028462946CCE7D94D259645988B
:1037B0004289048903E031462C462A46259626464E
:1037C0001640AE4201D05F9201E000205F90459824
:1037D00005898188008802F021FFCD498E4200D101
:1037E0006C1C81B2A2B28A42C94D284600D05F98B3
:1037F000459B58818A42294600D02146459A11812D
:10380000AE4200D0CAE00140A94200D086E6C2E044
:1038100062986199814200D1C0E03E980088012100
:10382000012800D808460C25745F002C00DA0846F1
:10383000F3890226834201D301F03FF8002C61D4C2
:103840004B98008846990988B14A91420FD190421D
:103850000DD12121409804F07DFC0020469988710B
:10386000888048800880611C319A11800146629AE4
:10387000619B934266D089B2012901D901F01DF8FC
:103880000BD0002901D001F018F8009078A860AAA8
:1038900000234099FDF7B0F806E0009078A860AAF0
:1038A00001233899FEF7B4FA78A80078002801D0EF
:1038B00001F001F878A84488799B2046184082B22C
:1038C0009348824202D146980088441CA0B2022844
:1038D0008F4900D02146469C21808D4CA24200D1C8
:1038E000002302288A4800D018464B9B1880884B3A
:1038F0009A4227D10A46024092B29A42B7D18449ED
:10390000084622E03D980088009078AC60AA2046E6
:103910003E99FEF77DFA2078002801D000F0CBFF19
:1039200078A88188408802460A40794B9A420CD197
:103930000024319804803E98008800287449084685
:1039400003D07DE75098018AC0893E9A12880123EE
:10395000012A00D81A46509E745F002C00DA1A46DD
:1039600003460B406A4CA34200D10021A34201D17F
:10397000F089401C85B2954200D00C4634829542B5
:10398000634D294600D00146F181AB4206D121406A
:10399000A94200D03CE72846294602E05B984188CE
:1039A000008898AA91805080EEE414203146365E5B
:1039B000002E00D593E14D890C89554884421FD1D2
:1039C00085421DD121213F9804F0C4FB0025579862
:1039D000056045600420599C20764F9805804098EA
:1039E00005704521309804F000FEE84360612574BD
:1039F000E56047486081701C5B9988828D602C4629
:103A00005B9E62986199814200D1EAE258914F9998
:103A10000988012900D801210A23599A4893D65EC2
:103A2000002E01DA052200E00A1D93B2A2B29A42EA
:103A300001D300F06FFF022A0BD0012A4AD0002ADE
:103A400050D1009566A860AA00233F99FEF790FF29
:103A50006BE0AAB20821891A56910F92D100382240
:103A60005592511A5F9157990C6849685E910025EB
:103A700062995291609951915899814238D0569AE1
:103A8000954235D25D948842024604D2519A125C26
:103A90005A92421C5292002488425C9201D32046E2
:103AA00000E00120FCF718FB5F9E3246559802406B
:103AB0005A98C0B2214604F0DFFA5E9A0A435D9C30
:103AC0000443579804605E924260083E5F966D1C06
:103AD0005C98D1E7009566A860AA01233999FEF7A2
:103AE00021FE22E0002E15DA032014E0FFFF000083
:103AF000529862900F9829180829054D2C465B9E14
:103B000000D03489082928461AD0084618E0C04653
:103B1000FFFF0000881C80B2824242D9009566A84F
:103B200060AA2D992346FEF7A7FD66A80078002815
:103B3000FA4D01D000F0EEFE66A988884C885B9EA5
:103B40005999489A8A5E4F990988012900D801211C
:103B5000002A01DA052200E00A1D2146014089B24F
:103B6000A94200D10020A94201D0234601E03389B7
:103B70005B1C92B29CB2944200D00546758194427F
:103B8000F94C00D01C463481F748814200D028E22D
:103B90002046284080B2F449884200D031E700F046
:103BA0007BFC002E57D45399C88A898AEE4DA942CE
:103BB0000AD1A84208D14521309804F016FD701CA6
:103BC0005999488100200146539E629A619B934215
:103BD0005AD089B2012901D900F09CFE0BD00029EE
:103BE00001D000F097FE009078A860AA00233A99CF
:103BF000FEF77FF906E0009078A860AA01233D99BE
:103C0000FEF7B6FE78A80078002801D000F082FE0A
:103C100078A8438879991846084082B2AA4200D110
:103C20000021AA4201D1B08A431C9DB2022DCE4888
:103C300000D00846F082022DCB4D294600D019460F
:103C4000B182AA4220D10A46024092B2AA42BCD115
:103C500028462C4673E7009578AD60AA28464F9910
:103C60002346FEF7D5F82878002801D000F052FE50
:103C700078A88188408802460A40BB4DAA4206D0F7
:103C800066AA9180508057E75B9E708958E70026AE
:103C9000599846814F980088002884D166A885806D
:103CA000458049E7708B009078AD60AA284632992C
:103CB0002346FEF7ADF82878002801D000F0EEFD8D
:103CC00078A88188408802460A40A74B9A422ED1A4
:103CD00000253581B08800281ED0FFF7BCFA488B3C
:103CE000009078AD60AA284641992346FEF790F8E7
:103CF0002878002801D000F0D1FD78A8818840887C
:103D000002460A40984B9A4211D100265B998E8256
:103D1000088A002800D04EE664A89349818041803B
:103D200008E0718B308B02E05B98418B008B64AABA
:103D30009180508064A8848842888B4D1646264026
:103D4000AE4200D10024AE4202D15B98008B421CEF
:103D50005F9295B2539802F06CFC80B28542824922
:103D600000D021465B9A518385427F4D284600D082
:103D70005F985B990883AE424D9801D000F0A5FD95
:103D80000068002801D100F000FE539E307805281D
:103D90004C991CD0042829D0032800D0D2E2549892
:103DA00000685F904B9E3578284602F0A8FD0446D7
:103DB000284602F0B5FD002827D03046214602F003
:103DC000BAFD02F0BFFD00265A965C963FE05B9A72
:103DD0005089411B481E81411089A8424A9800D150
:103DE0000846002800D086E0579D85E05B9A508801
:103DF000411B481E81411088A8424A9800D10846BC
:103E0000002800D08CE0549E8BE0112C01D300F0F0
:103E100073FD00207B907A9079907890304621460F
:103E200002F0BCFD04460D4610214A1B78A802F0A2
:103E3000BDFD22462B4601F009FA7B987A99799AC2
:103E4000789B1BBA5C9312BA5A920EBA00BA5D966E
:103E500000245E9021465F9D2A46234604F007F920
:103E600058905691304621462A46234604F0FFF8E2
:103E70000E465699451866415E98214622462346CD
:103E800004F0F5F840195690614170185590254698
:103E900065415D9821462246234604F0E8F80E4627
:103EA0005599401855906E415F9821465A9A5C9BEF
:103EB00004F0DDF805465F915E985D992246234641
:103EC00004F0D5F84019589D5F9A5141559A101841
:103ED0007141569E32460A432B46034313439B0FC0
:103EE00002439200D21841D1402D6FD278A90D70B3
:103EF00066A8012218E20025002800D01EE24C9995
:103F000011C90839002872D0886803F07FF90121AF
:103F1000C9022246FEF78DFB6DE0C046FFFF0000A0
:103F20000026002800D009E208225B98855E84887C
:103F3000A54201D300F02FFD3078801FC1B20529C2
:103F400000D30220C0B2032801D900F02DFD4000AB
:103F500078448088400087446F0103000300AA0171
:103F6000012035990870A2E1FFFF00002ABAA39250
:103F700032BAA29200BAA19008BAA09020461028A6
:103F800005D0A0A9095C401C0029F8D0441E2021BE
:103F90002E9804F0DFF80C20001BC021014378AA02
:103FA00011701120011B012002F083FC112C01D3A0
:103FB00000F0F5FCA0AA121910231B1B01F046F912
:103FC00066A878A9212204F07DF8AFE1A80B00D003
:103FD0009FE178A94D70280A4030087066A8022237
:103FE000A2E1748B64A88480328B4280A5E622987B
:103FF0002146FEF7CDFA52900C464E9E6020559514
:104000002D5C70685690002D05D0012D37D0022D03
:1040100001D000F0C9FC78AC2E21204604F0E5FA6E
:10402000032D01D30020C543559A613266A8294665
:104030002346FDF7B5FD669A002A01D100F065FC24
:10404000679BA0AC20463146FEF710FA2088002876
:1040500001D000F058FCA19C304656992246FEF74C
:1040600059FD02460B46269811461A4600F0B9FD46
:10407000002800D1B0E00020306070605EE1A0A8B0
:10408000402104F0B2FA52990A1900205D900546C9
:1040900051929142569800D158E35A952A18589255
:1040A0000C78491C52915E9078A8402104F09DFA4A
:1040B0005E99589881422ED20A46403230465C9230
:1040C000FEF728FD06465F9100252046402D12D0C0
:1040D0005F99A94201D100F0FFFB715D09020C1844
:1040E0003A21204604F072FAC62141430A1978A900
:1040F0004A556D1CEAE7044678AA40234E9E304696
:104100005E99FEF739FD054680B2A24988425C9867
:10411000C9D000F023FC5D985A99401A5F9041285D
:1041200001D300F044FC002622465F98B0420ED036
:10413000A0ADA85D000284183A21204604F046FA9A
:104140000246C62050430019A855761CEDE75D9C39
:10415000214640390020C0435F905A9D002A35D047
:104160005D945F9868430C1802D05D98441B17E07B
:104170005C915E9256982918A0AA40234E98FEF7AB
:10418000FBFC2E46054680B28249884200D0E4E31B
:10419000A0A8402104F029FA403635465E9A5C9981
:1041A000402C00D3E9E35A950D463A2110461646B5
:1041B00004F00CFAC62141438919A0AA11552946D9
:1041C0005A9D491C5D9C641C0246C7E740315D91C5
:1041D0004E9E5299519A5CE770685E9024980588CB
:1041E0000021239801715F9101606B4979916B49BE
:1041F000789105215D9102F033FA002D5C9400D195
:1042000052E10C24002D00D153E1072C00D160E3D2
:104210000A262846314604F0D9F94643A91B4E9E8A
:1042200030220A4378A90A55641E0546EAE7328B14
:1042300064A84280748B81E55F9278A82E2104F0F7
:10424000D4F9711C66AE3046FEF718FC30780028B1
:1042500000D087E366A841785E91468898A85D9073
:104260001D225C92199903F02DFF1A985D995C9AB2
:1042700003F028FF300A1B9948700E70A0AA5E98C0
:10428000107066A8002178ABFDF78AFC66990029BA
:1042900000D16AE335980078002807D1679A2698FC
:1042A00000F09FFC01214140359801705F9A601E2B
:1042B000A84243D13598007800283FD00F2069905C
:1042C0003748784468900A2067903648784466906A
:1042D00035487844809002207B9066A87A90002030
:1042E00079903248784478903148784481907D9232
:1042F000304878447C9030487844829006207F9003
:104300002E4878447E9078A8FCF7B6FB002815D19B
:104310001EE378A9CD70280A8870280C4870280EF2
:104320004030087066A8042202F0A1FA66A9212292
:104330003B9803F0C7FE01203C990870539E3078EB
:104340004C991F4D00240C604C6005281AD1142094
:104350005B99085E002800D59AE0419909880029F8
:1043600000D1AFE280B2491E814200D090E05B985C
:104370000089A84200D08BE05B984089A84200D019
:1043800086E09FE278440079400087441B2027386C
:104390004400C04601EF0000757420234F7574700F
:1043A0001146000016460000C6450000404C0000C3
:1043B000824600001E450000A84600007E46000020
:1043C000FFFF0000479804700120307060E0C320B8
:1043D0004799C87002203070599858E021212998D7
:1043E00003F0B8FE78A92422289803F06BFE2798E2
:1043F0000460032030704798C4712A9847E00A206F
:104400004799C870042030702B21429804F0EDF8D1
:104410002F9805803CE008205B99085E002837D47F
:104420003299098800290BD080B2491E81422FD1D0
:104430005B980088A8422BD15B984088A84227D17E
:104440002121209803F086FE4521219803F082FE69
:1044500078A946221E9803F035FE66A942221F98CD
:1044600003F030FE1C9804604460052030701D98F5
:10447000048047984474042059990876E0434861C1
:104480000C74CC604D812F98858184720481046006
:104490005B988461FEF7E8FD64A8FE4D00E064A827
:1044A00045802C462A4649E478A830210172012231
:1044B00023E008215D9B0D2905D078A8405C3028B9
:1044C00003D1491CF7E7194600E0083978A84218DB
:1044D000581A0823CC180D2C07D00D2B00D150E210
:1044E000D45C78ADEC545B1CF4E70522239902F010
:1044F00097F9002800D1ECE10A46083278A80D218E
:10450000FDF771FB02460B4666AC20463146FDF7CF
:10451000ADFF2088002800D00FE267985D902499B5
:104520000888401C088070685A9078AD2121284680
:1045300004F05BF8559C20468230294602F0ECFAE4
:10454000FDF75CFB02460B4666AD28463146FDF79B
:104550008DFF2888002800D0EFE1679D20895890C2
:1045600000285F9A6AD0E089D54A5040A18951401D
:10457000014388B2002801D0002400E0103448959F
:10458000002800D001E270685F9078A8402104F014
:104590002CF8002055942146402817D00C78650946
:1045A00030225723052D154600D31D462609AE1986
:1045B00078AD2E540F2626400A2E00D31A469219A3
:1045C0002B185A70491C801C4E9EE5E766A8529035
:1045D00078A935464022519203F074FDA0AC2046E4
:1045E0003146529A519BFDF741FF2088002800D0A8
:1045F00089E1A19852907068519078AC4E25204680
:10460000294603F0F2FF5598203021462A4602F051
:10461000F3F9FDF7F3FA02460B4666AC2046314645
:10462000FDF724FF2088002800D086E167980F90CE
:104630005F998AB2E14801405F91489D559278A800
:1046400031465E9A5D9BFDF7E7FA789C002C00D11D
:1046500076E179985E9078A831465A9A2B46FDF714
:10466000DBFA7898002800D16AE15D9079985A9039
:1046700078A83146569A5C9BFDF7CEFA789D002DBE
:1046800000D168E1799A58980028CE4B7B44CE49F6
:1046900079443ED04893569258915C945F98559ACD
:1046A000024378A84E9E3146529BFDF7B5FA789C9E
:1046B000002C00D144E179985F9078A83146519A56
:1046C0000F9BFDF7A9FA7898002800D143E179996A
:1046D000879186900C208590BC48784484905F98A0
:1046E0008390829408208190B948784480905A98A9
:1046F0007F905D987E9048987C9056987B907A95B4
:10470000072079905898789004217D9178A85C9A38
:104710000EE05A987F905D987E9004207D907C9367
:104720007B927A9507207990789178A80221224689
:104730005E9BFDF781FA054600204E9908604860AF
:10474000A8B29D49884200D1F8E5E4E05D99491B93
:104750000446A0A8FDF740FA02460B462919304648
:10476000FEF70AFA054680B29349884200D0F5E088
:1047700066A84025294603F038FF78A848952946C1
:1047800003F033FF5D990B194A1E5C9321468B425F
:104790007CD95A925C1A412C894D7D4458914CD356
:1047A0000A464032304652925E93FEF7B3F9044611
:1047B0005F915E9A1146403930465191FEF7AAF951
:1047C0005E91489B002B21D05F9AD218402A00D1DD
:1047D00082E022783A2A00D3CCE021465E9CE4189D
:1047E0002E46AA5C66ADED186D1E2A70402C00D1D5
:1047F000C5E002783A2A00D3BCE03546B25C5B1EC5
:1048000078AC1A550C464C1C401CDBE778AA4024B7
:104810004E9E304658992346FEF7CEF966AA30469A
:10482000519D29462346FEF7C7F95A9A803A5D986A
:1048300080385D902B465299A9E75F9530461A461D
:10484000FEF768F905465E915A9A1046521C13D23B
:10485000002900D193E02B462A783A2A5F9D00D3A5
:1048600088E0402800D38EE0AA5C66AD2A54491E39
:104870001D465D1C421EE8E766A82146FDF7ACF91F
:1048800002460B4630465899FEF796F95C9CFFF7B6
:10489000E3FBC046FFFF0000022123E078A8407838
:1048A00064A9487036E078A841781BE00020FBF747
:1048B00013FC012116E078A8467898A8467029E0F4
:1048C000FFFF00000220109908703B4D23E05C9927
:1048D0001EE04398851C41E05F98014600F0C5FC4E
:1048E000FEDE4A9964A814E066A8417810E0002032
:1048F000FBF7F2FB01210BE04398851C0BE0002045
:10490000FBF7EAFB06E0A0A818E066A819E003217F
:1049100098A84170439D012000024D9908184499C0
:10492000499AFEF7C9F881B2234A914200D0054660
:104930002846FC1F053CA546F0BD66A845880DE04D
:1049400078A885880AE05A98629004212046C5E735
:104950001848451CDFE778A885884E9E0020306007
:104960007060D8E766A84588D5E766A88588D2E74D
:1049700078A8BAE73A211046B0E74021E6E75E980A
:10498000ABE70520A9E74021A8E7124878442B218E
:1049900000F080FBFEDE104878442C21F8E710215F
:1049A000204600F090FBFEDEFDF7F5F8FEDE40212C
:1049B0005F98F6E7036E000001EF00000000FFFFC4
:1049C0008A4700005C410000244300004E41000083
:1049D0000E410000EB420000083E0000F8B504AFB5
:1049E0000446F82000252550258708482018152161
:1049F00003F0FBFD01263102601802F015FC700285
:104A00002550201845602560F8BDC0460C04000004
:104A1000F0B503AFB9B0069207901BA8FDF7D8FB1D
:104A20001C98212801D2032608E0312801D204264F
:104A300004E0412801D3092600E0052625AD4824DD
:104A40002846214603F0D1FD37940024389438A835
:104A5000039037A802900195202000901BA81549CB
:104A60003246069B02F0E6FB002804D01248079E5F
:104A70007080012417E008A8801C049025A948250F
:104A80002A4603F01FFB3798069038980590079E3A
:104A9000301D04992A4603F015FB012005990840B2
:104AA0000699F164306534801BA8FDF7C5FF39B065
:104AB000F0BDC0460106000001E000007047D4D4FC
:104AC000F0B503AF87B00C4601904869896902913F
:104AD000CB68344979440D2206461D46984701218A
:104AE00000284BD10091207F400720D42E497944E3
:104AF00003223046A84700283FD12C49794404229C
:104B00003046A847002838D1294979440222304646
:104B1000A847002831D101983146029AFDF7C2FB1F
:104B2000002800992AD129497944022235E02149F7
:104B3000794403223046A84700281ED106A8012147
:104B40000170059002980490039603A81A497944CD
:104B5000042200F0F1FC00280FD103A81749794482
:104B6000022200F0E9FC002807D103A9144A7A4484
:104B70000198FDF797FB002803D00099084607B07D
:104B8000F0BD03A80F497944022200F0D5FC0028AB
:104B90000099F3D10C49794401223046A8470146D7
:104BA000ECE7C04690400000B4420000E43C000046
:104BB0009D42000079420000923C00004942000002
:104BC000CE4000002642000018420000874200004C
:104BD00080B500AF03462E220846194601F020FE9C
:104BE00080BDB0B502AF14460D4602C8FFF7F0FF16
:104BF0002A46234600F090FCB0BD80B500AF812965
:104C000003D240188022511A80BD802208461146E6
:104C100000F059FAFEDEF0B503AF91B0202408ADE4
:104C200003232B550C9400230DAC0BC40A93009363
:104C300008931469002C01923ED0203504951F2062
:104C4000C00651699368039316684D018143029130
:104C50000596002D55D07268002A06D00E98C368BC
:104C600031680D98984700285CD120462030069086
:104C7000207F0499087020690C90A0690F9021464C
:104C800008310795039D284600F052F809910890D5
:104C90002846214600F04CF80B910A906069C1004B
:104CA00068586918079D4A6808A990470836203D4A
:104CB0000028069CCDD035E0072040079468D168D5
:104CC00012680592CA000792814302910025079855
:104CD000A84216D0059840194268002A07D00598C6
:104CE00041590E98C3680D98984700281AD1264656
:104CF000083605CC08A99047083500283446E6D088
:104D000010E001984068029981420DD20298C000DB
:104D1000059A1158101842680E98C3680D98984764
:104D2000002801D0012000E0009811B0F0BDD4D4DB
:104D3000D0B502AF0B68002B0CD002460020012B2F
:104D40000AD14968CB00D1184968064C7C44A1427D
:104D500003D0D0BD081D01E0D0BDD05801680120AE
:104D6000D0BDC04619060000FEB506AF0293019201
:104D70000E4604460025AE4209D002980269019809
:104D8000214690476D1C0028F5D0681E00E0304693
:104D9000B04201D30020FEBD0120FEBDF0B503AF3F
:104DA0008DB00C920A460546C6690121304609912C
:104DB0000840112109040028069100D02B210B91F5
:104DC000B968441870070893079102D400200A902C
:104DD00006E00C9811180A92104600F085F80419A4
:104DE000286800282AD06968A14227D930073BD417
:104DF000091B01262846324600F014F9044606989D
:104E000084422ED009916969AD690C9800900C918B
:104E1000084629460B9A0A9B00F0E8F8002820D1A2
:104E2000EB680C980899079A9847002819D12046F2
:104E300009990C9A2B46FFF797FF11E06C69AD6951
:104E40000C980090204629460B9A0A9B00F0CEF859
:104E50000028099E05D1EB6820460899079A9847D3
:104E6000064630460DB0F0BD05912020295C039127
:104E700001262E5428690290302028616A69A969A8
:104E80000C980090049210460C910B9A0A9B00F02B
:104E9000ADF80028E5D109960598011B01222846A6
:104EA00000F0C0F806460698864209D00B910C988F
:104EB000C368049C20460899079A9847002801D0A7
:104EC000099ECEE730460B9922460C9BFFF74CFF1C
:104ED0000028099EC5D12846203003990170029808
:104EE00028610026BDE7D4D4F0B503AF8BB0091A12
:104EF000102965D3C21C03239A43121A8E1AB408D0
:104F000005945DD034469C4381180C1901931E40D2
:104F1000049100F087F90546A119204600F082F9B6
:104F20004019314E059A002A4DD00390C02A1346ED
:104F300000D3C02307A8049900F062F9089A134629
:104F4000019883430A98059009980490079907A847
:104F500000F056F908988000079B19180A980290EB
:104F60000998069000228B420DD00020102808D00E
:104F70001D58AC09ED43ED0925433540AA18001D25
:104F8000F4E71033EFE7100A16490A40084080188A
:104F900013494843000C0399401802990029C1D0D5
:104FA00004468A000021002A0FD0069B01CB0693FD
:104FB0008309C043C009184330404118121FF2E76B
:104FC000411800F02FF90BB0F0BD080A054A114056
:104FD0001040401802494143080C0019F3E7C0464D
:104FE00001000100FF00FF0001010101F8B504AF5D
:104FF0001C460E46054611200004824207D0336944
:10500000284611469847002801D00120F8BD002C01
:1050100005D0BA68F368284621469847F8BD0020B5
:10502000F8BDD4D4FEB506AF2023C55CAB0002A406
:10503000E358E3189F46C046260000001C0000000D
:1050400010000000180000004D084A1C510806E03E
:10505000120603D000220D46114600E00025019102
:105060006C1C0169029146698569641E09D02A6930
:105070003046029990470028F7D01120000401998A
:1050800001E00199029803B0F0BD80B500AFFCF7D4
:105090007DFDFEDE80B500AFFFF7F7FFFEDE80B5D9
:1050A00000AFFFF7F2FFFEDE80B500AFFFF7EDFFC8
:1050B000FEDE80B500AFFFF7F7FFFEDE80B500AF84
:1050C000FFF7E3FFFEDE80B500AF00F001F8FEDE83
:1050D00080B500AFFFF7D9FFFEDE80B500AF00F06E
:1050E00001F8FEDEE0B502AF1D4616460C46012172
:1050F0000A020190214600F065F8002808D1A64276
:1051000003D8A54201D8AE4213D9FFF7BEFFFEDE99
:105110000346A04206D20198C0564021C9438842A6
:10512000EDDC00E0EBD0002201982146FFF7D5FF2F
:10513000FEDE002E07D0A64205D2019880573F21FF
:10514000C943884200DB2E4601982146324600F0D2
:1051500039F80246002807D1A2420ED118487844F7
:105160002B21FFF797FFFEDEA24224D20198805642
:105170004021C9438842EFDC1EE0019880180021DD
:1051800041560029C1D5C9B2E029BED3F029BCD30C
:105190004278C3783F241C409206920B80788006A8
:1051A000000D101800194907C90A401811210904F7
:1051B0008842AAD1D2E7CFD0019821462346B5E74D
:1051C000193B0000D0B502AF914213D90346D01E5F
:1051D00000D20020511C81420ED39A18091A0029CE
:1051E00007D00023D356521E491E3F24E443A34256
:1051F000F5DB09180846D0BDFFF765FFFEDED4D405
:10520000D0B502AF9A4205D3D21A9C000C191AC02D
:105210000260D0BD024878442321FFF73BFFFEDE49
:105220003E3A0000B0B502AF88420CD00A1A002303
:105230001946C4564025ED43AC4200DD491C401CD4
:10524000521EF6D100E000210846B0BDD0B502AF35
:105250000C46994204D11146224602F033FFD0BDDC
:105260002046194600F001F8FEDE80B500AFFFF7DA
:105270000CFFFEDEF0B503AF93B002910646272087
:105280000890354C364878440390A6422DD93046D4
:10529000324903F09BF90790611C4143701A069054
:1052A00080B26426314603F091F905464100039A25
:1052B000505C059009AB089C18190490001F059BD1
:1052C00003705118497841706E430698801B80B274
:1052D0004000115C049B9B1E197010184078587098
:1052E000241F08941C4C079ECFE7632E13D9B0B23D
:1052F0006424214603F06AF94443311B89B2490012
:10530000039D6A5C089CA41E09AB1A551A196918FA
:105310004978517001E03046089C0A2804D2611E89
:10532000303009AA505409E04000039D2A5CA11EB8
:1053300009AB5A545A182818407850702720401A40
:10534000009009A843180749794400220298FFF702
:1053500025FD13B0F0BDC0460F2700001027000048
:10536000D33B0000DC3B00000068FEE7B0B502AFB5
:105370000B46C4B2002001468A4204D05D5CA542BF
:1053800003D0491CF8E71146B0BD0120B0BDD4D40C
:10539000F0B503AF88B00190D61F0023072A00D2D2
:1053A0001E46C81C03240094A043401A0790594885
:1053B000784406900596934200D38CE0CD5C6CB2A5
:1053C000002C17D40798C01A8007514D02D05B1CDF
:1053D000F1E70833B34207D2C858CC1864680443D5
:1053E0002C42F6D000E05B1C9342E4D2C856002861
:1053F000F9D5E0E70698405D01260496022816D00C
:1054000003281ED00428059E6BD1581C0290002052
:105410000390029890426ED20856F02D22D0F42DBF
:1054200025D104467020C043844229DD59E05C1C2C
:1054300094425ED208574025ED43A842059E48DDC0
:105440004FE0581C002603969042059E53D2085CFC
:10545000E02D24D0ED2D45B226D16020C0438542F9
:105460002FDD3EE07030C0B2302809D339E0054668
:105470000F34E0B2022834D83F20C043854230DAEE
:10548000981C904237D208564024E543A8422BDCB2
:10549000DC1C94422FD20857A8421ADD26E0E024F3
:1054A0002040A0280DD01CE020461F30C0B20C28A0
:1054B00003D3E0B24008772813D13F20C043854290
:1054C0000FDA9C1C944216D208574025ED43A8429F
:1054D0000ADC631C6FE7019841600146826000208E
:1054E00012E00498009002E00220009004980390DB
:1054F00001E0002003900098C0B200020399081850
:1055000001994B6088600498086008B0F0BDC046FF
:1055100080808080F2380000D0B502AF994208D177
:105520000C461146224602F0BAFD0146404248416F
:10553000D0BD0020D0BDD4D4F0B503AF99B00FAD2D
:105540000026AE84179216960A231593012401941F
:1055500014941392099211920C9110910F93016877
:1055600005914168049180680690284618300290A1
:10557000243503950796334608963446002C099A3D
:1055800000D09BE09A4265D30C98C518D41A072C1A
:1055900007D800218C425BD0685C0A2841D0491CA6
:1055A000F8E7E81C03218843A8420E950B930A9460
:1055B00001D100250DE0451BA54200D30A9D0A201C
:1055C0000E992A46FFF7D2FE012802D1099A0B9BB9
:1055D00027E00A9808380D900D98854215D80E9C42
:1055E0006159394802468A43364B5940374E89192A
:1055F000114062195268034693433248424092195F
:105600001A400A4301D10835E6E70E9841190A9875
:10561000421B0A20FFF7AAFE0128099A0B9B17D10B
:105620004919C818431C1293ACD09342AAD80C99BC
:1056300008180121029A1C460B46FFF76DFF23460E
:10564000099A00289ED0169300241D461E460CE0A1
:10565000129213460798002830D101240398447011
:10566000089D95420794164628D006980078002891
:105670000B9308D00498C36815497944042205980F
:105680009847002818D1089BF21A0C98C1189E421E
:1056900001D1002005E05018401E03780A3B584213
:1056A0005841069B18700498C368059898470028CD
:1056B00008950B9B00D161E7019800E0002019B02C
:1056C000F0BDC0460A0A0A0A80808080FFFEFEFE06
:1056D0006A310000F8B504AF60C80468207800287B
:1056E0000BD00091F3680949794404222846984771
:1056F0000099002801D00120F8BD08460A3842422E
:1057000042412270326928469047F8BDFC300000C3
:1057100080B500AF0A4602497944FFF77CFA80BDA4
:105720009C360000B0B502AF044600F011FE002820
:1057300001D100F015FE062500F00AFE00281FD05A
:105740000421204600F0FDFD20780528F3D12179C1
:10575000E0784208084610432071002904D0002A4E
:1057600012D0032A0ED00BE0032A09D80020C0462D
:105770007A44127952009744010F100500202071DD
:105780002846B0BD0220B0BD002020710429284663
:1057900002D2C9000248C840B0BD0120B0BDC04619
:1057A0000603040580B500AF0248784400F0A4FC6D
:1057B00080BDC04622360000F0B503AF85B0044678
:1057C000007DC0467844007940008744010A1C31BE
:1057D0000321204600F07EFD206900282CD01849C6
:1057E0000BE003CC0123022200920193083C00F05D
:1057F00055FD206900281FD010490491039003A88B
:1058000000F0CCFB18E003CC0122022600960192A6
:1058100003252A462B46083C00F040FDA068E168BD
:1058200000220096019211232A4600F037FD03E082
:105830000221204600F04EFD05B0F0BD3800020008
:1058400010000800F0B503AF8BB00D4611264E4393
:105850003446113441688C42234600D30B4602681B
:105860000592B3425ED3002D04930AD08E4208D233
:10587000059A925703923F23DB43039A9A42049B73
:1058800050DBA14209D9002B07D01C46059AD356FC
:105890004022D2439342234644DD03908468A068AB
:1058A000E168228B019200F0D1FC00900295658B9B
:1058B00003CC2A46083C00F0DDFC06A9CD81029D00
:1058C000019A8A814881009808810120000208829B
:1058D0001748079000200690084600F00DFC049839
:1058E000801B05998919216160611248784400F094
:1058F0009DFB1148784400F099FB002D03D010481F
:10590000784400F04BFB681C0399C9680968884219
:1059100003D20A48784400F041FB204600F022FC04
:105920000BB0F0BD05983246FFF7D7FBFEDEC04650
:10593000FFFFFF003435000024350000043500006F
:1059400020350000F0B503AFBDB00D460446FFF7AB
:1059500029FF0020A84BA94E7E4440280CD02DA939
:1059600001220A50091800220A770E614A618B61F0
:1059700002228A602030F0E7059609AE2DA9402268
:10598000304602F09FFB2168029460680190026833
:105990000395284650433C3606968B68089304913D
:1059A000CE6800240792002A49D000281CD011227A
:1059B00000210B4602F05BFB4A1E91413FD1B042F1
:1059C0003DD2014611318E42354600D30D4681420B
:1059D00000D235462946089A334600F01DF90028C2
:1059E0002DD002460B4607E0002E28D0112E35465A
:1059F00000D31125089A2B4621A811461A46FFF715
:105A0000C7FCE00700D0F2E0239B2299219A0020F6
:105A1000069C2070784C179402241394012411944E
:105A2000002A00D003461693002A00D0059915914C
:105A3000089949190891761B079A521EB2E719A8CE
:105A400015212022059102F0CBFD039A002A1AD1DC
:105A500001980068112141430498C068814212D91D
:105A6000049C6168002019AA00F0E5F80CCCFFF74F
:105A7000EDFB21A819A91522FFF78AFC219800281F
:105A800052D0002351E01FA900248C700C8020AE5E
:105A9000B4703480501C00F09FFC08900D460298B2
:105AA00080680068314600F097FC01222C92544B2C
:105AB0007B442B9323462A9129902892514878447D
:105AC0002790269508982590022024904E487844E7
:105AD0002390049903C9229121902046302BC8D0ED
