:02000004C0DE5C
:1000000080B56F4606F07AFD012005F02FFFFEDE79
:1000100080B56F46814207D399429FBF0244091AB7
:10002000104680BD0846194604F0C0FEFEDED4D45A
:10003000B0B502AF0C4609490546794400F034F8E2
:1000400005F1400021460A2206F0F4FF0449284643
:100050007944BDE8B04000F027B800BFC289000075
:10006000AD890000F0B503AF4DF8048D86B00446AD
:10007000067814F8808F05463046414600F02CF88B
:1000800000280CBF2C464646F0B2A52801BF04F15B
:10009000400006B05DF8048BF0BD0020694600907A
:1000A000204603F063F8FEDE012206F0C3BF80B5F0
:1000B0006F46C6B000204FF489718DF8170101AC6E
:1000C000204607F013FF20464FF4604105F0F4FC92
:1000D000002005F0CBFEFEDEC0B2A5281CBFC9B2D1
:1000E000A52903D1A53818BF0120704780B56F46F8
:1000F00004F03EFEFEDED4D4F0B503AF4DF804BDEF
:1001000000780E460F4905247944DFE800F0120319
:10011000070B0F000C490C2479440AE00B490B240F
:10012000794406E00A490B24794402E00949042491
:100130007944D368304622465DF804BBBDE8F04000
:10014000184700BF4F89000044890000488900001B
:100150004B890000528900007047027801212B2A48
:1001600016D02D2A4FF0010217D0D0B502AF0023D0
:1001700000215A1E18BF0122012B0CD0C45C303C58
:10018000092C07D801EB8101013304EB4101F0E7B1
:10019000012202E00121BDE8D040104670470A4626
:1001A000482100F000B8D0B502AF04460B46114616
:1001B00000202246BDE8D040FFF72ABF00B17047BB
:1001C00080B56F4602482B21784404F0D6FDFEDE50
:1001D000BB8D000008B908467047E0B502AF04487F
:1001E000791E044A78447A4404F0CCFDFEDE00BF58
:1001F0007D8C00001A880000D0E901329A423FBF8E
:10020000511C81600068815C00209A4238BF012047
:100210007047D4D4E0B502AF60B113460A46014638
:10022000684603F014FEBDF800100320002908BF43
:1002300004208CBD02482B21784404F09EFDFEDE94
:100240004B8D0000B0B502AF9A420CD80C469942D3
:1002500021BF0546104619462A4622BF2346BDE85F
:10026000B040FFF7D5BE03484721784404F085FD30
:10027000FEDE00BFA6870000F0B503AF2DE9FC0D40
:100280008246D1E90560C4680D4631490D223046E9
:100290007944A04700284FF001084FF00100009575
:1002A00044D1287F40071BD42A4930460322794491
:1002B000A047D0BBD5E905010422CB682649794483
:1002C000984790BBD5E905010222CB6823497944C0
:1002D000984750BBD5E905125046FFF70DFF25E0C2
:1002E0001F49304603227944A04701460120E9B95D
:1002F000D5E9051202ACA7F1190307F8190C0EC4D1
:1003000002A804221749794404F058FF68B902A8EA
:1003100015490222794404F051FF30B902A9134A69
:1003200050467A44FFF7E8FE58B101208DF80400EA
:1003300068468DF8058005F027F806B0BDE8000D89
:10034000F0BD02A80A490222794404F037FFEDE724
:1003500012880000008E0000D0870000E58D0000AC
:10036000CF8D0000888700009F8D0000268C000044
:10037000708D0000027801460120C32A0AD0B1F82E
:100380004420012A98BF0246B1F94810B1F1FF3F5D
:10039000C8BF10467047D4D4F0B503AF2DE9000DA7
:1003A0009CB00446C0687D4E7E4438B1012809D116
:1003B000A06801227A4B00217B4407E004208DF8DD
:1003C000200024E0A0680022D0E90231CDE9053107
:1003D000216A0791D0E900018DF82020CDE90301C1
:1003E00006F088FE00200F908DF8400003A805F06D
:1003F00031F806F087FE0FAD284604F0F3FFC0B2D7
:100400000628F9D003380228F6D806F07BFE4FF014
:10041000000E3346CDE90B6E04F11008D4E90960F3
:100420004FF0010CE5691390D4E9000404F1010BCD
:1004300098E806010090BBF101008DF838C00D96D8
:10044000CDE909128DF850C0CDE9113ECDE90F85F7
:1004500038BF70460290601E019019AE15AD4FF086
:10046000000A4FF00008D8451AD0A0452ED106F05A
:100470002FFA09A804F0EEFF06F044FE304604F01F
:10048000B1FFC0B20628F9D0052800F07A80042810
:100490001AD00328F2D1DDF80480022CE3D268E000
:1004A00006F016FA0FA804F0D5FF06F02BFE304632
:1004B00004F098FFC0B20628F9D0052861D00328BF
:1004C000F5D1DDF80880CEE7D846CCE760D2002031
:1004D000332215908DF8580003201790009800EBF8
:1004E0000810C168B1FBF2F14A1C189218AA1B92BD
:1004F00017AA1AF0010ACDE9190218BF8A46304638
:10050000514605F019F8284604F06CFFC1B20629DF
:10051000F9D00429F7D823487844DFE801F006042D
:1005200003091100EFE72048784405F077FCEAE77B
:1005300005F05CFCBAF1000F0ED0AAF1010ADEE76B
:100540001A48784405F052FC18990AF101008842D3
:100550000AD038BF8246D2E7B8F1000F0DD0A8F11B
:1005600001084FF0010A7EE708F101084FF0000A88
:1005700079E703A800F01CF873E703A800F018F867
:100580006DE7B8EB0B0018BF01201CB006F033B9C3
:100590004046214604F0C4FCFEDE00BFF09F000090
:1005A000E09F0000D48B0000E08B0000C68B0000B1
:1005B000DCB504AF0446007D042815D006F09AFD92
:1005C000204604F047FF06F09DFD00206C46009099
:1005D0008DF80400204604F005FFC1B20629F9D0C9
:1005E00000F006000428F5D1DCBDD4D480B56F46F8
:1005F000ADF5156D4FF0000B4FF489718DF877B1A3
:1006000019AC204607F072FC5EAD142105F20C40D7
:10061000079007F06BFC05F58070CDF870B2ADF86F
:10062000B0B1039000F0DEFF05F503704FF40071E8
:1006300007F05CFCDFF8700C0DF2A4564FF400716B
:100640008DF898B54844E09006F10C00CDE9DEBB8A
:10065000CDF878B107F04AFCDFF8500CCDF8A8B51A
:100660004844CDF8AC050120CDF8A4B5CDF8D207AB
:1006700000208DF8B0B704F083F8A7F14C00A7F183
:10068000CC08011D0E9108F104010F9100F1080141
:100690000D910DF2EC71DFF818AC0331099106F2FF
:1006A0000D21069105F10801054608F108000590A5
:1006B000E81C0890012604910020189017904046ED
:1006C000802107F013FC09EB0A0009F80AB080F852
:1006D00006B0A0F802B005F0ADFB08B905F0B4FB18
:1006E0004046802105F0A2FB17F8CC1CA1F10E00BA
:1006F000082815D837F8CB1CDFE810F03D030900B7
:100700002500320032003200320032002E0088B262
:10071000B0F5807F04BF17F8C90C05F073F91FE02E
:1007200005291DD117F8C90C9DF8741141EA500232
:10073000400800298DF874216DD0002800F08380D6
:1007400003280DD1C5E008BA000C022808D92046BC
:10075000414605F01DF903E02046414605F0F0F85A
:1007600019F80A000028B6D009EB0A0040880028D2
:10077000B1D004288DF877B15A9005D2204646F6BC
:10078000036105F099F9A6E72846214605F074F9BA
:1007900057F84C0C40B39DF86400B02804BF9DF896
:1007A0006610002926D09DF8751119B19DF87611B3
:1007B000884252D1199DC5F30720032840F2E580F5
:1007C0005B98810840299FBF6E2121545B980130BE
:1007D00098BFB0F5827F80F0528526545B9806F072
:1007E0008CF8A7F14C0576E737F8481C204605F051
:1007F00063F970E79DF867100029D4D19DF8650072
:10080000012830D0A72800F03D85204646F601613A
:1008100005F052F95FE70328A2D80FF21005022174
:1008200005EB800501220023AF4600BF00F006B8AB
:1008300000F057B800F050B800F054B88DF874B11B
:10084000A7F14C058CE701298DF874B148D0022935
:1008500041D003297FF484AF40E020464FF4DC41CF
:1008600005F02AF937E75B9A8DF86460501C5B90BD
:10087000901CB0F5827F80F002852118C2F581724C
:10088000012006F0F1FB01465B98B0F5827F3FBF87
:1008900021545B980844421C3EBF5B920230B0F585
:1008A000827F80F0EC84211840F20310821A02202B
:1008B00006F0DAFB01465B98B0F5827F80F0DF84BA
:1008C00021545B98084401305B90204605F013F9F1
:1008D00001E7022106E00422114603E0052101E0C0
:1008E00003231946A7F14C05052900F24482E34889
:1008F0007844DFE811F006000800400238023502B3
:100900000B00DF48784405F089FAD8E61798C0B2A2
:10091000022804D003287FF4D2AE00F0B6BCD94D33
:100920007D44A8471790A847FFF79CFB0146404627
:100930000A2207F0B3FA1798FFF794FB0078B0FA91
:1009400080F0400907F8CC0CA8470546179015F829
:10095000801F0078FFF7C0FB1590002828461799E4
:1009600018BF08464146FFF763FB15980028179803
:1009700008BF0546C4492846A7F14C057944FFF74E
:1009800093FB03F067FF022098E6DFE800F0040223
:1009900006022E0A02E0002600E002265A980028ED
:1009A00041D00DF5FB60142107F0A0FAE8B28028D1
:1009B0003CD1B64BB64AF0B2B64D7B447A447D4446
:1009C0001795B54EB54D7E447D441595DFE800F092
:1009D000023165A3B2487844FFF7BFFB00F0010085
:1009E0001790B04E0D467E44B047AF487844FFF7AD
:1009F000B4FB00F001001591B04717982946B047A5
:100A00001598414607F8CB0C2046032207F8CA5C2C
:100A100007F8CC5C05F08CF80126169A2046169251
:100A200005F069F81EE16E25032309E16E25002318
:100A300006E140462146CDE91263149205F01CF808
:100A400057F8CC5C002D00F0F88057F8C80C012650
:100A5000152840F00F81284615211422FFF7A3FB2B
:100A60000DF5FB6205F0A6FB002800F003819DF860
:100A7000673000209DF86620032B88BF0120111FDE
:100A800018BF0121CDE90B321A4300F079810843E8
:100A900000F076816E250223D3E040462146149271
:100AA000CDE9126304F0E8FF57F8CC5C002D00F0AC
:100AB000C48057F8C80C0126342840F0DB80284653
:100AC00034211422FFF76FFB0DF5FB6205F072FB7A
:100AD000002800F0CF80A7F14C0005F0BEFE1435D1
:100AE0000020202800F01681295C5722A7F14C0332
:100AF000A02938BF302202EB111203F8102001F0B8
:100B00000F0157220A2938BF3022114403EB40025B
:100B100001305170E5E7404621463546CDE91332B4
:100B200004F0AAFF57F8CC3C002B00F086809DF81B
:100B30009805012657F8C82C002800F0C18001282C
:100B400040F0E5809DF86600012840F016811946C6
:100B50005EA80DF2A45300F0A1FD82B24EF6017121
:100B60008A4240F0A5819DF89805169A02287FF4E4
:100B700055AF9DF8B0071295002800F08A830DF25A
:100B8000EC75212105F0DDFE0698294605F056FD9D
:100B900000F0D4FBA7F14C0502460B46114628464F
:100BA0001A4600F021FC57F84C1C002900F0528234
:100BB000BDF8D20757F8483C3C4A01283C487A44E3
:100BC000784440F04F82CDF840380423CDF83C18EB
:100BD00004211191CDF83838CDF834289DF8D51777
:100BE000344A0029139B7A4408BF1A4647F82C2C34
:100BF000314A324B7A447B4408BF13460DF6340227
:100C000047F84C2C149A47F8282C102247E90F0279
:100C1000179847F8240C062047F8300C0029129842
:100C200047F8340C4FF0010047F8443C47F8486C53
:100C300008BF022047F8400C34E237F8C83C1D0AD0
:100C40000126169A5B98810840299FBF25545B981E
:100C50000130B0F5827F80F0128323545B981692A6
:100C600005F04BFE189D284603F08AFD2846A7F1A3
:100C70004C0522E56E250323E3E700BF188800003A
:100C8000E8870000252800008080000052820000D4
:100C9000A0820000D2820000AA8200003B830000F4
:100CA000D9800000EBF7FFFFC4800000CC7E00007D
:100CB00060800000E2800000EC7F0000AE80000059
:100CC00012956E250320172AC0F0F6809DF8661055
:100CD000002940F0F180079D1846119214211593C8
:100CE0002A4605F067FA002800F0E4800DF2EC7067
:100CF0002E2107F0FBF84046294603F032FC17F896
:100D0000CC5C202D40F0EB80E0250520D4E0EF25E1
:100D10000020D1E017F84C0C0DF6340608993D225E
:100D2000119037F84B0C1090304607F0B7F809983F
:100D300031463D2207F0B2F81098A7F14C06ADF805
:100D4000ED070DF2EC71119840228DF8EC0730465A
:100D500004F06CF957F84C0C002859D0EF2566E6E2
:100D60001798013001E01798013800F0030018903F
:100D7000189803F005FD18989FE46E2502209BE06B
:100D80000C980295002800F09D800DF5FB6140460F
:100D900003F0E7FB17F8CC0C202800F09C801090A3
:100DA0004822DDE90E0117F8CB5C37F8CA6C07F072
:100DB0007FF80D9940460A9507F84B5C109D1196F7
:100DC00005F080FD002041F20551202806D018F8DA
:100DD000002001EB411101301144F6E741F0010020
:100DE0000C9A00BADDF8E867010C81EA102181EA6B
:100DF00010614840C0B2B0FBF2F101FB12000B9948
:100E0000884200F0BB80701CCDF8E8070126BCE7E3
:100E1000052257E9120147F8D02CD04A159B7A4495
:100E200047F8D42C0722CDF83C080420CDF8401810
:100E300047F8D82C314647F8DC3C0126CDF8380875
:100E4000C74847F8486C7844CDF83408139847F8F9
:100E50002C0C022047F8400CA7F1DC0047F8440CAA
:100E60000DF6340047F84C0C149847F8280C47F856
:100E7000382CBC48784447F83C0C05F0D6FC0846B2
:100E8000FFF78AFA002800F0C3810DF5FB614046A8
:100E90002A4603F0E5FB37F8CC0CE0B905F0E9FC95
:100EA00057F8801C2846FFF77AF905F0D0FCABE133
:100EB000150A01E0E025032011905EA800F0D7FBA1
:100EC000119BBEE60DF5FB61404603F04AFB17F8A7
:100ED000CC5C202D60D137F8CA3C1D0AB1E617F86A
:100EE000CB0C48221090DDE90E0137F8CA6C06F0F1
:100EF000DFFF0D99109807F84B0C404605F0E2FC17
:100F00000DF2EC750DF6340041462A4603F0FAFB6B
:100F1000DDF83408002800F0A080049829462E222D
:100F2000DDF8385806F0BAFF159901268DF8986556
:100F30005F958D7D5E96012D05D103F016FC159908
:100F4000002800F0DA80119814318DF8D4B70DF232
:100F5000A453A0F11402681EB0FA80F0CDF8A8B531
:100F60004009CDF8A4B5ADF8D2678DF8B0B78DF8CB
:100F7000D5075EA800F092FB129DEEE50E990DF2EA
:100F8000EC70482206F094FF202D16D1119B0A9A8E
:100F900001961D0A012655E637F8CA0C4822119021
:100FA00017F8CB0C0F9916900DF2EC7006F080FF3D
:100FB000DDF8E8170F98019104E00A9816900F9851
:100FC000019601260DF2EC71482206F071FF11988E
:100FD00027F8CA0C169807F8CB0C029807F8CC5CD7
:100FE000007D002800F003810DF2EC702E2106F048
:100FF0007DFF0DF634050599284603F0FFFAA7F1A9
:10100000DC000DF2EC72294603F07CFB57F8DC0C97
:1010100000286FD00E9D0DF2EC7157F8D80C2E22DF
:101020001190284606F03AFF1199284647F84C1CC3
:1010300003F084FB02460B460DF2EC7011461A4693
:1010400003F0F4FFDDF8EC07002800F08D80EF25B9
:101050000023F6E537F8480C3CE0BDF838080126D7
:10106000050A29E7CDF83C180421CDF840380423BF
:1010700011910021CDF83838CDF8342847F82C1CD0
:1010800047F8401C9049794447E912610DF6340154
:1010900047F84C1C149947F8281C102147E90F0108
:1010A00005F0C3FB2846FFF777F9B0B19DF8980526
:1010B000022840F0F2800399284600F0B9FA17F8A8
:1010C0004C0C002800F0A78037F84A0C27F8CA0C0F
:1010D00027F8CC6C1190050A00E06E2500201790CF
:1010E0005EA800F0C4FA1798169A119B00287FF4A6
:1010F00095ACA7E537F8D83CEFE605F0FBFF0F20ED
:1011000007F898BC47F89C0C02216D4847F8A81CCA
:10111000784447F8A00C0D2047F8B06C07F8B4BC31
:1011200047F8B80C674847F8C41C784447F8BC0C2B
:10113000404647F8CC6C04F015FE05F0E3FFA7F13C
:101140004C0547F84CBC07F848BC284604F04AF95F
:10115000C0B20528F9D1E0250420ADE6937C00005B
:10116000407C0000427C00000822DDF8F00747F8D0
:10117000D02CDDF8F4174F4A159B7A4447F8D42C4D
:10118000072247F8DC3C47F8D82CCDF84018CDF8BA
:101190003C08CDF838284848CDF8F0677844CDF8B9
:1011A00034081398CDF80C080220CDF8F807A7F101
:1011B000DC00CDF8F4070DF63400CDF8EC071498F8
:1011C000CDF810080F20CDF800083C487844CDF841
:1011D000FC071798CDF814080620CDF808081298D7
:1011E000CDF804080DF2EC70FFF7D6F880B1059940
:1011F0002046412204F09CFC0198A7F14C010422F6
:1012000000BA47F84C0C204604F092FCFFF705BCEE
:101210006E25042315E50E990DF634001D2217F8EE
:101220004B5C37F84A6C06F039FE09980DF634012C
:101230001D2206F033FE07990DF2EC724046ADF820
:10124000ED678DF8EC5703F00BFA37F8CC0C30B1A2
:1012500037F8CA0C1190050A002017900DE005F030
:1012600008FB57F8801C2846FEF799FF05F0EFFAB7
:1012700004F05EFC002501201790012630E705F000
:10128000FFFAFEDE19A804F036FC002004F0EEFDA3
:10129000FEDE0E482721784402E00D4824217844E0
:1012A00003F06BFDFEDE00BF000800000000000040
:1012B000042000007B790000247A0000B979000046
:1012C000447C00001D7C000012930000467A000060
:1012D000857A000080B56F46FEF7E9FEFEDE80B538
:1012E0006F4603F059FDFEDED0B502AF86B004466E
:1012F0002020CDE9032001200290A7F1090007F882
:10130000091C1946019001A804F06AFF08B1616048
:1013100002E04EF20201A180206006B0D0BD0A4674
:10132000402100F000B88A429CBF1146704780B54A
:101330006F46104603F03AFDFEDED4D400B170478C
:1013400080B56F4602482B21784403F016FDFEDE7F
:101350003B7C0000D0B502AF0446084611461A4651
:1013600002F028FD05F073FABDE8D04000F03CB86B
:1013700080B56F4690B0CDE9032307220292144A4C
:101380007A440192134A7A440D920222089201AAE9
:1013900005AB07C3104878440E9008200A900F4808
:1013A000784409900E4878440F9006200C900D4820
:1013B00078440B9005A8FEF7EFFF46F6046100287D
:1013C0001CBF4EF60171CFF6FF71084610B080BD0C
:1013D0008379000086780000C678000085770000D9
:1013E000EA780000C0780000DFB506AF044601A827
:1013F00003F01CFE019820B14FF46F40A080002044
:1014000002E0DDE9020161602060DFBDF0B503AFFD
:101410002DE9000D9AB002AD88460446402105F042
:1014200090FA12AE20214FF0200A304606F05EFD01
:101430002120414605222B460096212605F004FE78
:1014400004F10800294605F049FA284604F0DBF9C2
:10145000C4F804A026701AB0BDE8000DF0BDD4D4C5
:10146000014600F17F021020222A15D8DFE802F0A1
:10147000121E20222426282A2C2E30321D1D1D1D2E
:101480001D1D1D1D1D1D1D1D1D1D1D1D1D1D1D1D8C
:101490001D3436000120704711F1BF0204BF0D203A
:1014A0007047DF3104BF002070477047022070474B
:1014B00003207047042070470520704706207047BE
:1014C0000720704708207047092070470A2070479E
:1014D0000B2070470C2070470E2070470F2070477C
:1014E000F0B503AF2DE9F00D16468B46D2E9011297
:1014F000BC68914243D02104CDE9013004D09BF86F
:1015000000501FFA84FA06E0304605F05FF98BF8C8
:1015100000504FF0010A15F0C00008D0802808D014
:1015200040281ABF05F03F000530022002E00120EC
:1015300000E00420AAEB0008D34400240390A0EBB1
:101540000A00009005F0BAF90ED018EB04000AD09A
:10155000304605F03BF90AEB0400212815D20BF8C0
:1015600004500134EEE7009C03985444844211BFB8
:10157000DDE901304FF6FF734FF6FF74029800214A
:1015800084804380017005F05AB9212103F0C8FC22
:10159000FEDEE0B502AF00F1280108300090684699
:1015A000019104F0FEFB8CBDF0B503AF4DF804BD16
:1015B000C0B06E46044630460D4600F013F8304683
:1015C0002946212200F026F805F02AF904D16946BF
:1015D000204600F02DF802E001216080217040B02B
:1015E00005F061B9B0B502AFC0B06D4604462846FB
:1015F0004FF4807106F0E5FD28464FF4807105F048
:10160000EDFC204629464FF4807206F055FC40B0B0
:10161000B0BDD4D480B56F4605F0F4FC0349002872
:1016200008BF01F57061084680BD00BF01E0FFFF03
:10163000F0B503AF4DF804BD88B06E460D460446C4
:101640003046202106F052FC2846314605F0D5FCF4
:1016500020B14EF201006080012004E0601C694668
:1016600005F03CF90020207008B005F01CB9B0B5B9
:1016700002AF0025044605871521C0F8F85000F296
:101680000C4006F033FC04F580704FF4807105F0D7
:10169000A5FCC4E980552560B0BDD4D4F0B503AF36
:1016A0002DE9000DADF51C7DFF2A03D946F6036632
:1016B00001F0E9BC0646002052AD64AC4E9006F540
:1016C00000704F9005F13F003D9004F13F003C90C9
:1016D000E01C2790601C2F9005F12100209004F160
:1016E0000800239006F14100269006F1BC003B90D3
:1016F00006F1A1001F9006F14B001E9006F5037045
:10170000229003F20D20CDE9401206F13C08CDE90C
:101710004C1235908CA803301D90281D1C9006F1AA
:10172000C000309006F14600329006F1440042902D
:1017300006F142003E9006F16C002C9006F13E004E
:101740002B9006F14C00389006F145002E9006F1E2
:1017500064001B9006F17200299006F14900289060
:1017600006F13D00319004F136001A9004F10D00AD
:10177000199004F12400189004F13000179006F13C
:1017800094002A9006F14A00369006F170003790D6
:1017900006F15000349006F14800219006F1A000B7
:1017A000339006F1C200399006F1F0003A9006F14C
:1017B0004000499006F139003F9006F1E4002D9079
:1017C000301D259006F138044A964393CDF81C81CC
:1017D000459400202490DDE94D01884201F02F84DA
:1017E00020464FF6FF7AB6F8F85004F0BCFC80B201
:1017F000854281F03B842078DFE810F00600060087
:1018000017008000CC00A004B6F8FA002B463F99E0
:1018100000900DF5A1704CAA01F008FE9DF8420160
:10182000002800F0568601F021BCDDE94D65AE428E
:1018300000F046864A98B0F888404046FEF79AFD88
:1018400080B2844281F0E28398F80000C3281DD161
:10185000B54281F0E783681C4E904C98465D0120AC
:101860000125FEF7ABFC4FF6FF704FF6FF74EEB1AB
:10187000012E41F0DB83404604F079FD98F800002A
:10188000C3284A9801F0C283B0F888404A9841467C
:101890002346B0F88A00009064A84CAA01F0E6FD47
:1018A00004F0B1FF41F0BB8305F04EF805F042F8BB
:1018B00018BF05464A9EB6F88800DA4508BF441CA2
:1018C00047981FFA84F8FEF755FD80B24FF6FF7176
:1018D0008045DDF81C8108BF5D46A6F88A5008BF28
:1018E0005C46A6F88840DA4540F0EA8504EA05003F
:1018F00088429AD14FF6FF7000F0E7BD64AC4FF616
:10190000FF75DDE94D01884200F0D585B6F8680025
:10191000012801F279830CD0002841F07583B6F8D4
:101920006A00414600904CAA2046002302F0C2FC07
:1019300008E0B6F86A000123429900904CAA2046BC
:10194000FFF7CEFD04F05FFF41F06283BDF8942104
:10195000BDF8920100EA02018BB2591B18BF114673
:10196000B6F86820AB4208BF501C82B2022A08BFFA
:101970002946A6F86A1008BF2846AB42A6F86800B8
:1019800040F09985084080B2A842BAD104F0E1FF46
:1019900000F09BBDB6F9E840B4F1FF3F40F352853B
:1019A000B6F8E2104FF6FF72B6F8E000904208BFBA
:1019B00091420DD13B98242106F098FA0A2000218B
:1019C00086F83C00601CA6F8E8000020C6F8E0108D
:1019D000DDE94D524FF6FF74954200F0B48780B2B6
:1019E000022801F2438330D0012863D0002841F05F
:1019F0003D833B981FFA81F8002640444B90C8F184
:101A0000040044904C9846904E984890954263D07C
:101A100008EB0604201F5ED0AA42924606D24698E2
:101A200002F1010ACDF820A110F802B00020AA426C
:101A300038BF0120FEF7C2FB032C01F239834B981B
:101A4000524600F806B00136E0E798F800A0B34629
:101A5000BAF10A0F40F00381AA4281F01C83501CA6
:101A60004E904C98855C0120FEF7A8FB032D01F2F7
:101A7000FD820DF1380E4FF0090A9EE844400DF545
:101A80000C78139BDDE911C1DFE805F0025872B153
:101A90004046152106F02AFA00204FF0060A4FF0C2
:101AA000000C4FF0000E00230026002200210A90B7
:101AB00009909CE0009184A830994CAA012302F07F
:101AC000E8FC9DF81002002841F0D082BDF81422F5
:101AD000BDF812020FE0449E06EB08024A9E4898A9
:101AE000042A4E904FF6FF71B6F8E00004BF084696
:101AF0000A46DDF81C8100EA02014FF6FF748BB242
:101B0000191B18BF1146B6F8E020A34208BF501CAD
:101B100082B2032A08BF2146A6F8E21008BF204679
:101B2000A342A6F8E00040F00E8782B2A24204BFB2
:101B30008AB2A2427FF44CAF01F03CB82F9804F077
:101B4000A9FE64A94046222206F0A8F900204FF021
:101B5000070A0D904FF0000C4FF6FF704FF0000E8B
:101B60000C9000200B9000230026002200213EE074
:101B7000179804F0FCFB189900204FF0050AADF807
:101B8000BC418DF890A122220860C1F80300BDF885
:101B900092011290BDF8980113909DF8910109905F
:101BA0009DF89501BDF89661BDF89A519DF8948114
:101BB0000A909DF89C418CA8199906F06FF99DF840
:101BC000BF0146220890BDF8C0010C90BDF8C201CB
:101BD0000D90BDF8C4010B9052A81A9906F05EF959
:101BE00042460DF50C78DDE91213AE46A4460A987C
:101BF0008BF8410009988BF83D0028980E928BF8DD
:101C0000402022221291ABF83E104146CDF844C04C
:101C10008BF848C0CDF840E0ABF846E01393ABF842
:101C200044300F96ABF842605E4606F037F90B98E9
:101C30004622ABF870000D98ABF86E000C98ABF82C
:101C40006C0008988BF86B00299852A906F026F9C9
:101C5000DDF81C810020CBF8B8008BF83CA0AAF17D
:101C600006004FF6FF72C1B205294FF0020128BFEE
:101C70000846C1B24FF6FF70DFE811F006008E0192
:101C800011000500F80936E7B6F8E200B6F8E030D2
:101C9000009084A831994CAA02F02FFC11E7DDE9ED
:101CA0004D084FF6FF7B404500F03D82B6F9B45039
:101CB000B6F8B040B6F8B8A02946204604F048FA75
:101CC00080B2824581F0A981012C4FF0010098BFBC
:101CD0000446B5F1FF3FD8BF0446A2451CD2B6F872
:101CE000BA005346009064A82C994CAA01F0BEFBA0
:101CF0004CAB42460BCBFEF7A5FA02464F9804F0D8
:101D000001FEC1B2042941F0AF8104F07CFD41F035
:101D1000908104F019FE19E1B6F9681064ADB1F1D3
:101D2000FF3F14DDB6F860004FF6FF7398422ED1E6
:101D3000B6F862209A42249A01BF052086F83C003A
:101D40000020306604BF0131A6F8681020E0B6F824
:101D5000BA0053461B9900904CAA284602F02DFB6E
:101D600004F051FD41F0658104F0EEFD04EA00014C
:101D7000594540F0EB80B6F864000021A6F86810E1
:101D80000028CFD14FF6FF744FF6FF70DEE0249AA3
:101D9000DDE94DB18B4500F0CF80000441F03D817D
:101DA00047980478052C27D1594581F059814C98E2
:101DB00001F1010ACDF838A1A84635461646445C23
:101DC0000120FEF7FBF9042C01F24D81A646159A7D
:101DD000DFE804F01D0303151A0000210020149011
:101DE00040468DF83212ADF83012122106F07EF81E
:101DF0004FF0000E00220AE08A46964623E04FF09C
:101E0000FF324FF0000E02E00420B646149000208E
:101E10002E9985F84400286485F83F00149885F8C9
:101E20003E00BDF8300208809DF83202887085F8C7
:101E30003DE01592AA64389998E86D006DC164ADD3
:101E40004A9E86F83C40DFE814F0120006000600C7
:101E500019002500E808B6F862007446B6F860304C
:101E6000009052A831994CAAFFF73AFB1DE0D345E8
:101E700044D1B6F86210B6F8600020E0B6F862000F
:101E80007446B6F86030009052A849994CAA01F007
:101E90007CF90AE0B6F862007446B6F8603000904B
:101EA00052A82B994CAA01F0C3F99DF848010028CB
:101EB00041F0D380A646BDF84C11BDF84A0100EAB6
:101EC00001034FF6FF741A1B18BF0A46B6F86010DC
:101ED000A34208BF481C81B2012908BF2246A6F8C8
:101EE000622008BF2046A342A6F8600023D100EA82
:101EF00002017246A1427FF44BAF23E0F046DA457F
:101F000006D20AF101004E904C9810F80A4000E009
:101F100000240020DA4538BF0120FEF74FF9601E8B
:101F20003199B0FA80F0C646400908704FF6FF714B
:101F30004FF6FF70C3E772462492B6F8BA00B6F8BF
:101F4000B84003E04FF6FF70CDF890E004F0F2FCEB
:101F500018BF05464A9EB6F8B410B6F8B000B6F8F9
:101F6000B88004F0F5F8DA4508BF08F1010480B242
:101F7000A1B2814208BF5D46A6F8BA5008BF5C46D0
:101F8000A6F8B840DA4540F0CD8004EA050058458F
:101F90004A9E7FF484AEBBE00DF5C8784FF6FF751E
:101FA000DDE94D01884200F0B680F08F0121012863
:101FB00098BF0846B6F96C40B4F1FF3FD8BF084659
:101FC000B6F86E30834281F02880B4F1FF3F5ADDCD
:101FD00042983E9900880988A94208BFA8420BD1BF
:101FE000369804F057FC3E9900202C9AC1F8030063
:101FF0000860611C11800021DDE94D239A425DD00B
:1020000089B2012901F209800AD0002941F0058036
:102010003699002300904CAA404602F06EFA06E082
:102020003299012300904CAA404602F0C6F904F010
:10203000EAFB40F0FE87BDF894214FF6FF76BDF82D
:1020400092113E9D01EA020083B22888B34208BF84
:10205000411C8CB2022C08BF314629804FF6FF7517
:10206000581B5E4618BF1046022C08BF2846429AED
:10207000AB42108022D101EA000292B2AA42BBD147
:1020800004F067FC1EE037982B99008800904CAA5A
:10209000404602F092F904F0B6FB40F0CA8704F023
:1020A00036FCAA420ED12C9800244FF6FF71048012
:1020B0002B98008804F015FC8AD103E0B6F8701064
:1020C000B6F86E0000EA01035A1B18BF0A46F18FEA
:1020D0000126012998BF3146BBF96C40B4F1FF3F9E
:1020E000D8BF3146BBF86E40AB4208BF601C84B21B
:1020F0008C4208BF2A46ABF8702008BF28465E46CF
:10210000AB42ABF86E0006D11040A8427FF448AF56
:1021100004F01FFC03E0B6F8E210B6F8E000DDF8CA
:102120001C8106E04A9EDDF81C81B6F8E210B6F884
:10213000E000ADF81412ADF81202C7E43246B6F969
:10214000F460B6F1FF3F40F39981B2F8EAA04FF690
:10215000FF70B2F8E830834208BF824524D1399835
:1021600004F098FB4A9D04204FF0000A45214FF6E9
:10217000FF7885F8A0003898C5E910AA85F84AA02C
:10218000A5F848A005F0B2FE4FF0FF300023C5F8D7
:102190009C00701C85F898A0C5F894A0A5F89280C2
:1021A000A5F8F400C5F8E8A04A9EDDE94D40844258
:1021B00000F0B082B6F8481001224FF6FF780129EE
:1021C00098BF1146B6F992500522B5F1FF3FC8BF3E
:1021D0000A1D96B29AB2B2424A9E80F04787022AFE
:1021E0000CD0012A47D0002A4ED1CDF800A052A829
:1021F00039994CAA0023FFF773F954E01FFA8AF2C9
:102200003821A1EBC20549991692C2F10802D1E921
:1022100000B34C9E4892002244964E9E46968442BD
:102220004DD0489EB2424AD21E46A04280464B92B2
:1022300006D2449900F10108CDF8188111F800A0E8
:10224000A0424FF0000038BF0120FDF7B7FF05F0B6
:1022500038025FFA8AF0002105F01AFE33464BEA95
:10226000000B499841EA06034B9A083DC0E900B3C8
:1022700001324046D3E7CDF800A052A833994CAACA
:10228000012300F0D5FF0EE00320B5F1FF3FC8BFEA
:10229000881C80B2824251D9CDF800A052A82A9958
:1022A0004CAA00F072FF9DF848014FF6FF75002818
:1022B00040F0DC86BDF84C01BDF84A310CE0469890
:1022C0004FF6FF754A9E4E901698B6F8E8301044C7
:1022D000082804BF2B46284603EA000189B2B1EB67
:1022E000050A18BF8246A942B6F8E80008BF431C99
:1022F000B6F84820012598B2012A98BF2A46B6F9B7
:102300009250B5F1FF3F4FF00505C8BF151DAAB2A9
:1023100090424FF6FF7508BFAA46A6F8EAA008BF8C
:102320002B46A942A6F8E83040F0F48103EA0A00FF
:1023300080B2A8427FF439AF00F039BCB5F1FF3F5D
:1023400059DDB6F84E004FF6FF72B6F84C109142C8
:1023500008BF904208D13898452105F0C7FD681C98
:10236000A6F892000020002164AC4FF6FF75DDE96D
:102370004D239A4255D089B2012900F277860AD0BE
:10238000002940F073863499002300904CAA20461F
:1023900002F07FF806E03799012300904CAA20460E
:1023A000FFF79EF804F02FFA40F06086BDF8942104
:1023B000BDF8921101EA020083B2581B18BF104603
:1023C000B6F84C20AB4208BF511C8AB2022A08BFA3
:1023D0002846A6F84E0008BF2946AB42A6F84C1086
:1023E0001FD101EA000292B2AA42C0D14FF6FF709B
:1023F0004FF6FF7370E7CDF800A064A821994CAAAE
:1024000001F0DBFF04F0FFF940F0308604F07FFAC2
:1024100042450BD04FF6FF75ADF84C11ADF84A01AF
:1024200048E7B6F8EA00B6F8E83055E7B6F84800ED
:1024300000254FF6FF71A6F8925004F052FA7FF48F
:1024400080AFE7E7B6F8FA002B46009064A82D9914
:102450004CAA01F0B2FF04F0D6F940F0D98504F09F
:1024600025FA32D1B6F8E40000244FF6FF71A6F841
:10247000E84004F036FA7FF493AA26E0B2F8FA00B6
:102480002B46009064A83A994CAA01F096FF04F0FC
:10249000BAF940F0BD8504F009FA16D14A9A00262F
:1024A0004FF6FF71B2F8F000A2F8F46004F019FAE8
:1024B0007FF44BAE09E0B6F8FA10B6F8F80004E085
:1024C0004A98B0F8FA10B0F8F800ADF84611ADF837
:1024D0004401BDF84601BDF8448108EA00054FF605
:1024E000FF7BB5EB0B0618BF06464A9CB4F8F80014
:1024F0005D4508BF00F1010845981FFA88FA03F00E
:1025000032FE80B2824508BF5E46A4F8FA6008BF7A
:10251000D846A4F8F8805D454FF6FF7540F08F85EA
:1025200020682646002800F0EC85459CDDF81C81DB
:10253000207805281BD0042839D0032840F09F823A
:10254000429ED8F800803578284603F072FF044692
:10255000284603F07EFF002856D03046214603F07F
:1025600084FF03F087FF0021002200236AE0B6F811
:10257000EA00B6F8E8106840DDF824B16940084385
:1025800080B2002818BF4FF0000B40F076824A99C5
:10259000D1E98004002800F0C480D1F8080201F0DD
:1025A0003BFC4FF400612246FDF7FDFDBDE0B6F8AF
:1025B000E200B6F8E010464668406940084380B241
:1025C000002818BF002640F058824A98B0F8E4402E
:1025D000B0F9E850A54280F09A8530780638C1B24B
:1025E00005294FF0020128BF0846C0B2032800F2B7
:1025F0009785DFE810F0AF0104000400EF01439875
:10260000012180F83012E5E1112C80F04185002095
:102610002146CDE96600CDE96400304603F05AFF5B
:102620000446C1F1100264A80D46102103F057FFC3
:1026300022462B4602F0D6FC64AD33CD0ABA21BA4D
:1026400003BA28BA08FB03F4A0FB0803A8FB022581
:10265000A1FB08165B18724145EB0401B0F1804400
:1026600073F1000472F1000471F100040BD2439C79
:102670004028DDF81C813DD28DF8900152AD64A94F
:1026800001222846ECE100BA8F9018BA8E9010BA59
:102690008D9008BA8C9064AE8CAADDF81C81002065
:1026A000102805D0115C01300029F9D0441E00E04B
:1026B00000242F98202105F082FDC4F10C00C4F104
:1026C000110140F0C0008DF890010120324603F066
:1026D0008AFE112C80F01F858CAAC4F110032244BD
:1026E00002F080FC52AD31462122284605F0D6FB8F
:1026F000439CB7E152ADB0F5804F80F0A1818DF8D9
:102700009101402101EB10208DF89001284664A929
:102710000222A5E1B6F8FA00B6F8F880ADF8460155
:1027200015E12298214601F08DFB0C468CA902464A
:1027300043989BF86050D0F804A025B1012D38D003
:10274000022D40F0ED8464AC0E462E21204605F0AB
:10275000CDFB4FF0FF30032D28BF05460BF1610282
:1027600052A829462346FEF7BFFD529A002A00F0E0
:102770009984439C3046539B04F0B7F8BDF830026F
:10278000002840F08C848D9A4FF6FF752046514604
:102790004B9201F00FFB024625980B4611461A4654
:1027A00001F0D6FF002800F0A8800020C4E9000056
:1027B00062E10E4608464021154605F097FB2A19AE
:1027C0002B4600204FF0000C4FF6FF75CDF818A1F6
:1027D000CDE9052BA0EB0C019342489000F06A83F1
:1027E00013F801BB0CEB0A004491D046CDF858C059
:1027F0004B90079364AD284604F02FF84B983A2687
:10280000804524D208F1400A43984146524601F0DF
:10281000D1FA0022C624402A0CD0914200F019843B
:10282000835C0BEB0323B3FBF6FB0BFB0433AB54D2
:102830000132F0E7439841462A46402301F070FCFC
:10284000064603F0FFFFD046D5D000F0FDBB44980C
:102850008CAA412880F06784489B0026DDF858C088
:102860004FF6FF754FF0C60EB0420AD0915D3A2484
:102870000BEB0121B1FBF4FB0BFB0E119155013663
:10288000F2E7A3F14008BBF1000F2DD0B8EB0C0428
:1028900002D0A3EB0C0419E04698E246489340238B
:1028A0000CEB00014398154601F03AFC064603F094
:1028B000C9FF40F0C983284603F0CFFF489B0AF1C7
:1028C000400C2A464FF6FF754FF0C60E402C80F0A4
:1028D0000D843A2008F10108BBFBF0F0013300FB46
:1028E0000EB183461155CEE71646DDF818A1079BB9
:1028F00008F14000DDE9052B6CE7239800216668AC
:10290000B4F82E4201710160BD496591BD496491E1
:10291000052103F048FC002C00F0538164AD0C202D
:102920000A23002C00F05481072800F08B83B4FBAD
:10293000F3F101EB8102A4EB42020C4642F03002BB
:102940002A540138EDE7B6F8F880B6F8FA00ADF889
:102950004481C2E50DF5C8782E21404605F0C6FA3F
:102960000DF5A47A711C5046FEF71EFE9DF8480135
:10297000002840F0AB830DF5047B1C999DF84901BC
:102980001D224B905846BDF84A6105F087FA1D9804
:1029900059461D2205F082FA4B9800218DF830022D
:1029A0005046ADF831628CAA4346FEF79DFC529921
:1029B000002900F08E83439890F8300240B9539A72
:1029C000259801F0C5FE439980F0010081F830029E
:1029D000DDF81C81601E459CA84243984FF6FF75A8
:1029E0004BD190F83002002847D00F2055908648F0
:1029F000784454900A2053908448784452908448F4
:102A000078446C900220679052A8669000206590F0
:102A1000804878446490804878446D90082069909C
:102A20007E48784468907E4878446E9006206B908B
:102A30007C4878446A9064A8FDF7AEFCE8B93CE3B2
:102A4000010A8DF893018DF89211010C8DF8911106
:102A5000402101EB10608DF89001284664A9042202
:102A600003F09FFC35982946212205F017FA012032
:102A70004FF6FF7584F80C02459C20784A9E002191
:102A80000528C6E9801118D1B6F9F400002800F134
:102A900088803A990988002900F0CE8280B20139F5
:102AA000814240F07E80B6F8E800A84204BFB6F844
:102AB000EA00A84240F07580BEE264ACDFE800F0B6
:102AC000030A12212E003F99002008700121459829
:102AD000017066E00020C6F88800C32086F83C003C
:102AE00002205CE0279803F0D5FE26982146242298
:102AF00005F0D4F90020B06686F84000F0630320AA
:102B00004DE00A202B2186F83C00042086F838008E
:102B10003B9805F0EBF9A6F8E85042E0B6F9E8007A
:102B200000283ED42D99098859B180B201398142DB
:102B300037D1B6F8E000A84204BFB6F8E200A842D8
:102B40002FD1209803F0A6FE2F98452105F037FBE2
:102B50001E982146462205F0A1F91F9852A942224B
:102B600005F09CF90020042186F8A0104FF0FF31F9
:102B7000C6E9100086F8F200A6F8F000C6F8E800F2
:102B800086F89800C6F8940086F84A00A6F848002F
:102B90000520A6F8F450C6F89C10A6F8925086F8C6
:102BA00038000020459CC6F8F800FEF714BEADF8CA
:102BB000445101E0ADF844414FF6FF704FF6FF7805
:102BC0008BE4302048968DF8980164AD012133E004
:102BD000239A0021052904D0505C302802D101310C
:102BE000F8E705216A18C1F105000823CC180D2C5F
:102BF0001AD00D2B00F08082D45CEC540133F5E741
:102C0000757420234F7574701A6300001F630000F1
:102C1000C862000086790000446200000361000081
:102C2000686200003E6200002399052203F092FBD7
:102C3000002800F00782489601F1080228460D217D
:102C4000FEF771FB439C0DF5A47802460B46404607
:102C50002E4603F04AFEBDF84801002840F02582C8
:102C6000B4F82E022121CDF818A15D460130A4F858
:102C70002E02606844903046DDF84CA105F036F92C
:102C80000BF18200314603F0D9FCFEF757FB0246F8
:102C90000B46404603F029FEBDF84801002840F0ED
:102CA0000482B5F808B0DDF84C81BBF1000F6CD0A0
:102CB000E8894FF6FF72A989002650405140084329
:102CC00080B2002808BF05F1100664A840F0198200
:102CD0006168079103F0C1FD52AD0020202815D096
:102CE000315C5722A02938BF302264AB02EB1112AD
:102CF00001F00F0103F8102057220A2938BF3022B3
:102D0000114403EB400201305170E7E7CDF818A001
:102D1000C2460DF5C87828464022414605F0BEF867
:102D20008CA8439C2A46402303F0DFFDBDF8300207
:102D3000002840F0B4818D984E2105906068049081
:102D4000404605F0D3F806F1200041464E2203F03C
:102D5000EDFBFEF7F3FA02460B46284603F0C5FDED
:102D6000BDF84801002840F0BB8107994FF6FF707D
:102D7000439CD04621EA000016905398039088B2F5
:102D8000079064ADDDF818A003E0002016900790CE
:102D900064AD489A284621465346FEF7DBFA649E06
:102DA000002E00F08D81449A284621464346DDF8E6
:102DB00094A1FEF7CFFA2846649D2146002D00F02D
:102DC0008B81469A4B9B659CFEF7C4FADDF8908197
:102DD000B8F1000F00F07781659ABBF1000FD44B7A
:102DE000D4497B44794444D0449146941698079939
:102DF000439C0293CDF820A10DF5C87A059B06925D
:102E000041EA0002504621464B96FEF7A3FA649E23
:102E1000002E00F05581DDE9033250462146DDF8F1
:102E200094B1FEF797FA6498002800F04C816599F8
:102E3000CDE972010C2071900421BF48CDE96E6B81
:102E40007844709008206D90BC484B9A78446C9000
:102E50004698489BCDE96A50029868900698CDE95B
:102E600066800720659044986490042069905046DD
:102E70000DE00420CDE96682CDE968300720CDE978
:102E800064100221CDE96A5464A832465346FEF725
:102E90006FFA064643980021DDF81C81459C4FF6E9
:102EA000FF75C0E90011B0B24EF6017188423FF4DF
:102EB000E4ADDDE030466446FEF731FA0B4604EB44
:102EC0000A01439C0246204601F02AF9064603F017
:102ED000B9FC40F0B98052A803F0BFFC64A803F02D
:102EE000BCFC4898514600EB0A024B92904688453C
:102EF00054D94890A8EB01058C4C412D44917C4459
:102F000050D3439D01F140021692284600F052FF33
:102F10008A46A8F14001834628464246079100F0C0
:102F200049FF402364AA4FF6FF7503B30AEB03027F
:102F3000402A00F0DE809BF800203A2A80F0D380FF
:102F40003D9DCE18402EA25C1D4405F8402C00F09B
:102F5000808002783A2A80F0C6803C9D0BF1010BFC
:102F6000A25C01301D44013B05F8402CDAE7439C8C
:102F700040234499204601F0F3F8DDF81C8052AA62
:102F800020464023414601F0EBF8489816998038D6
:102F9000DDF818A1DDF818B04B9AA8E7DDF81C8120
:102FA000FFF7F4BB4398424600F004FF52AA489B47
:102FB000DDF81C81C1F1000C02EB030E00269B1909
:102FC00012D0B44545D002783A2A80F08C80013B7B
:102FD000402B80F094800EEB0603A25C0130013E92
:102FE00003F8012C489BEAE752A82946FEF797F917
:102FF000439C0B4644990246204601F0B1F84FF637
:10300000FF754B9AFFF7C2BB022003E002250DE0DB
:103010009DF891018DF8430128E0022024E09DF8FD
:10302000915103E00020FDF7C9F801258DF84351C7
:103030001CE09DF8910117E0022086F820044EF66E
:10304000017615E04EF20206439C0020C4E9000020
:103050000EE0084601F064FFFEDE9DF8490103E042
:103060000020FDF7ABF801208DF811024FF4604607
:103070004A98DDE9401200F58070FEF7CBFA03F0C4
:10308000CFFB18BF064630460DF51C7D03F0B3BBE1
:103090004EF20206ECE70020FDF790F8E6E7BDF8F7
:1030A0003262D2E7BDF84C61CEE7BDF84A61CCE7A9
:1030B000489804214E902046CCE746F60466D7E7B0
:1030C000BDF89461C1E7BDF89461BDE7BDF84A6100
:1030D000CEE7BDF84C61CBE7BDF894610C46B4E790
:1030E000BDF84A61B0E710463A21B3E720464021D7
:1030F000B0E750465146ADE705200521AAE718463E
:10310000F5E70F482B21784401F037FEFEDE0D482D
:103110002C217844F8E72046102101F047FEFEDE1E
:10312000FEF7DDF8FEDE4021F7E700BF9A740000ED
:10313000B85C0000DC5D0000875D0000995C000069
:103140007D5E0000825A000080B56F460548494602
:103150004844401A044979440844BDE8804003F0DB
:103160001FBF00BF00100000A6740000F8B504AF38
:10317000009102A803AA034979440B4601F011FE0D
:10318000FEDE00BFEC5B00007047F0B503AF2DE939
:10319000F00D83468C68B868984616460D46B4F123
:1031A000FF3F1EDDD5F800A054450CD203F086FB8E
:1031B00009D03046FDF720F800F00100FCF7FEFFD3
:1031C0000134AC60F0E7544507BF4FF0FF30CBF857
:1031D0000200B868ABF8040018BFABF8028000200A
:1031E00022E00090A7F11E0029463246434601F036
:1031F00061F817F81E0C28B117F81D0C8BF80100A8
:10320000012011E037F81A0C4FF6FF7337F81C1C39
:1032100001EA00029A4202D10024AC60C2E7ABF896
:1032200004000020ABF802108BF8000003F007BB8D
:10323000F0B503AF2DE9000D8CB00D468346D2E901
:1032400001019846D7F808A0884207D10020ABF8C2
:1032500004A0ABF802808BF80000E1E02C78164661
:10326000042C21D13046FCF7C7FF03F041FBE0B24C
:10327000811E022905D320B1012806D040F2011099
:10328000BCE007A8132104F031FE0020142268736B
:10329000C5F80900C5F80500C5F8010005F10E00E4
:1032A00007A904F0FBFD2C70E0B2DFE800F003108A
:1032B0000303A500C7F808A0691C584632464346D8
:1032C0000CB0BDE8000DBDE8F04001F0E2B8CDE97A
:1032D00001A8A81DD6E901A8CDF80CB00490A81C3F
:1032E000CDE90505C24500F08C806C89022C00F206
:1032F0008F8014D0012C26D0002C40F08980A88922
:10330000059970B9F068012247497944FCF782FFBA
:10331000C1B2042940F080800020059901E0A8890D
:103320000499009007A83246234601F046F89DF81C
:103330001C0000286ED14246D6E901A4BDF820B099
:10334000BDF81E8020E0B5F80CB044466888450101
:103350000AE03046FCF750FF00F00100FCF72EFFBA
:103360000BF1010BD6E901A41FFA8BF0A24518BF9F
:103370008542EED842464FF0010885424FF6FF7075
:1033800008BF834608BF8046306851462346FCF795
:1033900059FF0246F06803F0B5FAC1B204293BD1E7
:1033A00008EA0B014FF6FF70081A4FF6FF7318BFBB
:1033B0005846069D99426A8908BF02F101081FFA22
:1033C00088F2032A08BF1846A88108BF9846994288
:1033D000A5F80A8015D11FFA88F19942A0467FF41A
:1033E00081AF80B2A04698427FF47CAF03994FF63C
:1033F000FF704FF6FF7207E040F20120ABF80000CB
:103400000EE00399DDE90120488000208A8006E073
:10341000022001E09DF81D0003994870012008700A
:103420000CB0BDE8000DF0BD8A5A0000F0B503AF46
:103430004DF804BD0D460446D2E90101884201D190
:10344000B8680CE01046FCF7D7FE00F001000E460D
:10345000FCF7B4FE4FF6FF734FF6FF702E70A0809E
:1034600000206380207003F01EBAD4D4F0B503AFFF
:103470002DE9000DA4B08B46044631F8440F1E46DA
:1034800001231C92012898BF1846B1F90420B2F11B
:10349000FF3FD8BF1846B3B2984240F20484D7F831
:1034A00008A0B2F1FF3F40F30084BBF842004FF6A2
:1034B000FF75BBF840301694AB4208BFA8421DD13F
:1034C0000020C2210023CBF824008BF80010511CEF
:1034D0008BF83A00ABF838008BF83600ABF83400C4
:1034E0008BF83200ABF83000ABF83C00CBF827008B
:1034F000ABF82C50CBF84000ABF848100BF114019E
:1035000002910BF1090118910BF1040119910BF1D2
:10351000020104910BF1010117910BF13C0115918E
:103520000BF13D0114910BF1300113910BF13401BA
:1035300012910BF1380111910BF1280103911C99A3
:10354000D1E90112914200F0BD83BBF8282001218E
:103550000624012A98BF0A46BBF92C10B1F1FF3F9F
:10356000C8BF541DA4B29AB2A24280F0B083042A0C
:103570000BD8DFE812F00500110319031E03230323
:1035800000901DA8159900230AE3B1F1FF3F1A939B
:1035900040F352830196BBF82460AE4201BFBBF8F2
:1035A0002600A842C2208BF8000001BF0026CBF8FD
:1035B0002460481CABF82C001C98D0E9010188421B
:1035C00000F05183584602F0ADFDB1B280B28142A5
:1035D00080F07D839BF80050C22D40F04C811C98F8
:1035E00003F0F4F8E8B2D42800F242812A46DFE87A
:1035F00010F0D600C002D500D500D500D500D5000A
:10360000D500D500D500D500D500D500D500D50012
:10361000D500D500D5000A01100124012C01C002FB
:10362000C002D500D500D500D500D500D500D50005
:10363000D500D500D500D500D500D500D500D500E2
:10364000D500D500D500D500D500D500D500D500D2
:10365000D500D500D500D500D500D500D500D500C2
:10366000D500D500D500D500D500D500D500D500B2
:10367000D500D500D500D500D500D500D500D500A2
:10368000D500D500D500270127012701D500D50099
:10369000D500D500D500D500D500D500D500D50082
:1036A000D500D500D500D500D500D500D500D50072
:1036B000D500D500D500D500D500D500D500D50062
:1036C000D500D500D500D500D500D500D500D50052
:1036D000D500D500D500D500D500D500D500D50042
:1036E000D500D500D500D500D500D500D5002F01D7
:1036F000D500D500D500D500D500D500D500D50022
:10370000D500D500D500D500D500D5003F013F013B
:103710003F013F013F013F013F013F013F013F01A9
:103720003F013F013F013F013F013F013F013F0199
:103730003F0163026502670269026B026D026F025C
:10374000710273027502770279027B027D027F02A9
:10375000810283028502870289028B028D028F0219
:10376000910293029502970299029B029D029F0289
:10377000A102A302A502A702A902AB02AD02AF02F9
:10378000B102B302B502B702B902BB02BD02BF0269
:10379000C202C402C602C802CD02CF0242460F983E
:1037A0008BF808001098CBF80400069818998BF84D
:1037B00003000E988BF80200BDF88C0008809DF87D
:1037C0008E0088700798ABF81A000C98ABF81800B8
:1037D00005988BF817000B988BF816000A98ABF831
:1037E00014000998ABF812000898ABF810000D9877
:1037F000CBF80C00DDE920018BF801208BF800509C
:10380000CBE9070138E00021002012258DF88E1049
:1038100004E0002100208DF88E101325ADF88C10E7
:1038200020910790ADF8841000221090CDE90E0091
:10383000CDE90C00CDE9050015E04FF0FF300D900B
:103840000020424610900F90A9E704200E90A5E7B3
:10385000002010904FF0FF300D9000200F904FF699
:10386000FF700C900020CDE90A00CDE9080096E732
:10387000C2258BF800504246E8B21B92A0F112011B
:10388000052912D9A0F1BB0106291BD9002832D085
:10389000012830D04A2803D04B2818BF4C2820D10B
:1038A00002F09FFF00F006FD30E0DFE801F00303C7
:1038B0007176242403F032F8179902F09FFFFDF788
:1038C0000FFE23E04FF6FF764FF6FF70DFE801F0C2
:1038D000132727275504040002F083FF00F02EFA77
:1038E00014E07E2861D08D2805D08E284FF6FF7019
:1038F0004FF6FF7613D1BBF826000090A7F12E00FB
:10390000BBF8243017991C9AFFF790FD17F82E0C7E
:10391000002840F0098237F82A0C37F82C6C06EAA8
:1039200000054FF6FF7AB5EB0A0418BF0446BBF852
:103930002400554508BF461C58461FFA86F802F079
:10394000F1FB80B25946804508BF5446ABF826408B
:1039500008BF5646ABF8246055454FF6FF7540F05A
:10396000918106EA0400D7F808A0A8421B981A9B88
:103970008B4680467FF420AE8EE1BBF82430BBF846
:103980002600002B68D004990090A7F12E00BAE71A
:1039900002F027FFFFF7F9FBB8E702F0BFFF049939
:1039A00002F02CFFFFF744FCB0E7BBF918204FF6FC
:1039B000FF74B2F1FF3F54DDBBF81010BBF81200EA
:1039C000A14208BFA0420CD100204FF0FF31CBE94B
:1039D0000310511CABF8181000218BF80800CBF82D
:1039E00004001C9AD2E901239A4254D0090440F001
:1039F0006E81009020A8199900231C9AFFF7C5FB3F
:103A00009DF88000002840F08181BDF88420BDF839
:103A1000821001EA020083B2181B18BF1046BBF8DF
:103A20001020A34208BF511C8AB2012A08BF2046B9
:103A3000ABF8120008BF2146A342ABF810102AD100
:103A400001EA000292B2A242CBD127F82C4C4FF6E9
:103A5000FF704FF6FF7662E71799002302F0CEFE63
:103A600052E702F05BFF009020A802991C9A00F038
:103A7000A4FC9DF88000002840F05281BDF884101D
:103A8000BDF8820000EA0102A24209D027F82A1CF0
:103A900027F82C0C3FE7BBF82600BBF824603EE774
:103AA000BBF8140000224FF6FF71ABF8182002F0AB
:103AB00018FF7FF481AFE9E78D255AE08E2558E0A5
:103AC0008F256BE6902569E6912567E6922565E6E8
:103AD000932563E6942561E695255FE696255DE6E8
:103AE00097255BE6982559E6992557E69A2555E6E8
:103AF0009B2553E69C2551E69D254FE69E254DE6E8
:103B00009F254BE6A02549E6A12547E6A22545E6E7
:103B1000A32543E6A42541E6A5253FE6A6253DE6E7
:103B2000A7253BE6A82539E6A92537E6AA2535E6E7
:103B3000AB2533E6AC2531E6AD252FE6AE252DE6E7
:103B4000AF252BE6B02529E6B12527E6B22525E6E7
:103B5000B32523E6B42521E6B5251FE6B6251DE6E7
:103B6000B7251BE6B82519E6B92517E6BA2515E6E7
:103B7000BB25002213E6BC2510E6BD250EE6BE25BA
:103B80000CE60020BF2500220E9008E6C02500E0CC
:103B9000C1250020109001E600901DA81499012372
:103BA0001C9AFFF743FC10E000901DA81399022314
:103BB00008E000901DA81299032303E000901DA8BF
:103BC000119904231C9A00F0F8FB9DF8740000285A
:103BD00040F0A380BDF87810BDF8763003EA01020A
:103BE000501B18BF0846AA42BBF8401008BF4B1C28
:103BF000BBF82840012599B2012C98BF2C46BBF98F
:103C00002C50B5F1FF3F4FF00605C8BF651DACB2A3
:103C1000A1424FF6FF7508BF2846ABF8420008BF27
:103C20002B46AA42ABF840304CD199B2A94208BF0A
:103C3000A8427FF484AC61E0009020A803991C9A0C
:103C400000F0BBFB9DF88000002862D1BDF8842005
:103C5000BDF8820000EA0201A94206D0ADF8782042
:103C6000ADF87600B6E7019E13E0BBF8280000210E
:103C70001A9B4FF6FF7202F034FEABF82C107FF463
:103C800089ACEBE7DDF86C808B46019ED7F808A085
:103C90001A9BBBF84210A1E74FF6FF714FF6FF7376
:103CA0008046019E9AE7022041E0CDF800A020A8BE
:103CB0001C9A334600F081FB9DF8800048B19DF8C6
:103CC000810034E0169CA4F804A066801CE0022069
:103CD0002CE0BDF884104FF6FF70BDF8822002EA98
:103CE000010383420ED1BBF844100022ABF84820F8
:103CF00000297FF4DAABA080608005E0169CA580E7
:103D0000658001E0A1806280002012E09DF88100C2
:103D10000CE09DF881008DF875009DF8750005E0B8
:103D20009DF8810007F82D0C17F82D0C169C60707B
:103D30000120207024B0BDE8000DF0BDF0B503AF48
:103D40002DE9F00D16463A89D1F800B04FF0000881
:103D500001901820A0EBC20AC2F10404029303915F
:103D6000009202F0ABFD13D0A04511D2304602F014
:103D70002DFD0AF01800E9B2AAF1080A08F10108BD
:103D800001FA00F04BEA000B0398C0F800B0E8E736
:103D900001990020087000984044042808BF4FF0A3
:103DA000FF308880029808BF4FF0FF30488002F053
:103DB00046BDD4D4B0B502AF0D460168144669B112
:103DC000A54221D2B4F5006F1ED8806800F024F817
:103DD00029462246BDE8B04000F02CB8A5420DD2DD
:103DE000B4F5007F9FBF00F10C02284621464FF436
:103DF00000739CBFBDE8B040FCF70AB904483A2103
:103E0000784400F0BAFFFEDE02483C217844F8E72F
:103E1000954F0000C34F000080B56F464946401AD9
:103E2000034979440844BDE8804003F0B9B800BFB5
:103E3000DA6700000346084611461A464FF400634D
:103E4000FCF7E6B80A464FF40071FCF7ACB9F0B5E0
:103E500003AF4DF8048D82B00446D1E900061D463B
:103E600058B1084611462A46334600F027F802F0BA
:103E7000D7FC1CD17019606017E006EB0508B8F597
:103E8000007F08D8084611462A463346CDF8008000
:103E900000F054F807E0084631462B4600F025F8BC
:103EA00002F0BEFC03D1C4F80480002001E0608071
:103EB0000120208002B05DF8048BF0BDF0B503AFA7
:103EC0004DF804BD0646806815460A461C4619464C
:103ED0002B4600F057F802F0A3FC02BF0121621943
:103EE000C6E900125DF804BBF0BDF0B503AF2DE9E3
:103EF000000D054684680C30984692460E46FFF742
:103F0000A1FF02460B462046002100F03BF881B29B
:103F10004EF60174A1420FD1A8683146524643467D
:103F200000F030F881B2A14201BF012008EB060188
:103F3000C5E900014EF6017002F05DBCF0B503AFBB
:103F40004DF8048DD7F8088006460C3014460D460F
:103F50001946424600F00AF82A46234601F042F884
:103F60000020C6E900085DF8048BF0BD8A4222BF3C
:103F70000844511A704780B56F460846114600F054
:103F800015FFFEDEF0B503AF2DE9000D8AB01C462B
:103F900092460E46FFF740FFA519CDE900A4B5F5FE
:103FA000006F17D8B6F5006F19D8804630445146D7
:103FB000224603F03FF8404631462A46FFF73AFFD3
:103FC00052462346CDE9020101F0E8F868B14EF609
:103FD000017001E04EF202000AB002F00CBC304663
:103FE0004FF4006100F0E2FEFEDE0020694604901E
:103FF00002A804AA00F002F8FEDED4D4F8B504AF9B
:10400000009202A803AA034979440B4600F0C9FEB6
:10401000FEDE00BF7C4D0000F0B503AF2DE9000DC2
:1040200090B000680C460122D0E90085D1E9050175
:10403000CB6835497944984706460120002D4FEA60
:10404000C67153D0CDF8088009B1012649E0D4F8F3
:104050001CA0C0075FEA4A710ED440B9D4E905013B
:104060000222CB682949794498470028EDD102A85B
:10407000214601F013FE33E0D4E9052B50B1DBF803
:104080000C301046224901260192012279449847BA
:10409000019A30BB0120CDE9032B07F83D0CA7F1B5
:1040A0003D0005900DF11C0CCDF838A0194878445E
:1040B0000D9003A80C9094F820008DF83C0094E833
:1040C0004F00ACE84F0002A807A901F0E7FD002867
:1040D000BBD1DDE90C010222CB680F497944984736
:1040E000064608F10108013D0020A7E709B10120BB
:1040F00006E0D4E905010122CB68084979449847D4
:1041000010B002F078BB00BF8A5000004B50000096
:10411000315000009A4E0000DC4F0000C34F0000F9
:10412000DCB504AF0C46016839B111461A46234686
:1041300002B0BDE8D040FFF7C1BE1919B1F5007F4C
:1041400008D8009111461A462346FFF7F7FE4EF6AF
:104150000170DCBD214602B0BDE8D040FFF7C5BE0E
:10416000BCB504AF15461C465A180368A3B1B2F596
:10417000006F1ED880682A462346FFF703FF02F02F
:1041800061FB08BFBCBD1048A7F10A010F4A784483
:104190007A4400F0F7FDFEDEB2F5007F0DD80C305A
:1041A000FFF7E4FE2A46234602B0BDE8B04000F027
:1041B00019BF08482C21784402E005482A21784498
:1041C00000F0DBFDFEDE00BFD34C0000E44B00003E
:1041D0004D4C00007F4C00007047D4D4D0B502AFE6
:1041E0000088A0F56042052A0CD9A0F5DC42042A1B
:1041F00011D8DFE802F003171B1F2300214C062211
:104200007C4435E0DFE802F0031D2125292D224CF6
:1042100010227C442CE0B0F5104F26D1184C02221D
:104220007C4425E0184C06227C4421E0174C0722F0
:104230007C441DE0164C06227C4419E0154C7C445D
:1042400015E0164C0F227C4412E0154C08227C44E9
:104250000EE0144C14227C440AE0134C14227C44DB
:1042600006E0124C17227C4402E0114C7C440D22E3
:10427000D1E90501CB682146BDE8D040184700BF11
:10428000A14C0000C34C0000A14C00009F4C00005A
:104290009E4C00009E4C00001E4A0000A34C0000F3
:1042A00077480000A24C0000AE4C0000BA4C000061
:1042B000CB4C0000F0B503AF2DE9F00D039106469D
:1042C000D2E90101BD68884202D1B58073805FE008
:1042D00093465FEA0548029302D00398047906E00A
:1042E0005846FBF789FF02F003FB03980471204650
:1042F00000F052F8052803D900207070012048E032
:10430000824614F0C000019603D0402818BF8028D0
:1043100012D1B8F1000F13D1A00664F03F0058BFCE
:1043200004F03F00182101EBCA01012501F018013A
:1043300088400399086003E0ADB2012D98BF0125C4
:10434000ACB2E0435044C6000398D0F80080DBE9EB
:104350000101884211D054450FD2584602F036FA76
:1043600006F01800E9B2083E013401FA00F048EA0C
:1043700000080398C0F80080E9E7544508BF4FF0F3
:10438000FF34019E0298B48008BF4FF0FF30708068
:104390000020307002F053BA00F0C001802904BF41
:1043A00004207047402904BF0220704709B901204A
:1043B000704700F03F0005307047F0B503AF2DE9BE
:1043C000F00D0C460546D2E90101D7F80880884275
:1043D00003D1A5F804806B8057E016465FEA0840D9
:1043E00001A919C102D094F802A009E03046FBF7F8
:1043F00003FF00F001008A46FBF7E0FE84F802A00C
:104400005046FFF7C9FF042803D900206870012037
:104410003CE083460198009528B103981FFA88F480
:10442000B0F800A00CE018200AF03F0100EBCB0030
:10443000012400F0180001FA00FA0398A0F800A087
:10444000E04358444FEAC00802F038FA12D05C4505
:1044500010D2304602F0BAF908F01800E9B2A8F11B
:104460000808013401FA00F04AEA000A0398A0F8AB
:1044700000A0E9E75C4508BF4FF0FF34009D0298BB
:10448000AC8008BF4FF0FF3068800020287002F039
:10449000D6B9F0B503AF2DE9F00D02F0E1F9CBF19B
:1044A00020000393019002F009FA10D00BEB0804EE
:1044B000B4F1200009D0304602F088F9202C17D240
:1044C0000AF8085008F10108EDE7DDF804800299C8
:1044D0000020087008EB0B00202808BF4FF0FF30C9
:1044E0008880039808BF4FF0FF30488002F0A7B9DA
:1044F0002046202100F014FDFEDEF0B503AF2DE9CB
:10450000F00D02F0ADF9CBF121000393019002F020
:10451000D5F910D00BEB0804B4F1210009D03046D6
:1045200002F054F9212C17D20AF8085008F10108BA
:10453000EDE7DDF8048002990020087008EB0B001D
:10454000212808BF4FF0FF308880039808BF4FF044
:10455000FF30488002F073B92046212100F0E0FCD2
:10456000FEDEF0B503AF2DE9000DB0B013AE80460E
:104570003046FCF74BFF9DF84C401DAD05F108009F
:1045800041214FF0410A03F0B1FC20462946324652
:104590000123CDF878A08DF8744002F029FD18B100
:1045A000FCF75EFF05460CE0291DBDF876609DF81E
:1045B000744048229DF8755001A803F079FC202C26
:1045C00009D145F06E00C0B2A8F8020013A8FCF7AC
:1045D000E0FF20240CE008F1040001A9482203F0C8
:1045E00067FC13A8FCF7D5FFA8F8026088F8015013
:1045F00088F8004030B0BDE8000DF0BDF0B503AF65
:104600004DF804BD92B0A7F155060D460446701C46
:10461000013102F063F995F84000012161F35F0078
:1046200007F8550C09AD31462846FCF7BDFF9DF84B
:10463000240038B9691C204602F050F912B05DF828
:1046400004BBF0BD0448A7F11201044A78447A443F
:1046500000F098FBFEDE00BF154800003E48000059
:10466000F0B503AF2DE9000DB6B0824618A890460C
:10467000FCF7CCFE1998212801D2032607E0312847
:1046800001D2042603E00926412838BF052622ADC1
:104690004821482402F055F900203494359035A87B
:1046A000202234A9CDE900253246CDE9021018A810
:1046B00040F20161434602F096FC28B14EF201003F
:1046C000AAF80200012014E0A7F1DA0022A9851C53
:1046D0004822284603F0E2FB0AF10400294648225A
:1046E000DDE9344603F0DAFB06F00100CAE91340C5
:1046F0000020AAF8000018A8FCF74BFF36B0BDE870
:10470000000DF0BDD0B502AF86B004462020CDE943
:10471000031001200290A7F109000190002007F882
:10472000090C01A8114601F05BFD08B1616002E0CF
:104730004EF20201A180206006B0D0BD2F2938BF03
:10474000704780B56F4608462E2100F02FFBFEDE35
:10475000B0B502AF0D4602C81446FFF7EFFF2A4678
:104760002346BDE8B04000F019BD80B56F46FEF7A6
:10477000EBFCFBF777FC0078002818BF012080BD18
:10478000C0B2032811D8DFE800F00208060C09487F
:10479000784400F02FB800F05DB80748784400F086
:1047A00029B80648784400F025B880B56F4600F077
:1047B000DFFAFEDE2D00000081000000B9000000DD
:1047C00080B56F468EB002F0AEF808220748079118
:1047D00078440B90022005920990054A02906846A1
:1047E00000917A4402F059F80EB080BDCC4600002A
:1047F0005B430000D0B502AF044602F07BFC0648E4
:10480000784401F0D8FA0548784401F0D4FAA0477A
:10481000BDE8D04002F076BC18490000084900000D
:1048200080B56F468EB002F07EF8072207480791E8
:1048300078440B90022005920990054A0290684640
:1048400000917A4402F029F80EB080BD8C46000039
:104850007346000001487844FFF7CCBF33000000E6
:1048600080B56F4688B0012004218DF81C000691A8
:1048700005490190794405910221039101A8012184
:1048800001F070FA08B080BD1E42000080B56F468E
:104890008EB0FFF76AFF002101228DF8341002214B
:1048A0000D230991079205930C4B029108217B443B
:1048B0000493009200288DF8182018BF07210C914E
:1048C000074808497844794418BF01460B91684667
:1048D000022101F047FA0EB080BD00BFF345000091
:1048E000EA450000AF42000081293EBF0844C1F103
:1048F0008001704780B56F460846802100F056FA67
:10490000FEDEF0B503AF2DE9000D8CB003238DF86A
:104910002C302023079308AC00230BC414690593A3
:10492000002C039300923FD05069116895684FEABC
:10493000401820F07840029101F1040B019003AE81
:10494000B8F1000F54D0DBF800203AB1DDE90801DE
:10495000CB685BF8041C984700285AD1206904F101
:10496000200AA1690790207F0A9104F108018DF8BF
:104970002C00284600F054F8CDE9030128462146D2
:1049800000F04EF8CDE90501616955F8310005EBFD
:10499000C1014A68314690470BF1080BA8F1200885
:1049A00000285446CCD034E010680DF10C08029079
:1049B0000024D2E902604FEAC00A20F06040019072
:1049C000A24515D002982044426832B1029801599C
:1049D000DDE90803DB689847D8B9D6E9000241460B
:1049E00006F10805904708342E460028E8D010E06C
:1049F00000980199406881420DD2DDE9012050F80C
:104A0000321000EBC2004268DDE90803DB6898471A
:104A100008B1012000E000200CB001F0ECBED4D4BD
:104A20000A685AB1012A07D1496800EBC1025268ED
:104A3000064B7B449A4203D000207047081D01E0DA
:104A400050F8310001680120704700BFCF05000019
:104A5000F0B503AF2DE9000D9A4616468846044688
:104A60000025A84509D0DAF81020304621469047A5
:104A700001350028F5D0691E00E04146002041457F
:104A800038BF012001F0B7BEF0B503AF2DE9FF0D2F
:104A9000C4698B46B968064614F001004FF02B0537
:104AA00000EB010A08BF4FF488156007CDE9051334
:104AB000079202D44FF0000B05E00BEB02015846C1
:104AC00000F088F88244306870B3D6F80480D0458E
:104AD0002AD9200742D4A8EB0A013046012201243A
:104AE00000F01AF9B0F5881F2AD0D6E90568824689
:104AF00007980C460090414630462A465B4600F037
:104B0000EAF8E0B9D8F80C303046DDE905219847DD
:104B1000A8B9504621463246434608B0BDE8000DCC
:104B2000BDE8F040FFF794BFD6E905862A4607980E
:104B3000314600905B46404600F0CDF820B101249C
:104B4000204608B001F057BEF3684046DDE9052174
:104B500008B0BDE8000DBDE8F040184730690124F9
:104B60000390302030615B4696F82000D6E905219D
:104B70000290079886F820400090104607922A4637
:104B8000049100F0A8F80028DAD1A8EB0A01304619
:104B9000012200F0C1F8B0F5881FD1D0DDF810A0D7
:104BA0008846079C0546DDE90521DAF80C302046E9
:104BB00098470028C3D12846414622465346FFF76E
:104BC00047FF0028BBD10298002486F820000398F4
:104BD0003061B5E7F0B503AF2DE9F00D091A1029E2
:104BE00062D3C21C22F00302121A8E1AB5085BD0DF
:104BF00000EB020B594600F083F9044626F003004F
:104C0000584406F00301014400F07AF900EB04086F
:104C1000002D5CD06C462B46204659462A46C02DB6
:104C200028BFC02300F058F99DE8060822F00303CE
:104C30002046039D00F050F9DDE900210023DDE965
:104C400002EC02EB8106B24211D0002104290CD003
:104C500052F8210001316FEA000A4FEADA1444EAFF
:104C6000901020F0FE300344F0E71032EBE74FF0F5
:104C7000FF1000EA132123F0FF22BCF1000F1144C2
:104C800001EB014108EB1148C2D04FEA8C02002130
:104C900092B15EF8043B043ADD43ED0945EA931313
:104CA00023F0FE331944F3E7014404B0BDE8000DDE
:104CB000BDE8F04000F024B94FF0FF1000EA1120E9
:104CC00021F0FF21084400EB004008EB104840466B
:104CD00004B001F090BDF0B503AF4DF8048DD7F8E6
:104CE00008801C460D460646B2F5881F06D02B6983
:104CF00030461146984708B101200AE044B1EB68FC
:104D00003046214642465DF8048BBDE8F040184726
:104D100000205DF8048BF0BDF0B503AF2DE9000D68
:104D2000884690F82010DFE801F0100B020908F126
:104D300001024FEA58014FEA520806E0110603D07B
:104D400041464FF0000800E00021D0E904A64C1CC9
:104D50008569013C07D02A693046514690470028B2
:104D6000F7D04FF4881A50464146BDE8000DF0BD1B
:104D700080B56F46FCF7AEFAFEDE80B56F46FFF7F2
:104D8000F7FFFEDE80B56F46FFF7F2FFFEDE80B56F
:104D90006F46FFF7EDFFFEDE80B56F46FFF7F7FFCA
:104DA000FEDE80B56F46FFF7E3FFFEDE80B56F469F
:104DB00000F001F8FEDE80B56F46FFF7D9FFFEDE9A
:104DC00080B56F46FFF7D4FFFEDE80B56F4600F07A
:104DD00001F8FEDE80B56F4616464FF480729846A5
:104DE0000C46054600F05EF840B9A64203D8A0453F
:104DF00098BF464511D9FFF7BBFFFEDE0346A04230
:104E000004D2E85610F1410FEFDC00E0EDD0284667
:104E100021460022FFF7D9FFFEDE2EB1A64203D2C3
:104E2000A85710F1400F00DB46462846214632467F
:104E300000F038F8024638B9A2420CD118482B21AC
:104E40007844FFF79AFFFEDEA24224D2A85610F162
:104E5000410FF1DC20E0A81890F90010B1F1FF3FFC
:104E6000C9DCC9B2E02928BFF029C4D3427801F0D7
:104E700007018378C07802F03F0203F03F0312037A
:104E800000F03F0042EA8312104440EA8140B0F54E
:104E9000881FB0D1D2E7CFD0284621462346B9E7B4
:104EA0004341000080B56F46914210D90346D01EA1
:104EB00038BF0020511C81420BD31A44091A29B172
:104EC00012F90139013913F1400FF8DB01440846AA
:104ED00080BDFFF76BFFFEDED0B502AF9A4221BF67
:104EE000D21A01EB830480E81A00C26028BFD0BD4B
:104EF000024823217844FFF740FFFEDE6C400000AB
:104F000088420BD0091A0246002012F9013B13F126
:104F1000410FC8BF01300139F7D1704700207047F9
:104F200080B56F46FFF724FFFEDED4D4F0B503AFA3
:104F30002DE9000D8CB0294BA7F13F0E8C460024C3
:104F40007B4442F20F7842F2107A4FF0640B4045F6
:104F500016D9B0FBFAF50EEB040105FB1A00043C70
:104F600086B2B6FBFBF606FB1B0033F81620A1F851
:104F7000232080B233F81000A1F825002846E6E788
:104F8000273463280CD981B26425B1FBF5F2023CC9
:104F900002FB150080B233F810002EF8040000E088
:104FA00002460A2A05D2601E02F130010EF80010F6
:104FB00004E033F81210A01E2EF80010C0F12701F3
:104FC000009107490EEB0003604600227944FFF789
:104FD0005BFD0CB0BDE8000DF0BD00BF90530000BC
:104FE000CC530000D0B502AF0C46994201BF114628
:104FF0002246BDE8D04002F051BF20461946FFF7D7
:105000008FFFFEDE0068FEE7D0B502AFC0B200231E
:105010009A4204D0CC5C844203D00133F8E70020EC
:1050200001E001201A461146D0BDD4D4F0B503AF3B
:105030004DF8048DD41F4FF00003844638BF1C4642
:10504000C81C20F00300A0EB010E534878448046B2
:10505000934280F08780CE5C70B2B0F1FF3F17DDE5
:10506000AEEB0300800702D00133F1E70833A3421F
:1050700008D2CD18C8586D68284310F0803FF5D08D
:1050800000E001339342E3D2C8560028F9D5DFE7A8
:10509000454618F80650022D0FD0032D15D0042DCB
:1050A00066D15D1C954261D24D57F02E1AD0F42E78
:1050B0001ED115F1710F25DD5AE0581C904255D2D2
:1050C0000D5615F1410F4BDD52E05D1C95424DD25E
:1050D0004D5DE02E25D06DB2ED2E27D115F1610F7B
:1050E00037DD45E005F17000C0B230280AD33FE05B
:1050F0000F300126C0B202283BD815F1400F4FF007
:1051000001003DDA981C904230D2085610F1410F50
:1051100031DCD81C904229D20D5615F1410F1FDD0C
:105120002CE005F0E000A02813D021E000F11F06DC
:10513000F6B20C2E03D215F1400F0ADB18E020F076
:1051400001000126123014D115F1400F4FF001007B
:1051500016DA981C904209D20D5615F1410F0ADC5F
:10516000431C75E7CCE9011200200FE0002007E0A6
:105170000126012004E00120022601E0012003268F
:10518000F1B240EA0120CCE901300120CCF8000066
:105190005DF8048BF0BD00BF623F000099421CBF68
:1051A00000207047D0B502AF0C461146224602F0EF
:1051B00071FEB0FA80F04009D0BDD4D4F0B503AF91
:1051C0002DE9000D90B04FF0000A0A239046CDE97A
:1051D0000DA201220791CDE90A820A46CDE9051305
:1051E000002401684FF0000B029141688068ADF81F
:1051F0003CA00C93CDF820800191039006A81830B4
:10520000009000200490BBF1000F40F09080A0457A
:105210005AD30598A8EB040B0619BBF1070F07D862
:1052200000218B454DD0705C0A2835D00131F8E75C
:10523000F01C20F00300B04201D100250AE0851BDC
:1052400031465D4528BF5D460A202A46FFF7DCFE51
:10525000012821D0ABF10800854214D8715981F0A2
:105260000A32A2F1013222EA01017219526882F077
:105270000A33A3F1013323EA0202114311F0803F04
:1052800001D10835E8E77119ABEB05020A20FFF7F9
:10529000BBFE012815D129440819441C0994B6D035
:1052A0004445B4D805990123009A08440121FFF729
:1052B00075FF0028ABD04FF0000B264625460D9415
:1052C0000FE0CDF824804446049880BB01210120E2
:1052D000049056468DF83D10C2454FF0010B4546EF
:1052E00025D00398007838B101980422C368124988
:1052F000029879449847C0B90598B5EB0A0200EBCB
:105300000A0101D1002006E0501810F8010C0A38FB
:10531000B0FA80F04009039B18700198C3680298A6
:1053200098470028B2463FF46EAF012000E000200D
:1053300010B001F060BA00BFA4370000F0B503AFB1
:105340004DF8048D84688846D0E90056207850B125
:10535000F36828460B4904227944984718B1012084
:105360005DF8048BF0BDA8F10A004146B0FA80F068
:1053700040092070284632695DF8048BBDE8F04092
:10538000104700BF3E370000D0B502AF0446007999
:10539000617911B128B1012015E0002818BF012062
:1053A000D0BD2068017F490706D4D0E9050102225B
:1053B000CB680649794405E0D0E905010122CB68B4
:1053C0000349794498472071D0BD00BF073D0000D4
:1053D000F83C00000A4602497944FFF792BA00BF40
:1053E000E83C0000D0B502AF044600F023FD08B948
:1053F00000F02AFD00F01EFD28B32046042100F035
:1054000015FD20780528F5D1E178207940EA510290
:105410004908227118B169B1032909D013E00329A1
:1054200011D80020DFE801F0020E110420710AE01B
:105430000220D0BD00210428217104D20449C000FB
:1054400021FA00F0D0BD0620D0BD0120D0BD00BFA4
:1054500006030405F0B503AF2DE9C00D0446007D39
:10546000DFE800F0020B1B2A2046032100F0F9FBC5
:105470002069002853D02F4909E0D4E900012322F4
:10548000012300F06DFB2069002848D028490090D6
:105490006846019100F08FFC41E0D4E90001072249
:1054A000012300F05DFBD4E902844FF0150A1125B9
:1054B0004FF0000B00222AE020460121BDE80C0D30
:1054C000BDE8F04000F0CDBB02F111062346A64234
:1054D00038BF33469A4225D822B118F9021011F18B
:1054E000400F1FDBB44204D918F9031011F1410F2A
:1054F00018DD00EB0B0108EB02005246002300F020
:105500002FFBABF1110B11350AF10E0A3246AC42FA
:10551000284638BF2046332A18BF9442D4D8BDE865
:105520000C0DF0BD40462146FFF74FFCFEDE00BFEC
:105530003900110039000A00F0B503AF2DE9000D64
:10554000D2B08B46804601F0D5FD36A9A04E002092
:1055500001227E4402230024702C07D00D190A5129
:105560001C342876C5E90460AB60F5E706A836A9C7
:10557000702202F09DFCD8E900100024D0F800A0B1
:105580000190CDF80CB00AFB0BF0D1E902B5CDF8D3
:10559000088004910596BAF1000F44D0C0B11121E2
:1055A000A0FB010100293ED1A8423CD200F111012B
:1055B0005A468D422B46884638BFA846814238BF9E
:1055C000A8464146FAF724FD68B302460B4607E0B9
:1055D0004DB34FF01108112D38BFA8465A46434627
:1055E0002AA811461A46FFF721FD542C00F0EB8043
:1055F0002AABC344A5EB0805AAF1010A0ECB06A805
:105600000619002086F83400002918BF03460599C2
:1056100018BF0A46022171620121C6E90B231C341E
:10562000F161059EB7E722A81521202202F0C5FDF1
:10563000039ADDF8108092B90199D8F80C00096836
:1056400001EB011181420AD9D8F8041022AA0020E6
:1056500000F0CAF8D8E90023FFF7C4FC54E0B246D2
:1056600000268DF8A260501CADF8A0608DF8A660F1
:10567000ADF8A46028A900F059FC044602980D4634
:105680008068006829A900F051FC01223592514B35
:10569000CDE931207B44CDE933134F48CDE92E4588
:1056A0007844309002202D904C4878442C90D8E9D2
:1056B0000001CDE92A0100200DF1A808062E22D014
:1056C00008EBC601C0F115054C68AC4238BF254651
:1056D000CDB105EB000A22AA514600F085F858F832
:1056E000362083460491002029462346FAF790FC91
:1056F0000B46049902465846FFF774FC50460136A3
:10570000DDF814A0D8E756462AA822A91522FFF7EB
:105710008DFCDDE92A022C99002814BF00211646D1
:10572000B1B373180846194611F8014D62B2B2F1CF
:10573000FF3F29DC194611F8025D6CB214F1400FED
:1057400011DA1946B44611F8035D6EB216F1400F36
:105750000CDA13F8045D06F03F0105F0070541EA95
:105760008515194604E005F01F0306E005F00F0556
:1057700004F03F03664643EA851302F03F0242EA23
:105780008314B4F5881F03D0891B202CC8D000E0F7
:1057900000200121CDE90A6002208DF83010089028
:1057A00006910F48784400F006FB0E48784400F05C
:1057B00002FB06A8042100F0D5FA01F0A3FC52B0C8
:1057C000BDE8000DF0BD04200421FFF7A9FBFEDEBB
:1057D000464E00008F3A0000823A0000763A000000
:1057E000743900006439000080B56F46814207D3E8
:1057F00015299FBF0244091A104680BD084615218D
:10580000FFF7D4FAFEDEE0B502AF00904030019021
:10581000684600F0C6FA8CBDF0B503AF4DF804BD84
:10582000A2B0044600F006FB08B900F00DFB01AD84
:10583000802101F086F800F0FDFA38B32846802177
:1058400000F0F4FA9DF80400BDF8056000F06AF875
:10585000C0B20F2811D016280AD01028EBD130BAC8
:10586000000C0228E7D92046294600F091F8E2E72B
:105870002046294600F064F8DDE7B0B2B0F5807F3D
:10588000D9D19DF8070000F0BDF8D4E71B4D19F8F9
:10589000050007281ED00A2823D1B4F80801532197
:1058A00007F8131C00BA010E000C07F8120CA7F140
:1058B000130007F8111C032101F0ECFBD4F80811C8
:1058C000002022464FF4827300F01CF889B201F0E8
:1058D000E1FB06E0B4F8081122460948784401F0DB
:1058E0003BFB09EB0501002009F80500C4E9410074
:1058F0008871488022B000F0D6BF00BF04200000AD
:10590000D113000080B56F46814207D399429FBFF3
:105910000244091A104680BD08461946FFF746FAA8
:10592000FEDED4D40138C1B2172984BFFF207047EE
:10593000024940B27944085C704700BFCE4A00007B
:10594000B0B502AF044611480A4619F8001001B17B
:10595000B0BD0A217D2509F8001048440621817157
:10596000B2F8011009BA0B0C7D2B38BF0D0CE91CE5
:10597000458003208023FFF7C5FF02460B462046E3
:105980002946BDE8B040FFF72DBB00BF0420000052
:10599000DCB504AF0A79012A1AD0CB78022A03F0C9
:1059A0007F041CD0042A28D1062C26D2134A00904A
:1059B0004A44134822444B79484413734FF482728B
:1059C000ADF804208A1D6B46214601F063FCDCBD66
:1059D0000B4806314844BDE8DC4001F030BC062CE1
:1059E0000BD206480022484400EB440042828A1D44
:1059F00003482146484401F09AFCDCBD0420000025
:105A000078200000D0B502AFFFF78CFFC0B201389C
:105A1000072814D8DFE800F00414131A1313132016
:105A20001348012109EB0004204601F003FD204644
:105A300001F0E7FC0F4809EB0001897991B1D0BD75
:105A40000B484844BDE8D04001F0FBBC084848443E
:105A5000BDE8D04001F0F1BC05484844BDE8D04065
:105A600001F0EDBC484412210C3002F03FFAD0BDE9
:105A70007820000004200000D1F80431042B05D167
:105A80000C4A00217A44C0E9002170470A7912B11A
:105A9000052300F034B8052BF2D0062B05D10021E8
:105AA000016046F6036181807047B1F80520072345
:105AB00000F025B81449000080B56F46D0F80821E1
:105AC0009308402B9FBF0B0A8354D0F80821013262
:105AD00098BFB2F5827F3FBF8154D0F808110231E0
