:02000004C0DE5C
:1000000080B56F4606F034FD012005F0E9FFFEDE05
:1000100080B56F46C6B000204FF489718DF8170186
:1000200001AC204607F01CFF20464FF4604105F06C
:10003000DDFD002005F0D4FFFEDED4D480B56F4690
:10004000054849464844401A044979440844BDE8F3
:10005000804006F05FBF00BF00000000B2A50000B6
:10006000F0B503AF2DE9000D9AB002AD8846044605
:100070004021284607F0F4FE12AE20214FF0200A5E
:10008000304607F0EDFE2120414605222B46009622
:10009000212606F093FF04F10800294606F0D6FB5E
:1000A000284605F047FCC4F804A026701AB0BDE845
:1000B000000DF0BDF0B503AF4DF804BD00780E465D
:1000C0000F4905247944DFE800F01203070B0F0005
:1000D0000C490C2479440AE00B490B24794406E0CE
:1000E0000A490B24794402E0094904247944D3687D
:1000F000304622465DF804BBBDE8F040184700BF1B
:10010000688900005D890000618900006489000041
:100110006B89000080B56F468EB006F0D1FB0722D8
:100120000748079178440B90022005920990054AF0
:100130000290684600917A4406F082FB0EB080BDC2
:10014000458A00002C8A000080B56F468EB000F012
:1001500025FD002101228DF8341002210D23099183
:10016000079205930C4B029108217B440493009263
:1001700000288DF8182018BF07210C91074808495E
:100180007844794418BF01460B916846022105F076
:10019000A3FE0EB080BD00BFE4890000DB89000033
:1001A000AF89000080B56F4688B0012004218DF82A
:1001B0001C000691054901907944059102210391A3
:1001C00001A8012105F088FE08B080BDA7880000C5
:1001D00080B56F468EB006F073FB08220748079182
:1001E00078440B90022005920990054A02906846D7
:1001F00000917A4406F024FB0EB080BD69890000AE
:100200000789000070477047027801212B2A16D019
:100210002D2A4FF0010217D0D0B502AF00230021E4
:100220005A1E18BF0122012B0CD0C45C303C092C93
:1002300007D801EB8101013304EB4101F0E7012212
:1002400002E00121BDE8D0401046704700B1704780
:1002500080B56F4602482B21784404F099FDFEDEFC
:100260009F8C000008B908467047E0B502AF04480B
:10027000791E044A78447A4404F08FFDFEDE00BF04
:1002800020A1000086870000F8B504AF009202A804
:1002900003AA034979440B4604F08EFDFEDE00BF3D
:1002A00078870000F8B504AF009102A803AA0349BB
:1002B00079440B4604F080FDFEDE00BF6C87000031
:1002C000014600F17F021020222A15D8DFE802F053
:1002D000121E20222426282A2C2E30321D1D1D1DE0
:1002E0001D1D1D1D1D1D1D1D1D1D1D1D1D1D1D1D3E
:1002F0001D3436000120704711F1BF0204BF0D20EC
:100300007047DF3104BF00207047704702207047FC
:10031000032070470420704705207047062070476F
:100320000720704708207047092070470A2070474F
:100330000B2070470C2070470E2070470F2070472D
:1003400000F0C001802904BF04207047402904BF89
:100350000220704709B90120704700F03F000530C6
:100360007047D4D4F0B503AF2DE9FC0D8246D1E936
:100370000560C4680D4631490D2230467944A047D6
:1003800000284FF001084FF00100009544D1287F6C
:1003900040071BD42A49304603227944A047D0BBEA
:1003A000D5E905010422CB6826497944984790BBDA
:1003B000D5E905010222CB6823497944984750BB0F
:1003C000D5E905125046FFF775FE25E01F49304676
:1003D00003227944A04701460120E9B9D5E9051275
:1003E00002ACA7F1190307F8190C0EC402A80422E5
:1003F0001749794404F0F2FE68B902A815490222AF
:10040000794404F0EBFE30B902A9134A50467A440D
:10041000FFF750FE58B101208DF8040068468DF8B2
:10042000058004F0BDFF06B0BDE8000DF0BD02A8D8
:100430000A490222794404F0D1FEEDE7F786000074
:10044000888C0000B18600006D8C0000578C000085
:1004500069860000278C0000AE8A0000F88B00003F
:10046000F0B503AF2DE9F00D03910646107B5168FE
:10047000BD68814202D1B58073805FE093465FEA38
:100480000548029302D00398047904E0584606F028
:100490004FF9039804712046FFF752FF052803D94E
:1004A0000020707001204AE0824614F0C0000196DE
:1004B00003D0402818BF802812D1B8F1000F13D103
:1004C000A00664F03F0058BF04F03F00182101EB84
:1004D000CA01012501F0180188400399086003E072
:1004E000ADB2012D98BF0125ACB2E0435044C60027
:1004F0000398D0F800809BF80C00DBF804108142D0
:1005000011D054450FD2584606F034F906F01800C1
:10051000E9B2083E013401FA00F048EA0008039805
:10052000C0F80080E7E7544508BF4FF0FF34019E54
:100530000298B48008BF4FF0FF3070800020307008
:1005400006F030B9F0B503AF2DE9F00D0C460546C5
:10055000107B5168D7F80880814203D1A5F8048048
:100560006B8057E016465FEA084001A919C102D026
:1005700094F802A009E0304603F0BFFB00F0010050
:100580008A46FFF763FE84F802A05046FFF7D8FEC4
:10059000042803D90020687001203CE083460198BC
:1005A000009528B103981FFA88F4B0F800A00CE079
:1005B00018200AF03F0100EBCB00012400F01800E6
:1005C00001FA00FA0398A0F800A0E04358444FEA6B
:1005D000C00806F03EF912D05C4510D2304606F055
:1005E000C9F808F01800E9B2A8F10808013401FAC6
:1005F00000F04AEA000A0398A0F800A0E9E75C4589
:1006000008BF4FF0FF34009D0298AC8008BF4FF048
:10061000FF3068800020287006F0C4B8F0B503AF42
:100620004DF804BD0D460446107B5168814201D14E
:10063000B8680CE0104603F060FB00F001000E46C5
:10064000FFF704FE4FF6FF734FF6FF702E70A08089
:100650000020638020705DF804BBF0BDF0B503AFEF
:100660002DE9F00D8B461646117B5268BD688A4213
:1006700039D02904CDE9013003D09BF80040ADB258
:1006800005E0304606F054F88BF80040012520467E
:10069000FFF756FE04464FF0000A401B00900395FA
:1006A00006F0D7F813D0AC420FD0304603F025FB4C
:1006B00000F001008846FFF7C9FD212D19D20BF883
:1006C000058001350AF1010AEAE7DDF800A0039888
:1006D0000AEB0005A54211BFDDE901304FF6FF73BB
:1006E0004FF6FF750298002185804380017006F067
:1006F00059B82846212104F025FCFEDE0278014687
:100700000120C32A0AD0B1F84420012A98BF02462A
:10071000B1F94810B1F1FF3FC8BF10467047F0B5BE
:1007200003AF2DE9F00DB7F808B016464FF00008FA
:10073000029001EB0B0ACBF121000393019006F02C
:1007400088F810D00BEB0804B4F1210009D0304632
:1007500006F010F8212C17D20AF8085008F1010809
:10076000EDE7DDF8048002990020087008EB0B002B
:10077000212808BF4FF0FF308880039808BF4FF052
:10078000FF30488006F00EB82046212104F0DAFB45
:10079000FEDEF0B503AF2DE9F00D83468C68B86836
:1007A000984616460D46B4F1FF3F1EDDD5F800A071
:1007B00054450CD206F04DF809D0304603F09DFAAE
:1007C00000F00100FFF742FD0134AC60F0E7544552
:1007D00007BF4FF0FF30CBF80200B868ABF8040059
:1007E00018BFABF80280002022E00090A7F11E00A5
:1007F000294632464346FFF733FE17F81E0C28B150
:1008000017F81D0C8BF80100012011E037F81A0CC5
:100810004FF6FF7337F81C1C01EA00029A4202D11E
:100820000024AC60C2E7ABF804000020ABF8021073
:100830008BF8000005F0B6BFF0B503AF2DE9000D51
:100840008CB00D468346107B98465168D7F808A0B7
:10085000814207D10020ABF804A0ABF802808BF8EE
:100860000000E6E02C781646042C1FD1304605F037
:100870005FFFE0B2811E022905D320B1012806D016
:1008800040F20110C3E007A8132107F0E9FA0020A5
:1008900014226873C5F80900C5F80500C5F8010001
:1008A00005F10E0007A907F0B3FA2C70E0B2DFE8FB
:1008B00000F003100303AC00C7F808A0691C5846F9
:1008C000324643460CB0BDE8000DBDE8F04003F0F1
:1008D00021BACDE901A8A81D96F80C80D6F804A08D
:1008E000CDF80CB00490A81CCDE905055FFA88F09E
:1008F000824500F08F806C89022C00F2928014D027
:10090000012C27D0002C40F08C80A889059970B963
:10091000B06801224949794403F0CEF8C0B20428F6
:1009200040F08A800020059901E0A8890499009090
:1009300007A832462346FFF705FE9DF81C00002855
:1009400071D14246D6F804A0347BBDF820B0BDF882
:100950001E8022E0B5F80CB04446688845010BE0E3
:10096000304603F0CAF900F00100FFF76FFC0BF10D
:10097000010B347BD6F804A0E1B21FFA8BF08A4554
:1009800018BF8542ECD842464FF0010885424FF629
:10099000FF7008BF834608BF804630685146234633
:1009A00003F09FF90246B06805F06CFFC1B204295C
:1009B0003BD108EA0B014FF6FF70081A4FF6FF73A0
:1009C00018BF5846069D99426A8908BF02F101087E
:1009D0001FFA88F2032A08BF1846A88108BF984664
:1009E0009942A5F80A8015D11FFA88F19942A046CC
:1009F0007FF47CAF80B2A04698427FF477AF039932
:100A00004FF6FF704FF6FF7207E040F20120ABF89F
:100A100000000EE00399DDE90120488000208A8073
:100A200006E0022001E09DF81D00039948700120B6
:100A300008700CB005F0EDBE0320F6E76A810000F7
:100A4000E0B502AF00F1280108300090684601913E
:100A500005F066FA8CBDF0B503AF2DE9F00D164632
:100A60003A89D1F800B04FF0000801901820A0EBAF
:100A7000C20AC2F1040402930391009205F0E9FE58
:100A800013D0A04511D2304605F074FE0AF01800CC
:100A9000E9B2AAF1080A08F1010801FA00F04BEAEC
:100AA000000B0398C0F800B0E8E701990020087037
:100AB00000984044042808BF4FF0FF308880029817
:100AC00008BF4FF0FF30488005F06CBEB0B502AFF4
:100AD000C0B06D46044628464FF4807107F02BFBEA
:100AE00028464FF4807106F033FA204629464FF429
:100AF000807207F09BF940B0B0BDF0B503AF4DF880
:100B0000048DC0B06C468046204615460E46FFF761
:100B1000DDFF204631462A4600F012F805F057FE68
:100B200004D16946404600F019F804E00121A8F814
:100B3000020088F8001040B05DF8048BF0BDD4D4FA
:100B400080B56F4606F018FA0349002808BF01F582
:100B50007061084680BD00BF01E0FFFFF0B503AF44
:100B60004DF804BD88B06E460D460446304620213F
:100B700007F076F92846314606F0F9F920B14EF231
:100B800001006080012004E0601C694605F05EFE03
:100B90000020207008B05DF804BBF0BD80B56F4642
:100BA000FFF74CFA02F0E1FE007805F081BED4D4E4
:100BB000D0B502AF044606F057FA0648784405F06F
:100BC000B9F90548784405F0B5F9A047BDE8D0402B
:100BD00006F052BA388500002885000001487844A4
:100BE000FFF7E6BF67F5FFFFC0B2032811D8DFE8C3
:100BF00000F00208060C09487844FFF7D9BFFFF758
:100C0000EDBF07487844FFF7D3BF06487844FFF7A5
:100C1000CFBF80B56F4604F0B6F8FEDED5F5FFFF16
:100C20000DF5FFFF95F5FFFF80B56F46ADF6B80DEA
:100C30004FF0000B4FF489718DF85FB113AC204673
:100C400007F00EF958AD142105F57570099007F0FD
:100C500007F905F1C800CDF820B2ADF860B10790F2
:100C6000FFF734FF05F5EA704FF4007107F0F8F86C
:100C7000DFF830084FF400718DF848B54844CC9047
:100C80000DF25450CDE9CABB0C3007F0E9F8DFF89B
:100C90001808ADF860B74844CDF85C050020CDF8E1
:100CA00058B5CDF854B5FFF79FFF0DF5ED66A7F1E8
:100CB0007408301D0E9008F108000B9008F1040034
:100CC0000D90B01C0590A7F12800DFF8E0A70330D5
:100CD000069006F1080008900020129017E005F039
:100CE00067F908B905F06AF93046802105F05CF92A
:100CF0009DF86817A1F10E0008281ED8BDF86917E5
:100D0000DFE800F005122E3B3B3B3B3B3700304613
:100D1000802107F0A5F809EB0A0009F80AB080F86D
:100D200006B0A0F802B0DAE788B2B0F5807F04BF61
:100D30009DF86B0704F000FF1FE005291DD19DF809
:100D40006B179DF85C0140EA5102490800288DF8B4
:100D50005C216FD0002900F0828003290DD161E170
:100D600008BA000C022808D92046314604F0AAFE31
:100D700003E02046314604F07DFE19F80A00002801
:100D8000ADD009EB0A0040880028A8D004288DF8CF
:100D90005FB1549005D2204646F6036104F026FF69
:100DA0009DE74046214604F001FF57F8740C50B30C
:100DB0009DF84C00B02804BF9DF84E10002928D0A3
:100DC0009DF85D1119B19DF85E11884253D1139DB4
:100DD000C5F30720002800F08B80022818BF0128E7
:100DE00000F086805598810840299FBF6E212154CC
:100DF0005598013098BFB0F5827F80F04383012180
:100E000005F0F8FC6BE737F8701C204604F0EEFEA6
:100E100065E79DF84F100029D2D19DF84D000128BB
:100E20002FD0A72800F03183204646F6016104F058
:100E3000DDFE54E70329A0D80FF20C05022005EBD4
:100E4000810501220023AF4600F006B800F0EDB89E
:100E500000F0EEB800F0EFB88DF85CB18DE7012836
:100E60008DF85CB100F0E080022800F0E0800328FB
:100E70007FF483AFDEE020464FF4DC4104F0B6FEA1
:100E80002DE7559A01208DF84C00501C5590901C70
:100E9000B0F5827F80F0F6822118C2F581720120C0
:100EA00006F09CF801465598B0F5827F3FBF21546B
:100EB00055980844421C3EBF55920230B0F5827FDF
:100EC00080F0E082211840F20310821A022006F01E
:100ED00085F801465598B0F5827F80F0D382215481
:100EE0005598084401305590204604F09EFEF6E6E1
:100EF0005498A0B3A7F1D000142106F0B1FFE8B2D6
:100F000080282ED1280AC0B2002842D001286FD1F3
:100F10003046214604F04AFEDDF8680700287ED0FE
:100F2000DDF86C17A7F1D00205F0B6FA002800F042
:100F3000A9809DF84F3000209DF84E20032B88BFDC
:100F40000120111F18BF01210F921A430C9300F0CA
:100F5000EB80084300F0E88046F6026503E0E049D4
:100F600003E04FF4DC452804411C55988208402AD0
:100F70009FBF0A0E22545598013098BFB0F5827F6A
:100F800080F08082090C05F035FC1298FFF72CFEEA
:100F9000BDE6D4487844FFF737F900F0010010911E
:100FA0001190D14D7D44A847D0487844FFF72CF9E3
:100FB00000F001000F91A8472A46DDE910502946AC
:100FC00090470F9920468DF86917314603228DF816
:100FD0006A578DF8685704F045FE0025204604F056
:100FE00024FE280AD1D000201290FFF7FDFDCCE7A7
:100FF0003046214604F0DAFDDDF8681779B19DF836
:101000004805DDF86C2700283FD0012840F0868095
:101010009DF84E0001285AD046F6026580E0BDF8E2
:101020006C57A0E7022006E00323184603E00422E1
:10103000104600E0052005283FF669AEDFE800F025
:101040000409030E111962E6A948784404F0A4FFCC
:101050005DE6A848784404F09FFF58E612980138EE
:1010600001E01298013000F003001290FFF7BCFD80
:101070004DE61298C0B2022800F0D78103287FF411
:1010800046AE05E246F603656DE746F60365172AA8
:1010900046D39DF84E00002842D111920846099A85
:1010A0000D46142105F0F8F9002800F08C8001208D
:1010B0008DF84805A87D012804D1FFF76FFD0028B1
:1010C00000F01A81119805F11401A0F1140258A83A
:1010D0000DF2545300F0C2FF054680B24EF6017186
:1010E00088421DD19DF8480502287FF476AF079904
:1010F0003046FFF733FD9DF86807002800F09F8019
:10110000BDF86A071190012558A800F091FF002D45
:1011100000F0E280119845EA004126E74FF46F4560
:1011200058A800F085FF1EE70F98002842D005F070
:10113000A1FB9DF86807202842D09DF86917482236
:1011400010911190DDE90D01BDF86A5706F06AFEB5
:101150000B99119807F8740C30460A9527F8725CC1
:10116000109D07F8735C00F0C3FEA7F1BC000023DC
:1011700041F20551202B05D0F25C01EB4111013306
:101180001144F7E741F001010F9B0ABA110C81EA03
:10119000122181EA12615140CAB2B2FBF3F101FBA4
:1011A00013210C9A914211D057F8C00C013047F826
:1011B000C00CBCE705F05EFB9DF8680720280DD148
:1011C000BDF86A57CFE6BA48851CA9E70D9905F026
:1011D0004EFB1198202815D10A9DC4E61190482293
:1011E000BDF86A070A909DF869070E991090A7F15B
:1011F000BC000D4606F016FE57F8C01C2846109D90
:101200000F9103E057F8C00C0F900E98A7F1BC01A6
:1012100005F02DFB0A9841220899ADF86A0711984C
:101220008DF8680720468DF8695704F01BFD0F986C
:101230004146042200BA47F8740C2046CBE60E99CA
:101240001D229DF8690711904046BDF86A5706F0C7
:10125000DFFD069841461D2206F0DAFD1198A7F140
:10126000280107F8280C304627F8275C00F08BFD92
:101270004046314600F0B6FD30464146402200F07F
:101280003BFADDF86807002800F08780DDF86C176E
:101290000523CDF870070520CDF874170121CDF88E
:1012A0006C073046884A4EF201057A44CDF868272B
:1012B00000F016F905F5706182B289B28A427FF4B6
:1012C00021AF0999A7F1BC00FEF7CAFE57F8B80C88
:1012D000212865D203256BE04FF480757EE600BFC0
:1012E0000100036EDA7B0000BDF2FFFFC57B00004A
:1012F0001A8000002C80000005F0B6FE00250221B7
:1013000047F8BC5C07F8B85C47F8281C8DF8805794
:10131000CDF87C576748CDF870177844CDF878073A
:101320000120CDF86807A7F1280047E91B601D20C0
:1013300047F8700C6048784447F8740C40462946DA
:1013400004F00EF9A7F1BC0004F058F8C1B2062968
:10135000F8D00529F6D859487844DFE801F00604AA
:1013600003090F1AEEE75648784404F015FEE9E742
:1013700004F0FAFD013D38BF5D46DFE7514878448F
:1013800004F0F2FD57F8281C681C884238BF054657
:10139000D4E74EF20100C51CC2E6BDF86C07B1E609
:1013A000312801D2042503E00925412838BF05254D
:1013B0004046482106F054FD4820A7F1280347E99C
:1013C000020B2020CDE90008A7F108000290381F89
:1013D0000390A7F1BC0040F201612A4605F0BDFD73
:1013E00030B1A7F1BC00FFF72BFB4EF2010089E6FC
:1013F00005984146482206F00BFD059940464822D3
:1014000057F8085C06F004FDA7F1BC00FFF718FBD5
:101410003046414605F02BFA492D3DD22046314653
:101420002A4604F01FFC00256EE6FEF707FE05467F
:1014300002F09BFA0078254A254900287A4428467C
:101440007944119118BF0A46129515F8801F00784B
:10145000109202F059FA0F9000282846129918BFEE
:101460000846109902F060FA0F980028129808BFF9
:1014700005461199284602F075FAFFF7AFFB0220E6
:10148000FFF72BBC05F0D4F9FEDE13A804F0CDFB6A
:10149000002004F0A5FDFEDE2846482103F091FC63
:1014A000FEDE00BF000A0000000200000420000071
:1014B00001E0FFFF36910000F27900000C7D000092
:1014C000187D0000027D0000CA790000447600000B
:1014D0000579000080B56F46FEF79AFDFEDED4D494
:1014E000F0B503AF2DE9000D9EB082467848CDE9F6
:1014F000072300257844099007200C46069075487C
:101500008DF828507844059005F0AEFD11958DF8C2
:10151000485005A803F0AAFF05F0AEFD11AD28461E
:1015200003F06CFFC0B20628F9D003380228F6D8C1
:1015300005F0A2FD68484FF0000BCDF838B0072148
:1015400078440F9065484FF000080C9178440D9056
:10155000634979440B9101218DF84010614ACDE92E
:10156000130B06207A44159212905F488DF858109C
:1015700078441190601E38BF58460290601C049059
:10158000013838BF58460390042001901BAD17AEB8
:10159000A04513D105F046F911A803F067FF05F047
:1015A0006BFD284603F02AFFC0B20628F9D00328B5
:1015B0001BD004281CD00528F3D17FE00498804577
:1015C00019D105F02FF90BA803F050FF05F054FDD9
:1015D000284603F013FFC0B20628F9D005286AD0C8
:1015E0000328F5D1DDF80C80D2E7DDF80880CFE7DD
:1015F000DDF81080CCE7A04565D203203322199096
:101600000AEB0810CDF800A0C168CDF85CB0B1FBC2
:10161000F2FA8DF860B00AF101011A911AA91D9130
:1016200019A9CDE91B010198C0B2032818BFDA46F9
:101630002846514604F008F8304603F0DFFEC1B2F8
:101640000629F9D00429F7D828487844DFE801F0C2
:10165000060403091100EFE72548784404F09CFCD8
:10166000EAE704F081FCBAF1000F0ED0AAF1010AFA
:10167000DEE72048784404F077FC1A990AF101006B
:10168000884211D038BF8246D2E7B8F101004FF04E
:10169000030138BF5846B8F1000F08BF042101917B
:1016A0008046DDF800A073E7042008F101080190EE
:1016B000DDF800A06CE74EF6017001E046F604602C
:1016C0001EB005F040B84046214603F03BFCFEDE6C
:1016D000A87700007577000090770000048F000065
:1016E0005E770000A0770000747700001A7A00008F
:1016F000267A00000C7A0000DFB506AF044601A888
:1017000003F0A6FC019820B14FF46F40A0800020A8
:1017100002E0DDE9020161602060DFBDF0B503AFEA
:101720002DE9000D8AB001AC884683462121204670
:10173000164606F095FB2046212104F085FE304632
:1017400004F09DFD60B160482121CDF805003020F6
:101750008DF8040048208DF8090001A8062298E0C1
:101760003478204604F064FEA0B101AC21210922A6
:10177000204600F0FDFA554A09237A4403F044FC60
:10178000482021218DF811000E224F48CDF80D0080
:1017900020467EE0204604F089FD082814D8494CF4
:1017A0000138711C00224FF0E80C00250028DCD025
:1017B00011F8013B2D0245EA1265013843EA022285
:1017C000A31A7CEB0503F1D20DF1040A2121504646
:1017D00004F03AFE30465146212204F077FDB8B1BC
:1017E0000E46122916D9A6F112040DF1040AA6F12B
:1017F00011000090504621212246334604F0E4FEB9
:10180000212C5BD2A6F10B022E200AF8040018E06E
:10181000002040E05046212100223346C6F1140545
:101820000095002404F0D0FE2E203021A54207D0E0
:10183000012C14BF0AF804108DF805000134F5E7F7
:10184000082201A8212102F041FA4A1E3AB171B3DF
:10185000835C013A302BF9D0531C023201E00023A3
:1018600001228B4228D2C45C2E2C08BF1A4602F0FB
:101870002DFA01AE4C1D084621232146324604F0C4
:10188000EFFC134A05237A4403F0BEFB30462121C6
:10189000224602F01BFA00F0B9FA02460B465846FF
:1018A000414602F021F90AB0BDE8000DF0BD104636
:1018B000002103F047FBFEDE1846FAE7204621210F
:1018C000F7E700BFFF0FA5D420414C50C88C0000A3
:1018D000B78B0000D0B502AF0446084611461A4641
:1018E00002F0B4FE02460B46114620461A46BDE8F9
:1018F000D040FFF701BF80B56F4603F058FAFEDE17
:10190000F0B503AF2DE9FF0D019020200DF10C0C77
:10191000CDE9052001201D464FF0000B3A2400269A
:101920000490A7F11900039007F8191CBBF1020FEE
:1019300033D00CEBCB005CF83B800BF1010B406823
:1019400040440290804525D028462E21324698F802
:1019500000A000F00DFA51B1027801390AEB022221
:10196000B2FBF4FA0AFB142200F8012BF3E708F1AA
:101970000108BAF1000F0BD02E2E6DD02D2E74D889
:10198000BAFBF4F000FB14A18246A9550136F0E73A
:101990000298D7E70DF10C0CC8E7002000210229BE
:1019A00013D063465CF831200CEBC10301315B6856
:1019B000002BF4D012F8014B3CB92E2E4CD02D2E1A
:1019C00053D8A855013B0136F2E728462E2132466E
:1019D00000F0CEF92B4B7B4439B10278392A49D833
:1019E0009A5C013900F8012BF6E7274C28462E2196
:1019F00032467C44A0474FEA510B029159465A4661
:101A00000090A04723468246029C8846009859468B
:101A10005A462044A0EB540098474FF0FF32002371
:101A200002EB5402541C0DD0984526D08A4227D28E
:101A30001AF803C0845C0AF80340013300F802C0BE
:101A4000013AEFE728462E21324602F03FF918B15D
:101A5000019A5160114604E001994EF2020088801B
:101A60000020086008B004F0D4BE30462E2103F0F8
:101A700069FAFEDE10463A21F9E740464146F6E7AC
:101A80001046F4E70B8A00007B030000B0B502AFFC
:101A90000D46B0F80C1259B11446B0F80E220021D0
:101AA00002F0D4FD2A462346BDE8B04000F0CFB98D
:101AB0000020B0BDF0B503AF2DE9000D8AB005469A
:101AC000B0F80C024EF6017B002800F09A80B5F8C1
:101AD00010420E46A14240F29880B5F80EA2301B8B
:101AE000D5F8048001280FD107202946009003A8CB
:101AF000494B22467B4400F0FDF8BDF80C0000285D
:101B000050D0BDF80EB07CE0CDF808800DF10C0887
:101B10001221404606F0A4F940461221082200F0A6
:101B200027F9404A08237A4403F06EFA4046082118
:101B300000F08FF902460B46114620461A4604F083
:101B40005FFD60B30DF10C0801F10C0401F1080018
:101B500012232146424604F083FB314A04237A448F
:101B600003F052FA4046214600F073F902460B4654
:101B7000701E11461A4604F043FD80B10A1903A8ED
:101B8000122100F053F8024608A80B46294601F03E
:101B9000ABFFBDF8200038B1BDF822B031E04EF205
:101BA000020B2EE0049C02E0099CDDF8088003A8EB
:101BB000294600225346FFF78DFE039EFEB14246A2
:101BC000DDF8108003A829462346FFF783FE039A19
:101BD000AAB10720049BCDE90568012104900F48B4
:101BE0007844039003A8FFF77BFC81B2594511BFED
:101BF00083460020A5F80C02C5E9000001E0BDF80D
:101C000010B058460AB004F09EBD07483C21784405
:101C100003F0BEF8FEDE00BF0B710000267000006E
:101C2000056F000013700000B56F00008A429CBF72
:101C30001146704780B56F46104603F0C2F8FEDECD
:101C4000F0B503AF2DE9000DACB090460A46002177
:101C50001D4602F0FBFC0DF15C0B06460C462946C6
:101C6000584600F0FAF89DF85C50202D01D120482C
:101C700030E00DF1100A0BF104010AF104004822D2
:101C8000CDE90146CDF80C809DF85D60BDF85E8021
:101C900006F0C8F8ADF812800AF108018DF811605D
:101CA0008DF8105017AC204600F022F92AA8039BAB
:101CB00000212246FFF724FE2A9A3AB12B9BDDE948
:101CC000011000F0C4F80021002209E0BDF8AC00CA
:101CD000000401304FF6FF71012220EA0101000AE1
:101CE0000002114380B208432CB004F02CBD00BFA9
:101CF000010005E0F0B503AF2DE9F00DBD688246A7
:101D000000206E46934688468DF80C000D21029007
:101D10002A46CDE9000030461C4600F029F822464C
:101D20002B4603F071F930460D212A4600F084F865
:101D300002460B46114658461A4604F061FC58B15B
:101D40004A1968460D21FFF771FF02460B465046BF
:101D5000414601F0C9FE02E00248CAF8000004F062
:101D600021BD00BF010002E00A464021FFF75EBF2F
:101D7000D0B502AF04460B46114600202246BDE80E
:101D8000D04004F06DBAF0B503AF4DF804BD90B08B
:101D90006E460D460446304604F08FFD0020202894
:101DA00014D0295C5722A02938BF302202EB11122F
:101DB00006F8102001F00F0157220A2938BF3022FF
:101DC000114406EB400201305170E8E7601C69469F
:101DD000402206F01DF80020207010B05DF804BB12
:101DE000F0BDD4D40A781AB90131402206F010B8F7
:101DF000E0B502AF0348791E034A78447A4402F002
:101E0000CCFFFEDE9A850000746D000000B17047C3
:101E100080B56F4602482B21784402F0B9FFFEDE00
:101E2000DF7000007047D4D408460249022279448A
:101E300002F0F6BE1D860000914222BF1044891AAE
:101E4000704780B56F46104602F0BBFFFEDE03F020
:101E5000B7B90A461221FFF7EFBFF0B503AF2DE97E
:101E6000000DB0B013AE80463046FEF7F9F89DF88D
:101E70004C401DAD05F1080041214FF0410A05F02D
:101E8000EFFF2046294632460123CDF878A08DF891
:101E9000744005F067F818B1FEF712FA05460CE039
:101EA000291DBDF876609DF8744048229DF8755054
:101EB00001A805F0B7FF202C09D145F06E00C0B293
:101EC000A8F8020013A8FEF7BBFD20240BE008F1E0
:101ED000040001A904F0CBFC13A8FEF7B1FDA8F89B
:101EE000026088F8015088F8004030B004F091BCDE
:101EF000F0B503AF4DF804BD92B0A7F155060D46FD
:101F00000446701C013104F0A1FC95F84000012149
:101F1000212261F35F0007F8550C09AD31462846D0
:101F2000FEF7EBFD9DF8240038B9691C204604F04B
:101F30008DFC12B05DF804BBF0BD0448A7F112019E
:101F4000034A78447A4402F028FFFEDE52840000FF
:101F5000D46D00007047D4D4D0B502AF0088A0F58E
:101F60006042052A0CD9A0F5DC42042A11D8DFE82A
:101F700002F003171B1F2300214C06227C4435E08E
:101F8000DFE802F0031D2125292D224C10227C447C
:101F90002CE0B0F5104F26D1184C02227C4425E0ED
:101FA000184C06227C4421E0174C07227C441DE09B
:101FB000164C06227C4419E0154C7C4415E0164C66
:101FC0000F227C4412E0154C08227C440EE0144C95
:101FD00014227C440AE0134C14227C4406E0124C88
:101FE00017227C4402E0114C7C440D22D1E905010A
:101FF000CB682146BDE8D040184700BF886E00007E
:10200000AA6E0000886E0000866E0000856E0000DB
:10201000856E0000BE6E00009A6E0000BF6A000070
:10202000996E0000A56E0000B16E0000C26E000047
:10203000B0B502AF0025044605801521C0F8C05098
:1020400000F5757005F00CFF04F1C8004FF48071C5
:1020500004F07EFFC4E97255B0BDD4D4F0B503AF2F
:102060002DE9000DADF50A7DFF2A03D946F6036B75
:1020700001F014BC804679A8CDE938120DF5CA7A72
:10208000CDE9431208F5E4712C910024459100F14B
:102090003F0135910AF13F0134910AF101011D918F
:1020A00000F121011C910AF123013391411C12918D
:1020B00000F117018DF8184108F1040B11914DA999
:1020C0000231109100F11E010F9108F18401369147
:1020D00008F169011B9108F1130104301A9155A907
:1020E000139008F14400329008F188002B9008F119
:1020F0000E00199008F10A00169008F1340026909D
:1021000008F10600259008F11400309008F10D0048
:10211000289008F12C00159008F17200239008F126
:102120006400229008F13A00219008F111002090FB
:1021300008F109001F9008F10500379008F15C00D4
:10214000249008F11200189008F138002F9008F13F
:1021500018002E9008F11000179008F168002D90DB
:1021600008F18A00319008F1B8002A9008F10800BF
:10217000419008F101003A9008F1AC00299008F56F
:1021800075700E9003310020149127900020CDF837
:10219000FC801E90CDE93B3B9DF81801449981429B
:1021A00001F04E834046B8F8C05004F054F980B2B4
:1021B000854281F0678398F80000DFE810F007009F
:1021C000070011009D00A700B7005F04B8F8C20027
:1021D0002B46009047A83A9943AAFEF71FFA9EE0C3
:1021E0009DF81851449EAE4200F0FF855846B8F85D
:1021F0005040FEF783FA80B2844281F0F5829BF86A
:102200000000C32835D1AE4241F2F582681C8DF83A
:1022100018014398445D0120FEF718F8E4B3012C3F
:1022200041F0EC82339800242A22C0F80340046075
:10223000379865A905F0ECFDC220A8F8404088F861
:1022400004004FF6FF71329888F83E40A8F83C40F1
:10225000046088F83A40A8F8384088F83640A8F872
:102260003440C0F80340B8F85040A8F83010A8F83F
:102270004C10B8F852005946009079A843AA23465A
:1022800001F07CFD9DF8E401002841F0B182BDF829
:10229000E801BDF8E64103E004F0FCFAADF8E60120
:1022A00004EA00064FF6FF7AB6EB0A0518BF0546AA
:1022B000B8F85000564508BF441C58461FFA84F829
:1022C000FEF71CFA80B28045DDF8FC8008BF554659
:1022D000A8F8525008BF5446A8F85040564540F060
:1022E000848504EA05004FF6FF7188427FF478AFD9
:1022F0004FF6FF7000F07DBDB8F8C200594600905F
:1023000047A843AA2B46FEF7ABF808E0B8F8C2008E
:102310002B46009047A83A9943AAFEF79FF99DF8EB
:102320001C01002800F0698501F0ACBAB8F9B04092
:10233000B4F1FF3F40F32185B8F8AA104FF6FF72C1
:10234000B8F8A800904208BF91420DD136982421D8
:1023500005F086FD0A20002188F80400601CA8F81A
:10236000B0000020C8F8A8109DF818A1449E56455A
:1023700000F0BA8780B2022801F2848233D00128AB
:1023800054D0002841F07E8236981FFA81F800254B
:1023900040444290C8F104003D909DF818014090DF
:1023A00043983E905FFA8AF0864252D008EB0504CB
:1023B000211F4DD0864207D93E990AF1010ACDF876
:1023C00000A111F800B0FFE786424FF0000088BF7F
:1023D0000120FDF73BFF032C01F26582429800F8D3
:1023E00005B00135DEE73C9804780A2C40F0CB803C
:1023F000564541F239820AF101008DF818014398DF
:1024000010F80A500120FDF721FF032D01F23A8256
:1024100009240DF5AA7A0A9EDFE805F0024E5C7FDA
:102420005046152105F01CFD062476E000910DF5BF
:1024300091702B9943AA012301F06CFC9DF82201B5
:10244000002841F01F82BDF82621BDF8240111E0CB
:102450003D9D409805EB08028DF818014FF6FF707E
:10246000042A08BF02464FF0000008BF4FF0FF30BB
:10247000DDF8FC8000EA02014FF6FF748BB2191BF5
:1024800018BF1146B8F8A820A34208BF501C82B25A
:10249000032A08BF2146A8F8AA1008BF2046A34275
:1024A000A8F8A80040F0208700EA010292B2A242F8
:1024B0007FF45AAF01F063B812981E2105F039FE7F
:1024C00079A950461F2205F0A3FCFF20072427907E
:1024D000002622E00F9800252522C0F80350056051
:1024E00065A879AC214605F093FC1098C0F803501C
:1024F00005604AA84DA90CC90CC01E2209780170BC
:1025000021461198C0F803500560504605F080FC44
:10251000C220052427904FF6FF761F9800255146CC
:102520001F2288F80850456005602098A8F80650DA
:1025300088F8055005F06CFC27982622C8F836501C
:1025400040F47F40A8F83400219888F832500A9669
:10255000A8F8306065A905F05BFC22984FF6FF767D
:10256000A8F860600922A8F87050C0E90055C0F8CA
:10257000075023984AA905F04BFCC8F88050A8F8EA
:102580007C6088F80440A01F4FF6FF72C1B2052995
:102590004FF0020128BF0846C1B24FF6FF70DFE8D6
:1025A00011F00600A10112000500710962E7B8F8F8
:1025B000AA00B8F8A830379900900DF5917043AA99
:1025C000FEF7ADF83AE79DF818A14498504500F0A1
:1025D0004782B8F97C50B8F87840B8F880B02946FE
:1025E000204604F094F880B2834581F0FF80012CEE
:1025F0004FF0010098BF0446B5F1FF3FD8BF044635
:10260000A3454CD2B8F882005B46009065A8269995
:1026100043AA01F0B3FBDDE9430152469DF81831AE
:1026200001F05FFB0246459804F02CF9C0B2042883
:1026300041F01E8104F0D0F841F0E480BDF898012B
:10264000BDF896414FF6FF7504EA00064FF6FF7A93
:10265000751B18BF05463F98B0F880803F98B0F8CA
:102660007C103F98B0F8780004F051F8564508BF48
:1026700008F10104DDF8FC8080B2A1B2814208BFFC
:102680005546A8F8825008BF5446A8F880405645E1
:1026900040F0E68104EA0500504594D1E9E1B8F93B
:1026A0003010B1F1FF3F17DDB8F828004FF6FF7387
:1026B000984234D1B8F82A20DDF814A09A421E9A24
:1026C00001BF052088F804000020C8F8280004BFD6
:1026D0000131A8F8301025E0B8F882005B46009080
:1026E00065A8159943AAFDF72DFF04F075F841F090
:1026F0008980BDF898014FF6FF72BDF8964104EA53
:10270000000191429ED1B8F82C000021A8F83010A9
:102710000028C9D14FF6FF744FF6FF7092E7DDF83D
:1027200014A01E9A4FF6FF759DF81811DDF810B130
:102730008B4500F0C280DDF8FC80000441F056803B
:102740003C9890F80080B8F1050F25D18B4541F2F7
:102750006F80481C42908DF818011446439810F879
:1027600001800120FDF772FDB8F1040F01F26380D2
:1027700043460C9ADFE808F01903031216004FF0E5
:10278000000A12218DF856A1ADF854A165A805F0F4
:1027900067FB0023002208E0164625E04FF0FF32D9
:1027A000002302E04FF0040A23463F9C00202899B2
:1027B000D6460C922073A060E071BDF854010880E9
:1027C0009DF8560184F806A09A46637188702261CC
:1027D000DDF8C0C065A991E86D008CE86D00564633
:1027E000F24684F804804299DFE818F016000600EB
:1027F00006001F000E00470804F02FF879A837994B
:1028000043AAFDF72BFF17E004F027F879A82599D4
:1028100043AAFEF711F80FE0C8B2834532D13F98C2
:102820004FF6FF75418D008D11E004F016F879A880
:10283000419943AAFDF7ADFF9DF8E4014FF6FF75FE
:10284000002840F0EC87BDF8E811BDF8E60100EA89
:1028500001035A1B18BF0A463F9CAB42218D08BF9B
:10286000481C81B2012908BF2A46628508BF284654
:10287000AB42208524D100EA02013246A9427FF40E
:1028800053AF27E04FF6FF7505D901318DF81811C8
:1028900043990C5C00E0002483454FF0000088BFA2
:1028A0000120FDF7D3FC601E379903F0F8FF087094
:1028B0004FF6FF714FF6FF70C9E7CDF814A002E0A4
:1028C000CDF814A032463F991E92B1F88200B1F8BB
:1028D0008040B9E6CDF814A04FF6FF744FF6FF70B4
:1028E0001E96B1E6DDE918BA9DF8180144998142B7
:1028F00000F0B680B8F806000121012898BF08460C
:10290000B8F93440B4F1FF3FD8BF0846B8F83630C4
:10291000834280F06B8765AEB4F1FF3F54DDB8F8B9
:102920000C004FF6FF72B8F80A10914208BF9042AF
:102930000BD1584603F0ABFF16990020269AC1F838
:1029400003000860611C118000219DF81821449B40
:10295000934253D089B2012900F248870AD0002956
:1029600040F04487009043AA304659460023FDF7C3
:10297000D6FE06E0009043AA304651460123FDF7FB
:10298000E1FD03F029FF40F03D8703F0FEFE18BF94
:102990001046B8F80A20AB4208BF511C8AB2022A7E
:1029A00008BF2846A8F80C0008BF2946AB42A8F883
:1029B0000A1023D101EA000292B2A242C5D14FF619
:1029C000FF704FF6FF711DE02F9825990088009049
:1029D00043AA3046FDF7B6FD03F0FEFE40F0128735
:1029E00003F0BEFE0ED1269800244FF6FF7104803E
:1029F0002598008803F020FF91D103E0B8F8381043
:102A0000B8F8360000EA01034FF6FF755A1B4FF085
:102A1000010618BF0A46B8F80610012998BF3146CA
:102A2000B8F93440B4F1FF3FD8BF3146B8F836406A
:102A3000AB4208BF601C84B28C4208BF2A46A8F88B
:102A4000382008BF2846AB42A8F8360008D110400D
:102A50004FF6FF7188427FF447AF4FF6FF7003E0F7
:102A6000B8F8AA10B8F8A800ADF82611ADF82401FE
:102A7000E9E44FF6FF704FF6FF71F5E7B8F9BC6077
:102A8000B6F1FF3F40F39581B8F8B2B04FF6FF7052
:102A9000B8F8B0304FF6FF7A834208BF834521D1A2
:102AA000319803F0F4FE04204FF0000B88F8680022
:102AB00045213098C8E902BB88F812B0A8F810B0D8
:102AC00005F0CEF94FF0FF300023C8F86400701C09
:102AD00088F860B0C8F85CB0A8F85AA0A8F8BC00A4
:102AE000C8F8B0B09DF818C1449C644500F0F58367
:102AF000B8F810000121012898BF0846B8F95A50CB
:102B00000521B5F1FF3FC8BF011D8EB299B2B14298
:102B100080F0B88602290DD001294BD065AE00297E
:102B200051D1CDF800B079A8319943AA0023FDF71F
:102B300095FD57E01FFA8BF13820A0EBC1054198B5
:102B40004FF0000B0D91D0E90086C1F108004090D4
:102B50009DF818013E9043983D905FFA8CF08442B6
:102B60004AD0409A934547D2844207D93D9911F8FB
:102B700000A00CF101013E91429101E0CDF808C1A5
:102B800084424FF0000088BF0120FDF75FFB05F095
:102B900038025FFA8AF0002105F034F948EA0008AB
:102BA00041980E43083D0BF1010BDDF808C1C0E967
:102BB0000086D2E7CDF800B079A82D9943AA012369
:102BC000FDF73AFE0EE00322B5F1FF3FC8BF821CBD
:102BD00090B2814253D9CDF800B079A8249943AA84
:102BE000FDF7D7FD9DF8E401002840F04B86BDF8C5
:102BF000E801BDF8E6310EE03E984FF6FF71DDF8D2
:102C0000FC808DF818010D98B8F8B03058440828A9
:102C100004BF0B46084603EA00014FF6FF7689B26F
:102C20000125B1EB060B4FF6FF7A18BF8346B8F8C3
:102C3000B000B14208BF431CB8F8102098B2012A76
:102C400098BF2A46B8F95A50B5F1FF3F4FF0050535
:102C5000C8BF151DAAB2904208BFB346A8F8B2B0CB
:102C600008BF3346B142A8F8B03040F0368303EADB
:102C70000B0080B250457FF435AF00F0E6BBB5F1F4
:102C8000FF3F51DDB8F816004FF6FF72B8F8141088
:102C9000914208BF904208D13098452105F0E0F8F4
:102CA000681CA8F85A00002000219DF81821449BB8
:102CB000934251D089B2012900F2E4850AD000295B
:102CC00040F0E0852E990023009043AA304601F0A1
:102CD00021F806E02F990123009043AA3046FDF722
:102CE000BDFC03F079FD40F0CD8503F04EFD18BF2B
:102CF0001046B8F81420AB4208BF511C8AB2022A11
:102D000008BF2846A8F8160008BF2946AB42A8F815
:102D1000141021D101EA000292B2A242C5D14FF6AD
:102D2000FF704FF6FF7376E717993046CDF800B085
:102D300043AAFDF707FC03F04FFD40F0A385BDF863
:102D40009811BDF8960100EA0102524509D0ADF88C
:102D5000E811ADF8E6014AE7B8F8B200B8F8B030CB
:102D600059E7B8F8100000254FF6FF71A8F85A503F
:102D700003F062FD7FF486AFE9E7B8F8C2002B46A6
:102D80002999009043AA5046FDF7DCFB03F024FD8F
:102D900040F04B8503F0E4FC2BD1B8F8AC000024E4
:102DA0004FF6FF71A8F8B04003F046FD7FF4C4AAC7
:102DB0001FE0B8F8C2002B462A99009043AA50465B
:102DC000FDF7C0FB03F008FD40F02F8503F0C8FCC1
:102DD0000FD1B8F8B80000264FF6FF71A8F8BC6014
:102DE00003F02AFD7FF450AE03E0B8F8C210B8F843
:102DF000C000ADF82011ADF81E01BDF82001BDF8EE
:102E00001E4104EA00054FF6FF7AB5EB0A0618BF2B
:102E10000646B8F8C000554508BF441C3F981FFA45
:102E200084F803F018FB80B28045DDF8FC8008BF11
:102E30005646A8F8C26008BF5446A8F8C040554599
:102E400040F0FE8498F80000411E052900F29881A8
:102E50003B9D0DF5CA7ADDF8F0B0DFE811F0060011
:102E60009501110038006600BD003A9800780128ED
:102E700000F06781002840F06881DC48784462E116
:102E800000200B22CDF8EB01CDE97900DBF8000042
:102E900079A903F0B5FB002800F0C48402460B4674
:102EA000114650461A46FEF727FC6598002800F0A8
:102EB000AC8466990B23CDE967010A206690012155
:102EC000CB4878446590CB4A50467A444CE13A9AD4
:102ED000504629466C68FEF721FCBDF89401002895
:102EE00040F09684669B504629462246FEF7F2FC47
:102EF0006598002800F0898466990A23CDE9670166
:102F0000092066900121BC4878446590BB4A504630
:102F10007A44FEF7E5FA03F005FC40F0B5840020A2
:102F2000A5F80C02C5E9000028E1B8F8AA004FF6A0
:102F3000FF72B8F8A8105E46504003F093FC18BF2B
:102F4000002640F01B812C98B8F8AC40B8F9B0507E
:102F500001F0AEFBA5423E914294409580F0B784CB
:102F60000DF5CA7B82462E2103F089FC30780638A5
:102F7000C1B205294FF0020128BF0846C1B203299A
:102F800000F2A98400240120DFE811F00400AC0461
:102F9000B3011703711C79AE21223046FDF7ADFD58
:102FA0009DF8E401002840F0AF810DF59A7A03F016
:102FB00005FC03F078FCADF8555130468DF85441CE
:102FC00055AA00215B46FEF79BFC7999002900F089
:102FD00048837A9C3B98EDE2B8F8B2004FF6FF7256
:102FE000B8F8B010504003F03DFC419818BF0020E5
:102FF00040F0C4800D902C98B8F9BC4001F058FB0B
:103000003B9D0DF5CA7B0B900E462246686829460B
:103010000990082000905846794B7B44FEF76AFEE1
:10302000BDF89401002840F0F383DDF834A0584641
:10303000294642960AF18202669E6C68FEF76EFB94
:10304000BDF89401002840F0E383CDE907649AF8C5
:103050006040D5F804A0669806902CB1012C00F0D1
:103060005681022C40F037840DF5CA7B2E2103F0E7
:1030700006FC032C4FF0FF3028BF04460D9D79A8B5
:10308000214605F161025B46FEF73AFC799A002A77
:1030900000F0F0837A9B55A83B9900F025FDBDF820
:1030A0005401002840F0DD83569E28894290002874
:1030B00000F0CE81E8894FF6FF72A98905F110046E
:1030C0005040CDF8F4A003F0CDFB18BF002440F031
:1030D0000584B2463B9E214670680D905846FEF727
:1030E00052FE79AD59462846FEF77CFE55A831467A
:1030F0002A46402300F0F8FCBDF85401002840F0B7
:10310000B08356984E210B907068049003F0B7FB83
:1031100004F1200059464E2203F0D8F8FEF776FE5F
:1031200002460B462846314600F0DEFCBDF8E401BD
:10313000002840F0BE835646DDF8F4A07A9803904C
:1031400088E130487844072102E02F48062178447E
:10315000CDE967010720669001212C4808237844B7
:1031600065902B4A50467A44FEF7BAF983461FFA17
:103170008BF04EF60171884240F0868398F800008B
:10318000DDF8F0B00DF5CA7A00210024C8F8C811A6
:10319000C8F8CC11DFE800F004080F161B3E8900C8
:1031A0000120A8F800007CE0C320C8F8504088F84F
:1031B0000400022073E0002088F80800C8F804002A
:1031C00003206CE03A9803F062FB042067E00A20D9
:1031D0002B2188F80400052088F80000369804F0B8
:1031E0003FFE4FF6FF70A8F8B0005AE0045D000003
:1031F000D95C0000DB5C0000A85C0000A95C00005A
:10320000D75A0000435A0000405A0000365A0000C6
:1032100043590000B8F9B000002842D42999098820
:1032200069B180B2013981423BD1B8F8A8004FF6AC
:10323000FF71884204BFB8F8AA00884231D11C98B7
:1032400003F025FB1D98452104F073FF1A985146A1
:10325000462204F0DDFD1B9879A9422204F0D8FD36
:10326000002004224FF6FF7188F868204FF0FF32EB
:10327000C8E9020088F8BA00A8F8B800C8F8B00099
:1032800088F86000C8F85C0088F81200A8F8100000
:103290000620A8F8BC10C8F86420A8F85A1088F8CE
:1032A0000000C8F8C040FEF777BFB8F9BC0000289E
:1032B000F7D42A990988002900F0BF8280B2013929
:1032C0008142EED1B8F8B0004FF6FF71884204BFDA
:1032D000B8F8B2008842E4D1AFE2B8F8C040ADF827
:1032E0001E41B8F8C2008CE5B8F8C200B8F8C0407A
:1032F00087E579AE3E9A51463046FDF7FEFB9DF8D4
:10330000E401002800F04181BDF8E6B12FE755AE99
:103310004021304604F0A4FD0B9A4FF0000C429877
:10332000D346CDF8F4A0131800200293A0EB0C01B3
:103330009A423E9000F0BA8112F8018B0CEB0B0020
:10334000CDE9031CDA4640900B9265AE304603F09F
:10335000B4FA40983A24C625824524D2DDF8ECB070
:103360000AF1400251464292584601F06FF900229C
:10337000402A0CD0914200F04E82835C08EB03237C
:10338000B3FBF4F808FB0533B3540132F0E75846B9
:1033900051463246402301F0A0F9DDF808A103F0C0
:1033A000C1F9D3D05AE255A8039A4021FEF7E0FCB8
:1033B000DDF8F8E051B10278013908EB0222B2FBE6
:1033C000F4F808FB052200F8012BF3E7DDF8F4B070
:1033D000AEF14003DDF810C0B8F1000F2DD0B3EB13
:1033E0000C0602D0AEEB0C0619E042930CEB0B017D
:1033F000CDF8F8E040233B9855ACE246224601F078
:103400006CF903F08FF940F02982204603F055FA59
:10341000DDE93DBE0AF1400C429B3A24C625402E10
:1034200080F04D82B8FBF4F055AA00FB0581013312
:103430000EF1010E80469155CEE703F14000DDF814
:10344000FC800B9A029B55AE70E703F023FAD8E498
:1034500000200D903B9D5846099A079B2946FEF790
:1034600039FA6598089A002800F0CF81069B294612
:10347000409066983E905846FEF72CFA659C002CCA
:1034800000F0C3815846294652463346DDF89881FC
:10349000FEF720FA659E002E00F0DE814298DDF8EE
:1034A00098A1E94A0028E9497A4479444BD03B9DE8
:1034B00058463D920D9A0B9B42912946FEF70AFA17
:1034C0005846DDF894B1BBF1000F00F0C581DDE98D
:1034D00003322946CDF834A0DDF898A1FEF7FAF9B9
:1034E0006598002800F0B8816699CDE973010C2039
:1034F00072900421D648CDE96FBA784471900820C3
:103500006E90D448CDE96B4878446D903D986990B1
:103510000D98CDE967600720669042986590042079
:103520006A9065A8409A3E9BFDF7DAFF03F0FAF82F
:1035300040F094813B980021DDF8FC80A0F80C124B
:10354000C0E900111AE604203E9BCDE9692007205E
:10355000409ACDE9651058460221CDE96B48CDE986
:10356000676AFDF7BDFF03F0DDF801BF3B9800215E
:10357000A0F80C12C0E90011DDF8FC80F7E54FF669
:10358000FF70ADF81E01FFF73CBC0DF59A7A03F011
:1035900015F903F088F9ADF8555130468DF85441CE
:1035A00055AA02215B46FEF7ABF979993B980029B1
:1035B00057D07A9C2246FEF769FA4299409E4D1EEA
:1035C000B54204D000284EF6017B7FF4D0ADB54261
:1035D00008BF90F0010036D03B983146FEF76AFAFA
:1035E00003F0A0F87FF4C3AD65A82E2122461FFA90
:1035F00086FBFEF71BFB024679A83B9E8A46534694
:10360000314600F071FA0120A6F810B2A6F80C02BB
:103610004298A6F80EA201283DD165AA0E9B30461D
:103620002146FEF70DFBC1073DD140F201110840D4
:10363000B0F5807F2FD100204EF6017BA6F80C025A
:10364000C6E9000093E53B9CB4F80C02002800F0AA
:103650004C81B4F8100238B120464299FEF72AFA9C
:1036600084E5BDF8E8B182E5B4F80E1265AA0E9BB8
:103670002046FEF7E5FAC10715D140F201110840D6
:10368000B0F5807FE8D100204EF6017BA4F80C0253
:10369000C4E900006BE540984EF6017B85427FF45B
:1036A00066AD3046D9E74FEA104B60E530466446D8
:1036B000FEF75AFB02463B980B4604EB0B0101F068
:1036C0000CF85D4603F02EF840F0C88079A803F0AE
:1036D000F4F80DF5CA7B402103F0D1F83E9E29464F
:1036E000AA4674190B948C427BD9844DA4EB010833
:1036F000B8F1410F42917D4449D33E9601F1400219
:103700003B9E4092304600F0A1FFA4F14008834662
:103710008A4630464146224600F098FF4023FBB1DE
:103720000AEB0302402A00F0CD809BF800203A2AE1
:1037300080F0C280359ECC18402CAA5C1E4406F84E
:10374000402C68D002783A2A80F0B680349C0BF185
:10375000010BAA5C01301C44013B04F8402CDEE75D
:103760003B9C0DF5CA7B429940235A46204600F007
:10377000D5FF79AA20464146402300F0CFFF3E9E68
:103780004446DDE93F81803EDDF8F4A0ABE73B989D
:10379000224600F05BFF79AAC1F1000C02EB060E95
:1037A0000024331911D0A44535D002783A2A80F08C
:1037B0008380013B402B80F088800EEB0403AA5CE1
:1037C0000130013C03F8012CEBE779A84146FEF7F4
:1037D000CBFA02460B463B98429900F09FFFDDF87A
:1037E000FC800D9D0B9E60E4022008E0022047E073
:1037F0009DF8E50103E00020FCF728FD01208DF88D
:103800001D013FE09DF895013AE0BDF898B13BE01D
:10381000BDF896B138E0084601F094FBFEDE9DF855
:10382000E5012BE04EF2020B2EE09DF89501E6E754
:103830000020FCF70BFD012020E0022088F8E803BF
:103840004EF6017B20E000BFC35500005C5700002E
:103850006E570000A9550000BDF898B1DDF8FC8056
:1038600012E0BDF856B10FE00020FCF7EFFC09E0D4
:10387000032005E0BDF8E8B106E00220DDF8FC8099
:103880008DF823014FF4604BDDE9381208F1C800D0
:10389000FDF756F902F09BFF18BF834658460DF519
:1038A0000A7D02F050BF409804218DF8180120468F
:1038B000B2E7BDF8E6B1E7E710463A21ACE730469B
:1038C0004021A9E750465146A6E71846F8E70C48BC
:1038D0002C2178440CE0FEF70EF8FEDE09482B217F
:1038E000784405E02E20112196E703482F217844E3
:1038F00001F04EFAFEDE00BF4B530000EB6C0000FF
:103900003B53000017560000C0B2A5281CBFC9B227
:10391000A52903D1A53818BF0120704780B56F468F
:1039200001F031FAFEDED4D4F0B503AF4DF804BD9A
:103930000C460949094E054679447E44B04705F1D5
:1039400040002146B04706492846324679445DF892
:1039500004BBBDE8F04010470D54000027000000F4
:10396000FA530000012203F01FBBF0B503AF4DF87E
:10397000048D86B00446067814F8808F05463046DC
:103980004146FFF7C1FF00280CBF2C464646F0B267
:10399000A52801BF04F1400006B05DF8048BF0BD1E
:1039A0000020694600902046FCF77CFCFEDED4D463
:1039B000F0B503AF2DE9000D90B000680C46012270
:1039C000D0E90085D1E90501CB68354979449847AC
:1039D00006460120002D4FEAC67153D0CDF808806D
:1039E00009B1012649E0D4F81CA0C0075FEA4A717A
:1039F0000ED440B9D4E905010222CB6829497944A3
:103A000098470028EDD102A8214602F001FA33E0E0
:103A1000D4E9052B50B1DBF80C30104622490126C1
:103A20000192012279449847019A30BB0120CDE9E7
:103A3000032B07F83D0CA7F13D0005900DF11C0C80
:103A4000CDF838A0194878440D9003A80C9094F84C
:103A500020008DF83C0094E84F00ACE84F0002A82D
:103A600007A902F0D5F90028BBD1DDE90C0102223B
:103A7000CB680F4979449847064608F10108013D93
:103A80000020A7E709B1012006E0D4E905010122E1
:103A9000CB6808497944984710B002F054BE00BF83
:103AA00069560000275600001056000076540000AA
:103AB000B8550000A2550000E0B502AF60B1134652
:103AC0000A460146684600F00FF8BDF800100320D2
:103AD000002908BF04208CBD02482B21784401F046
:103AE00057F9FEDE1B540000F0B503AF4DF8048D0E
:103AF00082B00446D1E900061D4658B10846114679
:103B00002A46334600F027F802F061FE1CD17019F6
:103B1000606017E006EB0508B8F5007F08D8084696
:103B200011462A463346CDF8008000F054F807E0ED
:103B3000084631462B4600F025F802F048FE03D136
:103B4000C4F80480002001E060800120208002B0E1
:103B50005DF8048BF0BDF0B503AF4DF804BD06462B
:103B6000806815460A461C4619462B4600F05CF84C
:103B700002F02DFE02BF01216219C6E900125DF8B4
:103B800004BBF0BDF0B503AF2DE9000D0546846818
:103B90000C30984692460E4600F041F802460B461D
:103BA0002046002100F040F881B24EF60174A14297
:103BB0000FD1A86831465246434600F035F881B22D
:103BC000A14201BF012008EB0601C5E900014EF644
:103BD000017002F0B8BDF0B503AF4DF8048DD7F811
:103BE000088006460C3014460D461946424600F041
:103BF0000AF82A46234601F007FA0020C6E9000821
:103C00005DF8048BF0BD8A4222BF0844511A704708
:103C100080B56F460846114601F0D3F8FEDE0A462D
:103C20004FF4007100F052B8F0B503AF2DE9000D6C
:103C30008AB01C4692460E4600F032F8A519CDE92E
:103C400000A4B5F5006F17D8B6F5006F19D88046F7
:103C500030445146224603F0A7F9404631462A46F1
:103C600000F02CF852462346CDE9020101F0A8FAF3
:103C700068B14EF6017001E04EF202000AB002F0A7
:103C800062BD30464FF4006101F09BF8FEDE00207B
:103C90006946049002A804AAFCF7F6FAFEDED4D422
:103CA00080B56F464946401A034979440844BDE847
:103CB000804003F02FB900BF526900000346084658
:103CC00011461A464FF4006301F016BED0B502AF9C
:103CD00004460B46114600202246BDE8D04001F0C4
:103CE0000BBEB0B502AF0C460546D0B2D9B22A46DB
:103CF0002346BDE8B04001F0FFBD4268037B9A4215
:103D000081BF591C01730068C15C00209A4288BFC2
:103D100001207047F0B503AF2DE9C00DB7F808B02A
:103D200016460025019301EB0B08CBF1200A009009
:103D300002F08FFD0CD055450AD2304602F0F8FC57
:103D40000BEB0500202815D208F805400135EFE7F8
:103D500000990020087005EB0B00202808BF4FF0E9
:103D6000FF308880019808BF4FF0FF304880BDE8E1
:103D70000C0DF0BD202101F0E5F8FEDEF0B503AF3B
:103D80002DE9000DA2B0884631F8444F9B4601232F
:103D9000012C924698BF1C46B1F90420B2F1FF3FB6
:103DA000D8BF1C461FFA8BF39C4240F2FF8316904B
:103DB000B2F1FF3FB86840F3FE83B8F842004FF617
:103DC000FF75B8F84030AB4208BFA8421DD10020B3
:103DD000C2210023C8F8240088F80010511C88F87C
:103DE0003A00A8F8380088F83600A8F8340088F8B7
:103DF0003200A8F83000A8F83C00C8F82700A8F85E
:103E00002C50C8F84000A8F8481008F1140102919D
:103E100008F10201039108F10401159108F11A015A
:103E2000149108F11001139108F10901129108F1A0
:103E30000101119108F13C01109108F13D010F9130
:103E400008F130010E9108F134010D9108F13801AB
:103E50000C9108F12801049101269AF80C10DAF867
:103E600004208A4200F0B383B8F828200624012AEF
:103E700098BF3246B8F92C10B1F1FF3FC8BF541DAE
:103E8000A4B29AB2A24280F0A883042A0CD8DFE838
:103E900012F0050002030A0310031603009019A88C
:103EA000109952460023FBE2B1F1FF3F40F34383F8
:103EB000B8F82440CDF804B0AC4201BFB8F82600F1
:103EC000A842C22088F8000001BF0024C8F824409E
:103ED000481CA8F82C00DDF860B0CDF85CA09AF87A
:103EE0000C00DAF80410814200F03C83404602F0F6
:103EF000F8FBA1B280B2814280F06F8398F8004055
:103F0000C22C40F00E81504602F012FCE0B2D428E0
:103F100000F299832246DFE810F0D600B602D50001
:103F2000D500D500D500D500D500D500D500D500E9
:103F3000D500D500D500D500D500D500D500260286
:103F40002B0249023F02B602B602D500D500D500C9
:103F5000D500D500D500D500D500D500D500D500B9
:103F6000D500D500D500D500D500D500D500D500A9
:103F7000D500D500D500D500D500D500D500D50099
:103F8000D500D500D500D500D500D500D500D50089
:103F9000D500D500D500D500D500D500D500D50079
:103FA000D500D500D500D500D500D500D500170225
:103FB00017021702D500D500D500D500D500D500D1
:103FC000D500D500D500D500D500D500D500D50049
:103FD000D500D500D500D500D500D500D500D50039
:103FE000D500D500D500D500D500D500D500D50029
:103FF000D500D500D500D500D500D500D500D50019
:10400000D500D500D500D500D500D500D500D50008
:10401000D500D500D5004202D500D500D500D50089
:10402000D500D500D500D500D500D500D500D500E8
:10403000D500D50096039603960396039603960340
:1040400096039603960396039603960396039603A8
:10405000960396039603960396034F02510253026A
:104060005502570259025B025D025F026102630260
:104070006502670269026B026D026F0271027302D0
:104080007502770279027B027D027F028102830240
:104090008502870289028B028D028F0291029302B0
:1040A0009502970299029B029D029F02A102A30220
:1040B000A502A702A902AB02AD02AF02B102B30290
:1040C000B802BA025A460A9888F808000B98C8F84D
:1040D00004000598129988F80300089888F80200EF
:1040E000BDF8840008809DF88600189288F80120A9
:1040F000139A88700998C8F80C001F9810600798E8
:10410000DDF87F10A8F818000698C2F803100A22FC
:1041100088F817001CA9149803F07AFE88F800406C
:1041200001E0CDF860B0E0B2A0F11201052912D98A
:10413000A0F1BB0107291BD9002836D0012834D0B3
:104140004A2803D04B2818BF4C2824D102F0FEFA8D
:10415000FCF786F933E0DFE801F0030374792828DF
:1041600002F042FB119902F03BFBFCF777FA26E0E4
:104170004FF6FF744FF6FF70DFE811F017002A00CA
:104180002A002A005900080008002F0202F0DEFA77
:10419000FCF761FC13E07E2860D08D2805D08E28C6
:1041A0004FF6FF704FF6FF7412D1B8F8260002F0F8
:1041B00017FBB8F8243011995246FCF72FFA17F87C
:1041C000360C002840F0368237F8320C37F8344C81
:1041D00004EA00054FF6FF7BB5EB0B0618BF064659
:1041E000B8F824005D4508BF441C40461FFA84FA15
:1041F00002F077FA80B24146824508BF5E46A8F8D1
:10420000266008BF5C46A8F824405D454FF6FF7560
:1042100040F0B98104EA0600DDF85CA0A8421898D5
:1042200088464FF0010683467FF459AEB6E1B8F8F0
:104230002430B8F82600002B62D0039902F0D0FA9F
:10424000BAE702F083FAFCF7A4FAB8E702F0CCFA76
:10425000039902F0C5FAFCF7EFFAB0E7B8F91820B5
:10426000B2F1FF3F52DDB8F81010B8F81200A942C1
:1042700008BFA8420CD100204FF0FF31C8E903105D
:10428000511CA8F81810002188F80800C8F804008C
:104290009AF80C20DAF80430934250D0090440F028
:1042A0009C8100901CA8159952460023FCF771FAD6
:1042B0009DF87000002840F08781BDF87420BDF89B
:1042C000721001EA020083B2581B18BF1046B8F8FA
:1042D0001020AB4208BF511C8AB2012A08BF2846F1
:1042E000A8F8120008BF2946AB42A8F8101026D142
:1042F00001EA000292B2AA42CAD102F0CBFA67E701
:104300001199524602F06CFA002356E702F06CFA5B
:1043100000901CA80299FCF715F99DF87000002880
:1043200040F08481BDF87410BDF8720000EA01020B
:10433000AA420CD027F8321C27F8340C44E7B8F80E
:104340002600B8F8244043E700200A90A1E0B8F81E
:10435000140000224FF6FF71A8F8182002F06CFA42
:104360007FF481AFE6E70021002012241F9103E0D3
:10437000002100201F911324CDE91C118DF8861017
:10438000ADF884100690CDF87F10CDE909000B90B0
:104390000590CDE9070076E00420089092E6002021
:1043A000CDF87F001F904FF6FF70079000200A9015
:1043B0004FF0FF3009906BE08D2464E08E2462E0C2
:1043C0008F247FE690247DE691247BE6922479E693
:1043D000932477E6942475E6952473E6962471E693
:1043E00097246FE698246DE699246BE69A2469E693
:1043F0009B2467E69C2465E69D2463E69E2461E693
:104400009F245FE6A0245DE6A1245BE6A22459E692
:10441000A32457E6A42455E6A52453E6A62451E692
:10442000A7244FE6A8244DE6A9244BE6AA2449E692
:10443000AB2447E6AC2445E6AD2443E6AE2441E692
:10444000AF243FE6B0243DE6B1243BE6B22439E692
:10445000B32437E6B42435E6B52433E6B62431E692
:10446000B7242FE6B8242DE6B9242BE6BA2429E692
:10447000BB2408E0BC2425E6BD2423E6BE2421E6B7
:104480000020BF24089000221DE6C02400E0C124C3
:1044900000200B9016E6009019A80F9952460123B0
:1044A000FCF7BCF812E0009019A80E9952460223BE
:1044B0000AE0009019A80D995246032304E00090E9
:1044C00019A80C9952460423FCF73CF89DF86400A7
:1044D000002840F0A880BDF86810BDF8663003EAF7
:1044E0000102501B18BF0846B8F84010AA4208BF86
:1044F0004B1CB8F8284099B2012C98BF3446B8F943
:104500002C50B5F1FF3F4FF00605C8BF651DACB29A
:10451000A1424FF6FF7508BF2846A8F8420008BF21
:104520002B46AA42A8F8403051D103EA0001A94223
:104530007FF493AC69E000901CA804995246FCF704
:1045400001F89DF87000002869D1BDF87420BDF80D
:10455000720000EA0201A94209D0ADF86820ADF866
:104560006600B8E7CDF860B0DDF804B011E0B8F847
:10457000280000214FF6FF72A8F82C1002F05CF919
:104580007FF496ACE9E7DDF804B08846DDF85CA07E
:104590000126B8F84210B8F84030A0E74FF6FF7196
:1045A0004FF6FF731890DDF804B098E7022101225E
:1045B0004170014643E000901CA852465B46FBF761
:1045C000C1FF9DF8700050B19DF8710034E016995C
:1045D000B8688880A1F802B01FE002202CE0BDF886
:1045E00074104FF6FF70BDF8722002EA0103834297
:1045F0000FD1B8F844100022A8F8482000297FF411
:10460000DCAB16998880488019E016998D804D8022
:1046100003E0169881800146428000220FE09DF859
:1046200071008DF865009DF8650005E09DF871004A
:1046300007F8350C17F8350C1699012248700A70E6
:1046400022B002F0E6B80120F6E7D4D4B0B502AF4C
:104650000D460168144669B1A54221D2B4F5006F38
:104660001ED88068FFF71CFB29462246BDE8B040F3
:10467000FFF724BBA5420DD2B4F5007F9FBF00F128
:104680000C02284621464FF400739CBFBDE8B040A1
:1046900001F032B904483A21784400F079FBFEDE9B
:1046A00002483C217844F8E7C0460000EE4600008E
:1046B000D0B502AFD0E9001449B18068FFF7F0FA35
:1046C0004FF400612246BDE8D040FFF7FFBA0C303E
:1046D0002146BDE8D040FFF7A2BADCB504AF0C46D6
:1046E000016839B111461A46234602B0BDE8D040F0
:1046F000FFF731BA1919B1F5007F08D800911146BA
:104700001A462346FFF767FA4EF60170DCBD2146D4
:1047100002B0BDE8D040FFF735BAD4D4BCB504AF81
:1047200015461C465A180368B3B1B2F5006F20D87D
:1047300080682A462346FFF777FA80B24EF6017169
:10474000884208BFBCBD1048A7F10A010F4A78444F
:104750007A4400F022FBFEDEB2F5007F0DD80C306B
:10476000FFF751FA2A46234602B0BDE8B04000F0F8
:104770004BBC08482C21784402E005482A217844A3
:1047800000F006FBFEDE00BF465C0000F8450000BE
:10479000504600008246000081293EBF0844C1F116
:1047A0008001704780B56F460846802100F009FB04
:1047B000FEDEF0B503AF2DE9000D8CB003238DF8BC
:1047C0002C302023079308AC00230BC414690593F5
:1047D000002C039300923FD05069116895684FEA0E
:1047E000401820F07840029101F1040B019003AED3
:1047F000B8F1000F54D0DBF800203AB1DDE9080130
:10480000CB685BF8041C984700285AD1206904F152
:10481000200AA1690790207F0A9104F108018DF810
:104820002C00284600F054F8CDE903012846214623
:1048300000F04EF8CDE90501616955F8310005EB4E
:10484000C1014A68314690470BF1080BA8F12008D6
:1048500000285446CCD034E010680DF10C080290CA
:104860000024D2E902604FEAC00A20F060400190C3
:10487000A24515D002982044426832B102980159ED
:10488000DDE90803DB689847D8B9D6E9000241465C
:1048900006F10805904708342E460028E8D010E0BD
:1048A00000980199406881420DD2DDE9012050F85D
:1048B000321000EBC2004268DDE90803DB6898476C
:1048C00008B1012000E000200CB001F03CBFD4D4BE
:1048D0000A685AB1012A07D1496800EBC10252683F
:1048E000064B7B449A4203D000207047081D01E02C
:1048F00050F8310001680120704700BF43070000F5
:10490000F0B503AF2DE9000D9A46164688460446D9
:104910000025A84509D0DAF81020304621469047F6
:1049200001350028F5D0691E00E0414600204145D0
:1049300038BF012001F007BFF0B503AF2DE9FF0D2F
:10494000C4698B46B968064614F001004FF02B0588
:1049500000EB010A08BF4FF488156007CDE9051385
:10496000079202D44FF0000B05E00BEB0201584612
:1049700000F088F88244306870B3D6F80480D045DF
:104980002AD9200742D4A8EB0A013046012201248B
:1049900000F01AF9B0F5881F2AD0D6E905688246DA
:1049A00007980C460090414630462A465B4600F088
:1049B000EAF8E0B9D8F80C303046DDE9052198472F
:1049C000A8B9504621463246434608B0BDE8000D1E
:1049D000BDE8F040FFF794BFD6E905862A46079860
:1049E000314600905B46404600F0CDF820B10124EE
:1049F000204608B001F0A7BEF3684046DDE9052176
:104A000008B0BDE8000DBDE8F0401847306901244A
:104A10000390302030615B4696F82000D6E90521EE
:104A20000290079886F820400090104607922A4688
:104A3000049100F0A8F80028DAD1A8EB0A0130466A
:104A4000012200F0C1F8B0F5881FD1D0DDF810A028
:104A50008846079C0546DDE90521DAF80C3020463A
:104A600098470028C3D12846414622465346FFF7BF
:104A700047FF0028BBD10298002486F82000039845
:104A80003061B5E7F0B503AF2DE9F00D091A102933
:104A900062D3C21C22F00302121A8E1AB5085BD030
:104AA00000EB020B594600F03DFA044626F00300E5
:104AB000584406F00301014400F034FA00EB040806
:104AC000002D5CD06C462B46204659462A46C02D08
:104AD00028BFC02300F012FA9DE8060822F0030365
:104AE0002046039D00F00AFADDE900210023DDE9FC
:104AF00002EC02EB8106B24211D0002104290CD055
:104B000052F8210001316FEA000A4FEADA1444EA50
:104B1000901020F0FE300344F0E71032EBE74FF046
:104B2000FF1000EA132123F0FF22BCF1000F114413
:104B300001EB014108EB1148C2D04FEA8C02002181
:104B400092B15EF8043B043ADD43ED0945EA931364
:104B500023F0FE331944F3E7014404B0BDE8000D2F
:104B6000BDE8F04000F0DEB94FF0FF1000EA112080
:104B700021F0FF21084400EB004008EB10484046BC
:104B800004B001F0E0BDF0B503AF4DF8048DD7F8E7
:104B900008801C460D460646B2F5881F06D02B69D4
:104BA00030461146984708B101200AE044B1EB684D
:104BB0003046214642465DF8048BBDE8F040184778
:104BC00000205DF8048BF0BDF0B503AF2DE9000DBA
:104BD000884690F82010DFE801F0100B020908F178
:104BE00001024FEA58014FEA520806E0110603D0CD
:104BF00041464FF0000800E00021D0E904A64C1C1B
:104C00008569013C07D02A69304651469047002803
:104C1000F7D04FF4881A50464146BDE8000DF0BD6C
:104C2000F0B503AF2DE9F00D0646D0F8008080689E
:104C30008B46924658EA00014AD040B3F068002102
:104C400003910BEB0A01CDF804B0451C029101ACB5
:104C5000013D06D0204600F051F8B1F5881FF7D18C
:104C600015E001A800F04AF8B1F5881F0FD030B167
:104C7000504506D21BF9001011F1400F02DB5946D6
:104C800001E0FCD0002100291CBF82468B46B8F110
:104C9000000F1DD00BEB0A0158467468FFF7F2FEB7
:104CA000844215D9211A30460022FFF78DFFB0F556
:104CB000881F09D0D6E905658046EB680C46594641
:104CC00052463046984770B1012004B001F03BBD18
:104CD000D6E905015246CB68594604B0BDE8000D3F
:104CE000BDE8F04018474046214632462B4604B006
:104CF000BDE8000DBDE8F040FFF702BED0E900318D
:104D00008B422ED0F0B503AF4DF804BD1C4614F80D
:104D1000011B04604AB2B2F1FF3F2ADC5D789C1CA3
:104D200001F01F02DF2905F03F0504601CD99E78C1
:104D3000DC1CF029046006F03F0646EA851516D310
:104D4000D97802F007021C1D046001F03F0141EA1E
:104D5000851141EA8241B1F5881F0AD14FF48811CB
:104D60000BE04FF488110CE045EA821101E045EABE
:104D700002318268D31A234483605DF804BBBDE826
:104D8000F0401046704780B56F46FCF7A3FBFEDE8F
:104D900080B56F46FFF7F7FFFEDE80B56F46FFF781
:104DA000F2FFFEDE80B56F46FFF7EDFFFEDE80B559
:104DB0006F46FFF7F7FFFEDE80B56F46FFF7E3FFB4
:104DC000FEDE80B56F4600F001F8FEDE80B56F466E
:104DD000FFF7D9FFFEDE80B56F46FFF7D4FFFEDE9A
:104DE000E0B502AFBC68009400F002F8FEDED4D457
:104DF000E0B502AF16464FF4807298460C46054661
:104E000000F062F8D7F808A040B9A64203D8A04540
:104E100098BF464513D9FFF7B6FFFEDE0346A04212
:104E200004D2E85610F1410FEFDC00E0EDD0284647
:104E300021460022CDF800A0FFF7D2FFFEDE2EB102
:104E4000A64203D2A85710F1400F00DB4646284681
:104E50002146324600F038F8024638B9A2420CD159
:104E600018482B217844FFF793FFFEDEA24224D29C
:104E7000A85610F1410FF1DC20E0A81890F90010BD
:104E8000B1F1FF3FC7DCC9B2E02928BFF029C2D386
:104E9000427801F007018378C07802F03F0203F006
:104EA0003F03120300F03F0042EA8312104440EA3D
:104EB0008140B0F5881FAED1D2E7CFD02846214639
:104EC0002346B7E79340000080B56F46914210D962
:104ED0000346D01E38BF0020511C81420BD31A4418
:104EE000091A29B112F90139013913F1400FF8DB20
:104EF0000144084680BDFFF764FFFEDED0B502AF77
:104F00009A4221BFD21A01EB830480E81A00C260E2
:104F100028BFD0BD024823217844FFF739FFFEDEC9
:104F2000BC3F000088420BD0091A0246002012F94B
:104F3000013B13F1410FC8BF01300139F7D1704770
:104F40000020704780B56F46FFF71DFFFEDED4D40A
:104F5000F0B503AF2DE9000D8CB0294BA7F13F0E42
:104F60008C4600247B4442F20F7842F2107A4FF0D4
:104F7000640B404516D9B0FBFAF50EEB040105FBB6
:104F80001A00043C86B2B6FBFBF606FB1B0033F8A6
:104F90001620A1F8232080B233F81000A1F82500D4
:104FA0002846E6E7273463280CD981B26425B1FB93
:104FB000F5F2023C02FB150080B233F810002EF827
:104FC000040000E002460A2A05D2601E02F1300108
:104FD0000EF8001004E033F81210A01E2EF8001096
:104FE000C0F12701009107490EEB00036046002243
:104FF0007944FFF7A1FC0CB0BDE8000DF0BD00BF87
:105000006853000060540000D0B502AF0C469942CE
:1050100001BF11462246BDE8D04002F0F9BE20464D
:105020001946FFF78FFFFEDE0068FEE7D0B502AF3E
:10503000C0B200239A4204D0CC5C844203D0013336
:10504000F8E7002001E001201A461146D0BDD4D473
:10505000F0B503AF4DF8048DD41F4FF00003844624
:1050600038BF1C46C81C20F00300A0EB010E5348BB
:1050700078448046934280F08780CE5C70B2B0F175
:10508000FF3F17DDAEEB0300800702D00133F1E7ED
:105090000833A34208D2CD18C8586D68284310F0D1
:1050A000803FF5D000E001339342E3D2C856002898
:1050B000F9D5DFE7454618F80650022D0FD0032D2D
:1050C00015D0042D66D15D1C954261D24D57F02E4E
:1050D0001AD0F42E1ED115F1710F25DD5AE0581C9F
:1050E000904255D20D5615F1410F4BDD52E05D1C3B
:1050F00095424DD24D5DE02E25D06DB2ED2E27D1DB
:1051000015F1610F37DD45E005F17000C0B23028C0
:105110000AD33FE00F300126C0B202283BD815F178
:10512000400F4FF001003DDA981C904230D20856F3
:1051300010F1410F31DCD81C904229D20D5615F1E7
:10514000410F1FDD2CE005F0E000A02813D021E086
:1051500000F11F06F6B20C2E03D215F1400F0ADB48
:1051600018E020F001000126123014D115F1400F93
:105170004FF0010016DA981C904209D20D5615F135
:10518000410F0ADC431C75E7CCE9011200200FE057
:10519000002007E00126012004E00120022601E0B2
:1051A00001200326F1B240EA0120CCE901300120C0
:1051B000CCF800005DF8048BF0BD00BFB23E0000EB
:1051C00099421CBF00207047D0B502AF0C46114673
:1051D000224602F019FE01F062FBD0BDF0B503AF2C
:1051E0002DE9000D90B04FF0000A0A239046CDE95A
:1051F0000DA201220791CDE90A820A46CDE90513E5
:10520000002401684FF0000B029141688068ADF8FE
:105210003CA00C93CDF820800191039006A8183093
:10522000009000200490BBF1000F40F08F80A0455B
:105230005AD30598A8EB040B0619BBF1070F07D842
:1052400000218B454DD0705C0A2835D00131F8E73C
:10525000F01C20F00300B04201D100250AE0851BBC
:1052600031465D4528BF5D460A202A46FFF7DEFE2F
:10527000012821D0ABF10800854214D8715981F082
:105280000A32A2F1013222EA01017219526882F057
:105290000A33A3F1013323EA0202114311F0803FE4
:1052A00001D10835E8E77119ABEB05020A20FFF7D9
:1052B000BDFE012815D129440819441C0994B6D013
:1052C0004445B4D805990123009A08440121FFF709
:1052D00077FF0028ABD04FF0000B264625460D94F3
:1052E0000FE0CDF824804446049878BB01210120CA
:1052F000049056468DF83D10C2454FF0010B4546CF
:1053000024D00398007838B101980422C368114969
:10531000029879449847B8B90598B5EB0A0200EBB2
:105320000A0101D1002005E0501810F8010C0A38DC
:1053300001F0B5FA039B18700198C368029898476A
:105340000028B2463FF46FAF012000E0002010B00B
:1053500001F0F9B955370000F0B503AF4DF8048DF1
:1053600084688846D0E90056207850B1F368284612
:105370000A4904227944984718B101205DF8048B4A
:10538000F0BDA8F10A00414601F089FA20702846D4
:1053900032695DF8048BBDE8F0401047F336000039
:1053A000D0B502AF04460079617911B128B101206E
:1053B00015E0002818BF0120D0BD2068017F4907F3
:1053C00006D4D0E905010222CB680649794405E0FC
:1053D000D0E905010122CB6803497944984720713F
:1053E000D0BD00BF633C0000543C00000A460249A7
:1053F0007944FFF7DEB900BF483C0000D0B502AFEA
:10540000044600F0D5FD08B900F0D8FD00F0D0FD4D
:1054100028B32046042100F0C7FD20780528F5D1E7
:10542000E178207940EA51024908227118B169B146
:10543000032909D013E0032911D80020DFE801F087
:10544000020E110420710AE00220D0BD00210428C0
:10545000217104D20449C00021FA00F0D0BD062019
:10546000D0BD0120D0BD00BF06030405F0B503AFD9
:105470002DE9FC0D0446007DDFE800F0020B192742
:105480002046032100F09FFC206900283FD02249DC
:1054900007E001F0B6F9232300F024FC2069B0B343
:1054A0001C490591049004A800F044FD2FE001F090
:1054B000A8F9072300F016FCD4E902B41526174D0D
:1054C0004FF0000A00227D441DE02046012106B075
:1054D000BDE8000DBDE8F04000F075BC02F1110818
:1054E0002346584621460095A04538BF434600F064
:1054F00017F80222334600920322CDF808A000F0EC
:10550000F1FB0E364246332A18BF9442E6D806B065
:1055100001F07FB93900110039000A00363C000063
:10552000DCB504AF934210D342B18A4204D2845610
:1055300014F1400F02DA08E0914206D163B18B42C8
:1055400008D2C45614F1410F06DCBC680094FFF782
:1055500047FCFEDE9942F8D11044991ADCBDD4D440
:10556000F0B503AF2DE9F00D0D468346D0E90001FB
:105570002F4A7A44009205EB051202F111038B4287
:1055800028BF0B46FFF7CCFFDBF8086080468A4651
:10559000D6E90401327E00F07DFB08B3B168024613
:1055A0000220DFE801F00A020509C2F17E0004E0F2
:1055B000C2F18000400800E0F06833680321DFE8B2
:1055C00003F0070204061A2102E0312100E07168AD
:1055D000184B00247B44CDE900430C2300F058FC19
:1055E000C6E9048A1448784400F0BEFC13487844A5
:1055F00000F0BAFC1DB11348784400F09BFCDBF8C6
:105600000C10681C0968884203D20D48784400F0E9
:1056100091FCD6E9040196E83C00367E8DE87000E6
:1056200000F060FBBDE80F0DBDE8F04001F024BDC7
:105630009A3B00009C4800000E3B0000FE3A000030
:10564000E03A0000FC3A0000F0B503AF2DE9000D90
:10565000D2B08B46804601F007FD36A9A04E00204F
:1056600001227E4402230024702C07D00D190A5118
:105670001C342876C5E90460AB60F5E706A836A9B6
:10568000702202F0CFFBD8E900100024D0F800A06F
:105690000190CDF80CB00AFB0BF0D1E902B5CDF8C2
:1056A000088004910596BAF1000F44D0C0B11121D1
:1056B000A0FB010100293ED1A8423CD200F111011A
:1056C0005A468D422B46884638BFA846814238BF8D
:1056D000A846414600F010F968B302460B4607E0C1
:1056E0004DB34FF01108112D38BFA8465A46434616
:1056F0002AA811461A46FFF7ABFC542C00F0EB80A9
:105700002AABC344A5EB0805AAF1010A0ECB06A8F3
:105710000619002086F83400002918BF03460599B1
:1057200018BF0A46022171620121C6E90B231C340D
:10573000F161059EB7E722A81521202202F0F7FCAF
:10574000039ADDF8108092B90199D8F80C00096825
:1057500001EB011181420AD9D8F8041022AA0020D5
:1057600000F0D9F8D8E90023FFF74EFC54E0B24628
:1057700000268DF8A260501CADF8A0608DF8A660E0
:10578000ADF8A46028A900F08BFC044602980D46F1
:105790008068006829A900F083FC01223592514BF2
:1057A000CDE931207B44CDE933134F48CDE92E4577
:1057B0007844309002202D904C4878442C90D8E9C1
:1057C0000001CDE92A0100200DF1A808062E22D003
:1057D00008EBC601C0F115054C68AC4238BF254640
:1057E000CDB105EB000A22AA514600F094F858F812
:1057F00036208346049100202946234600F07CF899
:105800000B46049902465846FFF7FEFB5046013608
:10581000DDF814A0D8E756462AA822A91522FFF7DA
:1058200017FCDDE92A022C99002814BF0021164636
:10583000B1B373180846194611F8014D62B2B2F1BE
:10584000FF3F29DC194611F8025D6CB214F1400FDC
:1058500011DA1946B44611F8035D6EB216F1400F25
:105860000CDA13F8045D06F03F0105F0070541EA84
:105870008515194604E005F01F0306E005F00F0545
:1058800004F03F03664643EA851302F03F0242EA12
:105890008314B4F5881F03D0891B202CC8D000E0E6
:1058A00000200121CDE90A6002208DF83010089017
:1058B00006910F48784400F03DFB0E48784400F014
:1058C00039FB06A8042100F007FB01F0D5FB52B01C
:1058D000BDE8000DF0BD04200421FFF733FBFEDE20
:1058E000EE4D00007B3900006E3900006239000087
:1058F000403800003038000080B56F46814207D341
:1059000099429FBF0244091A104680BD08461946B5
:10591000FFF757FAFEDE80B56F46814207D315299F
:105920009FBF0244091A104680BD08461521FFF7A3
:1059300048FAFEDEE0B502AF0090403001906846C4
:1059400000F0EEFA8CBDD4D4F0B503AF4DF804BD31
:10595000A2B0044600F02CFB08B900F02FFB01AD0B
:105960008021284602F07CFA00F022FB38B328465A
:10597000802100F019FB9DF80400BDF8056000F0DF
:105980006BF8C0B20F2811D016280AD01028EBD11E
:1059900030BA000C0228E7D92046294600F092F8D8
:1059A000E2E72046294600F065F8DDE7B0B2B0F541
:1059B000807FD9D19DF8070000F0BEF8D4E71C4DD8
:1059C00019F8050007281ED00A2823D1B4F80801C9
:1059D000532107F8131C00BA010E000C07F8120C33
:1059E000A7F1130007F8111C032101F00DFBD4F8F7
:1059F0000811002022464FF4827300F01DF889B28E
:105A000001F002FB06E0B4F8081122460948784488
:105A100001F05CFA09EB0501002009F80500C4E972
:105A200041008871488022B05DF804BBF0BD00BF22
:105A3000042000001312000080B56F46814207D396
:105A400099429FBF0244091A104680BD0846194674
:105A5000FFF7B7F9FEDED4D40138C1B2172984BFED
:105A6000FF207047024940B27944085C704700BF8C
:105A7000E8490000B0B502AF044611480A4619F8DB
:105A8000001001B1B0BD0A217D2509F8001048447D
:105A900006218171B2F8011009BA0B0C7D2B38BFB9
:105AA0000D0CE91C458003208023FFF7C5FF02464B
:105AB0000B4620462946BDE8B040FFF7A5BA00BF17
:105AC00004200000DCB504AF0A79012A1AD0CB7893
:105AD000022A03F07F041CD0042A28D1062C26D2E7
