:02000004C0D06A
:1000000080B500AF06F02CFC012006F0A5F9FEDE5D
:1000100080B500AFC6B08920410001AC204607F092
:10002000D9FD07204103204605F078FE002006F0A8
:1000300093F9FEDE80B500AF88B0684601210177F4
:10004000064A069202220292009104220592044A74
:100050007A44049205F08EFF08B080BD80000B004A
:100060008D7F0000D0B502AF90B0684601220277C4
:100070000146203100230B770A4B0E9302210A918F
:10008000089205240D94084C7C440C940693082394
:100090000593064B7B4404930291009205F06AFF9E
:1000A00010B0D0BD80000B00287F0000147F00003E
:1000B000D0B502AF90B068460122027701462031E8
:1000C00000230B770A4B0E9302210A910892052414
:1000D0000D94084C7C440C94069307230593064B1F
:1000E0007B4404930291009205F044FF10B0D0BD10
:1000F00080000B00FC7E0000E97E0000B0B502AF7E
:1001000090B06C462546203502F07AFB0021297715
:10011000012222770F4B0E9302210A910892069337
:100120000D2305930C4B7B4404930291009200280D
:1001300001D1082200E007220D92002802D10848D0
:10014000784401E0054878440C90204605F012FF01
:1001500010B0B0BD80000B008F7E00007C7E0000E0
:10016000407E0000FEB506AF0190007801263446BF
:100170002B2817D02D2815D000221446561E701E8D
:100180008641012A0ED001980292805C0A252946F8
:1001900004F092F9002804D065436C18029A521CAE
:1001A000ECE701243046214603B0F0BDE0B502AFD4
:1001B000002801D108468CBD0348784401A9034AB0
:1001C0007A4405F003F9FEDECC840000A07D000037
:1001D000D0B502AF044605F011FB0548784405F0A0
:1001E000E3FF0448784405F0DFFFA047D0BDC046D8
:1001F0001C8300000C83000080B500AF02487844E7
:10020000FFF7E6FF80BDC046FBFEFFFF80B500AFF5
:10021000C0B2032814D8C04678440079400087440F
:100220000107040A0848784407E0FFF7E5FF80BDAE
:100230000648784401E006487844FFF7C9FF80BDCE
:1002400004F0FAFDFEDEC0463BFEFFFF7BFEFFFF33
:10025000F9FDFFFFF0B503AFFFB0FFB0DBB093488F
:1002600068442590FFA8543028908920410029AC8B
:10027000204607F0AFFC1D20069000016EAE30183E
:100280001421129007F008FC002535809E95304619
:10029000D0300D9001F028FF792080002690355451
:1002A0003046C03082498160C560E8A80581E99583
:1002B0008048E8902846FFF7A9FF432080002018D7
:1002C000239041208000229020182790FF20123098
:1002D00020182490269830181390FFA89C300146CF
:1002E00008311191014649311091014648310F9171
:1002F000FFA99C310A4649320C920A4648320B92B9
:10030000FFAA1032521D1F92FFAA9C321346493396
:100310001E93134648331D93FFAB9C339B1C0593E0
:10032000F2AB5C1C0994DB1C0893FFAB9C331B1DD8
:100330000793001D0E90081D0A90FFA89C30401CDA
:100340001A90FFA85830401C1C90101D1B9037209D
:10035000400226902195209523E006F00AF8002817
:1003600001D106F00EF8FFAC9C34802620463146C1
:1003700005F0F8FF6578A4782898806C05F084FE75
:10038000C0B201460E39082921D820024019C046C2
:100390007944097949008F44040F2D3636363636B4
:1003A0002700FFA89C30802107F014FC21984249C7
:1003B000887108704880D0E70121090280B2884224
:1003C00021D1FFA89C30C07805F06CFE1BE0052809
:1003D00019D1FFA89C30C0784108239805F092FFFE
:1003E000C0B206280FD056E029A8FFA99C3105F01D
:1003F000BFFE08E000BA000C022804D929A8FFA912
:100400009C3105F081FE2C4800780028A5D02A48B0
:1004100040880028A1D027990860042802D2269895
:10042000C11C2FE02148684429A905F04FFC2599FB
:100430000868002825D024990878002804D0487836
:1004400029A90978814221D1299C200AC6B2022E0D
:100450003AD9279C60682299884200D34DE329ABA2
:100460006E221A546068401C884200D345E329A9D3
:1004700001220A546068801C6060084605F0A6FBF3
:100480006BE7496829A805F049FC66E729A8269981
:1004900005F044FC61E7052883D8C046784400791C
:1004A000400087440C730B686B60C0461805000061
:1004B0000091D0C00088D0C00002002071E7E4485D
:1004C000784405F071FE6CE72798006800282DD06D
:1004D000ECA8142107F07EFBE0B26E24802828D11E
:1004E000002E65D0012E00D093E0FFA89C3029A9F2
:1004F00005F0ECFB2899886C0028279D00D1BCE012
:10050000C96CECAA06F074F9002800D1BFE029A854
:100510008278C0780146114300D10AE10226042AFC
:1005200000D0B5E00328229906D804E16E24032602
:1005300000E000262299279D6868884200D3DCE20B
:1005400029AA14546868401C884200D3D5E229A91E
:100550000E546868801C6860084605F037FB2098D8
:10056000FFF754FE1DE72098C0B2022813D00328DD
:1005700000D016E7CDE22098411E01E02098411CF2
:10058000032008402090FFF741FE0AE7CF48784457
:1005900005F00AFE05E703F09FFE044603F00AFE9D
:1005A0000078CB4979440028199149D020914AE03C
:1005B000C84878441890C84C7C44A047199101263B
:1005C0003040C64D7D44A847C5487844A0471791A0
:1005D0003040A8471898A0470C463040A847FFA9CC
:1005E0009C318C70179848701998087029A80322BC
:1005F00005F0CCFB00240920010329A805F08EFB9F
:100600002298001F0442AAD000202090FFF7FEFD90
:10061000A5E7FFA89C3029A905F058FB2898866C0F
:10062000002E2FD0C56C13980078002832D00128F6
:1006300076D129A88078012849D02698821C71E0BB
:10064000EB4878442090A15D207803F085FD264694
:10065000803605460028204600D13046209903F018
:100660008BFD002D00D126463046199903F09CFDE4
:10067000FFF7C2FD0220209093E6FFA89C308688F9
:10068000340A05E0FFA89C308688340A52E7032626
:10069000229951E729A82699CA1C172D42D38078A0
:1006A00000283FD114213046129A06F0A1F8002804
:1006B000D04A37D0012413980470B07D012804D1AA
:1006C00002F09EF8002800D15BE11436143D6EA8BC
:1006D000E8AB31462A4602F0B5F8024680B2C64978
:1006E00088421FD113980078022883D1FFAC9C3434
:1006F00020460D9901F03CFD2078002800D1F1E062
:10070000FFA89C3040880646040A01256EA802F026
:1007100082F8002D2299279D00D00DE70C1F6AE773
:10072000B548421E6EA8164602F075F8B0B2040A2B
:1007300000E7002A7FD01992114607F08DF9189131
:10074000FFAC9C34ECA9204600F00EFA207820285B
:100750005DD01490FFA89C30418817914078169086
:10076000F54E6E44442530461B992A4607F0DFF9C2
:100770001E9A9078FFA9543188701078527812022E
:10078000101808801D980478FFA8103031462A46BA
:1007900007F0CDF920221C981F9907F06EF901216E
:1007A000159420460D460840801CFFA9583108705A
:1007B000FFAC9C3421262046324601F0ABFC207869
:1007C000002800D09CE1FFA87C3020221A9907F075
:1007D00054F90021D748202906D0FFAA7C32525C68
:1007E00070438018491CF6E7284300BA010A020C3E
:1007F0004A40010E51404140C8B2199907F02CF906
:10080000F09E1898814206D0701CF09098E7FFA8DF
:100810009C30468839E7F2A8C7496944442207F06A
:1008200086F9FFA854308078F1A98870289800686C
:100830000880149C27E0FFAC9C34ECA9204600F013
:1008400093F92078202805D1FFA89C30468817E727
:10085000C47F00000446FFA89C304188179140786F
:100860001690F2A844220A9907F061F90C9A907840
:10087000F1A98870107852781202101808800B982D
:1008800000781590F09EFFA89C301799418016992A
:1008900041700470F2A944220E9807F048F90F98AD
:1008A00015990170F1A90322109807F0E6F829AC18
:1008B00041222046119905F069FA30BA259908605D
:1008C0009D4969440422204692E6C046DA7E000033
:1008D0009A7C00004B7A0000A9FBFFFFE5FBFFFFBD
:1008E000347A0000FFA89C30417819914588924CD9
:1008F0006C441D2620460799324607F0BEF808983A
:100900002146324607F0B9F8280A099948700D7057
:10091000F2A919980870FFAC9C34204600F0BEFC88
:10092000854E6E443046214600F0E6FCFFA89C3020
:100930004022314600F08AFA289B986C002800D1AA
:1009400082E0D96C0525854A7A449A64DD6418658D
:100950005965FFA89C30012421462B4600F04CF934
:1009600082B270498A4273D1FFA81030129905F003
:100970006BFB724868440068212817946BD20320EF
:100980006CE004F03BFFFFA8103000250571022049
:10099000F2906B4969440D60FFA99C310D77289A4C
:1009A00010659464674878449065D5655F48106623
:1009B000F2A8654A7A44259B1A60069A5A609960A3
:1009C000D8605D486844294605F078F8FFA81030E3
:1009D00004F0F7FEC0B20628F8D00528F6D8C046C5
:1009E00078440079400087440A0F0924142CC0463B
:1009F000DE7B000003E0000001EF0000E6E7534863
:100A0000784405F0D1FBE1E75148784405F0CCFB90
:100A1000DCE75148784405F00FFC6E1CF2988642E2
:100A200000D32E4644486844314605F047F8354621
:100A3000CCE74848784405F0FFFB6D1EC1D2002585
:100A4000BFE73948421C6DE6FFA89C3080885AE613
:100A50000646140A59E6302802D80420199003E00B
:100A6000412800D309251995334868441890482433
:100A7000214607F0AFF8289EB46200257560FFA8F4
:100A800058300390FFA87C300290189801902020E5
:100A90000090FFA81030F2AB2549199A06F0B8F87B
:100AA000002806D0FFA8103001F012FEE024179EA7
:100AB0002BE62149694448221892059806F0DDFF8B
:100AC000B46A1D48684419900599189E324606F08C
:100AD000D4FFFFA8103001F0FBFDFFA89C3019994E
:100AE000324607F024F8492C17D229A8FFA99C31D7
:100AF000224605F04BF92C4608E604F02EFCFEDEFB
:100B000017487844FFA97C31164A7A4404F05EFC09
:100B1000FEDE002005F020FCFEDE4821204604F029
:100B200003FCFEDE01EF000003E0000080000B008C
:100B30000106000005150000180500001004000063
:100B40000C040000A67C00006D780000847A000090
:100B50005E7A0000507A0000547A0000A27700000C
:100B6000847B000066740000F0B503AFB1B0019063
:100B700014AE304605F068FA307800901EAD284675
:100B800008304124214607F025F8009828701F946A
:100B900001232946324606F041F8002803D005F02B
:100BA00009FAC4B20AE0291D1EA8468844780578CF
:100BB00002A8482206F0BBFF202D08D16E2020435A
:100BC000019E708014A801F083FD20250CE00096A2
:100BD000019E301D02A9482206F0A9FF14A801F0C9
:100BE00077FD009870807470357031B0F0BD80B5BD
:100BF00000AFFFF70DFAFEDEF0B503AFFFB0FFB0B8
:100C0000B9B00C9101460DA8002505710D950FA8EE
:100C10008582012484758348784413901295824E0E
:100C20007E440FA84CC00920C00115AA00280AD094
:100C3000166055609660D5601561958203239375A3
:100C400018381832F2E70C9800010A460818059087
:100C500015A81630039006940496059882424BD04E
:100C6000D0680A90401E11210B9206F05BFF0B9B8F
:100C700018216943039A5618411C184610300790F2
:100C800000221446089509912D19A14230D0986888
:100C90006C4979440091134611330A998B4200D371
:100CA0000B460C9204F06EFF2F2D00D9ABE0022210
:100CB0003270B21F0023136032460A3A1160314687
:100CC0000E390860304612380B9B06CB0260304666
:100CD00016380160701E641C0470B01E0999017002
:100CE000083B2E2D0C9A03D218361132089DCBE703
:100CF000079A069C049EB0E7302D00D383E01820AD
:100D00000B90684315A9494A7A440A50081884751B
:100D10002B46002585824649794407224260866039
:100D2000C56001612F2B73D01E46591C0B980C9186
:100D3000484315A93F4A7A440A50081884758582A9
:100D40003D49794406224260049A8260C56001618F
:100D500004F054FDFFA8D83005713148684405609F
:100D60000FA804F055FDFFA8D83004F02AFDC0B24A
:100D70000628F8D0C01E0228F5D804F03FFD2F4801
:100D8000784405F011FA15A804F042FD0DA804F00E
:100D900018FDC1B20629F9D00020052908D0042980
:100DA0000FD003290446F1D16D1E0DD200250BE0B2
:100DB0000C998D4220D0B54220D0E1070446E5D001
:100DC00002E0B54200D86D1C069C04F017FD2F2DE3
:100DD00019D80B98684315A9081804F019FD002DBF
:100DE00003D01948784405F0DFF9B542CED814484D
:100DF000784405F0D9F9C9E7074800E00748FC1F27
:100E0000053CA546F0BD3021284604F0A6FAFEDEDA
:100E100030200146F9E7C046046E000001EF0000F3
:100E2000D4040000F07400002C7A00001474000058
:100E3000247400001A7400002E7400007077000003
:100E4000007700008278000014770000DFB506AF5D
:100E5000044601A804F0FCFA0198002804D0EF2011
:100E60000002A080002002E00398606002982060E9
:100E7000DFBDD4D4F0B503AF8DB016460391029018
:100E800004AC21252046294606F0A4FE204629462A
:100E900005F0A6FC304605F0EBFA00280BD004ACB8
:100EA00030202070601C62497944052206F0E5FD7F
:100EB0002121062216E03478204605F099FB00280F
:100EC0001ED05C48784404AC21460CC80CC10078A4
:100ED00008702046093058497944052206F0CDFDB6
:100EE00021210E22204605F088FB039C00F03AFAEF
:100EF00002460B460298214600F014FA0DB0F0BDF0
:100F0000204605F0CBFA082810D8002101220C4613
:100F10008242D6D20D0E24026419B55C0902491929
:100F2000521CE825414B5B1AA541F1D204AC2125A6
:100F30002046294605F054FC304621462A4605F055
:100F4000B3FA002814D00E46122913D930461138AE
:100F500000903446123C04A821212246334605F075
:100F60007EFB202C57D804A82E2101550B3E19E0FA
:100F70000020BAE71420851B009504A82121002435
:100F80002246334605F06BFBA5420AD0012C03D163
:100F900004A82E21417002E004A830210155641CF0
:100FA000F2E7082604A82121324605F026FB441E5C
:100FB0000022012501951646A9420AD0002923D016
:100FC000635C641E6D1C761E302BF5D08A19541C90
:100FD00000E0019C8A421CD2835C2E2B00D022466A
:100FE00005F00BFB4E1D0520C043814216D8212E73
:100FF00017D804AC601811497944052206F03DFD6C
:101000002121204632466EE7481B002104F0A5F955
:10101000FEDE1046FAE721212046F7E70846314672
:1010200001E02121304604F07FF9FEDEFF0FA5D458
:10103000937700007C770000637700004376000020
:10104000D0B502AF0446084611461A4600F049F8EA
:1010500002460B46204611461A46FFF7F7FED0BD62
:10106000F0B503AF89B0029303920191049005ACEF
:10107000002020730790069005900D26BD6820463D
:1010800031462A4600F03BF8029A2B4604F056F906
:10109000204631462A4600F064FA02460B46039881
:1010A00011461A4605F00CFB00280BD04A1905A87A
:1010B0000D2100F03DFA02460B460498019900F01C
:1010C00031F902E002480499086009B0F0BDC04659
:1010D000010002E080B500AF0A46402100F028FA86
:1010E00080BDB0B502AF14460D4605F07DFD024649
:1010F0000120C3022846214600F024FAB0BDD0B535
:1011000002AF0B46044600201146224600F001FAC9
:10111000D0BDD4D4F0B503AF97B01C4615460091AE
:10112000019006A82E2106F055FD16A80570202175
:101130001591149401211391129000221646022A4F
:1011400036D0D00012A90C58081840682018521C3C
:10115000039202908442F2D00494257806A82E21AE
:101160000596324605F0A2FA04460E46002E0AD035
:101170002078000240193A2106F06EFC05462170E5
:10118000761E641CF2E7049C641C059E002D0CD0A6
:101190002E2E26D02D2E6AD83A21284606F05CFC49
:1011A000054606A88155761CF0E7039A0298D1E718
:1011B000002002281AD0C20012AB99589A1852681F
:1011C000401C002AF5D00B78002B0FD12E2E08D012
:1011D0002D2E4CD8491C06AB00249C55521E761C63
:1011E000EFE72B480199086017B0F0BD06A82E2143
:1011F000324605F05BFA274B7B44002907D0027882
:10120000392A39D89A5C0270491E401CF5E706A8B5
:101210002E21214D7D4405963246A8470290039128
:101220004E0831463246A847044604910398029975
:101230000818801B31463246A8470246701E00231C
:10124000461C0BD2049D9D4219D0884211D2E65C07
:10125000155CE5541654401E5B1CF1E7059B2F2BD3
:1012600010D206AA0198009900F05CF8BCE72E2184
:10127000304604F072F8FEDE3A211046F9E7049891
:101280000146F6E72E21184604F04EF8FEDEC04671
:10129000010002E05474000095540000F0B503AF63
:1012A00091B00D46009001A8402106F093FC00206B
:1012B000402816D02B785C0930215722052C0C468B
:1012C00000D314461E09A41901AE34540F241C4047
:1012D0000A2C00D311460919321851706D1C801C5C
:1012E000E6E7009C601C01A9402206F0C6FB002036
:1012F000207011B0F0BDD4D4E0B502AF0A78002A56
:1013000004D1491C402206F0B8FB8CBD0348784448
:1013100001A9034A7A4404F059F8FEDE787300000C
:10132000EC6C0000F8B504AF1E460D46009011C9E4
:10133000214603F051F881B2094A91420AD1A0191D
:10134000009A50603F21314001D0401A403068601F
:10135000002002E0009A508001201080F8BDC046B5
:1013600001EF000080B500AF002800D080BD034829
:1013700078442B2103F065FDFEDEC046927000002C
:10138000F0B503AF8DB006460089574A002800D15A
:10139000A0E00B46B4898C4200D39EE07089059092
:1013A000181B7168049101280ED10720009006AD2A
:1013B0004F4B7B44284631462246FFF751FE288892
:1013C000002853D006A84DE00193039606AD1221E4
:1013D0000291284606F0FEFB08262846029932466E
:1013E000FFF78DFE434A7A44334603F0A7FF2846B1
:1013F000314600F087F802460B46204611461A4651
:1014000005F05EF900282FD00C46084608300C3451
:1014100006AD122321462A4600F07BF8364A7A446C
:10142000042303F08BFF2846214600F06BF80246A8
:101430000B460198401E11461A4605F041F9002856
:1014400012D00A1906A8122100F072F802460B46C3
:101450000BAC2046039E3146FFF764FF208800282E
:1014600006D00BA8428835E0204A33E0079800E018
:101470000C9802900396356806A800242946224657
:10148000059BFFF7DDFD069E002E1FD007980590F7
:1014900006A82946049A029BFFF7D2FD069A002A65
:1014A00014D0079B059809900896072007901348C9
:1014B0007844069006A80121FFF79EFB81B20A4AF4
:1014C000914206D103980481446003E006A8828813
:1014D00000E0024610460DB0F0BD094878443821BE
:1014E00003F0AFFCFEDEC04601EF000002E00000AA
:1014F000246D0000AA6B0000D36B00002D6C00006F
:10150000C26B000080B500AF0A46122100F029F836
:1015100080BD80B500AF814207D3994203D812182D
:10152000091A104680BD0846194603F0FDFEFEDE8E
:10153000D0B502AF0B46044600201146224600F00B
:1015400001F8D0BD80B500AF814207D3994203D8DE
:101550001218091A104680BD0846194603F0E4FE29
:10156000FEDE80B500AF914202D38018891A80BD9B
:10157000104603F0D9FEFEDE80B500AF08460349F1
:101580007944022203F0F9F980BDC046DC6C00000A
:1015900080B500AF002800D080BD034878442B21DF
:1015A00003F04FFCFEDEC046666E0000F0B503AFF0
:1015B00087B016460D46117B5268BC688A423CD003
:1015C00021040290019302D02978A4B209E03046A8
:1015D00001F0BFF8069101242040FFF7D9FF0699DA
:1015E000297028190490084605F027F906940390FD
:1015F000001B05900024307B7168814212D0059851
:1016000084420FD2304601F0A4F80D460121084073
:10161000FFF7BEFF06980019202814D80498055536
:10162000641CE8E7069804190398211A02D002986E
:10163000019B02E0064B1C460298848043800021F7
:10164000017007B0F0BD212103F087FEFEDEC04629
:10165000FFFF00000178C32901D101207047443009
:101660000421425E00880121012800D80846002A92
:1016700000DA08467047D4D4F0B503AFA5B01646DB
:101680000D4617900A4640320820115E1C92908841
:101690000122012800D81046002900DA10469AB22B
:1016A000904201D800F0CDFCBA6800291D950E9239
:1016B00001D500F0CAFC04931C9A50881388514A43
:1016C000934219D1904217D12A46323200202886FF
:1016D00050811070A8861071288710726862C2222B
:1016E0002A702885474AAA851C9B18602A462432FE
:1016F0009071491C19810346294614310291A91C95
:101700000391291D1691294609311591691C1491DF
:1017100029463C31139129463D31129129463031F9
:101720001191294634311091294638310F912946BB
:10173000283105911996317B72688A4201D100F0F7
:1017400093FC2C212A8D012A00D801221B91695E6D
:10175000002901DA062200E0521D94B29AB2A24298
:1017600001D300F086FC042A0ED852007A449288F5
:10177000520097440400E403EC03F103F6030090E5
:101780001EA800231399DEE3002901D500F02AFCEE
:101790002846AD8C1B4A954209D1C08C904206D197
:1017A000C2201D9A107000255562481C90851C9A15
:1017B000307B7168814201D100F039FC1D9C2046CC
:1017C00004F042FEA9B280B2814201D300F051FC84
:1017D0002278C22A254600D0E5E1304600F0B9FF64
:1017E0000C4601263040FFF7D3FEE0B2D42801D9E1
:1017F00000F072FC2246800003A108580818214618
:101800008746C046FFFF0000560300001007000097
:10181000540300005403000054030000540300006C
:10182000540300005403000054030000540300005C
:10183000540300005403000054030000540300004C
:10184000540300005403000054030000540300003C
:10185000FC0500000E060000320600003E060000F7
:10186000100700001007000054030000540300009C
:10187000540300005403000054030000540300000C
:1018800054030000540300005403000054030000FC
:1018900054030000540300005403000054030000EC
:1018A00054030000540300005403000054030000DC
:1018B00054030000540300005403000054030000CC
:1018C00054030000540300005403000054030000BC
:1018D00054030000540300005403000054030000AC
:1018E000540300005403000054030000540300009C
:1018F000540300005403000054030000540300008C
:10190000540300005403000054030000540300007B
:10191000540300005403000054030000540300006B
:10192000540300005403000054030000540300005B
:10193000E4050000E4050000E40500005403000095
:10194000540300005403000054030000540300003B
:10195000540300005403000054030000540300002B
:10196000540300005403000054030000540300001B
:10197000540300005403000054030000540300000B
:1019800054030000540300005403000054030000FB
:1019900054030000540300005403000054030000EB
:1019A00054030000540300005403000054030000DB
:1019B00054030000540300005403000054030000CB
:1019C00054030000540300005403000054030000BB
:1019D00054030000540300005403000054030000AB
:1019E000540300005403000054030000540300009B
:1019F000540300005403000054030000540300008B
:101A00004406000054030000540300005403000087
:101A1000540300005403000054030000540300006A
:101A2000540300005403000054030000540300005A
:101A3000540300005403000054030000D0080000C9
:101A4000D0080000D0080000D0080000D008000036
:101A5000D0080000D0080000D0080000D008000026
:101A6000D0080000D0080000D0080000D008000016
:101A7000D0080000D0080000D0080000D008000006
:101A8000D0080000D0080000560600005A060000EA
:101A90005E06000062060000660600006A0600009E
:101AA0006E06000072060000760600007A0600004E
:101AB0007E06000082060000860600008A060000FE
:101AC0008E06000092060000960600009A060000AE
:101AD0009E060000A2060000A6060000AA0600005E
:101AE000AE060000B2060000B6060000BA0600000E
:101AF000BE060000C2060000C6060000CA060000BE
:101B0000CE060000D2060000D6060000DA0600006D
:101B1000DE060000E2060000E6060000EA0600001D
:101B2000EE060000F2060000F6060000FA060000CD
:101B3000FE06000002070000060700000A0700007A
:101B40000E07000014070000180700001C07000023
:101B5000200700002A0700002E0700001A990C98A1
:101B600028720D9868600B9CEC700A98A870189108
:101B7000697024A916460322159805F07EFF3246A7
:101B800006986883089828830798E8750998A875C7
:101B9000A88268822882EC602E7023982299E961DD
:101BA0002862199E01E01A981890D0B201461239A5
:101BB0000529214B17D90146BB39072924D900280B
:101BC00045D0012843D04A284AD04B2848D04C2839
:101BD00046D07E2800D19BE08D2838D08E2819462B
:101BE0001C4634D068E0C0467944097949008F44E6
:101BF000020249522E2EAB8CE88C009020A814993A
:101C00003246FFF7D3FC4EE0880003A108580818BD
:101C100019461C468746C04636000000A00000005A
:101C2000A0000000A00000005A00000024000000F6
:101C3000240000005A040000FFFF0000AB8CE88C79
:101C4000009020A81699324600F092FD2BE0AB8C54
:101C5000E88C009020A81499324600F0C3FB22E0E3
:101C6000AB8CE88C009020A81699324600F00CFB53
:101C700019E0E88CAB8C002B00D197E0009020A8F5
:101C80000399E9E7AB8CE88C009020A816993246BE
:101C900000F0C4FB07E0AB8CE88C009020A803990F
:101CA000324600F011FC20A800780028FC4B00D040
:101CB00010E220A88188448826460E409E4200D12A
:101CC00000219E421A9101D1A88C441C2846A5B23D
:101CD00004F0BAFB81B28D42F54B184600D01A9839
:101CE0001D9AD0848D421D4600D025461D998D84B5
:101CF0009E421C9A00D097E1A9B2994218991A9174
:101D0000199E00D054E598421A9100D050E592E116
:101D100018202A5E002A4DD4688A298A99420AD15D
:101D2000984208D1002028726860C143E9602861A8
:101D3000511C29830146327B73689342E94B52D090
:101D4000090400D095E10090324622AE00243046CE
:101D50001699234600F062FB3078002800D0ADE1F0
:101D600022A843882398194601408AB2DD498A4255
:101D700000D00446DB488242199E01D1288A431CC8
:101D800099B20129D74800D0204668820129D54957
:101D900000D019462982D34B9A4224D10A460240E8
:101DA00092B29A42C7D119461C4685E7009020A8F6
:101DB000002350E7AB8CE88C009022AC20460299BF
:101DC000324602F016FA2078002800D07EE122A8E0
:101DD0008188408802460A40C24B9A4209D020AA14
:101DE0009180508065E7E98CAC8C65E700200C9011
:101DF000A3E000222A83A88A00288DD120A883800E
:101E0000438056E724A800218170018022A88180A8
:101E10002291122207E024A800218170018022A8CB
:101E200081802291132209910C910D910A9108460B
:101E3000079108910B91069191E60021C8430B9000
:101E40000C910D918BE604200A9007E00021C84315
:101E50000B900C9109910D91A24808907FE68D227C
:101E60005AE08E2258E08F2278E6902276E6912280
:101E700074E6922272E6932270E694226EE6952230
:101E80006CE696226AE6972268E6982266E6992230
:101E900064E69A2262E69B2260E69C225EE69D2230
:101EA0005CE69E225AE69F2258E6A02256E6A12230
:101EB00054E6A22252E6A32250E6A4224EE6A52230
:101EC0004CE6A6224AE6A72248E6A82246E6A92230
:101ED00044E6AA2242E6AB2240E6AC223EE6AD2230
:101EE0003CE6AE223AE6AF2238E6B02236E6B12230
:101EF00034E6B22232E6B32230E6B4222EE6B52230
:101F00002CE6B6222AE6B72228E6B82226E6B9222F
:101F100024E6BA2222E6BB22002120E6BC221DE6EE
:101F2000BD221BE6BE2219E6BF2200200A90014610
:101F300015E6C02200E0C12200200D900EE60090C0
:101F40001EA801231299324600F04CFA10E00090CE
:101F50001EA80223119908E000901EA803231099DF
:101F600003E000901EA804230F99324602F041F9C5
:101F70001EA80078002800D0A6E01EA8828841880C
:101F80001B982B5E288D012800D80120002B01DA38
:101F9000062000E0401D534B0C4614409C4200D1EB
:101FA00000229C4202D11C990988491C83B28DB23F
:101FB0009D424C4800D010461C9A50809D42494B8F
:101FC00000D00B46138047498C421D9D4CD199B2DD
:101FD000444A914201D0FFF7AEFB4249884261D0AA
:101FE000FFF7A9FB009022AC20460599324602F08B
:101FF00000F92078002863D122A881884088024611
:102000000A40384B9A4203D01EAA91805080B4E710
:102010000021A985288D002801D0FFF7B9FB1EA853
:10202000304981804180A8E718981A90199E10467F
:102030005288018803E01A46084619461A901D9DE9
:102040009EE70220179B587048E01C98011D0092E3
:1020500022AC204632461D4602F0CBF820780028FC
:1020600009D022A84078EDE7179B0E989880049835
:102070001BE0022630E022A8828841880B461340EC
:102080001848834216D100211C9A11819288002A97
:102090002B461D9D01D0FFF70EFB179B04E0C046A9
:1020A000FFFF0000179B0F4898805880002016E023
:1020B000FFFF0000179B9A805980F7E722A80AE0EB
:1020C00022A840781EA948701EA804E022A84078E3
:1020D00020A9487020A84678179B5E7001201870D0
:1020E00025B0F0BDFFFF0000F0B503AFC1B004465E
:1020F000012005026E463046294605F0CDFC3046EB
:10210000294604F07FFD204631462A4605F033FD7E
:1021100041B0F0BDF0B503AFC3B015460E46019017
:1021200002AC2046FFF7E0FF204631462A4600F089
:1021300011F881B2064A914204D102A9019800F037
:1021400017F803E00121019A1170508043B0F0BDEF
:1021500001EF000080B500AF04F06CFD002801D055
:10216000024880BD004880BD01EFFFFF01E0FFFF96
:10217000F0B503AF89B00D46044601AE20213046CC
:1021800005F028FD2846314604F04EFD002803D016
:1021900006486080012005E0601C01A9202205F0AE
:1021A0006CFC0020207009B0F0BDC04601E00000CA
:1021B000D0B502AF0088264A8218042A0FD9254AD2
:1021C0008218042A16D8C0467A44127952009744DD
:1021D00002191D212400264B7B44102232E0C04608
:1021E0007A44127952009744021C1F2327001B4B8C
:1021F0007B441FE009221203904220D1164B7B44FE
:1022000002221FE01B4B7B440F221BE01A4B7B4436
:10221000082217E0194B7B4401E0194B7B44142240
:1022200010E00F4B7B4405E00E4B7B44072209E096
:102230000D4B7B44062205E00C4B7B4401E0114B27
:102240007B440D2248698969CC681946A047D0BDF6
:102250000092FFFF0020FFFF006000000860000008
:10226000CE5F0000C15F0000B35F00009E5F000012
:10227000F05F0000B35F00007A5D00008F5F000038
:10228000755F0000445F0000F0B503AF87B00646FD
:10229000107B5468BD68844203D1B58073800020F0
:1022A00072E00591029328040392069002D00598EB
:1022B000047909E0104600F04CFA0C460121084070
:1022C000FFF766F905980471204604F0B6FA049009
:1022D000052803D900207070012055E0204604F045
:1022E000A1FA00280CD0069800280398059B16D167
:1022F0003F222546A106049C09D5D1430D4307E0A2
:102300000698002800D101250398059B07E0154099
:10231000E2001832182111408D401D600125019600
:10232000AAB2049DA91ACE00083E1C681346027B7F
:10233000416891421BD0AB4219D2254634461E4615
:1023400000F007FA069101210840FFF721F9334612
:1023500026462C460398182232400699C9B2049D9D
:1023600091400C4305990C60083E5B1CDFE70020A0
:10237000C1439D420A4600D01A46019EB2809D424A
:10238000029A00D011467180307007B0F0BDD4D4ED
:1023900080B500AF8AB0114604AC1822204605F083
:1023A0006CFB009402A803AA024979440B4602F090
:1023B0004DFDFEDE565E00007047D4D480B500AF00
:1023C0008AB004AC1822204605F057FB009402A8FE
:1023D00003AA034979440B4602F038FDFEDEC046ED
:1023E0003C5E0000F8B504AF0D460446107B516812
:1023F000814201D1B8680AE0104600F0AAF90E4601
:1024000001210840FFF7C4F82E70034B1846A08046
:10241000638000202070F8BDFFFF0000F0B503AF1F
:1024200087B0164605468C68B868002C0393019067
:1024300021D40295086804900498844212D2307B1B
:10244000726882420ED0304635460E4600F081F961
:1024500001210840FFF79CF831462E46039B641C7F
:102460008C60E9E70498A04214D10020C143029D8A
:10247000A980698013E0009005AC204604913246A3
:10248000FFF702FF207800280CD005A8407868707C
:10249000012004E0029D0198A8806B800020287034
:1024A00007B0F0BD05A88188408802460A40054B68
:1024B0009A4204D1002404998C60039BB9E7A98057
:1024C0006880EBE7FFFF0000F0B503AF91B01E4658
:1024D0000546107B5368BC68834204D1AC806E8093
:1024E00000202870ECE005940A910C78042C0B92E3
:1024F00025D1104600F02DF90C4601210840FFF7C8
:1025000047F8E0B2811E022906D3002804D0012832
:1025100006D0FF200230C5E00CA8132105F05AFBBD
:1025200006960A9E701C0D2105F0B1FA30460E3059
:102530000CA9142205F0A1FA3470069E0B9AE0B2A1
:10254000800003A1085808180A9B05998746C046D1
:10255000140000002200000014000000140000001D
:10256000520100000091591C2846334601F0BCFE80
:10257000A6E00295117B50680990981D0390981C65
:102580000490084606960890C0B20999814200D18D
:102590008AE05D890220022D00D98DE012D0012D44
:1025A00024D0002D00D087E09889002804990BD111
:1025B000906846497944012200F096F80B9A002071
:1025C000049901E09889039900900CAC20461646C6
:1025D0002B4601F00EFE207800286BD17368357B06
:1025E0000CA881884088079032461FE09C89588853
:1025F0004601089D099BA0B2E9B28B420DD08642EC
:102600000BD9104600F0A5F801210840FEF7C0FFE5
:102610000B9A641C157B5368EDE786422A4900D06B
:1026200021468642284800D0012007900E461068B7
:10263000099319461446089A2B4600F077F802468B
:102640000B46A06811461A4600F04EF80799084656
:1026500030401D4CA04201D0324600E000220A9BCF
:102660000892A04201D15989491C0E468AB2032A18
:10267000214600D008999981032A224600D032468B
:102680005A81A042069E0FD190B2A04228460B9AD2
:1026900000D078E788B2A042284600D073E72646EB
:1026A00003E0084828800BE0059C02998C804E804E
:1026B000002004E00CA840780299487001200870BE
:1026C00011B0F0BD01020000FFFF00006C5C0000D3
:1026D000E0B502AF0146283101910830009068460C
:1026E00003F06EFB8CBDD4D4F8B504AF002811D034
:1026F00015460A4604460068666831462B4601F0D6
:102700006BFE80B20649884201D0064800E070198D
:102710006060F8BD044878442B2102F092FBFEDE95
:1027200001EF000001080000EC5C0000D0B502AF32
:102730000446DBB2D0B2834205D38B4205D82218BF
:10274000191A1046D0BD194600E0184602F0ECFDFB
:10275000FEDE4268037B9A4203D9591C017300686C
:10276000C15C9A4201D80020704701207047D4D440
:10277000F0B503AF87B000930290F81D01300388D5
:102780000420C01A05900193D80018230393181A47
:10279000069004910E680024107B5168814216D087
:1027A0000598844213D215461046FFF7D2FFC007A2
:1027B0001ED0069B1846039A1040C9B281400E43B2
:1027C00004980660083B0693641C2A46E4E7002050
:1027D000029B187001990919C0430429024600D0D0
:1027E0000A469A80042900D00098588007B0F0BDAE
:1027F000024878442B2102F024FBFEDE105C00002E
:1028000080B500AF01F068FD01F0D4FC0078411EF6
:102810004842484180BDB0B502AF0446C020002503
:10282000255025801D2000012018152105F034F9C0
:102830002046D0300121090204F0E4F9C034E560FB
:10284000B0BDD4D4F0B503AFFFB09EB04193FF2A22
:1028500002D9F14D01F049FC04467920800020188E
:102860001790204633302A90234650332046783044
:1028700045902546BC352046B030329053A80026FE
:10288000279606733E9254923D9153914B9528465C
:102890000C305590204684303C902046693026907C
:1028A0002046083048905BA8411C1D91C01C1C901C
:1028B0006DA8001D1B905BA8411C1A91C01C1990AB
:1028C0006DA8001D189020460E30359020460A3025
:1028D0002590204634302D90A01D2C902046143099
:1028E000399020460D302E9020462C3024902046E2
:1028F0003A302990204611302890601D31906DA803
:1029000001463631229101462F31219101460D3188
:102910002091014624311F91303023902046883089
:1029200030904599084634302F9020465C302B90EB
:1029300020461230379020463830389020461830E4
:1029400036902046103042904A93183334932346F1
:1029500020468A303A900C4640343394581C4090BC
:10296000181D449007201E9040033B900120519079
:10297000499353A8007B5499814201D101F08EFB09
:102980004B98848818461E4603F052FE80B284425B
:1029900001D301F04AFB30784000C046784480887B
:1029A000400087440600060010008F008500A0004C
:1029B00071044B98C088009057A853AA40992346A9
:1029C000FFF710FD87E053A8057B549EAE4201D16E
:1029D00000F024FE4A9800885290449C2046FEF75E
:1029E00039FE529B80B2834201D301F021FB207853
:1029F000C3281FD1AE4201D801F021FB681C53A9A6
:102A000008735398455D5198FEF7C2FD002DDE48CE
:102A10000246044620D0012D449801D001F01FFB4E
:102A200003F0C4FE449C2078C32801D101F000FBD0
:102A30004A9803884A98408800906DAD53AA28466A
:102A40002146FEF719FE2878002801D001F0F4FA9B
:102A50006DA882884488CC48254615408542449913
:102A600000D100228542529202D14A980088441C2B
:102A7000A6B20846FEF7EEFD81B28E42C24800D0F3
:102A800052984A9A50808E42BF4B194600D0214638
:102A90004A9A11809D4201D000F0C0FD89B2BA4A25
:102AA000914290D190428ED11046114600F0B9FD6E
:102AB0004B98C088009057A853AA40992346FEF728
:102AC00075FD08E04B98C088009057A853AA449918
:102AD0002346FFF7D9FB57A80078002801D100F062
:102AE000A3FD01F0F5FA382045990E5E0846002E48
:102AF00001D500F04FFD458E018EA34881420ED1D5
:102B000085420CD124213C9805F064F80A204499B0
:102B10000870701C4599088700250D6329469A4E58
:102B200053A8007B549C5290844201D100F0C5FF11
:102B300088B2022801D901F0CBFA4AD0012837D057
:102B4000002801D001F0C4FAA9B23C9840184E9078
:102B500004205091401A4F9000254D954F98854282
:102B600001D24D9900E001215298C0B28442519A9D
:102B700000D00A46002A60D1844207D9529A521CDA
:102B800053A952920A7353990E5CFFE7844201D80D
:102B9000002000E00120FEF7FBFC509840190328BC
:102BA00001D901F080FA4E9846556D1C764ED5E756
:102BB000009559A853AA0123309901F095FB59A813
:102BC0000078002801D001F083FA59A88188408854
:102BD000DCE0449802780A2A3CD1529A9442499BFC
:102BE00001D801F093FA501C53A908735398805CE4
:102BF0000328159C01D901F06BFA0922800002A17B
:102C00000858081812998746140000005200000066
:102C100080000000E6000000036E00008DA8152172
:102C200004F0D8FF499B06220021119107911091D1
:102C30000F9106910E910D9159E050984219042A76
:102C4000304601D04598008E042A314600D19DE0DF
:102C500011469BE0159C499B75E06DAC601C2121E1
:102C600004F015FF8DA82222214604F006FF499B9F
:102C70000020344608900146119010900F900E905D
:102C800009900D901E9A32E0239803F08FFD0020EA
:102C90001F9908606DAC052252922270888088715D
:102CA000A6856078069060880F90207910906079F2
:102CB0000790E08811902089129060890D90207B08
:102CC0000E908DA82222209904F0D7FE219800783A
:102CD0000490208E618E0991A18E089104465BA814
:102CE0004622229904F0C9FE529A499B12995292A7
:102CF0000E9818740D98D881129199811198588165
:102D000007985872109818720F98D88006985871C2
:102D10008DA92222289804F0B0FE2A980499017007
:102D200008984999088709984999C88649988486D6
:102D30005BA94622299804F0A0FE529A499B0020E4
:102D4000459988601A71901FC1B2052900D30220ED
:102D50001594C0B2800003A108580A1831463046C5
:102D60009746C04614000000840300007400000071
:102D7000280000006C130000009559A853AA0223F4
:102D8000319901F0EDFA1AE7FFFF000002460A4010
:102D900092B2B24200D10021B24202D14598008ED7
:102DA000401C83B2032B354600D00D4645994D8615
:102DB000032B314600D0014645980186B24201D02E
:102DC00000F07BFE88B2B04200D0A9E6A8B2B042C3
:102DD00000D0A5E601F052F853A8017B5498884230
:102DE00000D14AE25291042145984E91455E0489F2
:102DF00006883046294603F04EFC80B2844201D357
:102E000001F042F90120012E00D80646002D00DA1B
:102E10000646B44226D24598408900908DAE53AA0A
:102E200030462D992346FEF727FC54995398569B1C
:102E3000529AFFF77BFC02460B46559811461A46FC
:102E4000FFF752FC3078002801D001F03DF98DA841
:102E50008288448845982646164063498E4215D09C
:102E6000529215E03020499E315E002932D4308DD7
:102E70005D4B98424AD1728D9A42279C47D10520DA
:102E800030710020B062491C318640E0002152912F
:102E900005898188008803F0FEFB53498E4200D1EA
:102EA0006C1C81B2A2B28A424F4800D05298459B16
:102EB00058818A424C4900D02146459A11814A4A9C
:102EC0009642164600D0D8E189B2B14284D1B042D0
:102ED00082D1CFE14598408900906DAD53AA284634
:102EE0002499234601F085F92878002801D001F0C3
:102EF000E7F86DA88188408802460A403A4B9A421A
:102F000000D1DCE08DAA91805080A0E7279C53A9D6
:102F1000097B549E8E4200D1CFE00222000401D0F2
:102F200001F0D4F844980578052D50922ED18E42A8
:102F300001D801F0ABF84A1C53A84F920273539882
:102F4000455C5198FEF724FB042D01D901F0A1F84E
:102F5000A80003A1085808182A4614998746C046B5
:102F60003E000000140000001400000032000000C9
:102F70003A0000008CA80024847004806DA81221FF
:102F800004F028FE21462246139408E00B46224610
:102F90001DE00022D043139001E04E992246529248
:102FA0000020499C2073A060E0711491A1716271AE
:102FB0008CA903222E9804F060FD139820616DA95E
:102FC0001422399804F059FD529A25714F9B529260
:102FD0006D00C0467D44AD886D00AF44120007000F
:102FE00007001A0025006B08FFFF00004998038DB9
:102FF0000446408D00905BA853AA3199FEF7D6FA9B
:103000001CE0D8B2864246D1499C608D218DFD4D91
:103010001EE04998038D0446408D00905BA853AA9A
:103020004899FFF7FBF909E04998038D0446408D64
:1030300000905BA853AA2C99FFF746FA5BA800788A
:103040000028F04D01D001F011F85BA9888849886B
:103050000A460240AA4200D10020AA4201D02646D8
:1030600002E02646218D491C8CB2012C2B4600D053
:1030700003467385012C284600D008463085AA42B5
:1030800028D181B2A94252990C4600D03FE7AB4209
:103090000C4625D03BE7499CDA4D01D801F036F8C3
:1030A000591C53AA11735399085C401E4142414177
:1030B0003198017028462946CAE727940CE0002180
:1030C0003186B08D002800D0D1E68DA8CD49818011
:1030D0004180BCE652982790459842890489BAE617
:1030E0002A462C462791B5E653A8007B5499814285
:1030F00000D1C2E03425D8880121012800D8084633
:103100005C5F002C00DA0846DB8E0226834201D386
:1031100000F09FFF002C60D4499988894989B94AF9
:1031200091420FD190420DD12121379804F0AFFC8C
:10313000002025998871888048800880611C2D9A1C
:103140001180014653AA127B549B934265D089B2E9
:10315000012901D900F07DFF0BD0002901D000F03A
:1031600078FF00906DA853AA0023379901F0F8F872
:1031700006E000906DA853AA0123359901F039F8B3
:103180006DA80078002801D000F061FF6DA8438889
:103190006E991846084082B29A48824200D10021B6
:1031A000824202D149984089431C9CB2022C954826
:1031B00000D0084649998881022C924900D01946CE
:1031C000499B59818F4B9A4227D10A46024092B2BD
:1031D0009A42B7D18B49084622E03898008800907F
:1031E0006DAC53AA20462C9901F003F820780028F2
:1031F00001D000F02CFF6DA88188408802460A406B
:10320000804B9A420CD100242D9804802C98008881
:1032100000287C49084603D07EE74998018FC08E7C
:10322000499AD2880123012A00D81A46499C645F32
:10323000002C744E00DA1A4603460B40B34200D10C
:103240000021B34202D14998C08E401C85B29542FC
:10325000344600D00C4649990C879542314600D03F
:1032600001464998C186B34207D103462140B14285
:1032700000D039E73046314602E04598418E008E55
:1032800059AA91805080A0E400264B98815F0029C4
:1032900000D59FE14598448F038F5A4EB34221D108
:1032A000B4421FD1529121213A9804F0F0FB00243E
:1032B000499DAC60EC60AC742C8204204A9E307650
:1032C0004521399804F086FCEC654E4870813474D1
:1032D0004C4EE0436866459884635298401C4B9975
:1032E0000880234653A8007B54995291814200D113
:1032F0007EE34D900A2242980088012800D80120E0
:103300004A998D5E002D3F9201DA052100E0011DF2
:103310008AB299B2914201D300F0DAFE022913D0A9
:10332000012909D000295BD100945BA853AA00238E
:103330003A99FEF73BF971E000945BA853AA012388
:103340003499FFF7C1F869E0A1B20820401A47900C
:103350001691C80038214691081A50904898046880
:1033600040684F90002043900546479885424D9B0A
:1033700001D2439900E00121D8B2529A8242519A77
:1033800000D00A46002A2FD14E95529925468142F7
:1033900007D95B1C53A94D930B735399095C4C914E
:1033A000FFE700245299814201D8204600E0012025
:1033B000FEF7EEF8509E3246469802404C98C0B256
:1033C000214604F0B9FB4F9A0A432C46044348981F
:1033D00004604F924260083E50964E9D6D1CC4E7BB
:1033E000002D11DA032010E016984219082A054E24
:1033F000304601D04598008F082A314617D0114633
:1034000015E0C046FFFF0000801C80B2814240D919
:1034100000945BA853AA2B99FFF700F85BA80078EB
:10342000002801D000F054FE5BA8818840884A9AA9
:103430003F9BD35E429A1288012A00D80122002BBA
:1034400001DA052300E0131D02460A4092B2B2429F
:1034500000D10021B24202D14598008F401C9BB29E
:1034600085B29D42344600D00C4645994C879D421A
:10347000334600D0034645980387B24200D0B7E2F6
:1034800098B2B04200D02DE7A0B2B04200D029E7F8
:10349000CEE3002D58D44999C88A898AB1420AD10D
:1034A000B04208D14521399804F094FB681C4A9930
:1034B00048810020014653AA127B549B93425AD064
:1034C00089B2012901D900F003FE0BD0002901D0F7
:1034D00000F0FEFD00906DA853AA0023369900F07D
:1034E00003FF06E000906DA853AA01233899FEF768
:1034F0005DF86DA80078002801D000F0E9FD6DA806
:1035000043886E991846084082B2B24200D1002129
:10351000B24202D14998808A431C9CB2022C3046A8
:1035200000D008464999C882022C314600D019467D
:10353000499B9982B2421ED10A46024092B2B242DF
:10354000B9D13146304672E700946DAC53AA20469B
:10355000429900F04EFE2078002801D000F0B8FD1E
:103560006DA88188408802460A40B24207D05BAA13
:103570009180508058E74598418F008F57E700258C
:103580004A98458142980088002884D15BA88680AB
:10359000468049E74B98C08800906DAD53AA2846F5
:1035A0002F99234600F025FE2878002801D000F04E
:1035B00066FD6DA88188408802460A40D14B9A4238
:1035C0002FD1002645990E87888E0028084620D0E6
:1035D000FFF791FA4B98C08800906DAD53AA28462A
:1035E0003399234600F005FE2878002801D000F02A
:1035F00046FD6DA88188408802460A40C14B9A4228
:103600000FD14B980680339800880028314600D0AF
:1036100040E657A8BB498180418005E04B98C188AE
:10362000808857AA9180508057A8848843881E4676
:103630002640B448864200D10024864202D14B98ED
:103640008088431C52939DB2499802F0F1FF80B2EA
:103650008542AC4900D021464B9AD1808542A94889
:1036600000D052984B998880A648864201D000F03D
:10367000E1FC0646499B1878411E052900D936E130
:103680004900C0467944898849008F4405003001CB
:103690004300110066007400409800781C46012821
:1036A00000D109E1002800D00AE1E948784405E1A9
:1036B000419E74686DAD28463146409AFDF7DAFBAD
:1036C0002888002801D000F0C7FC6E9B31686DA8E7
:1036D0002246FDF7B5FC6D98002801D100F0B4FC3E
:1036E0006E9970916F9009236E93DA4A7A446D92C5
:1036F0006DA80121FDF780FA054680B2D6498842BF
:1037000001D000F0E6FC00204199088148607D4E20
:10371000499BEBE01C465BA90020887208815C9005
:103720005B90449800680B2202F0CAFF002801D188
:1037300000F09EFC03460A466DA81946FDF786FB7D
:103740006D98002801D100F096FC6E9970916F90F1
:103750000A236E93C14A7A44BBE0459A508E811B7E
:10376000481E8141108EB042519800D10846002871
:103770000FD144990EE0459A508F811B481E81411C
:10378000108FB042519800D10846002823D1489D9F
:1037900022E00021002800D0A8E05291382045996D
:1037A0000D5E8C8E4B98C16802696DA800F05CFEBE
:1037B0006D9E002E01D100F047FC601E52990978E1
:1037C000092900D01BE1A842499B4E4E00D08DE054
:1037D000419821464CE30025002800D086E01E4693
:1037E00000214B984791445EC16802696DA800F0C2
:1037F0003BFE6D98002801D100F052FC3F904395AC
:103800006E985290419E7068169008200590009026
:103810006DAD934B7B44284631462246FDF720FC94
:103820002888002801D000F017FC6E980C90706872
:103830000B90439D2A4682326DAC20463146FDF7FF
:1038400019FB2088002801D000F006FC6E9960204A
:103850002A5C70684690002A2A4E0A9106D0012AF6
:1038600000D130E1022A01D000F054FC042A01D337
:103870000020C2432B4661336DAC20464199FDF7D1
:1038800049FC20880028499B01D000F010FC6E986C
:103890004F9028895290002800D1CBE1E889811B04
:1038A000481E8141A889B042519800D1084600289D
:1038B00000D0C2E11035C1E16A487844072102E036
:1038C00069487844062170916F9007236E93674A88
:1038D0007A446D926DA80121FDF78EF905462346C5
:1038E000A8B25D49884201D000F0F4FB18780025A9
:1038F0004B990D617844007940008744051A1520E2
:1039000008295F00FFFF0000012018806CE00A20FA
:103910001871052018702B213C981C4604F05AF9A8
:103920002346329806805FE01D725D6003201870A8
:103930005AE0C3201871022018704A983CE02121F7
:1039400040981C4604F0A3F82346042020704BE066
:1039500038204599085E002846D42F990988002907
:103960000BD080B2491E81423ED14598008EB042B4
:103970003AD14598408EB04236D16DAC20462130C8
:10398000212104F084F842222698214604F075F89B
:103990000620499908705121489804F07DF8499B08
:1039A000DD654A994E810D74E84358660420087617
:1039B0003298868185720581056015E04B98405FDD
:1039C000002811D433990988002900D163E380B21B
:1039D000491E814208D14598008FB04204D14598D4
:1039E000408FB04200D156E34B984560FEF7C1FFCF
:1039F0004B99CC8857A884808B88438017E64F91D9
:103A00004D904E946E984C90419C2046509529467E
:103A1000FDF7B6FC054680B20F49884200D058E356
:103A20006068002800D079E34F98801FC1B2052953
:103A3000509D00D30220C0B2032800D96AE34000A1
:103A400078448088400087441300C901D801650389
:103A5000D1490000A949000001EF000035490000EC
:103A60008C470000BC470000AE470000B447000090
:103A70005298411C6DAC21222046FEF74BFB20786A
:103A8000002800D0E8E26DA84178529146888DACBC
:103A90001D2520461B992A4603F0EFFF1C9821465E
:103AA0002A4603F0EAFF300A1D9948700E705BAB9E
:103AB000529818706DAC0022C2E14B998B8857A8C0
:103AC0004380CC88B3E58DA8402104F083F83F986B
:103AD00052994318479A114603939842479200D14E
:103AE000D6E1047806466DA80D46402104F072F830
:103AF00046994E9568184D90761C3F9641980668F9
:103B00004C964D98814232D20A464032304650910E
:103B10004F92FDF7E6FA0546529100262046402EC8
:103B200011D05299B14200D19DE2A95D09020C1851
:103B30003A21204603F0F6FFC62141430A196DA938
:103B40008A55761CEBE704466DAA40234C9E30460E
:103B5000509900F041FC054680B2CC49884200D023
:103B6000B7E26DA8402104F035F84F99C9E74798AE
:103B70004E99421A8DA84021FDF7C1FA05460E461E
:103B80002246002E0ED02878000284183A212046C2
:103B900003F0C8FF0246C620504300192870761E65
:103BA0006D1CEEE7479B1C46403C419800684D90D9
:103BB0000020C0435090002A4E9933D0509848437B
:103BC0005294261801D05E1A17E04F9247934698F8
:103BD0000C4609188DAA40234D9800F0FDFB0546C0
:103BE00080B2DF49884200D073E28DA8402103F003
:103BF000F1FF4034479B21464F9A402E00D37CE290
:103C00004E913A2110461C46154603F08BFF234681
:103C1000C621414349198DAA9155529C641C5B1CD5
:103C20000246C8E740342246CE4E3F98039B54E7F5
:103C300057A825E10025479541E00025002800D040
:103C400064E2419C60684D906DAE30462946FDF7B8
:103C500025FB5BA850903146FDF74EFB8DA84E909A
:103C6000402326462146509AFDF75CFB4E9800887B
:103C7000002800D020E28E98439070683F906DAC91
:103C80004E262046314603F0A5FF20352846214622
:103C9000324602F009FCFDF765FB02460B465BACC1
:103CA00020464199FDF73EFB2088002800D005E220
:103CB0005C9803904D9DA8B24790AB480540419851
:103CC00006686DA83146169A0C9BFDF7B9F96D9CF4
:103CD000002C00D1B8E16E9850906DA831460B9A37
:103CE0000A9BFDF7ADF96D98002800D1ACE14D902D
:103CF0004E946E984C906DA83146469A4F9BFDF7B6
:103D00009FF96D9C002C00D19EE16E9A529800287C
:103D1000964B7B44964979444AD046934F925291B0
:103D2000479A2A436DA83146439BFDF789F96D9D5B
:103D3000002D00D188E16E9847906DA831463F9ADA
:103D4000039BFDF77DF96D98002800D17CE16E9909
:103D50007C917B9006207A90F94878447990479836
:103D60007890779505987690F648784475904C98B9
:103D700074904D987390469871904F9870906F948E
:103D800007206E9052986D90042172916DA84E9A02
:103D9000509BFCF731FF054680B2E5498842499BBC
:103DA00000D097E10020419908814860E14E9DE5EF
:103DB0004C9874904D987390042072907193709207
:103DC0006F9407206E906D916DA802214E9A509BC2
:103DD000FCF712FF0546499BD64E81E56DACDB4AE8
:103DE0007A44112320464199FDF79CFA2088002847
:103DF000499B00D05BE16E982DE06DAD28463146C1
:103E00004C9AFEF787F92878002800D024E16DA8A5
:103E10004178529146888DAC1D25204618992A4636
:103E200003F02BFE199821462A4603F026FE300A9D
:103E30001A9948700E705BAB529818706DAC0222E4
:103E400020464199FDF766F92088002800D003E15B
:103E50006E98499B509DA9B2419A91815081012051
:103E600010814D98A842B34E4E9900D03EE541983E
:103E70001C46FDF785FA2346054631E557A886809E
:103E8000468034463346FFF7D2FBC04601EF0000C0
:103E90000D46511A419800684E908DA81446FDF7C2
:103EA00019F902460B46469829184E9800F094FAE4
:103EB000054680B29E49884200D00AE1412C00D2DA
:103EC00032E1469820184F905BA84025294603F020
:103ED00081FE6DA80195294603F07CFE621E4F9875
:103EE0004699884200D894E04C920546421A412AED
:103EF0009248784452904D915ED33F940A464032A6
:103F00004E9C20460392FDF7ECF806465091294658
:103F10004039204602912A46FDF7E3F8019B002B29
:103F200028D0509AD218402A00D1EBE032783A2AB1
:103F300000D3DFE0CD18529CA25C5BACE418641E99
:103F40002270402D00D1DBE002783A2A00D3D1E084
:103F5000529CA25C5B1E6DAC1A55761C401CDEE7C1
:103F600001EF0000FFFF00000000FFFFE342000040
:103F7000C74300006DAA40234E9C20464D9900F097
:103F80002BFA054680B26A49884200D0A1E05BAABC
:103F900040232046029E314600F01EFA054680B2BC
:103FA0004C9A803A3F9C803C614988423046039954
:103FB000499B604E95D08DE050924E982A46FDF771
:103FC00090F8044600234C9A1046521C11D2994294
:103FD00000D195E0E25C3A2A00D38BE0402800D380
:103FE00092E0529EB25C5BAE32545B1C421E514E5C
:103FF000EAE75BA85099FDF76DF802460B464E982C
:104000004D9900F0E9F9054680B249498842499B3B
:1040100060D1479A900602D03F2082434032439DB0
:10402000419948681018486033E43B9D334651E09D
:10403000022115E03E4D4CE06DA8417810E00020D3
:10404000FDF7A6FA01210BE06DA8858841E06DA877
:10405000467859A846703BE06DA8458839E05199EB
:1040600057A8417034E0529801461DE05BA82CE04F
:104070003B98851C01E06DA8858823462AE06DA841
:10408000407857A9487023E002221FE00020FDF786
:104090007FFA01221AE0022017990870244D19E0D6
:1040A0006DA88588C2E7042101F057F9FEDE6DA8EE
:1040B00045880FE0509A09E08DA8CEE75BA8CCE7D1
:1040C0006DA840788DA948708DA8427859A8427093
:1040D0003B9D499BD03318463D993E9AFEF73AF8EE
:1040E00081B2134A914200D005462846FC1F053C88
:1040F000A546F0BD3A211046D6E740213046D3E729
:104100000846D1E75098AFE74021CDE71048784402
:104110002B2106E0084878440E2102E00A48784442
:10412000212100F08EFEFEDE0A4878442021F8E7C7
:1041300001EF0000FFFF00003B3F00005A47000076
:104140008A4300002E420000123F00007F42000020
:10415000F4420000E63E000080B500AFC0B2A528E2
:1041600002D0C9B2A52903D1A538411E884180BD1E
:1041700000F062FEFEDED4D4F8B504AF0D4604466E
:1041800006497944064E7E44B047204640302946D1
:10419000B047044979442046B047F8BDBC40000010
:1041A0001F000000AB40000080B500AF012202F00C
:1041B0005DFD80BDF0B503AF87B004468020255C6F
:1041C000267830462946FFF7C7FF002800D135463C
:1041D000E9B2002800D08034A52903D1403420461C
:1041E00007B0F0BD0020019001A92046FEF7E6F8D7
:1041F000FEDEF0B503AF87B01E46137B5568BC6882
:104200009D4203D184804680002361E00591210412
:1042100004920290069102D0059880780AE0104638
:10422000FEF797FA0D4601210840FDF7B1F9059810
:1042300085702846054602F000FB0390042804D947
:10424000002102984170012342E00196069800285F
:1042500006D0059800880690A6B20498039A0CE050
:104260003F200540039AD0001830182101408D40AE
:1042700005980695058001260498911BCC00083C02
:104280001546027B4168914216D0AE4214D2FEF729
:1042900060FA0D4601210840FDF77AF904981822CA
:1042A0002240E9B2039D9140069A0A43059906927D
:1042B0000A80083C761CE4E70023D943B5420A464D
:1042C00000D0324602988280B54200D001994180E8
:1042D000037007B0F0BDD4D480B500AF014802F040
:1042E00083FC80BD0090D0C0F0B503AF85B00093D3
:1042F00016460190F81D013002888818029020208F
:104300000492801A03900024307B7168814212D09D
:10431000039884420FD23046FEF71BFA0D46012166
:104320000840FDF735F9049800191F2814D80298A1
:104330000555641CE8E70020019B187004990919D1
:10434000C0432029024600D00A469A80202900D086
:104350000098588005B0F0BD202100F0FEFFFEDE81
:10436000F0B503AF85B0009316460190F81D0130FB
:1043700002888818029021200492801A0390002459
:10438000307B7168814212D0039884420FD230464C
:10439000FEF7DFF90D4601210840FDF7F9F8049812
:1043A0000019202814D802980555641CE8E700205D
:1043B000019B187004990919C0432129024600D0B5
:1043C0000A469A80212900D00098588005B0F0BD97
:1043D000212100F0C2FFFEDEF0B503AF8DB01C4618
:1043E00002920E465D1802F0FFFB02460120C10258
:1043F000481C854218D28E4219D890190299019210
:10440000224602F033FC30462946019A00F020F89B
:10441000049103900694029A0592234600F0B5FF9A
:10442000002808D0094800E007480DB0F0BD30462C
:1044300000F07AFFFEDE0020079003A805A907AA76
:10444000FDF7A6FFFEDEC04602E0000001EF00001F
:1044500080B500AF814203D31218091A104680BDFF
:1044600000F062FFFEDED4D4B0B502AF04460120F6
:10447000C002824203D90848A080002009E0154606
:10448000084602F0B1FB024600202946FFF7E0FF94
:1044900061602060B0BDC04602E0000080B500AFA2
:1044A000812903D240188022511A80BD80220846FB
:1044B000114600F039FFFEDE80B500AF0346303B09
:1044C0000A2906D9242915D80A2B0AD201201A460E
:1044D00005E01A468A4201D3002000E0012011467F
:1044E00080BD024620200243613A0A32F2D3002006
:1044F000C243EFE700F0A0FCFEDEF0B503AF8FB0E3
:104500001646202206AC0323A35423460A92002415
:104510000BAA13C2089406943569002D049641D065
:1045200020331F20C00671694A0105928143019121
:1045300002930598002858D0306801194A68002A6B
:1045400007D001590C98C3680B989847029B002824
:104550005BD1284620300390287F187028690A9084
:10456000A8690D900498866829460831304600F005
:1045700051F8079106903046294600F04BF8099112
:1045800008906869C10070587118049E4A6806A9AD
:104590009047029B08340599203905910028039D16
:1045A000C7D032E007204007B468F168CA0005921E
:1045B0008143019100250598A84216D03068411921
:1045C0004A68002A06D041590C98C3680B9898474E
:1045D00000281AD12646083605CC06A9904708358A
:1045E00000283446049EE6D00FE0706801998142AD
:1045F0000DD20198C00032681158101842680C980A
:10460000C3680B989847002801D0012000E00020E3
:104610000FB0F0BDD0B502AF0B68002B0CD0024636
:104620000020012B0AD14968CB00D1184968064CFB
:104630007C44A14203D0D0BD081D01E0D0BDD058BC
:1046400001680120D0BDC046310D0000FEB506AFA7
:10465000029301920E4604460025AE4209D002980C
:1046600002690198214690476D1C0028F5D0681E0C
:1046700000E03046B04201D30020FEBD0120FEBD67
:10468000F0B503AF8DB00C920A460546C66901210C
:10469000304609910840112109040028069100D0F4
:1046A0002B210B91B968441870070893079102D425
:1046B00000200A9006E00C9811180A92104600F0AB
:1046C00085F80419286800282AD06968A14227D9EA
:1046D00030073BD4091B01262846324600F01AF960
:1046E0000446069884422ED009916969AD690C98F8
:1046F00000900C91084629460B9A0A9B00F0EEF8B0
:10470000002820D1EB680C980899079A9847002850
:1047100019D1204609990C9A2B46FFF797FF11E013
:104720006C69AD690C980090204629460B9A0A9B4B
:1047300000F0D4F80028099E05D1EB6820460899BE
:10474000079A9847064630460DB0F0BD05912020E7
:10475000295C039101262E5428690290302028619B
:104760006A69A9690C980090049210460C910B9A02
:104770000A9B00F0B3F80028E5D109960598011BC3
:104780000122284600F0C6F806460698864209D05F
:104790000B910C98C368049C20460899079A984787
:1047A000002801D0099ECEE730460B9922460C9B8B
:1047B000FFF74CFF0028099EC5D1284620300399F9
:1047C0000170029828610026BDE7D4D4F0B503AF8C
:1047D0008BB0091A10296BD3C21C032301939A438F
:1047E000121A914264D3042A62D88E1AB308059330
:1047F0005ED084183146019B9943049464181E408E
:10480000811800F028FB0546A119204600F023FB83
:104810004019314E059A002A4DD00390C02A134604
:1048200000D3C02307A8049900F0BEFD089A1346E0
:10483000019883430A98059009980490079907A85E
:1048400000F0B2FD08988000079B19180A980290A2
:104850000998069000228B420DD00020102808D025
:104860001D58AC09ED43ED0925433540AA18001D3C
:10487000F4E71033EFE7100A16490A4008408018A1
:1048800013494843000C0399401802990029C1D0EC
:1048900004468A000021002A0FD0069B01CB069314
:1048A0008309C043C009184330404118121FF2E782
:1048B000411800F0D0FA0BB0F0BD080A054A1140CB
:1048C0001040401802494143080C0019F3E7C04664
:1048D00001000100FF00FF0001010101F8B504AF74
:1048E0001C460E46054611200004824207D033695B
:1048F000284611469847002801D00120F8BD002C19
:1049000005D0BA68F368284621469847F8BD0020CC
:10491000F8BDD4D4FEB506AF2023C35C9C0002A52D
:104920002C592C190D46A746260000001C0000003B
:1049300010000000180000004B08491C4D0806E05C
:10494000120602D000250B4601E000230D4601951A
:104950005C1C0169029146698569641E09D02A6957
:104960003046029990470028F7D0112000040199A1
:1049700001E00199029803B0F0BDF0B503AF87B034
:1049800015460A460646806833681946014344D0F6
:1049900000281CD00193F068002100910691049238
:1049A000029503925119059111210D04441C641EB6
:1049B00005D004A800F058F8A942F8D104E004A8F2
:1049C00000F052F8A94237D1029D039A019B002BB7
:1049D00023D05119746810460392FFF7F7FE844202
:1049E00025D9211A00223046FFF794FF1122120424
:1049F0000124904218D0019102907069B669F36861
:104A0000009003992A46984700280DD102980199F1
:104A1000009A3346FFF71AFE05E07069B169CB686A
:104A200011462A4698470446204607B0F0BD7069F3
:104A3000B169CB680399F4E70028029D039A009CB2
:104A400007D0A8420ED211563F22D2439142039A78
:104A500000DB1446002C00D00546002C019BB6D08C
:104A60002246B4E7F5D0F5E7FFB507AF0368426823
:104A70001121090493422DD05C1C04601D786AB298
:104A8000002A2ED59C1C04605E783F2202921640BC
:104A90001F222A40DF2D1ED90092DC1C04609A7868
:104AA0000392029A0196039E16400396019A96017C
:104AB000039AB618F02D11D31C1D0460DD78029AFC
:104AC0001540B6017519009A5207D20AAD188D42E9
:104AD00007D10BE00AE091018D1902E0009909036A
:104AE00075188268D11A091981602946104604B0E8
:104AF000F0BDD4D4F0B503AF93B005930546466935
:104B000080690490C4683046A047012100284BD139
:104B10000391B8680290E96948070BD424497944A5
:104B200001223046A04700282AD105982946029A3A
:104B300090472EE001911F49794402223046A04758
:104B400000281DD109A8012101702022AB5C0AA90F
:104B50008B54089004980790069601981190164877
:104B60007844109006A80F905DCD0E960D940C938E
:104B70000B920A900598029A143D9047002801D0A4
:104B8000039911E01098C3680F980C4979440222E8
:104B900098470028039907D16869A969CB68084933
:104BA0007944012298470146084613B0F0BDC0463B
:104BB0004F37000033370000E4360000D5360000E0
:104BC00063390000F0B503AF95B00C46006860C8CB
:104BD00048698969CB683F49794401220592984721
:104BE000059A0CA9203101910694203400941146B5
:104BF000002E60D00795C007104658D10698C469AA
:104C0000600712D4C8070BD1069948698969CB6837
:104C10003349794402229847059A0028104646D124
:104C200007A8069900F062F840E0C80712D006987D
:104C30004369029380690490C06803902A497944CB
:104C400001221846039B9847029B059A00281046AC
:104C500004D02CE006984369806904900BA80121D8
:104C6000017000990978019A11700A9004980990CE
:104C70000893139418487844129008A81190069C41
:104C80001FCC10940F930E920D910C9007A80CA9B5
:104C900000F02CF8002802D0059A104607E0129880
:104CA000C36811980D49794402229847059A6D1CF2
:104CB000761E00219CE7C00708D1069948698969DA
:104CC000CB6808497944012298470246104615B03E
:104CD000F0BDC04697360000CE350000BB35000061
:104CE00051360000AC35000030360000D0B502AFC0
:104CF000A2B00C460068C969CA0606D4890614D455
:104D00000078214600F030F82AE001787F200F2259
:104D10000A400A2A01D3572300E030239A1802AB35
:104D20001A54401E0909F2D10EE001787F200F22AB
:104D30000A400A2A01D3372300E030239A1802AB35
:104D40001A54401E0909F2D1411C02A8FFF7A6FB24
:104D5000034600910349794402222046FFF790FC64
:104D600022B0D0BDEA340000F0B503AF8FB002919D
:104D700027242C4979440391284988421FD928497E
:104D800002F06AFE049088B2642102F065FE0646D5
:104D90004900039A505C05AB1B1925469C1E2070E8
:104DA0005118497861702C46B0B24500515D1B1F07
:104DB00004981970511949785970241FDCE7632849
:104DC0000DD980B2642102F047FE4B00039DE95CDF
:104DD000A41E05AAA154A118EA1852784A700A28FC
:104DE00004D2641E303005A9085509E0410003983B
:104DF000425CA41E05AB1A551A1941184978517026
:104E00002721091B009105A90B19074979440022A4
:104E10000298FFF735FC0FB0F0BDC0460F27000029
:104E200010270000DD3700004038000080B500AFDB
:104E30000068FFF799FF80BD80B500AFFBF7D7FE94
:104E4000FEDE80B500AFFFF7F7FFFEDE80B500AFF6
:104E5000FFF7F2FFFEDED0B502AF024600208A4225
:104E600008D00023D3564024E443A34200DD401C75
:104E7000521CF4E7D0BDD4D4F0B503AF99B00FAC59
:104E80000026A684179216960A23159301250195EC
:104E9000149513920A921192099110910F9301683F
:104EA0000591416804918068069020461830029070
:104EB000243403940796334608963446002C0A9A05
:104EC00000D09FE09A4202D30998C41800E0002461
:104ED000D51A63D3072D07D800218D425CD0605CC2
:104EE0000A2842D0491CF8E7E01C03218843A0426D
:104EF0000E940C930B9501D100250EE02946051B5D
:104F00008D4200D30B9D0A200E992A4600F02CFA00
:104F1000012802D10A9A0C9B27E00B9808380D90C3
:104F20000D98854215D80E9C6159394802468A432E
:104F3000364B5940374E8919114062195268034661
:104F400093433248424092191A400A4301D108352E
:104F5000E6E70E9841190B98421B0A2000F004FA6C
:104F600001280A9A0C9B17D14919C818431C12939F
:104F7000A8D09342A6D8099908180121029A1C4684
:104F80000B4600F002FA23460A9A00289AD016939C
:104F900000241D461E460CE0129213460798002876
:104FA00030D1012403984470089D95420794164619
:104FB00028D00698007800280C9308D00498C3687D
:104FC00015497944042205989847002818D1089B70
:104FD000F21A0998C1189E4201D1002005E050182C
:104FE000401E03780A3B58425841069B18700498AB
:104FF000C36805989847002808950C9B00D15DE789
:10500000019800E0002019B0F0BDC0460A0A0A0A63
:1050100080808080FFFEFEFE13300000F0B503AFFD
:1050200093B00446007901250028284604D0657114
:105030002071204613B0F0BD04910592B86802902B
:1050400062792668F0694107039304D4002A45D0A9
:105050003C49794444E0002A0AD17069B169CB68BF
:105060003C4979440322984700282846DFD1F0695B
:1050700009A9009101220A702022B35C01930AABB6
:1050800001999954009908911190304878441090F2
:10509000B06907907069069030690E90F0680D90C5
:1050A000B0680C9070680B9030680A9006A80F905A
:1050B0000499059AFFF7E0FE00280DD106A82449BF
:1050C00079440222FFF7D8FE002805D10AA90398E7
:1050D000029A904700282BD02846A8E7184979441F
:1050E000002A01D0022200E003227069B369DB6864
:1050F000984700282846059A049B98D17069B169A1
:10510000C96801911946019B9847002828468ED10D
:105110007069B169CB680C497944022298470399B8
:105120000028284683D108463146029A90477EE7F8
:105130001098C3680F98084979440222984776E787
:105140008731000011320000CB310000B83100007F
:1051500023320000FC31000029310000D0B502AF3D
:10516000044600796179002903D0002804D0012089
:1051700014E0411E8841D0BD2168087F400706D455
:1051800048698969CB6806497944022205E0486983
:105190008969CB6803497944012298472071D0BDC1
:1051A000E1300000D2300000DCB504AF00220192F3
:1051B000802903D201AA117001222FE0CA0A0AD164
:1051C0003F220A40803201AB5A708909C0220A434B
:1051D0001A70022222E00A0C0ED13F220A408032CD
:1051E00001AB9A700A0BE02414431C700905890E68
:1051F00080315970032211E03F230B40803301AA14
:10520000D3700B059B0E803393708B039B0E803302
:105210005370C902490FF0311170042201A9FFF740
:105220002BFEDCBDD0B502AF88B0019002AC1822D5
:10523000204602F022FC01A8034979442246FFF7E8
:105240005CF908B0D0BDC0463A30000080B500AF70
:105250000068FFF711FE80BD80B500AF0068FFF762
:10526000A3FF80BDB0B502AF86B004686D461822BA
:10527000284602F002FC20462946FFF7D3FF06B07D
:10528000B0BDD4D4DFB506AF0C460190486989693A
:10529000CB680B4979440D229847014602A80022A9
:1052A0004271017102940749794400910649794499
:1052B000042201ABFFF7B2FEFFF750FF04B0D0BDF0
:1052C000F82F0000210000003B2D0000D0B502AFF8
:1052D000006800780F4B7B440522C0467844007973
:1052E00040008744100206090D000B4B7B440C2242
:1052F00009E00A4B7B4401E0094B7B440B2202E0AE
:10530000084B7B44042248698969CC681946A04748
:10531000D0BDC046E52F0000C32F0000B02F000015
:105320009F2F0000DF2C000080B500AF00F001F8D7
:10533000FEDE80B500AFFFF77FFDFEDED0B502AF29
:105340000C46994204D11146224602F096FBD0BD8C
:105350002046194600F001F8FEDE80B500AFFFF7E9
:105360006BFDFEDE0068FEE7B0B502AF0B46C4B2CF
:10537000002001468A4204D05D5CA54203D0491C4E
:10538000F8E71146B0BD0120B0BDD0B502AF9942DB
:1053900008D10C461146224602F0D3FB014640429A
:1053A0004841D0BD0020D0BDD0B502AF9A4205D350
:1053B000D21A9C000C191AC00260D0BD0248784471
:1053C0002321FFF73EFDFEDE022F000080B500AF77
:1053D000FFF732FDFEDED4D4D0B502AFA2B00C464A
:1053E000C969CA0605D4890613D42146FFF71EFDF4
:1053F0002AE001687F200F220A400A2A01D357239E
:1054000000E030239A1802AB1A54401E0909F2D169
:105410000EE001687F200F220A400A2A01D33723B9
:1054200000E030239A1802AB1A54401E0909F2D149
:10543000411C02A8FFF732F8034600910349794462
:1054400002222046FFF71CF922B0D0BD022E000038
:10545000F0B503AF87B00190D51F0023072A00D213
:105460001D46C81C03240094A043461A594878449A
:10547000059003950696934200D38CE0CE5C74B2FF
:10548000002C19D4069E701C02D0F01A800702D09E
:105490005B1CF0E70833AB4208D2C858CC186468EC
:1054A00004434B480442F5D000E05B1C9342E2D237
:1054B000C8560028F9D5DEE70598805D01250495DA
:1054C00004280DD003281AD00228039D69D15C1C42
:1054D00094426ED208574026F643B04259DD60E050
:1054E000581C00259042029565D20856F02E14D023
:1054F000F42E17D17024E443A0421BDD51E0581C68
:10550000002502959042039D55D2085CE02E21D0E3
:10551000ED2E46B223D15F2030E07030C0B230288B
:1055200008D33EE00F34E4B2022C3AD83F24E443DF
:10553000A04236DA981C90423DD20C564020C0431F
:10554000844231DCDC1C9442039D34D20E578642E7
:105550001FDD2BE0E0242040A02812D021E02046CF
:105560001F30C0B20C2804D24020C043864208DD60
:1055700017E0E0B24008772813D13F20C0438642AD
:105580000FDA9C1C944216D208574026F643B042CC
:105590000ADC631C6FE701984160014682600020CD
:1055A00012E00498009002E002200090049802901B
:1055B00001E0002002900098C0B200020299081891
:1055C00001994B6088600498086007B0F0BDC04640
:1055D00080808080772E0000DCB504AF0068027800
:1055E000002A0DD0401C01900A48784400900A4CD3
:1055F0007C44042201AB08462146FFF77BFADCBD60
:1056000048698969CB680249794404229847DCBD1E
:10561000F1290000FFF6FFFFE9290000F0B503AF14
:1056200085B00E460546001D029048698969CB6821
:1056300010497944092422469847014603A80022CC
:105640004271017103960C49794400910B497944E8
:105650000B222B46FFF7E2FC0949794400910949E6
:10566000794402AB2246FFF7D9FCFFF777FD05B07E
:10567000F0BDC046B32D00008DFDFFFFA02D000042
:105680007BFFFFFF992D0000E0B502AFBC680094DE
:1056900000F002F8FEDED4D4F8B504AF1D4616467D
:1056A0000C4601210A020390214600F06DF8BA6809
:1056B000002808D1A64203D8A54201D8AE4214D989
:1056C000FFF7BAFBFEDE0346A04206D20398C0569F
:1056D0004021C9438842EDDC00E0EBD0009200227B
:1056E00003982146FFF7D0FFFEDE002E11D12E4693
:1056F000029203982146324600F046F802460028FE
:1057000010D1A24217D11F4878442B21FFF799FBF3
:10571000FEDEA6422DD2039880573F21C94388421E
:10572000E5DAE5E7A24226D2039880564021C94334
:105730008842E6DC20E003988018002141560029C9
:10574000BED5C9B2E029BBD3F029B9D34278C3781A
:105750003F241C409206920B80788006000D1018A2
:1057600000194907C90A4018112109048842A7D124
:10577000C9E7BCD0BCE7C4D002980090039821468A
:105780002346AFE7FA2C0000D0B502AF914213D9FF
:105790000346D01E00D20020511C81420ED39A181D
:1057A000091A002907D00023D356521E491E3F2450
:1057B000E443A342F5DB09180846D0BDFFF7B4FD6A
:1057C000FEDED0B502AF044600F0D3FD002801D1C3
:1057D00000F0D7FD00F0CDFD00280DD004212046BB
:1057E00000F0C0FD20780528F4D1E078410820467B
:1057F00000F088FDC0B2D0BD0620D0BD80B500AF9E
:105800000248784400F00DFB80BDC0463E2C0000ED
:10581000F0B503AFA5B00446807DC046784400795A
:1058200040008744010B1E710321204600F04EFD0D
:105830002069002800D11CE19A490CE003CC012327
:10584000022200920193083C00F012FD206900281A
:1058500000D10EE192491791169016A800F0A4FC11
:1058600007E101201A22089000F0C8FA0646257DBB
:10587000012D4ED904960FA805941126314602F049
:10588000A9F914A900248C700C80284600F09CFD16
:105890000E900D9115A98C700C80059D687D00F00F
:1058A00093FD089B2193804A7A4420920D9A1F927F
:1058B0000E9A1E921D937D4A7A441AAB07C30220AA
:1058C000039019907A487844189003CD1791169058
:1058D0002046302C28D0321A16A90919496891425D
:1058E00000D3114600291FD00D1800D3C8E0112D98
:1058F00000D9C7E016AA12590FAB18180B46FFF7CC
:105900001DFD08342846E4E70221204600F0DEFCB5
:10591000AFE003CC02220092089A019203223346A0
:10592000083C00F0A5FC99E016A80FA911252A460D
:10593000FFF78EFD1698002800D0A8E01899179C54
:105940002804099000230A930D948B4235D01D46FC
:10595000E31800229856C6B2002801D4581C27E04C
:105960000C925C783F200E9004401F203040DF2EC8
:1059700015D90B909A780E980240A401A418F02E25
:1059800011D3DE780E980640A401A4190B984007A5
:10599000C00A2618099886426DD0181D07E08001BC
:1059A0000619981C03E00B9800032618D81C0D9CC0
:1059B000031B002E1846C8D002E00A9805460B4685
:1059C00002900C958B423BD00E466018411E0D781C
:1059D0006AB2002A30D5811E0C780A9464B23F2541
:1059E0000E95ED430B94AC4212DAC11E0A950C7869
:1059F000069465B20A9C0795A5420DDA079D0E9C98
:105A00002540011F08784007C00D4519204607E0D2
:105A10001F200A9C044007E00F20069D05400E98B9
:105A20000B9C0440A80104190E980240A00185189F
:105A3000099885420D9C03D0091B002DC2D000E0BF
:105A4000029E03980090089801900C996018711AB2
:105A50000322049E334600F00BFC059CA068E1681D
:105A600000220223009301920E360322334600F0F7
:105A7000FFFB25B0F0BD2B460C9D28460D9C9FE7F3
:105A8000294601E011212846FFF74EFCFEDE0948B9
:105A9000784422A9084A7A44FFF798FCFEDEC04603
:105AA00038000200100008005B2C00004A2C0000A7
:105AB0003A2C0000F62B00009A290000F0B503AF45
:105AC0008BB00B46044600686168294A7A4400920C
:105AD000112204935A43134611338B4200D30B46D1
