:02000004C0DE5C
:1000000080B56F4606F05EFD012005F005FFFEDEBF
:1000100080B56F46C6B000204FF489718DF8170186
:1000200001AC204607F046FF20464FF4604105F042
:100030002FFD002005F0F0FEFEDED4D480B56F4623
:100040008EB006F068FC08220748079178440B90B0
:10005000022005920990054A0290684600917A4470
:1000600006F015FC0EB080BD788A00001E8A0000E4
:1000700080B56F4688B0012004218DF81C000691E0
:1000800005490190794405910221039101A80121BC
:1000900005F058FE08B080BD688A000080B56F4644
:1000A0008EB006F038FC07220748079178440B9081
:1000B000022005920990054A0290684600917A4410
:1000C00006F0E5FB0EB080BD2B8A0000128A00000E
:1000D00080B56F468EB004F0DFFC002101228DF860
:1000E000341002210D230991079205930C4B0291C4
:1000F00008217B440493009200288DF8182018BF33
:1001000007210C91074808497844794418BF0146F3
:100110000B916846022105F015FE0EB080BD00BFB0
:10012000D68B0000C1890000AA89000000B1704789
:1001300080B56F4602482B21784404F070FFFEDE44
:100140009C8E0000F0B503AF4DF804BD0D4604468B
:10015000D2E90101884201D1B8680CE0104603F0F1
:100160006FFD00F001000E46FFF7E0FF4FF6FF7352
:100170004FF6FF702E70A08000206380207006F084
:1001800076BB027801460120C32A0AD0B1F8442088
:10019000012A98BF0246B1F94810B1F1FF3FC8BF2C
:1001A00010467047D0B502AF044606F087FF0648F8
:1001B000784405F0F0FD0548784405F0ECFDA047D3
:1001C000BDE8D04006F082BFA0890000B4890000DD
:1001D00001487844FFF7E6BFFBFEFFFFC0B20328EB
:1001E00011D8DFE800F00208060C09487844FFF750
:1001F000D9BFFFF7EDBF07487844FFF7D3BF0648E4
:100200007844FFF7CFBF80B56F4604F003FFFEDEF2
:100210004DFEFFFFA1FEFFFF6DFEFFFF80B56F46A5
:10022000ADF5156D4FF0000B4FF489718DF877B176
:1002300019AC204607F03EFE5EAD142105F20C40DD
:10024000079007F037FE05F58070CDF870B2ADF875
:10025000B0B1039004F02DFB05F503704FF400716D
:1002600007F028FEDFF8480C0DF2A4564FF4007199
:100270008DF898B54844E09006F10C00CDE9DEBB5E
:10028000CDF878B107F016FEDFF8280CCDF8A8B548
:100290004844CDF8AC050120CDF8A4B5CDF8D2077F
:1002A00000208DF8B0B7FFF799FFA7F14C000DF5CE
:1002B000FB68011D0E9108F10801059108F1040188
:1002C0000F9100F108010D91A7F1E401DFF8E8AB0F
:1002D00003310991C11C089106F20D21064605F172
:1002E0000800049006910021002018906DE105F0AF
:1002F00078FD08B905F07EFD4046802105F06DFDD2
:100300009DF8D817A1F10E00082815D8BDF8D91707
:10031000DFE810F0F400090025003200320032005E
:10032000320032002E0088B2B0F5807F04BF9DF805
:10033000DB0705F053FB1FE005291DD19DF8DB17F6
:100340009DF8740140EA5102490800288DF8742193
:100350006ED0002900F0838003290DD121E108BA75
:10036000000C022808D92046414605F0FDFA03E0BA
:100370002046414605F0D0FA19F80A000028B6D008
:1003800009EB0A0040880028B1D004288DF877B125
:100390005A9005D2204646F6036105F079FBA6E7A0
:1003A0003046214605F054FB57F84C0C48B39DF8F5
:1003B0006400B02804BF9DF86610002927D09DF87E
:1003C000751119B19DF87611884254D1199EC6F362
:1003D0000720032840F28C805B98810840299FBF4A
:1003E0006E2121545B98013098BFB0F5827F80F078
:1003F0004585012121545B9806F058FAA7F14C0677
:1004000075E737F8481C204605F042FB6FE79DF87A
:1004100067100029D3D19DF86500012831D0A728A5
:1004200000F03185204646F6016105F031FB5EE7BC
:100430000329A1D80FF20C06022006EB8106012247
:100440000023B74600F006B800F0B3B800F0AEB82D
:1004500000F0B0B88DF874B1A7F14C068CE7012814
:100460008DF874B100F0A480022800F09E8003286B
:100470007FF482AF97E020464FF4DC4105F008FBA3
:1004800035E75B9A01208DF86400501C5B90901C4E
:10049000B0F5827F80F0F2842118C2F581720120CC
:1004A00006F0C6FD01465B98B0F5827F3FBF215440
:1004B0005B980844421C3EBF5B920230B0F5827FDD
:1004C00080F0DC84211840F20310821A022006F02A
:1004D000AFFD01465B98B0F5827F80F0CF84215458
:1004E0005B98084401305B90204605F0F2FAFEE686
:1004F000DFE800F006020802350A04E0189964E01B
:10050000002500E002255A98002844D0A7F1F80001
:10051000142107F0CFFCF0B280283FD1E54BE64A2A
:10052000E8B2E64D7B447A447D441695E44EE54DB1
:100530007E447D441595DFE810F00400A600D40049
:100540000901E148784403F022FA00F00100169016
:10055000DE4E0D467E44B047DD48784403F017FA7E
:1005600000F001001591B04716982946B04715983C
:1005700041468DF8D907204603228DF8DA578DF8C9
:10058000D85705F0C3FAA7F14C06179A20461792E0
:1005900005F09FFA84E103236E256EE16E250023AA
:1005A0006BE1022006E0052004E00422104601E091
:1005B000032318461899A7F14C06052805D8189961
:1005C000DFE800F0111E031424160D46404680217A
:1005D00007F070FC09EB0A0009F80AB080F806B0D1
:1005E000A0F802B083E6BB4878440BE0681E0EE03A
:1005F000E8B2022813D003282946E6D100F046BC11
:10060000B548784405F0E1FB2946DEE7681C00F0B8
:1006100003052846FFF7E2FD18952946D5E7AF4EBA
:100620007E44B0470546B04704F054FA01464046C0
:100630000A2207F017FC284604F04CFA0078B0FABA
:1006400080F040098DF8D807B0470546064615F8F2
:10065000801F007804F060FA169000282846414672
:1006600018BF304604F076FA1698002808BF3546C1
:100670009B492846A7F14C06794404F085FAFFF718
:10068000A7FD0221A1E740462146CDE9126314925D
:1006900005F0DEF9DDF8D857002D00F0EB80DDF82D
:1006A000DC07A7F14C06152840F0008106F0E9F8B8
:1006B000002800F0FB809DF8673000209DF8662040
:1006C000032B88BF0120111F18BF0121CDE90B3278
:1006D0001A4300F06481084300F061816E25022313
:1006E000CDE0404621461492CDE9126305F0B0F901
:1006F000DDF8D857002D00F0BD80DDF8DC07A7F14C
:100700004C06342840F0D28006F0BBF8002800F0F8
:10071000CD80304606F0AEF814350020202800F0D9
:100720001481295C5722A02938BF302202EB111214
:1007300006F8102001F00F0157220A2938BF302295
:10074000114406EB400201305170E7E74046214674
:100750003546CDE9133205F07BF9DDF8D827002ABC
:1007600000F088809DF89805A7F14C06DDF8DC378D
:10077000002800F0C180012840F0E4809DF8660068
:10078000012840F0098111461A465EA80DF2A453D3
:1007900000F0CCFF82B24EF601718A4240F08E81A9
:1007A0009DF89805179A02287FF4F0AE9DF8B007DF
:1007B0001295002800F07183A7F1E405212106F0CD
:1007C00039F80698294605F00DFF02F045FD02466E
:1007D0000B46114630461A4602F094FD57F84C1C61
:1007E000002900F09182BDF8D20757F8483C3D4AF5
:1007F00001283D487A44784440F08F8247E9251328
:100800000423042147E9272311919DF8D517374A7E
:100810000029139B7A4408BF1A4647F82C2C344A07
:10082000344B7A447B4408BF1346A7F19C0247F837
:100830004C2C149A47F8282C102247E90F021698DE
:1008400047F8240C062047F8300C129847F8340C6F
:10085000012047F8443C002947F8480C08BF022013
:1008600047F8400C304600F03FFB002840F075820E
:100870006E25E6E2BDF8DC371D0AA7F14C06179A93
:100880005B98810840299FBF25545B980130B0F5E3
:10089000827F80F0F38223545B98179206F006F86B
:1008A000189D2846FFF79AFC29468EE66E250323FD
:1008B000E5E700BF0C8700005A8700008C87000026
:1008C0006487000005880000598800007D3400001E
:1008D0004488000018850000068500008D44000053
:1008E00027870000F48200004E840000E8840000A6
:1008F000E2830000B484000012956E250320172BBC
:10090000C0F0E0809DF86610002940F0DB800020F8
:1009100014211592119300F053FD079D2A4605F00E
:100920001FFC002800F0CC8005F0CDFF4046294692
:1009300000F079FD9DF8D857202D40F0D380E025B8
:100940000520BFE0EF250020BCE017F84C0CA7F114
:100950009C0608993D22119037F84B0C10903046B8
:1009600007F080FA099831463D2207F07BFA10988B
:10097000A7F14C0627F8E30CA7F1E40111984022F7
:1009800007F8E40C304604F0A3FC57F84C0C0028A0
:100990004BD0EF25002372E76E25022092E00C98E1
:1009A0000295002800F0948005F088FF9DF8D80794
:1009B000202800F0938010904822DDE90E019DF878
:1009C000D957BDF8DA6707F057FA0D9940460A95EE
:1009D00007F84B5C109D119605F032FF002041F2A4
:1009E0000551202806D018F8002001EB41110130F4
:1009F0001144F6E741F001000C9A00BA57F8E86C90
:100A0000010C81EA102181EA10614840C0B2B0FBBC
:100A1000F2F101FB12000B99884200F0BD80701CBE
:100A200047F8E80CA7F14C06BEE7052257E912018A
:100A300047F8502CEE4A159B7A4447F8542C07226D
:100A400047E92501042047F8582C47F85C3C47F853
:100A5000980CE84847F8382C784447F89C0C1398D1
:100A600047F82C0C022047F8400CA7F15C0047F82F
:100A7000440C012047F8480CA7F19C0047F84C0CA7
:100A8000149847F8280CDC48784447F83C0C05F0EB
:100A900086FE002800F03581A7F1F80140462A467D
:100AA00000F0AEFDBDF8D807C0B90F99304605F08B
:100AB00002FF05F0F6FE05F0AAFE1FE1150A01E0AF
:100AC000E025032011905EA800F019FE119BD6E6E8
:100AD00005F0F4FE9DF8D857202D6BD1BDF8DA371C
:100AE0001D0ACCE69DF8D90748221090DDE90E01D9
:100AF000BDF8DA6707F0C0F90D99109807F84B0CAC
:100B0000404605F09DFEA7F1E405A7F19C00414693
:100B10002A4600F0C7FD57F89C0C002800F0F7802B
:100B2000049829462E2257F8985C07F09BF901207B
:100B300011998DF898051422CDE95E05159800F0FD
:100B40004EFC0E46022940F2A58181780546012916
:100B500006D1159103F0A0FF1599002800F015812A
:100B600001208DF8D4B7ADF8D207481EB0FA80F056
:100B7000CDF8A8B54009CDF8A4B58DF8B0B70DF201
:100B8000A4538DF8D5075EA82946324600F0CEFD65
:100B9000A7F14C06129DFDE50E99A7F1E40005F0C2
:100BA0008AFE202D17D1119B0A9A0196A7F14C06B7
:100BB0001D0A65E6BDF8DA07482211909DF8D907AD
:100BC0000F991790A7F1E40007F056F957F8E81CC1
:100BD0000F98019105E00A9817900F980196A7F1D8
:100BE0004C06A7F1E40105F066FE1198ADF8DA07AE
:100BF00017988DF8D90702988DF8D857007D0028EE
:100C000070D005F060FEA7F19C050599284600F01C
:100C100057FCA7F15C00A7F1E402294600F042FD71
:100C200057F85C0C002800F0AA800E9DA7F1E401A3
:100C300057F8580C2E221190284607F013F91199F5
:100C4000284647F84C1C00F049FD02460B46A7F128
:100C5000E40011461A4604F03BFB57F8E40C002868
:100C60007FF497AE082257E9380147F8502C934A91
:100C7000159B7A4447F8542C072247F85C3C47F808
:100C8000582C47F8901C47E926208D48784447F8AF
:100C90009C0C139847F8C40C022047F8D80CA7F115
:100CA0005C0047F8DC0C012047F8E00CA7F19C0041
:100CB00047F8E40C149847F8C00C0F2047F8D00C04
:100CC0008048784447F8D40C169847F8BC0C0620A6
:100CD00047F8C80C129847F8CC0CA7F1E40000F0D4
:100CE00003F970B105992046412204F00FFF0198E5
:100CF0003146042200BA47F84C0C204604F006FFA7
:100D000043E46E250423BAE537F8480C97E037F83A
:100D1000980CA7F14C06050AD4E647E925130421EF
:100D200004231191002147E9272347F82C1C47F899
:100D3000401C6749794447F8441C012147F8481C86
:100D4000A7F19C0147F84C1C149947F8281C102166
:100D500047E90F0105F023FDA0B19DF89805022891
:100D600040F09F800399304603F0E6FD17F84C0CE5
:100D7000002843D037F84A0CADF8DA075FE037F8BF
:100D8000583CADE600206E255CE006F097F90F2098
:100D90008DF80CB8CDF8080802224B480121CDF897
:100DA000FC277844CDF804080D20CDF8F4178DF811
:100DB000F0B7CDF8EC074548CDF8D81702217844B4
:100DC000CDF8E8074046CDF8E02704F0BBFF06F079
:100DD0007DF9A7F14C0647F84CBC07F848BC3046F3
:100DE00004F052FCC0B20528F9D1E025042069E6E0
:100DF000D88000008C8000008D8000000E99A7F143
:100E00009C001D2217F84B5C37F84A6C07F02AF853
:100E10000998A7F19C011D2207F024F80799A7F172
:100E2000E402404627F8E36C07F8E45C00F0E8FBD6
:100E3000BDF8D80788B1BDF8DA07A7F14C061190C4
:100E4000050A002016905EA800F059FC1698179A23
:100E5000119B00287FF49AAB12E5A7F14C060F997D
:100E60004822304607F008F805F01BFD05F0CFFCDE
:100E700004F04CFE002501201690E4E74FF4827147
:100E800004F0A0F9FEDE19A804F023FE002004F00F
:100E9000C3FFFEDE02203146F2E70E4827217844E8
:100EA00002E00D482421784404F0B9F8FEDE00BFCA
:100EB000000000000008000004200000C27D0000C7
:100EC000577F00005A7E0000067E0000DD7D000096
:100ED0006C920000727E0000D17C000080B56F46ED
:100EE000FFF796F8FEDED4D4F0B503AF2DE9000D80
:100EF000D6B00446C068E84D7D4478B1012811D1D0
:100F00000120216A8DF85C000020CDE91450A06812
:100F10001691D0E90001CDE912010FE004208DF80F
:100F20005C000BE00020216A8DF85C00A06816913F
:100F300090E80E00C068159012A80EC012A800F02C
:100F40001FFA04F1100C4FF0000A2A46CDE91A5A94
:100F50009CE803104FF00108D4E90956E369CDE994
:100F60001801D4E9000B1C950BF101050490681ED3
:100F70008DF874808DF88C801092CDE9202A22960D
:100F8000CDE91EC338BF50460A90ABF1010009906D
:100F9000C24878440D90C24878440C9026AE002098
:100FA00011900E95A84227D05845109E3ED105F0CD
:100FB00034FC0D9804F0EFFE0C9804F0ECFE18A839
:100FC00004F09AFB06F082F80E9D26AE304604F03F
:100FD0005BFBC0B20628F9D0052800F0BB810428CD
:100FE00022D00328F2D10998BBF1020FDAD212A85D
:100FF00000F0C6F90020D5E705F00FFCDF48784483
:1010000004F0C9FE1EA804F077FB06F05FF8304636
:1010100004F03AFBC0B20628F9D0052800F09A8106
:101020000328F4D10A98BDE72846BBE780F09881F1
:101030000499CDF890A001EB00148DF894A09DF8D0
:101040005C30224652F80C1F0B923322B1FBF2F2B5
:10105000119911F0010118BF114607940834069444
:101060000C4683F004010190084318BF012005904D
:10107000501C02920390CDF820B006F01FF800201B
:10108000022270280AD026A941F8008001441C30B1
:1010900081F818A0C1E9046A8A60F2E70B9904EBB1
:1010A00044000F940025D1F800B006990C68542D27
:1010B000119549D008B31121A0FB0101002943D1AA
:1010C000584541D200F1110122468B455B460E4640
:1010D00038BF5E46814238BF5E46314600F070F947
:1010E00005468846324620465946109E00F077F95C
:1010F00055B382468B462C460CE0BBF1000F23D043
:101100004FF01108BBF1110F38BFD846ABEB080BFD
:1011100004EB080A4AA82146424604F0D9F826A85A
:10112000119D0222411900204A62012281F83400F7
:10113000CA614AAC1CCC002A1CBF04463346C1E934
:101140000B341C355446B2E742A81521202207F083
:1011500018F80F9981B90B98006833280CD2079CB6
:101160000020616842AA00F044F9D4E9002304F0A9
:101170008BF80DF5947854E04FF0000B481C8DF877
:1011800022B1ADF820B18DF826B1ADF824B148A94F
:1011900004F0A2FE044603980D4649A904F09CFE03
:1011A00001230DF5947855936F4ACDE951307A4477
:1011B000CDE953126D48CDE94E4578445090022058
:1011C0004D906B4878444C900798D0E90001CDE9E8
:1011D0004A010020BBF1060F22D008EBCB01C0F181
:1011E00015064D68B54238BF2E46CEB1341842AA16
:1011F000214600F0FEF880464AA88A46294650F863
:101200003B00324600F004F902460B464046514688
:101210000DF5947804F038F80BF1010B2046D9E76E
:10122000109E42A94046152204F052F8DDE94A100A
:101230004FF0000A4C9A4FF0010800291CBF52469B
:101240003046DDF820B024AC002A3ED08418114688
:10125000224612F8015D6BB2B3F1FF3F30DC22464B
:1012600012F8026D75B215F1400F11DA224612F82C
:1012700003CD4FFA8CF616F1400F13DA06F03F0259
:1012800014F8046D06F0070642EA861622460BE0C3
:1012900006F01F040CE000BFA8900000BE7B000019
:1012A000D47B00000CF00F0605F03F0444EA8614DE
:1012B00003F03F03109E43EA8415B5F5881F06D05E
:1012C000121A24AC202DBFD003E0002101E0002140
:1012D00024ACCDE92A010220289005988DF8B08031
:1012E000CDF8988018B12348784404F054FD224882
:1012F000784404F050FD26A8042104F023FD05F0F5
:10130000E5FE204604F0C0F9C0B20628F9D0042852
:1013100005D00328F5D10F9C54B1013CADE60299EC
:101320000F9C8C4209D0601C884298BF0446A4E6FA
:10133000019848B10138012102E0019800210130F3
:1013400011910E9D26AE2DE612A800F019F800208E
:101350001190F6E7601B18BF012056B005F030BAB7
:10136000594603F02FFFFEDE257E0000BC79000009
:10137000B0790000687800007C780000527B0000A3
:10138000DCB504AF0446007D042815D005F096FEB8
:101390000A48784404F0FFFC204604F0ADF905F05B
:1013A00095FE00206C4600908DF80400204604F065
:1013B0006BF9C0B20428F9D1DCBD00BFDA770000B8
:1013C00080B56F46814207D399429FBF0244091AF4
:1013D000104680BD0846194603F03AFEFEDE9142F3
:1013E00022BF1044891A704780B56F4605F090FA05
:1013F000FEDE80B56F46814207D315299FBF0244A8
:10140000091A104680BD0846152103F021FEFEDEB4
:10141000D0B502AF04460B46114600202246BDE877
:10142000D040FFF7CDBFF0B503AF2DE9000DB0B050
:1014300013AE8046304602F099FB9DF84C401DAD3E
:1014400005F1080041214FF0410A06F033FD204626
:10145000294632460123CDF878A08DF8744005F076
:10146000ABFD18B102F0ACFB05460CE0291DBDF840
:1014700076609DF8744048229DF8755001A806F0EA
:10148000FBFC202C09D145F06E00C0B2A8F8020088
:1014900013A803F003FA20240BE008F1040001A9CB
:1014A00005F009FA13A803F0F9F9A8F8026088F822
:1014B000015088F8004030B0BDE8000DF0BDD4D434
:1014C000F0B503AF4DF804BD92B0A7F155060D4637
:1014D0000446701C013105F0B0F995F84000012177
:1014E00061F35F0007F8550C09AD3146284603F05B
:1014F000F7F99DF8240038B9691C204605F09DF9DC
:1015000012B05DF804BBF0BD0448A7F11201044A13
:1015100078447A4403F088FDFEDE00BFA478000022
:101520001A7600007047D4D4D0B502AF0088A0F579
:101530006042052A0CD9A0F5DC42042A11D8DFE864
:1015400002F003171B1F2300214C06227C4435E0C8
:10155000DFE802F0031D2125292D224C10227C44B6
:101560002CE0B0F5104F26D1184C02227C4425E027
:10157000184C06227C4421E0174C07227C441DE0D5
:10158000164C06227C4419E0154C7C4415E0164CA0
:101590000F227C4412E0154C08227C440EE0144CCF
:1015A00014227C440AE0134C14227C4406E0124CC2
:1015B00017227C4402E0114C7C440D22D1E9050144
:1015C000CB682146BDE8D040184700BFA77900008E
:1015D000C9790000A7790000A5790000A47900006E
:1015E000A4790000F6760000A97900006A74000072
:1015F000A8790000B4790000C0790000D17900001A
:10160000F0B503AF2DE9000DB6B0824618A890469C
:1016100002F0ACFA1998212801D2032607E03128FC
:1016200001D2042603E00926412838BF052622AD51
:101630004821482405F0FEF800203494359035A860
:10164000202234A9CDE900253246CDE9021018A8A0
:1016500040F20161434605F0AAFC28B14EF20100B8
:10166000AAF80200012014E0A7F1DA0022A9851CE3
:101670004822284606F0F6FB0AF1040029464822D3
:10168000DDE9344606F0EEFB06F00100CAE913403E
:101690000020AAF8000018A803F000F936B0BDE851
:1016A000000DF0BDD0B502AF86B004462020CDE9D4
:1016B000031001200290A7F109000190002007F813
:1016C000090C01A8114604F061FD08B1616002E057
:1016D0004EF20201A180206006B0D0BD0A462E2144
:1016E000FFF796BEB0B502AF0D4602C81446FFF72D
:1016F000F5FF2A462346BDE8B04003F0A1BEB0B5D1
:1017000002AF0025044605871521C0F8F85000F205
:101710000C4006F0CFFB04F580704FF4807105F0AB
:1017200041FCC4E980552560B0BDD4D4F0B503AF09
:101730002DE9000DADF51A7DFF2A03D946F60366A3
:1017400001F002BD8046002050AC62AD4C9008F51F
:1017500000704D9004F13F003B9005F13F003A903E
:10176000E81C2590681C2D9004F121001E9005F1C5
:1017700008001F9008F14100249008F1BC00399046
:1017800008F1A1001D9008F14B001C9008F50370B2
:10179000219003F20D20CDE93E1208F1440ACDE973
:1017A0004A120DF5947B32908AA803301B90201DBD
:1017B0001A9008F1C0002E9008F14600309008F110
:1017C00042003C9008F16C002A9008F13E002990FC
:1017D00008F14C00369008F145002C9008F16400A7
:1017E000199008F17200279008F14900269008F13D
:1017F0003D002F9005F13600189005F10D0017906F
:1018000005F12400169005F13000159008F1E40070
:101810002B9008F13C00469008F19400289008F1C4
:101820004A00349008F17000359008F15000339070
:1018300008F14800209008F1A000319008F1C200A2
:10184000379008F1F000389008F14000489008F116
:1018500039003D9008F10400239008F138044193C9
:10186000CDF800A1CDE9444800202290DDE94B01EC
:10187000884201F0308420464FF6FF76B8F8F850E1
:1018800004F047FC80B2854281F052842078DFE882
:1018900010F00600060017008200CE00A604B8F87B
:1018A000FA005A463D992B4600900DF59D70FEF7C3
:1018B00049FC9DF83A01002800F0488601F038BC48
:1018C000DDE94B65AE4200F00B86469CB8F888A077
:1018D0002046FEF756FC80B2824581F0DF832078F7
:1018E000C3281CD1B54281F0E583681C4C904A980E
:1018F000465D01200125FEF719FC4FF6FF704FF6FB
:10190000FF74EEB1012E41F0D983469C204604F0CD
:1019100003FD2078C32801F0C183B8F888A0B8F887
:101920008A002146009062A85A46534602F04EFBB8
:1019300004F049FF41F0B983BDF88C01BDF88A413C
:1019400004EA00064FF6FF7AB6EB0A0518BF054613
:10195000B8F88800564508BF441C46981FFA84F81A
:10196000FEF70FFC80B24FF6FF718045DDF8148161
:1019700008BF5546A8F88A5008BF5446A8F88840C2
:10198000564540F0AD8504EA0500884298D14FF6EF
:10199000FF7000F0D7BD62AC4FF6FF75DDE94B017B
:1019A000884200F09D85B8F86800012801F2748330
:1019B0000CD0002841F0708346995A46B8F86A0066
:1019C00000230090204601F0AFFC08E0B8F86A0060
:1019D0005146009020465A46012301F019FF04F0B9
:1019E000F2FE41F05D83BDF88C21BDF88A0100EA6A
:1019F00002018BB2591B18BF1146B8F86820AB42E0
:101A000008BF501C82B2022A08BF2946A8F86A10F3
:101A100008BF2846AB42A8F8680040F0618508403E
:101A200080B2A842BAD104F064FF00F08BBDB8F9CF
:101A3000E840B4F1FF3F40F35885B8F8E2104FF6A4
:101A4000FF72B8F8E000904208BF91420DD139987A
:101A5000242106F02FFA0A20002188F83C00601C9F
:101A6000A8F8E8000020C8F8E010DDE94B524FF676
:101A7000FF74954200F0A88780B2022801F25883D3
:101A800030D0012863D0002841F0528339981FFAE2
:101A900081FBDDF83081002658444790CBF10400EB
:101AA00049904A984390954262D0499886425FD2C5
:101AB000AA42144605D2439802F10108444610F8A0
:101AC00002A00020AA4238BF0120FEF72FFB0BEB3B
:101AD0000600032801F21B834798224600F806A05F
:101AE0000136E0E7469890F800A0BAF10A0F40F0FE
:101AF0000081AA4281F00783501C4C904A98855C73
:101B00000120FEF713FB032D01F212830DF1300EBD
:101B10004FF0090A9EE844400DF50A7B119BDDE970
:101B20000FC1DFE805F0025872B15846152106F0E2
:101B3000C1F900204FF0060A4FF0000C4FF0000EE4
:101B40000023002600220021089007909CE00091CD
:101B500082A82E995A46012301F026FE9DF808021C
:101B6000002841F0E582BDF80C22BDF80A020DE024
:101B7000CDF8308106EB0B02DDF81481042A4FF614
:101B8000FF71B8F8E00004BF08460A4600EA020107
:101B90004FF6FF748BB2191B18BF1146B8F8E0203E
:101BA000A34208BF501C82B2032A08BF2146A8F8EE
:101BB000E21008BF2046A342A8F8E00040F00487E6
:101BC00082B20DF5947BA24204BF8AB2A2427FF496
:101BD0004CAF01F03DB82D9804F046FE62A958467E
:101BE000222206F03FF900204FF0070A0B904FF039
:101BF000000C4FF6FF704FF0000E0A900020099085
:101C000000230026002200213EE0159804F084FB0A
:101C1000169800214FF0050AADF8B4418DF888A15F
:101C200022220160C0F80310BDF88A011090BDF8AF
:101C3000900111909DF8890107909DF88D01BDF8E4
:101C40008E61BDF892519DF88CB108909DF8944139
:101C50008AA8179906F006F99DF8B7014622069062
:101C6000BDF8B8010A90BDF8BA010B90BDF8BC01EF
:101C7000099050A8189906F0F5F85A460DF50A7B18
:101C8000DDE91013AE46A446089888F8410007988D
:101C900088F83D0026980C9288F840202222109166
:101CA000A8F83E105946CDF83CC088F848C0CDF899
:101CB00038E0A8F846E01193A8F844300D96A8F84B
:101CC000426006F0CFF809984622A8F870000B98F9
:101CD000A8F86E000A98A8F86C00069888F86B00BF
:101CE000279850A906F0BEF8002088F83CA0C8F854
:101CF000B800AAF10600DDF800B1C1B24FF6FF72DC
:101D000005294FF0020128BF0846C1B24FF6FF7007
:101D1000DFE811F006009B01110005000E0A35E70F
:101D2000B8F8E200B8F8E030009082A82F994AAAEB
:101D300001F0BEFD12E7DDE94B0A504500F0468296
:101D400040464FF6FF76B0F9B440B0F8B050B8F85E
:101D5000B8802146284604F0D1F980B280454AAACD
:101D600081F0AF81012D4FF0010098BF0546B4F11D
:101D7000FF3FD8BF0546A8451ED245984346B0F858
:101D8000BA00009062A82A9902F020F94AAB5246A4
:101D90000BCB02F001F902464D9804F0A5FDC0B24C
:101DA000042841F0C08104F00EFD41F0A981BDF886
:101DB0008C01BDF88A8118E1459CB4F96810B1F135
:101DC000FF3F14DDB4F860004FF6FF73984225D151
:101DD000B4F86220229C9A4221D1459A0520013113
:101DE00082F83C0000201066A2F8681017E0B4F8F2
:101DF000BA004346009062A8199901F018FB04F05C
:101E0000E2FC41F07D81BDF88C01BDF88A1101EA48
:101E10000002B24200F0CF808846E6E0229CDDE975
:101E20004BA18A4500F0D680000441F04A814698D3
:101E300090F800B0BBF1050F24D1514581F05681D7
:101E4000481C49904C904A9810F801B00120FEF7C8
:101E50006DF9BBF1040F01F24C81DE46DDE912257C
:101E6000DFE80BF0190303121700002512218DF88B
:101E70002A52ADF8285262A806F01CF84FF0000E66
:101E8000002208E0A64624E04FF0FF324FF0000E9B
:101E900001E00425A646459C00202C990DF5C47C44
:101EA000139584F84400206484F83F00BDF82802AC
:101EB00008809DF82A02887084F83E5084F83DE03E
:101EC0001292A26436999CE86D006DC184F83CB012
:101ED0004999DFE81BF010000600060018002200F8
:101EE000F6084598744604F09FFC50A82F994AAA1A
:101EF00001F08EFC1AE08A4542D14598B0F8621094
:101F0000B0F860001CE04598744604F08DFC50A8C1
:101F100048994AAA01F0F4FA08E04598744604F09A
:101F200083FC50A829994AAA01F03EFB9DF8400184
:101F3000002841F0D880A646BDF84411BDF8420102
:101F400000EA01034FF6FF755A1B18BF0A46459C6D
:101F5000AB42B4F8601008BF481C81B2012908BF29
:101F60002A46A4F8622008BF2846AB42A4F86000C5
:101F70002FD100EA02017446A9427FF450AF2EE04F
:101F80007546514504D2481C4C904A98445C00E088
:101F900000240020514538BF0120FEF7C7F8601E1D
:101FA0002F99B0FA80F0AE46400908704FF6FF71E5
:101FB0004FF6FF70C4E7459C0021B4F86400A4F814
:101FC000681000287FF4FEAE4FF6FF784FF6FF70E2
:101FD0000BE0744645982294B0F8BA0005E04FF63D
:101FE000FF784FF6FF70CDF888E008EA00054FF65D
:101FF000FF7BB5EB0B0418BF0446459EB6F8B41042
:10200000B6F8B000B6F8B8A004F078F85D4580B234
:1020100008BF0AF101081FFA88F1814208BF5C4637
:10202000A6F8BA4008BFD846A6F8B8805D454FF676
:10203000FF7140F0C98008EA0400DDF8148188428D
:102040007FF479AE4FF6FF70C4E00DF5C47A4FF619
:10205000FF75DDE94B01884200F0B880B8F83E001A
:102060000121012898BF0846B8F96C40B4F1FF3F40
:10207000D8BF0846B8F86E30834281F01980B4F1B9
:10208000FF3F59DD3C99BBF800000988A94208BF11
:10209000A8420BD1349804F0E7FB3C9900202A9A1F
:1020A000C1F803000860611C11800021DDE94B23A9
:1020B0009A425CD089B2012900F2FA870AD000293D
:1020C00040F0F6873499002300904AAA504601F068
:1020D000EFFB06E03099012300904AAA504601F038
:1020E000A6F904F070FB40F0EE87BDF88C214FF6A6
:1020F000FF76BDF88A113C9D01EA020083B2288870
:10210000B34208BF411C8CB2022C08BF3146298063
:102110004FF6FF75581B18BF1046022C08BF284603
:10212000AB42ABF8000022D101EA000292B2AA420F
:10213000BCD104F0DEFB1EE03598299900880090A0
:102140004AAA504601F073F904F03DFB40F0BB870A
:1021500004F0C3FBAA420ED12A9800244FF6FF7167
:1021600004802998008804F088FB8BD103E0B8F83C
:102170007010B8F86E0000EA010301265A1B18BF60
:102180000A46B8F83E10012998BF3146B8F96C40AC
:10219000B4F1FF3FD8BF3146B8F86E40AB4208BF3C
:1021A000601C84B28C4208BF2A46A8F8702008BF81
:1021B0002846AB42A8F86E0008D11040A8427FF430
:1021C00048AF04F096FB05E0DDF81481B8F8E210A2
:1021D000B8F8E000ADF80C12ADF80A02C3E4B8F9A3
:1021E000F4A0BAF1FF3F40F39C81B8F8EAB04FF693
:1021F000FF75B8F8E830AB4208BFAB4522D137983D
:1022000004F032FB04204FF0000B88F8A0004521B9
:102210003698C8E910BB88F84AB0A8F848B005F06D
:1022200049FE4FF0FF300023C8F89C000AF101007E
:1022300088F898B0C8F894B0A8F89250A8F8F400BC
:10224000C8F8E8B0DDE94B40844200F0A282B8F85B
:10225000481001224FF6FF7A012998BF1146B8F9BC
:1022600092500522B5F1FF3FC8BF0A1D96B29AB23F
:10227000B24280F05D87022A0CD0012A47D0002AA2
:102280004ED1CDF800B050A837994AAA002301F0EA
:10229000BFFA54E01FFA8BF63821A1EBC605489926
:1022A0001496D1E900B2C6F10801479100264A9977
:1022B00042914C99439184424DD047998E424AD2E3
:1022C00049961646A042804606D2429900F101087E
:1022D000CDF80C8111F800A0A0424FF0000038BFEB
:1022E0000120FDF723FF05F038025FFA8AF0002194
:1022F00005F0B2FD32464BEA000B489841EA06026F
:10230000499E083DC0E900B201364046D3E7CDF80A
:1023100000B050A831994AAA012301F045F90EE016
:102320000320B5F1FF3FC8BF881C80B2824250D95C
:10233000CDF800B050A828994AAA01F0E1F89DF81C
:1023400040014FF6FF75002840F0F286BDF84401C9
:10235000BDF842310CE0439802234C904FF6FF75D4
:1023600014983044082804BF2B462846DDF8148111
:1023700003EA0001B1EB050B18BF8346A942B8F888
:10238000E80008BF431CB8F84820012598B2012A8C
:1023900098BF2A46B8F99250B5F1FF3F4FF00505B6
:1023A000C8BF151DAAB290424FF6FF7508BFAB46D5
:1023B000A8F8EAB008BF2B46A942A8F8E83040F0D8
:1023C000E88103EA0B0080B2A8427FF43BAF00F043
:1023D0003CBCB5F1FF3F14DDB8F84E004FF6FF727C
:1023E000B8F84C10914222D14AAE904220D1369892
:1023F000452105F05FFD681CA8F89200002000212F
:1024000016E0CDF800B062A820994AAA01F00FF8B2
:1024100004F0D9F940F08C8604F05FFA524553D0AD
:102420004FF6FF75ADF84411ADF842018EE74AAEA4
:1024300062AC4FF6FF75DDE94B239A423FD089B27B
:10244000012900F275860AD0002940F0718633997F
:10245000324600902046002301F0A6F906E03599A7
:10246000324600902046012301F0D2F904F0ABF986
:1024700040F05E86BDF88C21BDF88A1101EA0200A9
:1024800083B2581B18BF1046B8F84C20AB4208BFA7
:10249000511C8AB2022A08BF2846A8F84E0008BF7D
:1024A0002946AB42A8F84C1009D101EA000292B2C9
:1024B000AA42C0D14FF6FF704FF6FF7358E7B8F845
:1024C000EA00B8F8E83053E7B8F8480000254FF6BE
:1024D000FF71A8F8925004F0D0F97FF47DAF9FE728
:1024E000B8F8FA10B8F8F8002CE0B8F8FA005A4634
:1024F000009062A82B992B4600F099FF04F063F935
:1025000040F0CE8504F0A2F91CD1B8F8E400002414
:102510004FF6FF71A8F8E84004F0AFF97FF48DAAF8
:1025200010E0B8F8FA005A46009062A838992B4695
:1025300000F07DFF04F047F940F0B28504F086F921
:1025400000F04A82ADF83E11ADF83C01BDF83E0105
:10255000BDF83C8108EA00054FF6FF7BB5EB0B06A2
:1025600018BF0646459CB4F8F8005D4508BF00F169
:10257000010844981FFA88FA03F0CBFD80B2824527
:1025800008BF5E46A4F8FA6008BFD846A4F8F880F1
:102590005D45A0464FF6FF7540F09D85D8F80000D8
:1025A000002800F00886449C0DF5947BDDF800A11E
:1025B000207805281CD0042837D0032840F0AB82AF
:1025C00046989AF80050D0F80080284603F006FF9D
:1025D0000446284603F012FF002852D050462146F8
:1025E00003F018FF03F01AFF00210022002366E029
:1025F000B8F8EA00B8F8E8106840489E6940084317
:1026000080B2002818BF002640F08282D8E98004FA
:10261000002800F0C580D8F8080201F013FC4FF440
:1026200000612246FEF7F4FEBEE0B8F8E200B8F81A
:10263000E0106840469E6940084380B2002818BFF9
:10264000002640F06582B8F8E440B8F9E850A542A9
:1026500080F0B78530780638C1B205294FF0020105
:1026600028BF0846C0B2032800F2B485DFE810F0A6
:10267000C10104000400FE014199012081F83002EB
:10268000F4E1112C80F0378500202146CDE964006B
:10269000CDE96200504603F0F1FE0446C1F110029C
:1026A00062A80D46102103F0EEFE22462B4602F0F2
:1026B000EBFD62AD33CD0ABA21BA03BA28BA08FBE2
:1026C00003F4A0FB0803A8FB0225A1FB08165B1876
:1026D000724145EB0401B0F1804473F1000472F1E2
:1026E000000471F100040CD2DDF8148162A94028C5
:1026F0003FD28DF8880150AC0122204603F026FE1F
:1027000034E000BA8D9018BA8C9010BADDF81481BC
:102710008B9008BA8A9062AD8AAA0020102805D052
:10272000115C01300029F9D0441E00E000242D98EE
:10273000202105F028FDC4F10C00C4F1110140F086
:10274000C0008DF8880101202A4603F021FE112CDB
:1027500080F03B858AAAC4F11003224402F094FD64
:1027600050AC29462122204605F07CFB4FF6FF7530
:10277000C4E1B0F5804F4FF6FF7580F0AD818DF864
:102780008901402202EB10208DF8880150AC022212
:10279000B1E1B8F8FA00B8F8F880ADF83E0118E1F8
:1027A0002198214601F00DFB0246419896F86050B1
:1027B0000C46406843908AA8429625B1012D3AD034
:1027C000022D40F0078562AC2E21204605F072FBF9
:1027D0004FF0FF30032D28BF054606F1610250A8D7
:1027E0002946234600F00FFD509A002A00F09584F8
:1027F000519B8AA8419901F049FABDF828020028A6
:1028000040F08E84DDF82CA2449C4FF6FF75419E6B
:1028100052464399304602F0AFF8024623980B46E1
:1028200011461A46FEF75EFF002800F09E80002049
:10283000C6E900006CE14021154605F03BFB2A1972
:102840002B4600204FF0000A449C0392439DA0EBCE
:102850000A019342479000F0788313F801BB0AEB1A
:1028600005001491A846CDF814A04990049362ADD8
:10287000284603F0FFFF4998804524D208F1400A1A
:1028800041984146524602F077F800223A26C62483
:10289000402A0CD0914200F02484835C0BEB03238C
:1028A000B3FBF6FB0BFB0433AB540132F0E741986A
:1028B00041462A46402302F091F803F099FFD046A2
:1028C000D6D000F065BC14988AAD412880F085848C
:1028D000DDE944480022479E4FF03A0EDDF814A08F
:1028E000C623904209D0A95C0BEB0121B1FBFEFB92
:1028F0000BFB0311A9540132F3E7A6F14002BBF12F
:10290000000F2BD0B2EB0A0402D0A6EB0A0417E0AA
:102910004398402349922A460AEB00014198479682
:1029200002F05CF803F064FF40F03484284603F0C2
:10293000A1FF479E0AF1400A499A4FF03A0EC6237A
:10294000402C80F02D84BBFBFEF08AAD00FB03B170
:102950000132013683462955449CD0E702F14000FC
:10296000DDE903230DF5947B70E7CDF824A1052163
:10297000DDF87CA07068479000208AF80400CAF84F
:102980000000C6486390C64862905046B6F82E4292
:1029900003F0DFFB002CB34600F0618162AD429E84
:1029A0000C200A23002C00F06181072800F0968398
:1029B000B4FBF3F101EB8102A4EB42020C4642F0BE
:1029C00030022A540138EDE74046B8F8F880B0F8F4
:1029D000FA00ADF83C81BDE5B8F8F0004FF0000A10
:1029E0004FF6FF71A8F8F4A003F047FF7FF4FDABAA
:1029F000A8E50DF5C47B2E21584605F05BFA0DF5D0
:102A0000A07A711C504601F06BFF9DF84001002830
:102A100040F0AD839DF841811D22BDF8426182A83E
:102A20001A9905F01FFA1B9882A91D2205F01AFABF
:102A3000ADF8296250468DF828828AAA00215B46AB
:102A400000F0E1FB5099002900F09483419EDDF8ED
:102A5000148196F8300238B9519A2398FEF742FE55
:102A600080F0010086F830020DF5947B601E449CD6
:102A7000A8424FF6FF754BD1419890F830020028DC
:102A800046D00F2053908748784452900A205190A6
:102A9000854878445090854878446A900220659033
:102AA00050A86490002063908148784462908148E7
:102AB00078446B90082067907F48784466907F4800
:102AC00078446C90062069907D487844689062A8AC
:102AD000FEF70AFAE0B942E3020A8DF88B018DF89D
:102AE0008A21020C8DF88921402202EB10608DF8BA
:102AF000880150AC0422204603F028FC329821467D
:102B0000212205F0AFF941990120449C81F80C0283
:102B10002078DDF800A100210528C8E9801118D12E
:102B2000B8F9F400002800F18A8038990988002952
:102B300000F0CE8280B20139814240F08080B8F846
:102B4000E800A84204BFB8F8EA00A84240F0778045
:102B5000BEE262ACDFE800F0030A122330003D98C9
:102B60000021017001214498017068E00020C8F83C
:102B70008800C32088F83C0002205EE0259803F01E
:102B800073FE24982146242205F06CF90020C8F831
:102B9000680088F84000C8F83C0003204DE00A2097
:102BA0002B2188F83C00042088F83800399805F07B
:102BB00081F9A8F8E85042E0B8F9E80000283ED4CE
:102BC0002B99098859B180B20139814237D1B8F8BF
:102BD000E000A84204BFB8F8E200A8422FD11E9836
:102BE00003F042FE2D98452105F0CDFA1C982146B0
:102BF000462205F037F91D9850A9422205F032F916
:102C00000420002188F8A0004FF0FF30C8F89C0095
:102C10000520C8E91011A8F8F45088F8F210A8F8B7
:102C2000F010C8F8E81088F89810C8F89410A8F8C0
:102C3000925088F84A10A8F8481088F83800002008
:102C4000449CC8F8F800FEF711BEADF83C5101E015
:102C5000ADF83C414FF6FF704FF6FF787AE4302034
:102C600001218DF8900162AD429E32E000210529DC
:102C700005D01AF80100302802D10131F7E705210B
:102C80006A18C1F105000823CC180D2C1AD00D2BA1
:102C900000F08C82D45CEC540133F5E7757420238A
:102CA0004F757470B6620000BB6200006462000081
:102CB000F6740000D0610000AA5F0000F46100001B
:102CC000CA6100005146052203F019FB002800F0FC
:102CD000058201F1080228460D2100F0B3FA0DF536
:102CE000A07A02460B465946504600F0CFFFBDF889
:102CF0004001002840F04182BBF82E022121519C66
:102D00000130ABF82E02DBF80400429003F092FD94
:102D100006F18200294603F065FC00F09DFA0246A8
:102D20000B465046594600F0B1FFBDF8400100285F
:102D300040F0128214943489DDF844A1002C0594EB
:102D400069D0F0894FF6FF72B18950405140084375
:102D500080B2002830464FF0000608BF00F1100690
:102D600040F02982419840214068049062A805F013
:102D7000A1F80020202815D0315C5722A02938BFA7
:102D8000302262AB02EB111201F00F0103F81020A8
:102D900057220A2938BF3022114403EB4002013088
:102DA0005170E7E750AC62AD40222046294605F05D
:102DB00059F88AA8DDF804B122464023594600F0AC
:102DC00065FFBDF82802002840F0DA818B984E217B
:102DD0000390DBF80400029003F02CFD06F12000C4
:102DE00029464E2203F075FB00F036FA02460B46E8
:102DF0002046594600F04AFFBDF84001002840F047
:102E0000AB8104994FF6FF7021EA000451980190BC
:102E100088B2049002E000200024049062ADDDF846
:102E200004B1479A149B2846594600F021FA629E45
:102E3000002E00F08E81429A59466398534647907F
:102E4000284600F015FADDF888A1BAF1000F00F06D
:102E50008081439A5946499B63984290284600F0E6
:102E600007FADDF88881B8F1000F00F07B81059842
:102E7000639ADC4B0028DC497B44794443D00498B6
:102E80001492439140EA040205935946499662AD73
:102E9000039B284600F0ECF9629E002E00F0628150
:102EA000DDE9013259462846DDF88CB100F0E0F941
:102EB0006298002800F06A816399CDE970010C20C6
:102EC0006F900421C948CDE96C6B78446E9008205E
:102ED0006B90C748499A78446A904298479BCDE9DD
:102EE00068A0059866901498CDE9648007206390E7
:102EF0004398629004206790284600F0C7F9064680
:102F0000DDF804B111E04298CDE964823246CDE9A2
:102F100068A00420CDE966300720CDE9621062A8E0
:102F2000479B022100F0B2F906460020DDE9444843
:102F3000CBE90000B0B20DF5947B4EF601718842EA
:102F40004FF6FF753FF4E4ADF4E08AA800F076F99F
:102F5000024641980B460AEB050101F03FFD03F0E4
:102F600047FC40F0158150A803F084FC62A803F0F0
:102F700081FC4798294600EB050A4FF6FF75CDF80E
:102F800024A1D046884555D94790A8EB0105944C1B
:102F9000412D14917C4451D3419D01F14002059291
:102FA000284601F0E9FC8A46A8F1400183462846FC
:102FB0004246049101F0E0FC0DF5A078402362AA9E
:102FC0004FF6FF75FBB10AEB0302402A00F0EB80DD
:102FD0009BF800203A2A80F0D6803B9DCE18402EE8
:102FE000A25C1D4405F8402C7BD002783A2A80F080
:102FF000CA803A9D0BF1010BA25C01301D44013BDC
:1030000005F8402CDBE7419C40231499204601F051
:1030100005FD2046049C42464023214601F0FEFC6B
:103020004798A04605990DF5947B8038449CDDF8BF
:1030300024A1A7E7DDF81481FFF7E9BB41984246D8
:1030400001F09AFC50AA479BDDF81481C1F1000CF5
:1030500002EB030E0026479A931911D0B44540D0D5
:1030600002783A2A80F08F80013B402B80F0A180CB
:103070000EEB0603A25C0130013E03F8012CEAE7E7
:1030800050A8294600F0DAF802460B4641981499F8
:1030900001F0C4FCFFF7B8BB022003E002250DE0FD
:1030A0009DF889018DF83B0142E09DF8895105E0CA
:1030B00002200AE00020FDF739F801258DF83B5188
:1030C00036E0022030E09DF889018DF809022FE0FA
:1030D000022088F820044EF601762BE04EF202061C
:1030E0005AE0084616E09DF841011DE00020FDF77A
:1030F0001DF8012018E04EF20206DDF8148119E0F7
:103100009DF8890110E00020FDF710F810E004217F
:10311000CDF8308102F056F8FEDEBDF8446139E0AA
:10312000BDF82A6236E003208DF80902DDF814812B
:103130004FF46046DDE93E1208F5807001F0EEFBC9
:1031400003F04EFB18BF064630460DF51A7D03F01E
:1031500037BBBDF88C611FE0BDF842611AE046F64E
:103160000466E7E7BDF88C61DDF8148114E0BDF872
:103170004261DFE7BDF84461BFE7BDF842610BE0A3
:10318000BDF82A6208E010463A21C3E7BDF88C6119
:10319000DDF81481DDF804B10020CBE90000C9E7B7
:1031A00020464021B6E750465146B3E705200521A9
:1031B000B0E71846F5E70F482B21784401F02FFFC0
:1031C000FEDE0D482C217844F8E72046102101F05E
:1031D0003FFFFEDE00F012F8FEDE4021F7E700BF01
:1031E0000C700000845C0000695D0000205D000040
:1031F0004E5B00001A5E0000F159000080B56F467A
:1032000001F01CFFFEDED0B502AF86B004462020E0
:10321000CDE9032001200290A7F1090007F8091C5D
:103220001946019001A802F0B1FF08B1616002E007
:103230004EF20201A180206006B0D0BD0A464021B6
:1032400000F000B88A429CBF1146704780B56F46B7
:1032500003F05EFBFEDED4D400B1704780B56F464C
:1032600002482B21784401F0DAFEFEDE705D00009A
:10327000D0B502AF0446084611461A4601F07CFB61
:1032800003F0C5FABDE8D04000F03CB880B56F4609
:1032900090B0CDE9032307220292144A7A440192A6
:1032A000134A7A440D920222089201AA05AB07C381
:1032B000104878440E9008200A900F4878440990EE
:1032C0000E4878440F9006200C900D4878440B90DF
:1032D00005A8FDF709FE46F6046100281CBF4EF65E
:1032E0000171CFF6FF71084610B080BD9B5A0000F7
:1032F0008E590000CE590000A8570000F259000076
:10330000C8590000DFB506AF044601A801F0E0FF90
:10331000019820B14FF46F40A080002002E0DDE969
:10332000020161602060DFBDF0B503AF2DE9F00D53
:1033300003910646D2E90101BD68884202D1B580F9
:1033400073805FE093465FEA0548029302D00398DA
:10335000047906E0584600F073FC03F0D4FA0398B1
:103360000471204600F052F8052803D9002070703F
:10337000012048E0824614F0C000019603D04028A6
:1033800018BF802812D1B8F1000F13D1A00664F045
:103390003F0058BF04F03F00182101EBCA0101258E
:1033A00001F0180188400399086003E0ADB2012DD7
:1033B00098BF0125ACB2E0435044C6000398D0F852
:1033C0000080DBE90101884211D054450FD25846F4
:1033D00003F0D0F906F01800E9B2083E013401FA12
:1033E00000F048EA00080398C0F80080E9E7544577
:1033F00008BF4FF0FF34019E0298B48008BF4FF021
:10340000FF3070800020307003F0EFB900F0C00191
:10341000802904BF04207047402904BF0220704760
:1034200009B90120704700F03F0005307047F0B542
:1034300003AF2DE9F00D0C460546D2E90101D7F89E
:103440000880884203D1A5F804806B8054E01646BA
:103450005FEA084001A919C102D094F802A006E071
:10346000304600F0EDFB03F049FA84F802A0504624
:10347000FFF7CCFF042803D90020687001203CE04E
:1034800083460198009528B103981FFA88F4B0F894
:1034900000A00CE018200AF03F0100EBCB00012453
:1034A00000F0180001FA00FA0398A0F800A0E04329
:1034B00058444FEAC00803F0F0F912D05C4510D22E
:1034C000304603F057F908F01800E9B2A8F10808EF
:1034D000013401FA00F04AEA000A0398A0F800A0BB
:1034E000E9E75C4508BF4FF0FF34009D0298AC80CF
:1034F00008BF4FF0FF3068800020287003F075B9D6
:10350000F0B503AF2DE9F00D83468C68B868984696
:1035100016460D46B4F1FF3F1EDDD5F800A0544518
:103520000CD203F0BAF909D0304600F089FB00F064
:103530000100FCF7FBFD0134AC60F0E7544507BF28
:103540004FF0FF30CBF80200B868ABF8040018BFAA
:10355000ABF80280002022E00090A7F11E0029466F
:1035600032464346FFF7E0FE17F81E0C28B117F865
:103570001D0C8BF80100012011E037F81A0C4FF6F2
:10358000FF7337F81C1C01EA00029A4202D10024A2
:10359000AC60C2E7ABF804000020ABF802108BF877
:1035A000000003F022B9D4D4F0B503AF2DE9000D2B
:1035B0008CB00D468346D2E901019846D7F808A0A1
:1035C000884207D10020ABF804A0ABF802808BF84A
:1035D0000000E1E02C781646042C21D1304600F0A2
:1035E0002FFB03F090F9E0B2811E022905D320B130
:1035F000012806D040F20110BCE007A8132104F016
:1036000059FC002014226873C5F80900C5F80500AC
:10361000C5F8010005F10E0007A904F023FC2C7089
:10362000E0B2DFE800F003100303A500C7F808A02C
:10363000691C5846324643460CB0BDE8000DBDE853
:10364000F04000F0B1B8CDE901A8A81DD6E901A865
:10365000CDF80CB00490A81CCDE90505C24500F0DA
:103660008C806C89022C00F28F8014D0012C26D023
:10367000002C40F08980A889059970B9F068012272
:103680004849794400F0EAFAC0B2042840F0888042
:103690000020059901E0A8890499009007A8324606
:1036A0002346FFF7C4FE9DF81C0000286ED1424659
:1036B000D6E901A4BDF820B0BDF81E8020E0B5F821
:1036C0000CB04446688845010AE0304600F0B8FA7C
:1036D00000F00100FCF72AFD0BF1010BD6E901A473
:1036E0001FFA8BF0A24518BF8542EED842464FF034
:1036F000010885424FF6FF7008BF834608BF804629
:1037000030685146234600F047FC0246F06803F05B
:10371000EBF8C1B204293BD108EA0B014FF6FF7068
:10372000081A4FF6FF7318BF5846069D99426A89DA
:1037300008BF02F101081FFA88F2032A08BF1846E1
:10374000A88108BF98469942A5F80A8015D11FFAAA
:1037500088F19942A0467FF481AF80B2A04698429A
:103760007FF47CAF03994FF6FF704FF6FF7207E0CE
:1037700040F20120ABF800000EE00399DDE90120E2
:10378000488000208A8006E0022001E09DF81D00AC
:1037900003994870012008700CB0BDE8000DF0BD21
:1037A0000320F5E71A570000F0B503AF2DE9F00D3F
:1037B00003F024F8CBF120000393019003F06DF89F
:1037C00010D00BEB0804B4F1200009D0304602F011
:1037D000D1FF202C17D20AF8085008F10108EDE7B4
:1037E000DDF8048002990020087008EB0B00202807
:1037F00008BF4FF0FF308880039808BF4FF0FF30BC
:10380000488002F0F2BF2046202101F0DBFCFEDE02
:10381000F0B503AF2DE9F00D16460D46D2E90112C1
:10382000BC6891423AD02104CDE9013003D095F82B
:1038300000A0A4B207E0304600F002FA03F05EF800
:1038400085F800A00124504605EB0408FFF7DEFDD3
:10385000A4EB000B4FF0000A0390001B009003F054
:103860001CF810D01BEB0A000BD0304602F082FF90
:1038700004EB0A00212817D208F80A500AF1010ABD
:10388000EDE7DDF800A003985444844211BFDDE960
:1038900001304FF6FF734FF6FF74029800218480C9
:1038A0004380017002F0A1BF212101F08BFCFEDEFC
:1038B000F0B503AF2DE9F00D02F0A0FFCBF1210030
:1038C0000393019002F0E9FF10D00BEB0804B4F170
:1038D000210009D0304602F04DFF212C17D20AF802
:1038E000085008F10108EDE7DDF804800299002096
:1038F000087008EB0B00212808BF4FF0FF308880CC
:10390000039808BF4FF0FF30488002F06EBF20469A
:10391000212101F057FCFEDEF0B503AF2DE9F00DDB
:1039200016463A89D1F800B04FF0000801901820EF
:10393000A0EBC20AC2F1040402930391009202F0C8
:10394000ACFF13D0A04511D2304602F013FF0AF0AD
:103950001800E9B2AAF1080A08F1010801FA00F01A
:103960004BEA000B0398C0F800B0E8E7019900208B
:10397000087000984044042808BF4FF0FF3088804A
:10398000029808BF4FF0FF30488002F02EBF027847
:1039900001212B2A16D02D2A4FF0010217D0D0B5C5
:1039A00002AF002300215A1E18BF0122012B0CD0A8
:1039B000C45C303C092C07D801EB8101013304EBD6
:1039C0004101F0E7012202E00121BDE8D0401046AC
:1039D0007047D4D408B908467047E0B502AF044830
:1039E000791E044A78447A4401F01EFBFEDE00BFD3
:1039F000D053000072530000492938BF704780B58A
:103A00006F460846482101F023FBFEDE7047D4D400
:103A1000F0B503AF2DE9FC0D8246D1E90560C4681D
:103A20000D4631490D2230467944A04700284FF019
:103A300001084FF00100009544D1287F40071BD4B6
:103A40002A49304603227944A047D0BBD5E9050175
:103A50000422CB6826497944984790BBD5E90501F3
:103A60000222CB6823497944984750BBD5E9051217
:103A7000504600F04BF825E01F49304603227944B8
:103A8000A04701460120E9B9D5E9051202ACA7F12A
:103A9000190307F8190C0EC402A804221749794427
:103AA00001F0DEFC68B902A815490222794401F050
:103AB000D7FC30B902A9134A50467A4400F026F8E0
:103AC00058B101208DF8040068468DF8058001F09A
:103AD000ADFD06B0BDE8000DF0BD02A80A49022206
:103AE000794401F0BDFCEDE767530000B9560000D2
:103AF0009A5000009E560000885600005250000068
:103B000058560000DE54000029560000F0B503AFFF
:103B10004DF804BD00780E460F4905247944DFE8CE
:103B200000F01203070B0F000C490C2479440AE043
:103B30000B490B24794406E00A490B24794402E03E
:103B4000094904247944D368304622465DF804BB11
:103B5000BDE8F040184700BF4C5200004152000041
:103B600045520000485200009C4F0000F0B503AFE2
:103B70002DE9000D9AB002AD88460446402102F0BE
:103B800059FE12AE20214FF0200A304604F092F97F
:103B90002120414605222B460096212603F038FAC3
:103BA00004F10800294602F048FE284601F016FEFE
:103BB000C4F804A026701AB0BDE8000DF0BDD4D43E
:103BC000014600F17F021020222A15D8DFE802F01A
:103BD000121E20222426282A2C2E30321D1D1D1DA7
:103BE0001D1D1D1D1D1D1D1D1D1D1D1D1D1D1D1D05
:103BF0001D3436000120704711F1BF0204BF0D20B3
:103C00007047DF3104BF00207047704702207047C3
:103C10000320704704207047052070470620704736
:103C20000720704708207047092070470A20704716
:103C30000B2070470C2070470E2070470F207047F4
:103C4000D0E901329A423FBF511C81600068815C1B
:103C500000209A4238BF01207047D4D4E0B502AFAB
:103C600060B113460A460146684600F00FF8BDF8F9
:103C700000100320002908BF04208CBD02482B211E
:103C8000784401F0CCF9FEDE54530000F0B503AFE8
:103C90004DF8048D82B00446D1E900061D4658B1A6
:103CA000084611462A46334600F027F802F098FDF0
:103CB0001CD17019606017E006EB0508B8F5007FAD
:103CC00008D8084611462A463346CDF8008000F051
:103CD00054F807E0084631462B4600F025F802F07C
:103CE0007FFD03D1C4F80480002001E06080012042
:103CF000208002B05DF8048BF0BDF0B503AF4DF845
:103D000004BD0646806815460A461C4619462B46E1
:103D100000F05CF802F064FD02BF01216219C6E9FF
:103D200000125DF804BBF0BDF0B503AF2DE9000D46
:103D3000054684680C30984692460E4600F041F8DD
:103D400002460B462046002100F040F881B24EF6B4
:103D50000174A1420FD1A86831465246434600F093
:103D600035F881B2A14201BF012008EB0601C5E987
:103D700000014EF6017002F023BDF0B503AF4DF81F
:103D8000048DD7F8088006460C3014460D461946B7
:103D9000424600F00AF82A46234601F075FA002050
:103DA000C6E900085DF8048BF0BD8A4222BF0844D2
:103DB000511A704780B56F460846114601F048F920
:103DC000FEDE0A464FF40071FDF722BBF0B503AFEB
:103DD0002DE9000D8AB01C4692460E4600F032F8DE
:103DE000A519CDE900A4B5F5006F17D8B6F5006F99
:103DF00019D8804630445146224603F0FFF8404629
:103E000031462A4600F02CF852462346CDE90201FD
:103E100001F016FB68B14EF6017001E04EF20200AF
:103E20000AB002F0CDBC30464FF4006101F010F949
:103E3000FEDE00206946049002A804AA00F018F8EB
:103E4000FEDED4D480B56F464946401A0349794412
:103E50000844BDE8804003F087B800BFAE630000AF
:103E60000346084611461A464FF40063FDF7A8BA08
:103E7000F8B504AF009202A803AA034979440B469F
:103E800001F0E1F8FEDE00BF744F00007047D4D4AB
:103E9000F0B503AF2DE9000D90B000680C4601228B
:103EA000D0E90085D1E90501CB68354979449847C7
:103EB00006460120002D4FEAC67153D0CDF8088088
:103EC00009B1012649E0D4F81CA0C0075FEA4A7195
:103ED0000ED440B9D4E905010222CB6829497944BE
:103EE00098470028EDD102A8214601F0C7FE33E033
:103EF000D4E9052B50B1DBF80C30104622490126DD
:103F00000192012279449847019A30BB0120CDE902
:103F1000032B07F83D0CA7F13D0005900DF11C0C9B
:103F2000CDF838A0194878440D9003A80C9094F867
:103F300020008DF83C0094E84F00ACE84F0002A848
:103F400007A901F09BFE0028BBD1DDE90C0102228C
:103F5000CB680F4979449847064608F10108013DAE
:103F60000020A7E709B1012006E0D4E905010122FC
:103F7000CB6808497944984710B002F021BC00BFD3
:103F800063520000245200000A52000072500000E8
:103F9000B55100009C510000B0B502AF9A420CD858
:103FA0000C46994221BF0546104619462A4622BFB3
:103FB0002346BDE8B040FDF703BA034847217844E3
:103FC00001F02DF8FEDE00BF424E0000F0B503AF59
:103FD0002DE9000DA4B08B46044631F8440F1E466F
:103FE00001231C92012898BF1846B1F90420B2F1B0
:103FF000FF3FD8BF1846B3B2984240F20484D7F8C6
:1040000008A0B2F1FF3F40F30084BBF842004FF636
:10401000FF75BBF840301694AB4208BFA8421DD1D3
:104020000020C2210023CBF824008BF80010511C83
:104030008BF83A00ABF838008BF83600ABF8340058
:104040008BF83200ABF83000ABF83C00CBF827001F
:10405000ABF82C50CBF84000ABF848100BF1140132
:1040600002910BF1090118910BF1040119910BF167
:10407000020104910BF1010117910BF13C01159123
:104080000BF13D0114910BF1300113910BF134014F
:1040900012910BF1380111910BF1280103911C9938
:1040A000D1E90112914200F0BD83BBF82820012123
:1040B0000624012A98BF0A46BBF92C10B1F1FF3F34
:1040C000C8BF541DA4B29AB2A24280F0B083042AA1
:1040D0000BD8DFE812F00500110319031E032303B8
:1040E00000901DA8159900230AE3B1F1FF3F1A9330
:1040F00040F352830196BBF82460AE4201BFBBF887
:104100002600A842C2208BF8000001BF0026CBF891
:104110002460481CABF82C001C98D0E901018842AF
:1041200000F05183584601F0D3FFB1B280B2814212
:1041300080F07D839BF80050C22D40F04C811C988C
:1041400002F018FBE8B2D42800F242812A46DFE8E8
:1041500010F0D600C002D500D500D500D500D5009E
:10416000D500D500D500D500D500D500D500D500A7
:10417000D500D500D5000A01100124012C01C00290
:10418000C002D500D500D500D500D500D500D5009A
:10419000D500D500D500D500D500D500D500D50077
:1041A000D500D500D500D500D500D500D500D50067
:1041B000D500D500D500D500D500D500D500D50057
:1041C000D500D500D500D500D500D500D500D50047
:1041D000D500D500D500D500D500D500D500D50037
:1041E000D500D500D500270127012701D500D5002E
:1041F000D500D500D500D500D500D500D500D50017
:10420000D500D500D500D500D500D500D500D50006
:10421000D500D500D500D500D500D500D500D500F6
:10422000D500D500D500D500D500D500D500D500E6
:10423000D500D500D500D500D500D500D500D500D6
:10424000D500D500D500D500D500D500D5002F016B
:10425000D500D500D500D500D500D500D500D500B6
:10426000D500D500D500D500D500D5003F013F01D0
:104270003F013F013F013F013F013F013F013F013E
:104280003F013F013F013F013F013F013F013F012E
:104290003F0163026502670269026B026D026F02F1
:1042A000710273027502770279027B027D027F023E
:1042B000810283028502870289028B028D028F02AE
:1042C000910293029502970299029B029D029F021E
:1042D000A102A302A502A702A902AB02AD02AF028E
:1042E000B102B302B502B702B902BB02BD02BF02FE
:1042F000C202C402C602C802CD02CF0242460F98D3
:104300008BF808001098CBF80400069818998BF8E1
:1043100003000E988BF80200BDF88C0008809DF811
:104320008E0088700798ABF81A000C98ABF818004C
:1043300005988BF817000B988BF816000A98ABF8C5
:1043400014000998ABF812000898ABF810000D980B
:10435000CBF80C00DDE920018BF801208BF8005030
:10436000CBE9070138E00021002012258DF88E10DE
:1043700004E0002100208DF88E101325ADF88C107C
:1043800020910790ADF8841000221090CDE90E0026
:10439000CDE90C00CDE9050015E04FF0FF300D90A0
:1043A0000020424610900F90A9E704200E90A5E748
:1043B000002010904FF0FF300D9000200F904FF62E
:1043C000FF700C900020CDE90A00CDE9080096E7C7
:1043D000C2258BF800504246E8B21B92A0F11201B0
:1043E000052912D9A0F1BB0106291BD9002832D01A
:1043F000012830D04A2803D04B2818BF4C2820D1A0
:1044000002F0C3F9FEF790FF30E0DFE801F00303AC
:104410007176242402F05CFA179902F0CCF9FFF7C8
:10442000F7F923E04FF6FF764FF6FF70DFE801F073
:10443000132727275504040002F0A7F9FFF76CFAA9
:1044400014E07E2861D08D2805D08E284FF6FF70AD
:104450004FF6FF7613D1BBF826000090A7F12E008F
:10446000BBF8243017991C9AFBF76CFE17F82E0C3A
:10447000002840F0098237F82A0C37F82C6C06EA3D
:1044800000054FF6FF7AB5EB0A0418BF0446BBF8E7
:104490002400554508BF461C58461FFA86F801F00F
:1044A00017FE80B25946804508BF5446ABF82640F7
:1044B00008BF5646ABF8246055454FF6FF7540F0EF
:1044C000918106EA0400D7F808A0A8421B981A9B1D
:1044D0008B4680467FF420AE8EE1BBF82430BBF8DB
:1044E0002600002B68D004990090A7F12E00BAE7AF
:1044F00002F04BF9FFF704F8B8E702F0E9F9049984
:1045000002F059F9FFF750F8B0E7BBF918204FF661
:10451000FF74B2F1FF3F54DDBBF81010BBF812007E
:10452000A14208BFA0420CD100204FF0FF31CBE9DF
:104530000310511CABF8181000218BF80800CBF8C1
:1045400004001C9AD2E901239A4254D0090440F095
:104550006E81009020A8199900231C9AFEF7D0FFC5
:104560009DF88000002840F08181BDF88420BDF8CE
:10457000821001EA020083B2181B18BF1046BBF874
:104580001020A34208BF511C8AB2012A08BF20464E
:10459000ABF8120008BF2146A342ABF810102AD195
:1045A00001EA000292B2A242CBD127F82C4C4FF67E
:1045B000FF704FF6FF7662E71799002302F0FBF8D1
:1045C00052E702F085F9009020A802991C9AFEF7A4
:1045D0002EFF9DF88000002840F05281BDF8841025
:1045E000BDF8820000EA0102A24209D027F82A1C85
:1045F00027F82C0C3FE7BBF82600BBF824603EE709
:10460000BBF8140000224FF6FF71ABF8182002F03F
:1046100034F97FF481AFE9E78D255AE08E2558E023
:104620008F256BE6902569E6912567E6922565E67C
:10463000932563E6942561E695255FE696255DE67C
:1046400097255BE6982559E6992557E69A2555E67C
:104650009B2553E69C2551E69D254FE69E254DE67C
:104660009F254BE6A02549E6A12547E6A22545E67C
:10467000A32543E6A42541E6A5253FE6A6253DE67C
:10468000A7253BE6A82539E6A92537E6AA2535E67C
:10469000AB2533E6AC2531E6AD252FE6AE252DE67C
:1046A000AF252BE6B02529E6B12527E6B22525E67C
:1046B000B32523E6B42521E6B5251FE6B6251DE67C
:1046C000B7251BE6B82519E6B92517E6BA2515E67C
:1046D000BB25002213E6BC2510E6BD250EE6BE254F
:1046E0000CE60020BF2500220E9008E6C02500E061
:1046F000C1250020109001E600901DA81499012307
:104700001C9AFBF71FFD10E000901DA813990223CF
:1047100008E000901DA81299032303E000901DA853
:10472000119904231C9AFEF782FE9DF8740000285C
:1047300040F0A380BDF87810BDF8763003EA01029E
:10474000501B18BF0846AA42BBF8401008BF4B1CBC
:10475000BBF82840012599B2012C98BF2C46BBF923
:104760002C50B5F1FF3F4FF00605C8BF651DACB238
:10477000A1424FF6FF7508BF2846ABF8420008BFBC
:104780002B46AA42ABF840304CD199B2A94208BF9F
:10479000A8427FF484AC61E0009020A803991C9AA1
:1047A000FEF745FE9DF88000002862D1BDF8842008
:1047B000BDF8820000EA0201A94206D0ADF87820D7
:1047C000ADF87600B6E7019E13E0BBF828000021A3
:1047D0001A9B4FF6FF7202F050F8ABF82C107FF4E2
:1047E00089ACEBE7DDF86C808B46019ED7F808A01A
:1047F0001A9BBBF84210A1E74FF6FF714FF6FF730B
:104800008046019E9AE7022041E0CDF800A020A852
:104810001C9A3346FEF70BFE9DF8800048B19DF8C8
:10482000810034E0169CA4F804A066801CE00220FD
:104830002CE0BDF884104FF6FF70BDF8822002EA2C
:10484000010383420ED1BBF844100022ABF848208C
:1048500000297FF4DAABA080608005E0169CA5807B
:10486000658001E0A1806280002012E09DF8810057
:104870000CE09DF881008DF875009DF8750005E04D
:104880009DF8810007F82D0C17F82D0C169C607010
:104890000120207024B0BDE8000DF0BDE0B502AFEE
:1048A00000F12801083000906846019101F069FA92
:1048B0008CBDB0B502AFC0B06D46044628464FF47B
:1048C000807103F062FC28464FF4807102F06AFBAD
:1048D000204629464FF4807203F0D2FA40B0B0BDB2
:1048E000F0B503AF4DF804BDC0B06E460446304687
:1048F0000D46FFF7DEFF30462946212200F00EF874
:1049000001F06EFF04D16946204600F015F802E080
:1049100001216080217040B001F0A9BF80B56F46D1
:1049200002F054FB0349002808BF01F570610846F6
:1049300080BD00BF01E0FFFFF0B503AF4DF804BD3F
:1049400088B06E460D4604463046202103F0B2FA88
:104950002846314602F035FB20B14EF2010060805E
:10496000012004E0601C694601F067FF0020207010
:1049700008B001F07CBFD4D4B0B502AF0D460168D9
:10498000144669B1A54221D2B4F5006F1ED88068E3
:10499000FFF758FA29462246BDE8B040FFF760BA53
:1049A000A5420DD2B4F5007F9FBF00F10C0228464E
:1049B00021464FF400739CBFBDE8B040FCF700BD3A
:1049C00004483A21784400F02AFBFEDE02483C21EC
:1049D0007844F8E783440000B1440000DCB504AF3C
:1049E0000C46016839B111461A46234602B0BDE8AB
:1049F000D040FFF782B91919B1F5007F08D80091AE
:104A000011461A462346FFF7B8F94EF60170DCBD91
:104A1000214602B0BDE8D040FFF786B9BCB504AF6F
:104A200015461C465A180368B3B1B2F5006F20D87A
:104A300080682A462346FFF7C9F980B24EF6017115
:104A4000884208BFBCBD1048A7F10A010F4A78444C
:104A50007A4400F0E9FAFEDEB2F5007F0DD80C30A2
:104A6000FFF7A3F92A46234602B0BDE8B04000F0A4
:104A70000BBC08482C21784402E005482A217844E0
:104A800000F0CDFAFEDE00BF664300009043000058
:104A90003F4400007144000080B56F4600F008F804
:104AA00000F018F80078002818BF012080BDD4D489
:104AB00080B56F46054849464844401A0449794440
:104AC0000844BDE8804002F04FBA00BF001000006B
:104AD0003E570000F0B503AF4DF8048D86B0044694
:104AE000067814F8808F05463046414600F014F8E9
:104AF00000280CBF2C464646F0B2A52801BF04F1A1
:104B0000400006B05DF8048BF0BD002069460090BF
:104B1000204600F011F8FEDEC0B2A5281CBFC9B2C5
:104B2000A52903D1A53818BF0120704780B56F466D
:104B300000F070FAFEDED4D4F8B504AF009102A8FC
:104B400003AA034979440B4600F07DFAFEDE00BF5C
:104B500060420000B0B502AF0C46094905467944F1
:104B600000F012F805F1400021460A2202F046FA50
:104B7000044928467944BDE8B04000F005B800BFBC
:104B8000414200002C420000012202F037BA812984
:104B90003EBF0844C1F18001704780B56F460846AA
:104BA000802100F055FAFEDEF0B503AF2DE9000DCF
:104BB0008CB003238DF82C302023079308AC0023FE
:104BC0000BC414690593002C039300923FD05069E5
:104BD000116895684FEA401820F07840029101F181
:104BE000040B019003AEB8F1000F54D0DBF80020A5
:104BF0003AB1DDE90801CB685BF8041C984700284E
:104C00005AD1206904F1200AA1690790207F0A91F6
:104C100004F108018DF82C00284600F053F8CDE986
:104C200003012846214600F04DF8CDE905016169F0
:104C300055F8310005EBC1014A68314690470BF148
:104C4000080BA8F1200800285446CCD034E01068A6
:104C50000DF10C0802900024D2E902604FEAC00A6C
:104C600020F060400190A24515D00298204442688F
:104C700032B102980159DDE90803DB689847D8B9D9
:104C8000D6E90002414606F10805904708342E4651
:104C90000028E8D010E000980199406881420DD2C8
:104CA000DDE9012050F8321000EBC2004268DDE976
:104CB0000803DB68984708B1012000E000200CB031
:104CC00001F07EBD0A685AB1012A07D1496800EB9C
:104CD000C1025268064B7B449A4203D000207047C1
:104CE000081D01E050F8310001680120704700BF45
:104CF000CF050000F0B503AF2DE9000D9A4616462A
:104D0000884604460025A84509D0DAF81020304628
:104D10002146904701350028F5D0691E00E0414644
:104D20000020414538BF012001F04ABDF0B503AF76
:104D30002DE9FF0DC4698B46B968064614F00100E1
:104D40004FF02B0500EB010A08BF4FF488156007F0
:104D5000CDE90513079202D44FF0000B05E00BEBF1
:104D60000201584600F088F88244306870B3D6F8E3
:104D70000480D0452AD9200742D4A8EB0A01304646
:104D80000122012400F01AF9B0F5881F2AD0D6E9D3
:104D90000568824607980C460090414630462A46F0
:104DA0005B4600F0EAF8E0B9D8F80C303046DDE9AF
:104DB00005219847A8B9504621463246434608B0D7
:104DC000BDE8000DBDE8F040FFF794BFD6E90586C9
:104DD0002A460798314600905B46404600F0CDF8E1
:104DE00020B10124204608B001F0EABCF368404637
:104DF000DDE9052108B0BDE8000DBDE8F040184729
:104E0000306901240390302030615B4696F8200021
:104E1000D6E905210290079886F8204000901046B8
:104E200007922A46049100F0A8F80028DAD1A8EBEE
:104E30000A013046012200F0C1F8B0F5881FD1D038
:104E4000DDF810A08846079C0546DDE90521DAF863
:104E50000C30204698470028C3D1284641462246B8
:104E60005346FFF747FF0028BBD10298002486F87D
:104E7000200003983061B5E7F0B503AF2DE9F00DE0
:104E8000091A102962D3C21C22F00302121A8E1AC8
:104E9000B5085BD000EB020B594600F083F90446DD
:104EA00026F00300584406F00301014400F07AF9AB
:104EB00000EB0408002D5CD06C462B46204659467A
:104EC0002A46C02D28BFC02300F058F99DE80608E7
:104ED00022F003032046039D00F050F9DDE9002194
:104EE0000023DDE902EC02EB8106B24211D0002181
:104EF00004290CD052F8210001316FEA000A4FEA70
:104F0000DA1444EA901020F0FE300344F0E7103247
:104F1000EBE74FF0FF1000EA132123F0FF22BCF172
:104F2000000F114401EB014108EB1148C2D04FEAD8
:104F30008C02002192B15EF8043B043ADD43ED0996
:104F400045EA931323F0FE331944F3E7014404B018
:104F5000BDE8000DBDE8F04000F024B94FF0FF10AF
:104F600000EA112021F0FF21084400EB004008EB8B
:104F70001048404604B001F023BCF0B503AF4DF833
:104F8000048DD7F808801C460D460646B2F5881FEA
:104F900006D02B6930461146984708B101200AE037
:104FA00044B1EB683046214642465DF8048BBDE8CB
:104FB000F040184700205DF8048BF0BDF0B503AF5A
:104FC0002DE9000D884690F82010DFE801F0100B65
:104FD000020908F101024FEA58014FEA520806E0BF
:104FE000110603D041464FF0000800E00021D0E94F
:104FF00004A64C1C8569013C07D02A6930465146FD
:1050000090470028F7D04FF4881A50464146BDE833
:10501000000DF0BD80B56F46FBF760FFFEDE80B58A
:105020006F46FFF7F7FFFEDE80B56F46FFF7F2FF32
:10503000FEDE80B56F46FFF7EDFFFEDE80B56F4602
:10504000FFF7F7FFFEDE80B56F46FFF7E3FFFEDEFA
:1050500080B56F4600F001F8FEDE80B56F46FFF7C1
:10506000D9FFFEDE80B56F46FFF7D4FFFEDE80B5C8
:105070006F4600F001F8FEDE80B56F4616464FF42D
:10508000807298460C46054600F05EF840B9A6428C
:1050900003D8A04598BF464511D9FFF7BBFFFEDEF8
:1050A0000346A04204D2E85610F1410FEFDC00E0C5
:1050B000EDD0284621460022FFF7D9FFFEDE2EB1B3
:1050C000A64203D2A85710F1400F00DB46462846FF
:1050D0002146324600F038F8024638B9A2420CD1D7
:1050E00018482B217844FFF79AFFFEDEA24224D213
:1050F000A85610F1410FF1DC20E0A81890F900103B
:10510000B1F1FF3FC9DCC9B2E02928BFF029C4D3FF
:10511000427801F007018378C07802F03F0203F083
:105120003F03120300F03F0042EA8312104440EABA
:105130008140B0F5881FB0D1D2E7CFD028462146B4
:105140002346B9E7F03E000080B56F46914210D982
:105150000346D01E38BF0020511C81420BD31A4495
:10516000091A29B112F90139013913F1400FF8DB9D
:105170000144084680BDFFF76BFFFEDED0B502AFED
:105180009A4221BFD21A01EB830480E81A00C26060
:1051900028BFD0BD024823217844FFF740FFFEDE40
:1051A000183E000088420BD0091A0246002012F96E
:1051B000013B13F1410FC8BF01300139F7D17047EE
:1051C0000020704780B56F46FFF724FFFEDED4D481
:1051D000F0B503AF2DE9000D8CB0294BA7F13F0EC0
:1051E0008C4600247B4442F20F7842F2107A4FF052
:1051F000640B404516D9B0FBFAF50EEB040105FB34
:105200001A00043C86B2B6FBFBF606FB1B0033F823
:105210001620A1F8232080B233F81000A1F8250051
:105220002846E6E7273463280CD981B26425B1FB10
:10523000F5F2023C02FB150080B233F810002EF8A4
:10524000040000E002460A2A05D2601E02F1300185
:105250000EF8001004E033F81210A01E2EF8001013
:10526000C0F12701009107490EEB000360460022C0
:105270007944FFF75BFD0CB0BDE8000DF0BD00BF49
:10528000F44C0000304D0000D0B502AF0C469942FE
:1052900001BF11462246BDE8D04002F0E3BD2046E2
:1052A0001946FFF78FFFFEDE0068FEE7D0B502AFBC
:1052B000C0B200239A4204D0CC5C844203D00133B4
:1052C000F8E7002001E001201A461146D0BDD4D4F1
:1052D000F0B503AF4DF8048DD41F4FF000038446A2
:1052E00038BF1C46C81C20F00300A0EB010E534839
:1052F00078448046934280F08780CE5C70B2B0F1F3
:10530000FF3F17DDAEEB0300800702D00133F1E76A
:105310000833A34208D2CD18C8586D68284310F04E
:10532000803FF5D000E001339342E3D2C856002815
:10533000F9D5DFE7454618F80650022D0FD0032DAA
:1053400015D0042D66D15D1C954261D24D57F02ECB
:105350001AD0F42E1ED115F1710F25DD5AE0581C1C
:10536000904255D20D5615F1410F4BDD52E05D1CB8
:1053700095424DD24D5DE02E25D06DB2ED2E27D158
:1053800015F1610F37DD45E005F17000C0B230283E
:105390000AD33FE00F300126C0B202283BD815F1F6
:1053A000400F4FF001003DDA981C904230D2085671
:1053B00010F1410F31DCD81C904229D20D5615F165
:1053C000410F1FDD2CE005F0E000A02813D021E004
:1053D00000F11F06F6B20C2E03D215F1400F0ADBC6
:1053E00018E020F001000126123014D115F1400F11
:1053F0004FF0010016DA981C904209D20D5615F1B3
:10540000410F0ADC431C75E7CCE9011200200FE0D4
:10541000002007E00126012004E00120022601E02F
:1054200001200326F1B240EA0120CCE9013001203D
:10543000CCF800005DF8048BF0BD00BF0F3D00000C
:1054400099421CBF00207047D0B502AF0C461146F0
:10545000224602F003FDB0FA80F04009D0BDD4D45A
:10546000F0B503AF2DE9000D90B04FF0000A0A230C
:105470009046CDE90DA201220791CDE90A820A46A4
:10548000CDE90513002401684FF0000B029141683B
:105490008068ADF83CA00C93CDF82080019103907A
:1054A00006A81830009000200490BBF1000F40F0D7
:1054B0009080A0455AD30598A8EB040B0619BBF1C0
:1054C000070F07D800218B454DD0705C0A2835D0D6
:1054D0000131F8E7F01C20F00300B04201D10025B3
:1054E0000AE0851B31465D4528BF5D460A202A46F5
:1054F000FFF7DCFE012821D0ABF10800854214D86B
:10550000715981F00A32A2F1013222EA01017219C5
:10551000526882F00A33A3F1013323EA02021143F5
:1055200011F0803F01D10835E8E77119ABEB0502B6
:105530000A20FFF7BBFE012815D129440819441C95
:105540000994B6D04445B4D805990123009A08447B
:105550000121FFF775FF0028ABD04FF0000B264666
:1055600025460D940FE0CDF824804446049880BB76
:1055700001210120049056468DF83D10C2454FF0A0
:10558000010B454625D00398007838B101980422D4
:10559000C3681249029879449847C0B90598B5EB99
:1055A0000A0200EB0A0101D1002006E0501810F8B1
:1055B000010C0A38B0FA80F04009039B187001987A
:1055C000C368029898470028B2463FF46EAF0120A6
:1055D00000E0002010B001F0F3B800BF5E3500001D
:1055E000F0B503AF4DF8048D84688846D0E90056C5
:1055F000207850B1F36828460B4904227944984733
:1056000018B101205DF8048BF0BDA8F10A004146F5
:10561000B0FA80F040092070284632695DF8048BAA
:10562000BDE8F040104700BFF8340000D0B502AF2D
:1056300004460079617911B128B1012015E00028F4
:1056400018BF0120D0BD2068017F490706D4D0E9EA
:1056500005010222CB680649794405E0D0E905013D
:105660000122CB680349794498472071D0BD00BF1F
:10567000B43A0000A53A00000A4602497944FFF70F
:1056800093BA00BF983A0000D0B502AF044600F0CC
:10569000A8FB08B900F0AEFB00F0A3FB28B320463E
:1056A000042100F09AFB20780528F5D1E1782079D3
:1056B00040EA51024908227118B169B1032909D0A1
:1056C00013E0032911D80020DFE801F0020E1104D5
:1056D00020710AE00220D0BD00210428217104D2EB
:1056E0000449C00021FA00F0D0BD0620D0BD012041
:1056F000D0BD00BF06030405F0B503AF2DE9C00D12
:105700000446007DDFE800F0020B1B2A204603213F
:1057100000F097FA2069002853D02F4909E0D4E916
:1057200000012322012300F00BFA2069002848D051
:10573000284900906846019100F02DFB41E0D4E932
:1057400000010722012300F0FBF9D4E902844FF0A5
:10575000150A11254FF0000B00222AE020460121F6
:10576000BDE80C0DBDE8F04000F06BBA02F1110687
:105770002346A64238BF33469A4225D822B118F9AB
:10578000021011F1400F1FDBB44204D918F90310C5
:1057900011F1410F18DD00EB0B0108EB020052463E
:1057A000002300F0CDF9ABF1110B11350AF10E0A0F
:1057B0003246AC42284638BF2046332A18BF9442AE
:1057C000D4D8BDE80C0DF0BD40462146FFF74FFC94
:1057D000FEDE00BF3900110039000A00E0B502AF5B
:1057E000009040300190684600F0CBFA8CBDD4D4D4
:1057F000F0B503AF4DF804BDA2B0044600F0F1FAD5
:1058000008B900F0F7FA01AD802101F013F800F0BB
:10581000E8FA38B32846802100F0DFFA9DF804004A
:10582000BDF8056000F06AF8C0B20F2811D0162844
:105830000AD01028EBD130BA000C0228E7D9204654
:10584000294600F091F8E2E72046294600F064F886
:10585000DDE7B0B2B0F5807FD9D19DF8070000F048
:10586000BDF8D4E71B4D19F8050007281ED00A28FB
:1058700023D1B4F80801532107F8131C00BA010E14
:10588000000C07F8120CA7F1130007F8111C0321F4
:1058900001F0E4FBD4F80811002022464FF4827393
:1058A00000F01CF889B201F0D9FB06E0B4F8081149
:1058B00022460948784401F033FB09EB050100203A
:1058C00009F80500C4E941008871488022B000F061
:1058D000CEBF00BF04200000C113000080B56F469A
:1058E000814207D399429FBF0244091A104680BDE6
:1058F00008461946FFF7ACFBFEDED4D40138C1B22E
:10590000172984BFFF207047024940B27944085CE0
:10591000704700BFFE460000B0B502AF0446114814
:105920000A4619F8001001B1B0BD0A217D2509F819
:105930000010484406218171B2F8011009BA0B0C1D
:105940007D2B38BF0D0CE91C458003208023FFF719
:10595000C5FF02460B4620462946BDE8B040FFF78A
:1059600093BC00BF04200000DCB504AF0A79012A13
:105970001AD0CB78022A03F07F041CD0042A28D145
:10598000062C26D2134A00904A44134822444B79ED
:10599000484413734FF48272ADF804208A1D6B469D
:1059A000214601F05BFCDCBD0B4806314844BDE8F4
:1059B000DC4001F028BC062C0BD2064800224844EB
:1059C00000EB440042828A1D03482146484401F00E
:1059D00092FCDCBD0420000078200000D0B502AFAE
:1059E000FFF78CFFC0B20138072814D8DFE800F0B9
:1059F0000414131A131313201348012109EB000494
:105A0000204601F0FBFC204601F0DFFC0F4809EBCB
:105A10000001897991B1D0BD0B484844BDE8D04020
:105A200001F0F3BC08484844BDE8D04001F0E9BCAF
:105A300005484844BDE8D04001F0E5BC4844122187
:105A40000C3002F037FAD0BD7820000004200000AE
:105A5000D1F80431042B05D10C4A00217A44C0E965
:105A6000002170470A7912B1052300F036B8052BE2
:105A7000F2D0062B05D10021016046F6036181803A
:105A80007047B1F80520072300F027B8444500000F
:105A900080B56F46D0F808219308402B9FBF0B0AB2
:105AA0008354D0F80821013298BFB2F5827F3FBFFE
:105AB0008154D0F808110231C0F808113CBFBDE88C
:105AC0008040FFF795BE10464FF48271FFF77AFBD6
:105AD000FEDE4FF41041FFF7DBBFB0B502AF044666
