:02000004C0DE5C
:1000000080B56F4606F0B4FF012006F01BFAFEDE55
:10001000F0B503AF2DE9000D9AB002AD8846044655
:100020004021284608F09CF912AE20214FF0200A0A
:10003000304608F095F92120414605222B460096CE
:10004000212607F03BFA04F10800294606F08CFE51
:10005000284605F09FFEC4F804A026701AB0BDE83B
:10006000000DF0BDF0B503AF2DE9000D98B082464C
:10007000486890460E46212801D2032507E0312822
:1000800001D2042503E00925412838BF052504AC29
:1000900048214FF0480B204608F062F90020CDF8C7
:1000A00058B0179017A816A92022CDE902103046A3
:1000B000CDE9002440F201612A46434607F0CDF91C
:1000C00028B100F0B7F88AF8010001200BE00AF12E
:1000D000040004A906F0E2FDDDE9160101F00101CA
:1000E000CAE9130100208AF8000018B006F0F6BD36
:1000F00080B56F468EB000F0FFF9002101228DF827
:10010000341002210D230991079205930C4B0291A3
:1001100008217B440493009200288DF8182018BF12
:1001200007210C91074808497844794418BF0146D3
:100130000B916846022106F0FFF80EB080BD00BFAB
:100140001E90000015900000E98F000080B56F46FA
:100150008EB006F036FE07220748079178440B90D0
:10016000022005920990054A0290684600917A445F
:1001700006F0EAFD0EB080BDEF8F0000D68F0000C4
:1001800080B56F468EB006F01CFE08220748079126
:1001900078440B90022005920990054A0290684627
:1001A00000917A4406F0D0FD0EB080BD9B8F000018
:1001B000398F000080B56F4688B0012004218DF88A
:1001C0001C00069105490190794405910221039193
:1001D00001A8012106F0B0F808B080BD9C8F000096
:1001E0007047D4D400B1704780B56F4602482B21C8
:1001F000784404F0FDFFFEDE67930000F8B504AF1D
:10020000009102A803AA034979440B4605F004F8BB
:10021000FEDE00BFF48D0000F8B504AF009202A826
:1002200003AA034979440B4604F0F6FFFEDE00BF43
:10023000E88D0000014600F17F021020222A15D827
:10024000DFE802F0121E20222426282A2C2E30322B
:100250001D1D1D1D1D1D1D1D1D1D1D1D1D1D1D1DCE
:100260001D1D1D1D1D3436000120704711F1BF02F8
:1002700004BF0D207047DF3104BF00207047704776
:100280000220704703207047042070470520704704
:1002900006207047072070470820704709207047E4
:1002A0000A2070470B2070470C2070470E207047C3
:1002B0000F207047D0E901329A423FBF511C816044
:1002C0000068815C00209A4238BF01207047D4D476
:1002D000E0B502AF60B113460A460146684602F037
:1002E0003DF8BDF800100320002908BF04208CBD94
:1002F00002482B21784404F07BFFFEDE639200006D
:10030000934228BF994207D280B56F4604484721DF
:10031000784404F06DFFFEDE1044991A704700BF68
:100320000C8D0000E0B502AF00F12801083000900C
:100330006846019106F024F88CBDF0B503AF2DE9B5
:10034000F00D16463A89D1F800B04FF00008019040
:100350001820A0EBC20AC2F1040402930391009298
:1003600006F0E2FC13D0A04511D2304606F054FC52
:100370000AF01800E9B2AAF1080A08F1010801FA26
:1003800000F04BEA000B0398C0F800B0E8E70199D1
:100390000020087000984044042808BF4FF0FF3048
:1003A0008880029808BF4FF0FF30488006F052BCAA
:1003B000D0B502AF044607F0D7F80648784405F0F8
:1003C000E9FF0548784405F0E5FFA047BDE8D040C7
:1003D00007F0D2B898930000889300000148784451
:1003E000FFF7E6BF0FFDFFFFC0B2032811D8DFE81B
:1003F00000F00208060C09487844FFF7D9BFFFF760
:10040000EDBF07487844FFF7D3BF06487844FFF7AD
:10041000CFBF80B56F4604F0E6FEFEDE85FDFFFF30
:1004200045FDFFFFA5FDFFFFB0B502AFC0B06D46B3
:10043000044628464FF4807108F0FDF828464FF432
:10044000807107F005F8204629464FF4807207F0C6
:100450006DFF40B0B0BDF0B503AF4DF8048DC0B036
:100460006C468046204615460E46FFF7DDFF2046C7
:1004700031462A4600F012F806F0FEFB04D1694628
:10048000404600F019F804E00121A8F8020088F8BD
:10049000001040B05DF8048BF0BDD4D480B56F4639
:1004A00006F0EAFF0349002808BF01F5706108461D
:1004B00080BD00BF01E0FFFFF0B503AF4DF804BD04
:1004C00088B06E460D4604463046202107F048FFAE
:1004D0002846314606F0CBFF20B14EF20100608085
:1004E000012004E0601C694606F03EFC00202070FC
:1004F00008B05DF804BBF0BD80B56F4600F0ACFFFE
:1005000000F087FF0078002818BF012080BDD4D4F8
:10051000F0B503AF2DE9000D9EB00446C068804ED3
:1005200001287E4408D098B9216A00203246002371
:100530008DF82800059615E00120216A8DF8280025
:100540000023A068D0E900200592764A7A4409E0A9
:10055000A36800208DF82800D3E90050216AD3E970
:1005600002230595099106A90DC106F0FDFF0020A3
:1005700011908DF8480005A805F0A8F906F0FCFFD9
:1005800011AD284605F06AF9C0B20628F9D0033843
:100590000228F6D806F0F0FF4FF0000A3346CDE906
:1005A0000D6A04F1100ED4E909604FF0010CE56901
:1005B0001590D4E9000808F1010B9EE8064001906F
:1005C000B8F101008DF840C00F96CDE90B128DF8FF
:1005D00058C0CDE9133ACDE911E538BF5046039034
:1005E000BBF1010038BF5046049004200024029063
:1005F0001BAE17AD5C4515D044452AD106F0AEFBC5
:100600000BA805F063F906F0B7FF304605F026F9B0
:10061000C0B20628F9D0032817D0042817D005281F
:10062000F3D171E006F09AFB11A805F04FF906F03E
:10063000A3FF304605F012F9C0B20628F9D005280C
:1006400062D00328F5D1049CD4E7039CD2E75C4632
:10065000D0E7CDF800805ED20320CDF85CA01990E1
:10066000332201988DF860A000EB0410C168B1FB43
:10067000F2F808F101011A911AA91D9119A9CDE901
:100680001B010298C0B2032818BFD046304641462D
:1006900005F00AFA284605F0E1F8C1B20629F9D0BA
:1006A0000429F7D820487844DFE801F0060403095C
:1006B0001100EFE71D48784405F09EFEEAE705F0DB
:1006C00083FEB8F1000F0ED0A8F10108DEE718484C
:1006D000784405F079FE1A9908F1010088420DD09E
:1006E00038BF8046D2E7601E4FF0030138BF504646
:1006F000002C044608BF0421029102E004200134CA
:100700000290DDF8008075E7B4EB0B0018BF012004
:100710001EB006F09CBA0099204604F043FEFEDEAF
:10072000D6A40000ACA400001E9000002A90000097
:1007300010900000D0B502AF06F0D6FABDE8D04068
:1007400000F0DDBB80B56F4690B0CDE903230722F2
:1007500002920DF1140C144B7B440193134B7B4418
:100760000D930223089301ABACE80B0010480A92EA
:1007700078440E900F48784409900F4878440F90C1
:1007800006200C900D4878440B9005A8FFF7C0FE9A
:1007900046F6046100281CBF4EF60171CFF6FF71CA
:1007A000084610B080BD00BF278D0000D28B00002E
:1007B000F48B0000CE8B00001C8C0000F28B00003C
:1007C0008A429CBF1146704780B56F46104604F0C0
:1007D00028FDFEDEDFB506AF044601A804F068FE82
:1007E000019820B14FF46F40A080002002E0DDE9C5
:1007F000020161602060DFBDF0B503AF2DE9000D9F
:100800008AB001AC8846834621212046164607F06F
:10081000A7FD2046212105F0DDFF304606F0EFF868
:1008200060B15F482121CDF8050030208DF804002B
:1008300048208DF8090001A8062296E03478204669
:1008400006F004F998B101AC0921204606F0C4F87D
:10085000544A09237A4404F007FE482021218DF8E8
:1008600011000E224E48CDF80D0020467DE02046B6
:1008700006F0DCF8082814D8484C0138711C002216
:100880004FF0E80C00250028DDD011F8013B2D02C7
:1008900045EA1265013843EA0222A31A7CEB0503FC
:1008A000F1D20DF1040A2121504605F093FF3046A4
:1008B0005146212206F028F9B8B10E46122916D960
:1008C000A6F112040DF1040AA6F1110000905046A1
:1008D00021212246334605F0FDFE212C5AD2A6F1F5
:1008E0000B022E200AF8040018E000203FE05046DA
:1008F000212100223346C6F114050095002405F09D
:10090000E9FE2E203021A54207D0012C14BF0AF8A1
:1009100004108DF805000134F5E7082201A8212113
:1009200006F0EAF84A1E3AB169B3835C013A302B0B
:10093000F9D0531C023201E0002301228B4227D25E
:10094000C45C2E2C08BF1A4606F0D6F801AE4C1D2A
:1009500008462146324606F043F8134A05237A44F6
:1009600004F082FD30462121224606F0C5F800F051
:100970009FFA02460B465846414601F0EFFC0AB08A
:10098000BDE8000DF0BD1046002104F00BFDFEDEB9
:100990001846FAE720462121F7E700BFFF0FA5D44C
:1009A00020414C5052A2000043A10000D0B502AF3C
:1009B0000446084611461A4601F078FC06F04DF947
:1009C000BDE8D040FFF706BF80B56F4604F01FFCBE
:1009D000FEDED4D4F0B503AF2DE9FF0D0190202049
:1009E0000DF10C0CCDE9052001201D464FF0000B48
:1009F0003A2400260490A7F11900039007F8191C67
:100A0000BBF1020F33D00CEBCB005CF83B800BF159
:100A1000010B406840440290804525D028462E2195
:100A2000324698F800A005F0FFFE51B10278013976
:100A30000AEB0222B2FBF4FA0AFB142200F8012BA3
:100A4000F3E708F10108BAF1000F0BD02E2E6ED09B
:100A50002D2E75D8BAFBF4F000FB14A18246A955DF
:100A60000136F0E70298D7E70DF10C0CC8E700203B
:100A70000021022913D063465CF831200CEBC1033E
:100A800001315B68002BF4D012F8014B3CB92E2EDB
:100A90004DD02D2E54D8A855013B0136F2E72846FB
:100AA0002E21324605F0C0FE2C4B7B4439B1027832
:100AB000392A4AD89A5C013900F8012BF6E7284C0C
:100AC00028462E2132467C44A0474FEA510B029122
:100AD00059465A460090A04723468246029C8846C3
:100AE000009859465A462044A0EB540098474FF0CE
:100AF000FF32002302EB5402541C0DD0984527D03E
:100B00008A4228D21AF803C0845C0AF803400133F1
:100B100000F802C0013AEFE7002031462A462E23B2
:100B200005F01AF918B1019A5160114604E00199D3
:100B30004EF2020088800020086008B006F0CEB8AF
:100B400030462E2104F02EFCFEDE10463A21F9E755
:100B500040464146F6E71046F4E700BF9B9F000081
:100B60005F5D0000B0B502AF0D46B0F80C1259B190
:100B70001446B0F80E22002101F098FB2A462346C5
:100B8000BDE8B04000F0B5B90020B0BDF0B503AF8E
:100B90002DE9000D8AB00546B0F80C024EF6017B37
:100BA000002800F09780B5F810420E46A14240F2AE
:100BB0009580B5F80EA2301BD5F8048001280FD11E
:100BC00007202946009003A8474B22467B4400F0AB
:100BD000EFF8BDF80C0000284DD0BDF80EB079E05C
:100BE000CDF808800DF10C081221404607F0B8FB43
:100BF000404612210822FFF79DFD3E4A08237A4411
:100C000004F032FC4046082100F075F906F025F8A2
:100C100005F07CFD60B30DF10C0801F10C0401F14D
:100C2000080012232146424600F069F9304A0423A5
:100C30007A4404F019FC4046214600F05CF9024673
:100C40000B46701E11461A4605F060FD80B10A1968
:100C500003A81221FFF7B4FD024608A80B46294657
:100C600001F07CFBBDF8200038B1BDF822B031E0C6
:100C70004EF2020B2EE0049C02E0099CDDF8088095
:100C800003A8294600225346FFF790FE039EFEB1BB
:100C90004246DDF8108003A829462346FFF786FE6A
:100CA000039AAAB10720049BCDE9056801210490AD
:100CB0000E487844039003A8FFF744FD81B25945DC
:100CC00011BF83460020A5F80C02C5E9000001E031
:100CD000BDF810B058460AB005F0B9BF06483C212F
:100CE000784404F085FAFEDE3E8600005F85000051
:100CF0003C8500001D850000EE840000F0B503AFC8
:100D00002DE9000DACB090460A4600211D4601F0C9
:100D1000CDFA0DF15C0B06460C462946584600F00C
:100D20005FFA9DF85C50202D01D1204830E00DF194
:100D3000100A0BF104010AF104004822CDE9014632
:100D4000CDF80C809DF85D60BDF85E8007F0EAFA92
:100D5000ADF812800AF108018DF811608DF810507D
:100D600017AC204600F088FA2AA8039B00212246EF
:100D7000FFF730FE2A9A3AB12B9BDDE9011000F013
:100D8000B8F80021002209E0BDF8AC0000040130F1
:100D90004FF6FF71012220EA0101000A000211430F
:100DA00080B208432CB005F052BF00BF010005E03F
:100DB000F0B503AF2DE9F00DBD68824600206E4608
:100DC000934688468DF80C000D2102902A46CDE905
:100DD000000030461C46FFF7ADFC22462B4604F0CF
:100DE00043FB30460D212A4600F078F802460B46B8
:100DF000114658461A4605F089FC58B14A1968460A
:100E00000D21FFF7DDFC02460B465046414601F03E
:100E1000A5FA02E00248CAF8000005F01BBF00BFB7
:100E2000010002E00A464021FFF7CABCF0B503AF5B
:100E30004DF804BD90B06E460D460446304605F0B0
:100E400050FF0020202814D0295C5722A02938BF49
:100E5000302202EB111206F8102001F00F01572288
:100E60000A2938BF3022114406EB4002013051708C
:100E7000E8E7601C6946402207F04AFA002020702B
:100E800010B05DF804BBF0BD0A781AB901314022F8
:100E900007F03EBAE0B502AF0348791E034A784432
:100EA0007A4404F0AAF9FEDE5A9B0000DC820000BE
:100EB00000B1704780B56F4602482B21784404F09A
:100EC00097F9FEDE9B8600007047D4D4084602499D
:100ED0000222794404F0D4B8229B0000914222BF40
:100EE0001044891A704780B56F46104604F099F98E
:100EF000FEDE04F095BB0A461221FFF7EFBF80B576
:100F00006F46814207D399429FBF0244091A104697
:100F100080BD0846194604F084F9FEDE02780146D9
:100F20000120C32A0AD0B1F84420012A98BF024602
:100F3000B1F94810B1F1FF3FC8BF10467047F0B596
:100F400003AF2DE9F00D83468C68B86898461646C5
:100F50000D46B4F1FF3F1EDDD5F800A054450CD27C
:100F600005F0E2FE09D03046FFF7A4F900F00100D9
:100F7000FFF738F90134AC60F0E7544507BF4FF094
:100F8000FF30CBF80200B868ABF8040018BFABF82C
:100F90000280002022E00090A7F11E002946324680
:100FA000434600F01FFB17F81E0C28B117F81D0C64
:100FB0008BF80100012011E037F81A0C4FF6FF738F
:100FC00037F81C1C01EA00029A4202D10024AC60EE
:100FD000C2E7ABF804000020ABF802108BF8000069
:100FE00005F038BEF0B503AF2DE9000D8CB00D460D
:100FF0008346D2E901019846D7F808A0884207D174
:101000000020ABF804A0ABF802808BF80000E1E010
:101010002C781646042C21D13046FFF74BF905F009
:1010200040FEE0B2811E022905D320B1012806D07E
:1010300040F20110BCE007A8132107F091F900204D
:1010400014226873C5F80900C5F80500C5F8010049
:1010500005F10E0007A907F05BF92C70E0B2DFE89C
:1010600000F003100303A500C7F808A0691C584648
:10107000324643460CB0BDE8000DBDE8F04000F03C
:101080000DBCCDE901A8A81DD6E901A8CDF80CB08A
:101090000490A81CCDE90505C24500F08C806C8940
:1010A000022C00F28F8014D0012C26D0002C40F0AE
:1010B0008980A889059970B9F06801224749794467
:1010C000FFF706F9C1B2042940F08080002005999D
:1010D00001E0A8890499009007A83246234600F051
:1010E00004FB9DF81C0000286ED14246D6E901A4FD
:1010F000BDF820B0BDF81E8020E0B5F80CB0444625
:10110000688845010AE03046FFF7D4F800F0010096
:10111000FFF768F80BF1010BD6E901A41FFA8BF079
:10112000A24518BF8542EED842464FF001088542DD
:101130004FF6FF7008BF834608BF804630685146AF
:101140002346FFF7DDF80246F06805F030FEC1B235
:1011500004293BD108EA0B014FF6FF70081A4FF63D
:10116000FF7318BF5846069D99426A8908BF02F16D
:1011700001081FFA88F2032A08BF1846A88108BF91
:1011800098469942A5F80A8015D11FFA88F199422C
:10119000A0467FF481AF80B2A04698427FF47CAF36
:1011A00003994FF6FF704FF6FF7207E040F20120FF
:1011B000ABF800000EE00399DDE901204880002033
:1011C0008A8006E0022001E09DF81D000399487026
:1011D000012008700CB005F081BD00BFE281000065
:1011E000F0B503AF2DE9000DB0B013AE8046304628
:1011F000FEF70EFF9DF84C401DAD05F108004121A2
:101200004FF0410A07F0ACF8204629463246012348
:10121000CDF878A08DF8744006F024F918B1FFF7E6
:1012200009F805460CE0291DBDF876609DF874406C
:1012300048229DF8755001A807F074F8202C09D1B8
:1012400045F06E00C0B2A8F8020013A8FFF76AF8D4
:1012500020240BE008F1040001A905F01FFD13A8EC
:10126000FFF760F8A8F8026088F8015088F800409D
:1012700030B005F033BDD4D4F0B503AF4DF804BDA4
:1012800092B0A7F155060D460446701C013105F0D9
:101290006BFD95F840000121212261F35F0007F802
:1012A000550C09AD31462846FFF7D5F89DF82400C6
:1012B00038B9691C204605F057FD12B05DF804BB33
:1012C000F0BD0448A7F11201034A78447A4403F0C0
:1012D00094FFFEDE2E970000C47F00007047D4D438
:1012E000D0B502AF0088A0F56042052A0CD9A0F560
:1012F000DC42042A11D8DFE802F003171B1F230089
:10130000214C06227C4435E0DFE802F0031D212554
:10131000292D224C10227C442CE0B0F5104F26D110
:10132000184C02227C4425E0184C06227C4421E023
:10133000174C07227C441DE0164C06227C4419E021
:10134000154C7C4415E0164C0F227C4412E0154CE1
:1013500008227C440EE0144C14227C440AE0134C16
:1013600014227C4406E0124C17227C4402E0114C0B
:101370007C440D22D1E90501CB682146BDE8D0406F
:10138000184700BF62810000848100006281000074
:10139000608100005F8100005F8100009881000093
:1013A00074810000197D0000738100007F810000BE
:1013B0008B8100009C810000C0B2A5281CBFC9B26F
:1013C000A52903D1A53818BF0120704780B56F4605
:1013D00003F009FFFEDED4D4B0B502AF0C460949D4
:1013E0000546794400F012F805F1400021460A2232
:1013F00006F05AF8044928467944BDE8B04000F0A8
:1014000005B800BFBF7E0000AA7E0000012206F0E2
:101410004BB8F0B503AF4DF8048D86B0044606789E
:1014200014F8808F054630464146FFF7C5FF002877
:101430000CBF2C464646F0B2A52801BF04F140007F
:1014400006B05DF8048BF0BD002069460090204690
:10145000FEF7D4FEFEDED4D480B56F46054849467B
:101460004844401A044979440844BDE8804005F0E6
:10147000D1BF00BF0000000096970000F0B503AF99
:101480004DF804BD00780E460F4905247944DFE885
:1014900000F01203070B0F000C490C2479440AE0FA
:1014A0000B490B24794406E00A490B24794402E0F5
:1014B000094904247944D368304622465DF804BBC8
:1014C000BDE8F040184700BF177E00000C7E00000A
:1014D000107E0000137E0000A07C0000F0B503AF7A
:1014E0002DE9000D90B000680C460122D0E900857E
:1014F000D1E90501CB683549794498470646012072
:10150000002D4FEAC67153D0CDF8088009B10126ED
:1015100049E0D4F81CA0C0075FEA4A710ED440B974
:10152000D4E905010222CB6829497944984700286B
:10153000EDD102A8214604F09BFE33E0D4E9052B4F
:1015400050B1DBF80C3010462249012601920122ED
:1015500079449847019A30BB0120CDE9032B07F865
:101560003D0CA7F13D0005900DF11C0CCDF838A005
:10157000194878440D9003A80C9094F820008DF839
:101580003C0094E84F00ACE84F0002A807A904F023
:101590006FFE0028BBD1DDE90C010222CB680F49A8
:1015A00079449847064608F10108013D0020A7E765
:1015B00009B1012006E0D4E905010122CB68084900
:1015C0007944984710B005F042BB00BF9D810000F0
:1015D0005B81000044810000AA7F0000EC800000D5
:1015E000D6800000F0B503AF2DE9F00D039106465B
:1015F000D2E90101BD68884202D1B58073805FE005
:1016000093465FEA0548029302D00398047906E006
:101610005846FEF74FFE05F044FB03980471204640
:1016200000F052F8052803D900207070012048E02E
:10163000824614F0C000019603D0402818BF8028CD
:1016400012D1B8F1000F13D1A00664F03F0058BFCB
:1016500004F03F00182101EBCA01012501F0180137
:1016600088400399086003E0ADB2012D98BF0125C1
:10167000ACB2E0435044C6000398D0F80080DBE9E8
:101680000101884211D054450FD2584605F0C4FAE2
:1016900006F01800E9B2083E013401FA00F048EA09
:1016A00000080398C0F80080E9E7544508BF4FF0F0
:1016B000FF34019E0298B48008BF4FF0FF30708065
:1016C0000020307005F0C6BA00F0C001802904BFC8
:1016D00004207047402904BF0220704709B9012047
:1016E000704700F03F0005307047F0B503AF2DE9BB
:1016F000F00D0C460546D2E90101D7F80880884272
:1017000003D1A5F804806B8054E016465FEA0840D8
:1017100001A919C102D094F802A006E03046FEF7F4
:10172000C9FD05F037FB84F802A05046FFF7CCFF57
:10173000042803D90020687001203CE0834601980A
:10174000009528B103981FFA88F4B0F800A00CE0C7
:1017500018200AF03F0100EBCB00012400F0180034
:1017600001FA00FA0398A0F800A0E04358444FEAB9
:10177000C00805F0D9FA12D05C4510D2304605F009
:101780004BFA08F01800E9B2A8F10808013401FA90
:1017900000F04AEA000A0398A0F800A0E9E75C45D7
:1017A00008BF4FF0FF34009D0298AC8008BF4FF097
:1017B000FF3068800020287005F04CBAF0B503AF08
:1017C0004DF804BD0D460446D2E90101884201D11D
:1017D000B8680CE01046FEF76DFD00F001000E4603
:1017E000FEF700FD4FF6FF734FF6FF702E70A080DE
:1017F0000020638020705DF804BBF0BDF0B503AF3E
:101800002DE9F00D16460D46D2E90112BC68914251
:101810003AD02104CDE9013003D095F800A0A4B25C
:1018200007E03046FEF746FD05F0B4FA85F800A063
:101830000124504605EB0408FFF746FFA4EB000B1C
:101840004FF0000A0390001B009005F06DFA10D0D5
:101850001BEB0A000BD0304605F0DEF904EB0A0062
:10186000212817D208F80A500AF1010AEDE7DDF83D
:1018700000A003985444844211BFDDE901304FF6C3
:10188000FF734FF6FF74029800218480438001703B
:1018900005F0E0B9212103F085FDFEDEF0B503AFD0
:1018A0002DE9F00D05F00BFACBF120000393019028
:1018B00005F03AFA10D00BEB0804B4F1200009D07F
:1018C000304605F0A9F9202C17D20AF8085008F183
:1018D0000108EDE7DDF8048002990020087008EBAC
:1018E0000B00202808BF4FF0FF308880039808BF06
:1018F0004FF0FF30488005F0ADB92046202103F0BD
:1019000051FDFEDEF0B503AF2DE9000DA2B08B4610
:10191000044631F8440F1D4601239246012898BF22
:101920001846B1F90420B2F1FF3FD8BF1846ABB258
:10193000984240F2F083B868B2F1FF3F40F3ED8384
:10194000BBF842004FF6FF78BBF840300295169482
:10195000434508BF40451DD10020C2210023CBF8DC
:1019600024008BF80010511C8BF83A00ABF83800BB
:101970008BF83600ABF834008BF83200ABF830004F
:10198000ABF83C00CBF82700ABF82C80CBF840003C
:10199000ABF848100BF1140101910BF10201049115
:1019A0000BF1040119910BF1090118910BF10101DF
:1019B00017910BF13C0115910BF13D0114910BF1C5
:1019C000300113910BF1340112910BF13801119197
:1019D0000BF1280103910126DAE90112914200F08E
:1019E000A883BBF828200624012A98BF3246BBF9F9
:1019F0002C10B1F1FF3FC8BF541DA4B29AB2A2424D
:101A000080F09D83042A0CD8DFE812F0050007035C
:101A10000F0315031B0300901BA8159952460023C2
:101A200000E3B1F1FF3F40F34883BBF82440444555
:101A300001BFBBF826004045C2208BF8000001BF63
:101A40000024CBF82440481CABF82C00DAE9010153
:101A5000884200F05683584604F0D0FEA1B280B20E
:101A6000814280F06C839BF80010C22940F01881FD
:101A70005046FEF71FFC05F014F9E2B2C221D42A49
:101A800000F20C812046DFE812F0D600B502D50046
:101A9000D500D500D500D500D500D500D500D5009E
:101AA000D500D500D500D500D500D500D500200241
:101AB00026023D024502B502B502D500D500D5008B
:101AC000D500D500D500D500D500D500D500D5006E
:101AD000D500D500D500D500D500D500D500D5005E
:101AE000D500D500D500D500D500D500D500D5004E
:101AF000D500D500D500D500D500D500D500D5003E
:101B0000D500D500D500D500D500D500D500D5002D
:101B1000D500D500D500D500D500D500D5001002E0
:101B200010021002D500D500D500D500D500D50093
:101B3000D500D500D500D500D500D500D500D500FD
:101B4000D500D500D500D500D500D500D500D500ED
:101B5000D500D500D500D500D500D500D500D500DD
:101B6000D500D500D500D500D500D500D500D500CD
:101B7000D500D500D500D500D500D500D500D500BD
:101B8000D500D500D5004802D500D500D500D50038
:101B9000D500D500D500D500D500D500D500D5009D
:101BA000D500D5000901090109010901090109014F
:101BB00009010901090109010901090109010901D5
:101BC0000901090109010901090158025A025C02CF
:101BD0005E02600262026402660268026A026C02CD
:101BE0006E02700272027402760278027A027C023D
:101BF0007E02800282028402860288028A028C02AD
:101C00008E02900292029402960298029A029C021C
:101C10009E02A002A202A402A602A802AA02AC028C
:101C2000AE02B002B202B402B702B902BB02BD02F8
:101C3000C202C4021A980F998BF808101099CBF8B9
:101C400004100699189A8BF803100D998BF802105E
:101C5000BDF8841011809DF8861091700799ABF83B
:101C60001A100C99ABF8181005998BF817100B99EE
:101C70008BF816100A99ABF814100999ABF81210EA
:101C80000899ABF810100E99CBF80C10DDE91E1274
:101C9000CBE9071221468BF801001A908BF800104F
:101CA000C8B2A0F11201052912D9A0F1BB01062981
:101CB0001BD9002832D0012830D04A2803D04B2825
:101CC00018BF4C2820D104F0B8FFFFF78BFC2FE0A1
:101CD000DFE801F00303676C242404F0F9FF17998F
:101CE00004F0E4FFFFF78AFD22E04FF6FF744FF6A1
:101CF000FF70DFE801F0132626264C04040004F0F0
:101D00009CFFFEF71AFB13E07E2857D08D2805D0E4
:101D10008E284FF6FF704FF6FF7412D1BBF82600E5
:101D200004F0C4FFBBF8243017995246FFF746FD74
:101D300017F82E0C002840F0308237F82A0C37F8BC
:101D40002C4C04EA0005B5EB080618BF0646BBF8A4
:101D50002400454508BF441C58461FFA84F804F087
:101D60004DFD80B280454FF6FF7808BF4646ABF880
:101D7000266008BF4446ABF82440454540F0C0818A
:101D800004EA0600012640457FF460AEBEE1BBF8E0
:101D90002430BBF82600002B63D0049904F086FFA2
:101DA000C3E704F04AFFFFF7CAF8C1E704F090FF69
:101DB000049904F07BFFFFF715F9B9E7BBF9182088
:101DC000B2F1FF3F53DDBBF81200BBF810104145E4
:101DD00008BF40450CD100204FF0FF31CBE9031084
:101DE000511CABF8181000218BF80800CBF8040048
:101DF000DAE901239A4253D0090440F0A08100900F
:101E00001EA8199952460023FFF799F89DF878000B
:101E1000002840F0B481BDF87C20BDF87A1001EABA
:101E2000020083B2B3EB080018BF1046BBF81020C5
:101E3000434508BF511C8AB2012A08BF4046ABF88F
:101E4000120008BF4146ABF81010434528D101EA03
:101E5000000292B24245CBD127F82C8C04F095FFBA
:101E60006FE71799524604F021FF00235EE704F064
:101E70002FFF00901EA80199FFF737FC9DF878000E
:101E8000002840F08681BDF87C10BDF87A0000EA99
:101E9000010242450DD027F82A1C27F82C0C4CE7EC
:101EA000BBF82600BBF824404BE7002010901A989E
:101EB0002DE0BBF8140000224FF6FF71ABF818209C
:101EC00004F048FF7FF47FAFE5E7002100201224F3
:101ED0008DF8861004E0002100208DF88610132470
:101EE000ADF884101E910E90ADF87C100D91CDE9E7
:101EF0000F11CDE90511CDE90B11CDE90911CDE99E
:101F0000070198E6002010904FF0FF300E9000215E
:101F10000F9190E604200D908CE6002010904FF079
:101F2000FF3000210E900F914FF6FF710C910021B0
:101F3000CDE90A11CDE908117DE68D245AE08E2401
:101F400058E08F2476E6902474E6912472E6922479
:101F500070E693246EE694246CE695246AE6962453
:101F600068E6972466E6982464E6992462E69A2453
:101F700060E69B245EE69C245CE69D245AE69E2453
:101F800058E69F2456E6A02454E6A12452E6A22453
:101F900050E6A3244EE6A4244CE6A5244AE6A62453
:101FA00048E6A72446E6A82444E6A92442E6AA2453
:101FB00040E6AB243EE6AC243CE6AD243AE6AE2453
:101FC00038E6AF2436E6B02434E6B12432E6B22453
:101FD00030E6B3242EE6B4242CE6B5242AE6B62453
:101FE00028E6B72426E6B82424E6B92422E6BA2453
:101FF00020E6BB2400201EE6BC241BE6BD2419E617
:10200000BE2417E60021BF2400200D9113E6C02452
:1020100000E0C124002010900CE600901BA8149949
:1020200052460123FFF7CAFB12E000901BA8139948
:10203000524602230AE000901BA81299524603233D
:1020400004E000901BA8119952460423FFF74DFBB2
:102050009DF86C00002840F09980BDF87010BDF824
:102060006E3003EA0102B2EB080018BF0846BBF865
:102070004010424508BF4B1CBBF8284099B2012CC8
:1020800098BF3446BBF92C50B5F1FF3F4FF0060521
:10209000C8BF651DACB2A14208BF4046ABF84200C4
:1020A00008BF4346ABF84030424542D199B2414562
:1020B00008BF40457FF490AC57E000901EA80399FC
:1020C0005246FFF712FB9DF8780000285AD1BDF860
:1020D0007C20BDF87A0000EA0201414504D0ADF849
:1020E0007020ADF86E00B8E7BBF8280000214FF66D
:1020F000FF72ABF82C1004F02DFE7FF496ACEEE7E7
:102100000126BBF84210BBF84030AAE74FF6FF713A
:102110004FF6FF73A5E7022042E000901EA852464A
:102120002B46FFF7E2FA9DF8780050B19DF8790050
:1021300036E0169CB868A080029860801DE00220FE
:102140002DE0BDF87C104FF6FF70BDF87A2002EA52
:10215000010383420FD1BBF844100022ABF84820A2
:1021600000297FF4EDABA080E7E7169CA4F804807B
:10217000A4F8028001E0A1806280002012E09DF8B6
:1021800079000CE09DF879008DF86D009DF86D00E8
:1021900005E09DF8790007F82D0C17F82D0C169C1A
:1021A00060700120207022B004F098BDF0B503AF3C
:1021B0002DE9F00D04F083FDCBF121000393019094
:1021C00004F0B2FD10D00BEB0804B4F1210009D0EB
:1021D000304604F021FD212C17D20AF8085008F1EE
:1021E0000108EDE7DDF8048002990020087008EB93
:1021F0000B00212808BF4FF0FF308880039808BFEC
:102200004FF0FF30488004F025BD2046212103F027
:10221000C9F8FEDE80B56F464946401A0349794445
:102220000844BDE8804005F0F5B800BFDE89000035
:10223000F0B503AF2DE9000D8AB01C4690460E465E
:10224000FFF7E8FFA519CDE90084B5F5006F17D8B1
:10225000B6F5006F19D800EB060A414622465046F3
:1022600005F022F9B54214D3504621464246234692
:10227000CDE902A403F0D4F980B14EF6017001E07B
:102280004EF202000AB004F0E2BC30464FF40061A6
:1022900001E03046294602F0C4FFFEDE0020694618
:1022A000049002A804AAFDF7B7FFFEDEB0B502AFA6
:1022B0000D460168144681B1A54224D2B4F5006FE1
:1022C00021D88068FFF7A6FF0246284621464FF432
:1022D0000063BDE8B04003F03FBDA5420DD2B4F5A8
:1022E000007F9FBF00F10C02284621464FF4007387
:1022F0009CBFBDE8B04003F02FBD05483A217844AB
:1023000002F076FFFEDE03483C217844F8E700BF88
:10231000AE700000DC700000D0B502AFD0E9001450
:1023200049B18068FFF776FF4FF400612246BDE8AF
:10233000D04000F00BB80C302146BDE8D04000F092
:1023400000B80A464FF4007100F000B8D0B502AFF3
:1023500004F0CAFCBDE8D04003F0FEBCF0B503AF0A
:102360004DF8048D82B00446D1E900061D4658B1EF
:10237000084611462A46334600F027F804F07CFC54
:102380001CD17019606017E006EB0508B8F5007FF6
:1023900008D8084611462A463346CDF8008000F09A
:1023A00054F807E0084631462B4600F025F804F0C3
:1023B00063FC03D1C4F80480002001E060800120A8
:1023C000208002B05DF8048BF0BDF0B503AF4DF88E
:1023D00004BD0646806815460A461C4619462B462B
:1023E000FFF726FF04F048FC02BF01216219C6E98D
:1023F00000125DF804BBF0BDF0B503AF2DE9000D90
:10240000054684680C30984692460E46FFF799FFC1
:1024100002460B4620460021FFF70AFF81B24EF626
:102420000174A1420FD1A868314652464346FFF7D6
:10243000FFFE81B2A14201BF012008EB0601C5E900
:1024400000014EF6017004F002BCF0B503AF4DF888
:10245000048DD7F8088006460C3014460D46194600
:10246000424600F00AF82A46234602F0FDFF00200B
:10247000C6E900085DF8048BF0BD8A4222BF08441B
:10248000511A704780B56F460846114602F0C9FEE2
:10249000FEDEDCB504AF0C46016839B111461A46C0
:1024A000234602B0BDE8D040FFF78FBF1919B1F540
:1024B000007F08D8009111461A462346FFF7C5FF52
:1024C0004EF60170DCBD214602B0BDE8D040FFF7FA
:1024D00093BFD4D4BCB504AF15461C465A18036844
:1024E000B3B1B2F5006F20D880682A462346FFF7C3
:1024F0009FFE80B24EF60171884208BFBCBD1048F5
:10250000A7F10A010F4A78447A4402F076FEFEDE13
:10251000B2F5007F0DD80C30FFF7AFFF2A462346F7
:1025200002B0BDE8B04002F09FBF08482C217844BB
:1025300002E005482A21784402F05AFEFEDE00BF80
:10254000F2840000D46D0000EC6E00001E6F0000ED
:1025500080B56F46ADF5116D4FF000084FF48971ED
:102560008DF8578111AC204605F0FAFE56AD1421C6
:1025700005F57570069005F0F3FE05F1C800CDF87D
:102580001882ADF858810490FDF74EFF05F5EA700A
:102590004FF4007105F0E4FEDFF8F8094FF4007124
:1025A000CDE9C8884844CA900DF24C508DF840855A
:1025B0000C3005F0D5FEDFF8E009ADF85887484447
:1025C000CDF854050020CDF85085CDF84C85FDF7A9
:1025D0000BFFA7F1CC06A7F14C0A301D0C900AF1B5
:1025E00008000A900AF104000B9006F1080005901B
:1025F0000DF27470DFF8A4B903300890F01C079056
:102600000DF2BC7003300390002010900F90304604
:10261000802105F0A5FE09EB0B0009F80B8080F87E
:102620000680A0F8028003F0F3FE08B903F0F8FE7C
:102630003046802103F0E8FE17F8CC0CA0F10E0123
:10264000082916D837F8CB2C0220DFE811F0370123
:1026500009002500320032003200320032002E0024
:1026600090B2B0F5807F04BF17F8C90C03F094FC5A
:102670001FE005281DD117F8C90C9DF8541141EA37
:102680005002400800298DF854216CD0002800F039
:10269000768003280DD1B9E010BA000C022808D9C1
:1026A0002046314603F03EFC03E02046314603F06D
:1026B00011FC19F80B000028B5D009EB0B0040887D
:1026C0000028B0D004288DF85781529005D22046BA
:1026D00046F6036103F0BAFCA5E75046214603F035
:1026E00095FC57F84C0C38B39DF84400B02804BF53
:1026F0009DF84610002925D09DF8551119B19DF877
:102700005611884245D11198C0F30721032940F2A0
:10271000D0805398810840299FBF6E21215453983F
:10272000013098BFB0F5827F80F0298401212154C7
:10273000539804F034FB76E737F8481C204603F042
:1027400085FC70E79DF847100029D5D19DF845001C
:10275000012824D0A72800F01584204646F6016100
:1027600003F074FC5FE70328A3D8022501210022AF
:10277000DFE800F0024F52558DF8548199E70129A6
:102780008DF8548144D0022945D003297FF491AFBC
:1027900044E020464FF4DC4103F058FC43E7539AF1
:1027A00001208DF84400501C5390901CB0F5827F9E
:1027B00080F0E5832118C2F58172012004F08EFEBD
:1027C00001465398B0F5827F3FBF21545398084487
:1027D000421C3EBF53920230B0F5827F80F0CF831F
:1027E000211840F20310821A022004F077FE0146FD
:1027F0005398B0F5827F80F0C283215453980844E7
:1028000001305390204603F040FC0CE7022506E01F
:102810000322154603E004210D4600E00525052DA1
:1028200000F29B80CB487844DFE805F003059799D8
:102830009C08C948784403F0DFFDE8E60F98C0B271
:10284000022803D003287FF4E2AE9EE3C34D7D440B
:10285000A8470F90A847FEF7DCFD014630460A2244
:1028600005F056FD0F98FEF7D4FD007804F042FA0B
:1028700007F8CC0CA84705460F9015F8801F007884
:10288000FEF79AFD0990002828460F9918BF0846C0
:102890003146FEF7A1FD099800280F9808BF0546AC
:1028A000AF4928467944FEF7B1FDFDF797FD0220B8
:1028B000ACE6000ADFE801F002040608002505E0A6
:1028C000012502E0022500E0032500200006109803
:1028D0007FF49BAE5298002800F0A7800DF5EC60C5
:1028E000142105F03DFD9DF84400802830D1E8B268
:1028F000DFE800F0023D68BA9A48784400F06CFBCB
:1029000000F0010009910F90974D7D44A84797482A
:10291000784400F061FB00F001000291A8472A46CC
:10292000099D0F98294690470299204607F8CB1C2D
:10293000314607F8CA5C032207F8CC5C03F0C2FBFF
:10294000DDE90D322046CDE90D3203F09EFB85E036
:102950004FF06E0E4FF0000C6BE00120B6E70F98C1
:10296000013801E00F98013000F0030577E004F032
:10297000FEF957F8CC0C002800F08D8057F8C81CE1
:102980000DF5EC6203F07AFF0DF2747500284CD05F
:102990009DF8473000209DF84620032B88BF01207A
:1029A000111F18BF0121CDE900321A430D9B00F021
:1029B000DF80084300F0DC804FF06E0E4FF0020C19
:1029C0000E9A38E004F0D3F957F8CC5C002D62D0B1
:1029D00057F8C80C342828D1284634211422FFF790
:1029E000B5FC0DF5EC6203F049FFF0B1304604F0A0
:1029F00078F914350DF2BC700023202B00F0008113
:102A0000E95C5722A02938BF302202EB111206F8E8
:102A1000132001F00F0157220A2938BF3022114438
:102A200006EB430201335170E7E74FF06E0E4FF0B3
:102A3000030CDDE90D325398810840299FBF04F84B
:102A400000E053980130B0F5827F80F0988204F85E
:102A500000C05398CDE90D3204F0A1F9109D28462D
:102A6000FDF7C2FC2846D0E504F081F957F8CC3CCC
:102A70008BB19DF840050DF2747557F8C8CC78B14C
:102A8000012864D19DF84600012840F0DA8056A85C
:102A90001946624630E037F8C8CC4FEA1C2EC8E72A
:102AA0006E210320BCF1170FC0F049819DF846202C
:102AB000002A40F04481002014211A460F936346F7
:102AC000CDF824C003F048F9069A03F0D7FE002899
:102AD00000F033810F9901208DF84005887D012891
:102AE00005D1FDF709FD0F99002800F0CC81099868
:102AF0001431A0F1140256A80DF24C5300F0A4FAC0
:102B000082B24EF601718A4240F09E809DF84005E7
:102B100002287FF415AF04993046FDF7CDFC17F875
:102B2000CC0C002800F05B8137F8CA0C0290010A37
:102B30000F91002556A801F0B1FFDDE90D32002DFF
:102B4000DDF808C0DDF83CE07FF4FCAE73E7EF2170
:102B50000020F4E0BA6E0000906E000007ECFFFF6A
:102B6000FD6900007E6B00000F070000696B00002C
:102B7000019800286AD00DF5EC613046FEF730FB75
:102B800017F8CC0C20286BD017F8CB1C48220991E1
:102B90000F90DDE90B0137F8CA5C05F0C3FB09981B
:102BA0000A9907F84B0C0F9807F84C0C3046029521
:102BB00027F84A5CFEF760FB002041F2055120280F
:102BC00005D0325C01EB411101301144F7E741F0CF
:102BD0000100019A00BADDF87057010C81EA10215A
:102BE00081EA10614840C0B2B0FBF2F101FB120073
:102BF0000099884200F0AC80681CCDF87007BAE7F5
:102C000017F8CC1C3D220F910799099537F8CB5C3A
:102C100005F07EFB08980DF2BC713D2205F078FBB3
:102C20000F980DF274718DF8740730464022ADF89C
:102C3000755702F03DFC57F8CC0CA0B14FF0EF0EE9
:102C400088E66E2102207AE0110A78E00DF5EC6149
:102C50003046FEF7C5FA17F8CC0C202840F08780E4
:102C600037F8CACC19E7052257E93201CDF8082810
:102C70000723CB4ACDF800387A44CDF80428C94A56
:102C8000CDF8140804207A44CDF8FC27CDF81818A4
:102C9000CDF81008C4487844CDF80C08C3487844EF
:102CA000CDF8DC070220CDF8C8070DF2FC70CDF896
:102CB000C4070120CDF8C0070DF60C00CDF8BC0705
:102CC000BB48CDF8D0377844CDF8E007B948784410
:102CD000CDF8CC07B8487844CDF8E4070620CDF805
:102CE000D807B6487844CDF8D4070DF2BC70FDF78C
:102CF0000FFC00284ED0A7F1F4050DF5EC61284635
:102D0000FDF786F9099A30462946FDF7ABF917F821
:102D1000CC5C35B90C99504603F0C0FF57F8800CD5
:102D20000F90A7F1F400FDF7FDFA002D00F0FC80F4
:102D30004FF0E00E4FF0010C7BE6E0210320029003
:102D400056A80D4601F0AAFEAE46DDF808C070E6B2
:102D50000B990DF2747003F0A1FF0F9820281ED17B
:102D6000DDF808C02B46099A4FEA1C2E63E60F9047
:102D7000482237F8CA0C029017F8CB0C0E90284660
:102D80000C9D294605F0CEFA28460DF27471DDF847
:102D9000705709E04FF06E0E4FF0040C49E60998A9
:102DA0000DF274710E900C9803F078FF0298412296
:102DB00027F8CA0C0E98059907F8CB0C0F9807F85E
:102DC000CC0C204603F07EF928BA47F84C0C20467C
:102DD0005146042203F076F90E9A2B46B2E50C997F
:102DE0001D2217F8CB0C0F90504637F8CA5C05F03F
:102DF0008FFA039851461D2205F08AFA0F980DF2BA
:102E0000BC718DF8BC073046ADF8BD57FEF70EF823
:102E100050463146FEF738F8304651464022FDF71D
:102E2000D9FC57F8CC0C002800F0898057F8C81C52
:102E30000E2347E931010E2047F8C80C3046654A99
:102E400001217A4447F8CC2CFDF77CFC82B24EF687
:102E500001718A4240F076800DF274750699284619
:102E6000FDF7D6F80DF2BC7230462946FDF7FAF8A8
:102E700017F8CC0C002868D02846FDF753FAE0215B
:102E80000120029054E604F06FFB00210222CDF8ED
:102E900074178DF87817CDF8BC2707F8B41C47F8DD
:102EA000B81C474847F8C42C784447F8BC0C0120AC
:102EB00047F8CC0C0DF2BC7047E911601D2047F8B3
:102EC000480C4048784447F84C0C50460F9102F0AB
:102ED00077FD284602F0C2FCC1B20629F9D00529C7
:102EE000F7D839487844DFE801F006040309101CDC
:102EF000EFE73648784403F07FFAEAE703F064FA34
:102F00000F99013938BF4146DFE73148784403F073
:102F10005BFA0F99DDF8BC27481C904238BF014688
:102F2000D3E7E02104200AE73046514603F0B6FE1D
:102F30000F99304600F084F803F08FFEFEE437F876
:102F4000C80CF3E50290110AF2E50C99504603F023
:102F5000A5FE57F8800C0F902846FDF7E3F93046A0
:102F6000514603F09BFE0F99304600F069F803F0DC
:102F700074FE03F0A7F8012500200F90DAE503F0B6
:102F8000D7FEFEDE11A803F080F8002003F05AFA05
:102F9000FEDE00BF000A0000000200000420000066
:102FA00002680000F9670000C66400009266000035
:102FB0009E66000076660000C2660000946600000F
:102FC000507B000035640000E0670000EC67000003
:102FD000D46700003D640000027801212B2A16D03E
:102FE0002D2A4FF0010217D0D0B502AF00230021E7
:102FF0005A1E18BF0122012B0CD0C45C303C092C96
:1030000007D801EB8101013304EB4101F0E7012214
:1030100002E00121BDE8D0401046704708B90846DB
:103020007047E0B502AF0448791E044A78447A44F8
:1030300002F0E3F8FEDE00BFCC7900009E620000E3
:103040000A464821FFF782B9F0B503AF2DE9000D1C
:10305000ADF50C7DFF2A03D946F6036B01F0DCBC0D
:1030600080467AA8CDE938120DF5CC7BCDE9441223
:103070000021469108F5E471269108F10C0547916D
:1030800000F13F0130910BF13F012F910BF1030152
:1030900019910BF10101289100F1210115910BF11A
:1030A00023013391411C209100F1170111914EA988
:1030B0000231109100F11E010F9108F109012591D3
:1030C00008F18401359108F169010430149108F187
:1030D00013011391179056A803300E9008F1440085
:1030E000329008F18800279008F10E00299008F12D
:1030F0000A00379008F13400219008F106001F9073
:1031000008F114002E9008F10D00249008F12C0015
:10311000129008F172001D9008F164001C9008F1F3
:103120003A001B9008F111001A9008F10500369042
:1031300008F1AC00239008F104003F9008F15C0016
:103140001E9008F112002C9008F138002D9008F123
:1031500018002B9008F11000169008F168002A90D2
:1031600008F18A00319008F1B800349008F10800A5
:10317000429008F101003A9008F575700D90CDF875
:1031800000810020CDE93B53229000201890DDE91A
:103190004501884201F006844046B8F8C05003F06B
:1031A0004DFB80B2854281F02B8498F800004FF6E9
:1031B000FF7BDFE810F00600060014009C00EA0028
:1031C0000D0103F0D8FD48A83A9944AAFEF7F6FA93
:1031D0009DF82001002800F0A48201F011BCDDE977
:1031E0004565AE4200F06B823F9CB8F850A0204687
:1031F000FDF794FE80B2824581F0BD832078C3281C
:1032000035D1B54281F0C183681C46904498445D35
:103210000120FCF7E7FFECB3012C4FF6FF7541F0FE
:10322000B783339800242A22C0F8034004603698FC
:1032300066A905F06DF8C220A8F8404088F804009F
:10324000329888F83E40A8F83C40046088F83A403C
:10325000A8F8384088F83640A8F83440C0F8034051
:10326000B8F850A03F9CA8F83050A8F84C50B8F8D7
:103270005200214600907AA844AA5346FEF742FB2A
:103280009DF8E801002841F07D83BDF8EC01BDF810
:10329000EA4103E003F079FDADF8EAB104EA000683
:1032A0004FF6FF7AB6EB0A0518BF0546B8F850008E
:1032B000564508BF441C3F981FFA84F8FDF72EFEC0
:1032C00080B24FF6FF7B8045DDF8008108BF554690
:1032D000A8F8525008BF5446A8F85040564540F050
:1032E000EE8104EA050058457FF479AF4AE0DDF845
:1032F000ECA04FF6FF763F9D66ACDDE945018842C4
:1033000000F0DD81B8F83000012801F234830CD0E0
:10331000002841F03083B8F832002946009044AAD2
:1033200020460023FEF75EF908E0B8F83200514667
:10333000009044AA20460123FEF760FA03F0AAFC9D
:1033400041F01B83BDF89C21BDF89A0100EA0201FF
:103350008BB2991B18BF1146B8F83020B34208BF92
:10336000501C82B2022A08BF3146A8F8321008BFAA
:103370003046B342A8F8300040F0A181084080B246
:10338000B042BAD103F096FCC7E1B8F9B040B4F14D
:10339000FF3F40F39981B8F8AA104FF6FF76B8F8CE
:1033A000A800B04240F0BA830DF5CC7BB14240F0AA
:1033B000B7833598242104F0D3FF0A20002188F830
:1033C0000400601CA8F8B0000020C8F8A810A7E30B
:1033D000B8F9BC40B4F1FF3F40F39081B8F8B26057
:1033E0004FF6FF70B8F8B030834204BF4FF6FF7558
:1033F000864220D1319803F0D7FC0420002688F8BB
:10340000680045212E98C8E9026688F81260A8F87D
:10341000106004F0A5FF4FF0FF300023C8F86400EF
:10342000601C88F86060C8F85C60A8F85A50A8F87A
:10343000BC00C8F8B060DDE94540844200F02A8352
:10344000B8F8101001224FF6FF7A012998BF1146F3
:10345000B8F95AB00522BBF1FF3FC8BF0A1D95B2AB
:103460009AB2AA4281F0CC82022A0BD0012A45D01E
:10347000002A4BD100967AA8319944AA0023FEF77E
:10348000BDF951E0B2B23821449EA1EBC205429988
:103490000C92C2F10802D1E90083419200223D96CC
:1034A000469E3E96844249D0419EB24246D21E4636
:1034B000A0428246439206D23D9900F1010ACDF81E
:1034C000F8A011F800B0A0424FF0000038BF012072
:1034D000FCF788FE05F038025FFA8BF0002104F05B
:1034E00011FF334648EA0008429841EA0603439A2E
:1034F000083DC0E9008301325046D3E700967AA820
:103500002A9944AA0123FDF76DFD0DE00320BBF1CC
:10351000FF3FC8BF881C80B282424DD900967AA86E
:103520001E9944AAFDF70BFD9DF8E801002841F023
:103530006782BDF8EC01BDF8EA310DE03E984FF628
:10354000FF7ADDF8008146900C98B8F8B03010444E
:10355000082804BF5346504603EA0001012589B2FA
:10356000B1EB0A0618BF0646B8F8B000514508BFCF
:10357000431CB8F8102098B2012A98BF2A46B8F91F
:103580005A50B5F1FF3F4FF00505C8BF151DAAB24F
:10359000904208BF5646A8F8B26008BF5346A8F844
:1035A000B030514540F0768203EA060080B25045C3
:1035B0007FF441AF00F0E8BFBBF1FF3F56DDB8F844
:1035C0001600B8F81410514508BF504509D12E987F
:1035D000452104F0C5FE0BF10100A8F85A000020B7
:1035E0000021DDE945239A4257D089B2012901F231
:1035F00007820AD0002941F00382009066A82B9927
:1036000044AA0023FEF74AF906E0009066A82D9927
:1036100044AA0123FEF7F2F803F03CFB41F0F081ED
:10362000BDF89C21BDF89A1101EA020083B2B3EB08
:103630000A0018BF1046B8F81420534508BF511CA3
:103640008AB2022A08BF5046A8F8160008BF5146A1
:10365000A8F81410534520D101EA000292B2524555
:10366000BFD14FF6FF704FF6FF7375E7009666A85F
:10367000169944AAFEF739F803F00CFB41F0C0811B
:10368000BDF89C11BDF89A0100EA0102524509D02B
:10369000ADF8EC11ADF8EA014BE7B8F8B200B8F8B4
:1036A000B03059E7B8F810004FF0000B4FF6FF713B
:1036B000A8F85AB003F04EFB7FF481AFE8E7B8F802
:1036C000C210B8F8C00028E003F055FB66A82399A3
:1036D00044AAFEF70AF803F0DDFA41F04E8103F048
:1036E0001BFB1AD1B8F8AC0000244FF6FF71A8F804
:1036F000B04003F02FFB7FF44EAE0EE003F03BFB37
:1037000066A8349944AAFDF7F0FF03F0C3FA41F02C
:10371000348103F001FB00F07285ADF82411ADF89F
:103720002201BDF82401BDF8224104EA00054FF64C
:10373000FF7AB5EB0A0618BF0646B8F8C000554533
:1037400008BF441C40981FFA84F803F077F880B251
:103750008045DDF8008108BF56464FF6FF70A8F897
:10376000C26008BF04468542A8F8C04041F01A81F3
:1037700098F80000411E042900F2BB87DDE93B56A2
:10378000DFE811F00500B707150030007E003A9819
:1037900004780020CDF8EB017A90A01E032880F079
:1037A0001C81DB4866AE0621784400F05DBDD6F88A
:1037B00004802E463F982D78D0F800B0284603F0BC
:1037C00035F90446284603F041F9002800F011813C
:1037D0003046214603F046F903F048F90021002263
:1037E000002324E1B8F8AA004FF6FF72B8F8A81039
:1037F00050403F9E03F0C4FA18BF002640F0778780
:103800002698B8F8ACB0B8F9B040FEF785FD4394FF
:103810005C4581F01C810DF5CC7A054688462E2149
:10382000504604F09DFD30780638C1B205294FF0AE
:10383000020128BF0846C1B2032901F21181002408
:103840000120DFE811F0040014092105D106711CE4
:103850007AAE21223046FCF7FEFD9DF8E8010028F3
:1038600040F01D850DF59C7803F00BFA03F0A4FAE7
:1038700030460021ADF859518DF8584100F0A8BEEE
:10388000B8F8B2004FF6FF72B8F8B010504003F02D
:1038900077FA429818BF0020419040F02887269878
:1038A000B8F9BC40FEF738FD0C900DF5CC7B706884
:1038B0008A460990082000905846964B3146224689
:1038C0007B44FDF775FABDF89801002841F075803A
:1038D000419D3146679805F1820208905846746808
:1038E000FCF78AFFBDF89801002841F06680069435
:1038F00095F86040679970683D9005912CB1012C56
:1039000000F0D084022C41F0AB8058462E2104F008
:1039100027FD032C4FF0FF3028BF0446419D7AA8B5
:10392000214605F161025B46FDF754F87A9A002AB8
:1039300001F077807B9B56A83C9C2146FEF70EFD4C
:10394000BDF85801002841F05380DDF85CA14FF626
:10395000FF7228894390002800F08285E889A989B0
:103960001035504003F00CFA18BF002541F07B8061
:10397000606829460C905846FDF758FA7AAE5946C9
:103980003046FDF781FA56A8214632464023FEF71D
:10399000E5FCBDF85801002841F02A8057984E21D7
:1039A000049060680390584604F0DAFC05F12000AA
:1039B00059464E2203F0A8F8FDF77AFA02460B4664
:1039C00030462146FEF7CAFCBDF8E801002841F068
:1039D0002B807B98029000F045BD66AE002C00F075
:1039E0001B84012C40F01C844B480721784400F0D4
:1039F0003BBC112C80F0F98700202146CDE97C00EA
:103A0000CDE97A003B9803F061F80446C1F1100259
:103A10007AA80D461021FDF761FA22462B4601F0E7
:103A200023FD7AAD33CD0ABA21BA03BA28BA0BFB0B
:103A300003F4A0FB0B03ABFB0225A1FB0B165B18E9
:103A4000724145EB0401B0F1804473F1000472F15E
:103A5000000471F100040BD2DDF8F0A0402845D23B
:103A60008DF8E80156AC7AAD0122204600F0BDBCCD
:103A700000BA519018BA509010BA4F9008BA4E90B0
:103A80004EAA002010280CD0115C01300029F9D07A
:103A9000441E07E0B8F8C040ADF82241B8F8C200B3
:103AA00043E600242098202104F0C3FDC4F10C005B
:103AB000C4F1110140F0C0008DF8E8017AAD012099
:103AC0002A4602F08DFF112C80F0C5874EAAC4F162
:103AD0001003224401F0C8FC56AC2946212220469E
:103AE00004F016FCDDF8F0A000F082BC56ACB0F596
:103AF000804F80F06A848DF8E901402101EB1020AD
:103B00008DF8E8017AAD2046022200F06EBC00BFBD
:103B1000F259000013580000A75700000DF5CC7BA8
:103B2000DDE94552954200F0648380B2022800F23C
:103B3000678730D001284CD0002840F06187359845
:103B40001FFA81FBDDF81881002658444190CBF123
:103B50000400439044983E9095424CD0439886424E
:103B600049D2AA42144605D23E9802F101084446C1
:103B700010F802A00020AA4238BF0120FCF732FB57
:103B80000BEB0600032800F22A874198224600F832
:103B900006A00136E0E73F9804780A2C40F0C38085
:103BA000AA4280F01887501C46904498855C0120FA
:103BB000FCF718FB032D00F22387092456AEDFE83B
:103BC00005F0024A587C3046152104F0C9FB062452
:103BD00073E000910DF59370279944AA0123FDF736
:103BE0005DFE9DF82601002840F00A87BDF82A21D5
:103BF000BDF828010FE0CDF8188106EB0B02DDF8C7
:103C000000810DF5CC7B4FF6FF76042AB8F8A800AA
:103C100004BF3046324600EA02018BB2991B18BF3E
:103C20001146B8F8A820B34208BF501C82B2032A3C
:103C300008BF3146A8F8AA1008BF3046B342A8F81A
:103C4000A80040F0D68200EA010292B2B2427FF4AC
:103C500067AF00F097BC20981E2104F0EAFC7AA917
:103C600030461F2204F054FBFF200724229000203E
:103C700022E00F9800252522C0F8035005607AAC99
:103C80005846214604F044FB1098C0F803500560E4
:103C90004EA84BA90CC80CC11E2200780870214602
:103CA0001198C0F803500560304604F031FBC22083
:103CB000052422904FF6FF70079025980025314685
:103CC0001F2288F80850456005601A98A8F8065029
:103CD00088F8055004F01CFB229859462622C8F8A3
:103CE000365040F47F40A8F834000798A8F8300018
:103CF0001B9888F8325004F00BFB1C984FF6FF76A7
:103D0000A8F860600922A8F87050C0E90055C0F812
:103D100007501D984BA904F0FBFAC8F88050A8F88A
:103D20007C6088F80440A01F4FF6FF72C1B20529DD
:103D30004FF0020128BF0846C1B24FF6FF70DFE81E
:103D400011F006009301120005005F0663E7B8F862
:103D5000AA00B8F8A830369900900DF5937044AADF
:103D6000FEF724FA3DE7DDE94505A84200F0388278
:103D7000B8F878104FF0010C0223012998BF614672
:103D8000B8F97C200220B2F1FF3FC8BF4B009CB2C3
:103D9000B8F88030A34280F03186B2F1FF3FD8BF3F
:103DA00061468B421DD2B8F882002199009044AA46
:103DB0005846FDF7A7FD44AB2A460BCBFCF7A0FA0B
:103DC0000246479802F0F3FFC1B2042940F016867C
:103DD00002F060FF40F0E085BDF89C11BDF89A014B
:103DE00017E1B8F930103F9DB1F1FF3F13DDB8F88E
:103DF0002800B04229D1B8F82A20B242189A01BF4F
:103E0000052088F804000020C8F8280004BF01310C
:103E1000A8F830101AE0B8F882001299009044AA6D
:103E20005846FDF762FC02F035FF40F0B58502F020
:103E30006BFF40F0EE80B8F82C000021A8F830109D
:103E40000028D4D102F036FFE3E0189ADDE945A15D
:103E50008A4500F0CE80DDF80081000440F09085B6
:103E600095F80080B8F1050F26D1514580F0AE8558
:103E7000449801F1010BCDF818B1144610F80180F7
:103E80000120FCF7AFF9B8F1040F00F2A285C64695
:103E9000DDE90A15DFE808F0180303131600002512
:103EA00012218DF85A51ADF8585166A804F058FA0D
:103EB00000214FF0000E07E08B46964622E04FF0BF
:103EC000FF3500E00421A646409C00200A910B9596
:103ED000A17124992073A060E071BDF85801088099
:103EE0009DF85A0184F805E088702561DDF8B8C0B6
:103EF00066A991E86D008CE86D004FF6FF7684F8B6
:103F000004803F9DDFE818F011000600060019004C
:103F10002400770540987446038D408D00907AA860
:103F2000369944AAFDF76AFC1CE0DA4541D1409875
:103F30000DF5CC7B418D008D20E040987446038DBB
:103F4000408D00907AA8429944AAFCF7F8FF09E056
:103F500040987446038D408D00907AA81F9944AA1A
:103F6000FDF740F89DF8E8010DF5CC7B002840F006
:103F70001E85A646BDF8EC11BDF8EA0100EA010372
:103F80009A1B18BF0A46409CB342218D08BF481CAB
:103F900081B2012908BF3246628508BF3046B3426C
:103FA000208525D100EA02017246B1427FF44EAF6E
:103FB00027E0F046D34506D20BF101004690449825
:103FC00010F80B4000E000240020D34538BF01204A
:103FD000FCF708F9601E3699B0FA80F00DF5CC7B3D
:103FE0004009C64608704FF6FF714FF6FF70C5E7EF
:103FF0007246DDF800811892B8F88210B8F8800097
:1040000007E0724602F056FE9646CDF860E0DDF815
:10401000008100EA010301249A1B18BF0A46B8F880
:104020007810012998BF2146B8F97C40B4F1FF3FD0
:104030004FF00204C8BF4C00A1B2B8F88040B342B0
:1040400008BF601C84B28C4208BF3246A8F88220A8
:1040500008BF3046B342A8F8800040F0C18010404D
:10406000B0427FF480AEB8E0DDF8ECA0DDE94501B8
:10407000884200F0B580B8F806000121012898BFF9
:104080000846B8F93440B4F1FF3FD8BF0846B8F845
:104090003630834280F07484B4F1FF3F59DD3799A4
:1040A000BAF800000988B14208BFB0420BD12C9881
:1040B00002F07AFE37990020219AC1F803000860C7
:1040C000611C11800021DDE945239A425BD089B251
:1040D000012900F255840AD0002940F051842C991E
:1040E0000023009044AA5846FEF760F806E029999C
:1040F0000123009044AA5846FDF7F7FA02F0CAFDE2
:1041000040F04A84BDF89C214FF6FF75BDF89A1126
:10411000379E01EA020083B23088AB4208BF411CDF
:104120008CB2022C08BF294631804FF6FF76981BCF
:1041300018BF1046022C08BF3046B342AAF8000050
:1041400021D101EA000292B2B242BCD102F0B2FD2A
:104150001DE02D981F990088009044AA5846FDF74D
:10416000C4FA02F097FD40F0178402F0CDFD0ED1A5
:10417000219800244FF6FF7104801F98008802F0F8
:10418000E9FD8CD103E0B8F83810B8F8360000EA41
:10419000010301259A1B18BF0A46B8F80610012929
:1041A00098BF2946B8F93440B4F1FF3FD8BF29463B
:1041B000B8F83640B34208BF601C84B28C4208BFD6
:1041C0003246A8F8382008BF3046B342A8F8360077
:1041D00006D11040B0427FF449AF02F06BFD03E01E
:1041E000B8F8AA10B8F8A800ADF82A11ADF828015F
:1041F000FCE4B8F8C200B8F8C040FFF796BAB8F8C7
:10420000B80000244FF6FF71A8F8BC4002F0A2FDF0
:104210007FF4E4A8FFF781BADD480721784423E062
:104220007AAD072104222846FCF784FAD94A0423F0
:104230007A4401F019F917992046032202F066FA30
:10424000002800F017840A1D28460721FCF7B8FA59
:1042500002460B46114630461A46FCF7BBFA6698F2
:10426000002800F0A7836799CDE9680107206790CF
:104270000121C948082378446690C84A30467A44E8
:10428000FCF760FA83462BE27AAE29464246304676
:10429000FCF7E1F89DF8E801002800F08D81BDF8F9
:1042A000EAB11BE256A802F01CFD0C9B00204FF067
:1042B000000C03EB0A0202923D9DA0EB0C0193421D
:1042C0003E9000F0B28213F8014B0CEB0500CDE9F3
:1042D000031CA84643900C9366AE304602F001FDE5
:1042E00043984FF03A0BC625804521D208F1400A89
:1042F0003C9841465246FDF7D9FF0022402A0CD097
:10430000914200F05283835C04EB0323B3FBFBF484
:1043100004FB0533B3540132F0E73C984146324682
:104320004023FEF7B6F802F082FCD046D5D080E3F9
:1043300056A8039A4021FCF7FDF9DDF800813E9B69
:10434000DDF810C051B10278013904EB0222B2FB52
:10435000FBF404FB052200F8012BF3E7A3F1400670
:1043600056AA6CB3B6EB0C0A02D0A3EB0C0A18E009
:104370003D9815463E9340230CEB00013C98439634
:104380006646FEF786F802F052FC40F03B83284672
:1043900002F0A7FC06F1400C3E9B439E4FF03A0B07
:1043A000C625BAF1400F80F04A83B4FBFBF056AA51
:1043B00000FB054101360133044602F80A10D0E73C
:1043C0000C9B06F14000029A76E7010A8DF8EB019A
:1043D0008DF8EA11010C8DF8E911402101EB106014
:1043E0008DF8E8017AAD20460422294602F0D6FA7B
:1043F000289E21462122304603F08AFF01205146A3
:104400008DF8980128463246FCF7F6F9BDF8E80128
:10441000002840F0D5827B9B284651464246FCF757
:10442000C5FA7A98002800F0CE827B990523CDE961
:104430007C0104207B900121594878447A90594AA4
:1044400028467A44FCF77EF9DDF8008102F0EFFBA4
:1044500040F0D8820020AAF80C02CAE9000046E128
:1044600000200C90DDE9083258462146FCF79EFA00
:104470006698002800F09E82DDE9053221464190D1
:1044800067983E905846FCF791FA669E002E00F021
:1044900091823D9A534658462146DDF89CA1FCF78F
:1044A00085FA669C002C00F085824398679A3E4B03
:1044B00000283E497B4479444AD03C9D58460993A4
:1044C0003D920C9A049B43912946FCF76FFA58469B
:1044D000DDF898B1BBF1000F00F06C82DDE902322B
:1044E0002946DDF89C81FCF761FA6698002800F007
:1044F0009E826799CDE974010C20739004212C48A9
:10450000CDE970B87844729008206F902948CDE9C1
:104510006C6A78446E9009986A903D98CDE968403D
:10452000072067904398669004206B9066A8419A94
:104530003E9BFCF707F902F07AFB40F07A823C9848
:104540000021DDF80081A0F80C12C0E90011CEE0D6
:104550000420CDE96842CDE96A300720419A3E9BAC
:10456000CDE9661058460221CDE96C6AFCF7EAF8FD
:1045700002F05DFB3C9802BF0021A0F80C12C0E9DC
:104580000011ADE0ADF8226102F0FFFBFFF7CDB8FE
:10459000704F0000284F00004C4F00000D4E0000EF
:1045A000264D0000874D0000C04C00005B4D000010
:1045B0006F4D0000814B00000DF59C7802F061FB0F
:1045C00002F0FAFBADF8595130468DF858410221FE
:1045D00056AA5346FCF7FEF97A99002962D07B9CD3
:1045E0003C982246FCF7BEFA439EABF10108CDF899
:1045F00004B1B0453C9D03D000284EF6017B6DD13F
:10460000B04508BF90F001003DD028463146FCF788
:10461000BDFA02F00CFB61D10DF5CC7A2E212246B9
:104620001FFA86FB5046FCF7CBF802460D467AA8E7
:104630003C992B46FDF792FE3C98A0F810B23C98AE
:10464000A0F80E5201203C9DA5F80C0241980128CB
:104650000ED10D9B284621465246FCF74FFBC10761
:104660003AD140F20111439E0840B0F5807F2BD033
:10467000B045DDF800814EF6017B31D141992846E5
:10468000FCF784FAFEE5B5F80C02002800F0F6818C
:10469000B5F81002419E40B128463146FCF776FA43
:1046A00083461BE0BDF8ECB118E0B5F80E1266AA1F
:1046B0000D9B2846FCF722FBC1070DD140F20111EA
:1046C0000840B0F5807FE7D100204EF6017BA5F8C9
:1046D0000C022860686001E04FEA104BDDF80081B1
:1046E0001FFA8BF04EF60171884240F08B8198F8EA
:1046F0000000002100240528C8F8C811C8F8CC1112
:104700001AD1B8F9BC004FF6FF72002800F1898079
:1047100034990988002900F0428180B20139814230
:1047200040F07F80B8F8B000904204BFB8F8B20003
:10473000904240F0768032E10DF5CC7B4FF6FF766B
:10474000DFE800F003070E1F2C000120A8F800008E
:1047500067E0C320C8F8504088F8040002205EE0FB
:10476000199802F021FB25985946242203F0D0FD28
:104770000020C8F8300088F80800C8F804000320BA
:104780004DE00A202B2188F80400042088F800005E
:10479000359803F0E5FDA8F8B06042E0B8F9B00044
:1047A00000283ED42399098859B180B20139814249
:1047B00037D1B8F8A800B04204BFB8F8AA00B04298
:1047C0002FD1159802F0F0FA2898452103F031FF17
:1047D00013985946462203F09BFD14987AA9422269
:1047E00003F096FD0020042188F868104FF0FF3197
:1047F000C8E9020088F8BA00A8F8B800C8F8B00004
:1048000088F86000C8F85C0088F81200A8F810006A
:104810000520A8F8BC60C8F86410A8F85A6088F8A9
:104820000000C8F8C040FEF7B2BC56A86446FCF7CA
:10483000F9FA0B4661193C9C02462046FDF729FE19
:1048400002F0F5F940F0DE807AA802F04AFA0DF5A0
:10485000CC7B4021584603F083FDDDF8F8A02846C4
:104860000AEB050104910D4601464FF6FF728D4299
:104870007CD9874CA5EB0108B8F1410F43917C44EA
:1048800047D33C9E01F140023E923046FDF70EFDBB
:104890008846A5F14001834630462A460C91FDF733
:1048A00005FD4023FBB108EB0302402A00F0CA805B
:1048B0009BF800203A2A80F0BF80309ECD18402D12
:1048C000A25C1E4406F8402C6FD002783A2A80F091
:1048D000B3802F9D0BF1010BA25C01301D44013B05
:1048E00005F8402CDEE73C9C0DF5CC7B439940233A
:1048F0005A462046FDF7EEFD0C9D7AAA204640233D
:104900002946FDF7E7FDAAF1800A3E99DDF800810E
:10491000ABE73C982A46FDF7C9FC7AAAC1F1000C26
:1049200002EB0A0600251AEB050310D0AC453CD07B
:1049300002783A2A80F08080013B402B80F085800D
:104940007319A25C0130013D03F8012CEBE77AA852
:104950004146FCF767FA3C9C0B46439902462046C9
:10496000FDF7B8FDDDF800814FF6FF72419DDDF8DF
:1049700010A0FEF7EEBF02200BE09DF8990108E0C1
:1049800002203BE09DF8E90103E00020FBF72AFC50
:1049900001208DF8210133E09DF899012EE00220DD
:1049A00088F8E8034EF6017B2CE008461AE09DF8F3
:1049B000E90121E0BDF89CB124E0BDF89AB121E005
:1049C000BDF8EAB135E0BDF8ECB132E00020FBF70C
:1049D00009FC012010E00020FBF704FC10E004219A
:1049E000CDF8188100F0DEFCFEDE4EF2020B20E076
:1049F000BDF85AB106E00220DDF800818DF82701EC
:104A00004FF4604BDDE9381208F1C800FBF746FDB2
:104A100002F032F918BF834658460DF50C7D02F0BE
:104A200016B9BDF8ECB1EDE7BDF8EAB1EAE7BDF8BB
:104A30009CB1DDF80081E5E710463A21D2E7504607
:104A40004021CFE740464146CCE71846F8E71148F9
:104A50002C21784415E02046102100F0E2FBFEDE18
:104A6000FBF7B2FFFEDE0C482B21784409E02E2034
:104A70001121B7E704482221784402E003482F219E
:104A8000784400F0B5FBFEDE28470000C447000074
:104A9000C7610000C6470000ED4A0000B0B502AF94
:104AA0000025044605801521C0F8C05000F575703A
:104AB00003F056FC04F1C8004FF4807102F0C8FC0A
:104AC000C4E97255B0BD7047F0B503AF2DE9FC0DD8
:104AD0008246D1E90560C4680D4631490D22304651
:104AE0007944A04700284FF001084FF001000095DD
:104AF00044D1287F40071BD42A49304603227944F9
:104B0000A047D0BBD5E905010422CB6826497944EA
:104B1000984790BBD5E905010222CB682349794427
:104B2000984750BBD5E905125046FCF7A7FC25E095
:104B30001F49304603227944A04701460120E9B9C4
:104B4000D5E9051202ACA7F1190307F8190C0EC438
:104B500002A804221749794400F070FD68B902A840
:104B600015490222794400F069FD30B902A9134ABF
:104B700050467A44FCF782FC58B101208DF80400BD
:104B800068468DF8058000F03BFE06B0BDE8000DDC
:104B9000F0BD02A80A490222794400F04FFDEDE77A
:104BA0000C480000844B00005A460000694B00008E
:104BB000534B000012460000234B0000AA4900009E
:104BC000F44A000080B56F4600F001F8FEDE80B5C3
:104BD0006F46C6B000204FF489718DF8170101AC03
:104BE000204603F0BDFB20464FF4604101F02EFA51
:104BF000002001F027FCFEDE81293EBF0844C1F100
:104C00008001704780B56F460846802100F009FB9F
:104C1000FEDEF0B503AF2DE9000D8CB003238DF857
:104C20002C302023079308AC00230BC41469059390
:104C3000002C039300923FD05069116895684FEAA9
:104C4000401820F07840029101F1040B019003AE6E
:104C5000B8F1000F54D0DBF800203AB1DDE90801CB
:104C6000CB685BF8041C984700285AD1206904F1EE
:104C7000200AA1690790207F0A9104F108018DF8AC
:104C80002C00284600F054F8CDE9030128462146BF
:104C900000F04EF8CDE90501616955F8310005EBEA
:104CA000C1014A68314690470BF1080BA8F1200872
:104CB00000285446CCD034E010680DF10C08029066
:104CC0000024D2E902604FEAC00A20F0604001905F
:104CD000A24515D002982044426832B10298015989
:104CE000DDE90803DB689847D8B9D6E900024146F8
:104CF00006F10805904708342E460028E8D010E059
:104D000000980199406881420DD2DDE9012050F8F8
:104D1000321000EBC2004268DDE90803DB68984707
:104D200008B1012000E000200CB001F090BFD4D405
:104D30000A685AB1012A07D1496800EBC1025268DA
:104D4000064B7B449A4203D000207047081D01E0C7
:104D500050F8310001680120704700BF4307000090
:104D6000F0B503AF2DE9000D9A4616468846044675
:104D70000025A84509D0DAF8102030462146904792
:104D800001350028F5D0691E00E04146002041456C
:104D900038BF012001F05BBFF0B503AF2DE9FF0D77
:104DA000C4698B46B968064614F001004FF02B0524
:104DB00000EB010A08BF4FF488156007CDE9051321
:104DC000079202D44FF0000B05E00BEB02015846AE
:104DD00000F088F88244306870B3D6F80480D0457B
:104DE0002AD9200742D4A8EB0A0130460122012427
:104DF00000F01AF9B0F5881F2AD0D6E90568824676
:104E000007980C460090414630462A465B4600F023
:104E1000EAF8E0B9D8F80C303046DDE905219847CA
:104E2000A8B9504621463246434608B0BDE8000DB9
:104E3000BDE8F040FFF794BFD6E905862A460798FB
:104E4000314600905B46404600F0CDF820B1012489
:104E5000204608B001F0FBBEF3684046DDE90521BD
:104E600008B0BDE8000DBDE8F040184730690124E6
:104E70000390302030615B4696F82000D6E905218A
:104E80000290079886F820400090104607922A4624
:104E9000049100F0A8F80028DAD1A8EB0A01304606
:104EA000012200F0C1F8B0F5881FD1D0DDF810A0C4
:104EB0008846079C0546DDE90521DAF80C302046D6
:104EC00098470028C3D12846414622465346FFF75B
:104ED00047FF0028BBD10298002486F820000398E1
:104EE0003061B5E7F0B503AF2DE9F00D091A1029CF
:104EF00062D3C21C22F00302121A8E1AB5085BD0CC
:104F000000EB020B594600F03DFA044626F0030080
:104F1000584406F00301014400F034FA00EB0408A1
:104F2000002D5CD06C462B46204659462A46C02DA3
:104F300028BFC02300F012FA9DE8060822F0030300
:104F40002046039D00F00AFADDE900210023DDE997
:104F500002EC02EB8106B24211D0002104290CD0F0
:104F600052F8210001316FEA000A4FEADA1444EAEC
:104F7000901020F0FE300344F0E71032EBE74FF0E2
:104F8000FF1000EA132123F0FF22BCF1000F1144AF
:104F900001EB014108EB1148C2D04FEA8C0200211D
:104FA00092B15EF8043B043ADD43ED0945EA931300
:104FB00023F0FE331944F3E7014404B0BDE8000DCB
:104FC000BDE8F04000F0DEB94FF0FF1000EA11201C
:104FD00021F0FF21084400EB004008EB1048404658
:104FE00004B001F034BEF0B503AF4DF8048DD7F82E
:104FF00008801C460D460646B2F5881F06D02B6970
:1050000030461146984708B101200AE044B1EB68E8
:105010003046214642465DF8048BBDE8F040184713
:1050200000205DF8048BF0BDF0B503AF2DE9000D55
:10503000884690F82010DFE801F0100B020908F113
:1050400001024FEA58014FEA520806E0110603D068
:1050500041464FF0000800E00021D0E904A64C1CB6
:105060008569013C07D02A6930465146904700289F
:10507000F7D04FF4881A50464146BDE8000DF0BD08
:10508000F0B503AF2DE9F00D0646D0F8008080683A
:105090008B46924658EA00014AD040B3F06800219E
:1050A00003910BEB0A01CDF804B0451C029101AC51
:1050B000013D06D0204600F051F8B1F5881FF7D128
:1050C00015E001A800F04AF8B1F5881F0FD030B103
:1050D000504506D21BF9001011F1400F02DB594672
:1050E00001E0FCD0002100291CBF82468B46B8F1AC
:1050F000000F1DD00BEB0A0158467468FFF7F2FE53
:10510000844215D9211A30460022FFF78DFFB0F5F1
:10511000881F09D0D6E905658046EB680C465946DC
:1051200052463046984770B1012004B001F08FBD5F
:10513000D6E905015246CB68594604B0BDE8000DDA
:10514000BDE8F04018474046214632462B4604B0A1
:10515000BDE8000DBDE8F040FFF702BED0E9003128
:105160008B422ED0F0B503AF4DF804BD1C4614F8A9
:10517000011B04604AB2B2F1FF3F2ADC5D789C1C3F
:1051800001F01F02DF2905F03F0504601CD99E785D
:10519000DC1CF029046006F03F0646EA851516D3AC
:1051A000D97802F007021C1D046001F03F0141EABA
:1051B000851141EA8241B1F5881F0AD14FF4881167
:1051C0000BE04FF488110CE045EA821101E045EA5A
:1051D00002318268D31A234483605DF804BBBDE8C2
:1051E000F0401046704780B56F46FFF7EBFCFEDEDF
:1051F00080B56F46FFF7F7FFFEDE80B56F46FFF71D
:10520000F2FFFEDE80B56F46FFF7EDFFFEDE80B5F4
:105210006F46FFF7F7FFFEDE80B56F46FFF7E3FF4F
:10522000FEDE80B56F4600F001F8FEDE80B56F4609
:10523000FFF7D9FFFEDE80B56F46FFF7D4FFFEDE35
:10524000E0B502AFBC68009400F002F8FEDED4D4F2
:10525000E0B502AF16464FF4807298460C460546FC
:1052600000F062F8D7F808A040B9A64203D8A045DC
:1052700098BF464513D9FFF7B6FFFEDE0346A042AE
:1052800004D2E85610F1410FEFDC00E0EDD02846E3
:1052900021460022CDF800A0FFF7D2FFFEDE2EB19E
:1052A000A64203D2A85710F1400F00DB464628461D
:1052B0002146324600F038F8024638B9A2420CD1F5
:1052C00018482B217844FFF793FFFEDEA24224D238
:1052D000A85610F1410FF1DC20E0A81890F9001059
:1052E000B1F1FF3FC7DCC9B2E02928BFF029C2D322
:1052F000427801F007018378C07802F03F0203F0A2
:105300003F03120300F03F0042EA8312104440EAD8
:105310008140B0F5881FAED1D2E7CFD028462146D4
:105320002346B7E79342000080B56F46914210D9FB
:105330000346D01E38BF0020511C81420BD31A44B3
:10534000091A29B112F90139013913F1400FF8DBBB
:105350000144084680BDFFF764FFFEDED0B502AF12
:105360009A4221BFD21A01EB830480E81A00C2607E
:1053700028BFD0BD024823217844FFF739FFFEDE65
:10538000BC41000088420BD0091A0246002012F9E5
:10539000013B13F1410FC8BF01300139F7D170470C
:1053A0000020704780B56F46FFF71DFFFEDED4D4A6
:1053B000F0B503AF2DE9000D8CB0294BA7F13F0EDE
:1053C0008C4600247B4442F20F7842F2107A4FF070
:1053D000640B404516D9B0FBFAF50EEB040105FB52
:1053E0001A00043C86B2B6FBFBF606FB1B0033F842
:1053F0001620A1F8232080B233F81000A1F8250070
:105400002846E6E7273463280CD981B26425B1FB2E
:10541000F5F2023C02FB150080B233F810002EF8C2
:10542000040000E002460A2A05D2601E02F13001A3
:105430000EF8001004E033F81210A01E2EF8001031
:10544000C0F12701009107490EEB000360460022DE
:105450007944FFF7A1FC0CB0BDE8000DF0BD00BF22
:1054600068550000A8550000D0B502AF0C4699421F
:1054700001BF11462246BDE8D04002F049BF204698
:105480001946FFF78FFFFEDE0068FEE7D0B502AFDA
:10549000C0B200239A4204D0CC5C844203D00133D2
:1054A000F8E7002001E001201A461146D0BDD4D40F
:1054B000F0B503AF4DF8048DD41F4FF000038446C0
:1054C00038BF1C46C81C20F00300A0EB010E534857
:1054D00078448046934280F08780CE5C70B2B0F111
:1054E000FF3F17DDAEEB0300800702D00133F1E789
:1054F0000833A34208D2CD18C8586D68284310F06D
:10550000803FF5D000E001339342E3D2C856002833
:10551000F9D5DFE7454618F80650022D0FD0032DC8
:1055200015D0042D66D15D1C954261D24D57F02EE9
:105530001AD0F42E1ED115F1710F25DD5AE0581C3A
:10554000904255D20D5615F1410F4BDD52E05D1CD6
:1055500095424DD24D5DE02E25D06DB2ED2E27D176
:1055600015F1610F37DD45E005F17000C0B230285C
:105570000AD33FE00F300126C0B202283BD815F114
:10558000400F4FF001003DDA981C904230D208568F
:1055900010F1410F31DCD81C904229D20D5615F183
:1055A000410F1FDD2CE005F0E000A02813D021E022
:1055B00000F11F06F6B20C2E03D215F1400F0ADBE4
:1055C00018E020F001000126123014D115F1400F2F
:1055D0004FF0010016DA981C904209D20D5615F1D1
:1055E000410F0ADC431C75E7CCE9011200200FE0F3
:1055F000002007E00126012004E00120022601E04E
:1056000001200326F1B240EA0120CCE9013001205B
:10561000CCF800005DF8048BF0BD00BFB240000084
:1056200099421CBF00207047D0B502AF0C4611460E
:10563000224602F069FE01F05DFBD0BDF0B503AF7C
:105640002DE9000D90B04FF0000A0A239046CDE9F5
:105650000DA201220791CDE90A820A46CDE9051380
:10566000002401684FF0000B029141688068ADF89A
:105670003CA00C93CDF820800191039006A818302F
:10568000009000200490BBF1000F40F08F80A045F7
:105690005AD30598A8EB040B0619BBF1070F07D8DE
:1056A00000218B454DD0705C0A2835D00131F8E7D8
:1056B000F01C20F00300B04201D100250AE0851B58
:1056C00031465D4528BF5D460A202A46FFF7DEFECB
:1056D000012821D0ABF10800854214D8715981F01E
:1056E0000A32A2F1013222EA01017219526882F0F3
:1056F0000A33A3F1013323EA0202114311F0803F80
:1057000001D10835E8E77119ABEB05020A20FFF774
:10571000BDFE012815D129440819441C0994B6D0AE
:105720004445B4D805990123009A08440121FFF7A4
:1057300077FF0028ABD04FF0000B264625460D948E
:105740000FE0CDF824804446049878BB0121012065
:10575000049056468DF83D10C2454FF0010B45466A
:1057600024D00398007838B101980422C368114905
:10577000029879449847B8B90598B5EB0A0200EB4E
:105780000A0101D1002005E0501810F8010C0A3878
:1057900001F0B0FA039B18700198C368029898470B
:1057A0000028B2463FF46FAF012000E0002010B0A7
:1057B00001F04DBAFE390000F0B503AF4DF8048D8D
:1057C00084688846D0E90056207850B1F3682846AE
:1057D0000A4904227944984718B101205DF8048BE6
:1057E000F0BDA8F10A00414601F084FA2070284675
:1057F00032695DF8048BBDE8F04010479C39000029
:10580000D0B502AF04460079617911B128B1012009
:1058100015E0002818BF0120D0BD2068017F49078E
:1058200006D4D0E905010222CB680649794405E097
:10583000D0E905010122CB680349794498472071DA
:10584000D0BD00BF633E0000543E00000A4602493E
:105850007944FFF7DEB900BF483E0000D0B502AF83
:10586000044600F0D5FD08B900F0DAFD00F0D0FDE7
:1058700028B32046042100F0C7FD20780528F5D183
:10588000E178207940EA51024908227118B169B1E2
:10589000032909D013E0032911D80020DFE801F023
:1058A000020E110420710AE00220D0BD002104285C
:1058B000217104D20449C00021FA00F0D0BD0620B5
:1058C000D0BD0120D0BD00BF06030405F0B503AF75
:1058D0002DE9FC0D0446007DDFE800F0020B1927DE
:1058E0002046032100F09FFC206900283FD0224978
:1058F00007E001F021FA232300F024FC2069B0B373
:105900001C490591049004A800F044FD2FE001F02B
:1059100013FA072300F016FCD4E902B41526174D3C
:105920004FF0000A00227D441DE02046012106B010
:10593000BDE8000DBDE8F04000F075BC02F11108B3
:105940002346584621460095A04538BF434600F0FF
:1059500017F80222334600920322CDF808A000F087
:10596000F1FB0E364246332A18BF9442E6D806B001
:1059700001F0B4B93900110039000A00363E0000C8
:10598000DCB504AF934210D342B18A4204D28456AC
:1059900014F1400F02DA08E0914206D163B18B4264
:1059A00008D2C45614F1410F06DCBC680094FFF71E
:1059B00047FCFEDE9942F8D11044991ADCBDD4D4DC
:1059C000F0B503AF2DE9F00D0D468346D0E9000197
:1059D0002F4A7A44009205EB051202F111038B4223
:1059E00028BF0B46FFF7CCFFDBF8086080468A46ED
:1059F000D6E90401327E00F07DFB08B3B1680246AF
:105A00000220DFE801F00A020509C2F17E0004E08D
:105A1000C2F18000400800E0F06833680321DFE84D
:105A200003F0070204061A2102E0312100E0716848
:105A3000184B00247B44CDE900430C2300F058FCB4
:105A4000C6E9048A1448784400F0BEFC1348784440
:105A500000F0BAFC1DB11348784400F09BFCDBF861
:105A60000C10681C0968884203D20D48784400F085
:105A700091FCD6E9040196E83C00367E8DE8700082
:105A800000F060FBBDE80F0DBDE8F04001F074BD13
:105A90009A3D00009C4A00000E3D0000FE3C0000C4
:105AA000E03C0000FC3C0000F0B503AF2DE9000D28
:105AB000D2B08B46804601F057FD36A9A04E00209B
:105AC00001227E4402230024702C07D00D190A51B4
:105AD0001C342876C5E90460AB60F5E706A836A952
