:02000004C0D06A
:1000000080B500AF06F044FE012006F078F8FEDE71
:10001000B0B502AF0D4604460749794400F02FF809
:10002000204640300A22294607F056F80349794411
:10003000204600F024F8B0BDE2850000CF85000026
:10004000F0B503AF87B004468020255C26783046A3
:10005000294600F039F8002800D13546E9B20028D9
:1000600000D08034A52903D14034204607B0F0BD2C
:100070000020019001A9204604F0E6FBFEDE80B5D9
:1000800000AF012207F028F880BD80B500AFC6B0F0
:10009000FF20143001AD00242C5489204100284653
:1000A00008F0C7F907204103284605F063FE204603
:1000B00006F025F8FEDED4D480B500AF014806F086
:1000C000C9FF80BD809FD0C080B500AFC0B2A52859
:1000D00002D0C9B2A52903D1A538411E884180BDEF
:1000E00005F087F9FEDED4D480B500AF002800D03B
:1000F00080BD034878442B2105F080F9FEDEC04620
:1001000074870000F0B503AF87B01E461346059113
:10011000054651689268B86891424ED00104049334
:1001200003D005990C7881B20CE0184604F09BFBD3
:100130000C46012103910840FFF7D6FF0399049B69
:1001400005980470C02020400295019605D08028B3
:1001500005D0402805D1022606E0012604E0042649
:1001600002E03F200440661D701A009000240391B5
:10017000069158689968884215D00698864211D031
:10018000184604F070FB0D4601210840FFF7ACFF54
:100190000699212917D205984554491C0691641CDB
:1001A000049BE6E7009C03982018B04203D1084E58
:1001B0003046029D01E0029D019EA8806E800020D5
:1001C000287007B0F0BD0846212105F070F9FEDE69
:1001D000FFFF0000F0B503AF87B002931346039012
:1001E000F81D013002888818049020200692801A99
:1001F00001900026059358689968884214D00698A3
:100200008519284620380ED0184604F02CFB0C46E1
:1002100001210840FFF768FF202D16D2049884556D
:10022000761C059BE7E7019E0020039B187006994A
:100230007118C0432029024600D00A469A8020291E
:1002400000D00298588007B0F0BD2021284605F064
:100250002EF9FEDEF0B503AF87B0164605468C6872
:10026000B868002C0393019021D40295086804908B
:100270000498844212D27068B26890420ED0304620
:1002800035460E4604F0EFFA01210840FFF72CFF37
:1002900031462E46039B641C8C60E9E70498844237
:1002A00014D10020C143029DA980698013E0009011
:1002B00005AC20460491324603F00FFB207800285D
:1002C0000CD005A840786870012004E0029D0198D8
:1002D000A8806B800020287007B0F0BD05A8818839
:1002E000408802460A40054B9A4204D100240499F2
:1002F0008C60039BB9E7A9806880EBE7FFFF0000F3
:10030000F0B503AF91B00A93054650689368BC6896
:10031000984205D1AC800A98688000202870EEE0F1
:10032000059408910C78042C0B9223D1104604F00C
:100330009AFA0C4601210840FFF7D6FEE0B2811E72
:10034000022906D3002804D0012806D0FF2002305D
:10035000C6E00CA8132108F06CF8089E701C0D2153
:1003600007F01CFE30460E300CA9142207F0CEFD1B
:1003700034700B9AE0B2800002A108580818089B5C
:1003800005998746140000002200000014000000B8
:10039000140000005A0100000091591C28460A9BD5
:1003A000FFF718FFABE0029556689168981D03901F
:1003B000981C04900846864200D193E006905D891F
:1003C0000220022D00D996E016D0012D29D0002D53
:1003D00000D090E09889002804990FD1D0684C494A
:1003E0007944012204F04EFAC0B2042800D088E01B
:1003F000002004990B9A01E09889039900900CACB5
:10040000204616462B4603F0FCFA2078002870D1CF
:100410007168B5680CA882880792408809903246B6
:1004200022E031469C8958884601069DA0B2A94227
:100430000DD086420BD9104604F015FA0121084070
:10044000FFF752FE0B9A641C51689568EEE70B4665
:1004500086422E4900D02146079186422B480990BA
:1004600001D001200990194610680E461446069ADC
:100470002B4604F0A3FB02460B46E06811461A46E1
:1004800004F000FAC1B2042935D1099A104607993F
:1004900008401E4CA04200D10021089BA0420791B9
:1004A00001D159894A1C099292B2032A214600D0EF
:1004B00007999981032A224600D0099A5A81A042BD
:1004C00010D190B2A04228460B9A00D073E788B2B0
:1004D000A042284600D06EE70A94029904E00A4838
:1004E00028800CE00299059C8C800A9848800020A6
:1004F00004E00CA84078029948700120087011B0FF
:10050000F0BD0320F7E7C04601020000FFFF000036
:100510001E820000F0B503AFFFB0A4B0154602463E
:1005200021204401105D1419002805D0012808D1AC
:10053000C8B2012802D10AE0080606D0804C01F0BA
:1005400003FD8048441E01F0FFFC012020707C4820
:10055000FF2B02D9441C01F0F7FC069401204590C2
:10056000400210184B90832080005A90BC682118DC
:1005700034912321090161182E9111463831284602
:10058000154660354A951546843555951546A83566
:100590003D951546E0355195154639351646683670
:1005A0001E961646883627961646E83626964B9EA1
:1005B0005E960E4641935C9340905B9000235D9362
:1005C00061496118189161494994611833915A98A9
:1005D000101816907EA8C01C1D907EA8401C159077
:1005E00092A8213014907EA8083017907EA823305E
:1005F000399092A8401C0B9092A817300A9066A8D8
:10060000801C099092A81E300890104641301C9022
:100610001046BC303C90E81C1B901046A130139053
:1006200010464B30129028460F3011904395E81D2C
:1006300010907EA8401C25906EA8411C0F91C01CF4
:100640000E9092A8001D0D9010467C3038901046F8
:10065000C0302F9010464630309030460C304690D7
:1006600030460A3042904A9D28460C302990104668
:100670003E30369010464C302D90104645302C9030
:10068000281D0C901046AA30239010469C302290D2
:100690001046723021901046493020903046093083
:1006A0001F90701D3F905199081D2B90301D4F9049
:1006B000559C204610302490304612303A902846FF
:1006C000103035901046503032903046143028901B
:1006D00030461030489020461C3031901046C230D1
:1006E0003790084610303B90104640305390101D14
:1006F0001A900720079040033E902A93199347923F
:1007000032460E464E925D985C99814201D101F0CD
:100710002DFC348B1046154605F04EFE80B2844207
:1007200001D301F003FC28784000C046784480885B
:10073000400087440D000D001D00A300F0008E0452
:10074000026E000001EFFFFF2E0200000D0200000C
:10075000708B00905FAD5BAA28464399234603F057
:10076000C1F92878002801D100F031FE01F0DEFB4C
:100770005D9D5C9EAE4201D100F020FE55988088C0
:100780005A904F9C204603F04FFE5A9B80B2834202
:1007900001D301F0BEFB2078C3282ED1B54201D38E
:1007A00001F0BEFB681C5D905B98445D4598FFF7C7
:1007B0009BFC002C33D0012C4A9CE74D01D001F06A
:1007C000B2FB0721399807F0E9FB7EA92A223F985E
:1007D00007F09CFB00202083A075A082A0742082DB
:1007E000A073A0812581C2214F9C21703899086097
:1007F000888088715598058083885598C0880090B6
:1008000092AD5BAA2846214603F088F92878002893
:1008100001D001F080FB92A88288448803E092A86E
:10082000CD4C4480224625461540CB4885424F9901
:1008300000D1002285425A9202D155988088441CEA
:10084000A6B2084603F0F0FD81B28E42C24800D045
:100850005A98559AD0808E42BF4900D02146559A69
:100860009180BD4A954201D000F0A8FD014091421F
:1008700000D07DE71046114600F0A6FD4A9D5D9828
:100880005C99814201D100F09DFD29890220012956
:1008900001D901F049FB0CD0002901D001F044FB43
:1008A000688900907EA85BAA00234F9903F015F891
:1008B00007E0688900907EA85BAA01234699FFF7AC
:1008C00021FC7EA80078002801D001F020FB7EA842
:1008D00041887F9A0846104080B29F4B984200D1D1
:1008E0000022984201D12989491C8CB2022C00D0E7
:1008F00013466B81022C984A00D00A462A819649F9
:10090000884201D000F05EFD1A4090B28842B6D114
:10091000084600F059FD08205290355E002D01D5A3
:1009200000F00EFD708832888B498A420DD18842D2
:100930000BD124213C9807F07CFD0A204F990870C8
:10094000681C30810020306002465D995C9D8D42BC
:1009500001D101F0EBF892B2022A01D901F0E6FAD6
:1009600032D0012A50D0002A01D001F0DFFA82B241
:100970003C988018579004205992801A589000266D
:100980005D9856905B9854908D424FD0589886420F
:100990004CD2A9420C4604D25498405C5A904C1C4C
:1009A0005694A94201D3002000E00120FFF79CFBF0
:1009B00059988019032801D901F0EEFA57985A99ED
:1009C0008155761C2146DFE74F9800780A283CD1F4
:1009D000A94201D301F0DCFA481C5D905B98455CAC
:1009E0004598FFF781FB032D01D901F09FFA0922F9
:1009F0007D442D796D00AF44012A395D6EA8152123
:100A000007F017FD062255E0009061A85BAA0123BC
:100A10002F99FFF7DFFB519E61A80078002801D0D5
:100A200001F084FA61A882884188A0E056985D9020
:100A3000599830180021042800D1C943519E464AD4
:100A4000042800D193E0024691E0434B6BE01E2165
:100A50000B9807F0A3FA6EA892A91F2207F056FA86
:100A6000FF202A9000200290079A23E00024089893
:100A700084718480448004807EA892A9252207F096
:100A800045FA0998847184804480048066A863A92B
:100A90000CC80CC10078087007210A9807F07EFA8C
:100AA0006EA892A91E2207F031FA0522C2202A90D0
:100AB000294802905A9200251F98C5718571457189
:100AC0000571C5708570457005704E9C2572E58076
:100AD00065716EA91F22209807F018FA4A990D82B5
:100AE000CD811D4A10461646FF382A9A1043888148
:100AF0008D72029808817EA92622219807F006FAB5
:100B000055988682229805604560058185723D9ED4
:100B1000358063A90922239807F0F8F95A983561BE
:100B20000D4BB3812071801FC1B20529519E00D3A6
:100B30000220C0B2800003A1085808181A461946BE
:100B40008746C046180000006E0000000802000042
:100B50002A000000E8130000FFFF000033887088BF
:100B6000009061A85BAA3F9903F06FFC54E7084628
:100B7000104083B2D64DAB4200D10022AB4201D12E
:100B80003088411C8CB2032C284600D0104670805F
:100B9000032C2A4600D00A463280AB4201D000F036
:100BA000C6FF1146014089B2A94200D0CDE600F04F
:100BB000B9FD5D985C99814200D144E23698008885
:100BC0000121012800D808460C254A9A545F002CC0
:100BD00000DA08464A99CB890226834201D301F004
:100BE000BFF9002C61D44698008842990988B84A18
:100BF00091420FD190420DD121213A9807F0CEF9C0
:100C0000002042998871888048800880611C299A58
:100C1000118001465D9A5C9B934266D089B201299E
:100C200001D901F09DF90BD0002901D001F098F90C
:100C300000907EA85BAA00233A9903F006FC06E028
:100C400000907EA85BAA0123309902F0DAFE7EA80C
:100C50000078002801D001F081F97EA844887F9BAC
:100C60002046184082B29A48824202D142980088B7
:100C7000441CA0B20228964900D02146429C218003
:100C8000934CA24200D100230228914800D018467C
:100C9000469B18808E4B9A4227D10A46024092B258
:100CA0009A42B7D18A49084622E0359800880090D8
:100CB0007EAC5BAA2046369902F0A3FE207800287D
:100CC00001D001F04BF97EA88188408802460A4095
:100CD0007F4B9A420CD100242998048036980088D2
:100CE00000287B49084603D07DE74A98018AC089DD
:100CF000369A12880123012A00D81A464A9E745F48
:100D00003546002C00DA1A4603460B40704CA342CD
:100D1000519E00D10021A34201D1E889401C85B237
:100D2000954200D00C464A990C829542684A114679
:100D300000D001464A98C181934200D083E121400E
:100D4000914200D035E7104611467EE13D9D5D9C05
:100D50005C98A04200D176E12889012800D80120C2
:100D60000C215691695E022200294A9D549200DBB3
:100D7000420092B23D9B1B8A934201D301F0E9F8F5
:100D8000002900DA0120834223D23D9D688A009029
:100D90007EA85BAA299902F0C1FE5C995B985D9BD5
:100DA000224603F00BFF02460B465E9811461A4698
:100DB00003F068FDC0B2042801D001F0FAF87EA962
:100DC0000878002801D001F0F6F888884988599100
:100DD0000BE15298295E0029599300D5D8E0288864
:100DE0003B4B984209D16A889A4206D105204F9A16
:100DF000107000202860491C2981199A5D995C9B1C
:100E00008B4200D1DCE0000401D001F0A2F84F9841
:100E10000478052C2DD1994201D301F0B2F85793F3
:100E20001646481C58905D905B98445C4598FFF7C7
:100E30005BF9042C01D901F0A7F8A00002A1085821
:100E400008182146049D87463A000000140000005F
:100E5000140000002E000000360000006EA80025DF
:100E6000857005807EA8122107F0E3FA29460395D4
:100E700007E0589120E00021C843039001E00425D9
:100E800031465A9100204E9EF0710495B5717171F2
:100E9000479D286430736EA903222C9807F036F81A
:100EA0000398A8647EA914222D9807F02FF85A9A67
:100EB00034714A9D519E579B5A9264007C44A48889
:100EC0006400A74410000700070016001F00460832
:100ED000FFFF00002B886888009092A85BAA3F99CA
:100EE000FFF710F916E0589CA34239D16888298889
:100EF00019E02B886888009092A85BAA5399FFF7A5
:100F0000A9F907E02B886888009092A85BAA369917
:100F1000FFF7F6F992A80078002801D001F02EF82A
:100F200092A9888849880A460240FD4B9A4200D11E
:100F300000209A4201D12988491C8CB2012C00D092
:100F400003466B80012CFD4800D008462880FB49F1
:100F50008A4240D103408B425A990A4641D04DE71C
:100F600000209C42014603D2611C5D915B99095DA2
:100F70009C4201D30C4601E00C460120FFF7B4F877
:100F8000601E414241413F980170EC490846CAE762
:100F90003D98408A00907EAC5BAA20460C9902F0F6
:100FA00030FD2078002801D001F019F87EA988884A
:100FB00049880A460240E14B9A4203D0599113E016
:100FC00019920AE000212981A888002800D006E7AC
:100FD000DA48599008E05A981990569A3D9D688AC7
:100FE00004E0D648599019913D9D569A29890129C6
:100FF00000D80121AA5E002A01DA022200E04A009C
:1010000059990140CD4B994200D10020994201D01D
:10101000599C01E02B8A5C1C93B25994A4B29C4267
:10102000C64A00D002466A829C42C44800D0599801
:101030002882C24B994206D11040984200D086E6E1
:10104000BE49084601E07188308861AA91805080CD
:10105000E8E41420355E002D00D58EE174893389D3
:10106000B64883421FD184421DD12121379806F012
:1010700095FF00245398046044600420559E307707
:10108000489804803A9804704521289807F0D1F9CF
:10109000E043B06134753461A848F081519E681C0A
:1010A000B082B4602346A54D5D985C99814200D121
:1010B000E7E2549148990988012900D801210E26B8
:1010C000559A955F002D449601DA052200E00A1D2D
:1010D00096B29AB2B2424E9E01D300F027FF022A86
:1010E0000BD0012A4AD0002A50D1009492A85BAAC2
:1010F00000233799FFF706F865E0A2B20821891AA4
:1011000052910592D10038225092511A5A91539916
:101110000C684968599100255D994D915B994C91F6
:101120005499814236D0529A954233D2589488428B
:10113000024604D24C9A125C5692421C4D920024F4
:101140008842579201D3204600E00120FEF7CCFFF1
:101150005A9E3246509802405698C0B2214606F038
:10116000AFFE599A0A43589C04435398046059921D
:101170004260083E5A966D1C5798D1E7009492A899
:101180005BAA01233199FFF7BBF81CE0002D10DAB0
:1011900003200FE04D985D9005982A18082A674DA6
:1011A0002846519E00D03089082A294616D011467B
:1011B00014E0881C80B282423ED9009492A85BAAB7
:1011C0002499FFF747F892A8007800285B4D01D0DA
:1011D00000F0ACFE92A881884088519E559A449BAD
:1011E000D35E489A1288012A00D80122002B01DA26
:1011F000052300E0131D02460A4092B2AA4200D124
:101200000021AA4201D13089401C9BB285B29D4287
:101210004A4C00D00C4674819D42484D2B4600D06C
:1012200003463381AA4200D02BE21846204080B208
:10123000A84200D038E775E2002D55D4F08AB18A73
:101240003E4A91420AD1904208D14521289807F0A0
:10125000F0F8681C5599C88100200146374D5D9A09
:101260005C9B934258D089B2012901D900F05EFEFF
:101270000BD0002901D000F059FE00907EA85BAA97
:1012800000233299FEF7A6FF06E000907EA85BAA35
:1012900001233599FEF736FF7EA80078002801D09B
:1012A00000F044FE7EA843887F991846084082B229
:1012B000AA4200D10021AA4201D1B08A431C9CB2AB
:1012C000022C284600D00846F082022C294600D085
:1012D0001946B182AA421FD10A46024092B2AA42DE
:1012E000BDD12946284678E700947EAC5BAA20460B
:1012F000489902F086FB2078002801D000F016FE05
:101300007EA88188408802460A400C4DAA4209D036
:1013100092AA918050805DE7519E718930895DE786
:10132000FFFF000000255598C581489800880028D7
:1013300084D192A8014D858045804BE7FFFF0000D6
:10134000708B00907EAD5BAA28462B99234602F055
:1013500058FB2878002801D000F0D9FD7EA88188AC
:10136000408802460A40A74B9A422DD1002535817C
:10137000B08800281DD0FFF7D5FA708B00907EADA5
:101380005BAA28463B99234602F03BFB28780028BD
:1013900001D000F0BCFD7EA88188408802460A404A
:1013A000984B9A4210D10025B582308A002800D08F
:1013B00054E65FA893498180418008E05198418BB1
:1013C000008B01E0718B308B5FAA918050805FA809
:1013D000818844888B4D26460E40AE4200D10021C4
:1013E000AE425A9102D15198008B441CA5B24E983E
:1013F00004F0E2FF80B28542824900D05A99519AA6
:10140000518385427F4D284600D02046519908835C
:10141000AE424B9901D000F0A9FD47980068002822
:1014200001D100F0EDFD4E9A10780528519E1CD098
:10143000042829D0032800D0D0E24F9800685A90A1
:10144000469E3578284605F073F90446284605F08F
:1014500080F9002826D03046214605F085F905F0B0
:101460008BF90024569457943EE07089411B481E26
:1014700081413089A842459800D1084600284B99FF
:1014800000D087E0539A86E07088411B481E814156
:101490003088A842459800D10846002800D08BE04B
:1014A0004F9E8AE0112C01D300F070FD0020819046
:1014B00080907F907E903046214605F089F9044661
:1014C0000D4610214A1B7EA805F08AF922462B46BC
:1014D00003F0DEFF819880997F9A7E9B1BBA579319
:1014E00012BA56920CBA00BA58940025599029465F
:1014F0005A9E32462B4606F0DEFC5490529120460E
:10150000294632462B4606F0D6FC0C465299461820
:101510006C41599829462A462B4606F0CCFC801986
:1015200052906941601850902E466E415898294655
:101530002A462B4606F0BFFC0C46509940185090A6
:1015400074415A982946569A579B06F0B4FC0646B1
:101550005A91599858992A462B4606F0ACFC8019A6
:10156000529E5A9A5141509A10186141549C3246E9
:101570000A432346034313439B0F02439200D218AE
:1015800042D1402C71D27EA90C7092A8012205F0A4
:1015900087F868E00022002800D01CE2509211C9B0
:1015A0000839002873D0886805F054FD0121C9026C
:1015B000224601F053FC6EE000264B99002800D033
:1015C00009E208225198855E8488A54201D300F083
:1015D0001DFD3078801FC1B2052900D30220C0B2A2
:1015E000032801D900F01BFD4000C04678448088E4
:1015F000400087446A0103000300A50101202E99E1
:1016000008709DE1FFFF000022BA719232BA709219
:1016100000BA6F9008BA6E902846102805D06EA9BF
:10162000095C401C0029F8D0451E2021259806F0B1
:10163000B5FC0C20401BC02101437EAA1170112073
:10164000411B012005F04EF8112D01D300F0E2FC02
:101650006EAA521910235B1B03F01AFF92A87EA9F1
:10166000212206F053FCF04DACE1A00BEE4D00D072
:101670009BE17EA94C70200A4030087092A802229B
:101680009EE1718B5FA88180348B4480A3E616981D
:10169000214603F0A3F906460C46602050990D5CE4
:1016A000499840685290002D05D0012D3FD0022D61
:1016B00001D000F0B4FC7EAC2E21204606F0B9FE2D
:1016C000032D01D30020C543509A613292A82946C8
:1016D000234602F067F8929A002A01D100F066FCD6
:1016E000939B6EAC2046499903F0E6F820880028C9
:1016F00001D000F059FC6F9D499C204652992A4622
:1017000003F0E2FA02460B461A9811461A4602F016
:1017100038F8002800D1ADE00020206060604B99CF
:10172000C14D58E15FA8458029462C4653E66EA876
:10173000402106F07EFE3019002456944C908642DB
:10174000529A00D147E357945698801854903578B0
:10175000761C4D9616467EA8402106F06AFE5498E7
:1017600086422ED232464032499859963146589296
:1017700003F0AAFA06465A9100242846402C11D0BC
:101780005A99A14200D1F6E3315D09020D183A21C0
:10179000284606F03FFEC62141434A197EA90A5554
:1017A000641CEBE705467EAA40234998599903F04B
:1017B000BDFA044680B29D498842589ECBD000F0C5
:1017C00000FC579C5698201A5A90412801D300F0EB
:1017D00029FC002628465A99B1420ED06EACA15D74
:1017E00009020D183A21284606F014FEC62141438D
:1017F0004919A155579C761CEDE72646403E00212D
:10180000C9435991569D00282ED0599969437118A2
:101810005A9002D05695651B17E0589157945298EC
:1018200029186EAA4023499803F080FA044680B232
:101830007E49884200D0C4E36EA8402106F0F9FD3D
:1018400040355695579C5A98589D402D00D3CBE370
:101850003A2106F0DFFDC62141435A9A89186EAA43
:101860005155761C641CCDE75695403634464D9E46
:101870004C9864E75895606859901898058800213D
:10188000179801715A91016069497F9169497E9168
:101890000524214604F074FD002D00D14CE157943D
:1018A0000C24002D00D14CE1072C00D160E30A2666
:1018B0002846314606F0AEFD4643A91B30220A43B6
:1018C0007EA90A55641E0546EBE75A927EA82E2192
:1018D00006F0AFFD711C92AE304603F0A9F93078E6
:1018E000002800D075E392A841785991468866A8EF
:1018F00058901D2257920D9906F008FB0E985899A2
:10190000579A06F003FB300A0F9948700E706EAAC2
:101910005998107092A800217EAB01F043FF929974
:10192000002900D158E32E980078002807D1939A17
:101930001A9801F026FF012141402E9801705A9A11
:10194000601EA8424B99384D45D12E98007800284A
:1019500041D00F2095903848784494900A20939075
:101960003648784492903648784486900220819098
:1019700092A8809000207F90324878447E90324830
:1019800078448790839231487844829030487844F4
:101990008890062085902F48784484907EA801F096
:1019A000F7FB4B99002816D110E37EA9CC70200AD2
:1019B0008870200C4870200E4030087092A80422D5
:1019C00004F06EFE92A92122339806F09FFA0120BE
:1019D000349908704B994E9A1078519E00240C60EF
:1019E0004C60052817D11420305E002800D59AE0FD
:1019F0003B990988002900D1B5E280B2491E814295
:101A000000D090E03089A84200D08CE07089A842D4
:101A100000D088E0A7E2C0467844007940008744BF
:101A20001B20273A4700C046FFFF000001EF0000DF
:101A3000757420234F757470776E00007C6E000003
:101A40002C6E000016740000C8700000886D000045
:101A5000EE700000C4700000439804700120107004
:101A600061E0C3204399C87002201070279859E0A4
:101A700021211D98154606F091FA7EA924221C9872
:101A800006F044FA2A461B98046003202870439805
:101A9000C4711E9846E00A204399C8700420107053
:101AA0002B213C9806F0C5FC4E9A269805803AE01A
:101AB0000820305E002836D42B990988002909D0E7
:101AC00080B2491E81422ED13088A8422BD1708825
:101AD000A84228D12121149806F060FA45211598D2
:101AE00006F05CFA7EA94622129806F00FFA92A937
:101AF0004222139806F00AFA4E9A10980460446045
:101B0000052010701198048043984474042027998C
:101B10000876E04348610C74CC604D81269885813D
:101B2000847204810460B461FEF7EDFDFB4D348BDB
:101B30005FA84480718B4EE47EA83021017201229F
:101B40001BE00820579C0D2805D07EA9095C302990
:101B500003D1401CF7E7204600E00838221A179905
:101B6000A04207D0002C00D145E20B5C0B70641E34
:101B7000491CF5E7062800D357E208327EA80D215C
:101B800001F033FE02460B4692AC2046499D2946A1
:101B900002F092FE2088002800D010E2939857901F
:101BA00018990888401C0880686856907EAC2121EE
:101BB000204606F03EFC509E30468230214604F01E
:101BC000C5FE01F01DFE02460B4692AC204629469A
:101BD00002F072FE2088002800D0F0E19398549023
:101BE00030894D9000285A9A68D0F089DA4A5040DE
:101BF000B1895140014388B2002801D0002600E09D
:101C000010365096002800D0FAE1499840685A9062
:101C10007EA8402106F00DFC00205099402816D0E7
:101C20000C78650930225723052D154600D31D4633
:101C30002609AE197EAD2E540F2626400A2E00D35B
:101C40001A4692192B185A70491C801CE6E792A874
:101C50004C907EA94024224606F058F96EAE3046DC
:101C6000499D29464C9A234602F026FE30880028DA
:101C700000D099E16F984C90686844907EAC4E26F5
:101C80002046314606F0D5FB50982030214632469A
:101C900004F0CCFD01F0B4FD02460B4692AC2046A8
:101CA000294602F009FE2088002800D087E1939899
:101CB00005905A998AB2E14801405A9150927EA803
:101CC000499D2946599A579B01F0A8FD7E9C002CFE
:101CD00000D167E17F9E7EA82946569A549B01F069
:101CE0009DFD7E98002800D15CE159907F98579027
:101CF0007EA82946529A589B01F090FD7E9D002DAA
:101D000000D14FE17F9B4D980028CE4A7A44CE49BE
:101D1000794441D04D9352925491569658945A9882
:101D2000509A02437EA8499C21464C9B01F076FDC7
:101D30007E9E002E00D135E17F985A907EA82146E4
:101D4000449A059B01F06AFD7E98002800D129E1A4
:101D50007F994D9A8D928C9507228B92529A8A92F6
:101D6000899188900A208790B848784486905A983C
:101D70008590849608208390B5487844829057983F
:101D800081905998809006207F9054987E907EA8EC
:101D90000421589A569B0FE08593849507208390E1
:101DA0008292579881905998809006207F907E91DA
:101DB0007EA802212246334601F040FD0446002061
:101DC000499908604860A0B2994988424B999A4D58
:101DD00000D100E6ABE0569EA11B15466EA801F0AF
:101DE000FDFC02460B467119499802F09FFF2646FA
:101DF000044680B28E49884200D0E2E092A8402496
:101E0000214606F016FB7EA84494214606F011FBFD
:101E10007319701E58932946569057968B4273D962
:101E20005C1A412C864878445A90499D549147D376
:101E30000A46403228464D921E4602F045FF0446AF
:101E400059913146403928464C91324602F03CFFC8
:101E5000449B002B1ED0599AD218402A00D1C8E0CA
:101E600022783A2A00D3BCE0CE185A9DAA5C92ADE3
:101E7000ED186D1E2A70402E00D1B8E002783A2A83
:101E800000D3AEE05A9DAA5C5B1E7EAD5A55641C21
:101E9000401CDEE77EAA4024499D284654992346EB
:101EA00002F064FF92AA28464C9D2946234602F080
:101EB0005DFF56988038579E803E2B464D99ABE784
:101EC00028461A4602F000FF0B46569E721C11D29D
:101ED000002B00D18BE002783A2A00D381E0402E1B
:101EE00000D38AE05A9DAA5C92ADAA555B1E401CA5
:101EF000761EEBE792A8214601F070FC02460B46E5
:101F00004998549902F032FF589DFFF7F5FB7EA8DF
:101F100002E0022008E092A8407805E0FFFF000000
:101F20000020FEF7E1F801205FA948703E9C0120E7
:101F30000002479908184099419A02F097FE81B231
:101F40003B4A914200D004462046FC1F053CA54672
:101F5000F0BD549930E0C046FFFF00007EA84678EF
:101F600061A84670E2E7022006990870304CDEE76F
:101F70003E98841C25E05A98014610E092A84178CA
:101F80001AE00020FEF7B0F8012115E03E981EE0AF
:101F90000020FEF7A9F8C9E756995D91042103F0E6
:101FA00086FAFEDE7EA802E06EA809E092A8848888
:101FB00007E0032100E0497861A84170B6E792A8E4
:101FC00044880020499908604860B0E71948841C9B
:101FD000ADE792A84488AAE792A88488A7E77EA8DC
:101FE000CDE73A211046DAE740212846D7E70846F0
:101FF000D5E75998C0E70520BEE740213046CEE737
:10200000144878442B2103F0F9F9FEDE1248784495
:102010002C21F8E71021284603F009FAFEDE01F032
:10202000BCFBFEDE40215A98F6E705211046F3E797
:1020300001EF0000026E0000FFFF00000000FFFF44
:10204000B76F0000846D0000DA690000BE6900000F
:102050007E69000066680000B0660000F0B503AF5E
:10206000F04EB544F04868443090F04868442990F8
:10207000EF4868442D90EF4868442190FF211231C9
:1020800035A834904118002433918C70892149007F
:1020900006F0CFF9E8487AAD281814211F9006F011
:1020A000C8F92C87B894012108020E46229132907B
:1020B00028181A9002F0A5FD832080002F90281880
:1020C0007602314606F0B5F9212027904001319083
:1020D0002C54AA193146D948546017929060FA944A
:1020E0007A94D44E6E4430460C3006F0A2F9232088
:1020F00000012E9034522F983454301819902299A0
:102100004184CF486844046021990C60CD488860C0
:102110002F94204602F028FAEE4830181390412000
:1021200080003499081834903198281820902E98FF
:1021300030180F90EA486844001D0A90BC48684473
:10214000011D0C9108300E90B9486844001D09909B
:10215000E3486844011D289108302690B44868443B
:10216000001D2590B2486844001D0890EC48684462
:10217000411C1E91C01C1D90D9486844C11C1C9173
:10218000401C1B90AA486844001D0490E94868441C
:10219000411C0791C01C0690D1486844001D059061
:1021A000284608300B90CE486844011D1191083034
:1021B00012909F486844001D1090284638301690B1
:1021C000284639301590F83518953720400231905F
:1021D00029E02E9096486844802106F02AF90024D0
:1021E000EA4884710470448003F06EFF002801D136
:1021F00003F072FF8E4E6E4480253046294603F070
:102200005CFF317808460E38082818D87178B27803
:1022100012025118784400794000874404062332A2
:10222000323232322D002F98D3E788B23299884269
:1022300027D17F486844C07803F042FD21E005299A
:102240001FD1349B187B7A496944C9784A080146F2
:1022500011431973002871D0002A00D17EE0032AAF
:102260000FD1C5E008BA000C02280AD935A8704978
:10227000694403F0F1FC04E035A86D49694403F0BA
:10228000C5FCC24800780028AED0C048408800286D
:10229000AAD0339DAC7034990860042802D23198DA
:1022A000C11C1FE08E48684435A903F03BFD3099FE
:1022B0000869002815D035A90878B02816D18A7881
:1022C000002A13D1C978002910D135A840780128F7
:1022D000349E4CD0A72801D100F04FFD3198411C0D
:1022E00000E0496935A803F045FD7DE7297800291C
:1022F000349B02D06978884275D1359E350AE8B2A0
:10230000032800D8E1E058683299091D884201D3BA
:1023100000F030FD35AA6E231354349B5868401CDE
:10232000884201D300F026FD35A901220A545868DD
:10233000801C5860084603F0DBFB55E7032AA0D851
:10234000022101200023C0467A44127952009744AA
:102350000152575800203499087392E700211973ED
:10236000012847D002284AD003288AD145E035A861
:10237000012101707268501C7060901C329B1D1D01
:10238000A84201D300F0F5FC35A90918981A821C5F
:10239000012004F0BDFE7168A94201D300F0E8FC01
:1023A00035AA505471684018421C7260801CA842C3
:1023B00001D300F0DEFC35A909183298801AC21C3E
:1023C000022004F0A5FE349B5968A94201D300F015
:1023D000CFFC35AA505459684018401C586010462C
:1023E00003F0E5FC00E735A8319903F0C3FCFBE6F8
:1023F000022106E00323194603E0052101E0042041
:102400000146052900D90EE7614878444900C046D5
:102410007944898849008F4418001A001700D101B7
:10242000D4011D003CF6FFFF64090000D80800003D
:1024300048080000140600000C040000808FD0C083
:10244000180600008097D0C0EDE65248784403F0AB
:10245000E9FCBFE62E98C0B2022804D0032800D0C1
:10246000B8E600F08DFC4C4E7E44B0472E90B0474D
:10247000FDF7E6FD0146494C6C440A22204605F072
:1024800045FD2E98FDF7DCFD0078414241412E9438
:102490002170B0470446415D0078FDF715FE064601
:1024A000254680350028204600D128462E99FDF784
:1024B000AFFD002E00D12546394979442846FDF765
:1024C000DEFD02F0D5F8022083E603A1085C40009F
:1024D0008744C0460D02000004090809002502E0F7
:1024E000740900000225186800284BD02D48684464
:1024F000142105F09EFFF0B26E212E91802800D0AD
:10250000E5E0E8B2800007A1085808182649794498
:10251000264C7C44264D7D44264A7A448746C04654
:10252000DC0800001400000056010000A0000000BC
:1025300020010000DC0800001F48784400F05FFC28
:1025400005460C4601202E9005401C4E7E44284630
:10255000B0471B48784400F052FC2C912E9A104052
:10256000B04728462146B0470C4969448C702C98E6
:1025700048700C7035A8032203F03AFC35A803F02C
:1025800016FCBBE003246E25329EA3E0000200206F
:1025900046640000FC6300004DDCFFFF48080000BB
:1025A00042610000C80800003A6500006A6500004A
:1025B00046650000D96400007F610000E908000062
:1025C000666100002A922C91F948684435A903F00D
:1025D000A9FB2D990868002874D02B94496803241E
:1025E000342974D134211422064600F037FCF14A14
:1025F0006A4403F0B9FF002869D02395EE48684487
:10260000402105F016FF143600200396314640287D
:1026100000D1DEE00C78650930225723052D1546E0
:1026200000D31D462609AE19E34D6D442E540F26E6
:1026300026400A2E00D31A4692192B185A70491CAC
:10264000801CE4E72C912B94D948684435A903F009
:1026500069FB2D980468002C34D02395456835A873
:1026600080780128329E349B4CD0002800D0A3E013
:10267000172D00D3DBE003242BE02A922C91CC48C9
:10268000684435A903F04EFB2D990868002819D03D
:102690002B9449680324152919D11521142214906B
:1026A00000F0DCFBC34A6A4403F05EFF0028329E60
:1026B000349B0ED035A9C8782E90032800D9DFE0CE
:1026C0000020DEE0BA4868448488200A2E90329EBA
:1026D000349B2E9D5868311D884200D34AE335AAA9
:1026E00015545868401C884200D343E335A90C5464
:1026F0005868801C5860084603F0FAF92F9801F0DA
:1027000033FF90E5AD48684400907AA80121224645
:102710002B46FDF7FFFE044680B2A9498842329E4F
:10272000349B00D080E020980078022800D025E774
:1027300019980078002800D129E3A24C6C4421218B
:10274000204605F076FE1398214604F0FFF801F0CC
:1027500057F802460B469848684411461A4601F05D
:10276000A9F8309D2969002900D1AEE16A6919985C
:10277000408C0128944B7B449448784400D0AAE1D3
:102780000424299EF36434657165B26590496944F7
:10279000296110212C9A6A632B9AAA630622286267
:1027A00069622398A862EA620F984078002800D1F5
:1027B0004FE2884979444EE202248AE72E98411E6E
:1027C00001E02E98411C032008402F9001F0CCFE20
:1027D00029E51B980178249140780D90309E30694E
:1027E00014907B4C6C443D2520461C992A4605F0EC
:1027F0008DFB1D9821462A4605F088FB1E980D99F1
:102800004170249901706F496944149808706A48AE
:102810006844402202F0DEFE3069002800D183E0E7
:10282000EF202E90002452E7000A2E9051E7142149
:1028300020461F9A03F098FE0026169806701598F9
:10284000067018980660209806701A98329904F05D
:102850000FFC179806602E9646605A4868442E2151
:1028600005F0E7FD524E6E4430461F9900F000FB24
:102870003678202E00D0BBE0E0202E90052426E7FD
:1028800001208C78211F4A1E91412E9A24942243C4
:1028900005D0014303D06E202E9002240EE124982F
:1028A0000028239500D1F9E0414D6D444149694428
:1028B000284600F0DDFA2D78202D00D1F8E03C48C4
:1028C00068444678448848222898259905F02EFBCC
:1028D00039486844448046700570354868442699F4
:1028E00000F00AFB00213C48279B202906D0304AF3
:1028F0006A44525C58438018491CF6E7012108439A
:1029000000BA010A020C4A40010E51404140C8B2CF
:10291000249905F0EDFA2E98814200D1D0E0299952
:102920000868401C0860BFE735467169B269052038
:10293000F0602A487844B060072070602A9B3360BA
:102940000424274B7B44299EF36434657165B2658A
:102950002449794429630221E96123496944A96131
:10296000012169611A49694429612C996963686286
:102970001E48784428622B98A8630620E8622398B2
:10298000A8620D48684400F003FC002800D19EE6D0
:10299000074C6C44074969442046039A00F078FECE
:1029A0002088002800D142E10148684444888CE630
:1029B00048080000C8080000740900001406000060
:1029C00001EF0000DC0800002F5F0000D65F000070
:1029D00024090000E05F000005150000BA60000057
:1029E0005D5D0000C260000064090000B660000088
:1029F000ED48684441782A914088249048221198F3
:102A0000109905F093FAEA486844249941802A997C
:102A100041700670E44E6E443046129900F06CFA34
:102A2000E6486844E34A6A44314600F087FE299943
:102A3000C86C00284DD00E6DDE4969442E220B98DB
:102A400005F064FA7B9622987A9014222046294653
:102A500000F087FA0C46032900D295E105468678F6
:102A6000012E04D101F075FD002800D126E10F9A56
:102A70002E9B13702298199948840B70701E414246
:102A80004141517021980360436035A88178C7485F
:102A9000684400907AA82A4623463AE6C24C6C4421
:102AA000C5496944204600F0E3F92578202D2FD14F
:102AB000BD4868444488200A2E90349B329E08E624
:102AC000BC486844482228992AE0B9486844848868
:102AD00040E1BA48F7E50424299EF3643465716542
:102AE000B26500212963E961BC497944A961229951
:102AF0006961B249694429612C996963102169624D
:102B000028622B98A8630620E8622398A862B6E0A2
:102B1000A548684444884678A648684448220999EC
:102B200005F004FA299800682E90A24969444822C9
:102B30000C9805F0FBF99C48684444804670057089
:102B40001498007D002863D09A4C6C442E212046B6
:102B500005F06FFC994D6D4428460E9900F0CCF9B4
:102B6000904868442946224600F0E8FD309D2868D8
:102B7000002800D1A0E06C688E4969442E220A9E8C
:102B8000304605F0C3F92C613046214600F0F2FDD5
:102B900002460B468748684411461A4602F01AFD61
:102BA000299E7068002800D03AE6B0682490F16849
:102BB0000822834B7B4407242A9811C52B606A6046
:102BC000804A7A44F264346524987065B1657E4821
:102BD000784470620220306172486844F0600120DD
:102BE000B0607648684470602C98B0620F20B06185
:102BF0007648784470612B98F06206203062239802
:102C0000F0616C48684400F0C3FA002800D1A5E0E8
:102C100035AC412220460E9903F0EAF82E9800BA0E
:102C2000309908616249694404222046A4E4604C5A
:102C30006C4448222046089905F078F92D98C16C1B
:102C4000204600F087F902460B4635A811461A4681
:102C500092E463497944229B309A116353610028BE
:102C600001D0194600E00221309AD16111460028B6
:102C700002D05D48784401E05A48784488614C4865
:102C8000684400F085FA002814D0209800780228C3
:102C900000D080E0464C6C4420461A9901F0F4FFC5
:102CA0002078002830D04248684444883E48684430
:102CB00044804FE06E254EE03A4804E53A486844C7
:102CC0002C902E9C0475424878440F21414A7A4446
:102CD0000D23414D7D442D9E35607360B260F160DF
:102CE000306102F081FE2C9802F0B2FE3048684458
:102CF0000471309804612E48684402F035FEC0B279
:102D00000528F8D1E0202AE02948684441782E912E
:102D100046882A4C6C441D25204605992A4605F014
:102D2000F5F8069821462A4605F0F0F8300A07998A
:102D300048700E701F4A6A442E9810701A4C6C44EA
:102D400020461F9900F0A4FC208800280AD01648CD
:102D500068444488250A329E349BBBE46E202E9042
:102D60000424B4E4124C6C4448222046049963E7DE
:102D70000846294602F09BFBFEDE35A803F017F853
:102D8000002003F0BCF9FEDE02202146F2E71748DE
:102D90007844272102E016487844242102F02EFBD3
:102DA000FEDEC0466409000048080000140600006A
:102DB00074090000DC080000C808000024090000B5
:102DC000545B0000CE5E0000445E0000A55E000083
:102DD00090590000625900004F590000A66200009F
:102DE000C05D0000C65A0000FC5A0000185A0000DE
:102DF0006758000080B500AFFDF747F9FEDED0B59B
:102E000002AF0378012211462B2B12D02D2B10D0AC
:102E1000002319465A1E541EA241012B09D0C45C3E
:102E2000303C092C04D80A224A4311195B1CF1E7F3
:102E300001211046D0BDD4D4E0B502AF002801D1A5
:102E400008468CBD0348784401A9034A7A4402F03D
:102E5000DAFAFEDE4A5F000020580000D0B502AF6B
:102E60000B46044600201146224600F0F9F8D0BD7A
:102E7000F0B503AFB1B0019014AE304601F04EFC96
:102E8000307800901EAD284608304124214605F0D8
:102E9000D0FA009828701F9401232946324604F086
:102EA000F3F8002803D001F061FC05460AE0291D73
:102EB0001EA846884578047802A8482205F036F80E
:102EC000202C09D16E202843C0B2019E708014A826
:102ED00001F08CFE20240CE00096019E301D02A91A
:102EE000482205F023F814A801F080FE00987080B5
:102EF0007570347031B0F0BDF0B503AF93B00E46CD
:102F000004466D46681C491C202204F0FFFF402047
:102F1000305C01210140881C287009AE30462946EA
:102F200001F086FE3078002807D109A8411C202234
:102F3000204604F0EBFF13B0F0BD0448784412A91A
:102F4000034A7A4402F05FFAFEDEC046545E000097
:102F50003A57000080B500AF0A464821FFF77EFFD0
:102F600080BD80B500AF914202D38018891A80BD20
:102F7000104602F05CFAFEDE7047D4D4D0B502AF42
:102F80000088284A8218052A0ED9274A8218042A5E
:102F900015D8C0467A4412795200974402181B1F74
:102FA0002300234B7B441BE07A4412795200974460
:102FB000021C2024272B234B7B4410222BE00922C8
:102FC0001203904224D1194B7B44022223E0194B77
:102FD0007B4405E0184B7B4407221CE0174B7B44E5
:102FE000062218E0164B7B4414E0174B7B440F225B
:102FF00011E0164B7B4408220DE0154B7B4401E0A9
:10300000144B7B44142206E0134B7B44172202E04E
:10301000124B7B440D2248698969CC681946A04748
:10302000D0BDC0460020FFFF0092FFFFDE5A000027
:10303000045B0000DE5A0000DE5A0000DD5A00008A
:10304000DB5A0000A8570000E25A0000FC560000BE
:10305000E15A0000EF5A0000FB5A00000A5B000032
:1030600080B500AF814207D3994203D81218091ADC
:10307000104680BD0846194602F0D9F9FEDE7047B9
:10308000F0B503AF87B00C46019048698969029199
:10309000CB68344979440D2206461D4698470121E4
:1030A00000284BD10091207F400720D42E4979443D
:1030B00003223046A84700283FD12C4979440422F6
:1030C0003046A847002838D12949794402223046A1
:1030D000A847002831D101983146029A01F088FBB7
:1030E000002800992AD129497944022235E0214952
:1030F000794403223046A84700281ED106A80121A2
:103100000170059002980490039603A81A49794427
:10311000042202F033FB00280FD103A81749794499
:10312000022202F02BFB002807D103A9144A7A449B
:10313000019801F05DFB002803D00099084607B014
:10314000F0BD03A80F497944022202F017FB0028C2
:103150000099F3D10C49794401223046A847014631
:10316000ECE7C046F8550000BA5B0000ED550000E2
:10317000A35B00007F5B00009B5500004F5B0000DD
:10318000FE5900002C5B00001E5B00008D5B000000
:10319000F0B503AFCFB00446C0680028E64E7E44C9
:1031A0000FD0012811D117A80121017500201A9014
:1031B0001996206A1B90A0680168406818901791C2
:1031C0000EE017A8042101750AE017A80021017577
:1031D000206A1B90A0680EC800681A9017A80EC03D
:1031E00017A800F029FA1DA80121017500252095D6
:1031F0001F96606A219060691E9020691D9023A827
:10320000017526952596A06A2790E0692490A0690B
:10321000239060680B90401E00D2284603900B98C4
:10322000401C0E90401E0D9000D20D952BA83C30F6
:103230001190206804900424F64878440590139176
:103240000E98854219D12BA8002101712B9102F013
:10325000CBFBF848784402F0E5FD23A802F0F8FB28
:103260002BA802F081FBC0B20628F9D0052800D1B6
:10327000C3E10328F4D10D9DE2E70B98854209953F
:1032800024D12BA8002505712B9502F0ADFB0598E4
:1032900002F0C8FDE648784402F0C4FD1DA802F023
:1032A000D7FB2BA802F060FBC0B20628F9D0052896
:1032B00000D1A1E1042800D192E10328F1D10B98BB
:1032C000002800D194E10324039DB9E700D39AE1DB
:1032D00017A8027D29A800250571299504200090D2
:1032E000424009990A43501E8241079208010499FD
:1032F00008180890C06811210C9105F08BF8032C78
:103300000F9000D00F9508990A460C320A920831A6
:1033100006910190401C0290139CBD4D109602F046
:1033200063FB002040280BD02BA90C500918002269
:103330000A770E614A618D6102228A602030F1E7CE
:1033400000201290C2430A980668069801680F98F8
:103350001692002A4FD0002826D00C4611220021B8
:103360000B4604F0A8FD4A1E914144D1B04242D21E
:103370002246034611339E42314600D3194683420A
:1033800000D23146159114923346FFF769FE054687
:103390000C4614983146159AFFF7E3FD002D2AD00C
:1033A00006461591294608E0002E24D0112E3446F9
:1033B00000D30C9C361B15960E19139D43A822466C
:1033C00002F008F94498459A4399119B129C1C708D
:1033D0008F4B3993022335933395002900D0224631
:1033E00038920029169A00D010983790521C314616
:1033F0002046159EACE73BA815212022129105F02E
:1034000013F80F98002817D10A98006811280F9810
:1034100012D2089C616800203BAA00F029F90CCC6C
:1034200002F036F843A83BA9152202F0D3F84398DE
:1034300000284FD000234EE041A900248C700C805E
:1034400042AEB4703480401C02F082FE16900D46ED
:103450000298314602F07CFE139B4E936E4A7A44EA
:103460004D924C914B904A9323466C487844499036
:1034700048951698479002204690694878444590B0
:10348000089903C9449143902046302BCAD0129921
:10349000091A43AAD21854688C42264600D30E4615
:1034A000002EBFD0311816913BAA1D4600F0E0F85F
:1034B0001590149143A8405921463246FFF7CEFC9F
:1034C00002460B461598149901F0E2FF2B4608338B
:1034D0001698DAE7459B109E002802D051487844A0
:1034E00000E0449816900021002B3DD01A46169813
:1034F000C018431E1D786CB2002C30D5831E1D7879
:1035000012956DB23F261596F6431495B5420DDA25
:10351000C31E1D7812956DB2B5420FDA159E354067
:10352000031F18784007C00D40190CE01F20129DA2
:1035300005402846159E0AE0F25B00000F20129D10
:1035400005402846159E149D3540800140193440A1
:1035500080010519112000048542109E04D01698A0
:103560001B1A202D1146BED02BA8139C0477284887
:103570003190309116982F9002202D902B9407981F
:10358000002803D02848784402F04CFC27487844AF
:1035900002F048FC2BA8022102F073FD099D29A826
:1035A00002F0E2F9C0B20628F9D0042806D00328B8
:1035B000F5D10F9800280BD0401E06E001990F9816
:1035C00088420AD0401C884200D80F90104DA6E6D1
:1035D000002D07D06D1E032432E66D1C009C2FE6E3
:1035E0000E9D2DE617A800F027F80025009C27E681
:1035F00017A800F021F823E6099D0E98281A411E0D
:1036000088414FB0F0BD09980B9901F050FFFEDEE4
:1036100080000B00C2550000095800005152000004
:103620003F520000B2580000765200008A5200005B
:1036300082550000A8550000DCB504AF0446007DAB
:10364000042812D002F0D0F90848784402F0EAFBCE
:10365000204602F0FDF9684600210171009168469C
:1036600002F082F9C0B20428F9D1DCBDCE510000CD
:1036700080B500AF814208D3152903D81218091A62
:10368000104680BD15220846114601F0D0FEFEDE30
:10369000F0B503AFB9B0069207901BA801F03EF851
:1036A0001C98212801D2032608E0312801D20426E3
:1036B00004E0412801D3092600E0052625AD482471
:1036C0002846214604F0B5FE37940024389438A8E3
:1036D000039037A802900195202000901BA815495F
:1036E0003246069B03F0CAFC002804D01248079E0D
:1036F0007080012417E008A8801C049025A94825A3
:103700002A4604F003FC3798069038980590079EE7
:10371000301D04992A4604F0F9FB01200599084060
:103720000699F164306534801BA801F05FFA39B066
:10373000F0BDC0460106000001E00000D0B502AFB8
:1037400086B0044605A80023037020230493039148
:1037500001210291019001A8114602F045FE0028C6
:1037600001D0616001E00249A180206006B0D0BDB7
:1037700002E0000080B500AF0A462E21FFF76EFB85
:1037800080BDB0B502AF14460D4602C8FFF7F2FF88
:103790002A46234601F0E2FFB0BD80B500AF01F03C
:1037A0003CFEFEDED0B502AF86B0044605A801702F
:1037B00020210491039201210291019001A8194650
:1037C00002F012FE002801D0616001E00249A180F0
:1037D000206006B0D0BDC04602E0000080B500AF5A
:1037E0000A46402100F001F880BD80B500AF8A4252
:1037F00001D8114680BD104601F019FEFEDED4D47A
:1038000080B500AF002800D080BD034878442B214C
:1038100001F0F4FDFEDEC0465C500000D0B502AF02
:103820000446084611461A4601F04EFA02460B4677
:10383000204611461A4600F03DF8D0BD80B500AFD5
:1038400090B00493039207220292144A7A440192A0
:10385000134A7A440D920222089201AA05AB07C3CB
:10386000104878440E9008200A900F487844099038
:103870000E4878440F9006200C900D4878440B9029
:1038800005A8FFF785FC002801D1034800E00148A6
:1038900010B080BD01EFFFFF046E0000A7510000D3
:1038A000C2510000E6510000A44E00000A52000080
:1038B000E0510000DFB506AF044601A801F08AFE22
:1038C0000198002804D0EF200002A080002002E030
:1038D0000398606002982060DFBDF0B503AF87B049
:1038E0000591064650689168BD68884203D1B5804D
:1038F0007380002070E0029328040690039202D0A7
:103900000598047909E0104600F0ADFF0C4601214E
:103910000840FCF7E9FB05980471204600F05FF8C9
:103920000490052803D900207070012054E0C020C5
:10393000204003D0402801D0802809D106980028D3
:10394000039814D13F22A10607D5D1430C4305E0CB
:10395000ADB2012D039809D909E014400499CA00B9
:103960001832182111408C4005990C6001250196F0
:10397000ABB2D943049A8918CE0005990D68426804
:1039800081688A4219D004998B4216D234461E4669
:1039900000F069FF069101210840FCF7A5FB3346C2
:1039A00026460398182222400699C9B291400D4339
:1039B00005990D60083E5B1CE1E70020C143049AB5
:1039C00093420A4600D01A46019EB280049A93425E
:1039D000029A00D011467180307007B0F0BDC0214E
:1039E0000140802905D0402905D0002905D10120BA
:1039F000704704207047022070473F210840401D57
:103A00007047F0B503AF87B01E4653689468BD6831
:103A1000A34203D185804680002360E005912904FC
:103A200004920290069102D0059880780AE0104630
:103A300000F019FF0C4601210840FCF755FB0598E2
:103A4000847020460446FFF7CAFF0390042804D977
:103A5000002102984170012341E001960698002858
:103A600006D0059800880690AEB20498039D0CE03D
:103A70003F200440039DE8001830182101408C408D
:103A800005980694048001260498F1434919CC0056
:103A9000426881688A4216D0AE4214D200F0E3FE3A
:103AA0000D4601210840FCF71FFB04981822224014
:103AB000E9B2039D9140069A0A43059906920A804D
:103AC000083C761CE4E70023D943AE420A4600D006
:103AD000324602988280AE4200D001994180037044
:103AE00007B0F0BDF8B504AF0D46044650689168C4
:103AF000884201D1B8680AE0104600F0B4FE0E46D4
:103B000001210840FCF7F0FA2E70034B1846A08004
:103B1000638000202070F8BDFFFF0000F0B503AF08
:103B2000A9B0154606460A4640320820145E1A928D
:103B300090880122012800D81046002C00DA104697
:103B40009AB2904201D800F031FCBA68002C1C9562
:103B50001D910A9222D402931A9A508813885C4AC3
:103B6000934217962BD190421A9E29D10A4632329F
:103B700000200886508110708886107108871072A6
:103B80004862C2220A700885514A8A8530600A4616
:103B900024329071621C3281034611E01A98011D93
:103BA000009222AC20462A461D46FFF72AFF2078C5
:103BB000002801D100F003FC22A800F02DFC1A9E81
:103BC0000A46143201920A461A3214920A461032F8
:103BD00013920A46093212920A1D15928A1C049207
:103BE0004A1C11920A463C3210920A463D320F920C
:103BF0000A4630320E920A4634320D920A46383264
:103C00000C920A46283203926C68AA68944201D149
:103C100000F0CEFB0A8D012A00D801222C241B942F
:103C2000095F002901DA062200E0521D94B29AB21F
:103C3000A24201D300F0C1FB042A1D9C0FD8520000
:103C40007A4492885200974404002D0335033A03C6
:103C50003F0300901EA80023109900F027FB0029C5
:103C600001D500F06DFB2046A48C194A944209D17D
:103C7000C08C904206D1C2201D9A1070002454625C
:103C8000481C90856868A968884201D100F070FBE3
:103C90001D9E304602F07CFBA1B280B2814201D36E
:103CA00000F08BFB3178C22900D010E1284600F0EB
:103CB000DAFD0D4601210840FCF716FAE8B2D428D7
:103CC00000D978E2002303A14000085A400087444D
:103CD000FFFF0000D700D700D600D600D600D600E0
:103CE000D600D600D600D600D600D600D600D60024
:103CF000D600D600D600D60043024F026C02620204
:103D0000D700D700D600D600D600D600D600D60001
:103D1000D600D600D600D600D600D600D600D600F3
:103D2000D600D600D600D600D600D600D600D600E3
:103D3000D600D600D600D600D600D600D600D600D3
:103D4000D600D600D600D600D600D600D600D600C3
:103D5000D600D600D600D600D600D600D600D600B3
:103D6000D600D600D600D600340234023402D60083
:103D7000D600D600D600D600D600D600D600D60093
:103D8000D600D600D600D600D600D600D600D60083
:103D9000D600D600D600D600D600D600D600D60073
:103DA000D600D600D600D600D600D600D600D60063
:103DB000D600D600D600D600D600D600D600D60053
:103DC000D600D600D600D600D600D600D600D60043
:103DD0006502D600D600D600D600D600D600D600A2
:103DE000D600D600D600D600D600D600D600720285
:103DF0007202720272027202720272027202720223
:103E00007202720272027202720272027202720212
:103E10007202720278027A027C027E0280028202C0
:103E20008402860288028A028C028E02900292022A
:103E30009402960298029A029C029E02A002A2029A
:103E4000A402A602A802AA02AC02AE02B002B2020A
:103E5000B402B602B802BA02BC02BE02C002C2027A
:103E6000C402C602C802CA02CC02CE02D002D202EA
:103E7000D402D602D802DA02DC02E102E502199B82
:103E80001D9E099830720B987060059CF47007981D
:103E9000B07018937370357028A90322129804F03B
:103EA00035F80898F06026A8139904C804C1069A4A
:103EB0003283F47502880A808078887022A90A22E9
:103EC000149804F023F82946179E1C9D02E01998C7
:103ED0001890179EC8B201461239052919D9014612
:103EE000BB39062927D9002847D001281D9C45D079
:103EF0004A284CD04B284AD04C2848D07E2800D1A4
:103F0000A5E08D283AD08E28164D2A46294647D05E
:103F100074E0C0467944097949008F440202535D38
:103F20002E2E1D9CA38CE08C009020A811992A466F
:103F3000FCF7E8F859E0880003A108580818094D73
:103F40002A4629461D9C874658000000B400000000
:103F5000B4000000B4000000640000002000000075
:103F600020000000FFFF0000A38CE08C009020A840
:103F700015991C9A00F0A9FA38E01D9CA38CE08CDE
:103F8000009020A811992A46FFF7ACFD2DE0A38CE4
:103F9000E08C009020A815992A46FFF79EFC24E0AB
:103FA000A38CE08C009020A8119907E0E08CA38CF2
:103FB000002B00D19EE0009020A804991C9AFFF7E6
:103FC00091FD13E01D9CA38CE08C009020A8159916
:103FD0002A46FCF73FF908E01D9CA38CE08C00907A
:103FE00020A804992A46FCF78BF9FE4D20A80078FA
:103FF000002800D00FE220A8828841880E46164093
:10400000AE4200D10022AE42169201D1A08C411CDA
:10401000254619918CB2284602F0BAF981B28C4239
:10402000F04A104600D01698E8848C42144600D01E
:10403000199CAC849642154600D0A9E12040A842C4
:10404000189819901C9D1A9E00D01BE6A8E1182014
:10405000225E002A52D4608A218AF24B99420AD108
:10406000984208D1002020726060C143E160206165
:10407000511C218301466A68AB689A4259D00904F1
:1040800000D093E1009022AE0024304615992A46D4
:104090002346FCF7DFF83078002800D0ADE122A8F5
:1040A00043882398194601408AB2DE498A4200D0EB
:1040B0000446DC48824202D11D98008A431C99B212
:1040C0000129D848179E00D020461D9C60820129F6
:1040D000D44900D019462182D24B9A4229D10A46AE
:1040E000024092B29A42C6D120A8CE4D45802A46BF
:1040F000294683E7009020A8002355E7A38CE08C95
:10410000009022AC204601992A46FFF77AFC2078DD
:10411000002800D07BE122A88188408802460A401E
:10412000C04B9A420DD020AA918050801D9CBD4D5D
:1041300061E7E28CA18CBB4D60E7002009900B90F9
:104140009DE600221D9C2283A08A002883D120A8FE
:10415000B44D858045804EE728A8002181700180FC
:1041600026A88180817123912291269112250AE04F
:1041700028A800218170018026A881808171239167
:104180002291269113250691089109910B9107918F
:1041900005910B4674E60420079070E626A80021DE
:1041A0008171818026919F4806900021C843089024
:1041B00009910B9163E6C2211D980170199818901E
:1041C00082E68D255CE68E255AE68F2557E69025FA
:1041D00055E6912553E6922551E693254FE6942521
:1041E0004DE695254BE6962549E6972547E6982521
:1041F00045E6992543E69A2541E69B253FE69C2521
:104200003DE69D253BE69E2539E69F2537E6A02520
:1042100035E6A12533E6A22531E6A3252FE6A42520
:104220002DE6A5252BE6A62529E6A72527E6A82520
:1042300025E6A92523E6AA2521E6AB251FE6AC2520
:104240001DE6AD251BE6AE2519E6AF2517E6B02520
:1042500015E6B12513E6B22511E6B3250FE6B42520
:104260000DE6B5250BE6B62509E6B72507E6B82520
:1042700005E6B92503E6BA2501E6BB2500E6BC251F
:10428000FDE5BD25FBE5BE25F9E50020BF2507902E
:104290000346F5E500200B90C025F0E500200B90CB
:1042A000C125ECE500901EA801230F992A46FFF7CF
:1042B00019FC10E000901EA802230E9908E000905F
:1042C0001EA803230D9903E000901EA804230C9957
:1042D0002A46FFF796FB534D1EA80078002800D011
:1042E00091E01EA8828841881B98235E208D0128BA
:1042F00000D80120002B01DA062000E0401D0C460A
:104300001440AC4200D10022AC4201D13188491C9A
:1043100083B28DB29D42434800D0104670809D42CA
:10432000404A134600D00B46338094421C9D1D9991
:104330003ED11A4602403B4CA24255D0FFF764FCE6
:10434000009022AC204603992A46FFF75AFB2078BA
:10435000002854D122A88188408802460A40314B67
:104360009A4208D01EAA918050801D9C2D4DB8E71E
:104370001D9C2C4D10E000211D9CA185208D002846
:1043800001D0FFF770FC1EA8264D85804580A8E768
:10439000189819901D9C1A9E1B9872883188A4E762
:1043A000204D2A46294619901D9C9DE7022034E0A5
:1043B000179E0A98B080029819E0022025E022A8F2
:1043C000828841880B4613401648834212D100244C
:1043D0001A990C818A88002A2B461C9D1D9905D0AC
:1043E000FFF7B9FBFFFF0000179E0E48B0807080FA
:1043F000002014E0B2807180FAE722A804E022A82D
:1044000040781EA948701EA84078179E05E022A893
:10441000407820A9487020A8407870700120307042
:1044200029B0F0BDFFFF00000178C32901D10120B0
:10443000704744300421425E00880121012800D8E1
:104440000846002A00DA08467047F0B503AF87B087
:10445000029313460390F81D0130028888180490D7
:1044600021200692801A01900026059358689968C9
:10447000884214D006988519284621380ED018464F
:1044800000F0F1F90C4601210840FBF72DFE212D2B
:1044900016D204988455761C059BE7E7019E002000
:1044A000039B187006997118C0432129024600D059
:1044B0000A469A80212900D00298588007B0F0BDA2
:1044C0002121284600F0F3FFFEDEF0B503AF89B0EE
:1044D00001930390F81D013003880420C01A07904F
:1044E0000293D800182305931B1A06910E68002426
:1044F00004925068916888421AD00798844217D273
:1045000010461D4600F0AFF908940C460121084002
:10451000FBF7EAFD2B46049A284605990840E1B2CC
:10452000089C81400E4306980660083B641CE0E747
:104530000020039B187002996118C04304290246A9
:1045400000D00A469A80042900D00198588009B00A
:10455000F0BD80B500AFFBF7AFFDFBF771FD007854
:10456000411E884180BDD4D480B500AFC0B20328BD
:1045700014D8C04678440079400087440107040AF3
:104580000848784407E000F073F880BD0648784496
:1045900001E00648784400F031F880BD00F029FFC2
:1045A000FEDEC0462B00000093000000ED0000007E
:1045B00080B500AF90B068460122027701462031F5
:1045C00000230B770A4B0E9305210D91094979447D
:1045D0000C9102210A910892069308230593064B39
:1045E0007B4404930291009201F04BFD10B080BD1A
:1045F00080000B005242000038410000D0B502AFED
:10460000044601F0F1F90548784401F00BFC044838
:10461000784401F007FCA047D0BDC046F44100003B
:104620000842000080B500AF90B0684601220277D2
:104630000146203100230B770A4B0E9305210D9183
:10464000094979440C9102210A91089206930723A3
:104650000593064B7B4404930291009201F011FDF7
:1046600010B080BD80000B00FE410000E54100005D
:1046700080B500AF02487844FFF7C0FF80BDC04658
:104680003B00000080B500AF88B06846012101778B
:10469000064A069204220592054A7A4404920222AE
:1046A0000292009101F0EDFC08B080BD80000B008B
:1046B00013400000B0B502AF90B06C4625462035DF
:1046C000FFF747FF00212977012222770F4B0E9336
:1046D00002210A91089206930D2305930C4B7B440B
:1046E000049302910092002801D1082200E00722E1
:1046F0000D92002802D10848784401E0054878442A
:104700000C90204601F0BDFC10B0B0BD80000B0045
:10471000474100003441000028400000F0B503AFDD
:104720009DB00391049005AD4021284603F081FE21
:1047300015AC20262046314603F07BFE0094212054
:104740000290052203992B4602F0D2FC049C2046DD
:1047500008302946324603F0D9FB284601F0BEF95D
:104760006660029921701DB0F0BDD4D401460246A6
:104770007F321020222A17D87A44127952009744A7
:10478000111A1C1E20222426282A2C2E33333333C0
:1047900033333333333333333333333333333333E9
:1047A00033303200012070470A46BF321DD0DF315E
:1047B0001AD1002070470220704703207047042060
:1047C0007047052070470620704707207047082073
:1047D0007047092070470A2070470B2070470C2053
:1047E00070470E2070470F2070470D207047D4D4BB
:1047F000B0B502AF0B4600780E4979440524C04697
:104800007844007940008744100206090D000A49E7
:1048100079440C2409E00949794401E008497944C4
:104820000B2402E0074979440424D568184622463F
:10483000A847B0BD01410000F0400000F440000076
:10484000F9400000773E0000F8B504AF009102A8DF
:1048500003AA034979440B4600F0E4FDFEDEC0469E
:1048600004400000704742688368934203D2591C99
:1048700081600068C15C934201D300207047012031
:104880007047D4D4DCB504AF00280DD013460A46D7
:1048900001466C46204600F00FF82088002801D021
:1048A0000320DCBD0420DCBD024878442B2100F04D
:1048B000A5FDFEDEBE3F0000FEB506AF1D46044668
:1048C00041C9083900280BD0084611462A4633460C
:1048D00000F02AF881B2124A91421DD1701918E0F5
:1048E00073191048834209D20093084611462A469C
:1048F0001D46334600F054F865600BE0029308460D
:1049000031462B4600F026F881B2054A914203D188
:1049100002986060002001E0608001202080FEBDE0
:1049200001EF000001020000F8B504AF1C46164676
:104930000A46054680681946334600F057F881B2AA
:10494000034A914202D10121A21906C5F8BDC04611
:1049500001EF0000FEB506AF029301920E46054638
:1049600084680C3000F03AF802460B4600212046DD
:1049700000F03CF881B2094CA1420DD1A868314643
:10498000019A029B00F032F881B2A14204D10120C9
:104990000299891903C52046FEBDC04601EF0000FB
:1049A000F8B504AF00920D4604460C30BE681946B7
:1049B000324600F007F82A46009B00F069FD00200F
:1049C00041C4F8BD80B500AF8A4202D34018511AE5
:1049D00080BD0846114600F02AFDFEDE80B500AF1E
:1049E0000A4601214902FEF739FA80BDF0B503AF4E
:1049F0008DB01C4615460E4602F02CFB03462A4697
:104A000003950494A5190120C102481C854217D2C0
:104A10008E4218D89819114602922246019302F04C
:104A20005BFB019831462A4600F01EF8069105907E
:104A3000029A234600F092FE002808D0094800E0C0
:104A400007480DB0F0BD304600F0F1FCFEDE00205E
:104A5000079005A803A907AA00F012F8FEDEC046D9
:104A600002E0000001EF0000D0B502AF04460120D3
:104A7000C302084611462246FEF7F2FAD0BDD4D44E
:104A8000F8B504AF009202A803AA034979440B4683
:104A900000F0C8FCFEDEC046183E0000F0B503AFD3
:104AA00095B00691006860C848698A69D3683D4935
:104AB0007944012422469847234606990CAA2032BD
:104AC00002920A462032019222460594002E5CD0C2
:104AD0000795C007184654D1CC69600712D4D00797
:104AE0000BD148698969CB682F49794402229847DC
:104AF000059B06990028184643D107A801F0DAF96A
:104B0000059B33E04869049088690390D0070BD077
:104B10000398C36825497944012204989847059B66
:104B20000699002818462CD10BA801220270019A80
:104B30001278029B1A700A900398099004980890C2
:104B400013941B487844129008A8119008680490A8
:104B50000C1D1DCC0DA91DC104980C9007A80CA913
:104B600001F0A8F9002803D0059B1846069908E033
:104B70001298C36811980F49794402229847069900
:104B8000059B6D1C761E0022A0E7C00707D148696F
:104B90008969CB6808497944012298470346184639
:104BA00015B0F0BDCB410000814100006441000020
:104BB000E83F0000FA400000E6400000B0B502AF58
:104BC0009A420AD80C46994207D305461046194620
:104BD0002A462346FEF744FAB0BD034878444721ED
:104BE00000F00CFCFEDEC046D83C0000E0B502AF91
:104BF00001462831019108300090684601F09AF989
:104C00008CBDF0B503AFC1B00446012005026E466D
:104C10003046294603F0D3F93046294602F028FAF7
:104C2000204631462A4603F08BF941B0F0BDD4D47A
:104C3000F0B503AFC1B00D4604466E463046FFF7EF
:104C4000E0FF21223046294600F010F881B2064AE2
:104C5000914204D16946204600F016F802E0012195
:104C60002170608041B0F0BD01EF000080B500AF61
:104C700002F016FA002801D0024880BD004880BD2D
:104C800001EFFFFF01E0FFFFF0B503AF89B00D4674
:104C9000044601AE2021304603F0CBFB28463146C6
:104CA00002F0F8F9002803D006486080012005E0F2
:104CB000601C01A9202203F029F90020207009B00E
:104CC000F0BDC04601E00000B0B502AF14460D468D
:104CD0000246006800280CD0A54217D21048844232
:104CE00014D2906802F0B6F929462246FFF7BCFEBE
:104CF000B0BDA5420ED201204302581C844209D205
:104D00000C3228462146FEF7ABF9B0BD0648784480
:104D10003C2102E0034878443A2100F06FFBFEDEBC
:104D2000010800000C3C00004E3C0000BCB504AF84
:104D30000C460168002905D011461A462346FFF7A4
:104D4000F3FDBCBD1919074DA94207D200911146C8
:104D50001A462346FFF724FE0348BCBD2146FFF751
:104D6000F9FDBCBD0102000001EF0000BCB504AFBD
:104D70001C4615465A180368002B0CD0144B9A4257
:104D800014D280682A462346FFF730FE80B21149CC
:104D900088420FD1BCBD104B9A4213D20C30FFF7A2
:104DA00011FE2A46234600F073FBBCBD0E48784432
:104DB0002C210AE00948784401A9094A7A4400F004
:104DC00022FBFEDE074878442A2100F017FBFEDEB6
:104DD0000108000001EF000001020000DA3F0000BE
:104DE000D83A0000D23B0000143C000080B500AF70
:104DF000812903D240188022511A80BD80220846A2
:104E0000114600F014FBFEDEF0B503AF91B0202494
:104E100008AD03232B550C9400230DAC0BC40A934F
:104E2000009308931469002C01923ED0203504951C
:104E30001F20C00651699368039316684D01814392
:104E400002910596002D55D07268002A06D00E9862
:104E5000C36831680D98984700285CD120462030FF
:104E60000690207F0499087020690C90A0690F902B
:104E7000214608310795039D284600F051F8099115
:104E800008902846214600F04BF80B910A90606983
:104E9000C10068586918079D4A6808A990470836F4
:104EA000203D0028069CCDD035E0072040079468BF
:104EB000D16812680592CA000792814302910025C9
:104EC0000798A84216D0059840194268002A07D0D2
:104ED000059841590E98C3680D98984700281AD133
:104EE0002646083605CC08A99047083500283446E0
:104EF000E6D010E001984068029981420DD20298F4
:104F0000C000059A1158101842680E98C3680D9891
:104F10009847002801D0012000E0009811B0F0BDB2
:104F2000D0B502AF0B68002B0CD002460020012B3D
:104F30000AD14968CB00D1184968064C7C44A1428B
:104F400003D0D0BD081D01E0D0BDD05801680120BC
:104F5000D0BDC0466D060000FEB506AF02930192BB
:104F60000E4604460025AE4209D002980269019817
:104F7000214690476D1C0028F5D0681E00E03046A1
:104F8000B04201D30020FEBD0120FEBDF0B503AF4D
:104F90008DB00C920A460546C6690121304609913A
:104FA0000840112109040028069100D02B210B9103
:104FB000B968441870070893079102D400200A903A
:104FC00006E00C9811180A92104600F085F80419B2
:104FD000286800282AD06968A14227D930073BD425
:104FE000091B01262846324600F014F904460698AB
:104FF00084422ED009916969AD690C9800900C919A
:10500000084629460B9A0A9B00F0E8F8002820D1B0
:10501000EB680C980899079A9847002819D1204600
:1050200009990C9A2B46FFF797FF11E06C69AD695F
:105030000C980090204629460B9A0A9B00F0CEF867
:105040000028099E05D1EB6820460899079A9847E1
:10505000064630460DB0F0BD05912020295C039135
:1050600001262E5428690290302028616A69A969B6
:105070000C980090049210460C910B9A0A9B00F039
:10508000ADF80028E5D109960598011B01222846B4
:1050900000F0C0F806460698864209D00B910C989D
:1050A000C368049C20460899079A9847002801D0B5
:1050B000099ECEE730460B9922460C9BFFF74CFF2A
:1050C0000028099EC5D12846203003990170029816
:1050D00028610026BDE7D4D4F0B503AF8BB0091A20
:1050E000102965D3C21C03239A43121A8E1AB408DE
:1050F00005945DD034469C4381180C1901931E40E1
:10510000049100F0B1F90546A119204600F0ACF970
:105110004019314E059A002A4DD00390C02A1346FB
:1051200000D3C02307A8049900F08CF9089A13460D
:10513000019883430A98059009980490079907A855
:1051400000F080F908988000079B19180A980290CF
:105150000998069000228B420DD00020102808D01C
:105160001D58AC09ED43ED0925433540AA18001D33
:10517000F4E71033EFE7100A16490A400840801898
:1051800013494843000C0399401802990029C1D0E3
:1051900004468A000021002A0FD0069B01CB06930B
:1051A0008309C043C009184330404118121FF2E779
:1051B000411800F059F90BB0F0BD080A054A11403A
:1051C0001040401802494143080C0019F3E7C0465B
:1051D00001000100FF00FF0001010101F8B504AF6B
:1051E0001C460E46054611200004824207D0336952
:1051F000284611469847002801D00120F8BD002C10
:1052000005D0BA68F368284621469847F8BD0020C3
:10521000F8BDD4D4FEB506AF2023C55CAB0002A414
:10522000E358E3189F46C046260000001C0000001B
:1052300010000000180000004D084A1C510806E04C
:10524000120603D000220D46114600E00025019110
:105250006C1C0169029146698569641E09D02A693E
:105260003046029990470028F7D011200004019998
:1052700001E00199029803B0F0BDF0B503AF87B02B
:1052800015460A460646806833681946014344D0ED
:1052900000281CD00193F06800210091069104922F
:1052A000029503925119059111210D04441C641EAD
:1052B00005D004A800F058F8A942F8D104E004A8E9
:1052C00000F052F8A94237D1029D039A019B002BAE
:1052D00023D05119746810460392FFF7FDFE8442F3
:1052E00025D9211A00223046FFF794FF112212041B
:1052F0000124904218D0019102907069B669F36858
:10530000009003992A46984700280DD102980199E8
:10531000009A3346FFF720FE05E07069B169CB685B
:1053200011462A4698470446204607B0F0BD7069EA
:10533000B169CB680399F4E70028029D039A009CA9
:1053400007D0A8420ED211563F22D2439142039A6F
:1053500000DB1446002C00D00546002C019BB6D083
:105360002246B4E7F5D0F5E7FFB507AF036842681A
:105370001121090493422DD05C1C04601D786AB28F
:10538000002A2ED59C1C04605E783F2202921640B3
:105390001F222A40DF2D1ED90092DC1C04609A785F
:1053A0000392029A0196039E16400396019A960173
:1053B000039AB618F02D11D31C1D0460DD78029AF3
:1053C0001540B6017519009A5207D20AAD188D42E0
:1053D00007D10BE00AE091018D1902E00099090361
:1053E00075188268D11A091981602946104604B0DF
:1053F000F0BD80B500AFFDF7FDFCFEDE80B500AF6F
:10540000FFF7F7FFFEDE80B500AFFFF7F2FFFEDE2D
:1054100080B500AFFFF7EDFFFEDE80B500AFFFF710
:10542000F7FFFEDE80B500AFFFF7E3FFFEDE80B5DD
:1054300000AF00F001F8FEDE80B500AFFFF7D9FF46
:10544000FEDED4D4D0B502AF9A4205D3D21A9C0066
:105450000C191AC00260D0BD024878442321FFF71E
:10546000CDFFFEDEEA360000B0B502AF88420CD0B8
:105470000A1A00231946C4564025ED43AC4200DD0C
:10548000491C401C521EF6D100E000210846B0BD68
:10549000D0B502AF0C46994204D11146224602F023
:1054A00035FDD0BD2046194600F001F8FEDE80B57E
:1054B00000AFFFF79EFFFEDEF0B503AF93B00291A1
:1054C000064627200890354C364878440390A6427B
:1054D0002DD93046324902F09DFF0790611C4143AF
:1054E000701A069080B26426314602F093FF05469A
:1054F0004100039A505C059009AB089C1819049070
:10550000001F059B03705118497841706E4306983F
:10551000801B80B24000115C049B9B1E1970101808
:1055200040785870241F08941C4C079ECFE7632EC8
:1055300013D9B0B26424214602F06CFF4443311BFE
:1055400089B24900039D6A5C089CA41E09AB1A55E8
:105550001A1969184978517001E03046089C0A28E8
:1055600004D2611E303009AA505409E04000039D66
:105570002A5CA11E09AB5A545A182818407850705A
:105580002720401A009009A84318074979440022AF
:105590000298FFF7FBFC13B0F0BDC0460F270000D8
:1055A00010270000FB370000043800000068FEE709
:1055B000B0B502AF0B46C4B2002001468A4204D007
:1055C0005D5CA54203D0491CF8E71146B0BD01203F
:1055D000B0BDD4D4F0B503AF88B00190D61F00237E
:1055E000072A00D21E46C81C03240094A043401A78
:1055F00007905948784406900596934200D38CE072
:10560000CD5C6CB2002C17D40798C01A8007514D9E
:1056100002D05B1CF1E70833B34207D2C858CC185C
:10562000646804432C42F6D000E05B1C9342E4D251
:10563000C8560028F9D5E0E70698405D0126049693
:10564000022816D003281ED00428059E6BD1581CB2
:10565000029000200390029890426ED20856F02DDE
:1056600022D0F42D25D104467020C043844229DD88
:1056700059E05C1C94425ED208574025ED43A84295
:10568000059E48DD4FE0581C002603969042059E7B
:1056900053D2085CE02D24D0ED2D45B226D16020F8
:1056A000C04385422FDD3EE07030C0B2302809D3C0
:1056B00039E005460F34E0B2022834D83F20C04319
:1056C000854230DA981C904237D208564024E54390
:1056D000A8422BDCDC1C94422FD20857A8421ADDCA
:1056E00026E0E0242040A0280DD01CE020461F30FA
:1056F000C0B20C2803D3E0B24008772813D13F2072
:10570000C04385420FDA9C1C944216D208574025AC
:10571000ED43A8420ADC631C6FE701984160014633
:105720008260002012E00498009002E002200090C5
:105730000498039001E0002003900098C0B200029A
:105740000399081801994B6088600498086008B0B4
:10575000F0BDC0468080808073350000D0B502AFB8
:10576000994208D10C461146224602F0BCFB014684
:1057700040424841D0BD0020D0BDD4D4F0B503AFE5
:1057800099B00FAD0026AE84179216960A23159392
:105790000124019414941392099211920C91109186
:1057A0000F9301680591416804918068069028462E
:1057B00018300290243503950796334608963446F0
:1057C000002C099A00D09BE09A4265D30C98C5182A
:1057D000D41A072C07D800218C425BD0685C0A28B9
:1057E00041D0491CF8E7E81C03218843A8420E95E4
:1057F0000B930A9401D100250DE0451BA54200D36F
:105800000A9D0A200E992A46FFF7D2FE012802D1EE
:10581000099A0B9B27E00A9808380D900D9885424D
:1058200015D80E9C6159394802468A43364B594077
:10583000374E891911406219526803469343324822
:10584000424092191A400A4301D10835E6E70E9802
:1058500041190A98421B0A20FFF7AAFE0128099A5B
:105860000B9B17D14919C818431C1293ACD0934213
:10587000AAD80C9908180121029A1C460B46FFF77A
:105880006DFF2346099A00289ED0169300241D46DA
:105890001E460CE0129213460798002830D10124CE
:1058A00003984470089D95420794164628D00698A0
:1058B000007800280B9308D00498C36815497944F0
:1058C000042205989847002818D1089BF21A0C98D2
:1058D000C1189E4201D1002005E05018401E0378F7
:1058E0000A3B58425841069B18700498C3680598B3
:1058F0009847002808950B9B00D161E7019800E0CC
:10590000002019B0F0BDC0460A0A0A0A80808080D3
:10591000FFFEFEFEF32D0000F8B504AF60C804687A
:10592000207800280BD00091F368094979440422BB
:10593000284698470099002801D00120F8BD084664
:105940000A38424242412270326928469047F8BDE7
:10595000852D000080B500AF0A4602497944FFF763
:1059600053FA80BD24330000B0B502AF044600F006
:10597000ABFB002801D100F0AFFB062500F0A4FB33
:1059800000281FD00421204600F097FB207805282E
:10599000F3D12179E07842080846104320710029AC
:1059A00004D0002A12D0032A0ED00BE0032A09D813
:1059B0000020C0467A44127952009744010F100526
:1059C000002020712846B0BD0220B0BD002020710B
:1059D0000429284602D2C9000248C840B0BD0120AF
:1059E000B0BDC04606030405F0B503AF89B000F0B2
:1059F0006BFB002808D000200490039002900190D7
:105A000001A8102100F059FB01AC03252570601C92
:105A1000052102F0C3FA0021A17621830120207321
:105A20008020E0800948069005912020039008A876
:105A30001C268670417065210170294601F080FBAB
:105A40002046314601F07CFB09B0F0BDFFFFFF00AE
:105A5000F0B503AF85B00446007DC04678440079B8
:105A600040008744010A1C310321204600F0EEFA71
:105A7000206900282CD018490BE003CC0123022216
:105A800000920193083C00F073FA206900281FD0AF
:105A900010490491039003A800F0C4F918E003CC66
:105AA000012202260096019203252A462B46083C35
:105AB00000F05EFAA068E1680022009601921123CE
:105AC0002A4600F055FA03E00221204600F0BEFA13
:105AD00005B0F0BD3800020010000800E0B502AFCC
