:02000004C0D06A
:1000000080B500AF06F0F0FE012006F034FAFEDE07
:1000100080B500AF814207D3994203D81218091A5C
:10002000104680BD0846194605F0B5F9FEDE80B5DC
:1000300000AFC6B0FF20143001AD00242C5489203D
:100040004100284608F0B8FA07204103284605F089
:10005000FBFF204606F00FFAFEDED4D480B500AFD9
:10006000014807F0A3F880BDC0A0D0C0F0B503AF31
:1000700095B00691006860C848698A69D3683D49AF
:100080007944012422469847234606990CAA203237
:1000900002920A462032019222460594002E5CD03C
:1000A0000795C007184654D1CC69600712D4D00711
:1000B0000BD148698969CB682F4979440222984756
:1000C000059B06990028184643D107A806F078F842
:1000D000059B33E04869049088690390D0070BD0F2
:1000E0000398C36825497944012204989847059BE1
:1000F0000699002818462CD10BA801220270019AFB
:100100001278029B1A700A9003980990049808903C
:1001100013941B487844129008A811900868049022
:100120000C1D1DCC0DA91DC104980C9007A80CA98D
:1001300006F046F8002803D0059B1846069908E00B
:100140001298C36811980F4979440222984706997A
:10015000059B6D1C761E0022A0E7C00707D14869E9
:100160008969CB68084979440122984703461846B3
:1001700015B0F0BD828C0000388C00001B8C000094
:10018000A08A0000B18B00009D8B0000B0B502AFCB
:100190000B4600780E4979440524C046784400791E
:1001A00040008744100206090D000A4979440C24D6
:1001B00009E00949794401E0084979440B2402E047
:1001C000074979440424D56818462246A847B0BD9B
:1001D0006686000055860000598600005E86000095
:1001E00065860000704770477047D0B502AF03784E
:1001F000012211462B2B12D02D2B10D00023194693
:100200005A1E541EA241012B09D0C45C303C092C5B
:1002100004D80A224A4311195B1CF1E70121104658
:10022000D0BD80B500AF0A460121490200F018F8A0
:1002300080BDD0B502AF04460120C3020846114676
:100240002246FFF7E5FED0BD80B500AF8A4202D35B
:100250004018511A80BD0846114605F09CF8FEDE94
:10026000D0B502AF0B460446002011462246FFF7E8
:10027000CFFED0BD80B500AF002800D080BD0348C0
:1002800078442B2105F06EF8FEDEC046DF880000C2
:10029000E0B502AF002801D108468CBD0348784480
:1002A00001A9034A7A4405F062F8FEDE368C0000AC
:1002B00028850000F8B504AF009202A803AA0349FC
:1002C00079440B4605F062F8FEDEC0461C8500004E
:1002D000F8B504AF009102A803AA034979440B467C
:1002E00005F054F8FEDEC04610850000C021014034
:1002F000802905D0402905D0002905D1012070476B
:1003000004207047022070473F210840401D70477D
:10031000F0B503AF87B00C46019048698969029136
:10032000CB68344979440D2206461D469847012181
:1003300000284BD10091207F400720D42E497944DA
:1003400003223046A84700283FD12C497944042293
:100350003046A847002838D129497944022230463E
:10036000A847002831D101983146029AFFF70EFFC5
:10037000002800992AD129497944022235E02149EF
:10038000794403223046A84700281ED106A801213F
:100390000170059002980490039603A81A497944C5
:1003A000042205F09FF900280FD103A817497944CA
:1003B000022205F097F9002807D103A9144A7A44CC
:1003C0000198FFF7E3FE002803D00099084607B024
:1003D000F0BD03A80F497944022205F083F90028F3
:1003E0000099F3D10C49794401223046A8470146CF
:1003F000ECE7C04623850000B1890000E3840000DB
:100400009A890000768900009184000046890000E6
:10041000F687000023890000158900008489000008
:10042000F0B503AF87B005910646107B5168BD68F3
:10043000814203D1B5807380002070E002932804CC
:100440000690039202D00598047909E0104603F063
:1004500006FD0C4601210840FFF70CFF05980471CA
:100460002046FFF743FF0490052803D90020707051
:10047000012054E0C020204003D0402801D0802833
:1004800009D106980028039814D13F22A10607D568
:10049000D1430C4305E0ADB2012D039809D909E021
:1004A00014400499CA001832182111408C40059953
:1004B0000C6001250196ABB2D943049A8918CE008D
:1004C00005990D68027B4168914219D004998B42CD
:1004D00016D234461E4603F0C2FC069101210840A4
:1004E000FFF7C8FE33462646039818222240069995
:1004F000C9B291400D4305990D60083E5B1CE1E7D0
:100500000020C143049A93420A4600D01A46019E35
:10051000B280049A9342029A00D0114671803070E2
:1005200007B0F0BDF0B503AF87B00691117B5468FA
:10053000BD688C423BD0290404920390029303D0FF
:1005400006980478ADB209E0104603F088FC0C462A
:1005500001252840FFF78EFE069804702046FFF71D
:10056000C5FE0590401B009000260195049B187B5A
:100570005968814212D00598A8420ED0184603F05F
:100580006EFC0C4601210840FFF774FE212D14D2A9
:10059000069844556D1C761CE8E7009E01983518B6
:1005A000059885420398029B01D1064B1D46858024
:1005B00043800021017007B0F0BD2121284604F0DE
:1005C0002AFFFEDEFFFF0000F0B503AF87B0029305
:1005D00013460390F81D01300288881804902020EB
:1005E0000692801A019000260593187B5968814273
:1005F00014D006988519284620380ED0184603F0E6
:100600002EFC0C4601210840FFF734FE202D16D2A7
:1006100004988455761C059BE7E7019E0020039B08
:10062000187006997118C0432029024600D00A4666
:100630009A80202900D00298588007B0F0BD202170
:10064000284604F0E8FEFEDEF0B503AF87B0029363
:1006500013460390F81D0130028888180490212069
:100660000692801A019000260593187B59688142F2
:1006700014D006988519284621380ED0184603F064
:10068000EEFB0C4601210840FFF7F4FD212D16D2A8
:1006900004988455761C059BE7E7019E0020039B88
:1006A000187006997118C0432129024600D00A46E5
:1006B0009A80212900D00298588007B0F0BD2121EE
:1006C000284604F0A8FEFEDEF0B503AF8DB01C4650
:1006D00015460E4606F06AFD03462A460395049425
:1006E000A5190120C102481C854217D28E4218D894
:1006F0009819114602922246019306F099FD01983D
:1007000031462A46FFF795FD06910590029A234649
:1007100004F0D8FF002808D0094800E007480DB0D1
:10072000F0BD304604F037FEFEDE0020079005A83D
:1007300003A907AAFFF7BEFDFEDEC04602E00000E7
:1007400001EF0000F0B503AFB1B0019014AE304638
:1007500003F0C8F9307800901EAD284608304124D7
:10076000214607F029FF009828701F94012329468D
:10077000324606F035FD002803D003F0DBF90546CC
:100780000AE0291D1EA846884578047802A8482258
:1007900007F078FC202C09D16E202843C0B2019EBE
:1007A000708014A803F07AFA20240CE00096019ED1
:1007B000301D02A9482207F065FC14A803F06EFA68
:1007C000009870807570347031B0F0BDF0B503AF33
:1007D00093B00E4604466D46681C491C202207F063
:1007E00041FC4020305C01210140881C287009AE8A
:1007F00021223046294603F0B7FA3078002807D185
:1008000009A8411C2022204607F02CFC13B0F0BDA3
:100810000348784412A9034A7A4404F0A8FDFEDE96
:10082000C2860000A47F0000B0B502AF0446C0201D
:10083000002525502580F52080002018152107F07F
:10084000BBFE2046C8300121090206F0BDFC39205C
:10085000C000255020184560B0BDD4D4F0B503AF1A
:10086000FFB0A2B0FF2A02D9704C01F06FFD0C4618
:1008700006466F4818181390832080004693181876
:100880002A903920C00033187D20C0003018129003
:10089000304609302890304632303E903046503055
:1008A0005390354670353046B23043903046B830BC
:1008B00050903046B030269059A9304600264096D8
:1008C0000E73064641935B933C925A923B94599423
:1008D000F520800030180B907CA8C01C1F907CA8CD
:1008E000401C1D9090A821301C907CA8233034908F
:1008F00090A8401C189090A81730179064A8801CEE
:10090000169090A81E3015903046843035903046B1
:1009100069301B90304613301A907CA8401C3790E9
:1009200090A8401C20906CA8411C1191C01C1090F4
:1009300090A8001D0F906CA8411C0E91C01C0D903A
:1009400090A8001D0C9030464430339030468830DB
:10095000299030460E301E9030460C30459030467F
:100960000A303F90304634303190B01D30903046E0
:1009700014302F9030460D30279030462C3019908F
:1009800030467230249030466430239030463A30FE
:100990002290304611302190701D3A9028463C300C
:1009A0002E90301D4D9030465C30259030461230F0
:1009B0002D90304638303690304618302C903046E6
:1009C00010304790539C18342B9430468A30329024
:1009D0004A9540354895304608305190701C3D90FE
:1009E000072014904003389001204490409839909B
:1009F0004C9659A8007B5A99814201D101F0B5FC6F
:100A000050980489304605F01CFF80B2844201D31F
:100A100001F080FC307840007844808840008744B2
:100A2000090009001A00A400F200AE04036E0000E1
:100A30000E0200005098408900905DAD59AA2846EA
:100A40003D99234603F0B8F82878002801D100F03A
:100A500062FE01F06EFC59A8057B5A9EAE4201D1A0
:100A600000F016FE5398008858904D9C204603F0E5
:100A7000EDFE589B80B2834201D301F04DFC2078FB
:100A8000C32830D1AE4201D801F04DFC681C59A9F1
:100A900008735998445D4498FFF7ECFB002C34D060
:100AA000012CF24C01D001F041FC0721349807F0F1
:100AB00021FB7CA92A223A9807F0D4FA00204C9A0C
:100AC00090861486C22111713E99087110870872B0
:100AD0009087C8810873339A1060908090714C831E
:100AE000539803884D9C53984088009090AD59AA24
:100AF0002846214603F038FA2878002801D001F072
:100B00000DFC90A88288448803E090A8D74C4480CC
:100B1000224625461540D54885424D9900D10022F0
:100B20008542589202D153980088441CA6B20846C8
:100B300003F08CFE81B28E42CC4800D05898539A74
:100B400050808E42C94900D02146539A1180C74A2D
:100B5000954201D000F09CFD0140C448814200D084
:100B600079E7C249084600F0D3FDC04D59A8007B83
:100B70005A99814201D100F08BFD318E022001296A
:100B800001D901F0D4FB0CD0002901D001F0CFFB3A
:100B9000708E00907CA859AA00234D99FFF740FC65
:100BA00007E0708E00907CA859AA01234599FFF7B1
:100BB000B9FC7CA80078002801D001F0A9FB7CA832
:100BC00041887D9A0846104080B2A84200D1002298
:100BD000A84201D1318E491C8CB2022C2B4600D088
:100BE00013467386022C2A4600D00A463286A84253
:100BF00001D000F04DFD1A4090B2A842B6D128466F
:100C0000294600F085FD00264898855F002D01D516
:100C100000F042FD4A99488F0A8F94498A420FD1C9
:100C200088420DD12421359807F0C6FC0A204D9941
:100C3000087000204A998863691C489A118002460E
:100C40008A4D59A90C7B5A9EA64201D100F08AFF19
:100C500091B2022901D901F06CFB33D0012955D0A2
:100C6000002901D001F065FB81B2359840185590FC
:100C700004205791401A569059A8007B54900025A3
:100C800059985290E0B2864252D056998D424FD236
:100C9000864205D95299095C5891641C5494FFE727
:100CA000864201D8002000E00120FFF7E3FA5798C0
:100CB0004019032801D901F074FB55985899415502
:100CC0006D1CDFE74D9800780A280A9D00D0A9E046
:100CD000A64201D801F061FB601C59A9087359981C
:100CE000045D4498FFF7C6FA032C4C9E01D901F02D
:100CF00020FB09227C4424796400A744012A385B44
:100D00006CA8152107F058FC062253E000905FA85C
:100D100059AA01232999FFF757FC544D5FA8007881
:100D2000002801D001F005FB5FA8828841889FE080
:100D300059A8549901735798281804284B4D2946EF
:100D400001D04A99098F04282A4600D190E0024632
:100D50008EE01E21189807F0CDF96CA890A91F22EB
:100D600007F080F9FF2040900025149A22E000242B
:100D7000159884718480448004807CA890A92522E1
:100D800007F070F91698847184804480048064A808
:100D900061A90CC80CC1007808700721179807F0EA
:100DA000A9F96CA890A91E2207F05CF90522C220BF
:100DB00040902E4D58920A9500242898C471847151
:100DC00044710471C4708470447004703472F4808F
:100DD00074716CA91F22219807F044F935863E985A
:100DE00004703487F486214D2846FF384099084323
:100DF000B0867CA92622229807F034F95398058200
:100E0000239804604460048184724A9E348061A9FE
:100E10000922249807F026F958983461B5810A9D73
:100E20004C9908710A95801FC1B2052900D3022090
:100E3000C0B20E4D800003A1085808182A46294662
:100E40008746C0461400000074000000180200002D
:100E50002C000000EE1400004A98038F408F009091
:100E60005FA859AA3A99FFF7EFFB57E7FFFF000089
:100E70000846104083B2AB4200D10022AB4202D1FF
:100E80004A98008F411C8CB2032C284600D0104693
:100E90004A9A5087032C2A4600D00A464A990A8764
:100EA000AB4201D000F05EFE1146014089B2A9427A
:100EB00000D0C6E601F047F859A8007B5A99814254
:100EC00000D14FE2309800880121012800D808465F
:100ED0000026319A945F002C00DA08463E998B88F0
:100EE0000225834201D301F03AFA002C63D44598DD
:100EF00000883F990988C04A91420FD190420DD194
:100F000021212D9807F0F6F800203F9988718880FC
:100F100048800880611C319A118001461E9E59AAA2
:100F2000127B5A9B934266D089B2012901D901F004
:100F300016FA0BD0002901D001F011FA00907CA81C
:100F400059AA00232D99FFF77FFB06E000907CA8AB
:100F500059AA0123314602F090FF7CA800780028AE
:100F600001D001F0FAF97CA844887D9B2046184006
:100F700082B2A148824202D13F980088441CA0B2AC
:100F800002289D4900D021463F9C21809A4CA242D4
:100F900000D100230228984800D01846459B1880AD
:100FA000954B9A4227D10A46024092B29A42B6D154
:100FB0009148014623E03698008800907CAC59AAFD
:100FC0002046309902F059FF2078002801D001F026
:100FD000C4F97CA9888849880A460240864B9A420F
:100FE0000DD1319806803098008800283446824818
:100FF000014604D07BE7369800883E998988309A6C
:1010000012880124012A00D822460023319DED5E7A
:10101000002D00DA22460C460440774DAC4202D146
:101020003E998988491C8EB2964200D00D463E9961
:101030008D8071498C4200D0034696426E4800D0A4
:101040001846369908806C498C4200D08AE10540E8
:101050006948854200D02FE7054680E14C9E59A89B
:10106000057B5A98A84200D181E14A98008901285D
:1010700000D801200C224A995592895E022200294B
:10108000549200DB420092B24A9B1C8A944201D3E4
:1010900001F061F9002900DA0120844224D24A9843
:1010A000408A00907CA859AA3199234602F05CFF3F
:1010B0005A9959985C9B2A4602F0BEFE02460B469E
:1010C0005B9811461A4602F09DFEC1B2042901D078
:1010D00001F075F97CA908780028474D01D001F08E
:1010E0006DF988884C880DE13020315E002900D5EB
:1010F000DEE0308D404DA84208D1728DAA4205D164
:10110000052030710020B062491C3186579459A9DE
:10111000097B5A9E8E4200D1EEE0000401D001F01E
:101120001AF94D980578052D2ED18E4201D801F07F
:101130002FF94A1C59A8569202735998455C449855
:10114000FFF798F8042D01D901F025F9A80003A1B3
:10115000085808182A4608998746C0463E000000ED
:101160001400000014000000320000003A000000EB
:101170006CA80024847004807CA8122107F01CFA5B
:1011800021460794224608E00B46399A1DE00020CC
:10119000C043079000E00421399A589200204C9CEB
:1011A0002073A060E0710891A17162716CA90322A3
:1011B000279806F057FF079820617CA914222F98E2
:1011C00006F050FF589A2571569B58926D00C04604
:1011D0007D44AD886D00AF44110005000500190085
:1011E0002300BE084C9E338D708D009090A859AAA4
:1011F0003A99FFF797F91CE0FFFF0000D9B28E4241
:101200003ED14C9E708D318DF44D1CE04C9E338D43
:10121000708D009090A859AA519902F0E9FC08E05D
:101220004C9E338D708D009090A859AA309903F090
:101230001FFB90A800780028E84D01D001F09AF833
:1012400090A9888849880A460240AA4200D1002015
:10125000AA4201D1318D491C8CB2012C2B4600D001
:1012600003467385012C284600D008463085AA42E3
:10127000579C3FD10340AB42589939913FD046E744
:1012800000208E42054604D95A1C59AB1A73599A4C
:10129000555C8E4200D901204C9EFEF7EBFF681E84
:1012A000414241413A980170CC4D28462946CAE74F
:1012B0004A98408A00907CAD59AA2846199923463D
:1012C00002F0DBFD2878002801D001F07AF87CA933
:1012D000888849880A460240C04DAA4201D00C467F
:1012E00010E000213186B08D002800D001E72C46A7
:1012F000284607E0589839904A98408A02E02C46E0
:10130000284639914A990989012900D801214A9A28
:10131000559BD25E002A01DA022200E04A002146F3
:101320000140A94200D10020A94202D14A9B1B8A58
:101330005C1C93B22646A4B29C422A4600D00246C8
:101340004A9842829C42284600D030464A9B1882E6
:10135000A9420DD11040A8424C9E00D07FE62846FD
:10136000294608E04A98418F008F9C4D03E09B4D31
:101370004A98418F008F5FAA91805080D4E4042660
:101380005098815F0029954D00D5AAE143980488C3
:1013900048980388AB4223D1AC4221D158912121F6
:1013A000329806F0A7FE002430464C9EB460F460EC
:1013B000B4743482539D287645212F9807F0FCF8A9
:1013C000F465864868812C74844DE04370664398C8
:1013D0000480489804805898401C5099888023467F
:1013E00059A8027B5A98904200D1A9E3529047989D
:1013F0000088012800D801200A2653998D5F002D0E
:10140000589201DA052100E0011D8AB299B2914299
:1014100001D300F08EFF022942960BD001294FD054
:10142000002955D1009490A859AA00233299FFF7BA
:1014300079F86CE0A1B20820401A4F900991C800D9
:1014400038214E91081A5790519804684068569078
:1014500059A8007B4B90002659984990589AD0B2D1
:10146000529981425D4D38D04F9B9E4235D2814288
:10147000559405D9499B1B5C5493521C4B92FFE732
:10148000002481425892354601D8204600E00120D0
:10149000FEF7F0FE579E32464E9802405498C0B276
:1014A000214606F0B9FD569A0A43559C04435198CB
:1014B000046056924260083E57962E466E1CCDE759
:1014C000009490A859AA01232B9903F0D1F91EE0AA
:1014D000002D4C9E11DA032010E059A84B9901739E
:1014E00009983218082A294601D048980188082A04
:1014F0002846429B16D0104614E0801C80B28142E0
:1015000042D9009490A859AA259902F071FB90A89D
:1015100000780028314D01D000F00BFF90A9888899
:101520004988429B539AD35E479A1288012A00D871
:101530000122002B01DA052300E0131D0A460240B8
:1015400092B2AA4202D148990988491C9CB28DB234
:10155000A542224B00D00B4648990B801F498A4276
:1015600000D10020A5421D4D2C4600D004464398D2
:101570000480AA4200D0E3E21846204080B2A8428C
:1015800000D02DE700F0E1FC002D58D4F08AB18A9C
:10159000124A91420AD1904208D145212F9807F072
:1015A0000BF8681C53994881002001460B4D59AA3D
:1015B000127B5A9B93425AD089B2012901D900F07B
:1015C000B8FE0DD0002901D000F0B3FE00907CA839
:1015D00059AA00232C99FEF7F7FF08E0FFFF00004F
:1015E00000907CA859AA01233699FEF79BFF7CA89E
:1015F0000078002801D000F09CFE7CA843887D99EB
:101600001846084082B2AA4200D10021AA4201D164
:10161000B08A431C9CB2022C284600D00846F082B7
:10162000022C294600D01946B182AA421FD10A468F
:10163000024092B2AA42BAD12846294671E70094E4
:101640007CAC59AA2046479902F017FC2078002864
:1016500001D000F06EFE7CA88188408802460A40D6
:10166000C24DAA4208D090AA9180508056E7439874
:1016700000884899098854E7002553984581479880
:101680000088002882D190A8B84D8580458045E724
:101690005098418900893BE05098408900907CAD8A
:1016A00059AA28462E99234602F0E7FB28780028FD
:1016B00001D000F02DFE7CA88188408802460A40B7
:1016C000AA4B9A4224D1489806802E980088002878
:1016D000354601D0FFF79EFA5DA8A449818041807C
:1016E00019E05099488900907CAD59AA28462346B4
:1016F00002F0C3FB2878002801D000F009FE7CA886
:101700008188408802460A40984DAA4200D12DE2C5
:101710005DAA918050805DA881884488934D2646BB
:101720000E40AE4200D10021AE42589102D15098F5
:101730000089441CA5B24C9805F083F880B285421C
:101740008A4900D05899509A51818542874D284640
:1017500000D0204650990881AE4201D000F0E1FD52
:101760004C9E3078411E042901D900F095FC4900B7
:101770007944898849008F4404008F040F002B00AE
:101780003A003D980078012800D1C2E1002800D03D
:10179000C3E177487844BEE1469840684B904D9845
:1017A00000685890459C2578284605F043F95790E5
:1017B000284605F050F9002829D02046579905F011
:1017C00055F905F05BF9002154910C46559140E024
:1017D0004A9A508F411B481E8141108FA84244985D
:1017E00000D10846002800D08CE04D998BE043984A
:1017F0000088411B481E814148980088A8424498AF
:1018000000D10846002800D0D8E05199D7E0579978
:10181000112901D300F0CCFD00209390929091907B
:101820009090459805F056F904460D4610214A1B44
:1018300090A805F057F922462B4603F0DDFD93985A
:101840009299919A909B1BBA559312BA54920CBAE2
:1018500000BA002557902946589E32462B4606F07E
:10186000D6FB52904F9120465694294632462B463D
:1018700006F0CDFB0E464F9944186E415798294605
:101880002A462B4606F0C3FB00194F906941701899
:101890004E902C466C41569829462A462B4606F017
:1018A000B6FB0E464E9940184E9066415898294610
:1018B000549A559B06F0ABFB04465891579856999D
:1018C0002A462B4606F0A3FB0019529C589A514118
:1018D0004E9A101871414F9E32460A4323460343E5
:1018E00013439B0F02439200D21800D0E0E0402C3B
:1018F00000D32BE190A90C706CA8012205F052F8DE
:101900004C9E00E20021002800D0C3E30E460021D7
:1019100048985891445E2E980588419800F0B6FD8D
:101920005590549156955794AC4201D300F057FD11
:101930007CA82E2106F040FE3078801FC1B2052918
:1019400000D30220C0B20328589C01D900F050FDFA
:10195000800002A10858091844988F46180000001A
:10196000A20A0000280200003E060000FFFF00005F
:10197000A8720000711C90AC2122204602F0F4F9FC
:101980002078002800D007E190A841785891468837
:1019900064AC1D2520460F992A4606F063FB10987B
:1019A00021462A4606F05EFB300A119948700E70F7
:1019B0006CAA5898107090A80021E3E2002100283A
:1019C00000D067E34B91042150980591455E419802
:1019D00000F05CFD49905791469C60684290082059
:1019E000039000907CAEE64B7B44304621462A466D
:1019F00001F0A0FF3088002801D000F0C6FC7D98DF
:101A0000099066684B9D2A4682327CA858902146F0
:101A100001F09AFC58980088002801D000F0B5FC2D
:101A200006967D9960202D5C60684E90002D4C9E3E
:101A3000049106D0012D00D1B1E0022D01D000F0BB
:101A4000D7FC7CAC2E21204606F0B6FD032D01D339
:101A50000020C5434B9A613290A82946234601F0E5
:101A600065FD909A002A01D100F087FC919B6CAC37
:101A70002046469900F06CFD2088002801D000F037
:101A80009AFC6D985690BF4D4B9908895890002844
:101A900000D171E1C889421B501E82418889A84249
:101AA000449800D11046002800D077E1103176E14B
:101AB00022BA679232BA669200BA659008BA649008
:101AC00028464C9E102805D064A9095C401C0029BA
:101AD000F8D0451E2021209806F00CFB0C20401B5E
:101AE000C021014390AA11701120411B012004F074
:101AF0007BFF112D01D300F076FC64AA521910234C
:101B00005B1B03F079FC6CA890A9212206F0AAFACD
:101B1000F9E09D487844072102E09C48784406217A
:101B20007F917E9007207D90994878447C907CA896
:101B30000121984A7A44082301F0FEFA0446A4E2FF
:101B400050990C895DA844804989E8E5A00B4C9E1A
:101B500000D0CBE090A94C70200A403008706CA8EF
:101B60000222CEE0509841890489D8E5002150989E
:101B700081800088002801D0FFF708FC5DA88580DF
:101B80004580C8E590AD28465599549A02F0ECF886
:101B90002878002800D1DCE190A8448874E26CA881
:101BA000402106F009FD4998579942180024214622
:101BB000029290424E9D4F94549100D102E34919F4
:101BC000529101785791401C49902E46469D7CA821
:101BD000402106F0F1FC529886422ED23246403225
:101BE000284656963146559200F01EFC06465891FE
:101BF00000245798402C11D05899A14200D1B6E347
:101C0000315D09020D183A21284606F0C6FCC621AE
:101C100041434A197CA90A55641CEBE757907CAAFA
:101C20004023469D2846569900F0CAFC044680B2DF
:101C300059498842559ECAD07CE34F985499421A1C
:101C40006CA8402101F0B7FE04460E465798002EBE
:101C50000DD0217809020D183A21284606F09DFC86
:101C6000C621414349192170761E641CEFE74F9C41
:101C70002346403B0021C9435691002854992FD058
:101C8000569A4A4358939E1801D0661A17E0579007
:101C90004F944E980D4609186CAA4023469800F0C0
:101CA0008FFC044680B23C49884200D042E36CA8D5
:101CB000402106F081FC40354F9C29465798402E24
:101CC00000D383E354913A21054606F066FCC62111
:101CD000414349196CAA9155589B5B1C641CCCE785
:101CE00040331C464C9E4998029A62E790A9CC70FA
:101CF000200A8870200C4870200E403008706CA8B4
:101D0000042204F04FFE6CA92122379806F0AAF9AC
:101D10007CA80121017090AC2046469D2946379A47
:101D200001F012FB2088002800D029E3919B90A8A5
:101D300029464B9A01F0E4FB9098002800D11CE35F
:101D400091999391929004209190E74878449090D3
:101D500090A80121E54A7A44052301F0EDF90446F3
:101D600080B20D49884200D0E5E200204699086023
:101D700048602A9908808DE1002054904BE0C046CD
:101D8000D56F0000FFFF00002F6F00002E6F0000D6
:101D9000266F0000796E000001EF0000002100288E
:101DA00000D028E34698406854907CAC20460D460D
:101DB00001F00BFE90A85790214601F033FE6CA86D
:101DC0005590402346990C46579A00F0C1FB559810
:101DD0000088002800D0EEE26D98529060684F9025
:101DE0007CAC4E215791204606F0E6FB2035284674
:101DF0002146579A04F09CFE01F02AFE02460B464B
:101E000090AC2046469900F0A3FB2088002800D023
:101E1000B6E291984B907CA8469C2146429A099B39
:101E200001F06EFB7C9E002E069A4E9D00D1A9E229
:101E30007D9857907CA82146049B01F061FB2146C8
:101E40007C9C002C00D19DE27D9855907CA82A4670
:101E5000569B01F055FB7C9D002D00D192E27D9AAE
:101E600058980028A24B7B44A24979444DD0429314
:101E700049924E91569458967CA8469E3146549A63
:101E8000529B01F03DFB7C9C002C00D17AE27D98B6
:101E900054907CA831464F9A4B9B01F031FB7C98C3
:101EA000002800D16EE27D998B918A900C20899058
:101EB00091487844889054988790869403988590A8
:101EC0008E48784484905598839056988290429892
:101ED000809049987F907E9507207D904E987C90C9
:101EE000059981917CA8589A579B01F025F90446E1
:101EF00080B28349884200D01CE2002046990860E5
:101F000048602A9908804C9EC4E05598839082943A
:101F10000598819080937F927E9507207D907C919B
:101F20007CA802213246579B01F006F9044680B294
:101F30007349884200D0A7E00020469908604860B5
:101F40002A990880A0E05DA8458029462C46FFF725
:101F5000E6FB90A841785891468864AC1D25204640
:101F60000C992A4606F07EF80D9821462A4606F07E
:101F700079F8300A0E9948700E706CAA5898107053
:101F800090A802217CAB01F0D1FA909900295BD096
:101F9000919C4698224601F093FB5894569D6E1EE4
:101FA00057998E4202D00028554C6DD10122579985
:101FB0008E4211D150400FD12A980088002800D1BC
:101FC00020E2139840880028469C40D020462946AD
:101FD00001F08EFB044657E05592469801F088FBCD
:101FE000044680B2464988424ED1579DA8B25490CB
:101FF0007CA82E21589A01F047FC02460C4690A876
:102000004699234600F0A4FA139854994180569AB1
:1020100004802A9855990180012A2ED114467CAA61
:10202000469858990B9B01F039FCC1072BD1559963
:1020300009024A1C10408842579D22461DD10020AB
:1020400046990860486014E090A884881CE0164611
:10205000139801887CAA20460B9B01F01FFCC10746
:1020600011D131024A1C10408842AFD100202060BB
:1020700060602A990880E64C06E0AE42E44C03D149
:1020800046981146A4E7040C4C9EA0B2E049884251
:1020900000D050E13078DF4D002441990C604C6055
:1020A000052818D104205099085E002800D585E045
:1020B00050990988002900D154E180B2491E81421B
:1020C00000D07BE048980088A84277D143980088E8
:1020D000A84273D146E1C046784400794000874465
:1020E00011141A293400C046DF6A0000016D000097
:1020F000D9690000356C00004F6C0000F36A0000E5
:1021000001EF00000120308058E0C3203071022030
:102110003070539851E021211F9805F0EBFF7CA906
:102120002422289805F09EFF3463347274600320E3
:10213000307043E00A203071042030702B21359834
:1021400006F03AFA2698058038E04898005F0028A3
:1021500034D42E99098800290BD080B2491E8142BF
:102160002CD14A98008FA84228D14A98408FA84283
:1021700024D121211C9805F0BDFF45211D9805F0B3
:10218000B9FF7CA946221A9805F06CFF90A942225B
:102190001B9805F067FFB460F460B47434820520C6
:1021A000307053994D81F4650C74E04370660420DF
:1021B0000876269885818472048104605098846032
:1021C000FEF717FC611A6CA801F0EEFB02460B4605
:1021D00054984119469800F0F3F9044680B28C49AE
:1021E000884200D0A6E090A84024214606F0E4F9F9
:1021F0007CA80194214606F0DFF94F9948194A1E40
:10220000569004462B46834D08469C424B9900D875
:102210003BE454924F905594E41A412C7F48784403
:10222000589052934AD31A464032469D2846194642
:10223000499200F0F9F804465791559A11464039F1
:102240002846029100F0F0F8019B002B1FD0579A0E
:10225000D218402A00D1BEE022783A2A00D3B2E058
:10226000CE18589DAA5C90ADED186D1E2A70402EB8
:1022700000D1AEE002783A2A4C9E00D3A3E0589DEC
:10228000AA5C5B1E7CAD5A55641C401CDDE77CAA31
:102290004024469D28465299234600F0B1F990AA61
:1022A0002846029D2946234600F0AAF9549A803A0E
:1022B0004F9880382C46499B564DA6E746981946BC
:1022C000559A00F0B1F857900B46549A1046521C9C
:1022D00012D2002B7DD0579A12783A2A73D2402816
:1022E0007BD2589DAA5C90AD2A545B1E579A521C13
:1022F0005792421E474DE9E790A8214601F054FB52
:1023000002460B464698529900F07AF9FFF7BCFB5B
:102310007CA804E0389C0EE0022008E090A84078F9
:1023200005E03B4C06E00020FDF7A4FF01205DA97D
:102330004870389C4C9EC83630463B993C9A01F018
:1023400033FD81B2324A914200D004462046FC1F40
:10235000053CA546F0BD549831E07CA845785FA8BF
:102360004570E6E7022012990870294CE3E7589877
:1023700001461AE090A8407821E090A88488DAE726
:1023800090A819E07CA88488D4E77CA84488D1E789
:102390000020FDF76FFF012011E00020FDF76AFF2C
:1023A000C7E759A9549A0A73042103F034F8FEDEF2
:1023B0003898841CBFE76CA84488BCE748785FA9BC
:1023C000B6E77CA8D7E73A211046EEE74021304631
:1023D000EBE70846E9E75798CAE74021E5E71048E8
:1023E00078442C2111E01021284602F0D4FFFEDEB3
:1023F00001F096F8FEDE0B4878442B2105E02E20F4
:102400001121D2E7044878442F2102F0ABFFFEDE11
:1024100001EF0000FFFF0000CC660000036D00002C
:10242000C666000067670000B0B502AF14460D46EF
:102430000246006800280CD0A54217D210488442FA
:1024400014D2906804F0B2FE29462246FDF7F1FE50
:10245000B0BDA5420ED201204302581C844209D2CD
:102460000C3228462146FDF7D3FDB0BD064878441E
:102470003C2102E0034878443A2102F073FFFEDE7B
:10248000010800001A6400005C640000D0B502AFCF
:1024900012C80838002908D0806804F087FE01219E
:1024A000C9022246FDF7DCFED0BD0C302146FDF707
:1024B000B8FED0BDF8B504AF00920D4604460C300E
:1024C000BE6819463246FDF7BFFE2A46009B02F061
:1024D00093FF002041C4F8BDF8B504AF1C46164672
:1024E0000A460546806819463346FEF7EDF881B284
:1024F000034A914202D10121A21906C5F8BDC04686
:1025000001EF0000FEB506AF029301920E460546AC
:1025100084680C30FDF785FE02460B4600212046FC
:10252000FEF7D2F881B2094CA1420DD1A86831461C
:10253000019A029BFEF7C8F881B2A14204D10120A2
:102540000299891903C52046FEBDC04601EF00006F
:10255000FEB506AF1D46044641C9083900280BD018
:10256000084611462A463346FFF7B6FF81B2124AA3
:1025700091421DD1701918E073191048834209D295
:102580000093084611462A461D463346FFF792FF40
:1025900065600BE00293084631462B46FFF7B2FF19
:1025A00081B2054A914203D102986060002001E0A7
:1025B000608001202080FEBD01EF000001020000CC
:1025C000BCB504AF0C460168002905D011461A4677
:1025D0002346FFF781FFBCBD1919074DA94207D259
:1025E000009111461A462346FFF764FF0348BCBD1D
:1025F0002146FFF787FFBCBD0102000001EF00008C
:10260000BCB504AF1C4615465A180368002B0CD005
:10261000144B9A4214D280682A462346FEF754F897
:1026200080B2114988420FD1BCBD104B9A4213D2DF
:102630000C30FDF709FE2A46234602F0DDFEBCBD44
:102640000E4878442C210AE00948784401A9094A37
:102650007A4402F08CFEFEDE074878442A2102F01C
:1026600081FEFEDE0108000001EF00000102000013
:102670008A6800006C610000AC620000EE6200003D
:10268000F0B503AFD64EB544D64868440690D64858
:1026900068441690D54868441C90D54868441D90FD
:1026A000FF2112311FA81A90411800241E918C702E
:1026B0008921490005F080FFF520800064AD2818CD
:1026C00014210E9005F078FF2C8094942846C83091
:1026D0000B9001F032FB75208000281801211B911E
:1026E0004902189105F068FF7D20C00019902C5414
:1026F0003920C0002818BF4944608160D694BC4E80
:102700006E4430460C30189905F056FF8320800047
:102710003452B948684404601D990C60B748886019
:102720001894204602F03CFA412080001A990E18B5
:10273000199828180F90AC486844801C0590AA4846
:102740006844011D0C9108300D90A7486844001D95
:102750000A90AB486844011D139108301290A248BA
:102760006844001D1190A7486844411C0991C01C91
:1027700008909D486844001D0790372040021D9036
:10278000812045001A951898179097486844802131
:1027900005F012FF00219C48817101701991418060
:1027A00003F04EFE002801D103F052FE8E4C6C4423
:1027B0008021204603F03DFE207802460E3A082A8A
:1027C0001ED86078A1780902091802205200C0467C
:1027D0007A449288520097442C0108002500340066
:1027E00034003400340034002F001B98000289B2FA
:1027F000814226D17C486844C07803F0CBFB20E0BE
:1028000005281ED1307B78496944C97849080246B9
:102810000A433273002872D0002900D17DE00329D9
:102820000FD1BDE008BA000C02280AD91FA86E49D2
:10283000694403F07BFB04E01FA86B49694403F083
:102840004FFB714800780028AAD06F4840880028C4
:10285000A6D000251E998D703060042802D21D98E4
:10286000C11C1DE0664868441FA903F0C5FB1C9904
:10287000C86C002813D01FA90878B02814D18A7812
:10288000002A11D1C97800290ED11FA8407801284B
:102890004CD0A72800D1B0E31D98411C00E0096D81
:1028A0001FA803F0D1FB7BE71E9A1178002902D004
:1028B000517888426FD11F98000AC1B2002900D117
:1028C000B7E0022900D1B6E0012900D1B5E0706877
:1028D0001A99891C884200D38CE31FAA6E231354D3
:1028E0007068401C884200D384E31FA901220A5467
:1028F0007068801C7060084603F064FA50E7032992
:102900009FD80224012000227944097949008F448C
:10291000014A4D500020307393E7002131730128A4
:1029200040D0022841D003288BD141E01FA80121CB
:1029300001707268501C7060901C1A9DAC1CA04203
:1029400000D356E31FA90918AA1A012004F08CFC31
:102950007168A14200D34BE31FAA5054716840181C
:10296000421C7260801CA04200D342E31FA90918D8
:10297000A81A421C022004F077FC7168A14200D31F
:1029800036E31FAA505471684018401C706010460E
:1029900003F077FB04E71FA81D9903F055FBFFE642
:1029A000022406E00322144603E00420044600E06B
:1029B0000524052C1A9D00D97CE195487844A10096
:1029C00001A2515851188F464400000048000000F1
:1029D000EC020000F0020000F60200004E000000D1
:1029E00014F7FFFFE008000060080000A8070000DF
:1029F00084050000C090D0C088050000C098D0C0F9
:102A0000F4070000400800000002002081487844DC
:102A100003F072FBB9E61798C0B2022803D003286E
:102A200000D0B2E6ECE202F065F802F03DF90220D7
:102A3000AAE6002403E0022400E0012428461A9DAF
:102A4000000600D09FE63068002835D07248684400
:102A5000142105F0B1FD1FA800786E2380282ED127
:102A6000E0B200282DD0012852D117936B4868445A
:102A70001FA903F0C1FA16990868002861D04968B7
:102A8000654A6A4403F0F4FE00285FD01FA9C878A5
:102A9000159003281B9800D800208B78191F4A1E18
:102AA0009141159A14931A4300D110E1014300D1CA
:102AB0000DE16E230224C1E16E230324BEE1199CC3
:102AC000BCE157487844FDF790FB0446199101207A
:102AD00017900440534D7D442046A84752487844FF
:102AE000FDF783FB1591179A1040A8472046199CC3
:102AF0002146A847494969448C70159848700C7064
:102B00001FA8032203F0DEFA1FA803F0BAFAA9E116
:102B1000424868441FA903F06FFA16980468002C15
:102B20000FD043680F980078002811D0012800D0FA
:102B3000BCE01FA88078012800D00EE164A81A46E6
:102B400056E1364868448488230A77E1032474E117
:102B50001FA86E210322172B199200D202E1807860
:102B6000002800D0FEE00020142115902246149386
:102B7000FDF74EFA0E9A03F07BFEE0210028179134
:102B800000D156E11B980F990870A07D012800D054
:102B90002AE1109401F076FF109C002800D023E178
:102BA00002F0D6FE042019901C99486016991B9AD1
:102BB000CA611E48784488614A611D4878440861AA
:102BC0000220C8601B48784488601B4868444860FD
:102BD0001A486844086011486844159C214602F070
:102BE000C1FE1748684404711C98C46414486844C2
:102BF00002F06EFEC0B20628F8D00528F6D8C0460E
:102C000078440079400087441E211D374026C04685
:102C1000A46300003663000098070000600800000D
:102C2000985E0000B7D7FFFF7F5E0000D45C000015
:102C3000C45C0000AA5C000040080000AC07000073
:102C4000F4070000D2E7FB48784401E0FA487844F2
:102C500003F052FACAE71C984068811E159A8A420E
:102C600000D1BEE01146401E824200D1E1E0EA48B8
:102C7000684402F077FEB9E7F048784403F084FA3C
:102C80001599491E0CD200210AE0ED48784403F062
:102C90007BFA1C984068401E1599814200D2491C5D
:102CA000DD486844159102F05DFE9FE7EF20179024
:102CB000002055E00120C3E61798411E01E0179857
:102CC000411C03200840189001F06AFF5BE514984E
:102CD000002849D0D04C6C44D34969442046FDF7C4
:102CE00031FD2178202949D0CB486844179141789B
:102CF0001991448848221398119905F0C3F9C848DE
:102D000068441094448019994170179C0470C2481B
:102D100068441299FDF75AFD0021BD48202907D0CB
:102D2000BD4A6A44525C212343439818491CF5E785
:102D30000121084300BA010A020C4A40010E514029
:102D40004140C8B2149905F07FF91598814219D015
:102D50001C990868401C0860BCE76E201790022090
:102D6000199066E0179164E0AB4C6C44AE4969443D
:102D70002046FDF7E7FC2478202C08D1A6486844BB
:102D80004488E1E6A94868444822139909E0A2482A
:102D900068444188109140781990A44868444822BA
:102DA0000A9905F06FF91C9D286815909F496944A0
:102DB00048220C9805F066F99748684410994180BC
:102DC0001999417004701FAC412220460D9903F0FF
:102DD00079F9159800BAE8649149694404222046BB
:102DE00090E601F087FE109C1434149A143A64A8FB
:102DF0008A4B6B442146FDF731FD82B282498A42FB
:102E000014D10F980078022800D07DE6824C6C44E3
:102E100020460B9900F0D6FF2078002826D07E4867
:102E2000684440881990000A1790ABE01990100A86
:102E3000179064A8FDF7F8FC199C179B7068A91CF3
:102E4000884200D3D6E01FAA13547068401C884201
:102E500000D3CFE01FA90C547068801C7060084636
:102E600002F0B0FF189801F09BFE8CE46A486844B9
:102E70004178199145886A4C6C441D22179220466E
:102E8000079905F0EFF808982146179A05F0EAF837
:102E9000280A099948700D706249694419980870A8
:102EA0005D4C6C44204600F090FD5D4D6D4428461D
:102EB000214600F0B7FD584868444022294600F0FA
:102EC000FEFD1699086800281ED00C4649680E239E
:102ED0005C4A7A440CC4206061604F486844012415
:102EE000214600F029F982B247498A4212D14F485F
:102EF00068440E9900F0F6FD1C98806821281A9D00
:102F000014940CD2032013E043486844808819903D
:102F1000000A01E01990100A17901A9D32E031283A
:102F200001D2042004E0412801D3092000E005205B
:102F300015903B48684419904824214605F03CFB15
:102F4000002006990C600C46179048603848684489
:102F50000390304868440290199801902020009016
:102F6000324868442F4B6B442849159A04F032F9D3
:102F7000002811D02D48684400F090FEE020179002
:102F800014981990002464A8FDF74EFC002C199C9D
:102F9000179B00D0B8E551E72149694448221492B3
:102FA000059D284605F05EF8206819901C48684485
:102FB000159029461A9D149C224605F053F81B488B
:102FC000684400F06BFE144868441090159922463E
:102FD00005F058F810982146199AFDF741F9024674
:102FE0000B461FA811461A4603F06CF80124CAE7E5
:102FF0000846214602F00FFAFEDE1FA803F041F852
:10300000002003F038FAFEDE01EF000001060000A8
:1030100005150000E00800006008000084050000BD
:10302000F40700004008000098070000AC0700000B
:10303000E4080000FC60000012610000CA600000AB
:10304000D46000003B5C0000D0B502AF0088284A85
:103050008218052A0ED9274A8218042A15D8C04694
:103060007A4412795200974402181B1F2300234B05
:103070007B441BE07A44127952009744021C2024BE
:10308000272B234B7B4410222BE009221203904272
:1030900024D1194B7B44022223E0194B7B4405E0E9
:1030A000184B7B4407221CE0174B7B44062218E098
:1030B000164B7B4414E0174B7B440F2211E0164B58
:1030C0007B4408220DE0154B7B4401E0144B7B440C
:1030D000142206E0134B7B44172202E0124B7B4480
:1030E0000D2248698969CC681946A047D0BDC04601
:1030F0000020FFFF0092FFFFCA580000F0580000B8
:10310000CA580000CA580000C9580000C75800003B
:1031100002590000DE580000E55800001559000073
:10312000235900002F5900003E59000080B500AF20
:10313000FCF77DFFFEDED4D4F0B503AFA3B007915A
:1031400005900AAD00262E75744878440E900D93B4
:103150000C9207240B94724878440A9002F0F8FB12
:1031600016A806711696284602F062FC16A802F010
:10317000AFFBC0B20628F9D0C01E0228F6D810A8AE
:103180000122027567487844149013966648784483
:103190001290119465497944109116A904920A7508
:1031A000634979441A91199618900620179061483E
:1031B00078441690079C601E00D230460690601C32
:1031C0000990401E089000D2089604250395A64257
:1031D00015D120A800210171209102F0B9FB16A899
:1031E00002F026FC20A802F073FBC0B20628F9D03A
:1031F00003281CD004281CD00528F3D181E00998AD
:10320000864218D120A800210171209102F0A0FB74
:1032100010A802F00DFC20A802F05AFBC0B206284C
:10322000F9D005286BD00328F5D1089ECFE7069E7C
:10323000CDE7099ECBE7A64266D21CA8002101710A
:1032400001911C9104981E90300105990818029074
:10325000C068112105F0A1F90446401C1F901FA869
:1032600022901EA8219002982090E8B2032800D056
:10327000019C20A8214602F021FC1CA802F028FB9A
:10328000C0B20628F9D00428F7D8C046784400799F
:10329000400087440308021D0D00EEE726487844ED
:1032A00002F02AFFE9E72548784402F025FFE4E729
:1032B0002448784402F068FF651C1F9885420FD0AF
:1032C00000D3254620A8294602F0F8FB2C46D4E777
:1032D0001B48784402F058FF002C05D0641EC8E754
:1032E000761C039D079C72E7002E01D0032500E0A9
:1032F0000425079C761E00D369E7002667E705488A
:1033000000E0054823B0F0BD3046079902F083F88D
:10331000FEDEC04601EF0000046E0000F25900001E
:10332000C3590000365C0000465D0000BA59000039
:10333000EA5B0000A7590000A65A0000B85A000036
:10334000725A0000AE5A0000F0B503AF8DB01646B9
:103350000291039004AC21252046294605F02CF962
:103360002046294603F03AFA304603F04DFB002888
:103370000BD004AC30202070601C5D4979440522DC
:1033800004F070FE2121062219E03478204603F073
:1033900062FB002821D004AC09252046294603F011
:1033A0001CFB544A7A442B4602F026F8204609308A
:1033B00051497944052204F055FE21210E22204670
:1033C00003F0ACFB029C00F043FB02460B46039863
:1033D0002146FFF7BDF80DB0F0BD204603F02AFBF3
:1033E000082812D8401E711C002214460028D2D092
:1033F000150E240264190D7812025219401E491C40
:10340000E8253A4B9B1AA541F0D204AC2125204671
:10341000294603F0E3F9304621462A4603F088FBAB
:10342000002814D00E46122913D9304611380090C6
:103430003446123C04A821212246334603F040F9C9
:10344000212C50D204A82E2101550B3E19E000205A
:10345000B8E71420851B009504A8212100242246EA
:10346000334603F02DF9A5420AD0012C03D104A85C
:103470002E21417002E004A830210155641CF2E7BE
:10348000082604A82121324603F048FB4B1E002BDE
:1034900008D0002920D0C25C5B1E302AF7D05A1C0D
:1034A0009B1C01E0002201238A421AD2845C2E2C4C
:1034B00000D01A4603F032FB08464C1D04AE2146EC
:1034C000324603F091FA0D4A7A44052301F094FF45
:1034D00021213046224673E70021184601F09BFF68
:1034E000FEDE1046FAE721212046F7E7FF0FA5D4BC
:1034F000015C0000DE5B0000CB5B0000B55A000001
:10350000D0B502AF0446084611461A46FEF78CFFB6
:1035100002460B46204611461A4600F0D0FAD0BDAE
:1035200080B500AF01F02DFFFEDED4D4F0B503AFBF
:103530008DB0059301900CA8017020210B910A9287
:1035400001210991089000231A46022B41D0D8008E
:1035500008A90C5808184068211825465B1C0393DD
:1035600004918D42F1D006952C782E210598029277
:1035700003F05DF90546204600290FD00791297810
:1035800009020E183A243046214605F006F8444355
:10359000311B29700799491E6D1CEDE7069D6D1CB6
:1035A000029A039B069500280499DAD02E2A6DD042
:1035B0002D2A72D806463A242146154604F0EDFF1E
:1035C0002A464443311B039B059C61556A1C069D9A
:1035D000E9E70024022C16D0E00008AB19581818AF
:1035E0004668641C002EF5D00B78002B0BD12E2AD8
:1035F0004CD010462D2A55D8491C002305988354D9
:10360000761E521CEEE72E210598029203F00FF968
:10361000294B7B44002907D00278392A44D89A5C88
:103620000270491E401CF5E72E21244C7C4405986D
:10363000029AA04706900E464D0829462A46A04702
:1036400023460446079106988019401B29462A46BE
:1036500098470246681E0023451C0BD2079D9D42D9
:1036600024D088421BD2E55C165CE6541554401EFB
:103670005B1CF1E700202E230299059AFCF7C8FC99
:10368000002803D0019A5160114603E009480199CE
:103690008880002008600DB0F0BD2E21104601F09A
:1036A000BAFEFEDE2E21FAE73A21F7E70798014637
:1036B000F5E7C04602E000000F590000FF310000AE
:1036C000B0B502AF0D4683218900415A00290BD0C5
:1036D0001446064941180A880021FEF7A5FE2A462D
:1036E000234600F0E0F9B0BD0020B0BD0E0200009E
:1036F000F0B503AF8FB00B46064683208100705AA9
:103700005A4A002800D1A5E0574830184488A342FF
:1037100000D8A2E0049100880690181B71680591FA
:1037200001280ED10720009008AD524B7B4428465B
:103730003146224600F0FEF82888002852D008A81A
:103740004CE00293079608AD12210391284604F03D
:1037500033FF082628460399324600F02CF9484AE0
:103760007A44334601F048FE2846314600F0A0F97D
:1037700002460B46204611461A4602F0BDFF0028BD
:103780002ED00C46084608300C3408AD12232146D2
:103790002A4600F079F9394A7A44042301F02CFED4
:1037A0002846214600F084F902460B460298401E46
:1037B00011461A4602F0A0FF002811D00A1908A8E5
:1037C000122100F061F802460B460DAC2046079925
:1037D000FEF7BEFE2088002807D00DA8428839E0F9
:1037E000234A37E00796099800E00E98039008A84E
:1037F0000024079E31462246069BFFF781FE089D66
:10380000002D23D00998069008A807963146059AFE
:10381000039BFFF775FE089A002A17D0099B0698AC
:103820000B900A950720099013487844089008A83F
:103830000121FFF781FC81B20C4A914209D107991D
:10384000049808180C604C60048003E008A8828883
:1038500000E0024610460FB0F0BD0A4878443C2113
:1038600001F080FDFEDEC0460E02000001EF000008
:1038700002E000006C530000755200009F500000F1
:10388000755200000052000080B500AF8A4201D896
:10389000114680BD104601F07EFDFEDEF0B503AF9F
:1038A000ADB01C4604920A460021FEF7BDFD064657
:1038B000039118AD28462146FCF744FF2D78202DB2
:1038C00001D11A4828E0019618A9487802904E883C
:1038D00005AC201D091D482204F0D4FB6680029827
:1038E00060702570083418AD28462146FCF76EFF3D
:1038F0002BA8002421462A46049BFFF717FE2B9A8B
:10390000002A06D02C9B0198039900F0CCF82146A0
:1039100006E02C980004401C054C0440000A0121DC
:103920000C43000280B220432DB0F0BD010005E041
:103930000000FFFFF0B503AF89B00293039201913D
:10394000049005AC002020730790069005900D268A
:10395000BD68204631462A4600F02DF8029A2B46D3
:1039600001F04AFD204631462A4603F0BBF80246E4
:103970000B46039811461A4602F0BEFE00280BD0F3
:103980004A1905A80D21FFF77FFF02460B46049850
:103990000199FEF7DDFD02E002480499086009B0D4
:1039A000F0BDC046010002E080B500AF0A464021EC
:1039B000FFF76AFF80BDD0B502AF0B46044600207A
:1039C0001146224600F060F8D0BDF0B503AF91B0CB
:1039D0000D46009001A8402104F0EEFD0020402893
:1039E00016D02B785C0930215722052C0C4600D3C9
:1039F00014461E09A41901AE34540F241C400A2C8D
:103A000000D311460919321851706D1C801CE6E76D
:103A1000009C601C01A9402204F024FB00202070BF
:103A200011B0F0BDE0B502AF0A78002A04D1491CFC
:103A3000402204F017FB8CBD0348784401A9034AD7
:103A40007A4401F094FCFEDE9A540000EC4F000032
:103A500080B500AF002800D080BD034878442B21FA
:103A600001F080FCFEDEC046035100007047D4D454
:103A700080B500AF084603497944022201F0B1FB4A
:103A800080BDC0465954000080B500AF814207D3C5
:103A9000994203D81218091A104680BD08461946E3
:103AA00001F079FCFEDE80B500AF01F00BFE80BDB9
:103AB00080B500AF0A46122103F014F880BDDFB5CF
:103AC00006AF044601A801F039FD0198002804D092
:103AD000EF200002A080002002E0039860600298BE
:103AE0002060DFBDF0B503AF9DB00391049005AD3C
:103AF0004021284604F060FD15AC202620463146C2
:103B000004F05AFD009421200290052203992B46CF
:103B100003F09AFB049C204608302946324604F004
:103B2000A1FA284602F044F96660029921701DB09E
:103B3000F0BDD4D4014602467F321020222A17D885
:103B40007A44127952009744111A1C1E202224260E
:103B5000282A2C2E33333333333333333333333355
:103B60003333333333333333333032000120704750
:103B70000A46BF321DD0DF311AD100207047022023
:103B800070470320704704207047052070470620C7
:103B900070470720704708207047092070470A20A7
:103BA00070470B2070470C2070470E2070470F2085
:103BB00070470D207047D4D4F8B504AF0D460446C5
:103BC000107B5168814201D1B8680AE0104600F0CC
:103BD00046F90E4601210840FCF74CFB2E70034BC2
:103BE0001846A080638000202070F8BDFFFF000011
:103BF000F0B503AF87B0164605468C68B868002C50
:103C00000393019021D4029508680490049884429B
:103C100012D2307B726882420ED0304635460E4654
:103C200000F01DF901210840FCF724FB31462E4627
:103C3000039B641C8C60E9E70498844214D1002043
:103C4000C143029DA980698013E0009005AC204625
:103C500004913246FCF7E4FB207800280CD005A83C
:103C600040786870012004E0029D0198A8806B8074
:103C70000020287007B0F0BD05A881884088024662
:103C80000A40054B9A4204D1002404998C60039B9E
:103C9000B9E7A9806880EBE7FFFF0000E0B502AF5D
:103CA00001462831019108300090684602F0C8FAB8
:103CB0008CBDF0B503AF89B001930390F81D0130BE
:103CC00003880420C01A07900293D8001823059394
:103CD0001B1A06910E6800240492107B51688142E1
:103CE0001AD00798844217D210461D4600F0B7F844
:103CF00008940C4601210840FCF7BCFA2B46049AB4
:103D0000284605990840E1B2089C81400E43069878
:103D10000660083B641CE0E70020039B18700299D2
:103D20006118C0430429024600D00A469A8004293B
:103D300000D00198588009B0F0BDF0B503AFC1B014
:103D40000446012005026E463046294604F0E3F998
:103D50003046294603F038FA204631462A4604F018
:103D60009BF941B0F0BDD4D4F0B503AFC3B0154654
:103D70000E46019002AC2046FFF7DFFF2046314699
:103D80002A4600F011F881B2064A914204D102A9F4
:103D9000019800F017F803E00121019A117050809A
:103DA00043B0F0BD01EF000080B500AF03F024FA8E
:103DB000002801D0024880BD004880BD01EFFFFF10
:103DC00001E0FFFFF0B503AF89B00D46044601AE38
:103DD0002021304604F0F0FB2846314603F006FA75
:103DE000002803D006486080012005E0601C01A97E
:103DF000202204F037F90020207009B0F0BDC04641
:103E000001E00000DCB504AF00280DD013460A46DF
:103E100001466C462046FEF79BFB2088002801D017
:103E20000320DCBD0420DCBD024878442B2101F0D6
:103E300099FAFEDE354D0000D0B502AF0446DBB284
:103E4000D0B2984205D88B4205D82218191A1046CC
:103E5000D0BD194600E0184601F09DFAFEDE42682A
:103E6000037B9A4203D9591C01730068C15C9A42D2
:103E700001D80020704701207047F0B503AF87B02C
:103E800005910446107B5168BD68814203D1A5802D
:103E90006380002064E001932904039202D0059816
:103EA00083780DE010460691FFF7D9FF0E460121F9
:103EB0000840FCF7DFF906993346039A05988670A7
:103EC000C020184005D0802805D0402845D10220C8
:103ED00002E0012000E0042004900029029404D0B4
:103EE00005980388AEB2049D0AE03F200340049D7C
:103EF000E8001830182101408B4005980380012606
:103F00000693F0434019C400107B5168814217D0DA
:103F1000AE4215D21046FFF7A2FF0D460121084020
:103F2000FCF7A8F9039A18202040E9B2049D8140CB
:103F3000069B0B43059806930380083C761CE3E739
:103F40000020C143AE420A4600D03246029CA28005
:103F5000AE4200D00199618002E000206070012033
:103F6000207007B0F0BDD4D4F0B503AFA9B01D46A2
:103F70001646044621910A4640320820115E1E92E0
:103F800090880122012800D81046002900DA104646
:103F9000AAB2904201D800F006FCBA6800291C942D
:103FA000109201D500F002FC1E9A50881288524CE3
:103FB0002092A24219D1A04217D1219B1A46323237
:103FC0000020188650811070988610711887107222
:103FD0005862C2221A7018859C851E9C20601A4661
:103FE00024329071491C2181209021990A46143273
:103FF00002928A1C03920A1D18920A4609321792ED
:104000004A1C16920A463C3215920A463D321492D8
:104010000A46303213920A46343212920A46383235
:1040200011922831049119951F96317B72688A424A
:1040300001D100F0CBFB219C228D012A00D8012266
:104040002C211D91615E0029209B01DA062200E0EF
:10405000521D95B29AB2AA4201D300F0BCFB042AC9
:104060000ED852007A4492885200974404001A03F2
:10407000220327032C03009022A80023159914E3A0
:10408000002901D500F060FBA58C1B4A954209D19F
:10409000E08C904206D1C220219A10700025556212
:1040A000481C9085307B7168814201D100F070FB23
:1040B000219C204602F0A7FBA9B280B2814201D325
:1040C00000F089FB2278C22A254600D013E1304651
:1040D000FFF7C5FE0C4601263040FCF7CBF8E0B2F6
:1040E000D42801D900F0A3FB224604A123464000B6
:1040F000085A40008744C046FFFF0000D800C302B2
:10410000D700D700D700D700D700D700D700D700F7
:10411000D700D700D700D700D700D700D700D700E7
:1041200034023D0251025702C302C302D700D70036
:10413000D700D700D700D700D700D700D700D700C7
:10414000D700D700D700D700D700D700D700D700B7
:10415000D700D700D700D700D700D700D700D700A7
:10416000D700D700D700D700D700D700D700D70097
:10417000D700D700D700D700D700D700D700D70087
:10418000D700D700D700D700D700D700D700D70077
:10419000240224022402D700D700D700D700D7007A
:1041A000D700D700D700D700D700D700D700D70057
:1041B000D700D700D700D700D700D700D700D70047
:1041C000D700D700D700D700D700D700D700D70037
:1041D000D700D700D700D700D700D700D700D70027
:1041E000D700D700D700D700D700D700D700D70017
:1041F000D700D700D700D7005A02D700D700D70082
:10420000D700D700D700D700D700D700D700D700F6
:10421000D700D700D7009B039B039B039B039B0303
:104220009B039B039B039B039B039B039B039B039E
:104230009B039B039B039B039B039B0366026802F8
:104240006A026C026E0270027202740276027802D6
:104250007A027C027E028002820284028602880246
:104260008A028C028E0290029202940296029802B6
:104270009A029C029E02A002A202A402A602A80226
:10428000AA02AC02AE02B002B202B402B602B80296
:10429000BA02BC02BE02C002C202C502C702C90203
:1042A000CB02CF02D1021A9B0E9828720F98686039
:1042B0000D9CEC700C98A8701B936B7028A9164687
:1042C0000322179803F0CEFE3246069868830B98B7
:1042D00028830598E8750A98A8750998A88208980F
:1042E000688207982882EC602E7027982699E961E9
:1042F00028621F9E01E01A981B90D0B20146123925
:1043000005291C9C17D90146BB3907292BD9002840
:1043100022D0012820D04A2847D04B2845D04C280D
:1043200043D07E2800D19CE08D2815D08E28194ED0
:10433000314643D05BE0C0467944097949008F4457
:1043400002027E870B0BAB8CE88C009024A8169998
:104350003246FCF7E7F842E0AB8CE88C009024A8EA
:104360001699324639E0880002A108580818094E0B
:1043700031468746480000007A0000007A000000BD
:104380007A00000054000000240000002400000017
:10439000A6040000FFFF0000AB8CE88C009024A86E
:1043A00018991F9AFFF785FC19E0AB8CE88C0090F8
:1043B00024A818993246FCF733F810E0AB8CE88C4F
:1043C000009024A8169907E0E88CAB8C002B00D154
:1043D00096E0009024A803991F9AFFF7EDFB24A80C
:1043E0000078002800D02CE224A881884688344632
:1043F0000C40FA48844200D1002184421A9101D134
:10440000A88C461C2846B5B202F0FDF981B28D4257
:10441000FC4800D01A98219AD0848D42F94D1B9BFC
:1044200000D0354621998D84F64A944200D0AEE101
:10443000284090421A931F9E00D033E6ADE1AB8C2A
:10444000E88C009024A818993246FFF7D1FBC6E704
:10445000AB8CE88C009024A80399324600F008FA4F
:10446000BDE718202A5E002A4ED4688A298AF64BB6
:1044700099420AD1984208D1002028726860C1434D
:10448000E9602861511C29830146327B736893429D
:1044900053D0090400D0C0E1009026AC324600267B
:1044A000204618993346FFF7A3FB2078002800D058
:1044B000B5E126A843882798194601408AB2E24907
:1044C0008A421C9C00D00646DF48824201D1288ADD
:1044D000431C99B20129DC4800D03046688201298A
:1044E000D94900D019462982D74B9A421F9E24D120
:1044F0000A46024092B29A42C7D1D34E314676E77D
:10450000009024A800235DE7AB8CE88C0090324635
:1045100026AE30460299FFF7B0FC3078002800D074
:104520008BE126A88188408802460A40C64B9A4201
:104530000BD024AA9180508056E7E98CAE8C56E7C8
:1045400000201A9B0F900E90AEE600222A83A88AC4
:1045500000281F9E89D124A8BB498180418043E760
:1045600028A800218170018026A88180269112222E
:1045700007E028A800218170018026A8818026916B
:10458000132206910B460C910F910E910B91059100
:104590000A91099108910D9112E00021C8430D90F4
:1045A0000F910E9180E604200C907CE60021C84318
:1045B0000D900E91A4480B900A91099108910F91CA
:1045C000079171E68D225AE08E2258E08F226AE62A
:1045D000902268E6912266E6922264E6932262E6E1
:1045E000942260E695225EE696225CE697225AE6E1
:1045F000982258E6992256E69A2254E69B2252E6E1
:104600009C2250E69D224EE69E224CE69F224AE6E0
:10461000A02248E6A12246E6A22244E6A32242E6E0
:10462000A42240E6A5223EE6A6223CE6A7223AE6E0
:10463000A82238E6A92236E6AA2234E6AB2232E6E0
:10464000AC2230E6AD222EE6AE222CE6AF222AE6E0
:10465000B02228E6B12226E6B22224E6B32222E6E0
:10466000B42220E6B5221EE6B6221CE6B7221AE6E0
:10467000B82218E6B92216E6BA2214E6BB220023B5
:1046800012E6BC220FE6BD220DE6BE220BE6BF22DB
:1046900000230C9308E6C02200E0C12200200F9006
:1046A00001E6009022A8012314993246FFF784FA0C
:1046B00010E0009022A80223139908E0009022A89D
:1046C0000323129903E0009022A804231199324693
:1046D000FFF7D3FB22A80078002800D0A5E022A88D
:1046E000818843881D98225E208D012800D80120F2
:1046F000002A554C01DA062000E0401D1A460A4007
:10470000A24200D10021A24202D11E9B1B885B1C49
:1047100085B29EB2AE42204600D008461E9948801F
:10472000AE42254600D01D4620950D80A242199D1F
:104730001F9E4BD1209989B2A14201D0FFF775FC91
:10474000A04261D0FFF771FC0090324626AE3046A1
:104750000499FFF792FB3078002862D126A881885F
:10476000408802460A40384B9A4203D022AA9180E0
:104770005080B4E70021A185208D00281F9E01D024
:10478000FFF782FC22A8304981804180A7E71A9375
:104790001E984188219C209BA4E711461846134689
:1047A0001A90219C9EE70220607042E01E98011D35
:1047B000009226AC204632462B46FFF75EFB20785F
:1047C00000280DD026A840781C9CEDE71C9C109872
:1047D000A08065801FE0022629E0C046FFFF0000A0
:1047E00026A8828841880B461340174883421C9CA8
:1047F0000FD100211E9A11819288002A06D0FFF75E
:10480000D3FBC046FFFF000020461C9CA0806080B8
:1048100001E0A280618000200CE0022608E026A8CA
:1048200004E026A8407822A9487022A846781C9C5B
:1048300066700120207029B0F0BD26A8407824A918
:10484000487024A84678F3E7FFFF00000178C329E9
:1048500001D10120704744300421425E00880121CB
:10486000012800D80846002A00DA08467047D4D448
:10487000F0B503AF91B00A930546107B5368BC684E
:10488000834205D1AC800A98688000202870F0E04F
:10489000049408910C78042C0B9223D11046FFF756
:1048A000DEFA0C4601210840FBF7E4FCE0B2811E71
:1048B000022906D3002804D0012806D0FF200230A8
:1048C000C6E00CA8132103F077FE089E701C0D2192
:1048D00003F010FC30460E300CA9142203F0C2FB8A
:1048E00034700B9AE0B2800002A108580818089BA7
:1048F0000499874614000000220000001400000004
:10490000140000005A0100000091591C28460A9B1F
:10491000FBF75AFEADE00195117B50680790981D9A
:104920000290981C039008460690C0B207998142F5
:1049300000D18FE05D890220022D00D995E015D0CD
:10494000012D28D0002D00D08FE0988900280399F0
:104950000ED190684A4979440122FFF753FAC0B258
:1049600004287ED1002003990B9A01E098890299CE
:1049700000900CAC204616462B46FFF77EFA2078B6
:10498000002870D17368357B0CA881880591408818
:104990000990324620E09C8958884601069D079B75
:1049A000A0B2E9B28B420DD086420BD91046FFF778
:1049B00056FA01210840FBF75DFC0B9A641C536812
:1049C000157BEDE786422D49059100D0059486427E
:1049D000099101D0012009901068079319461446E7
:1049E000069A2B46FFF728FA02460B46A0681146A6
:1049F0001A46FFF707FAC0B20428089B1F4C30D1B3
:104A0000099A1046059E3040A04200D10026A042DF
:104A100001D159894A1C099292B2032A214600D039
:104A200031469981032A224600D0099A5A81A04230
:104A300010D190B2A04228460B9A00D074E788B2F9
:104A4000A042284600D06FE70A94019904E00A4882
:104A500028800EE00199049C8C800A9848800020F0
:104A600006E0032001E00CA840780199487001207D
:104A7000087011B0F0BDC04601020000FFFF000049
:104A80003442000080B500AFFBF7E8FA00F004F80C
:104A90000078411E884180BDF0B503AF87B0044661
:104AA0008020255C26783046294600F014F800283E
:104AB00000D13546E9B2002800D08034A52903D1C1
:104AC0004034204607B0F0BD0020019001A92046E7
:104AD000FBF7FEFBFEDE80B500AFC0B2A52802D01A
:104AE000C9B2A52903D1A538411E884180BD00F077
:104AF00034FCFEDEF0B503AF85B0184C7C44A04713
:104B00000546A047FFF7C8FF014602AE0A2230461D
:104B100003F0A8FA2846FFF7BFFF00784142414161
:104B200001963170A04705468020295C2878FFF760
:104B3000D2FF04462E4680360028284600D1304653
:104B4000019900F00FF8002C00D12E460449794459
:104B5000304600F01FF805B0F0BDC0465DB5FFFF60
:104B60000F400000B0B502AF0D4604460749794436
:104B700000F010F8204640300A22294602F058FB87
:104B800003497944204600F005F8B0BDEF3F00002E
:104B9000DC3F000080B500AF012202F049FB80BD80
:104BA00080B500AFC0B2032814D8C046784400795D
:104BB000400087440107040A0848784407E000F0F1
:104BC00073F880BD0648784401E00648784400F058
:104BD00031F880BD00F0C1FBFEDEC0462B000000B6
:104BE00093000000ED00000080B500AF90B0684673
:104BF000012202770146203100230B770A4B0E93E6
:104C000005210D91094979440C9102210A910892DC
:104C1000069308230593064B7B440493029100926C
:104C200001F0EBFB10B080BD80000B00853F000061
:104C3000AD3D0000D0B502AF044600F089FE054846
:104C4000784401F059FA0448784401F055FAA04735
:104C5000D0BDC046904100002041000080B500AFAB
:104C600090B06846012202770146203100230B777D
:104C70000A4B0E9305210D91094979440C910221AB
:104C80000A910892069307230593064B7B440493ED
:104C90000291009201F0B1FB10B080BD80000B00CA
:104CA000313F0000183F000080B500AF0248784453
:104CB000FFF7C0FF80BDC0463B00000080B500AFDD
:104CC00088B0684601210177064A069204220592BF
:104CD000054A7A44049202220292009101F08DFB6F
:104CE00008B080BD80000B00613B0000B0B502AF92
:104CF00090B06C4625462035FFF7C4FE0021297789
:104D0000012222770F4B0E9302210A9108920693FB
:104D10000D2305930C4B7B440493029100920028D1
:104D200001D1082200E007220D92002802D1084894
:104D3000784401E0054878440C90204601F05DFB82
:104D400010B0B0BD80000B007A3E0000673E00004E
:104D50009D3C000080B500AF812903D2401880221D
:104D6000511A80BD80220846114600F014FBFEDE79
:104D7000F0B503AF91B0202408AD03232B550C945C
:104D800000230DAC0BC40A93009308931469002C04
:104D900001923ED0203504951F20C00651699368CA
:104DA000039316684D01814302910596002D55D05D
:104DB0007268002A06D00E98C36831680D9898472B
:104DC00000285CD1204620300690207F049908708E
:104DD00020690C90A0690F90214608310795039D2A
:104DE000284600F051F8099108902846214600F025
:104DF0004BF80B910A906069C10068586918079DCB
:104E00004A6808A990470836203D0028069CCDD066
:104E100035E0072040079468D16812680592CA00FF
:104E200007928143029100250798A84216D0059861
:104E300040194268002A07D0059841590E98C36866
:104E40000D98984700281AD12646083605CC08A99F
:104E50009047083500283446E6D010E001984068B5
:104E6000029981420DD20298C000059A115810187B
:104E700042680E98C3680D989847002801D0012019
:104E800000E0009811B0F0BDD0B502AF0B68002B68
:104E90000CD002460020012B0AD14968CB00D11862
:104EA0004968064C7C44A14203D0D0BD081D01E0F6
:104EB000D0BDD05801680120D0BDC0466D060000AD
:104EC000FEB506AF029301920E4604460025AE429F
:104ED00009D0029802690198214690476D1C00286C
:104EE000F5D0681E00E03046B04201D30020FEBD80
:104EF0000120FEBDF0B503AF8DB00C920A46054609
:104F0000C669012130460991084011210904002891
:104F1000069100D02B210B91B968441870070893B3
:104F2000079102D400200A9006E00C9811180A920A
:104F3000104600F085F80419286800282AD069680E
:104F4000A14227D930073BD4091B01262846324607
:104F500000F014F90446069884422ED0099169693C
:104F6000AD690C9800900C91084629460B9A0A9B53
:104F700000F0E8F8002820D1EB680C980899079A0F
:104F80009847002819D1204609990C9A2B46FFF71B
:104F900097FF11E06C69AD690C9800902046294696
:104FA0000B9A0A9B00F0CEF80028099E05D1EB6809
:104FB00020460899079A9847064630460DB0F0BD3E
:104FC00005912020295C039101262E542869029026
:104FD000302028616A69A9690C98009004921046F3
:104FE0000C910B9A0A9B00F0ADF80028E5D10996C8
:104FF0000598011B0122284600F0C0F806460698D5
:10500000864209D00B910C98C368049C20460899ED
:10501000079A9847002801D0099ECEE730460B99A1
:1050200022460C9BFFF74CFF0028099EC5D128465D
:10503000203003990170029828610026BDE7D4D47E
:10504000F0B503AF8BB0091A102965D3C21C032336
:105050009A43121A8E1AB40805945DD034469C43C4
:1050600081180C1901931E40049100F0B1F9054616
:10507000A119204600F0ACF94019314E059A002ADA
:105080004DD00390C02A134600D3C02307A804992B
:1050900000F08CF9089A1346019883430A9805900A
:1050A00009980490079907A800F080F908988000F3
:1050B000079B19180A9802900998069000228B42C3
:1050C0000DD00020102808D01D58AC09ED43ED0983
:1050D00025433540AA18001DF4E71033EFE7100A06
:1050E00016490A400840801813494843000C0399A8
:1050F000401802990029C1D004468A000021002AE4
:105100000FD0069B01CB06938309C043C009184307
:1051100030404118121FF2E7411800F059F90BB066
:10512000F0BD080A054A11401040401802494143A9
:10513000080C0019F3E7C04601000100FF00FF0062
:1051400001010101F8B504AF1C460E4605461120C9
:105150000004824207D03369284611469847002848
:1051600001D00120F8BD002C05D0BA68F3682846AC
:1051700021469847F8BD0020F8BDD4D4FEB506AF4F
:105180002023C55CAB0002A4E358E3189F46C04649
:10519000260000001C0000001000000018000000A5
:1051A0004D084A1C510806E0120603D000220D46A5
:1051B000114600E0002501916C1C016902914669CD
:1051C0008569641E09D02A693046029990470028F3
:1051D000F7D011200004019901E00199029803B071
:1051E000F0BDF0B503AF87B015460A4606468068A5
:1051F00033681946014344D000281CD00193F0685D
:105200000021009106910492029503925119059193
:1052100011210D04441C641E05D004A800F058F8A8
:10522000A942F8D104E004A800F052F8A94237D10D
:10523000029D039A019B002B23D0511974681046DC
:105240000392FFF7FDFE844225D9211A0022304641
:10525000FFF794FF112212040124904218D001910B
:1052600002907069B669F368009003992A469847DE
:1052700000280DD102980199009A3346FFF720FECD
:1052800005E07069B169CB6811462A469847044623
:10529000204607B0F0BD7069B169CB680399F4E7A7
:1052A0000028029D039A009C07D0A8420ED21156F6
:1052B0003F22D2439142039A00DB1446002C00D0D7
:1052C0000546002C019BB6D02246B4E7F5D0F5E7A1
:1052D000FFB507AF036842681121090493422DD03E
:1052E0005C1C04601D786AB2002A2ED59C1C0460E8
:1052F0005E783F22029216401F222A40DF2D1ED9DF
:105300000092DC1C04609A780392029A0196039E34
:1053100016400396019A9601039AB618F02D11D300
:105320001C1D0460DD78029A1540B6017519009ABB
:105330005207D20AAD188D4207D10BE00AE0910165
:105340008D1902E00099090375188268D11A0919AC
:1053500081602946104604B0F0BD80B500AFFDF76E
:10536000E5FEFEDE80B500AFFFF7F7FFFEDE80B59D
:1053700000AFFFF7F2FFFEDE80B500AFFFF7EDFFF5
:10538000FEDE80B500AFFFF7F7FFFEDE80B500AFB1
:10539000FFF7E3FFFEDE80B500AF00F001F8FEDEB0
:1053A00080B500AFFFF7D9FFFEDED4D4D0B502AF91
:1053B0009A4205D3D21A9C000C191AC00260D0BDC3
:1053C000024878442321FFF7CDFFFEDE0A380000B3
:1053D000B0B502AF88420CD00A1A00231946C45651
:1053E0004025ED43AC4200DD491C401C521EF6D165
:1053F00000E000210846B0BDD0B502AF0C4699428E
:1054000004D11146224602F02DFED0BD2046194699
:1054100000F001F8FEDE80B500AFFFF79EFFFEDE74
:10542000F0B503AF93B00291064627200890354CA3
:10543000364878440390A6422DD93046324903F0CD
:10544000ACF80790611C4143701A069080B2642644
:10545000314603F0A2F805464100039A505C0590DE
:1054600009AB089C18190490001F059B0370511884
:10547000497841706E430698801B80B24000115CF1
:10548000049B9B1E1970101840785870241F0894B4
:105490001C4C079ECFE7632E13D9B0B2642421467B
:1054A00003F07BF84443311B89B24900039D6A5CD9
:1054B000089CA41E09AB1A551A196918497851702D
:1054C00001E03046089C0A2804D2611E303009AA47
:1054D000505409E04000039D2A5CA11E09AB5A54B8
:1054E0005A182818407850702720401A009009A8B0
:1054F00043180749794400220298FFF7FBFC13B0D8
:10550000F0BDC0460F27000010270000D73900006B
:10551000E03900000068FEE7B0B502AF0B46C4B248
:10552000002001468A4204D05D5CA54203D0491C9C
:10553000F8E71146B0BD0120B0BDD4D4F0B503AF3B
:1055400088B00190D61F0023072A00D21E46C81C2F
:1055500003240094A043401A0790594878440690C9
:105560000596934200D38CE0CD5C6CB2002C17D42E
:105570000798C01A8007514D02D05B1CF1E7083331
:10558000B34207D2C858CC18646804432C42F6D002
:1055900000E05B1C9342E4D2C8560028F9D5E0E74E
:1055A0000698405D01260496022816D003281ED0D6
:1055B0000428059E6BD1581C02900020039002988D
:1055C00090426ED20856F02D22D0F42D25D10446FB
:1055D0007020C043844229DD59E05C1C94425ED2B5
:1055E00008574025ED43A842059E48DD4FE0581C72
:1055F000002603969042059E53D2085CE02D24D0ED
:10560000ED2D45B226D16020C04385422FDD3EE01E
:105610007030C0B2302809D339E005460F34E0B20B
:10562000022834D83F20C043854230DA981C90428B
:1056300037D208564024E543A8422BDCDC1C9442B8
:105640002FD20857A8421ADD26E0E0242040A028E7
:105650000DD01CE020461F30C0B20C2803D3E0B2AE
:105660004008772813D13F20C04385420FDA9C1CA5
:10567000944216D208574025ED43A8420ADC631C29
:105680006FE70198416001468260002012E00498B3
:10569000009002E0022000900498039001E00020B6
:1056A00003900098C0B200020399081801994B605A
:1056B00088600498086008B0F0BDC0468080808093
:1056C00093360000D0B502AF994208D10C4611467E
:1056D000224602F0B4FC014640424841D0BD0020C1
:1056E000D0BDD4D4F0B503AF99B00FAD0026AE84D1
:1056F000179216960A231593012401941494139279
:10570000099211920C9110910F93016805914168D3
:10571000049180680690284618300290243503953D
:105720000796334608963446002C099A00D09BE031
:105730009A4265D30C98C518D41A072C07D80021B3
:105740008C425BD0685C0A2841D0491CF8E7E81C11
:1057500003218843A8420E950B930A9401D100259A
:105760000DE0451BA54200D30A9D0A200E992A464A
:10577000FFF7D2FE012802D1099A0B9B27E00A9875
:1057800008380D900D98854215D80E9C61593948FE
:1057900002468A43364B5940374E891911406219E7
:1057A0005268034693433248424092191A400A43D2
:1057B00001D10835E6E70E9841190A98421B0A20E4
:1057C000FFF7AAFE0128099A0B9B17D14919C8189F
:1057D000431C1293ACD09342AAD80C99081801210B
:1057E000029A1C460B46FFF76DFF2346099A0028D4
:1057F0009ED0169300241D461E460CE012921346BE
:105800000798002830D1012403984470089D9542E0
:105810000794164628D00698007800280B9308D0E5
:105820000498C368154979440422059898470028CC
:1058300018D1089BF21A0C98C1189E4201D1002081
:1058400005E05018401E03780A3B58425841069B19
:1058500018700498C36805989847002808950B9B12
:1058600000D161E7019800E0002019B0F0BDC0460A
:105870000A0A0A0A80808080FFFEFEFE15300000C2
:10588000F8B504AF60C80468207800280BD00091F8
:10589000F36809497944042228469847009900286A
:1058A00001D00120F8BD08460A3842424241227028
:1058B000326928469047F8BDA72F000080B500AF99
:1058C0000A4602497944FFF753FA80BD403400008C
:1058D000B0B502AF044600F0B3FD002801D100F0DE
:1058E000B7FD062500F0ACFD00281FD0042120469E
:1058F00000F09FFD20780528F3D12179E078420857
:10590000084610432071002904D0002A12D0032A2F
:105910000ED00BE0032A09D80020C0467A44127941
:1059200052009744010F1005002020712846B0BD99
:105930000220B0BD002020710429284602D2C900EF
:105940000248C840B0BD0120B0BDC04606030405F2
:1059500080B500AF0248784400F07CFC80BDC046B2
:10596000C6330000BCB504AF0C460546FFF7F0FF98
:1059700028680068811EA14207D12A696B6917480F
:105980007844092100F032F819E0401EA04207D106
:10599000AA69EB6913487844092100F027F812E05E
:1059A000E968A14216D9E100AA685058511849681F
:1059B0000022022300930192012200F095FC084886
:1059C000784400F099FB002C03D00748784400F09D
:1059D00093FBBCBD2046FFF71EFDFEDE3C340000FD
:1059E000A8330000F633000004340000BFB506AF52
:1059F0001D461446024602A8C180002B01D0122188
:105A000000E03C218180029200F076FB002D0ED058
:105A1000012D08D103CC0022022300930192012220
:105A200000F062FCBFBD0221204600F0CBFCBFBDF0
:105A3000F0B503AF85B00446007DC04678440079D8
:105A400040008744010A1C310321204600F0BAFCC3
:105A5000206900282CD018490BE003CC0123022236
:105A600000920193083C00F03FFC206900281FD001
:105A700010490491039003A800F03EFB18E003CC0A
:105A8000012202260096019203252A462B46083C55
:105A900000F02AFCA068E168002200960192112320
:105AA0002A4600F021FC03E00221204600F08AFC97
:105AB00005B0F0BD3800020010000800F0B503AFDB
:105AC000BDB00D460446FFF743FF0020A84BA94E8A
:105AD0007E4440280CD02DA901220A50091800222A
