:02000004C0DE5C
:1000000080B56F4606F066FC012005F02FFFFEDE8E
:10001000F0B503AF4DF804BD0C460949094E05463D
:1000200079447E44B04705F140002146B047064977
:100030002846324679445DF804BBBDE8F0401047DD
:10004000DC8700006B000000C9870000F0B503AF3B
:100050004DF8048D86B00446067814F8808F054666
:100060003046414600F056F800280CBF2C46464664
:10007000F0B2A52801BF04F1400006B05DF8048B82
:10008000F0BD002069460090204600F09FF9FEDE9A
:10009000012206F0BBBE80B56F46C6B000204FF40B
:1000A00089718DF8170101AC204607F00BFE204640
:1000B0004FF4604105F0E0FC002005F0D7FEFEDEC5
:1000C000F0B503AF2DE9000D9AB002AD88460446A5
:1000D0004021284607F0F6FD12AE20214FF0200AFD
:1000E000304607F0EFFD2120414605222B460096C1
:1000F000212606F095FE04F10800294606F0D3FA01
:10010000284605F05DFBC4F804A026701AB0BDE8CF
:10011000000DF0BDC0B2A5281CBFC9B2A52903D1EE
:10012000A53818BF0120704780B56F4604F071FDF7
:10013000FEDED4D4F0B503AF2DE9000D90B0006819
:100140000C460122D0E90085D1E90501CB6835498B
:100150007944984706460120002D4FEAC67153D0D6
:10016000CDF8088009B1012649E0D4F81CA0C007E9
:100170005FEA4A710ED440B9D4E905010222CB6886
:100180002949794498470028EDD102A8214605F075
:1001900085FD33E0D4E9052B50B1DBF80C30104677
:1001A000224901260192012279449847019A30BBE5
:1001B0000120CDE9032B07F83D0CA7F13D00059088
:1001C0000DF11C0CCDF838A0194878440D9003A807
:1001D0000C9094F820008DF83C0094E84F00ACE8B7
:1001E0004F0002A807A905F059FD0028BBD1DDE9A1
:1001F0000C010222CB680F4979449847064608F162
:100200000108013D0020A7E709B1012006E0D4E97B
:1002100005010122CB6808497944984710B006F0DF
:10022000E2B900BF498C0000078C0000F08B000091
:10023000568A0000988B0000828B000080B56F46C4
:100240008EB006F06FFA07220748079178440B90AA
:10025000022005920990054A0290684600917A446E
:1002600006F014FA0EB080BDF9860000E0860000AA
:1002700080B56F468EB000F0BBFB002101228DF8E7
:10028000341002210D230991079205930C4B029122
:1002900008217B440493009200288DF8182018BF91
:1002A00007210C91074808497844794418BF014652
:1002B0000B916846022105F055FD0EB080BD00BFD0
:1002C000988600008F8600006386000080B56F4628
:1002D00088B0012004218DF81C0006910549019089
:1002E000794405910221039101A8012105F03AFD0D
:1002F00008B080BD6985000080B56F468EB006F0FD
:1003000011FA08220748079178440B9002200592C1
:100310000990054A0290684600917A4406F0B6F9C1
:100320000EB080BD1D860000BB8500007047704781
:10033000027801212B2A16D02D2A4FF0010217D066
:10034000D0B502AF002300215A1E18BF0122012B95
:100350000CD0C45C303C092C07D801EB810101337F
:1003600004EB4101F0E7012202E00121BDE8D040A9
:100370001046704700B1704780B56F4602482B2188
:10038000784404F04BFCFEDEDB88000008B9084628
:100390007047E0B502AF0448791E044A78447A44B5
:1003A00004F041FCFEDE00BF5C9D00007284000092
:1003B000F8B504AF009202A803AA034979440B469A
:1003C00004F040FCFEDE00BF64840000F8B504AF1A
:1003D000009102A803AA034979440B4604F032FCB9
:1003E000FEDE00BF28840000014600F17F021020DD
:1003F000222A15D8DFE802F0121E20222426282AFD
:100400002C2E30321D1D1D1D1D1D1D1D1D1D1D1DD4
:100410001D1D1D1D1D1D1D1D1D3436000120704795
:1004200011F1BF0204BF0D207047DF3104BF00206F
:1004300070477047022070470320704704207047C0
:100440000520704706207047072070470820704736
:10045000092070470A2070470B2070470C20704716
:100460000E2070470F20704700F0C001802904BFA4
:1004700004207047402904BF0220704709B90120B9
:10048000704700F03F0005307047D4D4F0B503AF9B
:100490004DF804BDA0B10546D0E9000614460A4651
:1004A0003146234601F0D2FD80B240F601024EF6FD
:1004B0000171884208BF32196A605DF804BBF0BD63
:1004C00002482B21784404F0A9FBFEDE9787000048
:1004D000B0B502AF0C460546D0B2D9B22A46234683
:1004E000BDE8B04005F04EB94268037B9A4281BF37
:1004F000591C01730068C15C00209A4288BF01202A
:100500007047D4D4F0B503AF2DE9FC0D8246D1E994
:100510000560C4680D4631490D2230467944A04734
:1005200000284FF001084FF00100009544D1287FCA
:1005300040071BD42A49304603227944A047D0BB48
:10054000D5E905010422CB6826497944984790BB38
:10055000D5E905010222CB6823497944984750BB6D
:10056000D5E90512504600F0CBFE25E01F49304684
:1005700003227944A04701460120E9B9D5E90512D3
:1005800002ACA7F1190307F8190C0EC402A8042243
:100590001749794404F068FD68B902A81549022298
:1005A000794404F061FD30B902A9134A50467A44F7
:1005B00000F0A6FE58B101208DF8040068468DF8C1
:1005C000058004F033FE06B0BDE8000DF0BD02A8C2
:1005D0000A490222794404F047FDEDE71483000044
:1005E0004C880000FB820000318800001B8800005E
:1005F000B3820000EB87000072860000BC87000019
:10060000F0B503AF2DE9F00D03910646107B51685C
:10061000BD68814202D1B58073805FE093465FEA96
:100620000548029302D00398047904E0584605F087
:10063000DDFF039804712046FFF716FF052803D954
:100640000020707001204AE0824614F0C00001963C
:1006500003D0402818BF802812D1B8F1000F13D161
:10066000A00664F03F0058BF04F03F00182101EBE2
:10067000CA01012501F0180188400399086003E0D0
:10068000ADB2012D98BF0125ACB2E0435044C60085
:100690000398D0F800809BF80C00DBF8041081422E
:1006A00011D054450FD2584605F088FF06F01800C7
:1006B000E9B2083E013401FA00F048EA0008039864
:1006C000C0F80080E7E7544508BF4FF0FF34019EB3
:1006D0000298B48008BF4FF0FF3070800020307067
:1006E00005F08FBFF0B503AF2DE9F00D0C460546C0
:1006F000107B5168D7F80880814203D1A5F80480A7
:100700006B8057E016465FEA084001A919C102D084
:1007100094F802A009E03046FFF7E6FE00F0010081
:100720008A46FFF727FE84F802A05046FFF79CFE9A
:10073000042803D90020687001203CE0834601981A
:10074000009528B103981FFA88F4B0F800A00CE0D7
:1007500018200AF03F0100EBCB00012400F0180044
:1007600001FA00FA0398A0F800A0E04358444FEAC9
:10077000C00805F094FF12D05C4510D2304605F059
:100780001DFF08F01800E9B2A8F10808013401FAC9
:1007900000F04AEA000A0398A0F800A0E9E75C45E7
:1007A00008BF4FF0FF34009D0298AC8008BF4FF0A7
:1007B000FF3068800020287005F023BFF0B503AF3C
:1007C0004DF804BD0D460446107B5168814201D1AD
:1007D000B8680CE01046FFF787FE00F001000E46F7
:1007E000FFF7C8FD4FF6FF734FF6FF702E70A08025
:1007F0000020638020705DF804BBF0BDF0B503AF4E
:100800002DE9C00DB7F808B016460025019301EB9D
:100810000B08CBF1210A009005F041FF0CD05545A3
:100820000AD2304605F0E2FE0BEB0500212815D276
:1008300008F805400135EFE700990020087005EB46
:100840000B00212808BF4FF0FF308880019808BFB7
:100850004FF0FF304880BDE80C0DF0BD212104F0C1
:10086000B7FAFEDEF0B503AF2DE9F00D83468C68D4
:10087000B868984616460D46B4F1FF3F1EDDD5F820
:1008800000A054450CD205F00AFF09D03046FFF70E
:100890002BFE00F00100FFF76DFD0134AC60F0E7C6
:1008A000544507BF4FF0FF30CBF80200B868ABF8F3
:1008B000040018BFABF80280002022E00090A7F1EE
:1008C0001E00294632464346FFF79AFE17F81E0CD3
:1008D00028B117F81D0C8BF80100012011E037F842
:1008E0001A0C4FF6FF7337F81C1C01EA00029A42FB
:1008F00002D10024AC60C2E7ABF804000020ABF8E2
:1009000002108BF8000005F07CBEE0B502AF00F1EC
:100910002801083000906846019105F047FA8CBD27
:10092000B0B502AFC0B06D46044628464FF48071A2
:1009300007F033FB28464FF4807106F03BFA20465F
:1009400029464FF4807207F0A3F940B0B0BDF0B56E
:1009500003AF4DF8048DC0B06C4680462046154666
:100960000E46FFF7DDFF204631462A4600F012F81A
:1009700005F064FE04D16946404600F019F804E031
:100980000121A8F8020088F8001040B05DF8048B3F
:10099000F0BDD4D480B56F4606F020FA0349002894
:1009A00008BF01F57061084680BD00BF01E0FFFF90
:1009B000F0B503AF4DF804BD88B06E460D46044651
:1009C0003046202107F07EF92846314606F001FA2C
:1009D00020B14EF201006080012004E0601C6946F5
:1009E00005F061FE0020207008B05DF804BBF0BD8A
:1009F00080B56F4600F072FCFFF728FB007805F029
:100A000077BED4D4D0B502AF044606F05FFA0648EC
:100A1000784405F0D5F90548784405F0D1F9A047A8
:100A2000BDE8D04006F05ABA48840000388400007F
:100A300001487844FFF7E6BF3BF8FFFFC0B2032848
:100A400011D8DFE800F00208060C09487844FFF7E7
:100A5000D9BFFFF7EDBF07487844FFF7D3BF06487B
:100A60007844FFF7CFBF80B56F4604F0D2F8FEDEC2
:100A7000A9F8FFFFE1F7FFFF69F8FFFF80B56F46B8
:100A8000ADF5956D4FF0000B4FF489718DF85FB1A6
:100A900013AC204607F016F958AD142105F5E8709F
:100AA000099007F07AFA05F1D000CDF820B2ADF840
:100AB00060B10790FFF734FFDFF8E407CDF82CB200
:100AC00048448A90DFF8DC078DF844B34844D2905C
:100AD0000020ADF850B3CDF84CB3FFF7AFFFD6AE62
:100AE000A7F17408301D0E9008F108000B9008F172
:100AF00004000D90B01C0590A7F12800DFF8A8A70E
:100B00000330069006F1080008900020129017E0CC
:100B100005F094F908B905F097F93046802105F001
:100B200089F99DF85813A1F10E0008281ED8BDF8C8
:100B30005913DFE800F005122E3B3B3B3B3B3700EF
:100B40003046802107F0BEF809EB0A0009F80AB028
:100B500080F806B0A0F802B0DAE788B2B0F5807F7E
:100B600004BF9DF85B0304F02DFF1FE005291DD194
:100B70009DF85B139DF85C0140EA5102490800288A
:100B80008DF85C216FD0002900F0838003290DD1FE
:100B900047E108BA000C022808D92046314604F083
:100BA000D7FE03E02046314604F0AAFE19F80A00F9
:100BB0000028ADD009EB0A0040880028A8D00428FE
:100BC0008DF85FB1549005D2204646F6036104F0DB
:100BD00053FF9DE74046214604F02EFF57F8740C62
:100BE00050B39DF84C00B02804BF9DF84E1000296A
:100BF00028D09DF85D1119B19DF85E11884254D13D
:100C0000139DC5F30720002800F08C80022818BF30
:100C1000012800F087805598810840299FBF6E21E8
:100C200021545598013098BFB0F5827F80F02E8313
:100C3000012105F00EFD6BE737F8701C204604F02B
:100C40001BFF65E79DF84F100029D2D19DF84D009C
:100C5000012830D0A72800F01C83204646F6016109
:100C600004F00AFF54E70329A0D80FF21005022070
:100C700005EB810501220023AF4600BF00F006B856
:100C800000F0D2B800F0D3B800F0D4B88DF85CB161
:100C90008CE701288DF85CB100F0C580022800F0D7
:100CA000C58003287FF482AFC3E020464FF4DC41C7
:100CB00004F0E2FE2CE7559A01208DF84C00501C00
:100CC0005590901CB0F5827F80F0E0822118C2F52B
:100CD0008172012006F0B4F801465598B0F5827F84
:100CE0003FBF215455980844421C3EBF55920230E4
:100CF000B0F5827F80F0CA82211840F20310821A78
:100D0000022006F09DF801465598B0F5827F80F0EC
:100D1000BD8221545598084401305590204604F076
:100D2000CAFEF5E6549878B3F6A8142106F0CAFF77
:100D3000E8B280282AD1280AC0B250B3012858D17D
:100D40003046214604F078FED698002866D0D79920
:100D5000F6AA05F0E7FA002800F093809DF84F30DE
:100D600000209DF84E20032B88BF0120111F18BFC3
:100D700001210F921A430C9300F0E980084300F020
:100D8000E68046F60265CCE0D949CCE04FF4DC457C
:100D9000C7E0D8487844FFF7CBFA00F00100109183
:100DA0001190D54D7D44A847D4487844FFF7C0FA48
:100DB00000F001000F91A8472A46DDE910502946AE
:100DC00090470F9920468DF85913314603228DF82C
:100DD0005A538DF8585304F08BFE0025204604F03A
:100DE0006AFE280A00F0AF8000201290FFF726FE6E
:100DF000A9E03046214604F01FFED69971B19DF856
:100E00004403D79A00283FD0012840F085809DF800
:100E10004E0001285AD046F602657FE0BDF85C53CB
:100E20007FE0022006E00323184603E00422104678
:100E300000E0052005283FF683AEDFE800F0040956
:100E4000030E11197CE6AE48784404F0EBFF77E618
:100E5000AC48784404F0E6FF72E61298013801E0ED
:100E60001298013000F003001290FFF7E7FD67E6EB
:100E70001298C0B2022800F0DC8103287FF460AE33
:100E80000AE246F603654CE046F60365172A45D3A9
:100E90009DF84E00002841D111920846099A0D464E
:100EA000142105F03FFA002800F0A18001208DF800
:100EB0004403A87D012804D1FFF79AFD002800F023
:100EC0002381119805F11401A0F1140258A8D2ABA6
:100ED00001F008FF054680B24EF6017188421DD12F
:100EE0009DF8440302287FF478AF07993046FFF756
:100EF0005FFD9DF85803002800F0B180BDF85A034B
:100F00001190012558A801F0D7FE002D00F0EC80CB
:100F1000119845EA004106E04FF46F4558A801F0EA
:100F2000CBFE2804411C55988208402A9FBF0A0E18
:100F300022545598013098BFB0F5827F80F0A68189
:100F4000090C05F086FB1298FFF778FDF8E50F987D
:100F5000002841D0F6A9304601F0C3FD9DF85803A2
:100F6000202841D09DF85913482210911190DDE9B5
:100F70000D01BDF85A5306F087FE0B99119807F83A
:100F8000740C30460A9527F8725C109D07F8735C64
:100F900001F0F2FDFBA8002341F20551202B05D002
:100FA000F25C01EB411101331144F7E741F001011B
:100FB0000F9B0ABA110C81EA122181EA1261514099
:100FC000CAB2B2FBF3F101FB13210C9A914211D08A
:100FD000FA980130FA90BDE7F6A9304601F081FD9C
:100FE0009DF8580320280DD1BDF85A5399E7AF4812
:100FF000851C93E70D9905F08FFB1198202813D1DC
:101000000A9D8EE711904822BDF85A030A909DF878
:1010100059031090FBA80E990D4606F035FEFA997B
:101020002846109D0F9102E0FA980F900E98FBA9A8
:1010300005F072FB0A9841220899ADF85A031198FD
:101040008DF8580320468DF8595304F051FD0F9840
:101050004146042200BA47F8740C2046BBE60E99BC
:101060001D229DF8590311904046BDF85A5306F0D1
:1010700001FE069841461D2206F0FCFD1198A7F1DD
:10108000280107F8280C304627F8275C01F0C0FC3F
:101090004046314601F0EAFC30464146402201F02C
:1010A0003FF9D698002800F07A80D79905234EF2B0
:1010B0000105CDE9D8010520D7903046814A0121AC
:1010C0007A44D69201F020F805F5706182B289B2B7
:1010D0008A427FF415AFFBA80999FEF7F1FFFC984F
:1010E00021285FD2032565E04FF4807576E600BFC6
:1010F0000100036EB67B0000E5F5FFFFA17B000059
:10110000807F0000927F000005F0E0FE00250221B4
:10111000FB958DF8F05347F8281C8DF87053DB953C
:101120006348D8917844DA900120D690A7F128003E
:1011300047E91B601D2047F8700C5E48784447F86B
:10114000740C4046294604F051F9FBA804F09CF8C1
:10115000C1B20629F9D00529F7D857487844DFE805
:1011600001F0060403090F1AEFE75448784404F02D
:1011700059FEEAE704F03EFE013D38BF5D46E0E778
:101180004F48784404F036FE57F8281C681C884203
:1011900038BF0546D5E74EF20100C51CBEE6BDF8D6
:1011A0005C03ADE6312801D2042503E0092541287E
:1011B00038BF05254046482106F084FD4820A7F1A8
:1011C000280347E9020B2020CDE90008A7F1080019
:1011D0000290381F0390FBA840F201612A4605F0F7
:1011E000EEFD28B1FBA8FFF790FB4EF2010087E669
:1011F000059D41464822284606F03CFD57F8080C5C
:10120000294611904046482206F034FDFBA8FFF71E
:101210007CFB3046414605F07FFA119900203246AA
:101220004823002504F0AEFA05F01AFA04F060FC39
:1012300068E600F053F80546FEF708FF0078224AFA
:10124000224900287A4428467944119118BF0A4659
:10125000129515F8801F00781092FEF75BFF0F9033
:1012600000282846129918BF08461099FEF7D0FEAC
:101270000F980028129808BF054611992846FEF7D6
:1012800007FFFFF7D5FB0220FFF740BC05F017FA78
:10129000FEDE13A804F00FFC002004F0E7FDFEDEE4
:1012A000000A0000000200000420000001E0FFFF2F
:1012B00090900000307A00006C7C0000787C000088
:1012C000627C0000F97900002F770000B4750000FF
:1012D00080B56F46FEF7DFFEFEDED4D480B56F46E4
:1012E000054849464844401A044979440844BDE841
:1012F000804005F041BD00BF0000000012910000D9
:10130000F0B503AF4DF804BD00780E460F49052433
:101310007944DFE800F01203070B0F000C490C249E
:1013200079440AE00B490B24794406E00A490B246E
:10133000794402E0094904247944D36830462246BE
:101340005DF804BBBDE8F040184700BF3C760000E4
:10135000317600003576000038760000097500000F
:10136000027801460120C32A0AD0B1F84420012A9C
:1013700098BF0246B1F94810B1F1FF3FC8BF10460F
:101380007047D4D4F0B503AF2DE9000DA2B0884664
:1013900031F8444F1E460123012C924698BF1C464B
:1013A000B1F90420B2F1FF3FD8BF1C46B3B29C4252
:1013B00040F222841690B2F1FF3FB86840F32184D6
:1013C000B8F842004FF6FF75B8F84030AB4208BF9E
:1013D000A8421DD10020C2210023C8F8240088F8AB
:1013E0000010511C88F83A00A8F8380088F8360038
:1013F000A8F8340088F83200A8F83000A8F83C00BB
:10140000C8F82700A8F82C50C8F84000A8F84810E1
:1014100008F11401029108F11A01149108F1100168
:10142000139108F10901129108F10201039108F1E9
:101430000401159108F10101119108F13C0110918D
:1014400008F13D010F9108F130010E9108F13401CE
:101450000D9108F138010C9108F1280104914FF029
:10146000010B9AF80C10DAF804208A4200F0D583B8
:10147000B8F828200624012A98BF5A46B8F92C103B
:10148000B1F1FF3FC8BF541DA4B29AB2A24280F08E
:10149000C983042A0AD8DFE802F00321292F350086
:1014A000009019A81099524600231CE0B1F1FF3FAB
:1014B00066DDB8F824400196AC427AD1189AB8F8A3
:1014C0002600A84201BFC22088F800000024C8F806
:1014D000244004BF481CA8F82C006BE0009019A819
:1014E0000F9952460123FFF769F912E0009019A8FD
:1014F0000E99524602230AE0009019A80D9952460F
:10150000032304E0009019A80C9952460423FFF726
:10151000E9F89DF86400002840F0AC83BDF868103D
:10152000BDF8663003EA0102501B18BF0846B8F840
:101530004010AA4208BF4B1CB8F8284099B2012CB1
:1015400098BF5C46B8F92C50B5F1FF3F4FF0060547
:10155000C8BF651DACB2A1424FF6FF7508BF284653
:10156000A8F8420008BF2B46AA42A8F8403040F035
:10157000548303EA0001A9427FF473AF00F06ABB11
:1015800000901CA804995246FFF7ACF89DF8700033
:10159000002840F06B83BDF87420BDF8720000EAAB
:1015A0000201A94200F00483ADF86820ADF866009E
:1015B000B4E7189ACDF85CA09AF80C00DAF8041099
:1015C000814200F0F3824046164604F0D0FFA1B2FB
:1015D00080B2814280F0268398F80040C22C40F00F
:1015E0000E81504605F002F8E0B2D42800F24B8399
:1015F0002246DFE810F0D600C502D500D500D500A0
:10160000D500D500D500D500D500D500D500D50032
:10161000D500D500D500D500D50035023A025802D4
:101620004E02C502C502D500D500D500D500D500B3
:10163000D500D500D500D500D500D500D500D50002
:10164000D500D500D500D500D500D500D500D500F2
:10165000D500D500D500D500D500D500D500D500E2
:10166000D500D500D500D500D500D500D500D500D2
:10167000D500D500D500D500D500D500D500D500C2
:10168000D500D500D500D500D500210221022102C8
:10169000D500D500D500D500D500D500D500D500A2
:1016A000D500D500D500D500D500D500D500D50092
:1016B000D500D500D500D500D500D500D500D50082
:1016C000D500D500D500D500D500D500D500D50072
:1016D000D500D500D500D500D500D500D500D50062
:1016E000D500D500D500D500D500D500D500D50052
:1016F000D5005102D500D500D500D500D500D500C4
:10170000D500D500D500D500D500D500D500D50031
:101710004803480348034803480348034803480371
:101720004803480348034803480348034803480361
:101730004803480348035E026002620264026602D4
:1017400068026A026C026E02700272027402760211
:1017500078027A027C027E02800282028402860281
:1017600088028A028C028E029002920294029602F1
:1017700098029A029C029E02A002A202A402A60261
:10178000A802AA02AC02AE02B002B202B402B602D1
:10179000B802BA02BC02BE02C002C202C702C9023B
:1017A00032460A9888F808000B98C8F80400059893
:1017B000129988F80300089888F80200BDF88400A0
:1017C00008809DF88600189288F80120139A887086
:1017D0000998C8F80C001F9810600798DDF87F1072
:1017E000A8F818000698C2F803100A2288F8170013
:1017F0001CA9149806F03EFA88F8004000E01896FC
:10180000E0B2A0F11201052912D9A0F1BB0107290C
:101810001BD9002836D0012834D04A2803D04B28C1
:1018200018BF4C2824D104F0D4FEFEF7E9FE33E0C3
:10183000DFE801F00303787D282804F004FF119904
:1018400004F0F4FE00F021FA26E04FF6FF764FF6A2
:10185000FF74DFE811F017002A002A002A005D005B
:1018600008000800E70104F0B4FE00F0A5FB13E057
:101870007E2864D08D2805D08E284FF6FF764FF64F
:10188000FF7412D1B8F8260004F0D0FEB8F8243066
:1018900011995246FEF792FF17F8360C002840F0D7
:1018A000DD8137F8326C37F8344C86EA050084EA7B
:1018B000050151EA000508BF2E46B8F8240008BF0C
:1018C000441C40464FF6FF7B1FFA84FA04F04FFE9B
:1018D00080B24146824508BF5E46A8F8266008BF30
:1018E0005C46002DA8F8244040F06F81A0B24FF66E
:1018F000FF7558451898DDF85CA088464FF0010B3D
:1019000002467FF459AEAE4202467FF455AE6BE11B
:10191000B8F82430B8F82600002B6BD0039904F0F7
:1019200085FEB6E704F055FEFEF79CFFB4E704F031
:101930008AFE039904F07AFE00F000FAACE7B8F9E9
:101940001820B2F1FF3F5BDDB8F81010B8F81200B4
:10195000A94208BFA8420CD100204FF0FF31C8E9CE
:101960000310511CA8F81810002188F80800C8F8C6
:1019700004009AF80C20DAF80430934250D009049D
:1019800040F0508100901CA8159952460023FEF7A4
:1019900069FF9DF87000002840F03C81BDF874207C
:1019A000BDF8721001EA020083B2581B18BF10463E
:1019B000B8F81020AB4208BF511C8AB2012A08BFF8
:1019C0002846A8F8120008BF2946AB42A8F8101014
:1019D00026D101EA000292B2AA42CAD1002027F819
:1019E000325C27F8345C4FF6FF7607F8360C4FF67A
:1019F000FF745AE71199524604F018FE002349E794
:101A000004F021FE00901CA80299FEF76BFE9DF8E1
:101A10007000A0B19DF8710007F8350C01201CE0A2
:101A2000B8F826600020B8F8244007F8360C27F8EC
:101A3000326C27F8344C38E700200A90A6E0BDF855
:101A40007400BDF8721001EA0002AA4200F0A08002
:101A500027F8320C002027F8341C07F8360C1DE755
:101A60000021002012241F9103E0002100201F917B
:101A70001324CDE91C118DF88610ADF88410069062
:101A8000CDF87F10CDE909000B900590CDE9070056
:101A900076E00420089083E60020CDF87F001F90B8
:101AA0004FF6FF70079000200A904FF0FF3009902A
:101AB0006BE08D2464E08E2462E08F2470E6902435
:101AC0006EE691246CE692246AE6932468E69424F8
:101AD00066E6952464E6962462E6972460E69824F8
:101AE0005EE699245CE69A245AE69B2458E69C24F8
:101AF00056E69D2454E69E2452E69F2450E6A024F8
:101B00004EE6A1244CE6A2244AE6A32448E6A424F7
:101B100046E6A52444E6A62442E6A72440E6A824F7
:101B20003EE6A9243CE6AA243AE6AB2438E6AC24F7
:101B300036E6AD2434E6AE2432E6AF2430E6B024F7
:101B40002EE6B1242CE6B2242AE6B32428E6B424F7
:101B500026E6B52424E6B62422E6B72420E6B824F7
:101B60001EE6B9241CE6BA241AE6BB2408E0BC240D
:101B700016E6BD2414E6BE2412E60020BF24089019
:101B800000220EE6C02400E0C12400200B9007E6EE
:101B9000B8F814000022A8F8182000287FF4D4AE6A
:101BA00027F8325C002027F8345C56E7019E14E0E9
:101BB000B8F8280000214FF6FF72A8F82C1004F0A6
:101BC00082FD7FF476ACFFF7EFBC019E4FF6FF7508
:101BD000DDE917A288464FF0010B1892B8F84210C1
:101BE000B8F84030FFF79EBC4FF6FF714FF6FF7319
:101BF0001890019EFFF796BC022103464170012117
:101C00003DE000901CA852463346FEF76BFD9DF860
:101C1000700048B19DF871002EE0169BB86898805E
:101C20005E8021E0022027E0BDF874104FF6FF70BF
:101C3000BDF8722002EA0103834212D1B8F84410C1
:101C40000022A8F8482000297FF4BAAB169B9880A0
:101C5000588009E0169B9D805D8005E017F8350CE3
:101C60000AE0169B99805A80002108E09DF87100D7
:101C70008DF865009DF86500169B0121587019705C
:101C800022B004F009BD0120F6E7F0B503AF2DE95D
:101C9000F00D8B461646117B5268BC688A4243D0D1
:101CA0002104CDE9013004D09BF800501FFA84FADA
:101CB00006E0304604F082FC8BF800504FF0010A39
:101CC00015F0C00008D0802808D040281ABF05F0C1
:101CD0003F000530022002E0012000E00420AAEBD2
:101CE0000008D34400240390A0EB0A00009004F005
:101CF000D6FC0ED018EB04000AD0304604F05EFC8F
:101D00000AEB0400212815D20BF804500134EEE749
:101D1000009C03985444844211BFDDE901304FF622
:101D2000FF734FF6FF740298002184804380017096
:101D300004F067BC212103F04BF8FEDEF0B503AFE1
:101D40002DE9000D8EB00D468346107B98465168F4
:101D5000D7F808A0814207D10020ABF804A0ABF867
:101D600002808BF80000E7E02C781646042C1FD187
:101D7000304604F03BFCE0B2811E022905D320B1BD
:101D8000012806D040F20110C4E009A8132105F093
:101D900099FF002014226873C5F80900C5F80500F2
:101DA000C5F8010005F10E0009A905F063FF2C70CC
:101DB000E0B2DFE800F003100303AD00C7F808A0AD
:101DC000691C5846324643460EB0BDE8000DBDE8DA
:101DD000F04000F0B7B8CDF818B0A81DCDE902A8C2
:101DE00096F80C80D6F804A00490A81C08950590DD
:101DF0005FFA88F0824500F09080089D069A6C8911
:101E0000022C00F291803CB1012C27D0022C40F032
:101E10008B80A88904990AE0A889059938B9B06827
:101E2000012247497944FEF731FB059900200090D3
:101E300009A832462346FEF755FC9DF824000028E9
:101E400074D14246D6F804A0347BBDF828B0BDF862
:101E5000268068894FF6FF75079025E0B5F80CB02D
:101E60004446688845010BE03046FEF73DFB00F034
:101E70000100FEF77FFA0BF1010B347BD6F804A0CA
:101E8000E1B21FFA8BF08A4518BF8542ECD8854233
:101E900042464FF001004FF001084FF6FF7508BFB2
:101EA000AB46079008BFA846306851462346FEF768
:101EB0000FFB0246B06804F020FC8BEA050088EABC
:101EC0000501084380B2002808BF8346079908BF70
:101ED00001F101081FFA88F1032908BFAB460899F0
:101EE000A1F80CB008BFA846A1F80A804FF6FF7110
:101EF00098B91FFA88F08842A0467FF479AF1FFA9C
:101F00008BF08842A0467FF473AF4FF6FF7006E077
:101F100040F20120ABF800000EE0DDE90210069A65
:101F200050800020918006E0022002E09DF825000C
:101F3000069A5070012010700EB004F0ADBB00BFC7
:101F40004F6B0000F0B503AF2DE9F00DB7F808B006
:101F500016464FF00008029001EB0B0ACBF120006F
:101F60000393019004F09BFB10D00BEB0804B4F139
:101F7000200009D0304604F021FB202C17D20AF8AB
:101F8000085008F10108EDE7DDF80480029900200F
:101F9000087008EB0B00202808BF4FF0FF30888046
:101FA000039808BF4FF0FF30488004F02ABB20465A
:101FB000202102F00DFFFEDEF0B503AF2DE9F00D9C
:101FC00016463A89D1F800B04FF000080190182069
:101FD000A0EBC20AC2F1040402930391009204F040
:101FE0005EFB13D0A04511D2304604F0E7FA0AF0A8
:101FF0001800E9B2AAF1080A08F1010801FA00F094
:102000004BEA000B0398C0F800B0E8E70199002004
:10201000087000984044042808BF4FF0FF308880C3
:10202000029808BF4FF0FF30488004F0EABAD4D4D9
:1020300080B56F464946401A034979440844BDE8D3
:10204000804004F099BE00BFC2830000F0B503AF2A
:102050002DE9000D8AB01C4692460E46FFF7E8FFB8
:10206000A519CDE900A4B5F5006F17D8B6F5006F36
:1020700019D8804630445146224604F0C7FE304607
:102080002946424600F01DF852462346CDE902019A
:1020900002F0DCFF68B14EF6017001E04EF2020082
:1020A0000AB004F0A0BA30464FF4006102F0CFFD50
:1020B000FEDE00206946049002A804AAFEF778F923
:1020C000FEDE814221BF0244091A1046704780B5E6
:1020D0006F4602F0BCFDFEDEB0B502AF0446B2F5BD
:1020E000006F04D94EF20200A080002009E00846EB
:1020F0001546FFF79DFF024600202946FFF7E1FF46
:1021000061602060B0BDD4D4F0B503AF2DE9000DFF
:102110009EB082467848CDE907230025784409908F
:1021200007200C46069075488DF828507844059095
:1021300004F0CCFE11958DF8485005A803F0DCF8AA
:1021400004F0CCFE11AD284603F09EF8C0B206287C
:10215000F9D003380228F6D804F0C0FE68484FF0E2
:10216000000BCDF838B0072178440F9065484FF048
:1021700000080C9178440D90634979440B9101213A
:102180008DF84010614ACDE9130B06207A44159270
:1021900012905F488DF8581078441190601E38BF37
:1021A00058460290601C0490013838BF584603908E
:1021B000042001901BAD17AEA04513D104F079FAAD
:1021C00011A803F099F804F089FE284603F05CF8A2
:1021D000C0B20628F9D003281BD004281CD005283B
:1021E000F3D17FE00498804519D104F062FA0BA87E
:1021F00003F082F804F072FE284603F045F8C0B2FE
:102200000628F9D005286AD00328F5D1DDF80C801E
:10221000D2E7DDF80880CFE7DDF81080CCE7A045F5
:1022200065D20320332219900AEB0810CDF800A0E4
:10223000C168CDF85CB0B1FBF2FA8DF860B00AF17C
:1022400001011A911AA91D9119A9CDE91B01019843
:10225000C0B2032818BFDA462846514603F03AF9BF
:10226000304603F011F8C1B20629F9D00429F7D895
:1022700028487844DFE801F0060403091100EFE77D
:102280002548784403F0CEFDEAE703F0B3FDBAF148
:10229000000F0ED0AAF1010ADEE72048784403F0CF
:1022A000A9FD1A990AF10100884211D038BF82466F
:1022B000D2E7B8F101004FF0030138BF5846B8F13A
:1022C000000F08BF042101918046DDF800A073E7EC
:1022D000042008F101080190DDF800A06CE74EF63B
:1022E000017001E046F604601EB004F07CB940467F
:1022F000214602F06DFDFEDEC46900009269000017
:10230000AC690000408000007A690000BC690000F0
:1023100090690000566B0000626B0000486B000083
:10232000DFB506AF044601A802F0D8FD019820B140
:102330004FF46F40A080002002E0DDE902016160FF
:102340002060DFBDF0B503AF2DE9000D8AB001AC10
:102350008846834621212046164605F0B3FC2046D8
:10236000212103F0B7FF304603F0CFFE60B1604893
:102370002121CDF8050030208DF8040048208DF88B
:10238000090001A8062298E03478204603F096FF61
:10239000A0B101AC21210922204600F02EFB554AB4
:1023A00009237A4402F076FD482021218DF811009E
:1023B0000E224F48CDF80D0020467EE0204603F067
:1023C000BBFE082814D8494C0138711C00224FF07C
:1023D000E80C00250028DCD011F8013B2D0245EA6D
:1023E0001265013843EA0222A31A7CEB0503F1D2FD
:1023F0000DF1040A2121504603F06CFF304651468E
:10240000212203F0A9FEB8B10E46122916D9A6F171
:1024100012040DF1040AA6F111000090504621218A
:102420002246334604F016F8212C5BD2A6F10B02AB
:102430002E200AF8040018E0002040E05046212138
:1024400000223346C6F114050095002404F002F87A
:102450002E203021A54207D0012C14BF0AF8041009
:102460008DF805000134F5E7082201A8212100F0CC
:10247000EFF94A1E3AB171B3835C013A302BF9D0BF
:10248000531C023201E0002301228B4228D2C45C9B
:102490002E2C08BF1A4600F0DBF901AE4C1D084691
:1024A00021232146324603F021FE134A05237A44B4
:1024B00002F0F0FC30462121224600F0C9F900F07C
:1024C000E9FA02460B465846414600F0CCF90AB0FC
:1024D000BDE8000DF0BD1046002102F079FCFEDEE3
:1024E0001846FAE720462121F7E700BFFF0FA5D4E1
:1024F00020414C50047E0000F37C0000D0B502AFB8
:102500000446084611461A4600F068FA04F0A8F896
:10251000BDE8D040FFF704BF80B56F4602F08DFBE9
:10252000FEDED4D4F0B503AF2DE9FF0D01902020DD
:102530000DF10C0CCDE9052001201D464FF0000BDC
:102540003A2400260490A7F11900039007F8191CFB
:10255000BBF1020F33D00CEBCB005CF83B800BF1EE
:10256000010B406840440290804525D028462E212A
:10257000324698F800A000F040FA51B102780139D3
:102580000AEB0222B2FBF4FA0AFB142200F8012B38
:10259000F3E708F10108BAF1000F0BD02E2E6DD031
:1025A0002D2E74D8BAFBF4F000FB14A18246A95575
:1025B0000136F0E70298D7E70DF10C0CC8E70020D0
:1025C0000021022913D063465CF831200CEBC103D3
:1025D00001315B68002BF4D012F8014B3CB92E2E70
:1025E0004CD02D2E53D8A855013B0136F2E7284692
:1025F0002E21324600F001FA2B4B7B4439B1027890
:10260000392A49D89A5C013900F8012BF6E7274CA2
:1026100028462E2132467C44A0474FEA510B0291B6
:1026200059465A460090A04723468246029C884657
:10263000009859465A462044A0EB540098474FF062
:10264000FF32002302EB5402541C0DD0984526D0D3
:102650008A4227D21AF803C0845C0AF80340013387
:1026600000F802C0013AEFE728462E21324600F07A
:10267000EFF818B1019A5160114604E001994EF249
:10268000020088800020086008B004F005B83046D9
:102690002E2102F09DFBFEDE10463A21F9E740466E
:1026A0004146F6E71046F4E74B7B0000E1030000EB
:1026B000B0B502AF0D46018961B101681446428987
:1026C0000846002100F08AF92A462346BDE8B040BA
:1026D00000F001BA0020B0BDF0B503AF2DE9000D48
:1026E0008AB0824600894EF60172002800F09C8074
:1026F000BAF80C408B46A14240F29A80BAF80A60C0
:10270000ABEB0400DAF8045001280FD10720514642
:10271000009003A8494B22467B4400F021F9BDF804
:102720000C0000284ED0BDF80E207DE00DF10C0805
:102730001221CDE90156404605F0C4FA4046122167
:10274000082200F05AF9404A08237A4402F0A2FB1A
:102750004046082100F0C1F903F082FF03F096FE25
:1027600068B30DF10C0801F10C0401F1080012230B
:102770002146424603F0BAFC324A04237A4402F06E
:1027800089FB4046214600F0A8F902460B46ABF112
:10279000010011461A4603F079FE80B10A1903A818
:1027A000122100F055F8024608A80B46514600F0E9
:1027B0005AF8BDF8200050B1BDF8222034E04EF2A6
:1027C000020231E0DDF81080CDE9015601E0DDF8CC
:1027D0002480DAF8006003A8029B00223146FFF74C
:1027E0008DFE039CF4B1049D03A8019A3146434633
:1027F000FFF784FE039AAAB10720049BCDE90545A3
:10280000012104900E487844039003A8FFF77CFC54
:1028100003F014FF11BF02460020AAF80800CAF80E
:10282000040001E0BDF8102010460AB003F0DBBE42
:1028300006483C21784402F0F1F9FEDE2C630000EA
:1028400045620000D1600000CB610000D46100004F
:10285000D0B502AF04460B46114600202246BDE823
:10286000D04002F08FBFF0B503AF4DF8048D804625
:10287000D1E900040D4621461E46FFF7E7FB03F0B1
:10288000DDFE0AD1A019C8F8040006F13F0020F0CF
:102890003F0020446860002002E0A8F80200012008
:1028A000A8F800005DF8048BF0BDD4D4F0B503AFF8
:1028B0002DE9000DACB090460A4600211D4600F0FF
:1028C0008DF80DF15C0B06460C462946584600F083
:1028D00008F99DF85C50202D01D1204830E00DF121
:1028E000100A0BF104010AF104004822CDE9014667
:1028F000CDF80C809DF85D60BDF85E8005F0C4F9F0
:10290000ADF812800AF108018DF811608DF81050B1
:1029100017AC204600F030F92AA8039B002122467C
:10292000FFF700FE2A9A3AB12B9BDDE9011000F077
:10293000D2F80021002209E0BDF8AC00000401300B
:102940004FF6FF71012220EA0101000A0002114343
:1029500080B208432CB003F046BE00BF010005E082
:10296000F0B503AF2DE9F00DBD68824600206E463C
:10297000934688468DF80C000D2102902A46CDE939
:10298000000030461C4600F038F822462B4602F084
:1029900081FA30460D212A4600F092F802460B4695
:1029A000114658461A4603F071FD58B14A19684657
:1029B0000D21FFF74DFF02460B4650464146FFF7FB
:1029C00052FF02E00248CAF8000003F01ABE00BF3E
:1029D000010002E00A464021FFF73ABFB0B502AF5E
:1029E00014460D46FFF724FB0246284621464FF4C5
:1029F0000063BDE8B04002F0C5BED0B502AF0446EA
:102A00000B46114600202246BDE8D04003F06EBBC5
:102A1000F0B503AF4DF804BD90B06E460D460446C8
:102A2000304603F043FE0020202814D0295C5722B2
:102A3000A02938BF302202EB111206F8102001F055
:102A40000F0157220A2938BF3022114406EB4002F9
:102A500001305170E8E7601C6946402205F00AF930
:102A60000020207010B05DF804BBF0BD0A781AB9E0
:102A70000131402205F0FEB8E0B502AF0348791EEF
:102A8000034A78447A4402F0CEF8FEDE76760000FF
:102A9000F05E000000B1704780B56F4602482B2100
:102AA000784402F0BBF8FEDEBB6100007047D4D46E
:102AB000084602490222794401F0F8BFF976000085
:102AC000914222BF1044891A704780B56F46104664
:102AD00002F0BDF8FEDE02F0B9BA0A461221FFF795
:102AE000EFBFF0B503AF2DE9000DB0B013AE8046D7
:102AF0003046FDF7E5FA9DF84C401DAD05F10800A4
:102B000041214FF0410A05F0DDF8204629463246C2
:102B10000123CDF878A08DF8744004F055F918B170
:102B2000FDF762FC05460CE0291DBDF876609DF8B6
:102B3000744048229DF8755001A805F0A5F8202C96
:102B400009D145F06E00C0B2A8F8020013A8FDF745
:102B5000DCFE20240BE008F1040001A903F0DCFDF9
:102B600013A8FDF7D2FEA8F8026088F8015088F893
:102B7000004030B003F090BDF0B503AF4DF804BD98
:102B800092B0A7F155060D460446701C013103F0C2
:102B90008AFD95F840000121212261F35F0007F8CA
:102BA000550C09AD31462846FDF7D1FE9DF82400AD
:102BB00038B9691C204603F076FD12B05DF804BBFD
:102BC000F0BD0448A7F11201034A78447A4402F0A8
:102BD0002AF8FEDE2E750000905F00007047D4D406
:102BE000D0B502AF0088A0F56042052A0CD9A0F547
:102BF000DC42042A11D8DFE802F003171B1F230070
:102C0000214C06227C4435E0DFE802F0031D21253B
:102C1000292D224C10227C442CE0B0F5104F26D1F7
:102C2000184C02227C4425E0184C06227C4421E00A
:102C3000174C07227C441DE0164C06227C4419E008
:102C4000154C7C4415E0164C0F227C4412E0154CC8
:102C500008227C440EE0144C14227C440AE0134CFD
:102C600014227C4406E0124C17227C4402E0114CF2
:102C70007C440D22D1E90501CB682146BDE8D04056
:102C8000184700BF655F0000875F0000655F0000B8
:102C9000635F0000625F0000625F00009B5F0000F6
:102CA000775F0000135C0000765F0000825F000029
:102CB0008E5F00009F5F0000B0B502AF00250446A4
:102CC00005801521C0F8C05000F5E87005F065F9E1
:102CD00004F1D0004FF4807104F06CF8C4F8CC50CB
:102CE000B0BDD4D4F0B503AF2DE9000DADF5087D2E
:102CF000FF2A399303D946F6036B01F04ABC80469C
:102D0000002077AB8DF8100108F1C800439003F163
:102D10003F000DF5C67A2A900AF13F0029900AF18A
:102D200001001A9003F1210019900AF12300349058
:102D3000581C119003F11700CDE9351208F1040B6E
:102D4000CDE9411210904BA802300F9003F11E0004
:102D50000E9008F18400329008F16900189008F193
:102D60001300179053A8CDF8F48003301390181D6A
:102D7000129008F14400339008F10E002B9008F1F6
:102D80000A00159008F11400309008F10D0025900C
:102D900008F12C00149008F17200209008F16400F2
:102DA0001F9008F13A001E9008F111001D9008F1E3
:102DB00009001C9008F18800289008F10600229074
:102DC00008F13400239008F10500379008F15C0009
:102DD000219008F112002E9008F138002F9008F190
:102DE00018002D9008F11000169008F168002C9042
:102DF00008F18A00319008F1B800279008F1080026
:102E00003F9008F10100389008F1AC00269008F5D9
:102E1000E8700D90CDF8E8B00020249000201B90C1
:102E20009DF810014299814201F0A28340464FF67D
:102E3000FF76B8F8C05003F054FA80B2854281F0B2
:102E4000718398F80000DFE810F007000700110018
:102E5000AE00A400BE006004B8F8C2002B4600908B
:102E600045A8389941AAFDF7A9FCA5E09DF81051A5
:102E7000429EAE4200F0CC855846B8F85040FEF76E
:102E80006FFA80B2844281F047839BF80000C32828
:102E90003DD1AE4211D9681C8DF810014198465DB4
:102EA0000120FDF767FA002E4FF6FF744FF6FF750D
:102EB0003FD0012E04D001F04DBB0020FDF75AFA9F
:102EC0003498002451462A22C0F803400460379801
:102ED00004F0D0FEC220A8F8404088F804004FF665
:102EE000FF71339888F83E40A8F83C40046088F8A9
:102EF0003A40A8F8384088F83640A8F83440C0F87E
:102F00000340B8F85040A8F83010A8F84C10B8F8B2
:102F100052005946009077A841AA2346FEF732FA9C
:102F20009DF8DC01002841F0F982BDF8E041BDF8D0
:102F3000DE514FF6FF7A84EA0A0085EA0A0151EA77
:102F4000000608BF3446B8F8500008BF451C584674
:102F50001FFA85F8FEF704FA80B28045DDF8F480A8
:102F600008BF5446A8F8524008BF55460DF5C67A2A
:102F7000002EA8F8505040F04B85A8B24FF6FF71D4
:102F8000884208BF8C427FF471AF4FF6FF7000F0AB
:102F900071BDB8F8C2002B46009045A8389941AAE7
:102FA000FEF773FE08E0B8F8C2005946009045A845
:102FB00041AA2B46FDF724FB9DF81401002800F0E0
:102FC0005D8501F0AFBAB8F9B040B4F1FF3F40F30E
:102FD0002485B8F8AA004FF6FF72B8F8A8109142FD
:102FE00008BF90420DD13298242104F06BFE0A20D4
:102FF000002188F80400601CA8F8B0000020C8F880
:10300000A8009DF810A1429E564500F0BE8789B2E7
:10301000022901F2878245D0012931D0002941F0EF
:1030200081821FFA80F83298002540444090C8F110
:1030300004003B909DF810013E9041983C905FFA4F
:103040008AF0864254D008EB0504211F4FD08642F7
:1030500007D93C990AF1010ACDF8F8A011F800B09F
:10306000FFE786424FF0000088BF0120FDF782F99C
:10307000032C01F29D82409800F805B00135DEE78F
:103080002899012300900DF58D7041AAFEF75AFF93
:103090009DF81A01002841F04582BDF81E01BDF8D7
:1030A0001C1136E03A980DF5C67B04780A2C40F0E6
:1030B000BE80564541F275820AF101008DF810017B
:1030C000419810F80A500120FDF754F9032D01F240
:1030D000298209240DF5A67A089EDFE805F0023F53
:1030E0004D705046152104F0EDFD062467E03B9D30
:1030F0003E984FF6FF718DF8100105EB080004288B
:1031000008BF08464FF0000108BF4FF0FF31DDF85F
:10311000F4804FF6FF7480EA040281EA04031A4344
:1031200092B2002A08BF1046B8F8A83008BF591C50
:103130008BB2032B08BF2046A8F8AA0008BF21467F
:10314000002AA8F8A81040F020878AB2A24204BF43
:1031500082B2A2427FF455AF01F07EB811981E21D1
:1031600004F019FF77A950461F2204F083FDFF20C9
:1031700007242490002622E00E9800252522C0F87E
:103180000350056077AC5846214604F073FD0F9854
:10319000C0F8035005604BA848A90CC80CC11E22FA
:1031A0000078087021461098C0F80350056050461A
:1031B00004F060FDC220052424904FF6FF761C9891
:1031C000002551461F2288F80850456005601D986B
:1031D000A8F8065088F8055004F04CFD249859468C
:1031E0002622C8F8365040F47F40A8F834001E98D4
:1031F00088F832500896A8F8306004F03BFD4FF68E
:10320000FF70A8F87050A8F8600009221F98C0E964
:103210000055C0F80750209848A904F02BFD4FF640
:10322000FF70C8F88050A8F87C0088F80440A01F00
:10323000C1B205294FF0020128BF0846C2B24FF6BD
:10324000FF714FF6FF70DFE812F0060096011200E2
:1032500005006D095DE7B8F8AA00B8F8A8303799FD
:1032600000900DF58D7041AAFDF7C8FA10E79DF8A2
:1032700010A14298504500F04482B8F97C40B8F85B
:103280007850B8F880B02146284603F086F980B21D
:10329000834581F04781012D4FF0010098BF05461D
:1032A000B4F1FF3FD8BF0546AB451AD2B8F882004B
:1032B0005B46009053A8239941AAFEF763F8DDE925
:1032C000410152469DF81031FDF702F9024643983C
:1032D00003F013FA9DF84C01002800F0078101F07B
:1032E00021B9B8F930104FF6FF75B1F1FF3F40F347
:1032F000E480B8F82800A84201BFB8F82A20AA4202
:10330000052088F8040001BF0020C8F8280001311A
:10331000A8F830101B9C9DF81011DDF808B18B4502
:1033200000F02281DDF8F480000441F0FB803A983F
:1033300090F80080B8F1050F24D18B4541F20F8140
:10334000419801F1010A8DF810A110F801800120C7
:10335000FDF710F8B8F1040F01F204814346DDE9EE
:103360000A25DFE808F018030315120000251221D2
:103370008DF82E51ADF82C5163A804F0A3FC002366
:10338000002208E08A46264622E00425234602E081
:103390004FF0FF3200233D9C002025990DF5C67C9F
:1033A0000B959E462073A060E071BDF82C0108804B
:1033B0009DF82E018870A57163710A92226130997F
:1033C0009CE86D006DC176464FF6FF7584F8048069
:1033D000DFE818F00E000600060016001E00C80800
:1033E00003F090F977A8379941AAFEF74EFC16E052
:1033F0005FFA8AF083451AD13D98418D008D2FE008
:1034000003F080F977A83F9941AAFDF72BFA06E06F
:1034100003F078F977A8229941AAFEF78FFC9DF86E
:10342000DC01002841F09E80BDF8DE011CE006D9D9
:103430000AF101018DF8101141990C5C00E00024A3
:1034400083454FF0000088BF0120FCF793FF601E0A
:10345000379903F049F908704FF6FF704FF6FF7186
:10346000ADF8E011ADF8DE01BDF8E01180EA05032A
:1034700081EA05021A4392B2002A08BF11463D9C18
:10348000238D08BF581C83B2012B08BF29466185D4
:1034900008BF2846002A208565D182B23446AA4258
:1034A0007FF439AF89B23446A9427FF434AF4FF686
:1034B000FF704FF6FF741B961CE0B8F882005B4665
:1034C000009063A8149941AAFDF70CF903F0B2F833
:1034D00041F02880BDF89021BDF88E0100EA02017C
:1034E000A94234D0ADF85021ADF84E01BDF85001DD
:1034F000BDF84E4104EA000A4FF6FF76BAEB060526
:1035000018BF05463D98B0F880803D98B0F87C1013
:103510003D98B0F8780003F040F8B24508BF08F1D4
:103520000104DDF8F48080B2A1B2814208BF3546C3
:10353000A8F8825008BF3446A8F88040B24540F051
:10354000E08004EA0500B0427FF491AED4E0B8F820
:103550002C0000214FF6FF72A8F8301003F0B3F8EA
:103560007FF4C7AEBEE734463D991B94B1F88200A4
:10357000B1F88040BEE79DF810014299814200F009
:10358000C080B8F8060001214FF6FF75012898BFEA
:103590000846B8F93440B4F1FF3FD8BF0846B8F840
:1035A0003630834280F0BE8763A8B4F1FF3F5CDD14
:1035B000B8F80C504FF6FF70B8F80A10814208BFF7
:1035C00085420BD12E9803F0AAF815980025611CAE
:1035D000C0F8035005602398018000219DF8102158
:1035E000429B93425BD089B2012900F29B870AD0AB
:1035F00063A8002940F096872E990023009541AAE0
:10360000FDF7FCF806E0009563A82B9941AA012379
:10361000FDF768F803F00EF840F08487BDF89021BC
:103620004FF6FF74BDF88E1101EA020083B24FF627
:10363000FF701D1B18BF1546B8F80A20A34208BF2B
:10364000511C8AB2022A08BF2546A8F80C5008BFB0
:103650002146A342A8F80A1021D101EA050292B23C
:103660008242BBD14FF6FF711DE02F99098800916E
:10367000229941AAFDF736F802F0DCFF40F05287AC
:1036800003F02BF8AA420ED1239800244FF6FF71C5
:1036900004802298008803F016F889D103E0B8F876
:1036A0003810B8F8360000EA01034FF6FF755A1BD0
:1036B0004FF0010618BF0A46B8F80610012998BF56
:1036C0003146B8F93440B4F1FF3FD8BF3146B8F8BD
:1036D0003640AB4208BF601C84B28C4208BF2A4609
:1036E000A8F8382008BF2846AB42A8F8360008D111
:1036F0001040A8427FF43FAF4FF6FF704FF6FF71C6
:1037000007E5B8F8AA00022103E5B8F9BC40B4F116
:10371000FF3F40F39E81B8F8B2B04FF6FF75B8F89E
:10372000B030AB4208BFAB4521D1319802F0F7FF72
:1037300004204FF0000B88F8680045213098C8E954
:1037400002BB88F812B0A8F810B004F0BBFA4FF032
:10375000FF300023C8F86400601C88F860B0C8F827
:103760005CB0A8F85A50A8F8BC00C8F8B0B09DF8F2
:1037700010C1429C644500F00184B8F8100001219A
:103780004FF6FF7A012898BF0846B8F95A5005212C
:10379000B5F1FF3FC8BF011D8EB299B2B14280F0B2
:1037A000C186022916D001290BD063AE002951D160
:1037B000CDF800B077A8319941AA0023FEF765FA49
:1037C00057E0CDF800B077A82C9941AA0123FEF765
:1037D000B5FA4EE01FFA8BF13820A0EBC1053F98F7
:1037E0004FF0000B0C91D0E90086C1F108003E902B
:1037F0009DF810013C9041983B905FFA8CF0844218
:1038000043D03E9A934540D2844207D93B9911F860
:1038100000A00CF101013C91409101E0CDF800C104
:1038200084424FF0000088BF0120FCF7A3FD05F0A3
:1038300038025FFA8AF0002104F016FA48EA00081C
:103840003F980E43083D0BF1010BDDF800C1C0E9C4
:103850000086D2E70322B5F1FF3FC8BF821C90B2B9
:10386000814251D9CDF800B077A8219941AAFCF73F
:10387000F9FF9DF8DC014FF6FF75002840F05286F5
:10388000BDF8E001BDF8DE310DE03C9802238DF873
:1038900010014FF6FF750C985844082804BF2B46BA
:1038A0002846DDF8F48003EA0001B1EB050B18BFF0
:1038B0008346A942B8F8B00008BF431CB8F81020EE
:1038C000012598B2012A98BF2A46B8F95A50B5F195
:1038D000FF3F4FF00505C8BF151DAAB290424FF635
:1038E000FF7508BFAB46A8F8B2B008BF2B46A94287
:1038F000A8F8B03040F0428303EA0B0080B2A8423F
:103900007FF435AF00F00ABCB5F1FF3F59DDB8F8E0
:1039100016004FF6FF72B8F81410914208BF90429B
:1039200008D13098452104F0CDF9681CA8F85A0058
:10393000002000214FF6FF759DF81021429B934215
:1039400055D089B2012900F2ED850AD0002940F056
:10395000E9852D990023009041AA3046FEF7F2FA3E
:1039600006E02F990123009041AA3046FEF78DF919
:1039700002F060FE40F0D685BDF89021BDF88E11B2
:1039800001EA020083B2581B18BF1046B8F8142091
:10399000AB4208BF511C8AB2022A08BF2846A8F8C9
:1039A000160008BF2946AB42A8F814101FD101EA3F
:1039B000000292B2AA42BFD14FF6FF704FF6FF73DA
:1039C00071E716993046CDF800B041AAFCF78AFE9F
:1039D00002F030FE40F0A68502F07FFE52450BD08B
:1039E0004FF6FF75ADF8E011ADF8DE0148E7B8F825
:1039F000B200B8F8B03056E7B8F8100000254FF61E
:103A0000FF71A8F85A5002F05EFE7FF480AFE7E73E
:103A1000B8F8C210B8F8C0002CE0B8F8C2002B46C5
:103A20002699009041AA5046FCF75CFE02F002FE87
:103A300040F0928502F01AFE1CD1B8F8AC000024C8
:103A40004FF6FF71A8F8B04002F03DFE7FF4C1AA26
:103A500010E0B8F8C2002B462799009041AA5046C2
:103A6000FCF740FE02F0E6FD40F0768502F0FEFD38
:103A700000F04883ADF81811ADF81601BDF8180133
:103A8000BDF8164104EA00054FF6FF7AB5EB0A06C9
:103A900018BF0646B8F8C000554508BF441C3D98FD
:103AA0001FFA84F802F01DFC80B28045DDF8F48036
:103AB00008BF5646A8F8C26008BF5446A8F8C040E0
:103AC00055454FF6FF7440F0538598F80000411EAD
:103AD000052900F2AF810DF5C67ADDF8E8B0DFE820
:103AE00011F00600AD01410011006800BF003898D8
:103AF0000078012800F07F81002840F08081E648AE
:103B000078447AE1399D5046389A29466C68FEF728
:103B100019FCBDF88C01002840F01285649B5046CA
:103B200029682246FEF7EAFC6398002800F0FD842D
:103B300064990A23CDE96501092064900121D748E1
:103B400078446390D64A50467A44FEF7DDFA02F094
:103B50002FFD40F01485399800214FF6FF74018144
:103B6000416065E100200B22CDF8E301CDE977004B
:103B7000DBF8000077A902F089FC002800F0E78458
:103B800002460B46114650461A46FEF7C9FB63989B
:103B9000002800F0CA8464990B23CDE965010A204E
:103BA00064900121BF4878446390BF4A50467A44EC
:103BB00034E1B8F8AA005E46B8F8A8106040614049
:103BC000084380B2002818BF002640F031810DF56F
:103BD000C67AD8E93212B8F8AC505046B8F9B040BD
:103BE000FEF77AFADDF88CB1BBF1000F00F09D848E
:103BF000AC4280F0EF8450462E21409454463E95CE
:103C0000649D04F05FF830780638C1B205294FF0A2
:103C1000020128BF0846C1B2032900F2E3844FF035
:103C2000000A0120DFE811F00400E504B8013703C1
:103C3000711C77AE21223046FCF789FE9DF8DC012D
:103C4000002840F0B4810DF5967A02F0E6FC02F00F
:103C50005EFD30460021ADF84D518DF84CB10DE3BD
:103C6000B8F8B200B8F8B0106040DDF8FCB06140C0
:103C7000084380B2002818BF4FF0000B40F0D880F6
:103C8000B8F9BC60D8E9321263AD2846FEF724FAD1
:103C90006398002800F04984399C099060680028E6
:103CA00040F09C840820DDF890A1009028467F4BCE
:103CB000214632467B44FEF753FEBDF88C013A267E
:103CC000002840F03D8464980BF18202069028465B
:103CD0002146CDF800A1D4F804A0FEF733FBBDF8CF
:103CE0008C01002840F02C84CDF830B09BF860B0F7
:103CF00064996068BBF1000FCDF814A03B9004916B
:103D000007D0BBF1010F00F05581BBF1020F40F06D
:103D1000698428462E2103F0D5FF4FF0FF30BBF118
:103D2000030F28BF83460C9859462B4600F16102C9
:103D300077A8FEF7F7FB779A002A00F03684789B85
:103D400053A83999FEF78FFDBDF84C01002840F0CB
:103D50002584DDF850B1DDF8E4A00C9B1889409073
:103D6000002800F0E281D8894FF6FF72998903F1AB
:103D7000100450405140084380B2002818BF00246E
:103D800040F03384DAF8040021463C902846FEF7E0
:103D90003FFE77AE29463046FEF768FE53A85146EF
:103DA00032464023FEF75FFDBDF84C01002840F08D
:103DB000F58354984E210C90DAF8040009902846B7
:103DC00003F080FF04F1200029464E2202F0C4F9DE
:103DD000FEF760FE02460B4630465146FEF743FDB5
:103DE000BDF8DC01002840F0E983DDF8E4A05E4680
:103DF000789807909CE12E487844072102E02D48EE
:103E000006217844CDE965010720649001212A4804
:103E1000082378446390294A50467A44FEF774F99F
:103E200083464EF601711FFA8BF0884240F0A7835B
:103E300098F80000DDF8E8B00DF5C67A0021C8F862
:103E4000CC10DFE800F0041C08240F3D85000120A1
:103E5000A8F8000077E0002088F80800C8F80400FF
:103E600003206EE00A202B2188F80400052088F842
:103E70000000329803F026FFA8F8B04063E000206D
:103E8000C8F85000C32088F80400022059E0389890
:103E900002F045FC042054E0C54E0000B54E000081
:103EA000B64E00003A4E00003C4E0000194C000097
:103EB000D44B0000D14B0000C74B00006B4A000000
:103EC000B8F9B00000283ED42699098859B180B2CB
:103ED0000139814237D1B8F8A800A04204BFB8F830
:103EE000AA00A0422FD1199802F019FC1A98452176
:103EF00004F051F817985146462203F0BBFE18987B
:103F000077A9422203F0B6FE0020042188F8681049
:103F10004FF0FF31C8E9020088F8BA00A8F8B800ED
:103F2000C8F8B00088F86000C8F85C0088F8120093
:103F3000A8F810000620A8F8BC40C8F86410A8F83B
:103F40005A4088F800000020C8F8C000FEF768BF9B
:103F5000B8F9BC000028F6D427990988002900F098
:103F6000048380B201398142EDD1B8F8B000A0429B
:103F700004BFB8F8B200A042E5D1F6E2B8F8C2003A
:103F8000B8F8C040ADF8180103E0B8F8C040B8F880
:103F9000C200ADF8164175E577AE59462A4630465F
:103FA000FCF7D5FC9DF8DC01002800F05B81BDF832
:103FB000DEB1E6E153A802F079FB099B4FF0000A5D
:103FC0004098C6241A1800200292A0EB0A019342DE
:103FD0003C9000F0DB8107912846402113F8018BCB
:103FE000099303F06FFEDDF8ECB0CDF80CA00AEBFE
:103FF0000B003E903998006840903E98834527D248
:104000000BF1400A409859465246FEF7E7FC002261
:10401000402A0CD0914200F09682835C08EB032387
:10402000B3FBF6F808FB0433AB540132F0E74098D9
:1040300059462A464023FEF709F802F0B9FA40F043
:104040009C82284602F032FBD3463A26C624D4E7A7
:1040500053A8079A4021FEF7D0FCDDF8F0C0DDF848
:104060000CA051B10278013908EB0222B2FBF6F83C
:1040700008FB042200F8012BF3E73998ACF1400E5D
:104080000068079053A9B8F1000F34D0BEEB0A00C6
:1040900002D0ACEB0A001EE03E900D463B982A464B
:1040A0004023CDF800E10AEB00010798CDF8F0C0FD
:1040B000FDF7CCFF02F07CFA40F05F82284602F068
:1040C000F5FA63ADDDF8F0C0DDF800E10AF1400A71
:1040D0003E983A26C624402880F07A82B8FBF6F350
:1040E00053AA03FB04810EF1010E0CF1010C98465A
:1040F000115453A9C7E7DDF8F4800EF14000099B85
:10410000029A62E7B8F8B80000244FF6FF71A8F8E9
:10411000BC4002F0D8FA7FF4FEAAABE4ADF8165129
:104120004FF6FF704FF6FF74ACE400205E463C9003
:10413000DAF800B063AD069B002228465946FEF728
:10414000DDF9639C002C00F0F081DDE904322846A3
:104150005946DDF890A1FEF7D1F96398002800F0E8
:10416000E4813B9A59463E9028463346DDF89081DB
:10417000FEF7C4F9639E002E00F0FD81409864991B
:10418000EB4A0028EB4D7A447D4447D0CDE9052128
:104190005946CDF800A13B9463A83C9A0C9BFEF7CE
:1041A000ADF9DDF88CA1BAF1000F00F0E4812C46E6
:1041B000649D63A8099A079B5946FEF79FF9639887
:1041C000002800F0D8816499CDE971010C2070902D
:1041D0000421D948CDE96DA578446F9008206C90F2
:1041E000D6487844CDE96A803E98699005986790F2
:1041F0000698CDE965600720CDE96340042068900A
:1042000063A83B9A409BFDF77FFF02F0D1F940F095
:10421000B48139980021DDF8F4809EE43E9853463D
:1042200069900420CDE967200720CDE9656102216E
:10423000CDF8A8812246CDE9635063A8FDF764FF5D
:1042400002F0B6F901BF39980022028142604FF6B0
:10425000FF74DDF8F480E6E5ADF816414FF6FF7027
:10426000FFF710BC0DF5967A02F0D7F902F04FFA7D
:10427000ADF84D5130468DF84CB1022153AA23467A
:10428000FEF750F9779900295AD0DDF8E0A1399866
:104290005246FEF70DFA3E994D1E40998D424EF65C
:1042A000017103D000284EF6017B6CD140998D42FC
:1042B00008BF90F0010035D039984099FEF70CFA0C
:1042C00002F076F95FD1DDF800B12E2152461FFAD7
:1042D0008BF03C9063A8FEF7BBFA024677A8399EA4
:1042E0000C4623463146FEF7BEFA3C98B0810120C9
:1042F00030813E98748101283AD1306863AA0D9BC1
:104300005146FEF7D3FAC10739D140F20111DDF869
:1043100000B10840B0F5807F399829D10021018192
:10432000416022E039990889002800F06581888978
:104330003E9C40B108462146FEF7CEF9834620E078
:10434000BDF8E0B11DE00868498963AA0D9BFEF73E
:10435000ADFAC10713D140F2011108403999B0F507
:10436000807FE7D10020088148604EF6017B08E09D
:104370005D454EF6017B04D139983E99DCE74FEA62
:10438000104B4EF601714FF6FF744CE539980468F6
:1043900053A8FEF71FFB02463B980B460AEB0001B1
:1043A0002046FDF753FE02F003F940F0E8803E940A
:1043B0003C9C77A8402C40F22581DDF8ECA0402100
:1043C00004EB0A0503F07EFC63A802F06FF9514686
:1043D00001958D4260D98E48A5EB010BBBF1410FD1
:1043E0000991784482465AD3079401F140023E9CD9
:1043F00002922046FEF7F2FAA5F14008834640916A
:10440000204641462A46FEF7E9FACDF80C804023C3
:10441000DDF8F48023B3409A1A44402A00F0D48097
:104420009BF800203A2A80F0CC802A9CCE181AF8FB
:104430000220402E1C44554604F8402C00F0838096
:1044400002783A2A80F0BD80299C55461AF802204D
:104450000BF1010B1C44013B013004F8402CD9E75F
:104460003E9C4023099963AA2046FDF7EFFD02F028
:104470009FF840F08480039D77AA20464023294678
:10448000FDF7E4FD079C83464EF6017180B2803C47
:10449000884202999DD072E0DDF8E4A02EE03E98BB
:1044A0002A46FEF79BFA77AAC1F1000C02EB040E34
:1044B0000026A31913D0B44545D002783A2A80F0DB
:1044C0008080013B402B80F082800EEB06031AF8BF
:1044D0000220554603F8012C0130013EE9E777A898
:1044E0005946FEF777FA02460B463E980999FDF7C2
:1044F000ADFDDDF8E4A002F05BF840D13C99DAF8BC
:1045000004003F3121F03F010844CAF8040063ADC4
:10451000DDF804B0FFF721BC022001E09DF8DD01C9
:104520008DF815014FF4604B29E0BDF890B126E0FD
:10453000CF460000C3480000D5480000AB4600004D
:10454000BDF88EB11BE0084600F042FCFEDE4EF2E4
:10455000020B14E00120E3E79DF88D01E0E7002065
:10456000FBF708FFDDF8F480DCE7022088F8E401BF
:104570004EF6017B03E0BDF890B1DDF8F480DDE993
:10458000351208F1D000FCF705FA02F057F818BF11
:10459000834658460DF5087D02F025B8BDF84EB1AA
:1045A000EDE70020FBF7E6FEBCE7BDF8E0B1E6E78B
:1045B0003E9804218DF810012046C5E7BDF8DEB114
:1045C000DDE710463A21BFE740980146BCE71846B0
:1045D0004021B9E70F482C21784410E00E482121F2
:1045E00078440CE0FDF798FFFEDE0D482B2178445F
:1045F00005E02E201121A7E704482F21784400F080
:104600000DFBFEDE054820217844F8E782440000D7
:10461000635D00007A440000C44300007C43000056
:104620006D46000081293EBF0844C1F180017047FA
:1046300080B56F460846802100F009FBFEDEF0B52C
:1046400003AF2DE9000D8CB003238DF82C3020230F
:10465000079308AC00230BC414690593002C039343
:1046600000923FD05069116895684FEA401820F0D9
:104670007840029101F1040B019003AEB8F1000FF4
:1046800054D0DBF800203AB1DDE90801CB685BF8D3
:10469000041C984700285AD1206904F1200AA16916
:1046A0000790207F0A9104F108018DF82C0028461C
:1046B00000F054F8CDE903012846214600F04EF8F9
:1046C000CDE90501616955F8310005EBC1014A6882
:1046D000314690470BF1080BA8F1200800285446FA
:1046E000CCD034E010680DF10C0802900024D2E91F
:1046F00002604FEAC00A20F060400190A24515D048
:1047000002982044426832B102980159DDE9080359
:10471000DB689847D8B9D6E90002414606F108059A
:10472000904708342E460028E8D010E00098019900
:10473000406881420DD2DDE9012050F8321000EBD3
:10474000C2004268DDE90803DB68984708B1012030
:1047500000E000200CB001F046BFD4D40A685AB182
:10476000012A07D1496800EBC1025268064B7B441D
:104770009A4203D000207047081D01E050F8310034
:1047800001680120704700BF43070000F0B503AF88
:104790002DE9000D9A461646884604460025A84590
:1047A00009D0DAF81020304621469047013500281C
:1047B000F5D0691E00E041460020414538BF012088
:1047C00001F011BFF0B503AF2DE9FF0DC4698B46B1
:1047D000B968064614F001004FF02B0500EB010A02
:1047E00008BF4FF488156007CDE90513079202D47E
:1047F0004FF0000B05E00BEB0201584600F088F883
:104800008244306870B3D6F80480D0452AD9200796
:1048100042D4A8EB0A0130460122012400F01AF923
:10482000B0F5881F2AD0D6E90568824607980C465D
:104830000090414630462A465B4600F0EAF8E0B96F
:10484000D8F80C303046DDE905219847A8B9504624
:1048500021463246434608B0BDE8000DBDE8F040B1
:10486000FFF794BFD6E905862A460798314600909F
:104870005B46404600F0CDF820B10124204608B048
:1048800001F0B1BEF3684046DDE9052108B0BDE89E
:10489000000DBDE8F0401847306901240390302036
:1048A00030615B4696F82000D6E905210290079812
:1048B00086F820400090104607922A46049100F0A6
:1048C000A8F80028DAD1A8EB0A013046012200F04E
:1048D000C1F8B0F5881FD1D0DDF810A08846079C3C
:1048E0000546DDE90521DAF80C3020469847002816
:1048F000C3D12846414622465346FFF747FF0028CA
:10490000BBD10298002486F8200003983061B5E7F7
:10491000F0B503AF2DE9F00D091A102962D3C21CBE
:1049200022F00302121A8E1AB5085BD000EB020BBC
:10493000594600F03DFA044626F00300584406F0BC
:104940000301014400F034FA00EB0408002D5CD0B0
:104950006C462B46204659462A46C02D28BFC02308
:1049600000F012FA9DE8060822F003032046039D9A
:1049700000F00AFADDE900210023DDE902EC02EB98
:104980008106B24211D0002104290CD052F8210036
:1049900001316FEA000A4FEADA1444EA901020F07D
:1049A000FE300344F0E71032EBE74FF0FF1000EA6F
:1049B000132123F0FF22BCF1000F114401EB014150
:1049C00008EB1148C2D04FEA8C02002192B15EF888
:1049D000043B043ADD43ED0945EA931323F0FE332B
:1049E0001944F3E7014404B0BDE8000DBDE8F04010
:1049F00000F0DEB94FF0FF1000EA112021F0FF2196
:104A0000084400EB004008EB1048404604B001F0B9
:104A1000EABDF0B503AF4DF8048DD7F808801C4609
:104A20000D460646B2F5881F06D02B693046114662
:104A3000984708B101200AE044B1EB6830462146AE
:104A400042465DF8048BBDE8F040184700205DF851
:104A5000048BF0BDF0B503AF2DE9000D884690F84A
:104A60002010DFE801F0100B020908F101024FEA03
:104A700058014FEA520806E0110603D041464FF0B4
:104A8000000800E00021D0E904A64C1C8569013C27
:104A900007D02A693046514690470028F7D04FF496
:104AA000881A50464146BDE8000DF0BDF0B503AF91
:104AB0002DE9F00D0646D0F8008080688B469246BE
:104AC00058EA00014AD040B3F068002103910BEB93
:104AD0000A01CDF804B0451C029101AC013D06D09D
:104AE000204600F051F8B1F5881FF7D115E001A874
:104AF00000F04AF8B1F5881F0FD030B1504506D20A
:104B00001BF9001011F1400F02DB594601E0FCD007
:104B1000002100291CBF82468B46B8F1000F1DD032
:104B20000BEB0A0158467468FFF7F2FE844215D970
:104B3000211A30460022FFF78DFFB0F5881F09D0FB
:104B4000D6E905658046EB680C4659465246304624
:104B5000984770B1012004B001F045BDD6E90501C8
:104B60005246CB68594604B0BDE8000DBDE8F040A0
:104B700018474046214632462B4604B0BDE8000D9A
:104B8000BDE8F040FFF702BED0E900318B422ED0E5
:104B9000F0B503AF4DF804BD1C4614F8011B0460CA
:104BA0004AB2B2F1FF3F2ADC5D789C1C01F01F0283
:104BB000DF2905F03F0504601CD99E78DC1CF02934
:104BC000046006F03F0646EA851516D3D97802F050
:104BD00007021C1D046001F03F0141EA851141EA12
:104BE0008241B1F5881F0AD14FF488110BE04FF4D0
:104BF00088110CE045EA821101E045EA0231826841
:104C0000D31A234483605DF804BBBDE8F04010462E
:104C1000704780B56F46FCF75BFBFEDE80B56F46E4
:104C2000FFF7F7FFFEDE80B56F46FFF7F2FFFEDE0F
:104C300080B56F46FFF7EDFFFEDE80B56F46FFF7EC
:104C4000F7FFFEDE80B56F46FFF7E3FFFEDE80B5BF
:104C50006F4600F001F8FEDE80B56F46FFF7D9FF22
:104C6000FEDE80B56F46FFF7D4FFFEDEE0B502AF93
:104C7000BC68009400F002F8FEDED4D4E0B502AFC8
:104C800016464FF4807298460C46054600F062F8CE
:104C9000D7F808A040B9A64203D8A04598BF46451A
:104CA00013D9FFF7B6FFFEDE0346A04204D2E85652
:104CB00010F1410FEFDC00E0EDD028462146002244
:104CC000CDF800A0FFF7D2FFFEDE2EB1A64203D240
:104CD000A85710F1400F00DB4646284621463246D1
:104CE00000F038F8024638B9A2420CD118482B21FE
:104CF0007844FFF793FFFEDEA24224D2A85610F1BB
:104D0000410FF1DC20E0A81890F90010B1F1FF3F4D
:104D1000C7DCC9B2E02928BFF029C2D3427801F02C
:104D200007018378C07802F03F0203F03F031203CB
:104D300000F03F0042EA8312104440EA8140B0F59F
:104D4000881FAED1D2E7CFD0284621462346B7E709
:104D50006B3F000080B56F46914210D90346D01ECC
:104D600038BF0020511C81420BD31A44091A29B1C3
:104D700012F90139013913F1400FF8DB01440846FB
:104D800080BDFFF764FFFEDED0B502AF9A4221BFBF
:104D9000D21A01EB830480E81A00C26028BFD0BD9C
:104DA000024823217844FFF739FFFEDE943E0000DD
:104DB00088420BD0091A0246002012F9013B13F178
:104DC000410FC8BF01300139F7D17047002070474B
:104DD00080B56F46FFF71DFFFEDED4D4F0B503AFFC
:104DE0002DE9000D8CB0294BA7F13F0E8C46002415
:104DF0007B4442F20F7842F2107A4FF0640B404548
:104E000016D9B0FBFAF50EEB040105FB1A00043CC1
:104E100086B2B6FBFBF606FB1B0033F81620A1F8A2
:104E2000232080B233F81000A1F825002846E6E7D9
:104E3000273463280CD981B26425B1FBF5F2023C1A
:104E400002FB150080B233F810002EF8040000E0D9
:104E500002460A2A05D2601E02F130010EF8001047
:104E600004E033F81210A01E2EF80010C0F1270144
:104E7000009107490EEB0003604600227944FFF7DA
:104E8000A1FC0CB0BDE8000DF0BD00BF4052000019
:104E900038530000D0B502AF0C46994201BF11460D
:104EA0002246BDE8D04002F0E5BE20461946FFF795
:104EB0008FFFFEDE0068FEE7D0B502AFC0B2002370
:104EC0009A4204D0CC5C844203D00133F8E700203E
:104ED00001E001201A461146D0BDD4D4F0B503AF8D
:104EE0004DF8048DD41F4FF00003844638BF1C4694
:104EF000C81C20F00300A0EB010E53487844804604
:104F0000934280F08780CE5C70B2B0F1FF3F17DD36
:104F1000AEEB0300800702D00133F1E70833A34270
:104F200008D2CD18C8586D68284310F0803FF5D0DE
:104F300000E001339342E3D2C8560028F9D5DFE7F9
:104F4000454618F80650022D0FD0032D15D0042D1C
:104F500066D15D1C954261D24D57F02E1AD0F42EC9
:104F60001ED115F1710F25DD5AE0581C904255D223
:104F70000D5615F1410F4BDD52E05D1C95424DD2AF
:104F80004D5DE02E25D06DB2ED2E27D115F1610FCC
:104F900037DD45E005F17000C0B230280AD33FE0AC
:104FA0000F300126C0B202283BD815F1400F4FF058
:104FB00001003DDA981C904230D2085610F1410FA2
:104FC00031DCD81C904229D20D5615F1410F1FDD5E
:104FD0002CE005F0E000A02813D021E000F11F062E
:104FE000F6B20C2E03D215F1400F0ADB18E020F0C8
:104FF00001000126123014D115F1400F4FF00100CD
:1050000016DA981C904209D20D5615F1410F0ADCB0
:10501000431C75E7CCE9011200200FE0002007E0F7
:105020000126012004E00120022601E001200326E0
:10503000F1B240EA0120CCE901300120CCF80000B7
:105040005DF8048BF0BD00BF8A3D000099421CBF93
:1050500000207047D0B502AF0C461146224602F040
:1050600005FE01F041FBD0BDF0B503AF2DE9000D09
:1050700090B04FF0000A0A239046CDE90DA201221C
:105080000791CDE90A820A46CDE90513002401689B
:105090004FF0000B029141688068ADF83CA00C9382
:1050A000CDF820800191039006A8183000900020D0
:1050B0000490BBF1000F40F08F80A0455AD30598B3
:1050C000A8EB040B0619BBF1070F07D800218B458D
:1050D0004DD0705C0A2835D00131F8E7F01C20F083
:1050E0000300B04201D100250AE0851B31465D4531
:1050F00028BF5D460A202A46FFF7DEFE012821D0A0
:10510000ABF10800854214D8715981F00A32A2F13E
:10511000013222EA01017219526882F00A33A3F1C6
:10512000013323EA0202114311F0803F01D1083517
:10513000E8E77119ABEB05020A20FFF7BDFE012875
:1051400015D129440819441C0994B6D04445B4D853
:1051500005990123009A08440121FFF777FF0028F1
:10516000ABD04FF0000B264625460D940FE0CDF84E
:1051700024804446049878BB0121012004905646BF
:105180008DF83D10C2454FF0010B454624D00398E1
:10519000007838B101980422C36811490298794413
:1051A0009847B8B90598B5EB0A0200EB0A0101D19E
:1051B000002005E0501810F8010C0A3801F094FAAC
:1051C000039B18700198C368029898470028B2465C
:1051D0003FF46FAF012000E0002010B001F003BAEF
:1051E000B3360000F0B503AF4DF8048D84688846EF
:1051F000D0E90056207850B1F36828460A490422C5
:105200007944984718B101205DF8048BF0BDA8F1EE
:105210000A00414601F068FA2070284632695DF8BC
:10522000048BBDE8F040104751360000D0B502AF06
:1052300004460079617911B128B1012015E00028F8
:1052400018BF0120D0BD2068017F490706D4D0E9EE
:1052500005010222CB680649794405E0D0E9050141
:105260000122CB680349794498472071D0BD00BF23
:105270003B3B00002C3B00000A4602497944FFF703
:10528000DEB900BF203B0000D0B502AF044600F0FD
:10529000D5FD08B900F0D8FD00F0D0FD28B32046B8
:1052A000042100F0C7FD20780528F5D1E1782079A8
:1052B00040EA51024908227118B169B1032909D0A5
:1052C00013E0032911D80020DFE801F0020E1104D9
:1052D00020710AE00220D0BD00210428217104D2EF
:1052E0000449C00021FA00F0D0BD0620D0BD012045
:1052F000D0BD00BF06030405F0B503AF2DE9FC0DDA
:105300000446007DDFE800F0020B19272046032148
:1053100000F09FFC206900283FD0224907E001F0FF
:10532000ADF9232300F024FC2069B0B31C4905919A
:10533000049004A800F044FD2FE001F09FF907233A
:1053400000F016FCD4E902B41526174D4FF0000A00
:1053500000227D441DE02046012106B0BDE8000D7D
:10536000BDE8F04000F075BC02F111082346584634
:1053700021460095A04538BF434600F017F80222A9
:10538000334600920322CDF808A000F0F1FB0E3660
:105390004246332A18BF9442E6D806B001F07CB9E1
:1053A0003900110039000A000E3B0000DCB504AFE3
:1053B000934210D342B18A4204D2845614F1400F72
:1053C00002DA08E0914206D163B18B4208D2C4569A
:1053D00014F1410F06DCBC680094FFF747FCFEDEC9
:1053E0009942F8D11044991ADCBDD4D4F0B503AF7A
:1053F0002DE9F00D0D468346D0E900012F4A7A448D
:10540000009205EB051202F111038B4228BF0B46F7
:10541000FFF7CCFFDBF8086080468A46D6E9040136
:10542000327E00F07DFB08B3B16802460220DFE85F
:1054300001F00A020509C2F17E0004E0C2F1800019
:10544000400800E0F06833680321DFE803F007025A
:1054500004061A2102E0312100E07168184B002493
:105460007B44CDE900430C2300F058FCC6E9048AD4
:105470001448784400F0BEFC1348784400F0BAFCAD
:105480001DB11348784400F09BFCDBF80C10681C3D
:105490000968884203D20D48784400F091FCD6E9AF
:1054A000040196E83C00367E8DE8700000F060FB59
:1054B000BDE80F0DBDE8F04001F010BD723A0000EC
:1054C00074470000E6390000D6390000B839000002
:1054D000D4390000F0B503AF2DE9000DD2B08B46F2
:1054E000804601F0F3FC36A9A04E002001227E4444
:1054F00002230024702C07D00D190A511C34287681
:10550000C5E90460AB60F5E706A836A9702202F091
:10551000BBFBD8E900100024D0F800A00190CDF822
:105520000CB00AFB0BF0D1E902B5CDF8088004916C
:105530000596BAF1000F44D0C0B11121A0FB0101C2
:1055400000293ED1A8423CD200F111015A468D42B9
:105550002B46884638BFA846814238BFA8464146F8
:1055600000F010F968B302460B4607E04DB34FF068
:105570001108112D38BFA8465A4643462AA811469D
:105580001A46FFF7ABFC542C00F0EB802AABC34467
:10559000A5EB0805AAF1010A0ECB06A80619002002
:1055A00086F83400002918BF0346059918BF0A463B
:1055B000022171620121C6E90B231C34F161059EB1
:1055C000B7E722A81521202202F0E3FC039ADDF8B8
:1055D000108092B90199D8F80C00096801EB01110B
:1055E00081420AD9D8F8041022AA002000F0D9F884
:1055F000D8E90023FFF74EFC54E0B24600268DF8B0
:10560000A260501CADF8A0608DF8A660ADF8A46053
:1056100028A900F08BFC044602980D4680680068BB
:1056200029A900F083FC01223592514BCDE93120AC
:105630007B44CDE933134F48CDE92E457844309073
:1056400002202D904C4878442C90D8E90001CDE9F7
:105650002A0100200DF1A808062E22D008EBC60171
:10566000C0F115054C68AC4238BF2546CDB105EBFD
:10567000000A22AA514600F094F858F836208346D2
:10568000049100202946234600F07CF80B4604993B
:1056900002465846FFF7FEFB50460136DDF814A0DF
:1056A000D8E756462AA822A91522FFF717FCDDE9FC
:1056B0002A022C99002814BF00211646B1B3731892
:1056C0000846194611F8014D62B2B2F1FF3F29DCDC
:1056D000194611F8025D6CB214F1400F11DA194647
:1056E000B44611F8035D6EB216F1400F0CDA13F8F0
:1056F000045D06F03F0105F0070541EA85151946EE
:1057000004E005F01F0306E005F00F0504F03F0379
:10571000664643EA851302F03F0242EA8314B4F579
:10572000881F03D0891B202CC8D000E00020012155
:10573000CDE90A6002208DF83010089006910F48DC
:10574000784400F03DFB0E48784400F039FB06A891
:10575000042100F007FB01F0C1FB52B0BDE8000DD1
:10576000F0BD04200421FFF733FBFEDEC64C000031
:1057700053380000463800003A380000183700005F
:105780000837000080B56F46814207D399429FBF1A
:105790000244091A104680BD08461946FFF757FA19
:1057A000FEDE80B56F46814207D315299FBF0244B4
:1057B000091A104680BD08461521FFF748FAFEDE9B
:1057C000E0B502AF009040300190684600F0EEFA7C
:1057D0008CBDD4D4F0B503AF4DF804BDA2B00446DF
:1057E00000F02CFB08B900F02FFB01AD802128460A
:1057F00002F068FA00F022FB38B32846802100F05E
:1058000019FB9DF80400BDF8056000F06BF8C0B20C
:105810000F2811D016280AD01028EBD130BA000C6E
:105820000228E7D92046294600F092F8E2E7204610
:10583000294600F065F8DDE7B0B2B0F5807FD9D138
:105840009DF8070000F0BEF8D4E71C4D19F80500DC
:1058500007281ED00A2823D1B4F80801532107F8DD
:10586000131C00BA010E000C07F8120CA7F113006C
:1058700007F8111C032101F0F9FAD4F808110020EF
:1058800022464FF4827300F01DF889B201F0EEFA5F
:1058900006E0B4F8081122460948784401F048FAB5
:1058A00009EB0501002009F80500C4E941008871F1
:1058B000488022B05DF804BBF0BD00BF04200000AA
:1058C000EB11000080B56F46814207D399429FBF1C
:1058D0000244091A104680BD08461946FFF7B7F979
:1058E000FEDED4D40138C1B2172984BFFF2070472F
:1058F000024940B27944085C704700BFC0480000CC
:10590000B0B502AF044611480A4619F8001001B1BB
:10591000B0BD0A217D2509F8001048440621817197
:10592000B2F8011009BA0B0C7D2B38BF0D0CE91C25
:10593000458003208023FFF7C5FF02460B46204623
:105940002946BDE8B040FFF7A5BA00BF042000001B
:10595000DCB504AF0A79012A1AD0CB78022A03F009
:105960007F041CD0042A28D1062C26D2134A00908A
:105970004A44134822444B79484413734FF48272CB
:10598000ADF804208A1D6B46214601F06FFBDCBD9B
:105990000B4806314844BDE8DC4001F03CBB062C16
:1059A0000BD206480022484400EB440042828A1D84
:1059B00003482146484401F0A6FBDCBD042000005A
:1059C00078200000D0B502AFFFF78CFFC0B20138DD
:1059D000072814D8DFE800F00414131A1313132057
:1059E0001348012109EB0004204601F00FFC20467A
:1059F00001F0F3FB0F4809EB0001897991B1D0BDAB
:105A00000B484844BDE8D04001F007BC0848484472
:105A1000BDE8D04001F0FDBB05484844BDE8D0409A
:105A200001F0F9BB484412210C3002F04BF9D0BD13
:105A30007820000004200000D1F80431042B05D1A7
:105A40000C4A00217A44C0E9002170470A7912B15A
:105A5000052300F034B8052BF2D0062B05D1002128
:105A6000016046F6036181807047B1F80520072385
:105A700000F025B87047000080B56F46D0F80821C7
:105A80009308402B9FBF0B0A8354D0F808210132A2
:105A900098BFB2F5827F3FBF8154D0F80811023120
:105AA000C0F808113CBFBDE88040FFF793BE104628
:105AB00000F005FEFEDE4FF41041FFF7DDBFB0B58C
:105AC00002AF04462AB10D469918D5F80401814267
:105AD00005D90020206046F60360A080B0BD1846BE
