:02000004C0DE5C
:1000000080B56F4606F0F8FA012005F079FFFEDEB4
:10001000F0B503AF2DE9000DADF5996D84460020D4
:1000200008908DF82400ADF83C008E4C0CAD7C445B
:100030001CC507220B9203238B4A8DF83E007A449D
:100040000A9210AE894D4FF490627D4434464AB115
:10005000C4E90050183AC4E902502061A082A37597
:100060001834F4E701950CEB01100290002502987A
:10007000844552D005EB4500332118224FF0000B88
:1000800006EBC0000590DCF80C004FF0000806906D
:100090000138B0FBF1F000EB4001013004900CF1AD
:1000A000100002EBC1010022079103900798AA46B5
:1000B000454458452DD0DCF8080002F1330672495A
:1000C00064467944009106998E420B4638BF334608
:1000D00005F012FB2F2D00F2BC80059B08F10108F2
:1000E000D4E9002C43F80B2003EB0B020223C2E9F6
:1000F00001C0002010612E2D04989375D16082F804
:100100001580107505D2A4460BF1180B32465546E2
:10011000CCE7DDF80CC010AEA9E7302D80F0998057
:10012000534905EB450000240723794446F8301075
:1001300006EBC001012088752F2D8C824D4A4B6043
:10014000019B7A44C1E902340A6100F0898005F11B
:100150000108494A08EB48017A4446F8312006EB89
:10016000C1010622887501F1040C8C824348ACE879
:100170001C007844086106F009FD47F8204C07F898
:100180001C4C0AA805F03EF9A7F12004204605F012
:100190001DF9C0B20628F9D003380228F6D8AB46BC
:1001A00006F0FCFC06F0F2FC35487844069005F0B9
:1001B0006DFE304605F026F908AC32484FF0000AD3
:1001C000784407900125204605F000F9C0B20628C2
:1001D000F9D0052805D004280CD000250328F2D139
:1001E0000EE0C2452CD0DA452DD0E8074FF00005CF
:1001F000E9D00BE05D46DA4598BF0AF1010A06E056
:10020000BAF1010A4FF0000038BF82465D4606F0A1
:10021000BDFCBAF12F0F21D80AEB4A0006EBC00053
:1002200005F0F0F8BAF1000F02D0079805F02EFEA5
:10023000AA4502D8069805F029FE06F0AFFCC1E7F2
:1002400046F6046001E04EF601700DF5996D06F07A
:1002500022B92846302104F0ADFCFEDE5046F9E715
:100260003020F7E7CE7E00009E7E000096950000CD
:10027000E67D0000EE7D0000EC7D0000F27D0000D8
:100280008681000078810000A2820000DFB506AF01
:10029000044601A804F088FF019820B14FF46F4094
:1002A000A080002002E0DDE9020161602060DFBD86
:1002B000F0B503AF2DE9000D8AB00DF1040A8846B0
:1002C000834621215046144607F034FB5046212135
:1002D00006F090F8204605F0C9FE60B16148212182
:1002E000CDF8050030208DF8040048208DF8090075
:1002F00001A8062294E02578284605F083FF80B106
:100300005948514678440CC80CC10E220078087038
:1003100021215448CDF80D0048208DF81100504699
:100320007EE0284605F0B9FE082812D84C4D002181
:1003300001224FF0E80C00268242E1D2A35C360293
:1003400046EA1166013243EA01216B1A7CEB06038F
:10035000F2D20DF1040A2121504606F04BF8204656
:100360005146212205F09CFEB8B10C46122916D93F
:10037000A4F112060DF1040AA4F1110000905046F8
:1003800021213246234605F083FF202E5DD8A4F1BB
:100390000B022E200AF8060018E0002042E050462A
:1003A000212100222346C4F114050095002605F002
:1003B0006FFF2E203021B54207D0012E0CBF8DF8E3
:1003C00005000AF806100136F5E7082201AE2121E2
:1003D000304605F019FF431E00228C18012C08D06E
:1003E00061B35C5C013B013A302CF6D08B185A1C8F
:1003F00001E0002301228B4225D2C45C2E2C08BFD1
:100400001A4605F001FF4A1D11F1060F20D8212AD6
:1004100021D81448705070184821017130462121AC
:1004200005F0F2FE00F0B8F902460B465846414688
:1004300000F048F90AB0BDE8000DF0BD601E0021D3
:1004400004F0B8FBFEDE1846FAE730462121F7E754
:100450000846114601E01046212104F0C8FDFEDEE9
:10046000FF0FA5D420414C50D0920000D0B502AF70
:100470000446084611461A4600F044F806F045F8CE
:10048000BDE8D040FFF702BFF0B503AF2DE9F00D96
:10049000BD68824600206E46934688468DF80C0063
:1004A0000D2102902A46CDE9000030461C4600F09E
:1004B00038F822462B4604F06DFB30460D212A46C3
:1004C00000F0CAFA02460B46114658461A4605F095
:1004D00005FF58B14A1968460D2100F093FA02460B
:1004E0000B465046414600F0EDF802E00248CAF8DB
:1004F000000005F0F4BF00BF010002E00A46402101
:1005000000F080BAB0B502AF14460D4601F00EF906
:100510000246284621464FF40063BDE8B04000F093
:1005200079BAD0B502AF06F005F8BDE8D04000F0CA
:1005300084BAD4D4F0B503AF2DE9FF0D019020208B
:100540000DF10C0CCDE9052001201D464FF0000BEC
:100550003A2400260490A7F11900039007F8191C0B
:10056000BBF1020F33D00CEBCB005CF83B800BF1FE
:10057000010B406840440290804525D028462E213A
:10058000324698F800A005F09FFE51B1027801397B
:100590000AEB0222B2FBF4FA0AFB142200F8012B48
:1005A000F3E708F10108BAF1000F0BD02E2E26D088
:1005B0002D2E70D8BAFBF4F000FB14A18246A95589
:1005C0000136F0E70298D7E70DF10C0CC8E70020E0
:1005D000002102291DD063465CF831200CEBC103D9
:1005E00001315B68002BF4D012F8014B8CB92E2E30
:1005F00005D02D2E4FD8A855013B0136F2E70199C1
:100600004EF20200002588800846056008B005F01B
:10061000A1BF28462E21324605F056FE274B7B44CB
:1006200039B10278392A3BD89A5C013900F8012B9C
:10063000F6E7234C28462E2132467C44A0474FEA59
:10064000510B029159465A460090A04723468246D4
:10065000029C8846009859465A462044A0EB540014
:1006600098474FF0FF32002302EB5402541C0DD088
:10067000984518D08A4219D21AF803C0845C0AF847
:100680000340013300F802C0013AEFE72F2E0FD2EA
:1006900001984660B9E730462E2104F08BFAFEDE61
:1006A00010463A21F9E740464146F6E71046F4E79E
:1006B00030462E2104F09BFCFEDE00BFC28F0000FE
:1006C0008B5C0000F0B503AF4DF8048D8046D1E996
:1006D00000040D4621461E4601F036F805F030FFB5
:1006E0000CD1A019C8F8040016F03F01A0EB0101DD
:1006F00018BF01F140006860002002E0A8F8020085
:100700000120A8F800005DF8048BF0BDF0B503AF40
:100710004DF804BD90B06E460D460446304605F0D7
:100720002AFF0020202814D0295C5722A02938BF96
:10073000302202EB111206F8102001F00F015722AF
:100740000A2938BF3022114406EB400201305170B3
:10075000E8E7601C6946402207F0E6F800202070B8
:1007600010B05DF804BBF0BDE0B502AF0A7832B955
:100770000131402202B0BDE8804007F0D5B80448FE
:1007800001A9044A78447A4404F0D0FCFEDE00BF9C
:10079000968E00000E75000000B1704780B56F4660
:1007A00002482B21784404F057F9FEDE70790000EE
:1007B000B0B502AF0D46018961B1016814464289A6
:1007C00008460021FFF79EFE2A462346BDE8B040BA
:1007D00004F0E6BA0020B0BDF0B503AF2DE9000D7E
:1007E0008AB0824600894EF60172002800F09C8093
:1007F000BAF80C408B468C4280F09A80BAF80A60B6
:10080000ABEB0400DAF8045001280FD10720514661
:10081000009003A8494B22467B44FFF735FEBDF804
:100820000C0000284ED0BDF80E207DE00DF10C0824
:100830001221CDE90156404607F07CF840461221CE
:100840000822FFF76EFE3E4A08237A4404F0A2F91C
:100850004046082100F0EDF805F057FE05F03EFD9A
:1008600068B30DF10C0801F10C0401F1080012232A
:100870002146424600F0E1F8324A04237A4404F06B
:1008800089F94046214600F0D4F802460B46ABF108
:10089000010011461A4605F021FD80B10A1903A88E
:1008A000122100F0AFF8024608A80B465146FFF7A8
:1008B00009FFBDF8200050B1BDF8222034E04EF20F
:1008C000020231E0CDE90156DDF8108001E0DDF8EB
:1008D0002480DAF8006003A8029B00223146FFF76B
:1008E000C5FD039CF4B1049D03A8019A314643461B
:1008F000FFF7BCFD039AAAB10720049BCDE905458B
:100900000121049010487844039003A8FFF780FB6E
:1009100005F016FE11BF02460020AAF80800CAF82A
:10092000040001E0BDF8102010460AB005F0B3BD88
:1009300006483C21784404F08FF8FEDE4A76000039
:100940001B750000DA75000063750000CA740000B2
:10095000F0B503AF2DE9000DACB090460A4600217A
:100960001D46FFF7CFFD0DF15C0B06460C462946F0
:10097000584603F05BFB9DF85C50202D01D12048C8
:1009800030E00DF1100A0BF104010AF104004822D5
:10099000CDE90146CDF80C809DF85D60BDF85E8024
:1009A00006F0C4FFADF812800AF108018DF811605D
:1009B0008DF8105017AC204603F082FB2AA8039B49
:1009C00000212246FFF7B6FD2A9A3AB12B9BDDE9BA
:1009D000011004F0E5F90021002209E0BDF8AC00A7
:1009E000000401304FF6FF71012220EA0101000AE4
:1009F0000002114380B208432CB005F04CBD00BF8B
:100A0000010005E0D0B502AF05F094FDBDE8D0408F
:100A100000F000B880B56F46814207D399429FBF6E
:100A20000244091A104680BD0846194604F0DFFA50
:100A3000FEDE0A46122100F00FB880B56F468142F3
:100A400007D399429FBF0244091A104680BD084649
:100A5000194604F0CCFAFEDE914222BF1044891AF6
:100A6000704780B56F46104604F0C1FAFEDED4D45C
:100A7000084602490222794403F0B3BD3A760000E9
:100A800080B56F46054849464844401A04497944B0
:100A90000844BDE8804005F0DBBF00BF0010000047
:100AA0006E8D000000B1704780B56F4602482B2163
:100AB000784403F0D1FFFEDE64760000F0B503AFAA
:100AC0002DE9F00D0D461646117B5268BC688A422E
:100AD00036D02104CDE9013003D095F800A0A4B2AE
:100AE00007E0304601F0CFFC05F075FD85F800A069
:100AF0000124504605EB040805F0A3FCA0EB040B11
:100B00004FF0000A0146039005F031FD0DD0DA45A3
:100B10000BD2304605F0C2FC04EB0A00202815D8A1
:100B200008F80A500AF1010AEEE703985444211A22
:100B300011BFDDE901304FF6FF734FF6FF740298E5
:100B4000002184804380017005F0C9BC212104F09C
:100B500031F8FEDE027801460120C32A0AD0B1F83E
:100B60004420012A98BF0246B1F94810B1F1FF3F75
:100B7000C8BF10467047D4D4D0B502AF0088A0F5E6
:100B80006042052A0CD9A0F5DC42042A11D8DFE81E
:100B900002F003171B1F2300214C06227C4435E082
:100BA000DFE802F0031D2125292D224C10227C4470
:100BB0002CE0B0F5104F26D1184C02227C4425E0E1
:100BC000184C06227C4421E0174C07227C441DE08F
:100BD000164C06227C4419E0154C7C4415E0164C5A
:100BE0000F227C4412E0154C08227C440EE0144C89
:100BF00014227C440AE0134C14227C4406E0124C7C
:100C000017227C4402E0114C7C440D22D1E90501FD
:100C1000CB682146BDE8D040184700BF4D740000A6
:100C200067740000397400002A7400001C7400000E
:100C30000974000025740000E27300007371000065
:100C4000BE730000A2730000837300007073000085
:100C5000F0B503AF2DE9000DA4B00D4631F8444FB7
:100C60009A460123012C904698BF1C46B1F90420F6
:100C7000B2F1FF3FD8BF1C461FFA8AF39C4240F2F4
:100C8000DA831890002AB86800F1DA83B5F84200D8
:100C90004FF6FF7BB5F840305B4508BF584516D18D
:100CA0000020C221686200232970511C85F83A0097
:100CB000288785F83600A88685F832002886A88718
:100CC000C5F82700A5F82CB02864A5F8481005F150
:100CD00014010191A91C0291291D179105F1090127
:100CE0001691691C159105F13C01149105F13D0126
:100CF000139105F13001129105F13401119105F1C3
:100D00003801109105F128010391012698F80C1083
:100D1000D8F804208A4200F09F832A8D0624012AF5
:100D200098BF3246B5F92C10B1F1FF3FC8BF541D32
:100D3000A4B29AB2A24280F09583042A0AD8DFE8CE
:100D400002F0031921272D0000901CA81499424697
:100D5000002314E000295FD4AC8C5C4575D1E88C8D
:100D600058451B9A72D1C22000242870481C6C621E
:100D7000A8856BE000901CA813994246012301F05E
:100D80008FFB12E000901CA81299424602230AE051
:100D900000901CA811994246032304E000901CA86F
:100DA00010994246042303F078F89DF8700000285B
:100DB00040F08083BDF87410BDF8723003EA010280
:100DC000B2EB0B0018BF0846B5F840105A4508BFF3
:100DD0004B1C2C8D99B2012C98BF3446B5F92C6070
:100DE000B6F1FF3F4FF00606C8BF661DB4B201263C
:100DF000A14208BF5846A5F8420008BF5B46A5F8C7
:100E000040305A4540F0288399B2594508BF5845AB
:100E10007FF47CAF00F03EBB009020A803994246CF
:100E200003F03BF89DF88000002840F03F83BDF8B8
:100E30008420BDF8820000EA0201594500F0DC82FE
:100E4000ADF87420ADF87200B4E71B9ACDE919A88B
:100E500098F80C00D8F80410814200F0DC82284693
:100E6000164605F0EDF8A1B280B2814280F0FA8218
:100E70002C78C22C40F00681404605F0F9FAE0B229
:100E8000D42800F227832246DFE810F0D600AE0215
:100E9000D500D500D500D500D500D500D500D500AA
:100EA000D500D500D500D500D500D500D500D5009A
:100EB0000E0214022C023402AE02AE02D500D5009E
:100EC000D500D500D500D500D500D500D500D5007A
:100ED000D500D500D500D500D500D500D500D5006A
:100EE000D500D500D500D500D500D500D500D5005A
:100EF000D500D500D500D500D500D500D500D5004A
:100F0000D500D500D500D500D500D500D500D50039
:100F1000D500D500D500D500D500D500D500D50029
:100F2000020202020202D500D500D500D500D5008C
:100F3000D500D500D500D500D500D500D500D50009
:100F4000D500D500D500D500D500D500D500D500F9
:100F5000D500D500D500D500D500D500D500D500E9
:100F6000D500D500D500D500D500D500D500D500D9
:100F7000D500D500D500D500D500D500D500D500C9
:100F8000D500D500D500D5003702D500D500D50055
:100F9000D500D500D500D500D500D500D500D500A9
:100FA000D500D500D50024032403240324032403FF
:100FB00024032403240324032403240324032403F9
:100FC00024032403240324032403240347024902A3
:100FD0004B024D024F025102530255025702590271
:100FE0005B025D025F0261026302650267026902E1
:100FF0006B026D026F027102730275027702790251
:101000007B027D027F0281028302850287028902C0
:101010008B028D028F029102930295029702990230
:101020009B029D029F02A102A302A502A702A902A0
:10103000AB02B002B20232460E9828720F98686076
:1010400006981699E8700C98A870BDF88C00088076
:101050009DF88E0088700498688307982883059807
:10106000E8750898A8750998A8820A9868820B986C
:1010700028820D98E860DDE920016A70C5E9070162
:101080002C7000E03246E0B21B92A0F1120105295B
:1010900014D9A0F1BB0107291CD9002839D0012897
:1010A00037D04A2803D04B2818BF4C2827D105F049
:1010B00000FA1EA8179900F077FA32E0DFE801F095
:1010C00003036F76292905F0F4F91EA81599FFF797
:1010D000F5FC26E04FF6FF744FF6FF70DFE811F0E5
:1010E00019002A002A002A00570008000800C2013F
:1010F00005F0DFF91EA8179901F0F2F911E07E283A
:101100005BD08D2805D08E284FF6FF704FF6FF7408
:1011100010D1E88CAB8C00901EA81599424601F0C6
:10112000BFF99DF87800002840F0CB81BDF87C0025
:10113000BDF87A4004EA000B4FF6FF78BBEB0806D7
:1011400018BF0646A88CC34508BF441C28461FFA92
:1011500084FA04F075FF80B22946824508BF4646EE
:10116000EE8408BF4446AC84C3454FF6FF7B40F095
:101170004E81A0B20D4658451B98DDE919A80246DC
:101180007FF466AE5E4502467FF462AE4BE1AB8C07
:10119000E88C002B5BD000901EA80299BEE705F0FA
:1011A00088F91EA8179900F071FABAE705F081F9DD
:1011B0001EA8029900F0F4FFB3E7B5F91820002A41
:1011C0004BD4688A298A594508BF584509D100205F
:1011D0004FF0FF31C5E90310511C2983002128720B
:1011E000686098F80C20D8F8043093424DD0090478
:1011F00040F03881009020A817994246002300F063
:1012000045FA9DF88000002840F02381BDF8842035
:10121000BDF8821001EA020083B2B3EB0B0018BFE5
:1012200010462A8A5B4508BF511C8AB2012A08BFB2
:101230005846688208BF594629825B4525D105F08A
:10124000C0F9CED14FF6FF704FF6FF7472E70090F1
:101250001EA815994246002361E705F02AF920A847
:10126000019902F01AFE9DF88000002840F02581C7
:10127000BDF88410BDF8820000EA01025A450AD088
:10128000ADF87C10ADF87A0050E7E88CAC8C51E7F3
:1012900000200E90AEE0A88A00224FF6FF712A834C
:1012A00005F044F98DD1EBE70021002012248DF8E0
:1012B0008E1004E0002100208DF88E101324ADF86C
:1012C0008C1020910D90ADF88410CDE90E00002215
:1012D0000690CDE90B00CDE90900CDE90700CDE985
:1012E0000400A9E600200E904FF0FF300D90002082
:1012F0000F9001E004200C900EE000200B904FF0C6
:10130000FF300D900020CDE90E0000200A90CDE9BD
:1013100008004FF6FF7007908EE68D2464E08E245F
:1013200062E08F2487E6902485E6912483E6922468
:1013300081E693247FE694247DE695247BE696243B
:1013400079E6972477E6982475E6992473E69A243B
:1013500071E69B246FE69C246DE69D246BE69E243B
:1013600069E69F2467E6A02465E6A12463E6A2243B
:1013700061E6A3245FE6A4245DE6A5245BE6A6243B
:1013800059E6A72457E6A82455E6A92453E6AA243B
:1013900051E6AB244FE6AC244DE6AD244BE6AE243B
:1013A00049E6AF2447E6B02445E6B12443E6B2243B
:1013B00041E6B3243FE6B4243DE6B5243BE6B6243B
:1013C00039E6B72437E6B82435E6B92433E6BA243B
:1013D00031E6BB2408E0BC242DE6BD242BE6BE2468
:1013E00029E60020BF240C90002225E6C02400E05E
:1013F000C12400200F901EE6288D00214FF6FF72B9
:10140000A98505F093F87FF4A7ACFFF719BD1B9AE7
:101410000D46DDE919A81B920126B5F84210B5F872
:101420004030FFF7CBBC4FF6FF714FF6FF731B90B8
:101430000126FFF7C3BC022101224170014645E0AD
:10144000009020A84246534602F027FD9DF88000F8
:1014500050B19DF8810036E01899B8688880A1F8ED
:1014600002A021E002202EE0BDF884104FF6FF70AC
:10147000BDF8822002EA0103834211D1B5F844107D
:101480000022A5F8482000297FF400AC1899888034
:1014900048801BE01899A1F804B0A1F802B003E05D
:1014A000189881800146428000220FE09DF881005B
:1014B0008DF871009DF8710005E09DF881008DF8B0
:1014C00079009DF879001899012248700A7024B0BB
:1014D00005F040B80120F6E7B0B502AFC0B06D46E8
:1014E000044628464FF4807106F026FA28464FF449
:1014F000807105F0CBFA204629464FF4807206F041
:101500006FFA40B0B0BDF0B503AF4DF8048DC0B078
:101510006C468046204615460E46FFF7DDFF204606
:1015200031462A4600F012F805F00AF804D169465F
:10153000404600F019F804E00121A8F8020088F8FC
:10154000001040B05DF8048BF0BDD4D480B56F4678
:1015500005F0B0FA0349002808BF01F5706108469C
:1015600080BD00BF01E0FFFFF0B503AF4DF804BD43
:1015700088B06E460D4604463046202106F0DAF962
:101580002846314605F091FA20B14EF20100608004
:10159000012004E0601C694605F004F8002020707A
:1015A00008B05DF804BBF0BDF0B503AF2DE9F00D58
:1015B00003910646107B5168BD68814202D1B58017
:1015C00073805FE093465FEA0548029302D0039878
:1015D000047904E0584604F04BFF03980471204658
:1015E00004F02FFF052803D90020707001204AE085
:1015F0008246204604F019FF019690B1B8F1000F21
:1016000013D1A00664F03F0058BF04F03F0018213A
:1016100001EBCA01012501F0180188400399086017
:1016200003E0B8F1000F08BF0125ACB26FF007016D
:10163000AAEB040001EBC0060398D0F800809BF8E9
:101640000C00DBF80410814211D054450FD25846EB
:1016500004F024FF06F01800E9B2083E013401FA54
:1016600000F048EA00080398C0F80080E7E7A245C8
:1016700008BF4FF0FF34019E0298B48008BF4FF0BE
:10168000FF3070800020307004F029BFF0B503AF48
:101690002DE9F00D83468C68B868984616460D46CD
:1016A000002C1ED4D5F800A054450CD204F05FFFE6
:1016B00009D0304600F0E7FE00F00100FFF7F2F934
:1016C0000134AC60F0E7A24507BF4FF0FF30CBF824
:1016D0000200B868ABF8040018BFABF80280002025
:1016E0000EE0009002A8294632464346FFF75CFF11
:1016F0009DF8080040B19DF809008BF80100012019
:101700008BF8000004F0EBBEBDF80C004FF6FF7341
:10171000BDF80A1001EA00029A4202D10024AC602E
:10172000C0E7ABF80400ABF80210D8E780B56F460D
:101730004946401A034979440844BDE8804005F011
:1017400087B900BFC6800000F0B503AF2DE9000DDA
:101750008AB00E464946401A1B491C4692467944B7
:10176000084405F075F9A519CDE900A4B5F5006F99
:1017700017D8B6F5006F19D8804630445146224636
:1017800005F0B0F930462946424600F01FF85246AF
:101790002346CDE9020103F098FC68B14EF60170D2
:1017A00001E04EF202000AB004F075BE30464FF47C
:1017B000006103F01CFCFEDE00206946049002A8D4
:1017C00004AA00F015FEFEDE9E800000814221BFCB
:1017D0000244091A1046704780B56F4603F007FCB3
:1017E000FEDEB0B502AF0446B2F5006F04D94EF28A
:1017F0000200A080002009E008461546FFF796FF8A
:10180000024600202946FFF7E1FF61602060B0BD7D
:1018100080B56F46ADF59A6D13AC04F0E1FE58AD9E
:10182000142105F5E870089006F086F805F1D0005F
:1018300000268896ADF860610690FFF74DFEDFF850
:101840002C078B9648448A90DFF824078DF8446370
:101850004844D2900020ADF85063D39600F09EFB30
:10186000EDAEA7F1940806F108000790301D0E9028
:1018700008F108000D9008F104000C90B01C0490D1
:10188000DBA8DFF8F0B60330059004F586701290FF
:10189000002011901AE004F03DFB08B904F040FB71
:1018A0003046802104F032FB9DF8B403BDF8B553F7
:1018B00004F058F9C1B2A1F10E0008281BD8DFE8E6
:1018C00000F005112633333333332F0030468021A7
:1018D00006F030F809EB0B00002109F80B108171BC
:1018E0004180D8E7A8B2B0F5807F1DD19DF8B7033D
:1018F00004F046F918E0052916D19DF8B703410810
:10190000129804F01FFBC0B206280DD054E028BA8C
:10191000000C022808D92046314604F06BF903E098
:101920002046314604F0A0F919F80B000028B2D087
:1019300009EB0B0040880028ADD00428549005D254
:10194000204646F6036104F021F8A4E7404621460C
:1019500003F0FCFF57F8940C10B39DF85D0128B11B
:101960009DF84C009DF85E1188421FD1C246DDF8FB
:101970004C80C8F30725022D2CD9559881084029A1
:101980009FBF6E2121545598013098BFB0F5827FDA
:1019900080F0E0820121215404F0DFFDD0467AE797
:1019A00037F8901C204603F0F1FF74E720464FF40F
:1019B000DC4103F0EBFF6EE705283FF687AFDFE879
:1019C00000F0045C0361645380E7CF48784404F07E
:1019D0008FFA7BE7549878B3D6A8142105F0AAFFB4
:1019E0005FFA88F080282AD1002DD04655D03046A5
:1019F0002146012D40F0878003F0A8FFED980028D4
:101A000000F09380EE99D6AA04F0FBFC002800F0C9
:101A100090809DF84F009DF84EA00F9050EA0A006C
:101A200000F0DF806E250222BAF1040F0AD10F9870
:101A3000032840F2D98005E06E25032201E06E25DF
:101A40000022D0465598810840299FBF25545598BB
:101A50000130B0F5827F80F07D82225404F07DFD5C
:101A6000119800F09BFA31E71198C0B2022800F0FB
:101A7000478203287FF42AAF6FE2A448784404F039
:101A800037FA23E71198013801E01198013000F08E
:101A90000300119000F082FA18E79D4878440F90F7
:101AA0009C4979440A918847109100F001009A4DB1
:101AB0007D44A8479948AA460A9D7844A84700F063
:101AC00001000B91D0470F98A84700F001000D4688
:101AD000D0470B9831468DF8B503032210988DF846
:101AE000B40320468DF8B65303F086FF0025204648
:101AF0004FF4104103F04AFF280AB1D000201190A2
:101B000000F04CFAACE703F021FFED99DBAD61B1D9
:101B10009DF84403EE9A78B1012858D19DF84E0003
:101B200001282CD046F6026353E0BDF8B823150A0D
:101B300088E76E25032285E746F60363172A48D314
:101B40009DF84E000F92002843D1089A0846109144
:101B5000142104F056FC10994EF20303C8B301207F
:101B60008DF84403887D012805D102F03BF91099D6
:101B7000002800F016810F981431A0F1140258A823
:101B8000D2AB00F0FDFC034680B24EF601718842F4
:101B90001FD19DF844030228A8D106993046FFF7CB
:101BA000E3FC9DF8B403002800F0BA80BDF8B6034A
:101BB0008246050A0120109058A800F0CCFC10982D
:101BC000524600287FF43EAF4FF480758FE74FF404
:101BD0006F4358A81D4600F0BEFCA8B22A46050A6D
:101BE00030E7BAF1000F55D0CDF82CA0D6A9304679
:101BF00002F01CFA9DF8B413A7F14800202951D037
:101C00008A460E999DF8B52310924822BDF8B65326
:101C100005F08CFE1098A7F1480107F8930C4822B4
:101C2000CDF828A007F894ACDDE90BA0099527F8BA
:101C3000925C05F07BFE0D99304602F041FA0020DF
:101C400041F20551202805D0325C01EB41110130F1
:101C50001144F7E741F00100DA9A00BA010C81EA79
:101C6000102181EA10614840C0B2B0FBFAF101FBDB
:101C70001A000F99884202D0501CDA90B6E70F92F2
:101C8000DBA8A7F1480104F08AFC0A9820280CD1AF
:101C9000099A4CE7D6A9304602F0C8F99DF8B4037A
:101CA000202807D1BDF8B62341E70E980DF55B7AE1
:101CB0000F9D10E00E9D0DF55B7A0A904822BDF84D
:101CC000B603099029469DF8B5031090504605F0DB
:101CD0002DFE2846DA9D514604F061FC0998412208
:101CE000ADF8B603109807998DF8B5030A988DF8EA
:101CF000B403204603F080FE28BA47F8940C20462F
:101D000041460422F0E600BFF86800002C6800009D
:101D1000A565000037050000790500008865000012
:101D20000E9950461D229DF8B583BDF8B65305F0B7
:101D3000FBFD059851461D2205F0F6FD8DF86C83DC
:101D40003046ADF86D53DBA9D046FEF7DFFC5046B8
:101D50003146FEF709FD304651464022FEF796FA1D
:101D6000ED98002800F07A80EE990523CDE9EF0187
:101D70000520EE903046864A01217A44ED92FEF726
:101D800047F982B24EF601718A426AD10899A7F1E9
:101D9000480003F0C0FE57F8440C212864D2032504
:101DA0006AE004F0F3FE4FF0000A0221DB9147F8ED
:101DB00048AC07F844AC8DF8CCA3CDF8C8A36E4866
:101DC000EF9100217844F190012047E92365ED90DF
:101DD0001D2047F8900C6948784447F8940C404619
:101DE00003F0AAFCA7F14805284603F0EFFAC0B2B9
:101DF0000628F9D00528F7D8DFE800F00409030E1B
:101E00001D2CF1E75E48784404F072F8ECE75D4879
:101E1000784404F06DF8E7E75B48784404F050F844
:101E2000BAF1010A4FF0000038BF824640465146E1
:101E300003F082FCD8E75548784404F041F8DB9978
:101E40000AF10100884238BF82464046514603F0FD
:101E500073FCC9E74EF203030133BAE6BDF8B803D9
:101E6000A6E68246150AA5E6302801D8042503E037
:101E70000925412838BF05254046482105F05AFD6F
:101E80004820A7F1480A47F89C0C002047F8980C16
:101E90002020CDE90008A7F19C000290A7F198004E
:101EA0000390DBAB504640F201612A4604F0F3FD9B
:101EB00030B1504600F078FAE0254FF0010A79E69B
:101EC000DDF810A041464822504605F02DFD404661
:101ED0005146482257F89C5C05F026FDA7F14800C2
:101EE00000F062FA3046414604F059FB492D38D2E1
:101EF000204631462A4603F07FFD002000255AE6A1
:101F0000FEF7BEFD824601F076FF00785546214A75
:101F1000214900287A447944119118BF0A4615F8DE
:101F2000801F9AF80000109201F087FF0F900028A0
:101F3000284618BF5046109901F08EFF0F980028D0
:101F400008BF55461199284601F0A4FF00F080F81B
:101F500002209EE404F012FBFEDE002003F0D0FF1E
:101F6000FEDE2846482103F042F8FEDE00080000AD
:101F700000000000000000001C7800008C620000DF
:101F8000BE64000098640000AA6400007064000051
:101F90005D6100006F6100006B610000C0B203284A
:101FA00011D8DFE800F00208060C0948784400F078
:101FB00083B800F04DB80748784400F07DB8064873
:101FC000784400F079B880B56F4602F040FDFEDE3F
:101FD000950100005501000021010000F0B503AF9C
:101FE0004DF8048D8046007801242B2816D02D282A
:101FF0004FF0010615D0002500246E1E18BF0126E3
:10200000012D0ED018F805000A2102F098F838B119
:1020100004EB8400013501EB4004EEE7012600E00B
:102020000124304621465DF8048BF0BD08B908460E
:102030007047E0B502AF0448791E044A78447A44F8
:1020400003F074F8FEDE00BFDE750000CE5F000016
:102050000148784400F030B80700000080B56F46B2
:102060008EB001F0BFFE002101228DF83410022154
:102070000D23099107928DF8182005930B4B0291BF
:1020800008217B4404930092002818BF07210C917B
:10209000074808497844794418BF01460B916846BF
:1020A000022103F0CFFE0EB080BD00BF9F5F000095
:1020B0009A5F0000BF5C0000D0B502AF044604F098
:1020C00065FD0648784403F0E1FE0548784403F0D6
:1020D000DDFEA047BDE8D04004F060BD74620000A2
:1020E0006462000080B56F4688B00420022106902B
:1020F0000648039101217844059001208DF81C00C9
:10210000019001A803F09EFE08B080BD4C5D000068
:1021100080B56F468EB004F068FA07220748079131
:10212000784404F042FA064A02906846009102217F
:102130007A44049203F086FE0EB080BD1C5F00005E
:10214000055F000080B56F468EB004F04EFA08229D
:1021500007480791784404F028FA064A0290684636
:10216000009102217A44049203F06CFE0EB080BD0F
:10217000C85E0000295C000080B56F4600F001F8E1
:10218000FEDE80B56F46C6B001AC04F029FA2046E9
:102190004FF4604103F0FAFB002003F0B1FEFEDED5
:1021A000F0B503AF2DE9000D8EB08B460546107BD0
:1021B00098465168D7F808A0814208D1A5F804A034
:1021C000A5F80280002028700EB004F0C3B99BF877
:1021D00000401646042C21D1304604F049F9E0B203
:1021E000811E022905D320B1012806D040F201103A
:1021F000C5E009A8132105F09DFB002014228BF8EF
:102200000D00CBF80900CBF80500CBF801000BF16D
:102210000E0009A905F088FB8BF80040E0B2DFE86A
:1022200000F003110303AC00C7F808A00BF1010193
:102230002846324643460EB0BDE8000DBDE8F040EA
:1022400001F096BECDE902A80BF10600317B4FF6F6
:10225000FF78D6F804A004900BF102000590CDE9B8
:1022600006B5C8B2824500F08E80BBF80A40022C49
:1022700000F28780089135D0012C0FD0002C40F05F
:102280008080BBF80C00059978BBB06801224549F5
:10229000794400F0C3F80020059926E05846BBF8C1
:1022A0000CB040880C464501E1B21FFA8BF08A451C
:1022B00018BF85420CD9304600F0E5F800F0010067
:1022C000FEF7F0FB0BF1010B347BD6F804A0EBE733
:1022D000854208BFC3464FF6FF754FF0010808BF9F
:1022E000A84615E0BBF80C000499009009A83246F6
:1022F000234601F0D2FD9DF8240000284CD1D6F8E9
:1023000004A04FF6FF75347BBDF828B0BDF82680D9
:1023100030685146089A234600F0A2F80246B06899
:1023200004F04AF908EA0B01481B18BF5846DDF8CB
:1023300018B0A942BBF80A2008BF02F101081FFA31
:1023400088F2032A08BF2846ABF80C0008BFA8464D
:10235000A942ABF80A8019D11FFA88F1A942079D5A
:1023600021464FF6FF787FF47CAF80B2214640458E
:102370007FF477AF04F0CFF80BE040F20120288023
:1023800022E702200BE0DDE9021002E0DDE90210A5
:10239000079DA980688015E79DF82500079D687056
:1023A000012010E7F35D0000E0B502AF00F1280165
:1023B000083000906846019103F035FB8CBDD4D401
:1023C00080B56F468AB00DF1100C91E879406246F5
:1023D00082E87940CDF800C002A803AA02497944F6
:1023E0000B4602F03EFBFEDE665C00007047D4D474
:1023F00080B56F468AB00DF1100C92E879406146C5
:1024000081E87940CDF800C002A803AA02497944C6
:102410000B4602F026FBFEDE465C0000F0B503AF83
:102420004DF804BDA0B1054600686E6814460A4622
:1024300023463146FFF788F980B240F601024EF696
:102440000171884208BF32196A605DF804BBF0BDB3
:1024500002482B21784402F0FFFAFEDEC05C000047
:10246000D0B502AF0446DBB2D0B2834209D38B426F
:102470009FBF2218191A1046D0BD184602F0B7FDAA
:10248000FEDE1946FAE74268037B9A4281BF591C77
:1024900001730068C15C00209A4288BF0120704728
:1024A000F0B503AF4DF804BD0D460446107B5168EE
:1024B000814201D1B8680CE01046FFF7E4FF00F05C
:1024C00001000E46FEF7EEFA4FF6FF734FF6FF706F
:1024D0002E70A0800020638020705DF804BBF0BDEA
:1024E000F0B503AF2DE9F00D16463A89D1F800B0EA
:1024F0004FF0000801901820A0EBC20AC2F10404BA
:1025000002930391009204F032F813D0A04511D247
:10251000304603F0C3FF0AF01800E9B2AAF1080A36
:1025200008F1010801FA00F04BEA000B0398C0F82B
:1025300000B0E8E7019900200870009840440428A2
:1025400008BF4FF0FF308880029808BF4FF0FF307F
:10255000488003F0C4BFB0B502AF00250446058033
:102560001521C0F8C05000F5E87005F0E5F904F158
:10257000D0004FF4807104F089FAC4F8CC50B0BD9B
:10258000F0B503AF2DE9000DADF5147DFF2A3F93A3
:1025900003D946F6036401F0E5BB824600204AAB4E
:1025A0008DF81C010AF1C800469003F13F00CDE907
:1025B0003A12CDE944124FF6FF7B1C905CA800F163
:1025C0003F011B910AF1840139910AF169012791B8
:1025D0000AF1080142917CA9CDF8F4A003312391BE
:1025E000191D22910AF10E0132910AF10A01259179
:1025F0000AF134012C910AF106012B910AF1140120
:1026000037910AF10D012D910AF12C0124910AF163
:102610003A0129910AF1110128910AF1050131913C
:1026200000F13601219100F10D01209100F124010A
:1026300030301E900AF1880030900AF1AC002F90E3
:102640000AF15C002A900AF1120035900AF1380074
:1026500036900AF1180034900AF1100026900AF121
:10266000680033900AF18A0038900AF1B8002E9081
:102670000AF101003E900AF1040040900AF5E8706A
:102680001D901F9100203C909DF81C0145998142AE
:1026900001F037835046BAF8C04003F0CEFD80B257
:1026A000844281F053839AF80000DFE810F00700BD
:1026B0000700170085000F009300480403F012FF85
:1026C00048A83E9944AAFFF7EBFE7CE003F00AFF1E
:1026D00048A83E9944AAFEF7F1F974E040999DF8A4
:1026E0001C51459EAE4200F0C4850846BAF85080A1
:1026F0000C46FEF72FFA80B2804581F0CD8220781B
:102700002146C3281DD1AE4241F2D982681C8DF802
:102710001C0144980124465D0120FEF7C3F94FF6E1
:10272000FF704FF6FF75E6B14098012E41F0CB8265
:1027300003F046FE40990878C32801F0AD82BAF84C
:102740005080BAF85200434600905CA844AAFEF7B5
:102750007FFA03F0CCFE41F0A382BDF87401BDF80E
:10276000725105EA0006B6EB0B0418BF0446BAF82E
:1027700050005E4508BF451CDDF800B11FFA85F822
:102780005846FEF7E7F980B2594680454FF6FF7B81
:1027900008BF5C46AAF8524008BF5D46AAF85050F0
:1027A0005E4540F06685A8B2584508BF5C4596D1A5
:1027B00003F0B1FE00F061BD03F094FE48A840991B
:1027C00044AAFEF7F1FE9DF82001002800F059858B
:1027D00001F0BCBABAF9B050002D00F11685BAF874
:1027E000AA10BAF8A800584508BF59450DD1399824
:1027F000242105F09FF80A2000218AF80400681CB3
:10280000AAF8B0000020CAF8A8109DF81C51459EF7
:10281000AE4200F0F18480B2022801F297823CD0EF
:10282000012829D0002841F091821FFA81FA3998B5
:10283000CAF1040B002450444390E8B286425CD0B5
:102840005C455AD2864206D9449901358DF81C510F
:1028500011F80080FFE786424FF0000088BF01209A
:10286000FEF720F90AEB0400032801F2598243988D
:1028700000F804800134E0E700918CA8309944AA64
:10288000012301F075FB9DF83002002841F05E82C3
:10289000BDF83422BDF832023BE0409804780A2C9F
:1028A00040F0E980AE4241F23782681C8DF81C018D
:1028B0004498455D0120FEF7F5F8032D01F24682AC
:1028C00009240DF5F878DDF858C0DDE9143E129EB4
:1028D000DDE91021DFE805F0023F5A9A4046152154
:1028E00005F028F8002006244FF0000C4FF0000EF1
:1028F000002600230990089045E00AEB0402DDF869
:10290000F4A0042A4FF6FF7BBAF8A80004BF58468B
:102910005A4600EA02018BB2B3EB0B0118BF114615
:10292000BAF8A8205B4508BF501C82B2032A08BF32
:102930005946AAF8AA1008BF5846AAF8A8005B454D
:1029400040F05A8482B25A4504BF8AB25A457FF495
:102950005CAF01F03CB85CAC2121601C04F0E8FFE6
:1029600040462146222204F0DFFF002007240B907E
:102970004FF6FF700C9000200A904FF0000C4FF0C3
:10298000000E00260023002200213FE01E9803F0E5
:1029900017FD1F9800210524ADF89CB18DF87041FA
:1029A00022220160C0F80310BDF872011490BDF836
:1029B00076011590BDF8780116909DF87101089088
:1029C0009DF87501BDF87A819DF8746109909DF8B4
:1029D0007C517CA8209904F0A7FF9DF89F01462216
:1029E0000790BDF8A0010C90BDF8A2010B90BDF8B6
:1029F000A4010A904AA8219904F096FFDDE9143E4B
:102A00004146DDF858C00DF5F8782A4609988AF84D
:102A1000090008988AF80500289810928AF8102072
:102A200022221191AAF80E104146CDF858C0AAF8FA
:102A30000CC0CDF854E0AAF80AE012968AF80860B3
:102A40001493AAF8063004F06FFF0A984622AAF8F9
:102A500038000B98AAF836000C98AAF834000798AA
:102A60008AF8330029984AA904F05EFF00208AF80A
:102A70000440CAF88000A01F4FF6FF72C1B20529BA
:102A80004FF0020128BF0846C1B24FF6FF70DFE8E1
:102A900011F006009C01110005005D0939E7BAF844
:102AA000AA00BAF8A83000908CA8319944AA01F085
:102AB0008EFAE8E69DF81C614598B04200F0368237
:102AC000BAF97C404FF6FF78BAF87850BAF880B07F
:102AD0002146284603F0D1FB80B2834581F0DE8099
:102AE000012D4FF0010098BF0546B4F1FF3FD8BF5C
:102AF0000546AB451AD2BAF882005B4600907CA826
:102B00002C9944AAFEF7A4F8DDE9440132469DF869
:102B10001C31FFF7A5FC0246469803F04DFD9DF8D9
:102B2000F001002800F0068101F00CB9BAF930106C
:102B3000069D002900F1E580BAF828004FF6FF73E2
:102B4000984204BFBAF82A209A4208D105200131E0
:102B50008AF804000020CAF82800AAF830109DF86E
:102B60001C11DDF814B18B4500F01181000441F017
:102B70009580409890F80080B8F1050F24D18B45DE
:102B800041F2B78044984C1C8DF81C4110F801802C
:102B90000120FDF787FFB8F1040F01F2AD804394E7
:102BA000C246179ADFE808F01A0303161200002540
:102BB00012218DF8EE51ADF8EC515CA804F0BAFE8C
:102BC0004FF0000A002209E03C9E25E00425DDF8D4
:102BD000F0A003E04FF0FF324FF0000A3D9C0020D0
:102BE0002D99AE4617922073A060E071BDF8EC01FC
:102BF00008809DF8EE01A57184F805A08870226117
:102C0000DDF8DCC05CA991E86D008CE86D005646EB
:102C1000754684F804804399DFE818F01600060032
:102C2000060022000E00860803F048FC4AA83199ED
:102C300044AAFDF743FF1AE003F040FC4AA82B9991
:102C400044AAFFF7ADFA12E0C8B283453BD1DDF8E4
:102C5000F4A04FF6FF7BBAF82A20BAF8280011E05A
:102C600003F02CFC4AA8429944AAFEF70FFD9DF8F8
:102C700028014FF6FF7B002841F03080BDF82C2161
:102C8000BDF82A0100EA0203B3EB0B0118BF11469D
:102C9000BAF828205B4508BF501C82B2012A08BF41
:102CA0005946AAF82A1008BF5846AAF828005B45DA
:102CB0007DD182B25A453C967FF451AF59453C963E
:102CC0007FF44DAF7AE005D901318DF81C1144999C
:102CD0000C5C00E0002483454FF0000088BF012019
:102CE000FDF7E0FE601E3199B0FA80F04FF6FF72FA
:102CF0004009DDF8F4A008704FF6FF704FF6FF7B37
:102D0000C0E7BAF882005B4600905CA8249944AA08
:102D100001F0C3F803F0EBFB41F01080BDF8742123
:102D2000BDF8720100EA0201414534D0ADF8F4214A
:102D3000ADF8F201BDF8F4014FF6FF7BBDF8F241AA
:102D400004EA0006B6EB0B0518BF0546BAF87C107E
:102D5000BAF87800BAF8808003F08FFA5E4508BFB1
:102D600008F1010480B2A1B2814208BF5D46AAF811
:102D7000825008BF5C46AAF880405E4540F0D6808D
:102D8000A0B2584508BF5D457FF494AECBE04FF646
:102D9000FF7B06950DE0BAF82C0000214FF6FF727C
:102DA000AAF8301003F0C2FB7FF4C6AEBEE706956A
:102DB0003C96BAF88200BAF88040C1E706954FF613
:102DC000FF704FF6FF743C96BAE79DF81C014599D9
:102DD000814200F0AB80BAF806000121012898BFBB
:102DE0000846BAF93440B4F1FF3FD8BF0846BAF8F4
:102DF0003630834280F05287002C4FD4BAF80C0052
:102E0000BAF80A10594508BF58450CD13598212108
:102E100004F08EFD259900202C9AC1F8030008606B
:102E2000611C118000219DF81C21459B93424FD0CD
:102E300089B2012900F232870AD0002940F02E879A
:102E400000905CA8359944AA002301F0C0F806E080
:102E500000905CA8329944AA012301F01EF803F007
:102E600046FB40F0338703F046FB18BF1046BAF824
:102E70000A205B4508BF511C8AB2022A08BF584687
:102E8000AAF80C0008BF5946AAF80A105B451FD1E2
:102E900003F097FBC7D103F03EFB1DE03698008896
:102EA00000905CA82B9944AA00F0F7FF03F01FFBE9
:102EB00040F00C8703F0E7FA0ED12C9800244FF66F
:102EC000FF7104802B98008803F030FB96D103E05B
:102ED000BAF83810BAF8360000EA01030125B3EB5E
:102EE0000B0218BF0A46BAF80610012998BF2946F6
:102EF000BAF93440B4F1FF3FD8BF2946BAF836409A
:102F00005B4508BF601C84B28C4208BF5A46AAF8D1
:102F1000382008BF5846AAF836005B4506D1104055
:102F200058457FF452AF03F0F6FA03E0BAF8AA105E
:102F3000BAF8A800ADF83412ADF83202A8E4BAF934
:102F4000BC50002D00F17B81BAF8B240BAF8B03025
:102F50005B4508BF5C4521D13898212104F0E8FC8D
:102F6000042000248AF8680045213798CAE9024401
:102F70008AF81240AAF8104004F0DCFC4FF0FF3051
:102F80008AF86040CAF86400681CCAF85C400023F4
:102F9000AAF85AB0AAF8BC00CAF8B0409DF81C21A3
:102FA000459E964200F02881BAF8100001210128C0
:102FB00098BF0846BAF95A800521B8F1FF3FC8BF4B
:102FC000011D8DB299B2A94280F0C08602290BD0B2
:102FD000012942D0002953D100944AA8389944AA23
:102FE0000023FDF76BFD59E0A1B238204FF0000837
:102FF0001A91A0EBC1044298D0E9005AC1F108002F
:103000004190D0B2864230D0419988452DD2864237
:1030100007D94499013243928DF81C2111F800B070
:1030200000E0439286424FF0000088BF0120FDF788
:1030300039FD04F038025FFA8BF0002104F0BEFC89
:10304000054342984AEA010A083C08F101084FF694
:10305000FF7BC0E9005A439AD3E700944AA833990A
:1030600044AA0123FFF79CF818E0DDF8F4A01A98B1
:103070004044BAF8B030082804BF5B46584616E012
:103080000322B8F1FF3FC8BF821C90B281423ED9F3
:1030900000944AA82A9944AAFEF7F8FA9DF8280154
:1030A000002840F05386BDF82C01BDF82A3103EA10
:1030B0000001012589B2B1EB0B0418BF0446BAF830
:1030C000B000594508BF431CBAF8102098B2012A35
:1030D00098BF2A46BAF95A50B5F1FF3F4FF005059F
:1030E000C8BF151DAAB2904208BF5C46AAF8B240FC
:1030F00008BF5B46AAF8B03059457DD198B2584513
:1031000004BFA0B258457FF449AF00F062BCB8F1EB
:10311000000F4ED4BAF81600BAF81410594508BF7B
:10312000584509D13798452104F004FC08F1010005
:10313000AAF85A00002000219DF81C21459B9342CB
:1031400049D089B2012900F201860AD0002940F055
:10315000FD8500905CA8349944AA002300F008FF84
:1031600006E000905CA8369944AA0123FDF7A6FC6E
:1031700003F0BDF940F0EA8503F0BDF918BF104631
:10318000BAF814205B4508BF511C8AB2022A08BF56
:103190005846AAF8160008BF5946AAF814105B450D
:1031A00019D103F00EFAC7D14FF6FF704FF6FF7337
:1031B0007DE700945CA8269944AA00F06EFE03F017
:1031C00096F940F0C38503F05EF909D0ADF82C11F3
:1031D000ADF82A0167E7BAF8B200BAF8B03066E78E
:1031E000BAF810004FF000084FF6FF71AAF85A80A5
:1031F00003F09CF98ED1E9E7BAF8C200BAF8C080B2
:10320000ADF82401ADF822813FE003F06BF95CA832
:103210002F9944AA00F041FE03F069F940F064855B
:1032200003F031F929D1BAF8AC0000254FF6FF714F
:10323000AAF8B05003F07AF97FF4D1AA1DE003F0A8
:1032400051F95CA82E9944AA00F027FE03F04FF92B
:1032500040F04A8503F017F90FD1BAF8B8000025FD
:103260004FF6FF71AAF8BC5003F060F97FF46CAE22
:1032700003E0BAF8C210BAF8C000ADF82411ADF8F6
:103280002201BDF82401BDF8228108EA0005B5EB52
:103290000B0618BF0646BAF8C0005D4508BF00F12E
:1032A000010850461FFA88F402F0C7FF80B284423A
:1032B00008BF5E46AAF8C26008BFD846AAF8C08018
:1032C0005D4540F01E859AF80000411E052900F278
:1032D0009981DFE811F006009701400011006500B8
:1032E000B5003E980078012800F06E81002840F07B
:1032F0006F81DF48784469E13F9D6C685CAE3E9A1F
:1033000029463046FCF7D4FFBDF87001002840F094
:10331000E0845D9B304629682246FDF7A7F85C985B
:10332000002800F0C9845D990A23CDE95E010920D7
:103330005D900121CF4878445C90CF4A30467A4472
:10334000FCF766FE03F08EF840F002853F980021FE
:103350000181416054E100200B22CDF82F01CDE91D
:103360004A00409800684AA902F0B8FF002800F01F
:10337000B8845CAC03F0C9F8FCF788FF5C980028BF
:1033800000F09A845D990B23CDE95E010A205D90DF
:103390000121BA4878445C90B94A20467A4426E133
:1033A000BAF8AA00BAF8A81080EA0B00409E03F011
:1033B000B7F818BF002640F02381DAE93212BAF8D4
:1033C000AC50BAF9B0B05CA8FEF70BFA5C9C002CCC
:1033D00000F07284AB4580F0DA8443952E215D9D28
:1033E0005CA804F0A7FA30780638C1B205294FF07E
:1033F000020128BF0846C1B2032900F2D0844FF071
:1034000000080120DFE811F00400D3049A0105034D
:10341000711C4AAE21223046FEF775F89DF828014E
:10342000002840F096810DF50C7803F04FF803F07A
:10343000B1F8ADF8F15130468DF8F0410021DBE2F2
:10344000BAF8B200BAF8B01080EA0B0003F068F8DE
:10345000429818BF002040F0D380DAE93212189069
:10346000BAF9BC805CA8FEF7BCF95C98002800F0B3
:1034700023843F9E13907068002840F08C840820BD
:103480005D9C009031467F4B5CAD42467B442846B4
:10349000FCF7FAFFBDF87001002840F01A84DDF84F
:1034A000608031465D9808F182020F90284643946F
:1034B0007468FCF7FDFEBDF87001002840F0098437
:1034C0000E9498F860405D99706819900D912CB138
:1034D000012C00F04181022C40F061845CAD2E2172
:1034E000284604F027FA4FF0FF30042C28BF04468A
:1034F000189821462B4600F161024AA8FDF71AF8F8
:103500004A9A002A00F014844B9B7CA83F99FDF74F
:10351000D9F8BDF8F001002840F0FB83DDF8F48114
:103520003F9E189A10894390002800F0B981D089F5
:1035300002F11004918980EA0B00CDF8048102F0B9
:10354000EFFF18BF002440F02E84706821461A90C7
:103550005CAD2846FDF7DAF80DF59478294640462B
:10356000FDF702F97CA8314642464023FDF7AAF850
:10357000BDF8F001002840F0CC837D984E210590E5
:1035800070680490284604F0D5F904F1200029461B
:103590004E2202F085FDFDF7FFF802460B4640463D
:1035A0003146FDF78FF8BDF82801002840F0C383AD
:1035B0001A993F9EDDF8048121EA0B0018904B9880
:1035C000039088B213906EE12F487844072102E0FF
:1035D0002E4806217844CDE95E0107205D90012147
:1035E0002B48082378445C902A4A5CA87A44FCF76C
:1035F0000FFD0446A0B24EF60171884240F0A88348
:103600009AF800000021CAF8CC10DFE800F0041C92
:1036100008240F4581000120AAF8000022E00020C4
:103620008AF80800CAF80400032019E00A202B21B8
:103630008AF8040005208AF80000399804F07AF925
:10364000AAF8B0B00EE00020CAF85000C3208AF8F3
:103650000400022004E03E98212104F069F90420CE
:103660008AF800000020CAF8C000FFF70DB800BFBC
:10367000D44A0000B54A0000B64A0000424A0000A1
:10368000444A0000F1480000F7470000E747000007
:10369000EB47000061470000BAF9B0000028E1D410
:1036A0002F99098859B180B201398142DAD1BAF82B
:1036B000A800584504BFBAF8AA005845D2D15CAC5E
:1036C000212104F1210004F033F9279821464222F8
:1036D00004F02AF9062051218AF80000429804F0EB
:1036E0002BF9042000218AF868004FF0FF30AAF877
:1036F000BCB08AF8BA10AAF8B810CAF8B010CAF864
:1037000064008AF86010CAF85C10AAF85AB0A9E7F9
:10371000BAF9BC000028A5D42E990988002900F028
:10372000ED8280B2013981429CD1BAF8B00058458F
:1037300004BFBAF8B200584594D1DFE24AAE214640
:103740002A463046FDF7DFFE9DF82801002800F0EC
:103750004781BDF82A41CCE17CA802F00CFF139808
:10376000002543994FF0000842180392A5EB080189
:1037700090421A9500F0C08110F801AB04914021ED
:1037800013905CA804F0D6F84046DDF864800590FC
:10379000404443903F9805684195439880452BD21B
:1037A00008F1400B284641465A46FCF7ABFE002282
:1037B0003A25C624402A0DD0914200F08D82835CC8
:1037C0005CAE0AEB0323B3FBF5FA0AFB0433B354F4
:1037D0000132EFE7419D41460DF5B8784023284678
:1037E0004246FDF7B1FF02F03DFE40F08F824046B9
:1037F00002F0C1FED846D0E77CA8049A4021FCF72D
:1038000090FE1A9B4FF03A0CDDF81480C62451B19B
:10381000027801390AEB0222B2FBFCFA0AFB04220D
:1038200000F8012BF3E73F98A3F1400600684390AE
:10383000BAF1000F2BD0B6EB080502D0A3EB0805B8
:1038400018E01998C3461A93402308EB00010DF5C0
:10385000F87843984246FDF777FF02F003FE40F008
:103860005582404602F087FE0BF140084FF03A0CBB
:10387000C6241A9B402D80F07D82BAFBFCF07CAA06
:1038800000FB04A10136013382465155D0E7DDF833
:10389000F4A006F1400513984FF6FF7B039A65E705
:1038A00000201890139035685CAC0F9B00222046D6
:1038B0002946FCF7DBFD5C98002800F0FD81DDE97E
:1038C0000D32294641905D981A902046FCF7CEFDB6
:1038D0005C9E002E00F0F081199A2046294643464E
:1038E000DDF874A1FCF7C2FDDDF87081B8F1000FBE
:1038F00000F00A8243985D9AEB4B0028EB497B4429
:1039000079444AD043910DF5B87B189813990F93D9
:10391000059B199241EA000258462946FCF7A6FD8C
:103920005C9C002C00F0F081DDE90332584629460A
:10393000DDF874B1FCF79AFD5C98002800F0E48192
:103940005D99CDE96A010C2069900421D848CDE940
:10395000664B7844689008206590D648CDE9626A45
:10396000784464900F9860901998CDE95E800720A4
:103970005D9043985C90042061905CA8419A1A9BEA
:10398000FCF746FB02F06EFD40F0C0813F9800213D
:10399000DDF8F4A04FF6FF7BDAE40420CDE9626A9B
:1039A000CDE960300720CDE95C100221CDE95E82CF
:1039B0005CA8419A1A9BFCF72BFB02F053FD01BF58
:1039C0003F98002101814160DDF8F4A012E6ADF8D6
:1039D00024B1ADF822B14FF6FF704FF6FF7854E4F2
:1039E0000DF50C7802F072FD02F0D4FD3046022194
:1039F000ADF8F1518DF8F0417CAA5CABFCF79AFD73
:103A00004A99002955D0DDF82C813F984246FCF7B1
:103A1000CFFE43994D1E18B15D454EF6017468D135
:103A2000A5EB0B01B1FA81F1490901420DD03F9993
:103A30000889002800F0BE818889439CE0B30846CD
:103A40002146FCF7C9FE044653E03F985946FCF76F
:103A5000C3FE02F007FD4CD11FFA8BF02E214190DE
:103A60005CA84246FCF7CEFF02464AA83F9E0C46A1
:103A700023463146FCF726FE4198B0810120308173
:103A80004398748101282CD130685CAA1D9B414663
:103A9000FCF75EFFC1072BD140F201110840B0F5E1
:103AA000807F3F981DD100214EF601740181416055
:103AB0001FE0BDF82C411CE0086849895CAA1D9BE9
:103AC000FCF746FFC10713D140F2011108403F99AE
:103AD000B0F5807FB3D100204EF6017408814860B4
:103AE00007E05D454EF6017403D13F984399A8E77E
:103AF000040C4FF6FF7B7DE53F9806687CA8FCF739
:103B0000FDFC024619980B4608EB00013046FDF714
:103B10001BFE02F0A7FC40F01B8113964AA8412D22
:103B2000C0F04E81199C402105EB040803F002FF10
:103B30005CA802F020FD2A4643462146CDF80481C8
:103B40008B426AD904925C1AA048412C05917844B2
:103B5000439064D3139C01F1400202921D4620461B
:103B6000FCF7D0FCA5F1400B80468A46204659461A
:103B70002A46FCF7C7FCCDF80CB04023DDF870C036
:103B80005CAADDF86CE023B30AEB0304402C00F0E0
:103B9000F48098F800503A2D80F0E980439E01EBC4
:103BA000030B0CEB0304BBF1400F755D04F8405CA4
:103BB00000F0928005783A2D80F0D980439E0EEB7C
:103BC000030408F10108013B0130755D04F8405C15
:103BD000D9E7139E402305993046FDF7B5FD04460D
:103BE00080B24EF60175A8424FF6FF7B40F08E8002
:103BF000039C4AAA304640232146FDF7A5FD049ABE
:103C00002346044680B2803A0299A842DDF8F4A027
:103C10001A9DDDF8048193D09AE03F9E31E013981D
:103C20001A46FCF76FFC03914AAADDF810E0002663
:103C300002EB0E011EEB060315D0039A921900F059
:103C40009F8002783A2A80F09E80013B402B80F0D2
:103C50009C80DDF80CC18B190130013E1CF802205C
:103C600003F8012CE6E74AA82146FCF747FC024688
:103C70000B4613980599FDF767FD3F9E02F0F2FB96
:103C800066D1A80625F03F0018BF00F14005706816
:103C900028447060FFF745BC022414E0022053E082
:103CA0009DF871410FE000BF5C45000069450000D0
:103CB000794500000D440000BDF8744148E0002043
:103CC000FCF7F0FE01248DF821413FE09DF87101E1
:103CD0003AE0BDF872413BE0084622E09DF8290138
:103CE00032E04EF2020433E09DF871018DF82101BB
:103CF0002CE00020FCF7D6FE012016E002208AF816
:103D0000E4014EF6017423E0BDF87441DDF8F4A03F
:103D10001EE0BDF8F2411BE00020FCF7C3FE15E0F9
:103D2000042100F047FFFEDE0220DDF8F4A00BE0E6
:103D3000BDF82C410CE0BDF82A4109E09DF8710165
:103D40008DF8F1019DF8F1018DF831024FF46044D6
:103D5000DDE93A120AF1D000FDF7F8FB02F0F0FBC2
:103D600018BF044620460DF5147D02F094BB28468A
:103D70003A21D6E728464021D3E750465146D0E7BE
:103D800003980146CDE71046F2E71846F3E71048DE
:103D90002C21784411E00F48212178440DE00A4895
:103DA0000E21784409E00D482B21784405E02E20AF
:103DB0001121B6E70A482F21784400F04DFEFEDEBF
:103DC000054820217844F8E70B400000925A000093
:103DD000DE4000002A3F0000E03E00006A43000091
:103DE000E440000080B56F46FCF74AFE00F003F89F
:103DF000007802F0EBBBF0B503AF4DF8048D86B050
:103E00000446067814F8808F05463046414600F097
:103E100014F800280CBF2C464646F0B2A52801BF76
:103E200004F1400006B05DF8048BF0BD0020694647
:103E300000902046FEF7C4FAFEDEC0B2A5281CBFE3
:103E4000C9B2A52903D1A53818BF0120704780B594
:103E50006F4600F0FCFDFEDEF0B503AF4DF804BD8B
:103E60000C460949094E054679447E44B04705F1A0
:103E700040002146B04706492846324679445DF85D
:103E800004BBBDE8F04010471942000027000000C5
:103E900006420000012202F025BEF0B503AF2DE975
:103EA000F00D0C460546107B5168D7F8088081421A
:103EB00003D1A5F804806B8056E016465FEA0840FF
:103EC00001A919C102D094F802A006E03046FEF71D
:103ED000DAFA02F080FB84F802A0504602F0B1FA50
:103EE000042803D90020687001203EE08346019831
:103EF000009528B103981FFA88F4B0F800A00CE0F0
:103F000018200AF03F0100EBCB00012400F018005C
:103F100001FA00FA0398A0F800A0ABEB04006FF0E0
:103F2000070101EBC00802F022FB12D05C4510D261
:103F3000304602F0B3FA08F01800E9B2A8F1080818
:103F4000013401FA00F04AEA000A0398A0F800A040
:103F5000E9E7A34508BF4FF0FF34009D0298AC800D
:103F600008BF4FF0FF3068800020287002F0B7BA19
:103F7000F0B503AF2DE9C00D02F004FBCBF1200A30
:103F8000009002F0F4FA0CD055450AD2304602F007
:103F90006FFA0BEB05001F2815D808F8054001350E
:103FA000EFE70099002008700BEB0500202808BF00
:103FB0004FF0FF308880019808BF4FF0FF304880F5
:103FC000BDE80C0DF0BD202100F0F4FDFEDEF0B5E3
:103FD00003AF2DE9C00D02F0D5FACBF1210A009014
:103FE00002F0C5FA0CD055450AD2304602F040FA2C
:103FF0000BEB0500202815D808F805400135EFE740
:104000000099002008700BEB0500212808BF4FF035
:10401000FF308880019808BF4FF0FF304880BDE82E
:104020000C0DF0BD212100F0C5FDFEDEF0B503AFA3
:104030002DE9000DB0B013AE8046304601F06BFDA7
:104040009DF84C401DAD05F1080041214FF0410A9B
:1040500003F070FC2046294632460123CDF878A0B3
:104060008DF8744002F01CFD18B101F00BFDC4B2D4
:104070000CE0291DBDF876609DF8745048229DF82B
:10408000754001A803F052FC202D08D144F06E00C9
:10409000A8F8020013A8FEF787F920250BE008F125
:1040A000040001A902F07BFA13A8FEF77DF9A8F835
:1040B000026088F8014088F8005030B002F04ABA37
:1040C000F0B503AF4DF804BD92B0A7F155060D460B
:1040D0000446701C013102F065FA95F84000012198
:1040E000212261F35F0007F8550C09AD31462846DF
:1040F000FDF709FA9DF8240038B9691C204602F042
:1041000051FA12B05DF804BBF0BD0448A7F11201EA
:10411000034A78447A4401F009F8FEDE08550000AD
:10412000703F000081293EBF0844C1F18001704703
:1041300080B56F460846802100F059FFFEDE0A4632
:10414000A0F130010A2A0DD9242A10D80A293CBF2F
:104150000120704740F02000613810F10A0128BFAB
:104160004FF0FF310020914238BF0120704780B5E9
:104170006F4600F06CFCFEDEF0B503AF2DE9000DDC
:104180008AB0934603228DF824202022059206ABA4
:10419000DBF81060002207C303920192E6B3DBF85C
:1041A00014004FF0000A440120F078400090002CE9
:1041B00052D0DBF8000000EB0A014A682AB150F83F
:1041C0000A1002F0D0F9002856D1DBF8085006F1A9
:1041D00020083069B1690590307F089106F1080127
:1041E0008DF82400284600F04DF8CDE9010128465D
:1041F000314600F047F8CDE90301716955F8310007
:1042000005EBC1014A6801A99047203C0AF1080A60
:1042100000284646CBD02FE0DBE902500DF1040820
:104220004FEAC00A002620F060400090B24513D04B
:10423000DBF8000081194A681AB1815902F093F93C
:10424000D0B9D5E90002414605F108049047083687
:1042500025460028EAD00FE0DBF8040000998142EF
:104260000CD2DBF80000009A50F8321000EBC200CC
:10427000426802F078F908B1012000E000200AB09D
:1042800002F009B90A685AB1012A07D1496800EB5E
:10429000C1025268064B7B449A4203D0002070470B
:1042A000081D01E050F8310001680120704700BF8F
:1042B0008F0E0000F0B503AF2DE9000D9A461646AB
:1042C000884604460025A84509D0DAF81020304673
:1042D0002146904701350028F5D0691E00E041468F
:1042E0000020414538BF012002F0D5B8F0B503AF3A
:1042F0002DE9FF0DC4698B46B968064614F001002C
:104300004FF02B0500EB010A08BF4FF4881560073A
:10431000CDE90513079202D44FF0000B05E00BEB3B
:104320000201584600F088F88244306868B3D6F835
:104330000480D04529D9200742D4A8EB0A01304691
:104340000122012400F022F9B0F5881F2AD0D6E915
:104350000586824607980C460090314640462A461C
:104360005B4600F0F2F8E0B9F3684046DDE905216C
:104370009847B0B9504621464246334608B0BDE89A
:10438000000DBDE8F040FFF795BFD6F814802A462F
:10439000B6695B46079800904046314600F0D5F874
:1043A00020B10124204608B002F075B8F3684046F9
:1043B000DDE9052108B0BDE8000DBDE8F040184773
:1043C000306901240390302030615B4696F820006C
:1043D000D6E905210290079886F820400090104603
:1043E00007922A46049100F0B0F80028DAD1A8EB31
:1043F0000A013046012200F0C9F8B0F5881FD1D07B
:10440000DDF810A08846079C0546DDE90521DAF8AD
:104410000C30204698470028C3D128464146224602
:104420005346FFF747FF0028BBD10298002486F8C7
:10443000200003983061B5E7F0B503AF2DE9F00D2A
:10444000091A10296BD3C21C22F00302121A9142DE
:1044500065D3042A63D88B1A5FEA93085FD000EB18
:10446000020B23F003010BEB010A114603F00305D5
:1044700000F03AFE04465046294600F035FE04445A
:10448000B8F1000F5DD06D46434628465946424676
:10449000B8F1C00F28BFC02300F032FE9DE8060827
:1044A00022F003032846DDF80C8000F029FEDDE948
:1044B00000210023DDE902EC02EB8106B24211D0BB
:1044C000002104290CD052F8210001316FEA000AC2
:1044D0004FEADA1545EA901020F0FE300344F0E789
:1044E0001032EBE74FF0FF1000EA132123F0FF2218
:1044F000BCF1000F114401EB014104EB1144BFD0AA
:104500004FEA8C0200218AB15EF8040B043AC343DF
:10451000DB0943EA901020F0FE300144F3E704B0D9
:10452000BDE8000DBDE8F04000F0DEBD4FF0FF102B
:1045300000EA112021F0FF21084400EB004004EBC9
:104540001044204604B001F0A6BFF0B503AF4DF80B
:10455000048DD7F808801C460D460646B2F5881F24
:1045600006D02B6930461146984708B101200AE071
:1045700044B1EB683046214642465DF8048BBDE805
:10458000F040184700205DF8048BF0BDF0B503AF94
:104590002DE9000D90F820308846DFE803F00F0980
:1045A00002074B0801314FEA510807E0120603D019
:1045B0004FF000080B4601E000238846D0E904A62E
:1045C0005C1C8569013C07D02A69304651469047FA
:1045D0000028F7D04FF4881A50464146BDE8000D38
:1045E000F0BDF0B503AF2DE9F00DD0F80080064620
:1045F000806892468B46B8F1000F01D010B92DE0CB
:10460000002849D0F068002103910BEB0A01CDF896
:1046100004B0451C029101AC013D06D0204600F0DB
:1046200051F8B1F5881FF7D115E001A800F04AF85C
:10463000B1F5881F0FD030B1504506D21BF90010DC
:1046400011F1400F02DB594601E0FCD000210029A6
:104650001CBF82468B46B8F1000F1DD00BEB0A0140
:1046600058467468FFF7E8FE844215D9211A30468F
:104670000022FFF78BFFB0F5881F09D0D6E9055659
:104680008046F3680C46594652462846984770B112
:10469000012004B001F0FFBEB16952467069CB68D9
:1046A000594604B0BDE8000DBDE8F040184740464B
:1046B00021462A46334604B0BDE8000DBDE8F0406F
:1046C000FFF7F8BDF0B503AF4DF804BDD0E90031F8
:1046D0008B4227D01C4614F8011B04604AB2B2F189
:1046E000FF3F27DC5D789C1C01F01F02DF2905F0ED
:1046F0003F05046019D99E78DC1CF029046006F09F
:104700003F0646EA851513D3D97802F007021C1D2F
:10471000046001F03F0141EA851141EA8241B1F5AF
:10472000881F07D14FF4881108E045EA821101E0A3
:1047300045EA02318268D31A2344836010465DF84B
:1047400004BBF0BDF0B503AF2DE9000D8EB0D0E98C
:10475000056B0446DBF80CA01D463046D04720B15F
:10476000012528460EB001F096BED4F81C800095B5
:104770005FEA48700ED4224930460122012579446F
:10478000D0470028EDD100982146BA68904700280C
:10479000E7D12CE01B49304602227944D04701255D
:1047A0000028DED1A7F13D0007F83D5C0390CDE97C
:1047B000016BCDF83080144878440B9001A80A9022
:1047C00094F820008DF8340094E82F0005AE2FC631
:1047D00005A90098BA6890470028C1D1DDE90A010F
:1047E0000222CB680949794498470028B8D1D4E916
:1047F00005010122CB680649794498470546B0E790
:104800004339000025390000E0380000CF380000AF
:104810004B3B0000B0B502AFA2B00C46C9690068BE
:10482000CA0608D4890613D40078214622B0BDE810
:10483000B04000F0AFB8017802AA7F2001F00F036A
:1048400057250A2B38BF302501F07FFEF6D10BE04B
:10485000017802AA7F2001F00F0337250A2B38BF09
:10486000302501F072FEF6D1411C02A8FFF75AFC78
:10487000009103460349204602227944FFF736FDA2
:1048800022B0B0BD1A380000F0B503AF2DE9000D1D
:1048900090B000680C460122D0E90058D1E905012A
:1048A000CB6836497944984706460120B8F1000F95
:1048B0004FEAC67155D0029509B101264CE0D4F8F3
:1048C0001CA0C0075FEA4A710ED440B9D4E90501C3
:1048D0000222CB682C49794498470028EDD102A8E0
:1048E0002146FFF797FF36E068B1D4F818B00122EF
:1048F000606901260190DBF80C302549794498471E
:10490000019910B128E0D4E9051B0120CDE9031B72
:1049100007F83D0CA7F13D0005900DF11C0CCDF8FA
:1049200038A0174878440D9003A80C9094F8200004
:104930008DF83C0094E84F00ACE84F0002A807A9AE
:10494000FFF768FF0028B8D1DDE90C010222CB682F
:104950000C497944984706460135A8F10108002022
:10496000A4E709B1012006E0D4E905010122CB68E2
:1049700006497944984710B001F08DBD1F380000FA
:104980007437000063370000E13700005237000041
:10499000C6370000F0B503AF2DE9000D8CB0284BF1
:1049A000A7F13F0E8C4600247B4442F20F7842F27E
:1049B000107A4FF0640B404514D9B0FBFAF50EEBBA
:1049C000040105FB1A00043CB0FBFBF606FB1B00D0
:1049D00033F81620A1F8232033F81000A1F82500A1
:1049E0002846E8E763280ED982B26425B2FBF5F0C9
:1049F0000EEB040100FB152233F81220A1F825204C
:104A000004F1250201E004F127020A2804D2013A48
:104A100030300EF8020004E033F81000023A2EF8AD
:104A20000200C2F12700009006490EEB0203604627
:104A300000227944FFF75AFC0CB0BDE8000DF0BD30
:104A4000404B0000AE4B00000068FFF7A3BF80B5ED
:104A50006F46FDF791FBFEDE80B56F46FFF7F7FF6F
:104A6000FEDE80B56F46FFF7F2FFFEDEE0B502AF77
:104A7000BC68009400F002F8FEDED4D4E0B502AFCA
:104A800016464FF4807298460C46054600F066F8CC
:104A9000D7F808A040B9A64203D8A04598BF46451C
:104AA00013D9FFF7D4FFFEDE0346A04204D2E85636
:104AB00010F1410FEFDC00E0EDD028462146002246
:104AC000CDF800A0FFF7D2FFFEDE7EB946462846AD
:104AD0002146324600F042F8024670B9A24213D194
:104AE0001D482B217844FFF7B7FFFEDEA6422BD2EC
:104AF000A85710F1400FE9DAE9E7A24226D2A856FA
:104B000010F1410FEADC22E0A81890F90010B1F191
:104B1000FF3FC6DCC9B2E02928BFF029C1D34278E3
:104B200001F007018378C07802F03F0203F03F03F1
:104B3000120300F03F0042EA8312104440EA814031
:104B4000B0F5881FADD1CBE7C0D0C0E7C6D02846AE
:104B500021462346B4E700BF30360000D0B502AF8F
:104B6000914212D90346D01E38BF0020511C814209
:104B70000DD31C181944091B1A4429B112F9013923
:104B8000013913F1400FF8DB01440846D0BD00F0B5
:104B90002EFAFEDED0B502AF0C46994201BF114697
:104BA0002246BDE8D04002F0BFBE2046194600F0C4
:104BB00001F8FEDE80B56F46FFF749FFFEDED4D474
:104BC000F0B503AF2DE9000D94B00A240023CDE920
:104BD00009410125016802914168ADF84830CDE9ED
:104BE00010320F94CDE90D25CDE90B230191866894
:104BF00009A81830079000969DF84900002840F059
:104C0000C4800E9BDDE90AC5DDE90CB2581E089090
:104C1000CDE9053CCDE90325AA424FF0000088BF4D
:104C200001205A454FF000010CEB0B0438BF012165
:104C3000084318BF002477D1DDE90701A2EB0B067A
:104C4000072E10F801A007D800218E426BD0605CBF
:104C5000504546D00131F8E7E01C20F00300A042A7
:104C600002D14FF0000810E0A0EB04085046B04518
:104C700028BFB0462146424600F016FADDE903257A
:104C8000012802D1DDE9053C2BE04FF00130A6F10F
:104C900008010AFB00F0884515D854F80820424066
:104CA000A2F1013323EA020204EB08035B684340EC
:104CB000A3F1013525EA03031A4312F0803F02D124
:104CC00008F10808E7E704EB0801A6EB08025046E4
:104CD00000F0EAF9DDE903250128DDE9053C22D1F0
:104CE000414401EB0B0000F1010BCDF830B09B45C6
:104CF00092D3AB4590D8052B4BD2ABEB03001946B2
:104D0000079A6044059B00F04BF8DDE9053C00285C
:104D1000DDE903253FF480AF109DCDF840B0ABEB4B
:104D20000504009E0CE00C9201209DF848108DF8BF
:104D30004900DDE91050009E09B9A84225D0441B66
:104D4000307848B101980422C36814490298794424
:104D50009847DDF818C0B0B90A20654413903CB1FB
:104D600060190121421E13A8012300F019F800E088
:104D700000203070294601982246C368029898475F
:104D800000283FF439AF012000E0002014B001F00A
:104D900082BB1846042100F02AF9FEDEEC30000048
:104DA00000F093B9F0B503AF2DE9000D8EB00446C5
:104DB00000794FF0010B00284FF0010062D1266806
:104DC0009246627998460D46F069410725D43548E8
:104DD000002A35494FF002027844794408BF014661
:104DE00008BF0322D6E90503DB689847002848D1AD
:104DF000D6E905015246CB6829469847002840D19C
:104E0000D6E905010222CB682C4979449847C0BBFA
:104E1000BA6840463146904734E042B9D6E90501C8
:104E20000322CB6824497944984750BBF06901219B
:104E30000C9007F83D1CA7F13D0103911B487844F5
:104E40000B90B06902907069019096F820008DF87F
:104E50003400306909900FCE05AE0FC601A829466F
:104E600052460A90FFF7ACFE58B901A81049022239
:104E70007944FFF7A5FE20B9BA6805A940469047D6
:104E800038B101202071204684F805B00EB001F041
:104E900002BBDDE90A010222CB6806497944984742
:104EA000F0E700BFE1320000DD3200005A320000BE
:104EB000F2320000193200008C320000583300003A
:104EC000D0B502AF04460079617911B128B1012053
:104ED00015E0002818BF0120D0BD2168087F4007D9
:104EE00006D4D1E905010222CB680649794405E0E0
:104EF000D1E905010122CB68034979449847207123
:104F0000D0BD00BFD1310000C2310000E0B502AF1A
:104F100000228029019203D28DF80410012230E092
:104F200002220B4662F39F13B1F5006F05D28DF894
:104F30000530C02343EA911121E0B1F5803F0DD245
:104F40008DF80630E02343EA1133890962F39F119B
:104F50008DF804308DF80510032212E08DF807302B
:104F60008B0962F39F138DF806300B0B890C62F3EB
:104F70009F131E2262F3DF0104228DF805308DF8A5
:104F8000041001A9FFF71CFE8CBDD4D4F0B503AF0B
:104F90004DF804BD88B0019002AA91E878501046FF
:104FA00080E8785001A804497944FFF7E5F808B093
:104FB0005DF804BBF0BD00BF203100000068FFF7C2
:104FC000FFBD0068FFF7A2BFF0B503AF4DF8048D39
:104FD00086B00068EC4691E874416346614683E818
:104FE0007441FFF7D3FF06B05DF8048BF0BD80B5C8
:104FF0006F4600F001F8FEDE80B56F46FFF727FD33
:10500000FEDED4D4DFB506AF0C460190D1E9050130
:105010000D22CB680B497944984700218DF80C008C
:105020008DF80D100422029407487844009002A8DD
:10503000064901AB7944FFF7B5FEFFF741FF04B025
:10504000D0BD00BFCA300000230000001A2E0000AF
:10505000B0B502AF0068052200780E4D7D44DFE850
:1050600000F01203070B0F000B4D0C227D440AE0E9
:105070000A4D0B227D4406E0094D0B227D4402E0DF
:10508000084D04227D44D1E90501CB682946BDE8DD
:10509000B0401847B3300000973000008430000063
:1050A00071300000C22D0000D0B502AFC0B20023A5
:1050B0009A4204D0CC5C844203D00133F8E700204C
:1050C00001E001201A461146D0BD99421CBF0020C4
:1050D0007047D0B502AF0C461146224602F072FC72
:1050E000B0FA80F04009D0BD0246002039B112F973
:1050F000013B13F1410FC8BF01300139F6E770479A
:10510000D0B502AF9A4221BFD21A01EB830480E8E6
:105110001A00C26028BFD0BD024823217844FFF79F
:105120009BFCFEDE233000000068FEE780B56F4682
:10513000FFF78DFCFEDED4D4B0B502AFA2B00C46B2
:10514000C969CA0607D4890612D4214622B0BDE82F
:10515000B040FFF779BC016802AA7F2001F00F037D
:1051600057250A2B38BF302501F0EFF9F6D10BE0B7
:10517000016802AA7F2001F00F0337250A2B38BFF0
:10518000302501F0E2F9F6D1411C02A8FEF7CAFF72
:10519000009103460349204602227944FFF7A6F80E
:1051A00022B0B0BDFA2E0000F0B503AF4DF8048D6B
:1051B000D41F4FF00003844638BF1C46C81C20F0A3
:1051C0000300A0EB010E544878448046934280F0DF
:1051D0008980CE5C70B200281AD41EF1010003D081
:1051E000AEEB0300800702D00133EFE70833A342A0
:1051F00008D2CD18C8586D68284310F0803FF5D00C
:1052000000E001339342E1D2C8560028F9D5DDE72A
:10521000454618F80650042D0BD0032D15D0022D4D
:1052200066D1581C904261D20D5615F1410F57DDE1
:105230005EE05D1C954259D24D57F02E12D0F42EEF
:1052400016D115F1710F1DDD52E05D1C95424DD256
:105250004D5DE02E25D06DB2ED2E27D115F1600FFA
:1052600037DB45E005F17000C0B230280AD33FE0DB
:105270000F300126C0B202283BD815F1400F4FF085
:1052800001003DDA981C904230D2085610F1410FCF
:1052900031DCD81C904229D20D5615F1410F1FDD8B
:1052A0002CE005F0E000A02813D021E000F11F065B
:1052B000F6B20C2E03D215F1410F0ADD18E020F0F2
:1052C00001000126123014D115F1400F4FF00100FA
:1052D00016DA981C904209D20D5615F1410F0ADCDE
:1052E000431C73E7CCE9011200200FE0002007E027
:1052F0000126012004E00120022601E0012003260E
:10530000F1B240EA0120CCE901300120CCF80000E4
:105310005DF8048BF0BD00BF9C2F0000BFB506AF49
:10532000044604300D460190D1E905010922CB68FD
:105330000F497944984700218DF80C008DF80D1025
:105340000B22029523460B487844009002A80A4994
:105350007944FFF727FD094909227944009108495A
:1053600001AB7944FFF71EFDFFF7AAFD04B0B0BD05
:10537000322F0000EDFDFFFF1D2F00002700000071
:10538000162F0000E0B502AF006802786AB1013064
:1053900001900B48784400900A4A01AB08467A44D1
:1053A00011460422FFF7CEF98CBDD1E90501042294
:1053B000CB680549794402B0BDE88040184700BF7A
:1053C0007DF4FFFFA02A0000AA2A0000D0B502AF9A
:1053D000044600F09FFD08B900F0A2FD00F09AFD20
:1053E00068B12046042100F091FD20780528F5D110
:1053F000E07841082046BDE8D04000F0A3BD06207B
:10540000D0BDD4D4F0B503AF2DE9000D9AB08346DA
:10541000807DDFE800F0020D23785846032100F07C
:10542000C9FCDBF81000002800F03E81AB490FE01A
:10543000DBE90001012202920222009203222323CF
:1054400000F056FCDBF81000002800F02D81A24986
:105450000D910C900CA800F019FD25E101203222DD
:10546000012400F0FDFA9BF814500646012D53D993
:105470000DF1140811210496404602F05BFA002653
:1054800028468DF82A60ADF828600AA900F090FD42
:1054900082469BF815000D468DF82E60ADF82C6005
:1054A0000BA900F085FD17948D4ACDE9134A7A4483
:1054B000CDE915528B4A10AB7A4407C302200F90F6
:1054C000894878440E90DBE90001CDE90C010CAC71
:1054D0000020062E27D004EBC6014A68C0F1110156
:1054E0008A4238BF1146F1B10D1880F0E580112DC8
:1054F00000F2E48054F8362040440B46FFF74AFBA4
:1055000001362846E5E7584601211AB0BDE8000DEE
:10551000BDE8F04000F04EBC0222DBE90001009241
:10552000032202948BE00CA805A91122FFF73CFE90
:105530000C98002840F0C780DDE90DC2002393429B
:1055400033D01D466344184610F9014BE1B2B4F163
:10555000FF3F23DC5C7801F01F00DF2904F03F04EB
:1055600015D99E78F02906F03F0646EA841412D336
:10557000D97800F0070001F03F0141EA841141EAC7
:105580008041B1F5881F00F09280181D06E044EAC2
:105590008011981C02E044EA0031D81CA0EB0C03F7
:1055A000A84600291D46CAD003E04FF00008134664
:1055B0000025934238D00CEB02001646024612F842
:1055C000011D4CB2B4F1FF3F29DC024612F8021D66
:1055D0004FFA81FE1EF1400F11DA024612F803ADB8
:1055E0004FFA8AF111F1400F0CDA10F8042D01F096
:1055F0003F0102F0070241EA8211024604E001F095
:105600001F0005E00AF00F010EF03F0040EA811094
:1056100004F03F0141EA8011B1F5881F04D0A2EBEC
:105620000C020029C5D000E02E460120A6EB08019F
:105630000290022000900CEB0800049E03223346E7
:1056400000F056FB0CA81821002219B1E0E8022254
:105650000839FAE7DBE9028406F10E0A0CAE1125DF
:105660004FF0180B19E02346A54238BF2B46E6E859
:1056700002231E48214678440090404600F03CF842
:1056800000225346029202220092032200F030FBD5
:105690000AF10E0AABF1080B1135BBF1000F1CBF6C
:1056A000A5F111029442DED81AB000F053BF2B4688
:1056B0004FF0000800257CE7294601E0284611212B
:1056C000FFF795FCFEDE0A4818A90A4A78447A4496
:1056D000FFF72CFDFEDE00BF3900110039000A0083
:1056E000952E00008A2E00007E2E0000CE2C000099
:1056F0004E3F0000B62B0000DCB504AF934210D340
:1057000042B18A4204D2845614F1400F02DA08E012
:10571000914206D163B18B4208D2C45614F1410FB5
:1057200006DCBC680094FFF7A1F9FEDE9942F8D1CF
:105730001044991ADCBDD4D4F0B503AF2DE9FC0DAB
:10574000834688460068DBF80410354A7A440092A4
:1057500008EB081202F111038B4228BF0B46FFF73A
:10576000CBFFDBF808A004460591DAE904019AF8BA
:1057700018502A4600F096FA10B3064629484FF40E
:1057800059713246784405FB0105DAE9020100F05F
:1057900055F9CDE90304444695F86083DAE9000140
:1057A000424600F05DF901461F4800224346784416
:1057B000A046CDE9002032460398049C00F01EFB71
:1057C0000598CAF81040CAF814001848784400F048
:1057D00077FB1748784400F073FBB8F1000F03D053
:1057E0001548784400F052FBDBF80C1008F101007A
:1057F0000968884203D20F48784400F047FBDAE991
:1058000004019AE83C009AF818608DE8700000F0F6
:105810006FFA06B0BDE8000DBDE8F04001F0BEB97A
:10582000082C000078320000163900006C2B0000B4
:105830005C2B0000382B0000562B0000F0B503AFA6
:105840004DF804BDA2B0044600F064FB08B900F0B6
:1058500067FB01AD8021284602F06CF800F05AFB8E
:1058600038B32846802100F051FB9DF80400BDF8B4
:10587000056000F077F9C0B20F2811D016280AD0C1
:105880001028EBD130BA000C0228E7D9204629466F
:1058900000F0B0F9E2E72046294600F0E5F9DDE73F
:1058A000B0B2B0F5807FD9D19DF8070000F068F95B
:1058B000D4E71B4D19F8050007281CD00A2821D170
:1058C000B4F80801532107F8131C00BA010E000CAC
:1058D00007F8120CA7F1130007F8111C032101F0BF
:1058E00025F9D4F808110020224600F01DF889B2ED
:1058F00001F01CF906E0B4F8081122460948784482
:1059000001F082F809EB0501002009F80500C4E95F
:1059100041008871488022B05DF804BBF0BD00BF33
:10592000000000005F0E000080B56F46814209D381
:10593000B1F5827F9FBF0244091A104680BD084618
:105940004FF48271FFF753FBFEDED4D4D1F804315B
:10595000042B05D10C4A002141607A440260704753
:105960000A7912B1052300F030B8052BF2D0062BCE
:1059700005D10021016046F6036181807047B1F8CE
:105980000520072300F021B8863C000080B56F4653
:10599000D0F808219308402B9FBF0B0A8354D0F8FE
:1059A0000821013298BFB2F5827F3FBF8154D0F801
:1059B00008110231C0F808113CBFBDE88040FFF774
:1059C0003DBF104600F0DAFDFEDEB0B502AF044682
:1059D0002AB10D469918D5F80401814205D9002055
:1059E000206046F60360A080B0BD18462A46FFF747
:1059F0009BFFC4E90001B0BDD0B502AF72B1D0F8D1
:105A000008319C08402C0AD811F8014B013AC454C3
:105A1000D0F808310133C0F80831EFE7D0BD18469F
:105A200000F0ACFDFEDED0E900120023914208BF79
:105A3000704701F8013B0160F8E7D4D40346022027
:105A4000D0B502AFDFE803F00A020509C2F17E001B
:105A5000D0BDC2F180004008D0BD0846D0BDD4D42E
:105A600003460320D0B502AFDFE803F00A020609BF
:105A7000C2F140004008D0BDC2F13D00D0BD084693
:105A8000D0BDD4D4014600F17F021020222A15D8BF
:105A9000DFE802F0121E20222426282A2C2E303283
:105AA0001D1D1D1D1D1D1D1D1D1D1D1D1D1D1D1D26
:105AB0001D1D1D1D1D3436000120704711F1BF0250
:105AC00004BF0D207047DF3104BF002070477047CE
:105AD000022070470320704704207047052070475C
