:02000004C0D06A
:1000000080B500AF06F0BCF9012005F05BFFFEDE15
:1000100080B500AFC6B08920410001AC204607F092
:1000200064FB07204103204605F02EFC002005F06C
:1000300049FFFEDE80B500AF88B068460121017738
:10004000064A069202220292009104220592044A74
:100050007A44049205F044FD08B080BD80000B0096
:10006000717A0000D0B502AF90B0684601220277E5
:100070000146203100230B770A4B0E9302210A918F
:10008000089205240D94084C7C440C940693082394
:100090000593064B7B4404930291009205F020FDEA
:1000A00010B0D0BD80000B000C7A0000F879000081
:1000B000D0B502AF90B068460122027701462031E8
:1000C00000230B770A4B0E9302210A910892052414
:1000D0000D94084C7C440C94069307230593064B1F
:1000E0007B4404930291009205F0FAFC10B0D0BD5D
:1000F00080000B00E0790000CD790000B0B502AFC0
:1001000090B06C462546203503F08EFE00212977FD
:10011000012222770F4B0E9302210A910892069337
:100120000D2305930C4B7B4404930291009200280D
:1001300001D1082200E007220D92002802D10848D0
:10014000784401E0054878440C90204605F0C8FC4E
:1001500010B0B0BD80000B00737900006079000022
:100160003C790000FEB506AF0190007801263446C8
:100170002B2817D02D2815D000221446561E701E8D
:100180008641012A0ED001980292805C0A252946F8
:1001900004F007F8002804D065436C18029A521C3A
:1001A000ECE701243046214603B0F0BDE0B502AFD4
:1001B000002801D108468CBD0348784401A9034AB0
:1001C0007A4404F0B9FEFEDEA47F000094780000BB
:1001D000D0B502AF044605F0C7F80548784405F0ED
:1001E00099FD0448784405F095FDA047D0BDC04670
:1001F000F47D0000E47D000080B500AF0248784443
:10020000FFF7E6FF80BDC046FBFEFFFF80B500AFF5
:10021000C0B2032814D8C04678440079400087440F
:100220000107040A0848784407E0FFF7E5FF80BDAE
:100230000648784401E006487844FFF7C9FF80BDCE
:1002400004F0DCFBFEDEC0463BFEFFFF7BFEFFFF53
:10025000F9FDFFFFF0B503AFFFB0FFB0D9B0924892
:1002600068442590FFA84C3028908920410029AC93
:10027000204607F03AFA1D20069000016EAE3018B5
:100280001421129007F098F9002535809E9530468C
:10029000D0300D9001F0DCFD79208000269035549F
:1002A0003046C03081498160C560E9958048E8905A
:1002B0002846FFF7ABFF4320800020182390412001
:1002C0008000229020182790FF20123020182490C0
:1002D000269830181390FFA89430014608311191E8
:1002E000014649311091014648310F91FFA99431DF
:1002F0000A4649320C920A4648320B92FFAA08324B
:10030000521D1F92FFAA9432134649331E9313467F
:1003100048331D93FFAB94339B1C0593F0AB5C1CDF
:100320000994DB1C0893FFAB94331B1D0793001D3E
:100330000E90081D0A90FFA89430401C1A90FFA848
:100340005030401C1C90101D1B90372040022690FE
:100350002195209523E005F0C2FD002801D105F08C
:10036000C6FDFFAC943480262046314605F0B0FD32
:100370006578A4782898806C05F03CFCC0B20146F2
:100380000E39082921D820024019C046794409793C
:1003900049008F44040F2D36363636362700FFA825
:1003A0009430802107F0A1F92198424988710870A2
:1003B0004880D0E70121090280B2884221D1FFA8FC
:1003C0009430C07805F024FC1BE0052819D1FFA863
:1003D0009430C0784108239805F04AFDC0B2062841
:1003E0000FD056E029A8FFA9943105F077FC08E06A
:1003F00000BA000C022804D929A8FFA9943105F0FD
:1004000039FC2C4800780028A5D02A4840880028CC
:10041000A1D027990860042802D22698C11C2FE099
:100420002148684429A905F007FA25990868002899
:1004300025D024990878002804D0487829A909787B
:10044000814221D1299C200AC6B2022E3AD9279C8A
:1004500060682299884200D357E329AB6E221A5470
:100460006068401C884200D34FE329A901220A5446
:100470006068801C6060084605F05EF96BE74968BB
:1004800029A805F001FA66E729A8269905F0FCF9E4
:1004900061E7052883D8C046784400794000874446
:1004A0000C740B696C61C04610050000C08AD0C096
:1004B000C082D0C00002002071E7E848784405F00F
:1004C00029FC6CE72798006800282ED0EAA81421A0
:1004D00007F00BF9E0B26E24802829D1002E00D15C
:1004E00081E0012E00D0AFE0FFA8943029A905F0EB
:1004F000A3F92899886C0028279D00D1B7E0C96C22
:10050000EAAA05F005FF002800D1BAE029A8827800
:10051000C0780146114300D106E10226042A00D02A
:10052000B0E00328229906D801E16E24032600E0FA
:1005300000262299279D6868884200D3E5E229AA0F
:1005400014546868401C884200D3DEE229A90E5486
:100550006868801C6860084605F0EEF82098FFF790
:1005600055FE1CE72098C0B2022813D0032800D003
:1005700015E7D6E22098411E01E02098411C032097
:1005800008402090FFF742FE09E7D348784405F081
:10059000C1FB04E703F08AFD044603F050FC007839
:1005A000CE49794401281991084601D0CC487844B5
:1005B0002090A15D207803F061FC26468036054638
:1005C0000028204600D13046209903F067FC002D1A
:1005D00000D126463046199903F078FCFFF70CFE4F
:1005E00002202090DBE6BF4878441890BE4C7C4443
:1005F000A047199101263040BC4D7D44A847BC4816
:100600007844A04717913040A8471898A0470C4657
:100610003040A847FFA994318C70179848701998FA
:10062000087029A8032205F067F9002409200103B6
:1006300029A805F029F92298001F04428ED0002035
:100640002090FFF7E3FD89E7FFA8943029A905F082
:10065000F3F82898866C002E0ED0C56C139800789D
:10066000002811D0022830D1E648421ECDE0FFA874
:1006700094308688340A05E0FFA894308688340ACE
:1006800057E70326229956E729A82699CA1C172D51
:1006900000D2BAE08078002800D0B6E014213046BD
:1006A000129A05F035FE0028D74A00D1ADE00124AA
:1006B00013980470B07D012804D103F0B5FB002825
:1006C00000D169E11436143D04E029A8807801289E
:1006D00000D098E06EA8E8AB31462A4601F02EFF24
:1006E000024680B2C749884200D08EE01398007855
:1006F00002289AD1FFAC943420460D9901F0ECFB0E
:100700002078002800D1F5E0FFA894304088064604
:10071000040A01256EA801F0FBFE002D2299279DF9
:1007200000D008E70C1F81E7002A00D188E0199269
:10073000114606F021FF1891FFAC9434EAA9204637
:1007400000F01EFA2078202866D01490FFA894307C
:100750004188179140781690F64E6E4444253046F5
:100760001B992A4606F073FF1E9A9078FFA94C3118
:100770008870107852781202101808801D9804783A
:10078000FFA8083031462A4606F061FF20221C9857
:100790001F9906F002FF0121159420460D460840DE
:1007A000801CFFA950310870FFAC943421262046EC
:1007B000324601F063FB2078002800D0A8E1FFA8B2
:1007C000743020221A9906F0E8FE0021DE48202924
:1007D00006D0FFAA7432525C70438018491CF6E7B9
:1007E000284300BA010A020C4A40010E5140414020
:1007F000C8B2199906F0C0FEEE9E189881420FD03B
:10080000701CEE9098E72698821C6EA8164601F0A0
:100810007FFEB0B2040A8CE6FFA8943046882EE72B
:10082000F0A8CA496944442206F011FFFFA84C30E1
:100830008078EFA98870289800680880149C28E0C8
:10084000FFAC9434EAA9204600F09AF920782028D9
:1008500006D1FFA8943046880CE7C046A07A000075
:100860000446FFA894304188179140781690F0A86C
:1008700044220A9906F0EBFE0C9A9078EFA9887052
:10088000107852781202101808800B980078159092
:10089000EE9EFFA89430179941801699417004701C
:1008A000F0A944220E9806F0D2FE0F981599017017
:1008B000EFA90322109806F070FE29AC41222046D1
:1008C000119905F019F830BA259908609F496944D3
:1008D00004222046A7E6C046B479000078770000DD
:1008E0006E770000F974000073FBFFFFAFFBFFFFA2
:1008F000E2740000FFA89430417819914588934C28
:100900006C441D2620460799324606F046FE08989C
:100910002146324606F041FE280A099948700D70BA
:10092000F0A919980870FFAC9434204600F038FD07
:10093000864E6E443046214600F060FDFFA894309C
:100940004022314600F09CFA289B986C002800D188
:1009500082E0D96C0425864A7A449A64DD6418657D
:100960005965FFA894300124824A7A440C23214619
:1009700000F04EF982B270498A4200D070E0FFA8C0
:100980000830129905F016F971486844006821286A
:10099000189468D203206EE004F0E6FCFFA808304B
:1009A000002505710220F0906A4969440D60FFA995
:1009B00094310D77289A106594646748784490655F
:1009C000D5655F481066F0A8644A7A44259B1A6092
:1009D000069A5A609960D8605C486844294604F0D9
:1009E00023FEFFA8083004F0A2FCC0B20628F8D00D
:1009F0000528F6D801A1085C40008744080D0722AD
:100A0000122AC04601EF000003E00000E9E7544865
:100A1000784405F07FF9E4E75248784405F07AF924
:100A2000DFE75248784405F0BDF96E1CF098864225
:100A300000D32E4645486844314604F0F5FD35465E
:100A4000CFE74948784405F0ADF96D1EC4D20025C2
:100A5000C2E73A48421CD8E6FFA89430808856E6A0
:100A60000646140A55E61995302805D9412801D3C0
:100A7000092000E005201990344C6C44482620469B
:100A8000314606F032FE289886620646002545600B
:100A9000FFA850300390FFA87430029001942020EA
:100AA0000090FFA80830F0AB2649199A05F040FEE7
:100AB000002806D0FFA8083001F0A8FCE024189E0A
:100AC00027E62249694448221892059806F065FDF8
:100AD000B46A1E48684419900599189E324606F07B
:100AE0005CFDFFA8083001F091FCFFA89430199933
:100AF000324606F0ACFD492C17D229A8FFA9943143
:100B0000224604F0F9FE2C4604E604F0EAF9FEDE83
:100B100019487844FFA97431184A7A4404F00CFA51
:100B2000FEDE002005F0CEF9FEDE4821204604F06E
:100B3000BFF9FEDE1005000001EF000003E0000039
:100B400080000B00010600000515000010050000E4
:100B500008040000040400006877000033730000FC
:100B60004C75000026750000187500001C7500000B
:100B700071710000627200004C7600004A6F000044
:100B8000F0B503AFB1B0019014AE304605F012F8E5
:100B9000307800901EAD284608304124214606F0EA
:100BA000A4FD009828701F9401232946324605F0C1
:100BB000C5FD002803D004F0B3FFC4B20AE0291D2C
:100BC0001EA846884478057802A8482206F03FFD12
:100BD000202D08D16E202043019E708014A801F0C2
:100BE00015FC20250CE00096019E301D02A948222C
:100BF00006F02DFD14A801F009FC009870807470B7
:100C0000357031B0F0BD80B500AFFFF701FAFEDE00
:100C1000F0B503AFFFB0FFB0B9B00C9101460DA81D
:100C2000002505710D950FA88582012484758348E0
:100C3000784413901295824E7E440FA84CC0092030
:100C4000C00115AA00280AD0166055609660D560CC
:100C5000156195820323937518381832F2E70C98C2
:100C600000010A460818059015A81630039006944E
:100C70000496059882424BD0D0680A90401E1121FC
:100C80000B9206F0DFFC0B9B18216943039A561860
:100C9000411C18461030079000221446089509910F
:100CA0002D19A14230D098686C49794400911346BF
:100CB00011330A998B4200D30B460C9204F018FDB5
:100CC0002F2D00D9ABE002223270B21F0023136037
:100CD00032460A3A116031460E3908603046123801
:100CE0000B9B06CB0260304616380160701E641CF8
:100CF0000470B01E09990170083B2E2D0C9A03D286
:100D000018361132089DCBE7079A069C049EB0E77F
:100D1000302D00D383E018200B90684315A9494A71
:100D20007A440A50081884752B4600258582464966
:100D30007944072242608660C56001612F2B73D021
:100D40001E46591C0B980C91484315A93F4A7A44FA
:100D50000A500818847585823D497944062242600C
:100D6000049A8260C560016104F0FEFAFFA8D830E1
:100D700005713148684405600FA804F0FFFAFFA828
:100D8000D83004F0D4FAC0B20628F8D0C01E022829
:100D9000F5D804F0E9FA2F48784404F0BBFF15A811
:100DA00004F0ECFA0DA804F0C2FAC1B20629F9D099
:100DB0000020052908D004290FD003290446F1D1C9
:100DC0006D1E0DD200250BE00C998D4220D0B5424E
:100DD00020D0E1070446E5D002E0B54200D86D1C02
:100DE000069C04F0C1FA2F2D19D80B98684315A959
:100DF000081804F0C3FA002D03D01948784404F011
:100E000089FFB542CED81448784404F083FFC9E77F
:100E1000074800E00748FC1F053CA546F0BD30210F
:100E2000284604F05EF8FEDE30200146F9E7C046B1
:100E3000046E000001EF0000D4040000C46F000045
:100E4000EC740000E86E0000F86E0000EE6E00002A
:100E5000026F000030720000C07100004273000099
:100E6000D471000080B500AF002800D080BD0348D9
:100E700078442B2103F0C7FDFEDEC0466A700000F7
:100E8000DFB506AF044601A804F098F801980028E1
:100E900004D0EF200002A080002002E003986060F0
:100EA00002982060DFBDD4D4F0B503AF8DB01646F4
:100EB0000391029004AC21252046294606F015FC3A
:100EC0002046294605F01CFA304605F083F8002834
:100ED0000BD004AC30202070601C6249794405229C
:100EE00006F05BFB2121062216E03478204605F04F
:100EF00031F900281ED05C48784404AC21460CC867
:100F00000CC1007808702046093058497944052200
:100F100006F043FB21210E22204605F020F9039C18
:100F2000FFF7A0FF02460B460298214600F0D0F8DA
:100F30000DB0F0BD204605F063F8082810D8002158
:100F400001220C468242D6D20D0E24026419B55CF1
:100F500009024919521CE825414B5B1AA541F1D2FF
:100F600004AC21252046294605F0CAF93046214621
:100F70002A4605F04BF8002814D00E46122913D942
:100F80003046113800903446123C04A821212246F4
:100F9000334605F016F9202C57D804A82E21015508
:100FA0000B3E19E00020BAE71420851B009504A829
:100FB000212100242246334605F003F9A5420AD038
:100FC000012C03D104A82E21417002E004A8302195
:100FD0000155641CF2E7082604A82121324605F0D9
:100FE000BEF8441E0022012501951646A9420AD0EA
:100FF000002923D0635C641E6D1C761E302BF5D057
:101000008A19541C00E0019C8A421CD2835C2E2B5E
:1010100000D0224605F0A3F84E1D0520C0438142B2
:1010200016D8212E17D804AC60181149794405222E
:1010300006F0B3FA2121204632466EE7481B002114
:1010400003F04FFFFEDE1046FAE721212046F7E7C6
:101050000846314601E02121304603F029FFFEDE3B
:10106000FF0FA5D437720000207200000772000045
:10107000E7700000D0B502AF0446084611461A4694
:1010800000F008F802460B46204611461A46FFF7C4
:10109000F7FED0BDB0B502AF14460D4605F034FBE7
:1010A00002460120C3022846214600F001F8B0BDE7
:1010B00080B500AF814207D3994203D81218091AAC
:1010C000104680BD0846194603F0F2FEFEDED4D479
:1010D000F8B504AF1E460D46009011C9214600F038
:1010E00017F881B2094A91420AD1A019009A5060BA
:1010F0003F21314001D0401A40306860002002E0BA
:10110000009A508001201080F8BDC04601EF000019
:10111000F8B504AF1C4615460E4605F0F5FA314603
:101120002A46234601F052F8002801D10248F8BDB2
:101130000048F8BD01EFFFFF02E0FFFFF0B503AF8D
:101140008BB0049314460E46054605A8142106F0FC
:10115000CCFA0AA90020887008800322204605F0F6
:1011600061F8002828D0BC68039605AE02951422C9
:101170000092019030460D461146224600F0E6F8F6
:10118000049A234603F09EFE291904912046324614
:10119000009C234600F0E4F8019A2B4603F092FEEF
:1011A00030462146049A00F0EAF802460B460298BF
:1011B0000399FFF78DFF01E0014828600BB0F0BDF7
:1011C000010002E0F0B503AF97B01C461546009150
:1011D000019006A82E2106F088FA16A80570202195
:1011E0001591149401211391129000221646022A9F
:1011F00036D0D00012A90C58081840682018521C8C
:10120000039202908442F2D00494257806A82E21FD
:101210000596324604F0FCFF04460E46002E0AD026
:101220002078000240193A2106F0A6F905462170FF
:10123000761E641CF2E7049C641C059E002D0CD0F5
:101240002E2E26D02D2E6AD83A21284606F094F963
:10125000054606A88155761CF0E7039A0298D1E767
:10126000002002281AD0C20012AB99589A1852686E
:10127000401C002AF5D00B78002B0FD12E2E08D061
:101280002D2E4CD8491C06AB00249C55521E761CB2
:10129000EFE72B480199086017B0F0BD06A82E2192
:1012A000324604F0B5FF274B7B44002907D0027873
:1012B000392A39D89A5C0270491E401CF5E706A805
:1012C0002E21214D7D4405963246A8470290039178
:1012D0004E0831463246A8470446049103980299C5
:1012E0000818801B31463246A8470246701E00236C
:1012F000461C0BD2049D9D4219D0884211D2E65C57
:10130000155CE5541654401E5B1CF1E7059B2F2B22
:1013100010D206AA01980099FFF7DAFEBCE72E2149
:10132000304603F0DEFDFEDE3A211046F9E7049870
:101330000146F6E72E21184603F0BAFDFEDEC04650
:10134000010002E07C6E0000494F0000D0B502AF02
:101350000B46044600201146224600F001F8D0BD9D
:1013600080B500AF814207D3994203D81218091AF9
:10137000104680BD0846194603F09AFDFEDED0B542
:1013800002AF0B460446002011462246FFF790FEAE
:10139000D0BD80B500AF0A464021FFF7F0FF80BD09
:1013A000F0B503AF91B00D46009001A8402106F0C2
:1013B0009CF90020402816D02B785C093021572258
:1013C000052C0C4600D314461E09A41901AE345452
:1013D0000F241C400A2C00D31146091932185170F1
:1013E0006D1C801CE6E7009C601C01A9402206F0F1
:1013F000D4F80020207011B0F0BDD4D4E0B502AF15
:101400000A78002A04D1491C402206F0C6F88CBD97
:101410000348784401A9034A7A4403F08DFDFEDEB7
:101420004C6D0000CC6600007047D4D480B500AF8E
:10143000084603497944022203F015F980BDC046ED
:1014400004690000F0B503AFA3B0154606460A468E
:1014500040320820145E1A9290880122012800D898
:101460001046002C00DA10469AB2904201D800F0E3
:101470009BFCBA68002C19951B910B9201D500F0CA
:1014800095FC03931A9A50881388854A93421496C0
:1014900019D1904217D10A46323200200886508175
:1014A000107088861071088710724862BC220A701A
:1014B00008857B4A8A851A9B18600A4624329071F7
:1014C000621C1A8103468A1C02920A461432019257
:1014D0000A1D12920A46093211924A1C13920A46B8
:1014E0003C3210920A463D320F920A4630320E923A
:1014F0000A4634320D920A4638320C920A46283295
:1015000004922C7B6A68A24201D100F05DFC2C247D
:101510000A8D012A00D80122095F0029189401DAF6
:10152000062200E0521D94B29AB2A24201D300F00A
:1015300050FC042A1B9C0BD87A4412795200974421
:10154000021C24292E0000901CA80023109918E0EA
:10155000002967D4E38CA28C5148169282421793DB
:1015600079D183421A9A77D1BC202070002363621C
:10157000481CA085179316936EE000901CA80123C9
:101580000F992A4600F0A8FF10E000901CA8022343
:101590000E9908E000901CA803230D9903E0009029
:1015A0001CA804230C992A4602F096FC1CA800787B
:1015B000002801D000F031FC1CA8828841881898CE
:1015C000235E208D012800D80120002B01DA06209F
:1015D00000E0401D324B0C4614409C4200D10022DA
:1015E0009C4202D11A990988491C83B28DB29D424E
:1015F0002B4800D010461A9A50809D42284B00D0AC
:101600000B46138026498C42199D1B9900D0DBE3C1
:101610009AB2234CA24200D073E7214A904200D0F4
:101620006FE7EBE3009020AC204604992A4602F0D5
:1016300053FC2078002800D0EBE320A88188408864
:1016400002460A40164B9A4200D196E31CAA9180AA
:1016500050801B9CB0E71A9A287B6968814200D1B0
:101660009AE3204604F0A6FC169989B280B2814222
:1016700000D3AEE32278BC2A00D0D6E1284600F0A1
:101680001CFFC00700D1D9E30D46C8B201090C29DF
:1016900000D9D1E3800003A10858081829468746DD
:1016A000FFFF000042030000CE06000040030000E0
:1016B000400300004003000040030000400300001E
:1016C000400300004003000040030000400300000E
:1016D00040030000400300004003000040030000FE
:1016E000400300004003000040030000C20500006A
:1016F000D4050000F4050000FE050000CE06000041
:10170000CE0600004003000040030000400300003C
:1017100040030000400300004003000040030000BD
:1017200040030000400300004003000040030000AD
:10173000400300004003000040030000400300009D
:10174000400300004003000040030000400300008D
:10175000400300004003000040030000400300007D
:10176000400300004003000040030000400300006D
:10177000400300004003000040030000400300005D
:10178000400300004003000040030000400300004D
:10179000400300004003000040030000400300003D
:1017A000400300004003000040030000400300002D
:1017B000400300004003000040030000400300001D
:1017C000400300004003000040030000BC0500008F
:1017D000BC050000BC050000400300004003000001
:1017E00040030000400300004003000040030000ED
:1017F00040030000400300004003000040030000DD
:1018000040030000400300004003000040030000CC
:1018100040030000400300004003000040030000BC
:1018200040030000400300004003000040030000AC
:10183000400300004003000040030000400300009C
:10184000400300004003000040030000400300008C
:10185000400300004003000040030000400300007C
:10186000400300004003000040030000400300006C
:10187000400300004003000040030000400300005C
:10188000400300004003000040030000400300004C
:101890004003000040030000400300000406000075
:1018A000400300004003000040030000400300002C
:1018B000400300004003000040030000400300001C
:1018C000400300004003000040030000400300000C
:1018D00040030000940700009407000094070000F4
:1018E000940700009407000094070000940700008C
:1018F000940700009407000094070000940700007C
:10190000940700009407000094070000940700006B
:10191000940700009407000094070000940700005B
:101920009407000014060000180600001C060000C2
:101930002006000024060000280600002C060000F7
:101940003006000034060000380600003C060000A7
:101950004006000044060000480600004C06000057
:101960005006000054060000580600005C06000007
:101970006006000064060000680600006C060000B7
:101980007006000074060000780600007C06000067
:101990008006000084060000880600008C06000017
:1019A0009006000094060000980600009C060000C7
:1019B000A0060000A4060000A8060000AC06000077
:1019C000B0060000B4060000B8060000BC06000027
:1019D000C0060000C4060000C8060000CC060000D7
:1019E000D206000031461B9E0A9830727060099C36
:1019F000F470B4701591717022A90322119805F04A
:101A0000CCFD2A4605987083079830830698F075B8
:101A10000898B075B08270823082F4603570219879
:101A20002099F1613062199D00E01596D0B201460F
:101A300012390529149E179A18D900281B9C3FD0EB
:101A400001283DD04A282CD04B282AD04C2828D019
:101A50007E287BD08C28FC4B2CD08D282AD0BA280D
:101A600028D0BC2819461D463ED19DE1880002A120
:101A7000085808181B998746180000001800000035
:101A800076010000880100004E0000004E000000BA
:101A90008B8CC88C00901EA813992A4602F00EFB6E
:101AA00019E0A38CE08C00901EA812992A4600F041
:101AB000A1FA10E000921EA813992A46169B08E08E
:101AC000A38CE08C01E08B8CC88C00901EA813992D
:101AD0002A4600F001FD1EA800780028DA4B00D04D
:101AE000A3E11EA8818845882C460C409C4200D169
:101AF00000219C42179101D01B9802E01B98818C19
:101B00004D1CAEB204F056FA80B28642CE4B1A4655
:101B100000D0179A1B991792CA84864219461A9ABE
:101B200000D029461B9881849C4200D032E1169156
:101B300088B2984215990E46199D1B9C00D08BE5E2
:101B4000179898420E4600D086E529E11820225EBB
:101B5000002ABD4B5DD4608A218A99420AD19842FD
:101B600008D1002020726060C143E1602061511CF7
:101B7000218301462A7B6B689342B34B62D00904F0
:101B800000D011E1009020AE0024304612992A4680
:101B9000234600F0C1FA3078002800D037E120A8B1
:101BA00043882198194601408AB2A7498A42149E67
:101BB00000D00446A448824202D11B98008A431CEC
:101BC00099B20129A04800D020461B9C60820129BF
:101BD0009D4900D0194621829B4B9A4232D10A4638
:101BE000024092B29A42C5D119461D467CE78B8CC1
:101BF000C88C00901EA812992A4600F08DFA6AE758
:101C00008B8CC88C00901EA802992A4600F0FAFA24
:101C100061E7A38CE08C009020AC204601992A4615
:101C200002F05AF92078002800D0FAE020A8818834
:101C3000408802460A40844B9A4206D01EAA9180F0
:101C400050804EE7E18CA58C4EE700221B9C22833E
:101C5000A08A002800D07EE71EA88380438040E74A
:101C600000200A90BEE622A800218170018020A8F1
:101C700081802091122507E022A800218170018037
:101C800020A881802091132508910A910846069189
:101C9000079109910591A6E600200A90C04309909A
:101CA000A1E60420099006E00021C84309900891AC
:101CB0000A916548079096E68C255AE08D2558E0F4
:101CC0008E258FE68F258DE690258BE6912589E67A
:101CD000922587E6932585E6942583E6952581E67A
:101CE00096257FE697257DE698257BE6992579E67A
:101CF0009A2577E69B2575E69C2573E69D2571E67A
:101D00009E256FE69F256DE6A0256BE6A12569E679
:101D1000A22567E6A32565E6A42563E6A52561E679
:101D2000A6255FE6A7255DE6A8255BE6A92559E679
:101D3000AA2557E6AB2555E6AC2553E6AD2551E679
:101D4000AE254FE6AF254DE6B0254BE6B12549E679
:101D5000B22547E6B32545E6B42543E6B52541E679
:101D6000B6253FE6B7253DE6B8253BE6B92539E679
:101D7000BA25002137E6BB2534E600211B9CA1854E
:101D8000208D002801D0FFF7E5FB1CA82E4981809B
:101D9000418011E4159E1B9C1046528801880EE478
:101DA0001A460E4619460AE4022040E01A98011D20
:101DB000009220AC20462A461D4602F08DF820787D
:101DC000002808D020A831E0149E0B98B08003981A
:101DD00017E0022023E020A8828841880B461340A8
:101DE0001948834210D100241A990C818A88002A4C
:101DF0002B46199D1B9903D0FFF743FB149E1248F5
:101E0000B0807080002014E0B2807180FAE720A8D2
:101E100004E020A840781CA948701CA84078149EB3
:101E200005E020A840781EA948701EA84078707070
:101E30000120307023B0F0BD0120F0E70348784462
:101E40002B2102F0E0FDFEDEFFFF00009C600000A1
:101E5000F0B503AFC1B00446012005026E4630461E
:101E6000294605F0A9FB3046294604F05BFC2046D4
:101E700031462A4605F00AFC41B0F0BDF0B503AF8B
:101E8000C3B015460E46019002AC2046FFF7E0FFB6
:101E9000204631462A4600F011F881B2064A9142A6
:101EA00004D102A9019800F017F803E00121019A7A
:101EB0001170508043B0F0BD01EF000080B500AF5D
:101EC00004F048FC002801D0024880BD004880BDD5
:101ED00001EFFFFF01E0FFFFF0B503AF89B00D4652
:101EE000044601AE2021304605F0FFFB284631466E
:101EF00004F02AFC002803D006486080012005E099
:101F0000601C01A9202205F048FB0020207009B0C8
:101F1000F0BDC04601E00000D0B502AF0088274AFE
:101F20008218042A0FD9264A8218042A16D8C046D5
:101F30007A4412795200974402191D212500274B3B
:101F40007B440C2233E0C0467A4412795200974415
:101F5000021D202428001C4B7B4420E00922120390
:101F6000904221D1174B7B44022220E01C4B7B4442
:101F70000A221CE01B4B7B44082218E01A4B7B44CE
:101F8000142214E0194B7B44162210E00F4B7B44C3
:101F900005E00F4B7B44072209E00E4B7B440622F1
:101FA00005E00D4B7B4401E0114B7B440D22486959
:101FB0008969CC681946A047D0BDC0460092FFFF92
:101FC0000020FFFF7D5D0000855D0000495D000091
:101FD0003C5D00002E5D0000195D0000715D000099
:101FE000395D00000E5B0000155D0000F75C00002D
:101FF000C65C0000F0B503AF87B00646107B54689E
:10200000BD68844203D1B5807380002072E00591E1
:10201000029328040392069002D00598047909E0FF
:10202000104600F04AFA0C460121084000F066F81C
:1020300005980471204604F090F90490052803D90E
:1020400000207070012055E0204604F07BF9002844
:102050000CD0069800280398059B16D13F222546F0
:10206000A106049C09D5D1430D4307E0069800283A
:1020700000D101250398059B07E01540E2001832C6
:10208000182111408D401D6001250196AAB2049DC2
:10209000A91ACE00083E1C681346027B4168914293
:1020A0001BD0AB4219D2254634461E4600F005FA35
:1020B00006910121084000F021F8334626462C46BF
:1020C0000398182232400699C9B2049D91400C43EE
:1020D00005990C60083E5B1CDFE70020C1439D4270
:1020E0000A4600D01A46019EB2809D42029A00D054
:1020F00011467180307007B0F0BDD4D480B500AF08
:10210000002800D080BD034878442B2102F07BFCDE
:10211000FEDEC046D25D0000F0B503AF87B01646C4
:1021200005468C68B868002C039101901DD4029577
:1021300008680490049884420ED2307B7168814212
:102140000AD01D46304600F0B8F9C00734D0641CF0
:10215000039884602B46EDE70498A04214D1002038
:10216000C143029DA980698013E0009005AC204620
:1021700032460493FFF73EFF207800280CD005A8D4
:1021800040786870012004E0029D0198A8806B806F
:102190000020287007B0F0BD05A88188408802465D
:1021A0000A40084B9A4204D1002403998C60049B96
:1021B000BDE7A9806880EBE7034878442B2102F053
:1021C00022FCFEDEFFFF0000205D0000FEB506AF32
:1021D00001925D180124E202561C0295B54206D216
:1021E00091420AD8401801991A4604F0CFFA029891
:1021F000B04200D300242046FEBD0846114602F03E
:1022000057FEFEDEF0B503AF91B01E460546107BCB
:102210005368BC68834204D1AC806E800020287073
:10222000ECE005940A910C78042C0B9225D1104611
:1022300000F043F90C4601210840FFF75FFFE0B2D0
:10224000811E022906D3002804D0012806D0FF20D1
:102250000230C5E00CA8132105F047FA06960A9E45
:10226000701C0D2105F0A3F930460E300CA9142284
:1022700005F093F93470069E0B9AE0B2800003A13A
:10228000085808180A9B05998746C04614000000A4
:1022900022000000140000001400000052010000A1
:1022A0000091591C2846334601F088FEA6E00295AD
:1022B000117B50680990981D0390981C0490084663
:1022C00006960890C0B20999814200D18AE05D89E2
:1022D0000220022D00D98DE012D0012D24D0002D36
:1022E00000D087E09889002804990BD1906846496E
:1022F0007944012200F0A4F80B9A0020049901E02F
:102300009889039900900CAC204616462B4601F0A4
:10231000E3FD207800286BD17368357B0CA8818899
:102320004088079032461FE09C8958884601089DE6
:10233000099BA0B2E9B28B420DD086420BD9104660
:1023400000F0BBF801210840FFF7D8FE0B9A641C8F
:10235000157B5368EDE786422A4900D02146864224
:10236000284800D0012007900E46106809931946AE
:102370001446089A2B4600F08DF802460B46A068DA
:1023800011461A4600F05CF80799084630401D4C8B
:10239000A04201D0324600E000220A9B0892A042EF
:1023A00001D15989491C0E468AB2032A214600D020
:1023B00008999981032A224600D032465A81A042C8
:1023C000069E0FD190B2A04228460B9A00D078E723
:1023D00088B2A042284600D073E7264603E00848AA
:1023E00028800BE0059C02998C804E80002004E040
:1023F0000CA84078029948700120087011B0F0BD17
:1024000001020000FFFF00002C5A0000E0B502AFFF
:1024100001462831019108300090684603F086FAA1
:102420008CBD80B500AF88B002AC1822204605F004
:10243000B4F8684601A9224602F0EAFAFEDED4D4D6
:10244000FEB506AF002816D004464668B518012030
:10245000C002854201D9451C0BE02068029201911F
:1024600004F052F93146019A029BFFF7AFFE0028B3
:1024700005D06560FEBD054878442B2102E0044884
:102480007844182102F0BFFAFEDEC046625A00000E
:1024900065580000D0B502AF0446DBB2D0B283422B
:1024A00005D38B4205D82218191A1046D0BD1946FB
:1024B00000E0184602F0FCFCFEDE4268037B9A4214
:1024C00003D9591C01730068C15C9A4201D80020ED
:1024D000704701207047D4D4F8B504AF0D460446C8
:1024E000107B5168814201D1B8680AE01046FFF7BD
:1024F000E4FF0E4601210840FFF700FE2E70034B5B
:102500001846A080638000202070F8BDFFFF000007
:10251000B0B502AF0446C0200025255025801D20FF
:1025200000012018152105F047F82046D030012180
:10253000090204F0F7F8C034E560B0BDF0B503AFB0
:10254000FFB09CB04193FF2A02D9F84E01F02CFC59
:102550000D4603467920800018181890184633302D
:102560002A90184650304990194678311846BC30A8
:102570001C46B034329451AC00263D9626730C466E
:10258000529251954A900C305390184684303C90AA
:1025900018466930279018460830469059A8411CC3
:1025A0002491C01C23906BA8001D229059A8411CA7
:1025B0002191C01C20906BA8001D1F9018460E3062
:1025C000339018460A302690184634302D90981DC6
:1025D0002C9018461430399018460D302E9018461D
:1025E0002C30259018463A30299018461130289002
:1025F000581D31906BA8014636311D9101462F318F
:102600001C9101460D311B91014624311A91303045
:102610001E90184688303090204634302F9018464F
:102620005C302B901846123037901846383038906E
:10263000184618303690184610304090499D18358D
:10264000359518468A303A90204640303490581CD0
:102650003F90181D42900720199040033B900120A5
:1026600048904B93439451A8007B5299814201D1E9
:1026700001F070FB26464A98858818461C4603F0F0
:1026800089FD80B2854201D301F07AFB20784000B9
:1026900078448088400087440600060010008D00C2
:1026A00083009E006E044A98C088009055A851AAE5
:1026B0003F992B46FFF710FF85E051A8057B529EFE
:1026C000AE4201D100F01AFE499800885090429C19
:1026D000204601F047FD509B80B2834201D301F0B8
:1026E00007FB2078BD281ED1AE4201D801F00BFBBC
:1026F000681C51A908735198455D4898FFF7FEFC86
:10270000002DDA4C22461FD0012D429801D001F055
:1027100004FB03F0DBFD429C2078BD2801D101F0D1
:10272000E7FA499803884998408800906BAD51AA10
:1027300028462146FEF786FE2878002801D001F0C1
:10274000DCFA6BA88288448825461540C748854234
:10275000429900D100228542509202D149980088C6
:10276000441CA6B2084601F0FDFC81B28E42BF486F
:1027700000D05098499A50808E42BC4900D02146E2
:10278000499A1180B94A954201D000F0B7FD89B24B
:10279000914292D1904290D11046114600F0B1FD85
:1027A0004A98C088009055A851AA3F992B4601F03D
:1027B00085FC08E04A98C088009055A851AA429923
:1027C0002B46FFF717FC55A80078002801D100F030
:1027D0009BFD01F0D5FA31463820345E002C01D53E
:1027E00000F049FD488E0A8EA04DAA420DD1A842A4
:1027F0000BD124213C9804F078FF0A2042990870FC
:10280000601C308700203063024651A90B7B529E2A
:102810009E4201D100F031FF91B2022901D901F0AD
:10282000AFFA4ED001293AD00029904D01D001F0E5
:10283000A7FA81B23C9840184D9004205091401A5C
:102840004F9000244C944E964F98844201D24C995C
:1028500000E00121D8B28642489A00D00A46002AF8
:1028600066D1864205D95B1C51A90B7351990D5C49
:10287000FFE7864202D81E46002001E01E460120E6
:10288000FFF73CFC50980019032801D901F068FAC1
:102890004D980555641C754D33464E9ED4E7009007
:1028A00057A851AA0123309901F088FB6F4D57A812
:1028B0000078002801D001F063FA57A88288418887
:1028C000D6E0429804780A2C00D0ACE09E4201D8B1
:1028D00001F042FA581C51A908735198C55C4898F8
:1028E000FFF70CFC032D439E01D901F049FA09249E
:1028F000A80003A108580818139A12998746C046E1
:10290000100000004800000074000000D800000023
:102910008BA8152104F0E9FE0624002210920592EE
:102920000F920E9204920D92114655E0036E000034
:1029300050980119081F2A4600D00A460021002895
:1029400000D095E0C94393E06BAC601C212104F0FA
:102950002EFE8BA82222214604F01FFE00214348B0
:10296000089006910A4610910F910E910D910791D2
:10297000199C31E01E9803F0A9FC00201A99086008
:102980006BAD05242C70888088713848A8856878DC
:10299000049068880E9028790F9068790590E888EF
:1029A00010902889139068891290287B0D908BA82D
:1029B00022221B9904F0F1FD1C9800780390288EC8
:1029C0000890688E0790A88E069059A846221D99F7
:1029D00004F0E3FD1299139A4B9D0D9828741291FF
:1029E000E9811392AA8110986881059868720F98FE
:1029F00028720E98E880049868718BA92222289882
:102A000004F0CBFD2A98039901700698288707984F
:102A1000E8860898A88659A94622299804F0BDFDA1
:102A20000020B0602C71A01FC1B205290F4D00D34A
:102A30000220C0B2800003A1085808182A4629467F
:102A40008746C046140000008603000076000000A0
:102A50002C0000003C1300004398038E408E009031
:102A600057A851AA319901F0E5FA20E7FFFF0000CD
:102A70000846104083B2AB4200D10022AB42439DD6
:102A800001D1288E411C8CB2032C9A4800D01046EC
:102A90006886032C974A00D00A462A86954DAB4299
:102AA00001D000F0EAFD91B2A94200D0ADE681B2BA
:102AB000A94200D0A9E601F059F851A8017B52982B
:102AC000884200D14DE25091042143984E91455ED9
:102AD000048906883046294603F08FFB80B2844281
:102AE00001D301F02DF90120012E00D80646002D5A
:102AF0004B9B00DA0646B4427E4D24D2439840896F
:102B000000908BAE51AA30462D992346FEF79AFCD1
:102B100052995198549B509AFFF7BCFC02460B46C1
:102B2000539811461A46FFF78BFC3078002801D0E5
:102B300001F022F98BA88188448826460E40AE42D7
:102B400014D0509114E03020195E0029439831D4FC
:102B5000188DA84249D15A8DAA423D9A46D10520E6
:102B6000187100209862491C19863FE0002050909F
:102B7000439805898188008803F03FFB5D498E42B8
:102B800000D16C1C81B2A2B28A425A4D284600D0B4
:102B90005098439B58818A42294600D02146439A47
:102BA0001181AE4200D0DCE189B2A94285D1A842B0
:102BB00083D1D3E1408900906BAD51AA2846259975
:102BC000234601F089F92878002801D001F0D0F8D7
:102BD0006BA88188408802460A40464DAA4200D12F
:102BE000DFE08BAA91805080A4E73D9A3D9251A9E5
:102BF000097B529E8E4200D1D1E00222000401D016
:102C000001F0BCF842980578052D31D18E4201D8EB
:102C100001F098F84F924C1C51A804735198455CF0
:102C20004898FFF76BFA042D01D901F08EF8A8003F
:102C300003A1085808182B464B99169A8746C04698
:102C40004600000014000000140000003A000000DC
:102C5000420000008AA800211691817001806BA8B3
:102C6000122104F042FD169A4B99134614920AE081
:102C70000C463D9850904B9B1DE00023D843149088
:102C800001E04E9A3D9B002008738860C87116923F
:102C90008A7150934B718AA903222E9804F07DFC0F
:102CA0004B98149901616BA91422399804F075FCB2
:102CB0004B9B1D714F9A6D007D44AD886D00AF44F4
:102CC0001B00050005000F0023005D0818461B8D42
:102CD000408D009059A851AA319901F0EFF91CE0FC
:102CE00018461B8D408D009059A851AA4699FFF7B0
:102CF00013FA12E0FFFF0000E0B286423DD1588D8A
:102D0000198D439D509E14E018461B8D408D0090F8
:102D100059A851AA2C99FFF775FA59A800780028EC
:102D2000439D509E01D000F0FFFF59A98888498833
:102D30004B9B0A460240FC4CA24200D10020A2421A
:102D400001D1198D491C8CB2012CF74B00D00346E0
:102D50004B984385012CF44800D008464B990885D0
:102D6000FC4CA24228D181B2A142324600D03DE7BC
:102D70002546A342324624D038E7439D509E01D8D1
:102D800001F024F8611C51AA11735199085C401E8E
:102D90004142414131980170EE490846C9E7439DDF
:102DA0000BE000214B9B1986988D002800D0CFE6C0
:102DB0008BA885804580BDE63D9669892C89E54DC7
:102DC000BBE629462C463D96B7E64B9A439E51A852
:102DD000007B5299814200D1C7E03425D08801217F
:102DE000012800D80846545F002C00DA0846D38E2C
:102DF0000226834201D300F08DFF002C62D44B9950
:102E000088894989D34A91420FD190420DD121211D
:102E1000379804F0CCFB0020269988718880488080
:102E20000880611C2D9A1180014651AA127B529B89
:102E300093424B9B66D089B2012901D900F06AFF09
:102E40000BD0002901D000F065FF00906BA851AABB
:102E50000023379901F0EEF806E000906BA851AA24
:102E60000123339901F038F86BA80078002801D0CD
:102E700000F04EFF6BA843886C991846084082B258
:102E8000B448824200D10021824202D14B9840894D
:102E9000431C9CB2022CAF4800D008464B99888155
:102EA000022CAC4900D019464B9B5981A94CA24237
:102EB00028D10A46024092B2A64B9A42B5D1A54902
:102EC000084621E03898008800906BAC51AA204653
:102ED0002C9901F001F82078002801D000F018FFAB
:102EE0006BA88188408802460A409A4B9A420BD1CF
:102EF00000242D9804802C980088002895490846C5
:102F000002D07CE7198FD88E4B9AD2880123012AF0
:102F100000D81A464B9C645F002C439E00DA1A4688
:102F200003460B408B4CA34200D10021A34202D1A7
:102F30004B98C08E401C85B2954200D00C464B99F0
:102F40000C879542834D294600D001464B9AD18685
:102F5000AB420AD12140A94200D038E72846294691
:102F600005E04398418E008E01E0718E308E57AAA5
:102F700091805080A1E400264A98815F002900D505
:102F800098E14398448F038F724DAB4221D1AC42FC
:102F90001FD1509121213A9804F009FB00244B9D48
:102FA000AC60EC60AC742C820420499E30764521E4
:102FB000399804F09AFBEC65664870813474E043FC
:102FC0006866644D439884635098401C4A99088011
:102FD000234651A8067B5298B04200D146E3479061
:102FE0000A2240980088012800D8012049998D5E66
:102FF000002D3E9201DA052100E0011D8AB299B24E
:10300000914201D300F0BCFE02294BD001290AD025
:10301000002900D08AE0009459A851AA00233A99C7
:1030200001F04CF806E0009459A851AA0123359903
:10303000FFF7E8F8439E59A800780028454D01D0D5
:1030400000F09EFE59A881884088499A3E9BD35E35
:10305000409A1288012A00D80122002B01DA0523A8
:1030600000E0131D02460A40AA4200D10021AA42F4
:1030700001D1308F401C9BB285B29D42354C00D0AF
:103080000C4674879D42334D2B4600D00346338750
:10309000AA4200D0EAE298B2A8429AD1A0B2A842CD
:1030A00097D19CE3A1B20820401A45901791C8001F
:1030B00038214491081A50904698036840684F9010
:1030C0000024F0B2479A824235D045998C4232D2E0
:1030D00082424D9407D9761C51A94E960E73519990
:1030E000095C4C9100E04E9600241E46824201D8B5
:1030F000204600E00120FFF701F8509D2A46449841
:1031000002404C98C0B2214604F0A6FA4F9A0A43F6
:1031100033460343469803604F924260083D509502
:103120004D9C641C4E9ECCE7FFFF0000002D439E8B
:1031300012DA032011E017980219082A054D2846D3
:10314000439E00D00220082A294600D17DE711467F
:103150007BE7C046FFFF0000801C80B2814206D999
:10316000009459A851AA2B99FEF7D6FF63E7002DCA
:103170005AD44B99C88A898ADF4A91420AD190422F
:1031800008D14521399804F0B0FA681C4999488162
:1031900000200146D84D51AA127B529B93425BD02E
:1031A00089B2012901D900F0EBFD0BD0002901D033
:1031B00000F0E6FD00906BA851AA0023369900F0BC
:1031C000FDFE06E000906BA851AA0123389900F09B
:1031D00075FF6BA80078002801D000F0D1FD6BA826
:1031E00043886C991846084082B2AA4200D1002157
:1031F000AA4202D14B98808A431C9CB2022C2846DA
:1032000000D008464B99C882022C294600D01946A6
:103210004B9B9982AA421FD10A46024092B2AA420F
:10322000B9D12946284610E700946BAC51AA204634
:10323000409900F051FE2078002801D000F0A0FD58
:103240006BA88188408802460A40AB4DAA4206D04E
:1032500059AA91805080F5E6718F308FF5E60025F0
:103260004998458140980088002882D159A8A24DEC
:1032700085804580E6E64A98C08800906BAC51AAEC
:1032800020462F992B4600F027FE2078002801D0F9
:1032900000F04FFD6BA88188408802460A40964B9B
:1032A0009A422ED1002431463487B08E002820D097
:1032B000FFF798FA4A98C08800906BAC51AA204654
:1032C00034992B4600F008FE2078002801D000F049
:1032D00030FD6BA88188408802460A40864B9A429E
:1032E0000FD14A980680349800880028314600D0D3
:1032F00047E655A880498180418005E04A98C18809
:10330000808855AA9180508055A8848843887A4D3A
:103310001E462640AE4200D100244B98AE4202D158
:103320004A9989884B1C50939DB202F033FF80B2BA
:103330008542714900D021464A9AD18085426E4D1E
:10334000284600D050984A998880AE424B9B01D0C5
:1033500000F000FD1878411E052900D989E0890098
:1033600003A251585118654E7E44419A439C8F46A2
:1033700018000000E20600007C00000030000000A1
:10338000CE000000E80000003F98007815460128B4
:1033900000D153E1002800D054E1594878444FE16E
:1033A000164654686BAD284611463F9AFDF77CFDE2
:1033B0002888002801D000F0A3FC6C9B31686BA822
:1033C0002246FDF757FE6B98002801D100F092FCD1
:1033D0006C996E916D9008206C904A4878446B907F
:1033E0006BA80121484A7A44102326E3154659A9BF
:1033F0000020887208815A905990429800680B22E8
:1034000002F010FF002801D100F090FC03460A46AC
:103410006BA81946FDF734FD6B98002801D100F028
:1034200069FC6C996E916D9009206C9037487844D6
:103430006B906BA80121364A7A44112311E1618E09
:103440004A1B511E8A41218EA942489900D111463A
:10345000002911D1429A10E0618F4A1B511E8A4106
:10346000218FA942489900D11146002979D1469A65
:1034700078E0419A439CECE200225092419A002964
:1034800000D0E6E23820255E4A98C16802696BA840
:1034900000F0B6FC6B9C002C01D100F02BFC1596C3
:1034A0006C984D90419948684F900E2000906BAEFB
:1034B000184B7B4430462A46FDF740FE30880028F2
:1034C00001D000F01DFC509B1878801FC1B2052967
:1034D00000D30220C0B2032801D900F07BFC6C9E0F
:1034E00041994D684E95400078448088400087445B
:1034F000130078017D01AD01FFFF00004B48000083
:10350000E1470000984600005A4700006B47000062
:103510006A47000062460000591C6BAC212220461D
:10352000FEF7ACFC2078002800D0E9E34D966BA8AC
:103530004178509146888BAC1D25204622992A4619
:1035400004F02BF8239821462A4604F026F8300A86
:10355000249948700E7059AB509818706BAC0022CB
:1035600068E100223E920029419A00D071E20021D8
:103570004A984491445EC16802696BA800F040FC1F
:103580006B98002800D1B5E3119015966C984F9078
:10359000419E70680C900F2000906BADC54B7B4432
:1035A000284631462246FDF7C9FD2888002800D06C
:1035B000A6E36C980B9075683E9C224682326BA8FD
:1035C00050903146FDF770FC50980088002800D0DC
:1035D00096E30A956C996020225C70681790002A27
:1035E000B54D099104D0012A4DD0022A00D0F1E353
:1035F000042A01D30020C243234661336BAC20462A
:103600004199FDF7DFFD2088002800D078E36C9811
:103610004E90419E3E9908895090002800D145E186
:10362000C889421B501E82418889A842489800D10F
:103630001046002800D049E1103148E19F48784405
:10364000072102E09E48784406216E916D90072084
:103650006C909C4878446B906BA801219A4A7A44FC
:103660000E23FDF7D5FA06462A46EBE14A99CC88A7
:1036700055A884808B8843804AE64A998B8855A850
:103680004380CC8844E68BA8402104F02EF81199A1
:103690004F980818449C23460290814244944C93CE
:1036A00000D16AE2179D5A1947920A784F92491C35
:1036B0001191346845946BA8402104F016F847989E
:1036C00085422ED22A46403220464E9529464D92BA
:1036D000FDF7E0FC0446509100254F98402D11D095
:1036E0005099A94200D11CE3615D09020E183A21EC
:1036F000304603F0A7FFC62141438A196BA94A55FA
:103700006D1CEBE74F906BAA4023459C20464E99D9
:10371000FDF7FEFC064680B2D44988424D9DCAD0D2
:103720002FE344984C99421A8BA84021FDF70EFED6
:1037300004460D464F99002D0ED020780002461801
:103740003A21304603F07EFF0146C62048438019E7
:1037500020706D1E641CEEE7449A1446403C41986C
:1037600000684E900020C0434F9000294C9B30D001
:103770000E464F9858435094251801D0D51A14E09E
:103780004492179819188BAA1C4640234E98FDF7AF
:10379000BFFC82B2B5498A4200D0CFE28BA840215B
:1037A00003F0A3FF4034449A2346402D00D303E3A3
:1037B0004C933A213046144603F044FFC62141435E
:1037C00089198BAA51552246509C641C521C0146F3
:1037D000CBE74034419E384D119902985DE755A8DA
:1037E000C6E16BACA24A7A44112333E06BAD2846A4
:1037F00021464D9AFEF742FB2878002800D07FE250
:103800004D966BA84178509146888BAC1D2520467B
:103810001F992A4603F0C1FE209821462A4603F04C
:10382000BCFE300A219948700E7059AB5098187040
:103830006BAC022220464199FDF7C4FC2088002889
:1038400000D05DE26C9850904D9E0CE06BAC894AC4
:103850007A4410232046FDF73BFC2088002800D046
:103860004EE26C985090419804686BA821464F9A9C
:103870003346FDF7FFFB6B9D002D00D13AE26C9EB5
:103880006BA821464E9A509BFDF7F4FB6B980028DD
:1038900000D12FE26C996E916D9007206C90159875
:1038A0006B906BA801212A463346C6E0002545955A
:1038B0004DE0C046C3450000FFFF00003845000052
:1038C0002A450000304500002D4500000021002859
:1038D00000D07BE270684D9035466BAC20460E46BA
:1038E000FDF75EFD59A84F902146FDF787FD8BAC93
:1038F0004023204629464F9AFDF7EAFB20880028FE
:1039000000D031E28C98449068683E906BAC4E25B4
:103910002046294603F0E9FE2036304621462A4655
:1039200002F074FBFDF79EFA02460B4659AC2046A6
:103930004199FDF7CDFB2088002800D016E25A9867
:1039400011904D9DA8B245904B480540419E34686A
:103950006BA821460C9A0B9BFDF78CFB6B9E002EEF
:103960000A9A00D1C6E16C984F906BA82146099B3A
:10397000FDF780FB6B98002800D1BBE14C904D9681
:103980002E466C9847906BA82146179A4E9BFDF7E0
:1039900071FB6B9D002D00D1ACE16C995098002813
:1039A000364A7A4438D04E925091459A32436BA8A9
:1039B0002146449BFDF75EFB6B9E002E00D199E1F2
:1039C0006C9845906BA821463E9A119BFDF752FBDF
:1039D0006B98002800D18DE16C997A9179900B2039
:1039E0007890274878447790459876907596072088
:1039F0007490244979447391479972914C997191CB
:103A00004E996F9150996E916D956C9015986B9041
:103A1000042170916BA80EE0479872904C987190B9
:103A2000042070906F926E916D9507206C901598A0
:103A30006B906BA802214D9A4F9BFDF7E9F8064663
:103A4000419A439CB0B2E849884200D099E14B9B2F
:103A50001878002555604A990D6102A1085C400064
:103A60008744C046122E222615346B0001EF000059
:103A70006A430000E04200000000FFFF3741000001
:103A8000DD410000C6410000012018806AE00A20E4
:103A90001871052018702B213C9803F026FE4B9BD3
:103AA0003298D24901805DE01D725D60032005E01F
:103AB00021213F9803F07BFD4B9B0420187051E0BF
:103AC000BD20187102201870499834E03820205E1B
:103AD000002847D42F99098800290AD080B2491EAE
:103AE00081423FD1208EC14988423BD1608E8842BD
:103AF00038D126466BAC20462130212103F057FDFA
:103B0000422227982146344603F047FD06204B9970
:103B100008705121469803F04FFD4B9BDD65499994
:103B2000B24A4A810D74E8435866042008763298F8
:103B3000828185720581056014E04A98405F002803
:103B400010D434990988002900D100E180B2491EBF
:103B5000814207D1208FA549884203D1608F8842D6
:103B600000D1F4E04A984560FEF77DFD55A88580B8
:103B700045802C462B46FFF7CBFBE11A8BA8FDF7BF
:103B800008FC02460B4617984C99091830684D906E
:103B9000FDF7BEFA82B294498A4200D0CEE0412CB1
:103BA00000D21DE1179960184E9059A84024214673
:103BB00003F09BFD6BA80194214603F096FD449A07
:103BC000501E4C9013464E9C17998C425AD926464B
:103BD000641A412C874878445090479154D34593B8
:103BE0000A4640324D9C20461192FDF753FA054695
:103BF0004F9131464039204602913246FDF74AFA4C
:103C0000019B002B419E1ED04F9AD218402A00D112
:103C1000D7E02A783A2A00D3CBE0CC18509EB25C89
:103C200059AEF618761E3270402C00D1C7E00278EB
:103C30003A2A00D3BDE0509CA25C5B1E6BAC1A55C7
:103C40006D1C401CDDE76BAA40234D9C2046479924
:103C5000FDF75EFA82B264498A426FD159AA4023C5
:103C60002046029C2146FDF753FA82B24C998039D6
:103C70004C91459B803B5C498A4211995B4D449A2B
:103C8000A3D05BE03E992AE04D983246FDF702FA58
:103C900000234C9E721C11D2994200D18FE0C25C6D
:103CA0003A2A00D385E0402E00D38CE0509DAA5CD8
:103CB00059ADAA555B1C761E4C4DEBE759A8214621
:103CC000FDF767FB02460B464D984799FDF720FA32
:103CD00082B245498A42419E3E99449A2ED190062D
:103CE00002D03F208243403270681018706092E426
:103CF000022113E06BA8868843E06BA841780DE0B1
:103D00006BA846883DE00020FEF7F8F9012105E0A8
:103D10006BA8467857A8467032E0489955A841707C
:103D20002EE0509801461CE059A826E03B98861CDE
:103D300027E06BA8407855A9487021E0064620E0AE
:103D400002221BE00020FEF7D9F9012216E0022032
:103D500018990870244E14E00020FEF7CFF90FE008
:103D6000042101F0BEF8FEDE8BA8CAE759A8C8E717
:103D70006BA840788BA948708BA8427857A84270EE
:103D80003B9E52995198549B0022FEF783FB0246BA
:103D90000B464B98D03011461A46FEF78FF881B289
:103DA000114A914200D006463046FC1F053CA5460C
:103DB000F0BD3A211046D4E740212846D1E7084615
:103DC000CFE74F98AEE740213046CAE70A4878442B
:103DD0002B2102E0064878440E2100F014FEFEDE9E
:103DE000064878442021F8E701EF0000FFFF0000BB
:103DF0004C3D00004E4500000C410000123D00000B
:103E0000B0B502AF04460120C002824203D9054882
:103E1000A080002004E01546084602F075FC6560AD
:103E20002060B0BD02E0000080B500AF00F03EF9B8
:103E300000F005F80078411E4842484180BDF0B5C9
:103E400003AF87B004468020255C2678304629469B
:103E500000F014F8002800D13546E9B2002800D05F
:103E60008034A52903D14034204607B0F0BD00209E
:103E7000019001A92046FEF7D4FAFEDE80B500AF1E
:103E8000C0B2A52802D0C9B2A52903D1A538411EC8
:103E9000884180BD00F0B2FDFEDED4D4F8B504AF99
:103EA0000D46044606497944064E7E44B0472046F6
:103EB00040302946B047044979442046B047F8BD10
:103EC000743E00001F000000633E000080B500AF9C
:103ED000012202F05BFC80BDF0B503AF87B01E4647
:103EE000137B5568BC689D4203D1848046800023C3
:103EF00061E00591210404920290069102D0059898
:103F000080780AE01046FEF7D8FA0D4601210840F5
:103F1000FEF7F4F8059885702846054602F01DFA6C
:103F20000390042804D9002102984170012342E043
:103F300001960698002806D0059800880690A6B23B
:103F40000498039A0CE03F200540039AD0001830F3
:103F5000182101408D40059806950580012604989A
:103F6000911BCC00083C1546027B4168914216D05B
:103F7000AE4214D2FEF7A1FA0D4601210840FEF729
:103F8000BDF8049818222240E9B2039D9140069A98
:103F90000A43059906920A80083C761CE4E7002350
:103FA000D943B5420A4600D0324602988280B542D3
:103FB00000D001994180037007B0F0BDF0B503AFA8
:103FC00085B0009316460190F81D013002888818CC
:103FD000029020200492801A03900024307B7168A4
:103FE000814212D0039884420FD23046FEF765FA20
:103FF0000D4601210840FEF781F8049800191F289A
:1040000014D802980555641CE8E70020019B18703D
:1040100004990919C0432029024600D00A469A8013
:10402000202900D00098588005B0F0BD202100F074
:1040300058FFFEDEF0B503AF85B000931646019041
:10404000F81D013002888818029021200492801AFD
:1040500003900024307B7168814212D0039884421F
:104060000FD23046FEF729FA0D4601210840FEF72F
:1040700045F804980019202814D802980555641CA6
:10408000E8E70020019B187004990919C043212911
:10409000024600D00A469A80212900D00098588014
:1040A00005B0F0BD212100F01CFFFEDE80B500AFA1
:1040B000014802F029FB80BDC092D0C0F0B503AF2B
:1040C00087B016460D46117B5268BC688A423CD0C8
:1040D00021040290019302D02978A4B209E030466D
:1040E000FEF7EBF9069101242040FEF707F8069948
:1040F000297028190490084602F02FF906940390BD
:10410000001B05900024307B7168814212D0059815
:1041100084420FD23046FEF7D0F90D460121084007
:10412000FDF7ECFF06980019202814D804980555CF
:10413000641CE8E7069804190398211A02D0029833
:10414000019B02E0064B1C460298848043800021BC
:10415000017007B0F0BD212100F0C3FEFEDEC046B5
:10416000FFFF00000178BD2901D1012070474430D4
:104170000421425E00880121012800D80846002A57
:1041800000DA0846704780B500AF812903D2401895
:104190008022511A80BD80220846114600F088FE18
:1041A000FEDE80B500AF0346303B0A2906D924293C
:1041B00015D80A2B0AD201201A4605E01A468A426F
:1041C00001D3002000E00120114680BD02462020DE
:1041D0000243613A0A32F2D30020C243EFE700F013
:1041E0000DFCFEDEF0B503AF8FB01646202206AC04
:1041F0000323A35423460A9200240BAA13C2089453
:1042000006943569002D049641D020331F20C00646
:1042100071694A0105928143019102930598002832
:1042200058D0306801194A68002A07D001590C9803
:10423000C3680B989847029B00285BD12846203022
:104240000390287F187028690A90A8690D90049837
:10425000866829460831304600F052F807910690EA
:104260003046294600F04CF8099108906869C10071
:1042700070587118049E4A6806A99047029B08343A
:104280000599203905910028039DC7D032E0072009
:104290004007B468F168CA00059281430191002586
:1042A0000598A84216D0306841194A68002A06D0FD
:1042B00041590C98C3680B98984700281AD1264694
:1042C000083605CC06A99047083500283446049ED8
:1042D000E6D00FE07068019981420DD20198C000CC
:1042E00032681158101842680C98C3680B989847A8
:1042F000002801D0012000E000200FB0F0BDD4D490
:10430000D0B502AF0B68002B0CD002460020012B69
:104310000AD14968CB00D1184968064C7C44A142B7
:1043200003D0D0BD081D01E0D0BDD05801680120E8
:10433000D0BDC046CD0B0000FEB506AF0293019282
:104340000E4604460025AE4209D002980269019843
:10435000214690476D1C0028F5D0681E00E03046CD
:10436000B04201D30020FEBD0120FEBDF0B503AF79
:104370008DB00C920A460546C66901213046099166
:104380000840112109040028069100D02B210B912F
:10439000B968441870070893079102D400200A9066
:1043A00006E00C9811180A92104600F085F80419DE
:1043B000286800282AD06968A14227D930073BD451
:1043C000091B01262846324600F01AF904460698D1
:1043D00084422ED009916969AD690C9800900C91C6
:1043E000084629460B9A0A9B00F0EEF8002820D1D7
:1043F000EB680C980899079A9847002819D120462D
:1044000009990C9A2B46FFF797FF11E06C69AD698B
:104410000C980090204629460B9A0A9B00F0D4F88D
:104420000028099E05D1EB6820460899079A98470D
:10443000064630460DB0F0BD05912020295C039161
:1044400001262E5428690290302028616A69A969E2
:104450000C980090049210460C910B9A0A9B00F065
:10446000B3F80028E5D109960598011B01222846DA
:1044700000F0C6F806460698864209D00B910C98C3
:10448000C368049C20460899079A9847002801D0E1
:10449000099ECEE730460B9922460C9BFFF74CFF56
:1044A0000028099EC5D12846203003990170029842
:1044B00028610026BDE7D4D4F0B503AF8BB0091A4C
:1044C00010296BD3C21C032301939A43121A914201
:1044D00064D3042A62D88E1AB30805935ED0841878
:1044E0003146019B9943049464181E40811800F0E2
:1044F00094FA0546A119204600F08FFA4019314E72
:10450000059A002A4DD00390C02A134600D3C02339
:1045100007A8049900F0FEFC089A1346019883430B
:104520000A98059009980490079907A800F0F2FCF2
:1045300008988000079B19180A980290099806901D
:1045400000228B420DD00020102808D01D58AC0945
:10455000ED43ED0925433540AA18001DF4E710335B
:10456000EFE7100A16490A400840801813494843EB
:10457000000C0399401802990029C1D004468A0012
:104580000021002A0FD0069B01CB06938309C0436C
:10459000C009184330404118121FF2E7411800F0DB
:1045A0003CFA0BB0F0BD080A054A11401040401813
:1045B00002494143080C0019F3E7C046010001001D
:1045C000FF00FF0001010101F8B504AF1C460E46D3
:1045D000054611200004824207D03369284611465F
:1045E0009847002801D00120F8BD002C05D0BA68FA
:1045F000F368284621469847F8BD0020F8BDD4D47A
:10460000FEB506AF2023C35C9C0002A52C592C19D3
:104610000D46A746260000001C0000001000000008
:10462000180000004B08491C4D0806E0120602D095
:1046300000250B4601E000230D4601955C1C016935
:10464000029146698569641E09D02A69304602993B
:1046500090470028F7D011200004019901E001994A
:10466000029803B0F0BDF0B503AF87B015460A4617
:104670000646806833681946014344D000281CD0A0
:104680000193F06800210091069104920295039233
:104690005119059111210D04441C641E05D004A874
:1046A00000F058F8A942F8D104E004A800F052F84C
:1046B000A94237D1029D039A019B002B23D05119A7
:1046C000746810460392FFF7F7FE844225D9211A39
:1046D00000223046FFF794FF112212040124904279
:1046E00018D0019102907069B669F368009003993F
:1046F0002A46984700280DD102980199009A33461E
:10470000FFF71AFE05E07069B169CB6811462A46C9
:1047100098470446204607B0F0BD7069B169CB6880
:104720000399F4E70028029D039A009C07D0A84251
:104730000ED211563F22D2439142039A00DB144617
:10474000002C00D00546002C019BB6D02246B4E7D1
:10475000F5D0F5E7FFB507AF0368426811210904FA
:1047600093422DD05C1C04601D786AB2002A2ED5BD
:104770009C1C04605E783F22029216401F222A4051
:10478000DF2D1ED90092DC1C04609A780392029AF5
:104790000196039E16400396019A9601039AB61855
:1047A000F02D11D31C1D0460DD78029A1540B6016E
:1047B0007519009A5207D20AAD188D4207D10BE045
:1047C0000AE091018D1902E00099090375188268C9
:1047D000D11A091981602946104604B0F0BDD4D41D
:1047E000F0B503AF93B00593054646698069049020
:1047F000C4683046A047012100284BD10391B86816
:104800000290E96948070BD42449794401223046D3
:10481000A04700282AD105982946029A90472EE001
:1048200001911F49794402223046A04700281DD13A
:1048300009A8012101702022AB5C0AA98B540890C1
:1048400004980790069601981190164878441090A5
:1048500006A80F905DCD0E960D940C930B920A90C6
:104860000598029A143D9047002801D0039911E061
:104870001098C3680F980C49794402229847002881
:10488000039907D16869A969CB680849794401226D
:1048900098470146084613B0F0BDC0463F350000BA
:1048A00023350000D4340000C53400004F37000029
:1048B000D0B502AFA2B00C460068C969CA0606D4DA
:1048C000890614D40078214600F030F82AE00178F7
:1048D0007F200F220A400A2A01D3572300E0302309
:1048E0009A1802AB1A54401E0909F2D10EE0017861
:1048F0007F200F220A400A2A01D3372300E0302309
:104900009A1802AB1A54401E0909F2D1411C02A8A0
:10491000FFF739FC034600910349794402222046FF
:10492000FFF724FD22B0D0BD03340000F0B503AF83
:104930008FB0029127242C49794403912849884259
:104940001FD9284902F018FE049088B2642102F0B1
:1049500013FE06464900039A505C05AB1B19254619
:104960009C1E20705118497861702C46B0B24500E9
:10497000515D1B1F04981970511949785970241FF3
:10498000DCE763280DD980B2642102F0F5FD4B000D
:10499000039DE95CA41E05AAA154A118EA18527847
:1049A0004A700A2804D2641E303005A9085509E06F
:1049B00041000398425CA41E05AB1A551A19411810
:1049C000497851702721091B009105A90B19074946
:1049D000794400220298FFF7C9FC0FB0F0BDC04631
:1049E0000F27000010270000F136000054370000A8
:1049F00080B500AF0068FFF799FF80BD80B500AFBC
:104A0000FCF701F9FEDE80B500AFFFF7F7FFFEDE31
:104A100080B500AFFFF7F2FFFEDED0B502AF024671
:104A200000208A4208D00023D3564024E443A34206
:104A300000DD401C521CF4E7D0BDD4D4F0B503AF68
:104A400095B0049206910A21119101680191416883
:104A50000091806802900024039425460794002C5E
:104A6000049A00D092E0AA4202D30698431900E0CB
:104A70000023541B57D3072C07D800218C4251D058
:104A8000585C0A283ED0491CF8E7D81C032188430B
:104A900098420A930595089401D100250AE0C51AA9
:104AA000A54200D3089D0A200A992A4600F020FA60
:104AB000012825D00898083809900998854215D80A
:104AC0000A9C6159344802468A43324B5940334E5E
:104AD0008919114062195268034693432D48424098
:104AE00092191A400A4301D10835E6E70A9841199C
:104AF0000898421B0A2000F0FBF9012811D149193E
:104B0000049A059D4819451CADD09542ABD806992D
:104B1000085C0BA9097E8842A5D100242E460A957F
:104B20000CE0049A1546039800282FD1079890426C
:104B30002CD0012407980A90039416460298007816
:104B4000002808D00098C3681549794404220198C8
:104B50009847002818D1079BF21A0698C1189E4260
:104B600001D1002005E05018401E03780A3B58424E
:104B70005841029B18700098C36801989847002814
:104B80000A98079000D16AE7012000E0002015B0E4
:104B9000F0BDC0460A0A0A0A80808080FFFEFEFE41
:104BA0006F2F0000F0B503AF93B0044600790125E4
:104BB0000028284604D065712071204613B0F0BD4E
:104BC00004910592B868029062792668F0694107FD
:104BD000039304D4002A45D03C49794444E0002A98
:104BE0000AD17069B169CB683C497944032298477E
:104BF00000282846DFD1F06909A9009101220A7036
:104C00002022B35C01930AAB019999540099089151
:104C10001190304878441090B06907907069069000
:104C200030690E90F0680D90B0680C9070680B9031
:104C300030680A9006A80F900499059AFFF7FEFEC7
:104C400000280DD106A8244979440222FFF7F6FE78
:104C5000002805D10AA90398029A904700282BD072
:104C60002846A8E718497944002A01D0022200E02A
:104C700003227069B369DB68984700282846059AC3
:104C8000049B98D17069B169C96801911946019B6B
:104C90009847002828468ED17069B169CB680C49C5
:104CA00079440222984703990028284683D1084670
:104CB0003146029A90477EE71098C3680F980849DA
:104CC00079440222984776E7DB3000006531000026
:104CD0001B3100000C310000733100005031000026
:104CE0007D300000D0B502AF04460079617900291B
:104CF00003D0002804D0012014E0411E8841D0BD1B
:104D00002168087F400706D448698969CB6806494D
:104D10007944022205E048698969CB6803497944EE
:104D2000012298472071D0BD3530000026300000A8
:104D3000DCB504AF00220192802903D201AA1170D0
:104D400001222FE0CA0A0AD13F220A40803201AB79
:104D50005A708909C0220A431A70022222E00A0C02
:104D60000ED13F220A40803201AB9A700A0BE02438
:104D700014431C700905890E80315970032211E01B
:104D80003F230B40803301AAD3700B059B0E803369
:104D900093708B039B0E80335370C902490FF0311F
:104DA0001170042201A9FFF749FEDCBDD0B502AFA6
:104DB00088B0019002AC1822204602F0EEFB01A858
:104DC000034979442246FFF70DFA08B0D0BDC0462A
:104DD0008A2F000080B500AF0068FFF72FFE80BD6E
:104DE00080B500AF0068FFF7A3FF80BDB0B502AF8C
:104DF00086B004686D461822284602F0CEFB204695
:104E00002946FFF7D3FF06B0B0BDD4D4DFB506AF57
:104E10000C46019048698969CB680B4979440D2299
:104E20009847014602A80022427101710294074985
:104E30007944009106497944042201ABFFF7B2FEA0
:104E4000FFF750FF04B0D0BD482F00002100000044
:104E50009B2C0000D0B502AF006800780F4B7B445C
:104E60000522C046784400794000874410020609B4
:104E70000D000B4B7B440C2209E00A4B7B4401E004
:104E8000094B7B440B2202E0084B7B440422486917
:104E90008969CC681946A047D0BDC046352F0000AF
:104EA000132F0000002F0000EF2E00003B2C00000D
:104EB00080B500AF00F001F8FEDE80B500AFFFF76F
:104EC0009DFDFEDED0B502AF0C46994204D11146DD
:104ED000224602F062FBD0BD2046194600F001F8E0
:104EE000FEDE80B500AFFFF789FDFEDE0068FEE75D
:104EF000B0B502AF0B46C4B2002001468A4204D0CE
:104F00005D5CA54203D0491CF8E71146B0BD012005
:104F1000B0BDD4D4D0B502AF9A4205D3D21A9C000A
:104F20000C191AC00260D0BD024878442321FFF753
:104F30006AFDFEDE6E2E000080B500AFFFF75EFD5D
:104F4000FEDED4D4D0B502AFA2B00C46C969CA0601
:104F500005D4890613D42146FFF74AFD2AE00168EB
:104F60007F200F220A400A2A01D3572300E0302372
:104F70009A1802AB1A54401E0909F2D10EE00168DA
:104F80007F200F220A400A2A01D3372300E0302372
:104F90009A1802AB1A54401E0909F2D1411C02A80A
:104FA000FFF7F1F8034600910349794402222046B5
:104FB000FFF7DCF922B0D0BD732D0000F0B503AFD0
:104FC00087B00190D51F0023072A00D21D46C81CB8
:104FD00003240094A043461A594878440590039549
:104FE0000696934200D38CE0CE5C74B2002C19D4A8
:104FF000069E701C02D0F01A800702D05B1CF0E7FE
:105000000833AB4208D2C858CC18646804434B48F4
:105010000442F5D000E05B1C9342E2D2C85600285F
:10502000F9D5DEE70598805D0125049504280DD0AB
:1050300003281AD00228039D69D15C1C94426ED2C9
:1050400008574026F643B04259DD60E0581C002561
:105050009042029565D20856F02E14D0F42E17D146
:105060007024E443A0421BDD51E0581C002502954A
:105070009042039D55D2085CE02E21D0ED2E46B221
:1050800023D15F2030E07030C0B2302808D33EE03A
:105090000F34E4B2022C3AD83F24E443A04236DA7B
:1050A000981C90423DD20C564020C043844231DCD3
:1050B000DC1C9442039D34D20E5786421FDD2BE048
:1050C000E0242040A02812D021E020461F30C0B2AA
:1050D0000C2804D24020C043864208DD17E0E0B22D
:1050E0004008772813D13F20C04386420FDA9C1C2A
:1050F000944216D208574026F643B0420ADC631C9D
:105100006FE70198416001468260002012E0049838
:10511000009002E0022000900498029001E000203C
:1051200002900098C0B200020299081801994B60E1
:1051300088600498086007B0F0BDC0468080808019
:10514000E32D0000DCB504AF00680278002A0DD022
:10515000401C01900A48784400900A4C7C44042288
:1051600001AB08462146FFF73BFBDCBD4869896976
:10517000CB680249794404229847DCBD69290000C4
:1051800057F7FFFF61290000F0B503AF85B00E4669
:105190000546001D029048698969CB681049794429
:1051A000092422469847014603A800224271017152
:1051B00003960C49794400910B4979440B222B4604
:1051C000FFF7F0FC0949794400910949794402ABA1
:1051D0002246FFF7E7FCFFF785FD05B0F0BDC046AE
:1051E0001F2D00008DFDFFFF0C2D00007BFFFFFF3A
:1051F000052D0000E0B502AFBC68009400F002F895
:10520000FEDED4D4F8B504AF1D4616460C46012187
:105210000A020390214600F06DF8BA68002808D110
:10522000A64203D8A54201D8AE4214D9FFF7E6FB47
:10523000FEDE0346A04206D20398C0564021C94371
:105240008842EDDC00E0EBD000920022039821467A
:10525000FFF7D0FFFEDE002E11D12E4602920398FA
:105260002146324600F046F80246002810D1A242FC
:1052700017D11F4878442B21FFF7C5FBFEDEA6425D
:105280002DD2039880573F21C9438842E5DAE5E7EC
:10529000A24226D2039880564021C9438842E6DCC8
:1052A00020E003988018002141560029BED5C9B2DC
:1052B000E029BBD3F029B9D34278C3783F241C40FE
:1052C0009206920B80788006000D1018001949078D
:1052D000C90A4018112109048842A7D1C9E7BCD0E6
:1052E000BCE7C4D002980090039821462346AFE75C
:1052F000662C0000D0B502AF914213D90346D01EF0
:1053000000D20020511C81420ED39A18091A00299C
:1053100007D00023D356521E491E3F24E443A34224
:10532000F5DB09180846D0BDFFF7C2FDFEDED0B59B
:1053300002AF044600F0D3FD002801D100F0D7FDF4
:1053400000F0CDFD00280DD00421204600F0C0FD66
:1053500020780528F4D1E0784108204600F088FD47
:10536000C0B2D0BD0620D0BD80B500AF02487844A1
:1053700000F00DFB80BDC046AA2B0000F0B503AFC6
:10538000A5B00446807DC04678440079400087443B
:10539000010B1E710321204600F04EFD20690028FC
:1053A00000D11CE19A490CE003CC012302220092B7
:1053B0000193083C00F012FD2069002800D10EE1A5
:1053C00092491791169016A800F0A4FC07E101205D
:1053D0001A22089000F0C8FA0646257D012D4ED904
:1053E00004960FA805941126314602F07EF914A9FF
:1053F00000248C700C80284600F09CFD0E900D91CE
:1054000015A98C700C80059D687D00F093FD089BAC
:105410002193804A7A4420920D9A1F920E9A1E92EE
:105420001D937D4A7A441AAB07C30220039019905A
:105430007A487844189003CD179116902046302C66
:1054400028D0321A16A909194968914200D3114689
:1054500000291FD00D1800D3C8E0112D00D9C7E0D6
:1054600016AA12590FAB18180B46FFF72BFD08347C
:105470002846E4E70221204600F0DEFCAFE003CC42
:1054800002220092089A019203223346083C00F05F
:10549000A5FC99E016A80FA911252A46FFF78EFD55
:1054A0001698002800D0A8E01899179C28040990A5
:1054B00000230A930D948B4235D01D46E318002239
:1054C0009856C6B2002801D4581C27E00C925C788C
:1054D0003F200E9004401F203040DF2E15D90B9046
:1054E0009A780E980240A401A418F02E11D3DE7809
:1054F0000E980640A401A4190B984007C00A26186C
:10550000099886426DD0181D07E080010619981C85
:1055100003E00B9800032618D81C0D9C031B002EDB
:105520001846C8D002E00A9805460B4602900C9532
:105530008B423BD00E466018411E0D786AB2002A9D
:1055400030D5811E0C780A9464B23F250E95ED4348
:105550000B94AC4212DAC11E0A950C78069465B21F
:105560000A9C0795A5420DDA079D0E9C2540011F58
:1055700008784007C00D4519204607E01F200A9C07
:10558000044007E00F20069D05400E980B9C044048
:10559000A80104190E980240A001851809988542B7
:1055A0000D9C03D0091B002DC2D000E0029E039881
:1055B0000090089801900C996018711A0322049EBB
:1055C000334600F00BFC059CA068E1680022022332
:1055D000009301920E360322334600F0FFFB25B004
:1055E000F0BD2B460C9D28460D9C9FE7294601E007
:1055F00011212846FFF75CFCFEDE0948784422A909
:10560000084A7A44FFF798FCFEDEC04638000200E4
:1056100010000800C72B0000B62B0000A62B0000CE
:10562000622B000006290000F0B503AF8BB00B46DB
:10563000044600686168294A7A4400921122049362
:105640005A43134611338B4200D30B4600F050F8F7
:10565000039002910594A668358BB068F1682A46DC
:1056600000F06EF90190748B03CE2246083E00F0E4
:105670007BF906A9CC818D814881019808810120A0
:10568000000208821448079000200690084600F0A7
:105690007EF903983061029870611148784400F0F7
:1056A00081FB1048784400F07DFB049C002C03D063
:1056B0000E48784400F02EFB601C0599C968096803
:1056C000884203D20848784400F024FB304600F0BA
:1056D00093F90BB0F0BDC046FFFFFF00A429000006
:1056E0003429000024290000022900001E2900009E
:1056F000BCB504AF934214D3002A09D08A4205D224
:1057000084563F25ED43AC4202DA0AE0914208D1CB
:10571000002B0DD08B4209D2C4564025ED43AC423C
:1057200006DCBC680094FFF765FDFEDE9942F8D107
:105730008018991ABCBDD4D4F0B503AFA1B004460B
:105740004120850000F0CBFB002801D100F0CFFB09
:1057500066196846802101F0C8FF00F0C0FB0028F0
:105760002AD06D468021284600F0B2FB6878A978DF
:1057700009020D18009800F03DFAC0B20F2811D0B0
:1057800016280AD01028E8D128BA000C0228E4D93B
:105790006946204600F06EFADFE76946204600F0D1
:1057A0009DFADAE701200002A9B28142D5D168460C
:1057B000C07800F02DFAD0E7144D2878072816D0CD
:1057C0000A281AD1B18820A85322027009BA0A0EF9
:1057D0008270090C4170032101F000F8716800200B
:1057E000224600F017F889B200F0F8FF05E0B18812
:1057F00007487844224600F067FF00203060706060
:10580000A8712870688021B0F0BDC0460002002059
:10581000A70C000080B500AF814209D341239B0053
:10582000994203D81218091A104680BD0846194635
:10583000FFF73EFBFEDED4D480B500AF41229200DC
:105840008B58042B05D100210E4A7A440260416036
:1058500080BD0A79002A03D0052300F033F880BD0B
:10586000052BF0D0062B04D1002101600449818072
:1058700080BD4A798B791B029A180723EDE7C04651
:10588000036E0000DA280000B0B502AF2122D40078
:1058900003599D0841229200402D0DD804190D0A8C
:1058A000C55423685B1C934206D2C1542168891CED
:1058B0002160FFF741FFB0BD18461146FFF711FB0D
:1058C000FEDED4D4B0B502AF0446002A06D00D46A1
:1058D0009918412080002858814204D90020206076
:1058E0000448A080B0BD18462A46FFF793FF03C4C2
:1058F000B0BDC046036E0000F8B504AF2123DB0045
:10590000C51841239B00002A0AD02C689C4208D26B
:105910000E7806552C68641C2C60521E491CF2E758
:10592000F8BD20461946FFF7DCFAFEDE06C8083847
:10593000914204D000230B70491C0160F8E77047C6
:10594000D0B502AF034602207B441B795B009F4425
:10595000090104087E20801AD0BD8020801A4008EA
:10596000D0BD0846D0BDD4D4D0B502AF0346032085
:105970007B441B795B009F44090105082020801AA5
:105980004008D0BD1D20801AD0BD0846D0BDB0B59E
:1059900002AF88B0044600F0A2FA002808D0002028
:1059A00003900290019000906846102100F090FA58
:1059B0006D460022AA762A836A8103212970607CC1
:1059C0002873E0892881A089E8806089A8802089DF
:1059D0006880207C687009CC0593049007A81C247B
:1059E000847042706522027000F0F8FE284621465D
:1059F00000F0F4FE08B0B0BDF0B503AF8DB00446C2
:105A000000F06DFA002808D000200890079006905A
:105A1000059005A8102100F05BFAA168207F009096
:105A2000002003290391029009D0012908D160695F
:105A300007224243E1680120FFF782FF00E0E068AF
:105A4000019003CC658A2A46083CFFF78DFFA18AA6
:105A500005AE029BB376009A002A049101D008217A
:105A600000E00A21039A521E022A01D31A4600E0DE
:105A70000122D20351183183337373813581281881
:105A8000401EB08001987080072030800398022863
:105A900003D006200499484301E080200499F08057
:105AA0000A930D48099008461C3001BA0A0E0CA84A
:105AB0008270090C4170652101700321074D7D44FE
:105AC000A8471C213046A847206900F01DFE049914
:105AD000A8470DB0F0BDC046FFFFFF001B0D000042
