:02000004C0D06A
:1000000080B500AF06F034FE012006F0D2F9FEDE26
:1000100080B500AF814207D3994203D81218091A5C
:10002000104680BD0846194605F053F9FEDE80B53E
:1000300000AFC6B0FF20143001AD00242C5489203D
:100040004100284608F0FCF907204103284605F046
:1000500099FF204606F0ADF9FEDED4D480B500AF9E
:10006000014806F0E7FF80BD409FD0C0F0B503AF68
:1000700095B00691006860C848698A69D3683D49AF
:100080007944012422469847234606990CAA203237
:1000900002920A462032019222460594002E5CD03C
:1000A0000795C007184654D1CC69600712D4D00711
:1000B0000BD148698969CB682F4979440222984756
:1000C000059B06990028184643D107A806F016F8A4
:1000D000059B33E04869049088690390D0070BD0F2
:1000E0000398C36825497944012204989847059BE1
:1000F0000699002818462CD10BA801220270019AFB
:100100001278029B1A700A9003980990049808903C
:1001100013941B487844129008A811900868049022
:100120000C1D1DCC0DA91DC104980C9007A80CA98D
:1001300005F0E4FF002803D0059B1846069908E067
:100140001298C36811980F4979440222984706997A
:10015000059B6D1C761E0022A0E7C00707D14869E9
:100160008969CB68084979440122984703461846B3
:1001700015B0F0BD1A8B0000D08A0000B38A0000D1
:1001800038890000498A0000358A0000B0B502AF06
:100190000B4600780E4979440524C046784400791E
:1001A00040008744100206090D000A4979440C24D6
:1001B00009E00949794401E0084979440B2402E047
:1001C000074979440424D56818462246A847B0BD9B
:1001D000E6840000D5840000D9840000DE8400009D
:1001E000E5840000704770477047D0B502AF0378D0
:1001F000012211462B2B12D02D2B10D00023194693
:100200005A1E541EA241012B09D0C45C303C092C5B
:1002100004D80A224A4311195B1CF1E70121104658
:10022000D0BD80B500AF0A460121490206F0DCF9D5
:1002300080BDD0B502AF04460120C3020846114676
:100240002246FFF7E5FED0BD80B500AF8A4202D35B
:100250004018511A80BD0846114605F03AF8FEDEF6
:1002600080B500AF002800D080BD034878442B2122
:1002700005F016F8FEDEC0468B870000E0B502AF41
:10028000002801D108468CBD0348784401A9034ADF
:100290007A4405F00AF8FEDEDF8A0000BC83000025
:1002A000F8B504AF009202A803AA034979440B46AB
:1002B00005F00AF8FEDEC046B0830000F8B504AFD2
:1002C000009102A803AA034979440B4604F0FCFFFD
:1002D000FEDEC046A4830000C0210140802905D075
:1002E000402905D0002905D101207047042070471E
:1002F000022070473F210840401D7047F0B503AF12
:1003000087B00C460190486989690291CB683449ED
:1003100079440D2206461D469847012100284BD1FD
:100320000091207F400720D42E4979440322304693
:10033000A84700283FD12C49794404223046A847D9
:10034000002838D12949794402223046A84700289C
:1003500031D101983146029AFFF718FF0028009921
:100360002AD129497944022235E0214979440322DE
:100370003046A84700281ED106A80121017005902B
:1003800002980490039603A81A497944042205F0C0
:1003900047F900280FD103A817497944022205F034
:1003A0003FF9002807D103A9144A7A440198FFF7BE
:1003B000EDFE002803D00099084607B0F0BD03A861
:1003C0000F497944022205F02BF900280099F3D156
:1003D0000C49794401223046A8470146ECE7C04663
:1003E000B38300005D88000073830000468800002E
:1003F0002288000021830000F2870000A28600000E
:10040000CF870000C187000030880000F0B503AF3F
:1004100087B005910646107B5168BD68814203D1C3
:10042000B5807380002070E0029328040690039248
:1004300002D00598047909E0104603F0DCFB0C4675
:1004400001210840FFF70CFF059804712046FFF7D3
:1004500043FF0490052803D900207070012054E068
:10046000C020204003D0402801D0802809D1069820
:100470000028039814D13F22A10607D5D1430C438D
:1004800005E0ADB2012D039809D909E014400499A3
:10049000CA001832182111408C4005990C600125C2
:1004A0000196ABB2D943049A8918CE0005990D681C
:1004B000027B4168914219D004998B4216D234468E
:1004C0001E4603F098FB069101210840FFF7C8FE85
:1004D000334626460398182222400699C9B2914015
:1004E0000D4305990D60083E5B1CE1E70020C14308
:1004F000049A93420A4600D01A46019EB280049A9A
:100500009342029A00D011467180307007B0F0BD5E
:10051000F0B503AF87B00691117B5468BD688C427B
:100520003BD0290404920390029303D006980478E8
:10053000ADB209E0104603F05EFB0C4601252840F1
:10054000FFF78EFE069804702046FFF7C5FE059063
:10055000401B009000260195049B187B596881423E
:1005600012D00598A8420ED0184603F044FB0C4662
:1005700001210840FFF774FE212D14D2069844553E
:100580006D1C761CE8E7009E019835180598854299
:100590000398029B01D1064B1D46858043800021B4
:1005A000017007B0F0BD2121284604F0D2FEFEDE26
:1005B000FFFF0000F0B503AF87B00293134603902E
:1005C000F81D013002888818049020200692801AB5
:1005D000019000260593187B5968814214D0069833
:1005E0008519284620380ED0184603F004FB0C4627
:1005F00001210840FFF734FE202D16D204988455BF
:10060000761C059BE7E7019E0020039B1870069966
:100610007118C0432029024600D00A469A8020293A
:1006200000D00298588007B0F0BD2021284604F081
:1006300090FEFEDEF0B503AF87B002931346039041
:10064000F81D013002888818049021200692801A33
:10065000019000260593187B5968814214D00698B2
:100660008519284621380ED0184603F0C4FA0C46E6
:1006700001210840FFF7F4FD212D16D2049884557E
:10068000761C059BE7E7019E0020039B18700699E6
:100690007118C0432129024600D00A469A802129B8
:1006A00000D00298588007B0F0BD2121284604F000
:1006B00050FEFEDEF0B503AF8DB01C4615460E466B
:1006C00006F0B8FC03462A4603950494A5190120B8
:1006D000C102481C854217D28E4218D8981911467B
:1006E00002922246019306F0E7FC019831462A4621
:1006F000FFF79FFD06910590029A234604F080FFC4
:10070000002808D0094800E007480DB0F0BD304689
:1007100004F0DFFDFEDE0020079005A803A907AA6C
:10072000FFF7BEFDFEDEC04602E0000001EF000064
:10073000F0B503AFB1B0019014AE304603F09FF8AE
:10074000307800901EAD284608304124214607F03D
:1007500077FE009828701F9401232946324606F040
:1007600083FC002803D003F0B1F805460AE0291DF8
:100770001EA846884578047802A8482207F0C6FBE0
:10078000202C09D16E202843C0B2019E708014A88D
:1007900003F050F920240CE00096019E301D02A9C0
:1007A000482207F0B3FB14A803F044F900987080C6
:1007B0007570347031B0F0BDF0B503AF93B00E4634
:1007C00004466D46681C491C202207F08FFB402020
:1007D000305C01210140881C287009AE212230467E
:1007E000294603F08DF93078002807D109A8411C6B
:1007F0002022204607F07AFB13B0F0BD034878446E
:1008000012A9034A7A4404F050FDFEDE6B85000015
:10081000387E0000B0B502AF0446C0200025255048
:100820002580F52080002018152107F009FE2046BC
:10083000C8300121090206F00BFC3920C000255008
:1008400020184560B0BDD4D4F0B503AFFFB09EB062
:10085000FF2A02D9714D01F06FFC0C460646704824
:100860001818189083208000429318182B90392074
:10087000C00033187D20C00030180B90304609307E
:100880002390304632303B90304650304F903546C2
:1008900070353046B2303F903046B8304E903046DA
:1008A000B030289055A9304600263C960E73064677
:1008B000409357933A92569239945594F52080007C
:1008C00030180C9078A8401C1E908CA821301D90E8
:1008D00078A8233032908CA8401C17908CA8173031
:1008E000169060A8801C15908CA81E30149030467D
:1008F00084303690304669301C90304613301B905F
:1009000068A8411C1291C01C11908CA8001D109069
:1009100068A8411C0F91C01C0E908CA8001D0D9062
:1009200030464430319030468830269030460E3084
:10093000279030460A301A90304634302F90B01D40
:100940002E90304614302D9030460D302590304694
:100950002C3019903046723022903046643021900D
:1009600030463A302090304611301F90701D38903C
:1009700028463C30339030465C302490304612306C
:100980002C90304638303490304618302A9030461B
:10099000103043904F9C1834299430468A30309060
:1009A000459540354495304608304C90701C3E903B
:1009B000301D48900720139040033590012041904E
:1009C0003C983790499655A8007B5699814201D1B1
:1009D00001F09DFB4E980489304605F008FF80B277
:1009E000844201D301F062FB3078F84E4000C046EB
:1009F0007844808840008744060006001500A00067
:100A0000AA00BB005D044E984089009059A855AAE1
:100A10003E99234602F09CFFA2E0C046036E000010
:100A20000E02000055A8057B569EAE4201D100F093
:100A30000CFE4F9800885490489C204603F0A4FE7A
:100A4000549B80B2834201D301F032FB2078C3284B
:100A500030D1AE4201D801F032FB681C55A90873B1
:100A60005598445D4198FFF7FBFB002C35D0012CD5
:100A7000D64C01D001F026FB0721329807F07EFA10
:100A800078A92A22389807F031FA0020499A9086EE
:100A90001486C22111713B990871108708729087E2
:100AA000C8810873319A1060908090714C834F9880
:100AB0000388489C4F98408800908CAD55AA2846E2
:100AC000214603F01DF92878002801D001F0F4FA3E
:100AD0008CA883884488BD4A04E08CA8BB4A428025
:100AE0001346144625461D409542489900D10023DF
:100AF0009542549302D14F980088441CA6B20846F0
:100B000003F042FE81B28E42B04800D054984F9A12
:100B100050808E42AD4B194600D021464F9A11802D
:100B20009D4201D000F091FD0140A84A914200D0C1
:100B300078E71046114600F08BFD4E9840890090F2
:100B400059A855AA48992346FFF760FC08E04E983B
:100B50004089009059A855AA3E992346FFF7D8FC32
:100B600059A80078002801D100F075FD01F0D7FAEE
:100B700000264498855F002D01D500F01FFD4599A2
:100B8000488F0A8F91498A420FD188420DD1242182
:100B9000369807F055FC0A204899087000204599BE
:100BA0008863691C449A1180024655A90C7B569EA5
:100BB000A64201D100F0A0FF91B2022901D901F0B3
:100BC000AEFA33D0012953D0002901D001F0A7FAA1
:100BD00081B236984018519004205391401A529097
:100BE00055A8007B5090002555984D90E0B2864264
:100BF0004FD052998D424CD2864205D94D99095C0D
:100C00005491641C5094FFE7864201D8002000E014
:100C10000120FFF725FB53984019032801D901F063
:100C200096FA5198549941556D1CDFE74898017820
:100C30000A293ED1A64201D801F085FA601C55A9C7
:100C400008735598045D4198FFF70AFB032C5F4E2B
:100C500001D901F064FA092201A10C5D6400A744E6
:100C6000012A395C68A8152107F0EAFB062254E046
:100C700000905BA855AA01232699FFF79BFC5BA86F
:100C80000078002801D001F04AFA5BA882884188E8
:100C90009EE055A8509901735398281804284B4A90
:100CA000114601D04599098F042800D190E00246F1
:100CB0008EE0464B69E01E21179807F05FF968A89F
:100CC0008CA91F2207F012F9FF203C90002005900C
:100CD000139A22E000241498847184804480048054
:100CE00078A88CA9252207F001F9159884718480D1
:100CF0004480048060A85DA90CC80CC1007808700D
:100D00000721169807F03AF968A88CA91E2207F067
:100D1000EDF80522C2203C900596549200242398B9
:100D2000C471847144710471C4708470447004701F
:100D3000499D2C72EC806C7168A91F221F9807F0E6
:100D4000D5F8059828863B9804702C87EC863046A9
:100D5000FF383C990843A88678A92622209807F0F6
:100D6000C5F84F980682219804604460048184721B
:100D7000459E34805DA90922229807F0B7F854995E
:100D800034611248B081114B2971881FC1B2052905
:100D900000D30220C0B2800002A1085808181A46E9
:100DA00019468746140000006C030000760000001E
:100DB0002C0000007A1300004598038F408F0090AC
:100DC0005BA855AA3899FFF735FC58E7FFFF0000EC
:100DD0000846104083B2774DAB4200D10022AB42AF
:100DE00002D14598008F411C8CB2032C284600D0BC
:100DF0001046459A5087032C2A4600D00A4645994A
:100E00000A87AB4201D000F077FE1146014089B25B
:100E1000A94200D0C9E600F0FDFF55A8017B569815
:100E2000884200D13FE254910C2045990C5E0D8A16
:100E30000E893046214605F044FE81B202208D42E3
:100E400001D301F06AF90121012E00D80E46002CD1
:100E500000DA0E46B54224D24598408A009078A820
:100E600055AA2F992B4602F04BFF56995598589B3F
:100E7000549A02F0ADFE02460B46579811461A46A8
:100E800002F08CFEC1B2042901D001F046F978A825
:100E900001780029474E01D001F028F98288448862
:100EA00008E1519052953020499D295E0029414E1C
:100EB00000D5D7E0288DB04208D16A8DB24205D165
:100EC000052028710020A862491C298655A9097BA4
:100ED000569D8D4200D1E6E0000401D001F0FDF8FE
:100EE00048980478052C2DD18D4201D801F011F9D4
:100EF0004A1C55A8539202735598445C4198FFF7D9
:100F0000AFF9042C01D901F007F9A00002A108589B
:100F100008182246099987463E0000001400000088
:100F200014000000320000003A00000068A800260B
:100F30008670068078A8122107F082FA3146324680
:100F4000089608E00B46379A1EE00022D04308902E
:100F500001E00421379A54920020499E3073B0601A
:100F6000F0710991B171727168A90322259806F098
:100F7000BDFF0898306178A914222D9806F0B6FFBD
:100F8000549A34710B4E539B549264007C44A48851
:100F90006400A74411000500050018002200A20803
:100FA000499D2B8D688D00908CA855AA3899FFF724
:100FB000AFFA1BE0FFFF0000D9B28D423BD1499D43
:100FC000688D298D1BE0499D2B8D688D00908CA824
:100FD00055AA4C9902F0D8FC08E0499D2B8D688DEC
:100FE00000908CA855AA2E9903F0E0FB8CA80078FD
:100FF000002801D001F079F88CA9888849880A4630
:101000000240B24200D10020B24201D1298D491CD8
:101010008CB2012C334600D003466B85012C304640
:1010200000D008462885B2423BD10340B3425499D0
:1010300037913CD04AE700208D42044604D95A1C1F
:1010400055AB1A73559A545C8D4200D90120499DC5
:10105000FFF706F9601E4142414138980170304661
:101060003146CCE74598408A009078AC55AA204696
:101070001999529B02F0CDFD2078002801D001F093
:1010800072F878A88288448821461140B14211D173
:1010900000212986A88D002800D00BE7344632466F
:1010A00008E0549837904598428A529C02E03446B2
:1010B0003246379125461540B54201D0549201E0A1
:1010C000002054904598068A8189008905F0F9FC32
:1010D000F7498D4201D0224600E0721C81B21446CD
:1010E00092B28A42F24E304600D05498459B5882C4
:1010F0008A42314600D02146459A1182B54200D03D
:10110000D1E00140B14200D087E630463146CDE023
:1011100055A8007B5699814200D1C4E02E980088E2
:101120000121012800D8084600262F9A945F002C40
:1011300000DA08463B998B880225834201D300F0F0
:10114000C6FF002C5DD4499EB0897189D84A91426E
:101150000FD190420DD121212C9806F00FFF0020D5
:101160001A998871888048800880611C2F9A1180A4
:10117000014655AA127B569B934262D089B201293F
:1011800001D900F0A4FF0BD0002901D000F09FFF8F
:10119000009078A855AA00232C99FFF74BFA06E097
:1011A000009078A855AA0123279902F032FD78A86B
:1011B0000078002801D000F088FF78A8438879994A
:1011C0001846084082B2BA48824200D100218242C9
:1011D00001D17089431C9CB2022CB54800D008464E
:1011E000B081022CB24900D019467181B04B9A42AD
:1011F00027D10A46024092B29A42BAD1AC4801467F
:1012000023E034980088009078AC55AA20462E99A7
:1012100002F0FFFC2078002801D000F056FF78A9EA
:10122000888849880A460240A14B9A420DD12F98DE
:1012300006802E980088002834469D48014682D1B9
:1012400003E0349800883B9989882E9A12880124FB
:10125000012A00D8224600232F9DED5E002D944DDB
:1012600000DA22460C460440AC4202D13B99898800
:10127000491C8EB2964200D00D463B998D808C4918
:101280008C4200D003469642894A104600D0184648
:1012900034990880944206D10540954200D037E742
:1012A0001046114602E04598418F008F5BAA91805D
:1012B0005080EAE404214E98425E002A00D5A2E163
:1012C0003F98048844980388B34223D1B44221D183
:1012D000549121213098539206F050FE0024499EEB
:1012E000B460F460B47434824F9D549828764521DC
:1012F0002D9807F0A5F8F4656D4868812C74E043DB
:1013000070663F980480449804805398401C4E991E
:101310008880234655A8027B5698904200D1E5E389
:101320004D9043980088012800D801200A264F9943
:101330008D5F002D549201DA052100E0011D8AB273
:1013400099B2914201D300F0EAFE02293D960BD0FA
:1013500001294CD0002952D100948CA855AA002311
:101360003099FFF7D5F869E0A1B20820401A4B90F8
:101370000A91C80038214A91081A53904C98046881
:101380004068529055A8007B47900025559846909C
:10139000549AD0B24D99814236D04B9B9D4233D264
:1013A0008142519405D9469B1B5C5093521C479235
:1013B000FFE700248142549201D8204600E001203A
:1013C000FEF74EFF539E32464A9802405098C0B2F4
:1013D000214606F065FD529A0A43519C04434C98FD
:1013E000046052924260083E53966D1CD0E7009410
:1013F0008CA855AA0123299903F0D8F91EE0002DE5
:10140000499E11DA032010E055A8479901730A9804
:101410002A18082A264E314601D044980188082A05
:10142000304615D0104613E0801C80B2814241D96D
:1014300000948CA855AA249902F0A6FA8CA80078EA
:10144000002801D000F06BFE8CA988884988184ECE
:101450004F9A3D9BD35E439A1288012A00D80122FD
:10146000002B01DA052300E0131D0A46024092B268
:10147000B24202D144990988491C9CB28DB2A5425E
:10148000334600D00B4644990B80B24200D1002075
:10149000A542344600D004463F980480B24200D0B2
:1014A00024E31846204080B2B04200D032E7D6E3B1
:1014B000FFFF0000002D58D4F08AB18ADF4A914224
:1014C0000AD1904208D145212D9806F0B9FF681C39
:1014D0004F9948810020014655AA127B569B9342A2
:1014E0005BD089B2012901D900F019FE0BD0002987
:1014F00001D000F014FE009078A855AA00232A9984
:10150000FFF758F806E0009078A855AA012334990F
:10151000FEF7FEFF78A80078002801D000F0FFFD5C
:1015200078A8438879991846084082B2C348824215
:1015300000D10021824201D1B08A431C9CB2022C0E
:10154000BE4800D00846F082022CBC4900D01946A3
:10155000B182BA4B9A4220D10A46024092B29A42D4
:10156000BAD1B64E3046314672E7009478AC55AAEF
:101570002046439902F04DFB2078002801D000F06E
:10158000CEFD78A88188408802460A40AB4B9A423B
:1015900008D08CAA9180508056E73F9800884499E3
:1015A000098854E700254F98458143980088002812
:1015B00082D18CA8A1498180418045E74E9840891D
:1015C000009078AD55AA28463399234602F021FBB6
:1015D0002878002801D000F093FD78A88188408801
:1015E00002460A40954B9A4232D14498068033987D
:1015F00000880028354601D0FFF7C1FA59A88F4965
:101600008180418027E054914E994889009078ADBF
:1016100055AA2846234602F0FCFA2878002801D073
:1016200000F06EFD78A88188408802460A40B242E8
:101630000ED100224E98828000880028549900D054
:101640003EE659A88680468005E04E98418900898B
:1016500059AA9180508059A88188448826460E4016
:101660007648864200D100218642549102D14E989C
:101670000089441CA5B2499805F0B9F880B28542AA
:101680006E4900D054994E9A518185426B4800D0E2
:1016900020464E9908816948864201D000F00AFD33
:1016A000499E3078411E052900D983E14900C04692
:1016B0007944898849008F4405007D011000380075
:1016C0006E007D003E980078012800D156E1002888
:1016D00000D057E1BD48784452E18CA900208872BF
:1016E00008818D908C90489800680B2205F056F97F
:1016F000002801D100F0FCFC03460A4678A81946F0
:1017000001F0EEFC7898002801D100F0E3FC799913
:101710007B917A900A207990AD487844789078A8A7
:101720000121AC4A7A440B233BE1429C606854900F
:1017300078AD284621463E9A01F0E6FC288800282C
:1017400001D000F0D8FC799B78A82146549A01F08A
:10175000BDFD7898002801D100F0BCFC79997B91FF
:101760007A90092079909C487844789078A8012153
:101770009A4A7A440A2301F0ABFB054680B29849A5
:10178000884201D000F0CDFC0020429908604860FA
:101790002B9908800DE1459A508F284BC11A481E9D
:1017A0008141108F9842419800D10846002811D1FC
:1017B000489910E03F980088204A811A481E8141CC
:1017C000449800889042419800D1084600285BD197
:1017D0004C995AE00021002800D0EAE00E46002192
:1017E00044985491445E33980588409800F01AFD5F
:1017F0005190509153955294AC4201D300F0C1FCEA
:1018000078A82E2106F01CFE3078801FC1B2052971
:1018100000D30220C0B20328549C01D900F0B5FCCB
:10182000800002A10858091841988F461400000052
:101830006C090000D402000054060000FFFF000005
:10184000711C8CAC2122204602F05AF92078002825
:1018500000D05FE18CA841785491468860AC1D258A
:10186000204610992A4606F041FB119821462A4647
:1018700006F03CFB300A129948700E7068AA549822
:1018800010708CA80021F0E20021002800D090E028
:101890004A9104214E980791455E409800F0C2FCA1
:1018A00047905391429C60684690082004900090B5
:1018B00078AE4C4B7B44304621462A4601F01EFF51
:1018C0003088002801D000F018FC79983D906668B7
:1018D0004A9D2A46823278A85490214601F014FC91
:1018E00054980088002801D000F007FC0A967999E6
:1018F00060202D5C60684B90002D499E069106D0BB
:10190000012D00D109E1022D01D000F03EFC78ACA0
:101910002E21204606F094FD032D01D30020C5435F
:101920004A9A61328CA82946234601F0E5FC8C9A3C
:10193000002A01D100F012FC8D9B68AC2046429930
:1019400000F0D2FC2088002801D000F0FAFB699852
:1019500052904A9D28895490002800D182E1E8895C
:10196000214A811A481E8141A8899042419800D19C
:101970000846002800D078E1103577E11B4878440C
:10198000072102E01A48784406217B917A900720CB
:10199000799018487844789078A80121164A7A44BA
:1019A000082301F095FA0546A8B20D49884200D0F7
:1019B000B7E33078002440990C604C60784400799B
:1019C000400087441B1E24282F3B7700E271000053
:1019D000B9710000B9710000807100007F710000D2
:1019E00001EF0000856F0000FFFF0000416F000065
:1019F000406F0000386F00008B6E000001203080C7
:101A000070E0C3203071022030704F9850E0347283
:101A10007460032004E021213E9806F0AFFA042010
:101A200030705FE00A203071052030702B2136982D
:101A300006F006FD2898FA49018053E04498005FBB
:101A400000284FD43399098800290CD080B2491E50
:101A5000814247D14598008FF149884242D145984B
:101A6000408F88423ED121211D9806F087FA4521FA
:101A70001E9806F083FA78A946221B9806F036FADB
:101A80008CA942221C9806F031FAB460F460B47458
:101A90003482062030704F99E14A4A81F4650C7413
:101AA000E04370660420087628988281847204815D
:101AB000046017E004204E99085E002812D44E9965
:101AC0000988002900D11FE380B2491E814209D153
:101AD00044980088D249884204D13F9800888842BF
:101AE00000D111E34E988460FEF76DFF4E990C898A
:101AF00059A844804989B1E54E9841890489ADE5EA
:101B00008CAD28465199509A01F0FAFF28780028A8
:101B100000D191E18CA842882CE268A8402106F00F
:101B20008FFC47995398081800252A460290814255
:101B3000039500D121E24B9E509292194D920A7862
:101B40005392491C4791429C78A8402106F078FCAA
:101B50004D9886422ED23246403220465296314629
:101B6000519200F02DFB0646549100245398402CCE
:101B700011D05499A14200D1B1E2315D09020D1892
:101B80003A21284606F04DFCC62141434A1978A95E
:101B90000A55641CEBE7539078AA4023429C2046E8
:101BA000529900F0D9FB054680B29E498842519E69
:101BB000CAD0B5E203985099421A68A8402101F0B2
:101BC000DEFD04460E465398002E0DD02178090202
:101BD0000D183A21284606F024FCC6214143491934
:101BE0002170761E641CEFE7039E3546403D0022BF
:101BF000D24352920028509A2CD0529B5343549572
:101C0000EC1801D0B41A14E053904B9811181546F3
:101C100068AA4023429800F09FFB82B281498A4221
:101C200000D06FE268A8402106F00AFC40352A4641
:101C30005398402C00D39BE250923A21054606F07F
:101C4000F0FBC6214143491968AA1155549D6D1CEA
:101C5000761CCFE74035499E4799029867E73146A1
:101C60003446FBE4002050903CE00025002800D0E2
:101C70008EE242984068509078AC2046294601F0A8
:101C800088FD8CA85390214601F0B0FD68A85190C2
:101C9000402342990C46539A00F026FB5198008845
:101CA000002800D04DE269984D9060684A9078AC69
:101CB0004E215391204606F0C3FB2035284621468D
:101CC000539A04F0D1FC01F0A7FD02460B468CAC00
:101CD0002046429900F008FB2088002800D03FE20F
:101CE0008D98479078A8429C2146469A3D9B01F0EA
:101CF000EDFA789E002E0A9A4B9D00D1F2E1799878
:101D0000539078A82146069B01F0E0FA2146789C82
:101D1000002C00D1E6E17998519078A82A46529B90
:101D200001F0D4FA789D002D00D1DBE1799A549826
:101D300000283D4B7B443D4979444DD03D9346922C
:101D40004B915294549678A8429E3146509A4D9B9E
:101D500001F0BCFA789C002C00D1C3E17998509036
:101D600078A831464A9A479B01F0B0FA7898002843
:101D700000D1B7E17999879186900C2085902C4805
:101D80007844849050988390829404988190294854
:101D90007844809051987F9052987E903D987C90A6
:101DA00046987B907A95072079904B987890079980
:101DB0007D9178A8549A539B01F08AF8054680B229
:101DC000FA49884200D0ABE100204299086048609F
:101DD0002B990880499EECE551987F907E94079856
:101DE0007D907C937B927A9507207990789178A862
:101DF00002213246539B01F06BF8054680B2EB4955
:101E0000884205D100204299086048602B990880DB
:101E1000499EC9E559A8458029462C461EE4C0467E
:101E2000FFFF000001EF000087690000066C000062
:101E3000206C0000A16A00008CA84178549146886B
:101E400060AC1D2520460D992A4606F04FF80E98E5
:101E500021462A4606F04AF8300A0F9948700E705B
:101E600068AA549810708CA8022178AB01F044FA4B
:101E70008C9900295AD08D9C4298224601F004FB8F
:101E80005494539D6E1E529CA64202D00028C74A0D
:101E900070D10121A64211D148400FD12B98008862
:101EA000002800D17BE1189840880028429C40D04F
:101EB0002046294601F000FB02465BE05191429822
:101EC000214601F0F9FA024680B2B849884251D160
:101ED000A0B2509078A82E21549D2A4601F0B8FB5C
:101EE00002460C468CA84299234600F0FDF918984A
:101EF00050994180539A04802B9851990180012A6E
:101F00002DD1144678AA429829460C9B01F0AAFBD1
:101F1000C1072ED1519909024A1C1040884222461D
:101F20001DD1002042990860486014E08CA8828886
:101F300020E00E461898018878AA20460C9B01F0F4
:101F400091FBC10715D131024A1C10408842AFD124
:101F50000020206060602B990880944A0AE0529823
:101F60008642924803D14298114601F0A5FA499E53
:101F700019E5020C499E154616E5A91A68A81446EB
:101F800001F0F6FB02460B464B9D6119429800F0AA
:101F9000E3F982B285498A4200D0B3E08CA840249C
:101FA000214606F04DFA78A80294214606F048FA38
:101FB000039A5419511E5191529429468C424A9DBC
:101FC00000D8C7E42546641A412C7A4878445490D6
:101FD000509148D303920A46403242984D9200F005
:101FE000EFF80446539129464039429847912A46D2
:101FF00000F0E6F8029B002B1FD0539AD218402A1B
:1020000000D1B8E022783A2A00D3AEE0CE18549D31
:10201000AA5C8CADED186D1E2A70402E00D1ACE08C
:1020200002783A2A00D3A0E0549DAA5C5B1E78ADEA
:102030005A55641C401C499EDDE778AA40235493FE
:10204000429D2846509900F0A7F98CAA2846479C43
:102050002146549B00F0A0F9519880385190039A82
:10206000803A4D99AAE742982A4600F0A9F803461B
:1020700053915198421C0ED200297CD01A783A2AEA
:1020800073D240287BD2549DAA5C8CAD2A54491E41
:102090005B1C401EEEE78CA8214601F069FB02465E
:1020A0000B464298509900F077F952E4359D38E09C
:1020B000022008E03D4D33E08CA8407803E000208A
:1020C000FEF7CEF8012059A928E078A845785BA84A
:1020D000457024E078A8858823E051981DE0549845
:1020E000014638E078A885881AE08CA8407814E08A
:1020F0003598851C15E078A833E078A845880FE06E
:1021000078A8DAE705460BE002200B990870274D06
:1021100007E00020FEF7A4F801205BA94870359D78
:10212000499EC836304639993A9A01F009FD81B284
:102130001E4A914200D005462846FC1F053CA54694
:10214000F0BD68A80DE00020FEF78AF8E7E755A982
:10215000509A0A73042103F0FCF8FEDE8CA8BAE75B
:102160008CA84588DDE778A8C0E73A211046F2E759
:1021700040212046EFE75398B2E70846EBE74021BD
:10218000E9E70D4878442C210CE001F0AFF8FEDEC1
:102190000A4878442B2105E02E201121DBE7044872
:1021A00078442F2103F07CF8FEDEC04601EF0000EA
:1021B000D1670000E96D0000C1670000656800009C
:1021C000B0B502AF14460D460246006800280CD098
:1021D000A54217D21048844214D2906804F02AFF16
:1021E00029462246FEF725F8B0BDA5420ED20120B1
:1021F0004302581C844209D20C3228462146FDF77E
:1022000007FFB0BD064878443C2102E0034878440B
:102210003A2103F045F8FEDE01080000FE640000EC
:1022200040650000D0B502AF12C80838002908D0B8
:10223000806804F0FFFE0121C902224604F0D4F9AF
:10224000D0BD0C302146FDF7ECFFD0BDF8B504AF92
:1022500000920D4604460C30BE6819463246FDF722
:10226000F3FF2A46009B03F065F8002041C4F8BD47
:10227000F8B504AF1C4616460A460546806819465E
:102280003346FEF717FA81B2034A914202D1012187
:10229000A21906C5F8BDC04601EF0000FEB506AFA5
:1022A000029301920E46054684680C30FDF7B9FF93
:1022B00002460B4600212046FEF7FCF981B2094C8C
:1022C000A1420DD1A8683146019A029BFEF7F2F9AE
:1022D00081B2A14204D101200299891903C5204687
:1022E000FEBDC04601EF0000FEB506AF1D46044628
:1022F00041C9083900280BD0084611462A46334602
:10230000FFF7B6FF81B2124A91421DD1701918E051
:1023100073191048834209D20093084611462A4691
:102320001D463346FFF792FF65600BE002930846B7
:1023300031462B46FFF7B2FF81B2054A914203D1E5
:1023400002986060002001E0608001202080FEBDD6
:1023500001EF000001020000BCB504AF0C460168AB
:10236000002905D011461A462346FFF781FFBCBD60
:102370001919074DA94207D2009111461A46234662
:10238000FFF764FF0348BCBD2146FFF787FFBCBDD4
:102390000102000001EF0000BCB504AF1C46154669
:1023A0005A180368002B0CD0144B9A4214D2806840
:1023B0002A462346FEF77EF980B2114988420FD1A2
:1023C000BCBD104B9A4213D20C30FDF73DFF2A469C
:1023D000234602F0AFFFBCBD0E4878442C210AE032
:1023E0000948784401A9094A7A4402F05EFFFEDEFA
:1023F000074878442A2102F053FFFEDE010800005E
:1024000001EF000001020000876900005462000033
:1024100090630000D2630000F0B503AFD64EB54420
:10242000D64868440690D64868441690D548684413
:102430001C90D54868441D90FF2112311FA81A90A6
:10244000411800241E918C708921490005F0F8FF85
:10245000F520800064AD281814210E9005F0F0FFDF
:102460002C8094942846C8300B9001F032FB7520E4
:102470008000281801211B914902189105F0E0FF06
:102480007D20C00019902C543920C0002818BF4965
:1024900044608160D694BC4E6E4430460C3018992E
:1024A00005F0CEFF832080003452B94868440460B0
:1024B0001D990C60B74888601894204602F00EFB06
:1024C000412080001A990E18199828180F90AC48CE
:1024D0006844801C0590AA486844011D0C9108308E
:1024E0000D90A7486844001D0A90AB486844011D40
:1024F000139108301290A2486844001D1190A7481B
:102500006844411C0991C01C08909D486844001D06
:102510000790372040021D90812045001A95189899
:10252000179097486844802105F08AFF00219C4855
:10253000817101701991418003F020FF002801D1C1
:1025400003F024FF8E4C6C448021204603F00FFFE3
:10255000207802460E3A082A1ED86078A17809022F
:10256000091802205200C0467A44928852009744CB
:102570002C010800250034003400340034003400FD
:102580002F001B98000289B2814226D17C48684402
:10259000C07803F09DFC20E005281ED1307B7849EF
:1025A0006944C978490802460A433273002872D048
:1025B000002900D17DE003290FD1BDE008BA000C4D
:1025C00002280AD91FA86E49694403F04DFC04E0B3
:1025D0001FA86B49694403F021FC7148007800286A
:1025E000AAD06F4840880028A6D000251E998D707B
:1025F0003060042802D21D98C11C1DE06648684462
:102600001FA903F097FC1C99C86C002813D01FA9C0
:102610000878B02814D18A78002A11D1C978002905
:102620000ED11FA8407801284CD0A72800D1B0E3D4
:102630001D98411C00E0096D1FA803F0A3FC7BE777
:102640001E9A1178002902D0517888426FD11F98C4
:10265000000AC1B2002900D1B7E0022900D1B6E0DA
:10266000012900D1B5E070681A99891C884200D30D
:102670008CE31FAA6E2313547068401C884200D359
:1026800084E31FA901220A547068801C7060084608
:1026900003F036FB50E703299FD8022401200022D3
:1026A0007944097949008F44014A4D500020307324
:1026B00093E700213173012840D0022841D003283C
:1026C0008BD141E01FA8012101707268501C70601D
:1026D000901C1A9DAC1CA04200D356E31FA90918F8
:1026E000AA1A012004F004FD7168A14200D34BE353
:1026F0001FAA505471684018421C7260801CA0428E
:1027000000D342E31FA90918A81A421C022004F0B2
:10271000EFFC7168A14200D336E31FAA50547168E0
:102720004018401C7060104603F049FC04E71FA8E5
:102730001D9903F027FCFFE6022406E0032214465D
:1027400003E00420044600E00524052C1A9D00D96E
:102750007CE195487844A10001A2515851188F4658
:102760004400000048000000EC020000F0020000FD
:10277000F60200004E00000014F7FFFFE008000022
:1027800060080000A807000084050000408FD0C04A
:10279000880500004097D0C0F40700004008000002
:1027A000000200208148784403F044FCB9E6179801
:1027B000C0B2022803D0032800D0B2E6ECE202F057
:1027C00037F902F00FFA0220AAE6002403E00224FF
:1027D00000E0012428461A9D000600D09FE63068DC
:1027E000002835D072486844142105F029FE1FA83E
:1027F00000786E2380282ED1E0B200282DD0012849
:1028000052D117936B4868441FA903F093FB1699A4
:102810000868002861D04968654A6A4403F0FEFFF1
:1028200000285FD01FA9C878159003281B9800D8EE
:1028300000208B78191F4A1E9141159A14931A4350
:1028400000D110E1014300D10DE16E230224C1E16A
:102850006E230324BEE1199CBCE157487844FDF780
:10286000C4FC04461991012017900440534D7D4447
:102870002046A84752487844FDF7B7FC1591179AAF
:102880001040A8472046199C2146A8474949694459
:102890008C70159848700C701FA8032203F0B0FBD1
:1028A0001FA803F08CFBA9E1424868441FA903F06C
:1028B00041FB16980468002C0FD043680F980078ED
:1028C000002811D0012800D0BCE01FA88078012882
:1028D00000D00EE164A81A4656E136486844848860
:1028E000230A77E1032474E11FA86E210322172B2A
:1028F000199200D202E18078002800D0FEE000208A
:102900001421159022461493FDF782FB0E9A03F0D2
:1029100085FFE0210028179100D156E11B980F99FF
:102920000870A07D012800D02AE1109402F048F838
:10293000109C002800D023E102F0A8FF0420199089
:102940001C99486016991B9ACA611E487844886190
:102950004A611D48784408610220C8601B487844D9
:1029600088601B48684448601A48684408601148F9
:102970006844159C214602F093FF1748684404718F
:102980001C98C4641448684402F040FFC0B2062892
:10299000F8D00528F6D8C04678440079400087442E
:1029A0001E211D374026C046A46400003664000086
:1029B00098070000600800007C5F00000BDAFFFF52
:1029C000635F0000B85D0000A85D00008E5D000040
:1029D00040080000AC070000F4070000D2E7FB4805
:1029E000784401E0FA48784403F024FBCAE71C98D5
:1029F0004068811E159A8A4200D1BEE01146401EF1
:102A0000824200D1E1E0EA48684402F049FFB9E7B8
:102A1000F048784403F056FB1599491E0CD200216A
:102A20000AE0ED48784403F04DFB1C984068401ED6
:102A30001599814200D2491CDD486844159102F085
:102A40002FFF9FE7EF201790002055E00120C3E6FD
:102A50001798411E01E01798411C03200840189068
:102A600002F03CF85BE51498002849D0D04C6C4447
:102A7000D34969442046FDF75BFE2178202949D0DF
:102A8000CB4868441791417819914488482213989B
:102A9000119905F03BFAC84868441094448019998C
:102AA0004170179C0470C24868441299FDF784FE77
:102AB0000021BD48202907D0BD4A6A44525C212329
:102AC00043439818491CF5E70121084300BA010A5D
:102AD000020C4A40010E51404140C8B2149905F021
:102AE000F7F91598814219D01C990868401C0860B4
:102AF000BCE76E2017900220199066E0179164E001
:102B0000AB4C6C44AE4969442046FDF711FE247875
:102B1000202C08D1A64868444488E1E6A9486844C6
:102B20004822139909E0A2486844418810914078EE
:102B30001990A448684448220A9905F0E7F91C9DB9
:102B4000286815909F49694448220C9805F0DEF9E1
:102B500097486844109941801999417004701FACDE
:102B6000412220460D9903F04BFA159800BAE8640B
:102B7000914969440422204690E601F059FF109CD7
:102B80001434149A143A64A88A4B6B442146FDF716
:102B90005BFE82B282498A4214D10F9800780228E3
:102BA00000D07DE6824C6C4420460B9900F0D6FFA5
:102BB0002078002826D07E48684440881990000A72
:102BC0001790ABE01990100A179064A8FDF722FE49
:102BD000199C179B7068A91C884200D3D6E01FAAD5
:102BE00013547068401C884200D3CFE01FA90C54D6
:102BF0007068801C7060084603F082F8189801F035
:102C00006DFF8CE46A4868444178199145886A4CA4
:102C10006C441D2217922046079905F067F9089821
:102C20002146179A05F062F9280A099948700D7033
:102C300062496944199808705D4C6C44204600F064
:102C4000A8FD5D4D6D442846214600F0CFFD584853
:102C500068444022294600F043FA16990868002883
:102C600020D00B46496805255C4A7A4424C3186085
:102C700059604F486844012421462B4600F028F94A
:102C800082B247498A4213D119954E4868440E9939
:102C900000F0F5FD1C98806821281A9D14940CD230
:102CA000032011E04248684480881990000A01E03E
:102CB0001990100A17901A9D30E0312801D2042093
:102CC00002E0412801D3092019903B48684415903F
:102CD0004824214605F0B4FB002006990C600C4600
:102CE0001790486038486844039030486844029020
:102CF0001598019020200090324868442F4B6B4477
:102D00002849199A04F0AAF9002811D02D486844DE
:102D100000F090FEE020179014981990002464A809
:102D2000FDF778FD002C199C179B00D0B8E551E702
:102D30002149694448221492059D284605F0D6F899
:102D4000206819901C486844159029461A9D149CC7
:102D5000224605F0CBF81B48684400F06BFE14488F
:102D6000684410901599224605F0D0F81098214635
:102D7000199A03F039FC02460B461FA811461A4661
:102D800003F03EF90124CAE70846214602F0E1FAC1
:102D9000FEDE1FA803F013F9002003F00AFBFEDE9D
:102DA00001EF00000106000005150000E00800002A
:102DB0006008000084050000F407000040080000DF
:102DC00098070000AC070000E4080000FC61000068
:102DD00012620000CA610000D4610000425D000080
:102DE000D0B502AF0088284A8218052A0ED9274A92
:102DF0008218042A15D8C0467A44127952009744A2
:102E000002181B1F2300234B7B441BE07A441279DA
:102E100052009744021C2024272B234B7B44102272
:102E20002BE009221203904224D1194B7B44022249
:102E300023E0194B7B4405E0184B7B4407221CE040
:102E4000174B7B44062218E0164B7B4414E0174BCB
:102E50007B440F2211E0164B7B4408220DE0154BFA
:102E60007B4401E0144B7B44142206E0134B7B446B
:102E7000172202E0124B7B440D2248698969CC6815
:102E80001946A047D0BDC0460020FFFF0092FFFFBB
:102E9000AE590000D4590000AE590000AE590000F0
:102EA000AD590000AB590000E6590000C2590000BE
:102EB000C9590000F9590000075A0000135A0000D0
:102EC000225A000080B500AFFDF7B1F8FEDED4D481
:102ED000F0B503AFA3B0079105900AAD00262E759B
:102EE000744878440E900D930C9207240B9472480A
:102EF00078440A9002F0CAFC16A806711696284675
:102F000002F034FD16A802F081FCC0B20628F9D008
:102F1000C01E0228F6D810A801220275674878441E
:102F20001490139666487844129011946549794438
:102F3000109116A904920A75634979441A91199659
:102F4000189006201790614878441690079C601EE0
:102F500000D230460690601C0990401E089000D2B6
:102F6000089604250395A64215D120A800210171D9
:102F7000209102F08BFC16A802F0F8FC20A802F0C9
:102F800045FCC0B20628F9D003281CD004281CD068
:102F90000528F3D181E00998864218D120A80021A4
:102FA0000171209102F072FC10A802F0DFFC20A851
:102FB00002F02CFCC0B20628F9D005286BD00328FB
:102FC000F5D1089ECFE7069ECDE7099ECBE7A64246
:102FD00066D21CA80021017101911C9104981E90D9
:102FE0003001059908180290C068112105F019FAFE
:102FF0000446401C1F901FA822901EA821900298F2
:103000002090E8B2032800D0019C20A8214602F0BD
:10301000F3FC1CA802F0FAFBC0B20628F9D0042881
:10302000F7D8C04678440079400087440308021D61
:103030000D00EEE72648784402F0FCFFE9E725485A
:10304000784402F0F7FFE4E72448784403F03AF8C4
:10305000651C1F9885420FD000D3254620A829461D
:1030600002F0CAFC2C46D4E71B48784403F02AF847
:10307000002C05D0641EC8E7761C039D079C72E7F0
:10308000002E01D0032500E00425079C761E00D306
:1030900069E7002667E7054800E0054823B0F0BD72
:1030A0003046079902F055F9FEDEC04601EF0000F8
:1030B000046E0000F25A0000C15A0000365D0000A4
:1030C000FE5E0000BA5A0000EA5C0000A75A000049
:1030D000A65B0000B85B0000725B0000AE5B000006
:1030E000DFB506AF044601A802F0C6F90198002832
:1030F00004D0EF200002A080002002E0039860606E
:1031000002982060DFBDD4D4F0B503AF8DB0164671
:103110000391029004AC21252046294605F090F940
:103120002046294603F05BFB304603F076FA002880
:103130000CD004AC30202070601C6049794405221A
:1031400004F0D4FE2121062220469DE0347820465A
:1031500003F03AFB002817D004AE2124092530469D
:1031600021462A4600F00BFB554A7A442B4602F0D2
:10317000E1F83046093053497944052204F0B6FE9F
:103180000E22304621467FE0204603F05CFA0828F4
:1031900012D8401E711C002214460028DCD0150EE7
:1031A000240264190D7812025219401E491CE825A8
:1031B000414B9B1AA541F0D204AC2125204629465B
:1031C00003F00DFB304621462A4603F04DFA002855
:1031D00014D00E46122913D93046113800903446C7
:1031E000123C04A821212246334603F0BBFB212CCC
:1031F0005FD204A82E2101550B3E19E0002045E0C6
:103200001420851B009504A8212100242246334662
:1032100003F0A8FBA5420AD0012C03D104A82E215B
:10322000417002E004A830210155641CF2E7082631
:1032300004A82121324603F0D7F94B1E002B08D0F9
:1032400000292FD0C25C5B1E302AF7D05A1C9B1C71
:1032500001E0002201238A4229D2845C2E2C00D076
:103260001A4603F0C1F908464C1D04AE212521463B
:1032700032462B4603F0C2F9134A7A44052302F082
:1032800059F830462946224603F0AEF9039C029DC8
:1032900000F0C2FA02460B4628462146FFF724F802
:1032A0000DB0F0BD0021184602F053F8FEDE1046C6
:1032B000FAE721212046F7E7FF0FA5D4D55C0000EF
:1032C000AC5C0000995C0000975B0000D0B502AFD9
:1032D0000446084611461A46FEF772FF02460B46A0
:1032E000204611461A46FFF7FBFED0BD80B500AF61
:1032F00001F0E5FFFEDED4D4F0B503AF8DB0059349
:1033000001900CA8017020210B910A9201210991D2
:10331000089000231A46022B41D0D80008A90C5867
:1033200008184068211825465B1C039304918D42C0
:10333000F1D006952C782E210598029200F01FFA04
:103340000546204600290FD00791297809020E185A
:103350003A243046214605F064F84443311B297075
:103360000799491E6D1CEDE7069D6D1C029A039B93
:10337000069500280499DAD02E2A6CD02D2A71D80F
:1033800006463A242146154605F04BF82A464443A2
:10339000311B039B059C61556A1C069DE9E70024CF
:1033A000022C16D0E00008AB195818184668641CA7
:1033B000002EF5D00B78002B0BD12E2A4BD01046C7
:1033C0002D2A54D8491C002305988354761E521C7C
:1033D000EEE72E210598029200F0D1F9284B7B44AC
:1033E000002907D00278392A43D89A5C0270491E16
:1033F000401CF5E72E21234C7C440598029AA047F7
:1034000006900E464D0829462A46A0472346044604
:10341000079106988019401B29462A46984702467C
:10342000681E0023451C0BD2079D9D4223D0884275
:103430001AD2E55C165CE6541554401E5B1CF1E79D
:103440002E210598029A03F0CFF8002803D0019AA4
:103450005160114603E00948019988800020086006
:103460000DB0F0BD2E21104601F073FFFEDE2E21BF
:10347000FAE73A21F7E707980146F5E702E000008E
:10348000D759000083030000B0B502AF0D46832179
:103490008900415A00290BD01446064941180A8870
:1034A0000021FEF78DFE2A46234600F0DCF9B0BD70
:1034B0000020B0BD0E020000F0B503AF8FB00B4688
:1034C000064683208100705A5A4A002800D1A5E0A0
:1034D000574830184488A34200D8A2E004910088DD
:1034E0000690181B7168059101280ED107200090E5
:1034F00008AD524B7B4428463146224600F0FEF888
:103500002888002852D008A84CE00293079608ADFE
:1035100012210391284604F093FF082628460399B8
:10352000324600F02CF9484A7A44334601F002FF53
:103530002846314600F09CF902460B4620461146CB
:103540001A4603F02BFA00282ED00C460846083005
:103550000C3408AD122321462A4603F04FF8394AAD
:103560007A44042301F0E6FE2846214600F080F963
:1035700002460B460298401E11461A4603F00EFA08
:10358000002811D00A1908A8122100F061F802469B
:103590000B460DAC20460799FEF7A6FE20880028B2
:1035A00007D00DA8428839E0234A37E007960998EA
:1035B00000E00E98039008A80024079E314622469A
:1035C000069BFFF783FE089D002D23D009980690E7
:1035D00008A807963146059A039BFFF777FE089ADD
:1035E000002A17D0099B06980B900A95072009908E
:1035F00013487844089008A80121FFF769FC81B2BC
:103600000C4A914209D10799049808180C604C6043
:10361000048003E008A8828800E0024610460FB04C
:10362000F0BD0A4878443C2101F03AFEFEDEC04677
:103630000E02000001EF000002E000004354000011
:103640004C5300005351000029530000D752000092
:1036500080B500AF8A4201D8114680BD104601F006
:1036600038FEFEDEF0B503AFADB01C4604920A464C
:103670000021FEF7A5FD0646039118AD2846214618
:10368000FDF756F82D78202D01D11A4828E0019633
:1036900018A9487802904E8805AC201D091D4822C3
:1036A00004F034FC6680029860702570083418AD10
:1036B00028462146FDF780F82BA8002421462A46FB
:1036C000049BFFF719FE2B9A002A06D02C9B019829
:1036D000039900F0C8F8214606E02C980004401C2D
:1036E000054C0440000A01210C43000280B2204333
:1036F0002DB0F0BD010005E00000FFFFF0B503AF05
:1037000089B0029303920191049005AC00202073CC
:103710000790069005900D26BD68204631462A4642
:1037200000F02DF8029A2B4601F004FE20463146A7
:103730002A4600F08DF802460B46039811461A46B9
:1037400003F02CF900280BD04A1905A80D21FFF72A
:103750007FFF02460B4604980199FEF7C5FD02E083
:1037600002480499086009B0F0BDC046010002E0BB
:1037700080B500AF0A464021FFF76AFF80BDD0B593
:1037800002AF0B46044600201146224602F036FFE7
:10379000D0BDF0B503AF91B00D46009001A8402117
:1037A00004F04EFE0020402816D02B785C09302112
:1037B0005722052C0C4600D314461E09A41901AE4D
:1037C00034540F241C400A2C00D311460919321816
:1037D00051706D1C801CE6E7009C601C01A9402212
:1037E00004F084FB0020207011B0F0BDE0B502AF02
:1037F0000A78002A04D1491C402204F077FB8CBDD2
:103800000348784401A9034A7A4401F04EFDFEDEE4
:1038100067550000A050000080B500AF002800D020
:1038200080BD034878442B2101F03AFDFEDEC046FE
:10383000D35100007047D4D480B500AF0846034987
:103840007944022201F06BFC80BDC046DF550000C8
:1038500080B500AF914202D38018891A80BD10460E
:1038600001F037FDFEDE80B500AF01F0C9FE80BD7E
:1038700080B500AF0A461221FFF7EAFF80BDF0B520
:1038800003AF9DB00391049005AD4021284604F09C
:10389000D7FD15AC20262046314604F0D1FD00941A
:1038A00021200290052203992B4603F011FC049C71
:1038B000204608302946324604F018FB284602F01C
:1038C00015FA6660029921701DB0F0BD01460246EE
:1038D0007F321020222A17D87A4412795200974456
:1038E000111A1C1E20222426282A2C2E333333336F
:1038F0003333333333333333333333333333333398
:1039000033303200012070470A46BF321DD0DF310C
:103910001AD100207047022070470320704704200E
:103920007047052070470620704707207047082021
:103930007047092070470A2070470B2070470C2001
:1039400070470E2070470F2070470D207047D4D469
:10395000F8B504AF0D460446107B5168814201D191
:10396000B8680AE0104600F046F90E46012108400A
:10397000FCF776FC2E70034B1846A0806380002075
:103980002070F8BDFFFF0000F0B503AF87B016460A
:1039900005468C68B868002C0393019021D40295E9
:1039A000086804900498844212D2307B7268824284
:1039B0000ED0304635460E4600F01DF90121084074
:1039C000FCF74EFC31462E46039B641C8C60E9E7F5
:1039D0000498844214D10020C143029DA9806980CB
:1039E00013E0009005AC204604913246FCF70EFD32
:1039F000207800280CD005A840786870012004E0E9
:103A0000029D0198A8806B800020287007B0F0BD4F
:103A100005A88188408802460A40054B9A4204D195
:103A2000002404998C60039BB9E7A9806880EBE7C8
:103A3000FFFF0000E0B502AF0146283101910830D8
:103A40000090684602F09AFB8CBDF0B503AF89B0D8
:103A500001930390F81D013003880420C01A0790D9
:103A60000293D800182305931B1A06910E680024B0
:103A70000492107B516881421AD00798844217D271
:103A800010461D4600F0B7F808940C460121084086
:103A9000FCF7E6FB2B46049A284605990840E1B25C
:103AA000089C81400E4306980660083B641CE0E7D2
:103AB0000020039B187002996118C0430429024634
:103AC00000D00A469A80042900D00198588009B095
:103AD000F0BDF0B503AFC1B00446012005026E464B
:103AE0003046294604F05BFA3046294603F0B0FA26
:103AF000204631462A4604F013FA41B0F0BDD4D432
:103B0000F0B503AFC3B015460E46019002AC204697
:103B1000FFF7DFFF204631462A4600F011F881B258
:103B2000064A914204D102A9019800F017F803E077
:103B30000121019A1170508043B0F0BD01EF0000E7
:103B400080B500AF03F09CFA002801D0024880BD88
:103B5000004880BD01EFFFFF01E0FFFFF0B503AFBC
:103B600089B00D46044601AE2021304604F068FCC1
:103B70002846314603F07EFA002803D006486080CC
:103B8000012005E0601C01A9202204F0AFF900200B
:103B9000207009B0F0BDC04601E00000DCB504AF04
:103BA00000280DD013460A4601466C462046FEF713
:103BB0009BFB2088002801D00320DCBD0420DCBD55
:103BC000024878442B2101F06BFBFEDE354E0000ED
:103BD000D0B502AF0446DBB2D0B2984205D88B42D2
:103BE00005D82218191A1046D0BD194600E018460B
:103BF00001F06FFBFEDE4268037B9A4203D9591C39
:103C000001730068C15C9A4201D80020704701200E
:103C10007047F0B503AF87B005910446107B51683B
:103C2000BD68814203D1A5806380002064E00193D8
:103C30002904039202D0059883780DE0104606917E
:103C4000FFF7D9FF0E4601210840FCF709FB069952
:103C50003346039A05988670C020184005D0802806
:103C600005D0402845D1022002E0012000E00420D8
:103C700004900029029404D005980388AEB2049DF4
:103C80000AE03F200340049DE8001830182101405D
:103C90008B400598038001260693F0434019C40029
:103CA000107B5168814217D0AE4215D21046FFF703
:103CB000A2FF0D4601210840FCF7D2FA039A182012
:103CC0002040E9B2049D8140069B0B430598069372
:103CD0000380083C761CE3E70020C143AE420A465D
:103CE00000D03246029CA280AE4200D00199618091
:103CF00002E0002060700120207007B0F0BDD4D435
:103D0000F0B503AFA9B01D46164604461D910A46FC
:103D100040320820115E1A9290880122012800D8B2
:103D20001046002900DA1046AAB2904201D800F0ED
:103D3000D7FCBA68002918940A9201D500F0D3FC88
:103D40001A9A50881288554C1C92A24219D1A0424E
:103D500017D11D9B1A4632320020188650811070F0
:103D600098861071188710725862C2221A701885CE
:103D70009C851A9C20601A4624329071491C21812E
:103D80001C901D990A46143201928A1C02920A1D47
:103D900014920A461A3213920A46103212920A46B6
:103DA000093211924A1C10920A463C320F920A467E
:103DB0003D320E920A4630320D920A4634320C924F
:103DC0000A4638320B922831039115951B96317BA8
:103DD00072688A4201D100F096FC1D9C228D012A56
:103DE00000D801222C211991615E00291C9B01DA67
:103DF000062200E0521D95B29AB2AA4201D300F009
:103E000087FC042A0ED852007A44928852009744C4
:103E10000400E903F103F603FB0300901EA800234E
:103E20000F99E3E3002901D500F02BFCA58C1B4A78
:103E3000954209D1E08C904206D1C2201D9A1070A3
:103E400000255562481C9085307B7168814201D104
:103E500000F03CFC1D9C204602F01FFEA9B280B27F
:103E6000814201D300F054FC2078C228254600D0BE
:103E7000E7E13046FFF7BFFE0C4601263040FCF775
:103E8000EFF9E0B2D42801D900F06EFC22468000A0
:103E900003A10858081821468746C046FFFF0000C6
:103EA000560300001E0700005403000054030000E6
:103EB00054030000540300005403000054030000A6
:103EC0005403000054030000540300005403000096
:103ED0005403000054030000540300005403000086
:103EE00054030000540300000806000020060000F0
:103EF00058060000440600001E0700001E070000D0
:103F00005403000054030000540300005403000055
:103F10005403000054030000540300005403000045
:103F20005403000054030000540300005403000035
:103F30005403000054030000540300005403000025
:103F40005403000054030000540300005403000015
:103F50005403000054030000540300005403000005
:103F600054030000540300005403000054030000F5
:103F700054030000540300005403000054030000E5
:103F800054030000540300005403000054030000D5
:103F900054030000540300005403000054030000C5
:103FA00054030000540300005403000054030000B5
:103FB00054030000540300005403000054030000A5
:103FC0005403000054030000EC050000EC05000061
:103FD000EC050000540300005403000054030000EB
:103FE0005403000054030000540300005403000075
:103FF0005403000054030000540300005403000065
:104000005403000054030000540300005403000054
:104010005403000054030000540300005403000044
:104020005403000054030000540300005403000034
:104030005403000054030000540300005403000024
:104040005403000054030000540300005403000014
:104050005403000054030000540300005403000004
:1040600054030000540300005403000054030000F4
:1040700054030000540300005403000054030000E4
:1040800054030000540300005403000054030000D4
:1040900054030000540300004A06000054030000CB
:1040A00054030000540300005403000054030000B4
:1040B00054030000540300005403000054030000A4
:1040C0005403000054030000540300005403000094
:1040D00054030000C8080000C8080000C808000019
:1040E000C8080000C8080000C8080000C808000090
:1040F000C8080000C8080000C8080000C808000080
:10410000C8080000C8080000C8080000C80800006F
:10411000C8080000C8080000C8080000C80800005F
:1041200064060000680600006C06000070060000CF
:1041300074060000780600007C060000800600007F
:1041400084060000880600008C060000900600002F
:1041500094060000980600009C060000A0060000DF
:10416000A4060000A8060000AC060000B00600008F
:10417000B4060000B8060000BC060000C00600003F
:10418000C4060000C8060000CC060000D0060000EF
:10419000D4060000D8060000DC060000E00600009F
:1041A000E4060000E8060000EC060000F00600004F
:1041B000F4060000F8060000FC06000000070000FE
:1041C00004070000080700000C07000010070000AB
:1041D00014070000180700001C0700002207000059
:1041E000260700002A0700002E07000038070000FD
:1041F0003C07000017990898287209986860049C89
:10420000EC700698A8701691697028A916460322CA
:10421000119803F06BFE0798E86026A8129904C86D
:1042200004C1059A2A83EC7502880A808078887018
:1042300022A90A22139803F059FE30462E701B9EC5
:1042400001E017991691C0B2014612390529189C50
:1042500017D90146BB3907292BD9002822D00128BC
:1042600020D04A2847D04B2845D04C2843D07E2820
:1042700000D19CE08D2815D08E28194E314643D0B0
:104280005BE0C0467944097949008F4402027E8789
:104290000B0BAB8CE88C009020A810993246FCF7F1
:1042A00037F942E0AB8CE88C009020A81099324698
:1042B00039E0880002A108580818094E314687469F
:1042C000480000007A0000007A0000007A00000038
:1042D0005400000024000000240000008E040000B0
:1042E000FFFF0000AB8CE88C009020A814991B9A6B
:1042F000FFF7ABFB19E0AB8CE88C009020A8149979
:104300003246FCF783F810E0AB8CE88C009020A8D4
:10431000109907E0E88CAB8C002B00D196E0009060
:1043200020A802991B9AFFF713FB20A80078002809
:1043300000D023E220A88188468834460C40FE48FD
:10434000844200D100218442179101D1A88C461CDF
:104350002846B5B202F0A1FB81B28D42FD4800D0E3
:1043600017981D9AD0848D42FA4D00D035461D997C
:104370008D84F84A944200D0A6E1284090421698D5
:1043800017901B9E00D05FE5A5E1AB8CE88C0090F8
:1043900020A814993246FFF7F7FAC6E7AB8CE88CF1
:1043A000009020A80299324600F000FABDE71820DC
:1043B0002A5E002A4ED4688A298AF24B99420AD191
:1043C000984208D1002028726860C143E9602861E2
:1043D000511C29830146327B7368934253D00904F0
:1043E00000D0B4E1009022AC324600262046149959
:1043F0003346FFF7C9FA2078002800D0ACE122A8A4
:1044000043882398194601408AB2DE498A42189CA3
:1044100000D00646DB48824201D1288A431C99B26B
:104420000129D84800D0304668820129D54900D0FA
:1044300019462982D34B9A421B9E24D10A46024038
:1044400092B29A42C7D1CF4E314676E7009020A86B
:1044500000235DE7AB8CE88C0090324622AE3046FC
:104460000199FFF7D6FB3078002800D082E122A81E
:104470008188408802460A40C24B9A4209D020AA4D
:104480009180508056E7E98CAE8C56E7002008906A
:10449000A6E000222A83A88A00281B9E8BD120A890
:1044A000B8498180418045E728A8002181700180BA
:1044B00026A88180817123912291269112220AE0FF
:1044C00028A800218170018026A881808171239114
:1044D0002291269113220591079108910991069145
:1044E000049188E60420069084E626A800218171C4
:1044F00081802691A34805900021C8430790089128
:10450000099177E68D225AE08E2258E08F2271E6DB
:1045100090226FE691226DE692226BE6932269E685
:10452000942267E6952265E6962263E6972261E685
:1045300098225FE699225DE69A225BE69B2259E685
:104540009C2257E69D2255E69E2253E69F2251E685
:10455000A0224FE6A1224DE6A2224BE6A32249E685
:10456000A42247E6A52245E6A62243E6A72241E685
:10457000A8223FE6A9223DE6AA223BE6AB2239E685
:10458000AC2237E6AD2235E6AE2233E6AF2231E685
:10459000B0222FE6B1222DE6B2222BE6B32229E685
:1045A000B42227E6B52225E6B62223E6B72221E685
:1045B000B8221FE6B9221DE6BA221BE6BB22002163
:1045C00019E6BC2216E6BD2214E6BE2212E6BF2280
:1045D0000020069001460EE6C02200E0C122002025
:1045E000099007E600901EA801230E993246FFF7B6
:1045F000AFF910E000901EA802230D9908E000908A
:104600001EA803230C9903E000901EA804230B9915
:104610003246FFF7FEFA1EA80078002800D0A1E07D
:104620001EA8818843881998225E208D012800D811
:104630000120002A534C01DA062000E0401D1A46F2
:104640000A40A24200D10021A24202D11A9B1B883B
:104650005B1C85B29EB2AE42204600D008461A9935
:104660004880AE42254600D01D461C950D80A242D2
:10467000159D1B9E47D11C990140A1425ED0FFF7BA
:10468000A6FB0090324622AE30460399FFF7C1FAEE
:104690003078002862D122A88188408802460A40EA
:1046A000384B9A4203D01EAA91805080B8E700216F
:1046B000A185208D00281B9E01D0FFF7B7FB1EA807
:1046C000304981804180ABE7169817901A9841884D
:1046D0001D9C1C9BA7E71146134617901D9CA2E743
:1046E0000220607042E01A98011D009222AC204620
:1046F00032462B46FFF78DFA207800280AD022A8F0
:104700004078189CEDE7189C0A98A08065801CE012
:10471000022629E022A8828841880B4613401948C6
:104720008342189C0FD100211A9A11819288002A85
:1047300006D0FFF705FBC046FFFF00002046189C8F
:10474000A080608001E0A280618000200FE002264E
:104750000BE0C046FFFF000022A804E022A840783A
:104760001EA948701EA84678189C6670012020700B
:1047700029B0F0BD22A8407820A9487020A846782A
:10478000F3E7C046FFFF00000178C32901D10120F3
:10479000704744300421425E00880121012800D87E
:1047A0000846002A00DA08467047D4D4F0B503AFB3
:1047B00091B00A930546107B5368BC68834205D1CB
:1047C000AC800A98688000202870F0E0049408917A
:1047D0000C78042C0B9223D11046FFF70CFA0C46F0
:1047E00001210840FBF73CFDE0B2811E022906D3FF
:1047F000002804D0012806D0FF200230C6E00CA813
:10480000132103F01DFE089E701C0D2103F0B6FB62
:1048100030460E300CA9142203F068FB34700B9A5A
:10482000E0B2800002A108580818089B0499874646
:10483000140000002200000014000000140000001A
:104840005A0100000091591C28460A9BFBF7B2FE52
:10485000ADE00195117B50680790981D0290981C5F
:10486000039008460690C0B20799814200D18FE0BC
:104870005D890220022D00D995E015D0012D28D0A8
:10488000002D00D08FE09889002803990ED1906800
:104890004A4979440122FFF781F9C0B204287ED148
:1048A000002003990B9A01E09889029900900CACC2
:1048B000204616462B46FFF7ACF92078002870D129
:1048C0007368357B0CA88188059140880990324631
:1048D00020E09C8958884601069D079BA0B2E9B25A
:1048E0008B420DD086420BD91046FFF784F9012187
:1048F0000840FBF7B5FC0B9A641C5368157BEDE789
:1049000086422D49059100D005948642099101D037
:10491000012009901068079319461446069A2B4601
:10492000FFF756F902460B46A06811461A46FFF7F4
:1049300035F9C0B20428089B1F4C30D1099A1046A3
:10494000059E3040A04200D10026A04201D15989E5
:104950004A1C099292B2032A214600D0314699811D
:10496000032A224600D0099A5A81A04210D190B25F
:10497000A04228460B9A00D074E788B2A04228468D
:1049800000D06FE70A94019904E00A4828800EE0FD
:104990000199049C8C800A984880002006E003203E
:1049A00001E00CA84078019948700120087011B00E
:1049B000F0BDC04601020000FFFF00009041000072
:1049C00080B500AFFBF74AFB00F004F80078411E09
:1049D000884180BDF0B503AF87B004468020255CD8
:1049E00026783046294600F014F8002800D13546D4
:1049F000E9B2002800D08034A52903D140342046F4
:104A000007B0F0BD0020019001A92046FBF756FC3D
:104A1000FEDE80B500AFC0B2A52802D0C9B2A5297C
:104A200003D1A538411E884180BD00F034FCFEDE74
:104A3000F0B503AF85B0184C7C44A0470546A047AD
:104A4000FFF7C8FF014602AE0A22304603F04EFAD5
:104A50002846FFF7BFFF007841424141019631707F
:104A6000A04705468020295C2878FFF7D2FF04463E
:104A70002E4680360028284600D13046019900F0A5
:104A80000FF8002C00D12E4604497944304600F03E
:104A90001FF805B0F0BDC04621B6FFFF6B3F000018
:104AA000B0B502AF0D4604460749794400F010F84E
:104AB000204640300A22294602F0FEFA0349794492
:104AC000204600F005F8B0BD4B3F0000383F000025
:104AD00080B500AF012202F0EFFA80BD80B500AFD3
:104AE000C0B2032814D8C0467844007940008744F7
:104AF0000107040A0848784407E000F073F880BD15
:104B00000648784401E00648784400F031F880BD5A
:104B100000F0C1FBFEDEC0462B0000009300000049
:104B2000ED00000080B500AF90B06846012202772A
:104B30000146203100230B770A4B0E9305210D917E
:104B4000094979440C9102210A910892069308239D
:104B50000593064B7B4404930291009201F0EBFB1A
:104B600010B080BD80000B00E13E0000ED3C000075
:104B7000D0B502AF044600F089FE0548784401F044
:104B800059FA0448784401F055FAA047D0BDC04610
:104B9000EC4000007C40000080B500AF90B068465B
:104BA000012202770146203100230B770A4B0E9336
:104BB00005210D91094979440C9102210A9108922D
:104BC000069307230593064B7B44049302910092BE
:104BD00001F0B1FB10B080BD80000B008D3E0000E5
:104BE000743E000080B500AF02487844FFF7C0FF74
:104BF00080BDC0463B00000080B500AF88B068466D
:104C000001210177064A069204220592054A7A4458
:104C1000049202220292009101F08DFB08B080BD47
:104C200080000B00A13A0000B0B502AF90B06C4616
:104C300025462035FFF7C4FE00212977012222777F
:104C40000F4B0E9302210A91089206930D230593B0
:104C50000C4B7B44049302910092002801D108225E
:104C600000E007220D92002802D10848784401E0B4
:104C7000054878440C90204601F05DFB10B0B0BDB3
:104C800080000B00D63D0000C33D0000DD3B00006E
:104C900080B500AF812903D240188022511A80BD0F
:104CA00080220846114600F014FBFEDEF0B503AF8B
:104CB00091B0202408AD03232B550C9400230DAC98
:104CC0000BC40A93009308931469002C01923ED000
:104CD000203504951F20C006516993680393166818
:104CE0004D01814302910596002D55D07268002A2E
:104CF00006D00E98C36831680D98984700285CD19B
:104D0000204620300690207F0499087020690C907E
:104D1000A0690F90214608310795039D284600F0B1
:104D200051F8099108902846214600F04BF80B9164
:104D30000A906069C10068586918079D4A6808A907
:104D400090470836203D0028069CCDD035E007204E
:104D500040079468D16812680592CA00079281439F
:104D6000029100250798A84216D00598401942687C
:104D7000002A07D0059841590E98C3680D989847A6
:104D800000281AD12646083605CC08A990470835D0
:104D900000283446E6D010E001984068029981422C
:104DA0000DD20298C000059A1158101842680E984A
:104DB000C3680D989847002801D0012000E00098B2
:104DC00011B0F0BDD0B502AF0B68002B0CD002467D
:104DD0000020012B0AD14968CB00D1184968064C44
:104DE0007C44A14203D0D0BD081D01E0D0BDD05805
:104DF00001680120D0BDC0466D060000FEB506AFBB
:104E0000029301920E4604460025AE4209D0029854
:104E100002690198214690476D1C0028F5D0681E54
:104E200000E03046B04201D30020FEBD0120FEBDAF
:104E3000F0B503AF8DB00C920A460546C669012154
:104E4000304609910840112109040028069100D03C
:104E50002B210B91B968441870070893079102D46D
:104E600000200A9006E00C9811180A92104600F0F3
:104E700085F80419286800282AD06968A14227D932
:104E800030073BD4091B01262846324600F014F9AE
:104E90000446069884422ED009916969AD690C9840
:104EA00000900C91084629460B9A0A9B00F0E8F8FE
:104EB000002820D1EB680C980899079A9847002899
:104EC00019D1204609990C9A2B46FFF797FF11E05C
:104ED0006C69AD690C980090204629460B9A0A9B94
:104EE00000F0CEF80028099E05D1EB68204608990D
:104EF000079A9847064630460DB0F0BD0591202030
:104F0000295C039101262E542869029030202861E3
:104F10006A69A9690C980090049210460C910B9A4A
:104F20000A9B00F0ADF80028E5D109960598011B11
:104F30000122284600F0C0F806460698864209D0AD
:104F40000B910C98C368049C20460899079A9847CF
:104F5000002801D0099ECEE730460B9922460C9BD3
:104F6000FFF74CFF0028099EC5D128462030039941
:104F70000170029828610026BDE7D4D4F0B503AFD4
:104F80008BB0091A102965D3C21C03239A43121A45
:104F90008E1AB40805945DD034469C4381180C19D0
:104FA00001931E40049100F0B1F90546A119204675
:104FB00000F0ACF94019314E059A002A4DD003900B
:104FC000C02A134600D3C02307A8049900F08CF927
:104FD000089A1346019883430A980590099804900B
:104FE000079907A800F080F908988000079B191816
:104FF0000A9802900998069000228B420DD000205A
:10500000102808D01D58AC09ED43ED092543354063
:10501000AA18001DF4E71033EFE7100A16490A40FA
:105020000840801813494843000C0399401802991E
:105030000029C1D004468A000021002A0FD0069B17
:1050400001CB06938309C043C0091843304041187F
:10505000121FF2E7411800F059F90BB0F0BD080A31
:10506000054A11401040401802494143080C0019FC
:10507000F3E7C04601000100FF00FF00010101014C
:10508000F8B504AF1C460E460546112000048242C6
:1050900007D03369284611469847002801D00120DF
:1050A000F8BD002C05D0BA68F36828462146984719
:1050B000F8BD0020F8BDD4D4FEB506AF2023C55CF2
:1050C000AB0002A4E358E3189F46C0462600000048
:1050D0001C00000010000000180000004D084A1CD1
:1050E000510806E0120603D000220D46114600E0EA
:1050F000002501916C1C0169029146698569641E55
:1051000009D02A693046029990470028F7D011202B
:105110000004019901E00199029803B0F0BDF0B5D7
:1051200003AF87B015460A460646806833681946BD
:10513000014344D000281CD00193F0680021009165
:1051400006910492029503925119059111210D04C3
:10515000441C641E05D004A800F058F8A942F8D1F8
:1051600004E004A800F052F8A94237D1029D039A46
:10517000019B002B23D05119746810460392FFF74E
:10518000FDFE844225D9211A00223046FFF794FF04
:10519000112212040124904218D0019102907069EA
:1051A000B669F368009003992A46984700280DD104
:1051B00002980199009A3346FFF720FE05E07069D6
:1051C000B169CB6811462A4698470446204607B085
:1051D000F0BD7069B169CB680399F4E70028029DBE
:1051E000039A009C07D0A8420ED211563F22D24308
:1051F0009142039A00DB1446002C00D00546002C97
:10520000019BB6D02246B4E7F5D0F5E7FFB507AF6E
:10521000036842681121090493422DD05C1C04608C
:105220001D786AB2002A2ED59C1C04605E783F224D
:10523000029216401F222A40DF2D1ED90092DC1C4C
:1052400004609A780392029A0196039E1640039690
:10525000019A9601039AB618F02D11D31C1D046013
:10526000DD78029A1540B6017519009A5207D20AE4
:10527000AD188D4207D10BE00AE091018D1902E0D3
:105280000099090375188268D11A091981602946A5
:10529000104604B0F0BD80B500AFFDF713FEFEDE92
:1052A00080B500AFFFF7F7FFFEDE80B500AFFFF778
:1052B000F2FFFEDE80B500AFFFF7EDFFFEDE80B54A
:1052C00000AFFFF7F7FFFEDE80B500AFFFF7E3FFAB
:1052D000FEDE80B500AF00F001F8FEDE80B500AF65
:1052E000FFF7D9FFFEDED4D4D0B502AF9A4205D382
:1052F000D21A9C000C191AC00260D0BD0248784432
:105300002321FFF7CDFFFEDE66370000B0B502AF08
:1053100088420CD00A1A00231946C4564025ED4392
:10532000AC4200DD491C401C521EF6D100E00021B9
:105330000846B0BDD0B502AF0C46994204D1114623
:10534000224602F0D3FDD0BD2046194600F001F8F8
:10535000FEDE80B500AFFFF79EFFFEDEF0B503AFC7
:1053600093B00291064627200890354C3648784481
:105370000390A6422DD93046324903F052F80790E7
:10538000611C4143701A069080B26426314603F0D6
:1053900048F805464100039A505C059009AB089C0B
:1053A00018190490001F059B03705118497841702B
:1053B0006E430698801B80B24000115C049B9B1ECC
:1053C0001970101840785870241F08941C4C079EC0
:1053D000CFE7632E13D9B0B26424214603F021F83D
:1053E0004443311B89B24900039D6A5C089CA41E9A
:1053F00009AB1A551A1969184978517001E03046FD
:10540000089C0A2804D2611E303009AA505409E0D1
:105410004000039D2A5CA11E09AB5A545A18281853
:10542000407850702720401A009009A84318074977
:10543000794400220298FFF7FBFC13B0F0BDC04690
:105440000F2700001027000033390000F439000056
:105450000068FEE7B0B502AF0B46C4B200200146BB
:105460008A4204D05D5CA54203D0491CF8E711468E
:10547000B0BD0120B0BDD4D4F0B503AF88B0019069
:10548000D61F0023072A00D21E46C81C03240094FE
:10549000A043401A079059487844069005969342D5
:1054A00000D38CE0CD5C6CB2002C17D40798C01AE6
:1054B0008007514D02D05B1CF1E70833B34207D29D
:1054C000C858CC18646804432C42F6D000E05B1C3A
:1054D0009342E4D2C8560028F9D5E0E70698405D2B
:1054E00001260496022816D003281ED00428059E03
:1054F0006BD1581C029000200390029890426ED20B
:105500000856F02D22D0F42D25D104467020C0433A
:10551000844229DD59E05C1C94425ED20857402544
:10552000ED43A842059E48DD4FE0581C0026039637
:105530009042059E53D2085CE02D24D0ED2D45B25B
:1055400026D16020C04385422FDD3EE07030C0B2DE
:10555000302809D339E005460F34E0B2022834D8A8
:105560003F20C043854230DA981C904237D208561B
:105570004024E543A8422BDCDC1C94422FD2085780
:10558000A8421ADD26E0E0242040A0280DD01CE02F
:1055900020461F30C0B20C2803D3E0B24008772861
:1055A00013D13F20C04385420FDA9C1C944216D28F
:1055B00008574025ED43A8420ADC631C6FE70198B9
:1055C000416001468260002012E00498009002E0F1
:1055D000022000900498039001E0002003900098BE
:1055E000C0B200020399081801994B6088600498C2
:1055F000086008B0F0BDC04680808080EF350000B4
:10560000D0B502AF994208D10C461146224602F0AD
:105610005AFC014640424841D0BD0020D0BDD4D400
:10562000F0B503AF99B00FAD0026AE841792169671
:105630000A23159301240194149413920992119250
:105640000C9110910F930168059141680491806855
:105650000690284618300290243503950796334665
:1056600008963446002C099A00D09BE09A4265D3F4
:105670000C98C518D41A072C07D800218C425BD08F
:10568000685C0A2841D0491CF8E7E81C03218843DC
:10569000A8420E950B930A9401D100250DE0451BFD
:1056A000A54200D30A9D0A200E992A46FFF7D2FE92
:1056B000012802D1099A0B9B27E00A9808380D901F
:1056C0000D98854215D80E9C6159394802468A4387
:1056D000364B5940374E89191140621952680346BA
:1056E00093433248424092191A400A4301D1083587
:1056F000E6E70E9841190A98421B0A20FFF7AAFE16
:105700000128099A0B9B17D14919C818431C1293F9
:10571000ACD09342AAD80C9908180121029A1C46D1
:105720000B46FFF76DFF2346099A00289ED016937B
:1057300000241D461E460CE01292134607980028CE
:1057400030D1012403984470089D95420794164671
:1057500028D00698007800280B9308D00498C368D6
:1057600015497944042205989847002818D1089BC8
:10577000F21A0C98C1189E4201D1002005E0501881
:10578000401E03780A3B58425841069B1870049803
:10579000C36805989847002808950B9B00D161E7DE
:1057A000019800E0002019B0F0BDC0460A0A0A0ABC
:1057B00080808080FFFEFEFE552F0000F8B504AF0C
:1057C00060C80468207800280BD00091F36809496C
:1057D00079440422284698470099002801D00120E6
:1057E000F8BD08460A3842424241227032692846D2
:1057F0009047F8BDE72E000080B500AF0A46024989
:105800007944FFF753FA80BD9C330000B0B502AF76
:10581000044600F0B3FD002801D100F0B7FD0625D5
:1058200000F0ACFD00281FD00421204600F09FFDB1
:1058300020780528F3D12179E07842080846104302
:105840002071002904D0002A12D0032A0ED00BE0C8
:10585000032A09D80020C0467A441279520097449E
:10586000010F1005002020712846B0BD0220B0BDF8
:10587000002020710429284602D2C9000248C840ED
:10588000B0BD0120B0BDC0460603040580B500AF21
:105890000248784400F07CFC80BDC0462233000002
:1058A000BCB504AF0C460546FFF7F0FF286800685A
:1058B000811EA14207D12A696B69174878440921E2
:1058C00000F032F819E0401EA04207D1AA69EB6946
:1058D00013487844092100F027F812E0E968A14252
:1058E00016D9E100AA6850585118496800220223CD
:1058F00000930192012200F095FC0848784400F0E2
:1059000099FB002C03D00748784400F093FBBCBD02
:105910002046FFF71EFDFEDE983300000433000032
:105920005233000060330000BFB506AF1D46144679
:10593000024602A8C180002B01D0122100E03C21C8
:105940008180029200F076FB002D0ED0012D08D14F
:1059500003CC0022022300930192012200F062FC9A
:10596000BFBD0221204600F0CBFCBFBDF0B503AFA8
:1059700085B00446007DC0467844007940008744E5
:10598000010A1C310321204600F0BAFC20690028DE
:105990002CD018490BE003CC012302220092019382
:1059A000083C00F03FFC206900281FD010490491FA
:1059B000039003A800F03EFB18E003CC012202266E
:1059C0000096019203252A462B46083C00F02AFC4B
:1059D000A068E16800220096019211232A4600F097
:1059E00021FC03E00221204600F08AFC05B0F0BD56
:1059F0003800020010000800F0B503AFBDB00D463E
:105A00000446FFF743FF0020A84BA94E7E444028E0
:105A10000CD02DA901220A50091800220A770E6124
:105A20004A618B6102228A602030F0E7059609AE58
:105A30002DA94022304602F059FA2168029460688C
:105A4000019002680395284650433C3606968B68C1
:105A500008930491CE6800240792002A49D00028B8
:105A60001CD0112200210B4602F015FA4A1E91416A
:105A70003FD1B0423DD2014611318E42354600D36E
:105A80000D46814200D235462946089A3346FAF738
:105A9000BFFA00282DD002460B4607E0002E28D082
:105AA000112E354600D31125089A2B4621A8114600
:105AB0001A46FFF7E1FCE00700D0F2E0239B2299B1
:105AC000219A0020069C2070784C1794022413948D
:105AD00001241194002A00D003461693002A00D016
