:02000004C0D06A
:1000000080B500AF06F056FA012005F0F1FFFEDEE4
:1000100080B500AFC6B08920410001AC204607F092
:10002000FEFB07204103204605F0C4FC002005F03C
:10003000DFFFFEDE80B500AF88B0684601210177A2
:10004000064A069202220292009104220592044A74
:100050007A44049205F0DAFD08B080BD80000B0000
:10006000A57B0000D0B502AF90B0684601220277B0
:100070000146203100230B770A4B0E9302210A918F
:10008000089205240D94084C7C440C940693082394
:100090000593064B7B4404930291009205F0B6FD54
:1000A00010B0D0BD80000B00407B00002C7B000016
:1000B000D0B502AF90B068460122027701462031E8
:1000C00000230B770A4B0E9302210A910892052414
:1000D0000D94084C7C440C94069307230593064B1F
:1000E0007B4404930291009205F090FD10B0D0BDC6
:1000F00080000B00147B0000017B0000B0B502AF54
:1001000090B06C462546203503F078FF0021297712
:10011000012222770F4B0E9302210A910892069337
:100120000D2305930C4B7B4404930291009200280D
:1001300001D1082200E007220D92002802D10848D0
:10014000784401E0054878440C90204605F05EFDB7
:1001500010B0B0BD80000B00A77A0000947A0000B8
:10016000707A0000FEB506AF019000780126344693
:100170002B2817D02D2815D000221446561E701E8D
:100180008641012A0ED001980292805C0A252946F8
:1001900004F09DF8002804D065436C18029A521CA4
:1001A000ECE701243046214603B0F0BDE0B502AFD4
:1001B000002801D108468CBD0348784401A9034AB0
:1001C0007A4404F04FFFFEDED8800000C8790000BA
:1001D000D0B502AF044605F05DF90548784405F056
:1001E0002FFE0448784405F02BFEA047D0BDC04642
:1001F000287F0000187F000080B500AF02487844D7
:10020000FFF7E6FF80BDC046FBFEFFFF80B500AFF5
:10021000C0B2032814D8C04678440079400087440F
:100220000107040A0848784407E0FFF7E5FF80BDAE
:100230000648784401E006487844FFF7C9FF80BDCE
:1002400004F072FCFEDEC0463BFEFFFF7BFEFFFFBC
:10025000F9FDFFFFF0B503AFFFB0FFB0D9B0924892
:1002600068442590FFA84C3028908920410029AC93
:10027000204607F0D4FA1D20069000016EAE30181B
:100280001421129007F032FA002535809E953046F1
:10029000D0300D9001F0DEFE79208000269035549C
:1002A0003046C03081498160C560E9958048E8905A
:1002B0002846FFF7ABFF4320800020182390412001
:1002C0008000229020182790FF20123020182490C0
:1002D000269830181390FFA89430014608311191E8
:1002E000014649311091014648310F91FFA99431DF
:1002F0000A4649320C920A4648320B92FFAA08324B
:10030000521D1F92FFAA9432134649331E9313467F
:1003100048331D93FFAB94339B1C0593F0AB5C1CDF
:100320000994DB1C0893FFAB94331B1D0793001D3E
:100330000E90081D0A90FFA89430401C1A90FFA848
:100340005030401C1C90101D1B90372040022690FE
:100350002195209523E005F058FE002801D105F0F5
:100360005CFEFFAC943480262046314605F046FE04
:100370006578A4782898806C05F0D2FCC0B201465C
:100380000E39082921D820024019C046794409793C
:1003900049008F44040F2D36363636362700FFA825
:1003A0009430802107F03BFA219842498871087007
:1003B0004880D0E70121090280B2884221D1FFA8FC
:1003C0009430C07805F0BAFC1BE0052819D1FFA8CD
:1003D0009430C0784108239805F0E0FDC0B20628AB
:1003E0000FD056E029A8FFA9943105F00DFD08E0D3
:1003F00000BA000C022804D929A8FFA9943105F0FD
:10040000CFFC2C4800780028A5D02A484088002836
:10041000A1D027990860042802D22698C11C2FE099
:100420002148684429A905F09DFA25990868002803
:1004300025D024990878002804D0487829A909787B
:10044000814221D1299C200AC6B2022E3AD9279C8A
:1004500060682299884200D357E329AB6E221A5470
:100460006068401C884200D34FE329A901220A5446
:100470006068801C6060084605F0F4F96BE7496825
:1004800029A805F097FA66E729A8269905F092FAB7
:1004900061E7052883D8C046784400794000874446
:1004A0000C740B696C61C04610050000008CD0C054
:1004B0000084D0C00002002071E7E848784405F0CD
:1004C000BFFC6CE72798006800282ED0EAA814210A
:1004D00007F0A5F9E0B26E24802829D1002E00D1C2
:1004E00081E0012E00D0AFE0FFA8943029A905F0EB
:1004F00039FA2899886C0028279D00D1B7E0C96C8B
:10050000EAAA05F09FFF002800D1BAE029A8827866
:10051000C0780146114300D106E10226042A00D02A
:10052000B0E00328229906D801E16E24032600E0FA
:1005300000262299279D6868884200D3E5E229AA0F
:1005400014546868401C884200D3DEE229A90E5486
:100550006868801C6860084605F084F92098FFF7F9
:1005600055FE1CE72098C0B2022813D0032800D003
:1005700015E7D6E22098411E01E02098411C032097
:1005800008402090FFF742FE09E7D348784405F081
:1005900057FC04E703F0FCFD044603F067FD007818
:1005A000CE49794401281991084601D0CC487844B5
:1005B0002090A15D207803F02CFD2646803605466C
:1005C0000028204600D13046209903F031FD002D4F
:1005D00000D126463046199903F042FDFFF70CFE84
:1005E00002202090DBE6BF4878441890BE4C7C4443
:1005F000A047199101263040BC4D7D44A847BC4816
:100600007844A04717913040A8471898A0470C4657
:100610003040A847FFA994318C70179848701998FA
:10062000087029A8032205F0FDF900240920010320
:1006300029A805F0BFF92298001F04428ED000209F
:100640002090FFF7E3FD89E7FFA8943029A905F082
:1006500089F92898866C002E0ED0C56C1398007806
:10066000002811D0022830D1E648421ECDE0FFA874
:1006700094308688340A05E0FFA894308688340ACE
:1006800057E70326229956E729A82699CA1C172D51
:1006900000D2BAE08078002800D0B6E014213046BD
:1006A000129A05F0CFFE0028D74A00D1ADE0012410
:1006B00013980470B07D012804D103F09FFC00283A
:1006C00000D169E11436143D04E029A8807801289E
:1006D00000D098E06EA8E8AB31462A4601F064FFEE
:1006E000024680B2C749884200D08EE01398007855
:1006F00002289AD1FFAC943420460D9901F0EEFC0B
:100700002078002800D1F5E0FFA894304088064604
:10071000040A01256EA801F030FF002D2299279DC3
:1007200000D008E70C1F81E7002A00D188E0199269
:10073000114606F0BBFF1891FFAC9434EAA920469D
:1007400000F01EFA2078202866D01490FFA894307C
:100750004188179140781690F64E6E4444253046F5
:100760001B992A4607F00DF81E9A9078FFA94C3184
:100770008870107852781202101808801D9804783A
:10078000FFA8083031462A4606F0FBFF20221C98BD
:100790001F9906F09CFF0121159420460D46084044
:1007A000801CFFA950310870FFAC943421262046EC
:1007B000324601F065FC2078002800D0A8E1FFA8AF
:1007C000743020221A9906F082FF0021DE48202989
:1007D00006D0FFAA7432525C70438018491CF6E7B9
:1007E000284300BA010A020C4A40010E5140414020
:1007F000C8B2199906F05AFFEE9E189881420FD0A0
:10080000701CEE9098E72698821C6EA8164601F0A0
:10081000B4FEB0B2040A8CE6FFA8943046882EE7F6
:10082000F0A8CA496944442206F0ABFFFFA84C3047
:100830008078EFA98870289800680880149C28E0C8
:10084000FFAC9434EAA9204600F09AF920782028D9
:1008500006D1FFA8943046880CE7C046D47B000040
:100860000446FFA894304188179140781690F0A86C
:1008700044220A9906F085FF0C9A9078EFA98870B7
:10088000107852781202101808800B980078159092
:10089000EE9EFFA89430179941801699417004701C
:1008A000F0A944220E9806F06CFF0F98159901707C
:1008B000EFA90322109806F00AFF29AC4122204636
:1008C000119905F0AFF830BA259908609F4969443D
:1008D00004222046A7E6C046E87A0000AD78000072
:1008E000A07800002D76000073FBFFFFAFFBFFFF39
:1008F00016760000FFA89430417819914588934CF2
:100900006C441D2620460799324606F0E0FE089802
:100910002146324606F0DBFE280A099948700D7020
:10092000F0A919980870FFAC9434204600F038FD07
:10093000864E6E443046214600F060FDFFA894309C
:100940004022314600F09CFA289B986C002800D188
:1009500082E0D96C0425864A7A449A64DD6418657D
:100960005965FFA894300124824A7A440C23214619
:1009700000F04EF982B270498A4200D070E0FFA8C0
:100980000830129905F0ACF97148684400682128D4
:10099000189468D203206EE004F07CFDFFA80830B4
:1009A000002505710220F0906A4969440D60FFA995
:1009B00094310D77289A106594646748784490655F
:1009C000D5655F481066F0A8644A7A44259B1A6092
:1009D000069A5A609960D8605C486844294604F0D9
:1009E000B9FEFFA8083004F038FDC0B20628F8D0E0
:1009F0000528F6D801A1085C40008744080D0722AD
:100A0000122AC04601EF000003E00000E9E7544865
:100A1000784405F015FAE4E75248784405F010FAF6
:100A2000DFE75248784405F053FA6E1CF09886428E
:100A300000D32E4645486844314604F08BFE3546C7
:100A4000CFE74948784405F043FA6D1EC4D200252B
:100A5000C2E73A48421CD8E6FFA89430808856E6A0
:100A60000646140A55E61995302805D9412801D3C0
:100A7000092000E005201990344C6C44482620469B
:100A8000314606F0CCFE2898866206460025456071
:100A9000FFA850300390FFA87430029001942020EA
:100AA0000090FFA80830F0AB2649199A05F0DAFE4D
:100AB000002806D0FFA8083001F054FDE024189E5D
:100AC00027E62249694448221892059806F0FFFD5E
:100AD000B46A1E48684419900599189E324606F07B
:100AE000F6FDFFA8083001F03DFDFFA894301999EC
:100AF000324606F046FE492C17D229A8FFA99431A8
:100B0000224604F08FFF2C4604E604F080FAFEDE55
:100B100019487844FFA97431184A7A4404F0A2FABB
:100B2000FEDE002005F064FAFEDE4821204604F0D7
:100B300055FAFEDE1005000001EF000003E00000A2
:100B400080000B00010600000515000010050000E4
:100B500008040000040400009C7800006774000092
:100B6000807600005A7600004C7600005076000037
:100B7000A572000096730000807700007E70000070
:100B8000F0B503AFB1B0019014AE304605F0A8F84F
:100B9000307800901EAD284608304124214606F0EA
:100BA0003EFE009828701F9401232946324605F026
:100BB0005FFE002803D005F049F8C4B20AE0291D01
:100BC0001EA846884478057802A8482206F0D9FD78
:100BD000202D08D16E202043019E708014A801F0C2
:100BE000C1FC20250CE00096019E301D02A9482280
:100BF00006F0C7FD14A801F0B5FC00987080747071
:100C0000357031B0F0BD80B500AFFFF701FAFEDE00
:100C1000F0B503AFFFB0FFB0B9B00C9101460DA81D
:100C2000002505710D950FA88582012484758348E0
:100C3000784413901295824E7E440FA84CC0092030
:100C4000C00115AA00280AD0166055609660D560CC
:100C5000156195820323937518381832F2E70C98C2
:100C600000010A460818059015A81630039006944E
:100C70000496059882424BD0D0680A90401E1121FC
:100C80000B9206F079FD0B9B18216943039A5618C5
:100C9000411C18461030079000221446089509910F
:100CA0002D19A14230D098686C49794400911346BF
:100CB00011330A998B4200D30B460C9204F0AEFD1F
:100CC0002F2D00D9ABE002223270B21F0023136037
:100CD00032460A3A116031460E3908603046123801
:100CE0000B9B06CB0260304616380160701E641CF8
:100CF0000470B01E09990170083B2E2D0C9A03D286
:100D000018361132089DCBE7079A069C049EB0E77F
:100D1000302D00D383E018200B90684315A9494A71
:100D20007A440A50081884752B4600258582464966
:100D30007944072242608660C56001612F2B73D021
:100D40001E46591C0B980C91484315A93F4A7A44FA
:100D50000A500818847585823D497944062242600C
:100D6000049A8260C560016104F094FBFFA8D8304A
:100D700005713148684405600FA804F095FBFFA891
:100D8000D83004F06AFBC0B20628F8D0C01E022892
:100D9000F5D804F07FFB2F48784405F051F815A8EA
:100DA00004F082FB0DA804F058FBC1B20629F9D06B
:100DB0000020052908D004290FD003290446F1D1C9
:100DC0006D1E0DD200250BE00C998D4220D0B5424E
:100DD00020D0E1070446E5D002E0B54200D86D1C02
:100DE000069C04F057FB2F2D19D80B98684315A9C2
:100DF000081804F059FB002D03D01948784405F079
:100E00001FF8B542CED81448784405F019F8C9E760
:100E1000074800E00748FC1F053CA546F0BD30210F
:100E2000284604F0F4F8FEDE30200146F9E7C0461B
:100E3000046E000001EF0000D4040000F870000010
:100E4000207600001C7000002C7000002270000052
:100E50003670000064730000F472000076740000C5
:100E60000873000080B500AF002800D080BD0348A3
:100E700078442B2103F05DFEFEDEC0469E7100002B
:100E8000DFB506AF044601A804F02EF9019800284A
:100E900004D0EF200002A080002002E003986060F0
:100EA00002982060DFBDD4D4F0B503AF8DB01646F4
:100EB0000391029004AC21252046294606F0AFFCA0
:100EC0002046294605F0B6FA304605F01DF90028FF
:100ED0000BD004AC30202070601C6249794405229C
:100EE00006F0F5FB2121062216E03478204605F0B5
:100EF000CBF900281ED05C48784404AC21460CC8CD
:100F00000CC1007808702046093058497944052200
:100F100006F0DDFB21210E22204605F0BAF9039CE4
:100F2000FFF7A0FF02460B460298214600F0D0F8DA
:100F30000DB0F0BD204605F0FDF8082810D80021BE
:100F400001220C468242D6D20D0E24026419B55CF1
:100F500009024919521CE825414B5B1AA541F1D2FF
:100F600004AC21252046294605F064FA3046214686
:100F70002A4605F0E5F8002814D00E46122913D9A8
:100F80003046113800903446123C04A821212246F4
:100F9000334605F0B0F9202C57D804A82E2101556E
:100FA0000B3E19E00020BAE71420851B009504A829
:100FB000212100242246334605F09DF9A5420AD09E
:100FC000012C03D104A82E21417002E004A8302195
:100FD0000155641CF2E7082604A82121324605F0D9
:100FE00058F9441E0022012501951646A9420AD04F
:100FF000002923D0635C641E6D1C761E302BF5D057
:101000008A19541C00E0019C8A421CD2835C2E2B5E
:1010100000D0224605F03DF94E1D0520C043814217
:1010200016D8212E17D804AC60181149794405222E
:1010300006F04DFB2121204632466EE7481B002179
:1010400003F0E5FFFEDE1046FAE721212046F7E730
:101050000846314601E02121304603F0BFFFFEDEA5
:10106000FF0FA5D46B730000547300003B730000A6
:101070001B720000D0B502AF0446084611461A465E
:1010800000F008F802460B46204611461A46FFF7C4
:10109000F7FED0BDB0B502AF14460D4605F0CEFB4D
:1010A00002460120C3022846214600F001F8B0BDE7
:1010B00080B500AF814207D3994203D81218091AAC
:1010C000104680BD0846194603F088FFFEDED4D4E2
:1010D000F8B504AF1E460D46009011C9214600F038
:1010E00017F881B2094A91420AD1A019009A5060BA
:1010F0003F21314001D0401A40306860002002E0BA
:10110000009A508001201080F8BDC04601EF000019
:10111000F8B504AF1C4615460E4605F08FFB314668
:101120002A46234600F0FAFF002801D10248F8BD04
:101130000048F8BD01EFFFFF02E0FFFFF0B503AF8D
:101140008BB0049314460E46054605A8142106F0FC
:1011500066FB0AA90020887008800322204605F05B
:10116000FBF8002828D0BC68039605AE029514222F
:101170000092019030460D461146224600F0E6F8F6
:10118000049A234603F034FF29190491204632467D
:10119000009C234600F0E4F8019A2B4603F028FF58
:1011A00030462146049A00F0EAF802460B460298BF
:1011B0000399FFF78DFF01E0014828600BB0F0BDF7
:1011C000010002E0F0B503AF97B01C461546009150
:1011D000019006A82E2106F022FB16A805702021FA
:1011E0001591149401211391129000221646022A9F
:1011F00036D0D00012A90C58081840682018521C8C
:10120000039202908442F2D00494257806A82E21FD
:101210000596324605F096F804460E46002E0AD092
:101220002078000240193A2106F040FA0546217064
:10123000761E641CF2E7049C641C059E002D0CD0F5
:101240002E2E26D02D2E6AD83A21284606F02EFAC8
:10125000054606A88155761CF0E7039A0298D1E767
:10126000002002281AD0C20012AB99589A1852686E
:10127000401C002AF5D00B78002B0FD12E2E08D061
:101280002D2E4CD8491C06AB00249C55521E761CB2
:10129000EFE72B480199086017B0F0BD06A82E2192
:1012A000324605F04FF8274B7B44002907D00278DF
:1012B000392A39D89A5C0270491E401CF5E706A805
:1012C0002E21214D7D4405963246A8470290039178
:1012D0004E0831463246A8470446049103980299C5
:1012E0000818801B31463246A8470246701E00236C
:1012F000461C0BD2049D9D4219D0884211D2E65C57
:10130000155CE5541654401E5B1CF1E7059B2F2B22
:1013100010D206AA01980099FFF7DAFEBCE72E2149
:10132000304603F074FEFEDE3A211046F9E70498D9
:101330000146F6E72E21184603F050FEFEDEC046B9
:10134000010002E0B06F00007D500000D0B502AF98
:101350000B46044600201146224600F001F8D0BD9D
:1013600080B500AF814207D3994203D81218091AF9
:10137000104680BD0846194603F030FEFEDED0B5AB
:1013800002AF0B460446002011462246FFF790FEAE
:10139000D0BD80B500AF0A464021FFF7F0FF80BD09
:1013A000F0B503AF91B00D46009001A8402106F0C2
:1013B00036FA0020402816D02B785C0930215722BD
:1013C000052C0C4600D314461E09A41901AE345452
:1013D0000F241C400A2C00D31146091932185170F1
:1013E0006D1C801CE6E7009C601C01A9402206F0F1
:1013F0006EF90020207011B0F0BDD4D4E0B502AF7A
:101400000A78002A04D1491C402206F060F98CBDFC
:101410000348784401A9034A7A4403F023FEFEDE20
:10142000806E0000006800007047D4D480B500AF23
:10143000084603497944022203F0ABF980BDC04657
:10144000386A000080B500AF002800D080BD034896
:1014500078442B2103F06DFBFEDEC046BE6B00001E
:10146000F0B503AF87B016460D46117B5268BC68D5
:101470008A423CD021040290019302D02978A4B280
:1014800009E0304602F063FD069101242040FFF799
:10149000D9FF0699297028190490084604F0F7FF2F
:1014A00006940390001B05900024307B71688142F4
:1014B00012D0059884420FD2304602F048FD0D4606
:1014C00001210840FFF7BEFF06980019202814D814
:1014D00004980555641CE8E7069804190398211A36
:1014E00002D00298019B02E0064B1C4602988480C1
:1014F00043800021017007B0F0BD212103F087FD7A
:10150000FEDEC046FFFF0000F0B503AFA5B01646F3
:101510000D4617900A4640320820115E1C929088B2
:101520000122012800D81046002900DA10469AB29C
:10153000904201D800F0CDFCBA6800291D950E92AA
:1015400001D500F0CAFC04931C9A50881388514AB4
:10155000934219D1904217D12A4632320020288670
:1015600050811070A8861071288710726862C2229C
:101570002A702885474AAA851C9B18602A4624326F
:101580009071491C19810346294614310291A91C06
:101590000391291D1691294609311591691C149151
:1015A00029463C31139129463D311291294630316B
:1015B0001191294634311091294638310F9129462D
:1015C000283105911996317B72688A4201D100F069
:1015D00093FC2C212A8D012A00D801221B91695EDF
:1015E000002901DA062200E0521D94B29AB2A2420A
:1015F00001D300F086FC042A0ED852007A44928867
:10160000520097440400E403EC03F103F603009056
:101610001EA800231399DEE3002901D500F02AFC5F
:101620002846AD8C1B4A954209D1C08C904206D108
:10163000C2201D9A107000255562481C90851C9A86
:10164000307B7168814201D100F039FC1D9C20463D
:1016500004F046FDA9B280B2814201D300F051FCF2
:101660002278C22A254600D0E5E1304602F06FFC20
:101670000C4601263040FFF7E5FEE0B2D42801D940
:1016800000F072FC2246800003A108580818214689
:101690008746C046FFFF0000560300001007000009
:1016A00054030000540300005403000054030000DE
:1016B00054030000540300005403000054030000CE
:1016C00054030000540300005403000054030000BE
:1016D00054030000540300005403000054030000AE
:1016E000FC0500000E060000320600003E06000069
:1016F000100700001007000054030000540300000E
:10170000540300005403000054030000540300007D
:10171000540300005403000054030000540300006D
:10172000540300005403000054030000540300005D
:10173000540300005403000054030000540300004D
:10174000540300005403000054030000540300003D
:10175000540300005403000054030000540300002D
:10176000540300005403000054030000540300001D
:10177000540300005403000054030000540300000D
:1017800054030000540300005403000054030000FD
:1017900054030000540300005403000054030000ED
:1017A00054030000540300005403000054030000DD
:1017B00054030000540300005403000054030000CD
:1017C000E4050000E4050000E40500005403000007
:1017D00054030000540300005403000054030000AD
:1017E000540300005403000054030000540300009D
:1017F000540300005403000054030000540300008D
:10180000540300005403000054030000540300007C
:10181000540300005403000054030000540300006C
:10182000540300005403000054030000540300005C
:10183000540300005403000054030000540300004C
:10184000540300005403000054030000540300003C
:10185000540300005403000054030000540300002C
:10186000540300005403000054030000540300001C
:10187000540300005403000054030000540300000C
:1018800054030000540300005403000054030000FC
:1018900044060000540300005403000054030000F9
:1018A00054030000540300005403000054030000DC
:1018B00054030000540300005403000054030000CC
:1018C000540300005403000054030000D00800003B
:1018D000D0080000D0080000D0080000D0080000A8
:1018E000D0080000D0080000D0080000D008000098
:1018F000D0080000D0080000D0080000D008000088
:10190000D0080000D0080000D0080000D008000077
:10191000D0080000D0080000560600005A0600005B
:101920005E06000062060000660600006A0600000F
:101930006E06000072060000760600007A060000BF
:101940007E06000082060000860600008A0600006F
:101950008E06000092060000960600009A0600001F
:101960009E060000A2060000A6060000AA060000CF
:10197000AE060000B2060000B6060000BA0600007F
:10198000BE060000C2060000C6060000CA0600002F
:10199000CE060000D2060000D6060000DA060000DF
:1019A000DE060000E2060000E6060000EA0600008F
:1019B000EE060000F2060000F6060000FA0600003F
:1019C000FE06000002070000060700000A070000EC
:1019D0000E07000014070000180700001C07000095
:1019E000200700002A0700002E0700001A990C9813
:1019F00028720D9868600B9CEC700A98A87018917A
:101A0000697024A916460322159805F060FE324637
:101A100006986883089828830798E8750998A87538
:101A2000A88268822882EC602E7023982299E9614E
:101A30002862199E01E01A981890D0B20146123916
:101A40000529214B17D90146BB39072924D900287C
:101A500045D0012843D04A284AD04B2848D04C28AA
:101A600046D07E2800D19BE08D2838D08E2819469C
:101A70001C4634D068E0C0467944097949008F4457
:101A8000020249522E2EAB8CE88C009020A81499AB
:101A90003246FFF7E5FC4EE0880003A1085808181D
:101AA00019461C468746C04636000000A0000000CC
:101AB000A0000000A00000005A0000002400000068
:101AC000240000005A040000FFFF0000AB8CE88CEB
:101AD000009020A81699324602F048FA2BE0AB8C11
:101AE000E88C009020A81499324600F01FFD22E0F7
:101AF000AB8CE88C009020A81699324600F02AFBA7
:101B000019E0E88CAB8C002B00D197E0009020A866
:101B10000399E9E7AB8CE88C009020A8169932462F
:101B200000F09CFB07E0AB8CE88C009020A80399A8
:101B3000324600F0E9FB20A800780028FC4B00D0DA
:101B400010E220A88188448826460E409E4200D19B
:101B500000219E421A9101D1A88C441C2846A5B2AE
:101B600004F0BEFA81B28D42F54B184600D01A98A7
:101B70001D9AD0848D421D4600D025461D998D8426
:101B80009E421C9A00D097E1A9B2994218991A91E5
:101B9000199E00D054E598421A9100D050E592E188
:101BA00018202A5E002A4DD4688A298A99420AD1CF
:101BB000984208D1002028726860C143E96028611A
:101BC000511C29830146327B73689342E94B52D002
:101BD000090400D095E10090324622AE0024304640
:101BE0001699234600F03AFB3078002800D0ADE18A
:101BF00022A843882398194601408AB2DD498A42C7
:101C000000D00446DB488242199E01D1288A431C39
:101C100099B20129D74800D0204668820129D549C8
:101C200000D019462982D34B9A4224D10A46024059
:101C300092B29A42C7D119461C4685E7009020A867
:101C4000002350E7AB8CE88C009022AC2046029930
:101C5000324602F02AFA2078002800D07EE122A83D
:101C60008188408802460A40C24B9A4209D020AA85
:101C70009180508065E7E98CAC8C65E700200C9082
:101C8000A3E000222A83A88A00288DD120A883807F
:101C9000438056E724A800218170018022A881801A
:101CA0002291122207E024A800218170018022A83D
:101CB00081802291132209910C910D910A9108467D
:101CC000079108910B91069191E60021C8430B9072
:101CD0000C910D918BE604200A9007E00021C84387
:101CE0000B900C9109910D91A24808907FE68D22EE
:101CF0005AE08E2258E08F2278E6902276E69122F2
:101D000074E6922272E6932270E694226EE69522A1
:101D10006CE696226AE6972268E6982266E69922A1
:101D200064E69A2262E69B2260E69C225EE69D22A1
:101D30005CE69E225AE69F2258E6A02256E6A122A1
:101D400054E6A22252E6A32250E6A4224EE6A522A1
:101D50004CE6A6224AE6A72248E6A82246E6A922A1
:101D600044E6AA2242E6AB2240E6AC223EE6AD22A1
:101D70003CE6AE223AE6AF2238E6B02236E6B122A1
:101D800034E6B22232E6B32230E6B4222EE6B522A1
:101D90002CE6B6222AE6B72228E6B82226E6B922A1
:101DA00024E6BA2222E6BB22002120E6BC221DE660
:101DB000BD221BE6BE2219E6BF2200200A90014682
:101DC00015E6C02200E0C12200200D900EE6009032
:101DD0001EA801231299324600F0A8FB10E00090E3
:101DE0001EA80223119908E000901EA80323109951
:101DF00003E000901EA804230F99324602F055F923
:101E00001EA80078002800D0A6E01EA8828841887D
:101E10001B982B5E288D012800D80120002B01DAA9
:101E2000062000E0401D534B0C4614409C4200D15C
:101E300000229C4202D11C990988491C83B28DB2B0
:101E40009D424C4800D010461C9A50809D42494B00
:101E500000D00B46138047498C421D9D4CD199B24E
:101E6000444A914201D0FFF7AEFB4249884261D01B
:101E7000FFF7A9FB009022AC20460599324602F0FC
:101E800014F92078002863D122A88188408802466E
:101E90000A40384B9A4203D01EAA91805080B4E782
:101EA0000021A985288D002801D0FFF7B9FB1EA8C5
:101EB000304981804180A8E718981A90199E1046F1
:101EC0005288018803E01A46084619461A901D9D5B
:101ED0009EE70220179B587048E01C98011D009255
:101EE00022AC204632461D4602F0DFF8207800285A
:101EF00009D022A84078EDE7179B0E9898800498A7
:101F00001BE0022630E022A8828841880B4613405D
:101F10001848834216D100211C9A11819288002A08
:101F20002B461D9D01D0FFF70EFB179B04E0C0461A
:101F3000FFFF0000179B0F4898805880002016E094
:101F4000FFFF0000179B9A805980F7E722A80AE05C
:101F500022A840781EA948701EA804E022A8407854
:101F600020A9487020A84678179B5E700120187041
:101F700025B0F0BDFFFF0000D0B502AF0088274AB2
:101F80008218042A0FD9264A8218042A16D8C04675
:101F90007A4412795200974402191D212500274BDB
:101FA0007B440C2233E0C0467A44127952009744B5
:101FB000021D202428001C4B7B4420E00922120330
:101FC000904221D1174B7B44022220E01C4B7B44E2
:101FD0000A221CE01B4B7B44082218E01A4B7B446E
:101FE000142214E0194B7B44162210E00F4B7B4463
:101FF00005E00F4B7B44072209E00E4B7B44062291
:1020000005E00D4B7B4401E0114B7B440D224869F8
:102010008969CC681946A047D0BDC0460092FFFF31
:102020000020FFFF515E0000595E00001D5E0000B1
:10203000105E0000025E0000ED5D0000455E0000E5
:102040000D5E0000E25B0000E95D0000CB5D00007A
:102050009A5D0000F0B503AFC1B00446012005024F
:102060006E463046294605F041FB3046294604F0CD
:10207000F3FB204631462A4605F0A2FB41B0F0BDF5
:10208000F0B503AFC3B015460E46019002AC204632
:10209000FFF7E0FF204631462A4600F011F881B2F2
:1020A000064A914204D102A9019800F017F803E012
:1020B0000121019A1170508043B0F0BD01EF000082
:1020C00080B500AF04F0E0FB002801D0024880BDDD
:1020D000004880BD01EFFFFF01E0FFFFF0B503AF57
:1020E00089B00D46044601AE2021304605F097FB2D
:1020F0002846314604F0C2FB002803D00648608021
:10210000012005E0601C01A9202205F0E0FA002072
:10211000207009B0F0BDC04601E00000FEB506AF7A
:1021200001925D180124E202561C0295B54206D2C6
:1021300091420AD8401801991A4604F0C1FB02984E
:10214000B04200D300242046FEBD0846114602F0EE
:1021500045FFFEDEF0B503AF87B00646107B54683E
:10216000BD68844203D1B5807380002072E0059180
:10217000029328040392069002D00598047909E09E
:10218000104601F0E4FE0C4601210840FFF75AF921
:1021900005980471204604F07AF90490052803D9C3
:1021A00000207070012055E0204604F065F90028F9
:1021B0000CD0069800280398059B16D13F2225468F
:1021C000A106049C09D5D1430D4307E006980028D9
:1021D00000D101250398059B07E01540E200183265
:1021E000182111408D401D6001250196AAB2049D61
:1021F000A91ACE00083E1C681346027B4168914232
:102200001BD0AB4219D2254634461E4601F09FFE34
:10221000069101210840FFF715F9334626462C4662
:102220000398182232400699C9B2049D91400C438C
:1022300005990C60083E5B1CDFE70020C1439D420E
:102240000A4600D01A46019EB2809D42029A00D0F2
:1022500011467180307007B0F0BDD4D4F0B503AF33
:1022600087B0164605468C68B868002C0393019029
:1022700021D40295086804900498844212D2307BDD
:10228000726882420ED0304635460E4601F05FFE3F
:1022900001210840FFF7D6F831462E46039B641C07
:1022A0008C60E9E70498A04214D10020C143029D4C
:1022B000A980698013E0009005AC20460491324665
:1022C000FFF748FF207800280CD005A840786870F8
:1022D000012004E0029D0198A8806B8000202870F6
:1022E00007B0F0BD05A88188408802460A40054B2A
:1022F0009A4204D1002404998C60039BB9E7A98019
:102300006880EBE7FFFF0000F0B503AF91B01E4619
:102310000546107B5368BC68834204D1AC806E8054
:1023200000202870ECE005940A910C78042C0B92A4
:1023300025D1104601F00BFE0C4601210840FFF7A5
:1023400081F8E0B2811E022906D3002804D00128BA
:1023500006D0FF200230C5E00CA8132105F05FFA7B
:1023600006960A9E701C0D2105F0BBF930460E3012
:102370000CA9142205F0ABF93470069E0B9AE0B25A
:10238000800003A1085808180A9B05998746C04693
:1023900014000000220000001400000014000000DF
:1023A000520100000091591C2846334601F0F8FE06
:1023B000A6E00295117B50680990981D0390981C27
:1023C0000490084606960890C0B20999814200D14F
:1023D0008AE05D890220022D00D98DE012D0012D06
:1023E00024D0002D00D087E09889002804990BD1D3
:1023F000906846497944012201F06CFD0B9A002057
:10240000049901E09889039900900CAC2046164687
:102410002B4601F04AFE207800286BD17368357B8B
:102420000CA881884088079032461FE09C89588814
:102430004601089D099BA0B2E9B28B420DD08642AD
:102440000BD9104601F083FD01210840FEF7FAFF89
:102450000B9A641C157B5368EDE786422A4900D02D
:1024600021468642284800D0012007900E46106879
:10247000099319461446089A2B4601F055FD024669
:102480000B46A06811461A4601F024FD079908463C
:1024900030401D4CA04201D0324600E000220A9B91
:1024A0000892A04201D15989491C0E468AB2032ADA
:1024B000214600D008999981032A224600D032464D
:1024C0005A81A042069E0FD190B2A04228460B9A94
:1024D00000D078E788B2A042284600D073E72646AD
:1024E00003E0084828800BE0059C02998C804E8010
:1024F000002004E00CA84078029948700120087080
:1025000011B0F0BD01020000FFFF00005A5A0000A8
:1025100080B500AF88B002AC1822204605F0D7F88D
:10252000684601A9224602F009FBFEDEF8B504AFB9
:102530000D460446107B5168814201D1B8680AE01B
:10254000104601F004FD0E4601210840FEF77AFF17
:102550002E70034B1846A080638000202070F8BDC9
:10256000FFFF0000E0B502AF0146283101910830BD
:102570000090684603F070FA8CBDB0B502AF044617
:10258000C0200025255025801D2000012018152180
:1025900005F0ACF82046D0300121090204F05CF9C6
:1025A000C034E560B0BDD4D4F0B503AFFFB09CB08B
:1025B000FF2A02D9F94C01F04DFC06467920800033
:1025C00030181790304633302990304650304790BD
:1025D0005091314678313046BC303446B034319475
:1025E00051AC00253C9525730C465292509951915F
:1025F00048900C305390304684303B9030466930E0
:10260000269030460830469059A8411C2391C01CA2
:1026100022906BA8001D219059A8411C2091C01C3C
:102620001F906BA8001D1E9030460E303290304631
:102630000A302590304634302C90B01D2B90304617
:102640001430389030460D302D9030462C30249088
:1026500030463A302890304611302790701D309027
:102660006BA8014636311C9101462F311B91014662
:102670000D311A9101462431199130301D903046A8
:1026800088302F90204634302E9030465C302A908F
:102690003046123036903046383037903046183059
:1026A0003590304610303F90479D18353495304670
:1026B0008A303990204640303390701C3E90301D57
:1026C00042900720189040033A9001204F9049967D
:1026D0004394409351A8007B5299814201D101F06B
:1026E0008FFB48988588304603F0EEFD80B2854226
:1026F00001D301F09BFB30784000C04678448088CD
:10270000400087440600060010008F008500A000EE
:1027100075044898C088009055A851AA3E992B4648
:10272000FFF704FF87E051A8057B529EAE4201D11E
:1027300000F028FE479800885090429C204601F007
:10274000A7FD509B80B2834201D301F02AFB207881
:10275000C3281FD1AE4201D801F02EFB681C51A93D
:1027600008735198455D4F98FEF76CFE002DDB48CD
:102770000246044620D0012D429801D001F023FBEF
:1027800003F03EFE429C2078C32801D101F009FBF2
:10279000479803884798408800906BAD51AA284617
:1027A0002146FEF7B1FE2878002801D001F0FEFA9C
:1027B0006BA882884488C9482546154085424299BD
:1027C00000D100228542509202D147980088441CD3
:1027D000A6B2084601F05CFD81B28E42BF4800D02F
:1027E0005098479A50808E42BC4B194600D02146E3
:1027F000479A11809D4201D000F0C4FD89B2B74ACA
:10280000914290D190428ED11046114600F0BDFD0C
:102810004898C088009055A851AA3E992B46FEF7CB
:102820001FFE08E04898C088009055A851AA429918
:102830002B46FFF78FFC55A80078002801D100F047
:10284000A7FD01F0F3FA382043990C5E002C01D566
:1028500000F055FD488E0A8EA0498A420ED188426A
:102860000CD124213B9804F0DAFF0A204299087029
:10287000601C4399088700200863024651A90B7B1E
:10288000529E9E4201D100F046FF91B2022901D929
:1028900001F0CCFA4DD001293AD0002901D001F045
:1028A000C5FA81B23B9840184C9004204E91401AD2
:1028B0004D9000244B944D98844201D24B9900E0F6
:1028C0000121D8B286424F9A00D00A46002A67D129
:1028D000864206D95B1C51A90B735199095C509132
:1028E000FFE73546864202D81E46002001E01E461C
:1028F0000120FEF7A7FD4E980019032801D901F029
:1029000085FA4C9850990155641C33462E46D2E7FF
:10291000009057A851AA01232F9901F041FC57A814
:102920000078002801D001F081FA57A882884188F8
:10293000D6E0429804780A2C00D0ACE09E4201D840
:1029400001F060FA581C51A908735198C55C4F9862
:10295000FEF778FD032D439E01D901F067FA0924A3
:10296000A80003A108580818139A12998746C04670
:10297000100000004800000074000000D8000000B3
:102980008BA8152104F04BFF062400221192069219
:1029900010920F9205920E92114655E0036E0000C0
:1029A0004E980119081F4D4A00D00A460021002800
:1029B00000D095E0C94393E06BAC601C212104F08A
:1029C00090FE8BA82222214604F081FE002143487C
:1029D000099007910A46119110910F910E9108915B
:1029E000189C31E01D9803F00BFD00201999086038
:1029F0006BAD05242C70888088713848A88568786C
:102A0000059068880F902879109068790690E8887A
:102A100011902889139068891290287B0E908BA8BA
:102A200022221A9904F053FE1B9800780490288EF5
:102A30000990688E0890A88E079059A846221C9984
:102A400004F045FE1299139A499D0E98287412912C
:102A5000E9811392AA81119868810698687210988A
:102A600028720F98E880059868718BA92222279810
:102A700004F02DFE2998049901700798288708987A
:102A8000E8860998A88659A94622289804F01FFECE
:102A90000020B0602C71A01FC1B205290F4B00D3DC
:102AA0000220C0B2800003A1085808181A4619462F
:102AB0008746C046140000008A030000760000002C
:102AC0002C000000781300004398038E408E009085
:102AD00057A851AA309901F09FFB20E7FFFF0000A3
:102AE0000846104083B29A4EB34200D10022B3424E
:102AF000439D01D1288E411C8CB2032C304600D05E
:102B000010466886032C324600D00A462A86B34215
:102B100001D000F000FE91B2B14200D0AEE681B229
:102B2000B14200D0AAE601F077F851A8017B529893
:102B3000884200D14FE25091042143984D91455E67
:102B4000048906883046294603F0F1FB80B28442AE
:102B500001D301F049F90120012E00D80646002DCD
:102B6000499B00DA0646B44225D24398408900903A
:102B70008BAE51AA30462C992346FEF7C5FC5299DC
:102B80005198549B509A01F0CFF902460B46539846
:102B900011461A4601F09EF93078002801D001F064
:102BA00041F98BA8828844882646164068488642A8
:102BB00015D0509215E03020195E00294398644EDC
:102BC00031D4188DB04248D15A8DB2423C9A45D189
:102BD0000520187100209862491C19863EE00020EB
:102BE0005090439805898188008803F0A0FB5849DC
:102BF0008E4200D16C1C81B2A2B28A42544800D0ED
:102C00005098439B58818A42514900D02146439AAB
:102C100011814F4A964200D0DDE189B2914284D1C0
:102C2000904282D1DEE1408900906BAD51AA2846E6
:102C30002499234601F039FA2878002801D001F0C0
:102C4000EDF86BA88188408802460A40B24200D164
:102C5000E2E08BAA91805080A3E73C9A3C9251A974
:102C6000097B529D8D4200D1D4E00226000401D0A0
:102C700001F0DAF842980478052C31D18D4201D860
:102C800001F0B4F84A1C51A84E9202735198445C6A
:102C90004F98FEF7D7FB042C01D901F0AAF8A00049
:102CA00003A10858081823464999159A8746C04633
:102CB0004600000014000000140000003A0000006C
:102CC000420000008AA800211591817001806BA844
:102CD000122104F0A4FD159A4999134614920AE0B2
:102CE0000A463C985090499B1DE00023D84314901D
:102CF00001E04D9A3C9B002008738860C8711592D2
:102D00008A7150934B718AA903222D9804F0DFFC3D
:102D10004998149901616BA91422389804F0D7FCE2
:102D2000499B1C714E9A64007C44A4886400A744AB
:102D3000110005000500180022007B0818461B8DB5
:102D4000408D009059A851AA3099FEF789FB1BE0ED
:102D5000FFFF0000D1B28D4245D1588D198D439EA1
:102D60001DE018461B8D408D009059A851AA469928
:102D7000FFF774FA08E018461B8D408D009059A8A3
:102D800051AA2B99FFF7C0FA59A800780028439E52
:102D900001D001F01FF859A988884988499B0A4643
:102DA0000240F24CA24200D10020A24201D1198D72
:102DB000491C8CB2012CED4B00D003464998438549
:102DC000012CEA4800D0084649990885E74CA24200
:102DD0002DD181B2A14250990A4600D03EE7A342CC
:102DE0000A4629D03AE700208D420446439E04D982
:102DF000521C51AB1A73519A545C8D4200D9012078
:102E0000FEF720FB601E4142414130980170F049BD
:102E10000846C3E7439E0CE00021499B1986988D24
:102E2000002800D0CDE68BA886804680B9E6509871
:102E30003C9072893489B7E622463C91B4E6499ABF
:102E4000439E51A8007B5299814200D1C7E03425AE
:102E5000D0880121012800D80846545F002C00DAF0
:102E60000846D38E0226834201D300F0DDFF002CFA
:102E700062D4499988894989D54A91420FD19042B3
:102E80000DD12121369804F02CFC00202599887161
:102E9000888048800880611C2C9A1180014651AAC4
:102EA000127B529B9342499B66D089B2012901D97A
:102EB00000F0BAFF0BD0002901D000F0B5FF009060
:102EC0006BA851AA0023369901F0A6F906E00090FC
:102ED0006BA851AA0123329901F0E7F86BA800789A
:102EE000002801D000F06DFF6BA843886C9918464C
:102EF000084082B2B648824200D10021824202D10B
:102F000049984089431C9CB2022CB14800D0084625
:102F100049998881022CAE4900D01946499B5981B4
:102F2000AB4CA24228D10A46024092B2A84B9A4228
:102F3000B5D1A749084621E03798008800906BACCE
:102F400051AA20462B9901F0B0F82078002801D032
:102F500000F037FF6BA88188408802460A409C4BEE
:102F60009A420BD100242C9804802B9800880028CA
:102F70009749084602D07CE7198FD88E499AD288A3
:102F80000123012A00D81A46499C645F002C439E05
:102F900000DA1A4603460B408D4CA34200D10021B3
:102FA000A34202D14998C08E401C85B2954200D000
:102FB0000C4649990C879542854900D00146499AAB
:102FC000D186834883420AD12140814200D038E72C
:102FD0007F49084608E04398418E008E04E0718ED8
:102FE000308E01E01046114657AA918050809CE433
:102FF00000264898815F002900D59FE14398448FBF
:10300000038F7348834220D184421ED150912121E5
:10301000399804F066FB0024499DAC60EC60AC7408
:103020002C820420479E30764521389804F0F7FB27
:10303000EC65674870813474E04368664398846344
:103040005098401C48990880234651A8007B52990B
:103050005091814200D157E34B900A263F98008857
:10306000012800D8012047998D5F002D01DA052144
:1030700000E0011D8AB299B2914201D300F0D6FE60
:1030800002293D960CD0012953D0002900D0A1E09F
:10309000009459A851AA00233999FEF7E1F94FE0AD
:1030A000A1B20820401A45901691C80038214491D9
:1030B000081A4E904698046840684D900025419546
:1030C000459885424B9B01D2419900E00121D8B23D
:1030D000509A82424F9A00D00A46002A6CD15099E9
:1030E00081424C9407D95B1C51A94B930B735199A6
:1030F000095C4A91FFE700245099814201D820469B
:1031000000E00120FEF79EF94E9E324644980240B0
:103110004A98C0B2214604F039FB4D9A0A434C9CB0
:103120000443469804604D924260083E4E966D1CE2
:10313000C6E7009459A851AA01233499FFF7E4F88F
:10314000439E59A80078002801D000F06FFE59A8CE
:1031500081884088479A3D9BD35E3F9A1288012A16
:1031600000D80122002B03DA052302E0FFFF000054
:10317000131D02460A4092B2154CA24200D1002112
:10318000A24201D1308F401C9BB285B29D4200D03B
:103190000C4674879D420E4B00D0034633870C4982
:1031A0008A4200D0B0E298B2884200D04DE7A0B287
:1031B000884200D049E762E316984219082A044879
:1031C000439E00D0308F082A0149C3D01146C1E781
:1031D000FFFF0000002D439E01DA032000E0801C69
:1031E00080B2814206D9009459A851AA2A99FFF7C2
:1031F00035F8A6E7002D5BD44999C88A898AE34A45
:1032000091420AD1904208D14521389804F007FB39
:10321000681C479948810020014651AA127B529BA5
:1032200093425DD089B2012901D900F0FFFD0BD096
:10323000002901D000F0FAFD00906BA851AA0023EC
:10324000359900F0ADFF06E000906BA851AA01236C
:103250003799FEF705F96BA80078002801D000F037
:10326000E5FD6BA843886C991846084082B2C748B0
:10327000824200D10021824202D14998808A431CB7
:103280009CB2022CC14800D008464999C882022C41
:10329000BE4900D01946499B9982BC4B9A421FD126
:1032A0000A46024092B29A42B7D1B848014651E765
:1032B00000946BAC51AA20463F9900F0F6FE2078AE
:1032C000002801D000F0B2FD6BA88188408802463A
:1032D0000A40AE4B9A4206D059AA9180508036E7F8
:1032E000718F308F36E70025479845813F980088D9
:1032F000002881D159A8A5498180418027E74898B5
:10330000C08800906BAC51AA20462E992B4600F045
:10331000CCFE2078002801D000F061FD6BA88188E8
:10332000408802460A40994B9A422ED10024439984
:103330000C87888E002820D0FFF78CFA4898C08828
:1033400000906BAC51AA204633992B4600F0ADFE9D
:103350002078002801D000F042FD6BA881884088C9
:1033600002460A40894B9A420FD14898068033980A
:1033700000880028314600D040E655A88349818066
:10338000418005E04898C188808855AA9180508086
:1033900055A8848843881E4626407C48864200D132
:1033A0000024499879498E4202D1489989884B1C5A
:1033B00050939DB202F088FF80B28542734900D0DD
:1033C0002146489AD1808542704800D0509848994B
:1033D00088806E488642499E01D000F011FD307809
:1033E000411E052900D98FE0694D7D44409B439CD7
:1033F0004900C0467944898849008F4405007E030E
:1034000039001300650075003E980078012800D14E
:1034100060E1002826461D4600D061E15D48784401
:10342000072160E11E465C686BAD284619463E9A4E
:10343000FDF73AFD2888002801D000F0BAFC6C9B0B
:1034400031686BA82246FDF715FE6B98002801D164
:1034500000F0A9FC6C996E916D9008206C904E481C
:1034600078446B906BA801214C4A7A44102337E3CF
:103470001D4659A90020887208815A905990429897
:1034800000680B2202F068FF002801D100F0A4FCC4
:1034900003460A466BA81946FDF7F2FC6B98002814
:1034A00001D100F080FC6C996E916D9009206C90B8
:1034B0003B4878446B906BA801213A4A7A44112327
:1034C000FDF7A6FB26461CE145952346618E2F4D50
:1034D0004A1B511E8A41218EA9424F9900D11146A3
:1034E000002914D1429A13E02346618F274A8A1A91
:1034F000511E8A41218F254B99424F9900D1114687
:1035000000297AD1469A79E0409B439CF5E200225B
:103510005092409B002900D0EFE23820245E48986A
:10352000C16802696BA800F0C1FC6B98002801D14A
:1035300000F039FC4D906C984C9040994D680E20ED
:1035400000906BAE184B7B4430462246FDF7F6FDEB
:103550003088002801D000F02CFC509B1878801F88
:10356000C1B2052900D30220C0B2032801D900F05E
:1035700083FC6C9E40994C684E944000784480884F
:1035800040008744130081018601B801FFFF00005D
:10359000FD48000093480000484700000A4800002A
:1035A0001B4800001A48000002470000591C6BAC81
:1035B00021222046FEF764FD2078002801D000F08B
:1035C000F8FB4D964B956BA84178509146888BAC93
:1035D0001D25204621992A4604F079F82298214693
:1035E0002A4604F074F8300A239948700E7059ABDB
:1035F000509818706BAC002270E10022409B0029AB
:1036000000D07AE21646002148983D91445EC16898
:1036100002696BA800F04AFC6B98002800D1C2E355
:103620001690419645956C985090409E70680D900C
:103630000F2000906BADC94B7B4428463146224693
:10364000FDF77CFD2888002800D0B2E36C980C9030
:1036500070680B90419D2A4682326BAC2046314601
:10366000FDF722FC2088002800D0A2E36C9960209E
:103670002A5C70684490002A0A9105D0012A50D033
:10368000022A01D000F0F8FB042A01D30020C24333
:103690002B4661336BAC20464099FDF793FD2088A3
:1036A000002800D085E36C984D90409E288950906A
:1036B000002800D14FE1E889A94A811A481E8141BA
:1036C000A88990424F9800D10846002800D051E1C7
:1036D000103550E11D46A34878440721264602E0F4
:1036E000A148784406216E916D9007206C909F4808
:1036F00078446B906BA801219D4A7A440E23FDF714
:1037000087FA04462B46F0E14899CC8855A8848076
:103710008B8843803FE648998B8855A84380CC88A6
:1037200039E68BA8402104F07AF8169950980818C9
:103730003D9C2246039081423D944C9200D172E21E
:10374000449812184B9232460E78491C169115680F
:103750004A954E906BA8402104F061F84E994B9821
:1037600081422CD20A46403228464D92FDF792FC07
:103770000446509100253046402D11D05099A94261
:1037800000D124E3615D09020E183A21304603F0AE
:10379000F3FFC62141438A196BA94A556D1CEBE71B
:1037A00006466BAA40234A9D28464E99FDF7B0FC79
:1037B000044680B2D74988424D98CAD037E33D9835
:1037C0004C99421A8BA84021FDF7C0FD04460D46D6
:1037D0003346002D0ED020780002C6183A2130461C
:1037E00003F0CAFF0346C6205843801920706D1E9F
:1037F000641CEEE73D990C46403C409800684B90B5
:103800000020C0434E90002B4C9A32D04E9850432B
:103810005094251801D08D1A16E04D930C4644980B
:10382000111816468BAA40234B98FDF771FC82B203
:10383000B8498A4200D0DEE28BA8402103F0EFFFB6
:103840004036214632464D9B402D00D30AE34C9230
:103850000C463A2118461E4603F08EFF0346C62149
:10386000414389198BAA51552146509C641C491C1F
:10387000C9E74034409E419D169903985BE755A8DF
:1038800041800C460B4686E56BACA34A7A44112373
:1038900035E04B956BAD28464D994C9AFEF7F0FB01
:1038A0002878002800D084E24D966BA8417850918A
:1038B00046888BAC1D2520461E992A4603F007FF3B
:1038C0001F9821462A4603F002FF300A20994870CB
:1038D0000E7059AB509818706BAC0222204640997C
:1038E000FDF770FC2088002800D062E26C985090B0
:1038F0004B9D4D9E0CE06BAC884A7A4410232046C9
:10390000FDF7E6FB2088002800D052E26C9850902A
:10391000409804686BA821462A463346FDF7AAFB67
:103920006B9D002D00D13EE26C9E6BA821464E9A05
:10393000509BFDF79FFB6B98002800D133E26C99F8
:103940006E916D9007206C9045986B906BA801214B
:103950002A463346C4E0002541954BE05D46000011
:10396000FFFF0000D2450000C2450000C84500002E
:10397000C54500000025002800D081E270684C9009
:103980006BAC20462946FDF70BFD59A84E90214609
:10399000FDF734FD8BAC4023204631464E9AFDF7AF
:1039A00097FB2088002800D034E28C983D90706806
:1039B00016906BAC4E262046314603F030FF203582
:1039C00028462146324602F0BBFBFDF74BFA024681
:1039D0000B4659AC20464099FDF77AFB2088002819
:1039E00000D019E25A9803904C9DA8B241904C48DF
:1039F0000540409E34686BA821460D9A0C9BFDF74C
:103A000039FB6B9E002E00D1CDE16C984E906BA8D7
:103A100021460B9A0A9BFDF72DFB6B98002800D1DD
:103A2000C1E14B904C962E466C984A906BA821466B
:103A3000449A4D9BFDF71EFB6B9D002D00D1B2E11A
:103A40006C9950980028374A7A4438D04D9250915A
:103A5000419A32436BA821463D9BFDF70BFB6B9EC1
:103A6000002E00D19FE16C9844906BA82146169AD5
:103A7000039BFDF7FFFA6B98002800D193E16C9946
:103A80007A9179900B2078902748784477904498E1
:103A900076907596072074902449794473914A99D9
:103AA00072914B9971914D996F9150996E916D955D
:103AB0006C9045986B90042170916BA80EE04A9829
:103AC00072904B987190042070906F926E916D95EA
:103AD00007206C9045986B906BA802214C9A4E9BE6
:103AE000FDF796F80446409B439EA0B2E949884200
:103AF00000D09CE13446499E307800255D604899AD
:103B00000D6102A1085C40008744C0461222282CA7
:103B100015346B0001EF0000F84300006A43000019
:103B20000000FFFFC54100006B420000544200004E
:103B3000012030806CE00A203071052030702B218C
:103B40003B9803F06CFE499E3198D34901805FE0B9
:103B5000C320307102203070479840E035727560A4
:103B6000032005E021213E9803F0BBFD499E04207F
:103B700030704DE03820205E002849D42E99098805
:103B800000290CD080B2491E814241D14398008E59
:103B9000C14988423CD14398408E884238D16BACB1
:103BA00020462130212103F09CFD42222698214607
:103BB00003F08DFD0620499908705121469803F0C5
:103BC00095FD499EF5654799B34A4A810D74E843CE
:103BD00070660420087631988281857205810560BF
:103BE00016E04898405F002812D4339909880029CC
:103BF00000D102E180B2491E814209D14398008F71
:103C0000A549884204D14398408F884200D1F4E00E
:103C100048984560FEF75EFD55A88680468034468C
:103C20003346FFF7B8FBA11A8BA8FDF7B2FB02469B
:103C30000B4644984C99091830684C90FDF768FA87
:103C400082B294498A4200D0D5E0412C00D21DE1D5
:103C5000449960184D9059A84024214603F0DFFD97
:103C60006BA80194214603F0DAFD3D9A501E4B905B
:103C700013464D984499884200D889E00646441A74
:103C8000412C8748784450904A9156D316930A465F
:103C900040324C9C20460392FDF7FCF905464E91BC
:103CA00031464039204602913246FDF7F3F9019B37
:103CB000002B409E1ED04E9AD218402A00D1D6E04A
:103CC0002A783A2A00D3CAE0CC18509EB25C59AE8A
:103CD000F618761E3270402C00D1C6E002783A2ADF
:103CE00000D3BCE0509CA25C5B1E6BAC1A556D1CF3
:103CF000401CDDE76BAA40234C9D28464A99FDF7FE
:103D000007FA044680B26349884200D08FE059AA7E
:103D100040232846029D2946FDF7FAF9044680B261
:103D20004B9980394B91169B803B5A4988422846D3
:103D30000399419D3D9A9ED079E04C983246FDF71B
:103D4000A9F900234B9E721C11D2994200D18CE03C
:103D5000C25C3A2A00D382E0402E00D389E0509D15
:103D6000AA5C59ADAA555B1C761E419DEBE759A88C
:103D70002146FDF70EFB02460B464C984A99FDF78B
:103D8000C7F9044680B243498842409E3D9A4ED1CD
:103D9000900602D03F208243403270681018706055
:103DA00084E4022110E06BA8848840E06BA841788D
:103DB0000AE06BA844883AE00020FDF743FB0121AC
:103DC00002E06BA82FE04F9955A841702EE0509863
:103DD00001461CE059A826E03A98841C27E06BA80D
:103DE000407855A9487021E002261DE00020FDF72B
:103DF00029FB012618E0044619E0022017990870F3
:103E0000244C14E00020FDF71DFB0FE0042101F01D
:103E1000FEF8FEDE8BA8CDE759A8CBE76BA840786B
:103E20008BA948708BA8467857A846703A9C52993F
:103E30005198549B002200F077F802460B464998AF
:103E4000D03011461A46FEF73BF981B2114A914231
:103E500000D004462046FC1F053CA546F0BD3A2193
:103E60001046D4E740212846D1E70846CFE74E98D0
:103E7000AEE740213046CAE7084878440E2102E008
:103E8000094878442B2100F054FEFEDE05487844B2
:103E90002021F8E701EF0000FFFF0000DC3D0000FB
:103EA000D44500009A3D00008C410000B0B502AF3F
:103EB00004460120C002824203D90548A0800020A8
:103EC00004E01546084602F0B9FC65602060B0BD0C
:103ED00002E00000FEB506AF002816D00446466892
:103EE000B5180120C002854201D9451C0BE02068AD
:103EF0000292019102F0A2FC3146019A029BFEF768
:103F00000DF9002805D06560FEBD054878442B21D9
:103F100002E004487844182100F00BFEFEDEC046A3
:103F200002410000053F0000D0B502AF0446DBB2FD
:103F3000D0B2834205D38B4205D82218191A1046F5
:103F4000D0BD194600E0184601F048F8FEDE426890
:103F5000037B9A4203D9591C01730068C15C9A42E1
:103F600001D80020704701207047D4D4F0B503AFCA
:103F700087B000930290F81D013003880420C01A16
:103F800005900193D80018230393181A0690049102
:103F90000E680024107B5168814216D00598844237
:103FA00013D215461046FFF7D2FFC0071ED0069B5E
:103FB0001846039A1040C9B281400E430498066027
:103FC000083B0693641C2A46E4E70020029B187015
:103FD00001990919C0430429024600D00A469A8073
:103FE000042900D00098588007B0F0BD02487844FA
:103FF0002B2100F09EFDFEDE2040000080B500AFCA
:1040000000F0C6F800F032F80078411E48424841FE
:1040100080BD80B500AFC0B2A52802D0C9B2A52925
:1040200003D1A538411E884180BD00F07DFDFEDE34
:10403000F8B504AF0D46044606497944064E7E4461
:10404000B047204640302946B047044979442046CD
:10405000B047F8BD153E00001F000000043E000000
:1040600080B500AF012202F02BFC80BDF0B503AF9C
:1040700087B004468020255C267830462946FFF725
:10408000C8FF002800D13546E9B2002800D08034AE
:10409000A52903D14034204607B0F0BD002001908F
:1040A00001A92046FEF734FAFEDEF0B503AF87B073
:1040B0001E46137B5568BC689D4203D184804680B0
:1040C000002361E00591210404920290069102D040
:1040D000059880780AE01046FFF739FF0D46012168
:1040E0000840FDF7AFF9059885702846054602F0AF
:1040F000CEF90390042804D90021029841700123CD
:1041000042E001960698002806D00598008806909F
:10411000A6B20498039A0CE03F200540039AD00011
:104120001830182101408D4005980695058001261C
:104130000498911BCC00083C1546027B41689142D3
:1041400016D0AE4214D2FFF702FF0D4601210840FF
:10415000FDF778F9049818222240E9B2039D9140B6
:10416000069A0A43059906920A80083C761CE4E701
:104170000023D943B5420A4600D0324602988280D5
:10418000B54200D001994180037007B0F0BDD4D48E
:1041900080B500AF014802F051FB80BD0094D0C053
:1041A000F0B503AF85B0009316460190F81D0130BD
:1041B00002888818029020200492801A039000241C
:1041C000307B7168814212D0039884420FD230460E
:1041D000FFF7BDFE0D4601210840FDF733F90498B5
:1041E00000191F2814D802980555641CE8E7002020
:1041F000019B187004990919C0432029024600D078
:104200000A469A80202900D00098588005B0F0BD59
:10421000202100F0FCFEFEDEF0B503AF85B0009378
:1042200016460190F81D013002888818029021205E
:104230000492801A03900024307B7168814212D06E
:10424000039884420FD23046FFF781FE0D460121CC
:104250000840FDF7F7F804980019202814D80298B0
:104260000555641CE8E70020019B187004990919A2
:10427000C0432129024600D00A469A80212900D055
:104280000098588005B0F0BD212100F0C0FEFEDE90
:104290000178C32901D10120704744300421425ED6
:1042A00000880121012800D80846002A00DA0846C3
:1042B000704780B500AF812903D240188022511A7F
:1042C00080BD80220846114600F088FEFEDE80B5E3
:1042D00000AF0346303B0A2906D9242915D80A2BFA
:1042E0000AD201201A4605E01A468A4201D300206C
:1042F00000E00120114680BD024620200243613AC1
:104300000A32F2D30020C243EFE700F00DFCFEDEDC
:10431000F0B503AF8FB01646202206AC0323A3549A
:1043200023460A9200240BAA13C208940694356906
:10433000002D049641D020331F20C00671694A0128
:1043400005928143019102930598002858D0306866
:1043500001194A68002A07D001590C98C3680B98C4
:104360009847029B00285BD1284620300390287F85
:10437000187028690A90A8690D90049886682946E3
:104380000831304600F052F8079106903046294631
:1043900000F04CF8099108906869C10070587118D4
:1043A000049E4A6806A99047029B08340599203963
:1043B00005910028039DC7D032E007204007B4686C
:1043C000F168CA0005928143019100250598A84231
:1043D00016D0306841194A68002A06D041590C9815
:1043E000C3680B98984700281AD12646083605CC92
:1043F00006A99047083500283446049EE6D00FE011
:104400007068019981420DD20198C000326811583C
:10441000101842680C98C3680B989847002801D080
:10442000012000E000200FB0F0BDD4D4D0B502AF21
:104430000B68002B0CD002460020012B0AD14968E2
:10444000CB00D1184968064C7C44A14203D0D0BDB2
:10445000081D01E0D0BDD05801680120D0BDC04684
:10446000CD0B0000FEB506AF029301920E46044646
:104470000025AE4209D00298026901982146904772
:104480006D1C0028F5D0681E00E03046B04201D314
:104490000020FEBD0120FEBDF0B503AF8DB00C9233
:1044A0000A460546C6690121304609910840112196
:1044B00009040028069100D02B210B91B9684418FB
:1044C00070070893079102D400200A9006E00C9828
:1044D00011180A92104600F085F80419286800287F
:1044E0002AD06968A14227D930073BD4091B01268D
:1044F0002846324600F01AF90446069884422ED027
:1045000009916969AD690C9800900C91084629469B
:104510000B9A0A9B00F0EEF8002820D1EB680C986B
:104520000899079A9847002819D1204609990C9AAA
:104530002B46FFF797FF11E06C69AD690C9800906E
:10454000204629460B9A0A9B00F0D4F80028099EC1
:1045500005D1EB6820460899079A984706463046E9
:104560000DB0F0BD05912020295C039101262E5449
:1045700028690290302028616A69A9690C98009026
:10458000049210460C910B9A0A9B00F0B3F8002895
:10459000E5D109960598011B0122284600F0C6F8CE
:1045A00006460698864209D00B910C98C368049C75
:1045B00020460899079A9847002801D0099ECEE71F
:1045C00030460B9922460C9BFFF74CFF0028099EB2
:1045D000C5D1284620300399017002982861002631
:1045E000BDE7D4D4F0B503AF8BB0091A10296BD353
:1045F000C21C032301939A43121A914264D3042AE2
:1046000062D88E1AB30805935ED084183146019B98
:104610009943049464181E40811800F094FA0546EA
:10462000A119204600F08FFA4019314E059A002A50
:104630004DD00390C02A134600D3C02307A8049985
:1046400000F0FEFC089A1346019883430A980590EF
:1046500009980490079907A800F0F2FC08988000D8
:10466000079B19180A9802900998069000228B421D
:104670000DD00020102808D01D58AC09ED43ED09DD
:1046800025433540AA18001DF4E71033EFE7100A60
:1046900016490A400840801813494843000C039902
:1046A000401802990029C1D004468A000021002A3E
:1046B0000FD0069B01CB06938309C043C009184362
:1046C00030404118121FF2E7411800F03CFA0BB0DD
:1046D000F0BD080A054A1140104040180249414304
:1046E000080C0019F3E7C04601000100FF00FF00BD
:1046F00001010101F8B504AF1C460E460546112024
:104700000004824207D033692846114698470028A2
:1047100001D00120F8BD002C05D0BA68F368284606
:1047200021469847F8BD0020F8BDD4D4FEB506AFA9
:104730002023C35C9C0002A52C592C190D46A746CA
:10474000260000001C0000001000000018000000FF
:104750004B08491C4D0806E0120602D000250B4606
:1047600001E000230D4601955C1C01690291466938
:104770008569641E09D02A6930460299904700284D
:10478000F7D011200004019901E00199029803B0CB
:10479000F0BDF0B503AF87B015460A4606468068FF
:1047A00033681946014344D000281CD00193F068B7
:1047B00000210091069104920295039251190591EE
:1047C00011210D04441C641E05D004A800F058F803
:1047D000A942F8D104E004A800F052F8A94237D168
:1047E000029D039A019B002B23D051197468104637
:1047F0000392FFF7F7FE844225D9211A00223046A2
:10480000FFF794FF112212040124904218D0019165
:1048100002907069B669F368009003992A46984738
:1048200000280DD102980199009A3346FFF71AFE2D
:1048300005E07069B169CB6811462A46984704467D
:10484000204607B0F0BD7069B169CB680399F4E701
:104850000028029D039A009C07D0A8420ED2115650
:104860003F22D2439142039A00DB1446002C00D031
:104870000546002C019BB6D02246B4E7F5D0F5E7FB
:10488000FFB507AF036842681121090493422DD098
:104890005C1C04601D786AB2002A2ED59C1C046042
:1048A0005E783F22029216401F222A40DF2D1ED939
:1048B0000092DC1C04609A780392029A0196039E8F
:1048C00016400396019A9601039AB618F02D11D35B
:1048D0001C1D0460DD78029A1540B6017519009A16
:1048E0005207D20AAD188D4207D10BE00AE09101C0
:1048F0008D1902E00099090375188268D11A091907
:1049000081602946104604B0F0BDD4D4F0B503AFA1
:1049100093B005930546466980690490C4683046A3
:10492000A047012100284BD10391B8680290E969A2
:1049300048070BD42449794401223046A047002877
:104940002AD105982946029A90472EE001911F49E5
:10495000794402223046A04700281DD109A8012130
:1049600001702022AB5C0AA98B5408900498079030
:1049700006960198119016487844109006A80F905A
:104980005DCD0E960D940C930B920A900598029AA9
:10499000143D9047002801D0039911E01098C36896
:1049A0000F980C497944022298470028039907D1AF
:1049B0006869A969CB68084979440122984701468A
:1049C000084613B0F0BDC046473500002B35000047
:1049D000DC340000CD34000057370000D0B502AF02
:1049E000A2B00C460068C969CA0606D4890614D468
:1049F0000078214600F030F82AE001787F200F226D
:104A00000A400A2A01D3572300E030239A1802AB48
:104A10001A54401E0909F2D10EE001787F200F22BE
:104A20000A400A2A01D3372300E030239A1802AB48
:104A30001A54401E0909F2D1411C02A8FFF739FCA3
:104A4000034600910349794402222046FFF724FDE2
:104A500022B0D0BD0B340000F0B503AF8FB002918F
:104A600027242C4979440391284988421FD9284991
:104A700002F01CFE049088B2642102F017FE064684
:104A80004900039A505C05AB1B1925469C1E2070FB
:104A90005118497861702C46B0B24500515D1B1F1A
:104AA00004981970511949785970241FDCE763285C
:104AB0000DD980B2642102F0F9FD4B00039DE95C41
:104AC000A41E05AAA154A118EA1852784A700A280F
:104AD00004D2641E303005A9085509E0410003984E
:104AE000425CA41E05AB1A551A1941184978517039
:104AF0002721091B009105A90B19074979440022B8
:104B00000298FFF7C9FC0FB0F0BDC0460F270000A8
:104B100010270000F93600005C37000080B500AFB8
:104B20000068FFF799FF80BD80B500AFFCF76BF818
:104B3000FEDE80B500AFFFF7F7FFFEDE80B500AF09
:104B4000FFF7F2FFFEDED0B502AF024600208A4238
:104B500008D00023D3564024E443A34200DD401C88
:104B6000521CF4E7D0BDD4D4F0B503AF95B0049295
:104B700006910A21119101680191416800918068B4
:104B800002900024039425460794002C049A00D038
:104B900092E0AA4202D30698431900E00023541B76
:104BA00057D3072C07D800218C4251D0585C0A28D3
:104BB0003ED0491CF8E7D81C0321884398420A9349
:104BC0000595089401D100250AE0C51AA54200D335
:104BD000089D0A200A992A4600F020FA012825D0CB
:104BE0000898083809900998854215D80A9C615997
:104BF000344802468A43324B5940334E891911409A
:104C000062195268034693432D48424092191A4054
:104C10000A4301D10835E6E70A9841190898421B72
:104C20000A2000F0FBF9012811D14919049A059DC9
:104C30004819451CADD09542ABD80699085C0BA924
:104C4000097E8842A5D100242E460A950CE0049ADC
:104C50001546039800282FD1079890422CD00124A4
:104C600007980A900394164602980078002808D006
:104C70000098C36815497944042201989847002890
:104C800018D1079BF21A0698C1189E4201D1002044
:104C900005E05018401E03780A3B58425841029BD9
:104CA00018700098C3680198984700280A980790E0
:104CB00000D16AE7012000E0002015B0F0BDC04639
:104CC0000A0A0A0A80808080FFFEFEFE772F00001D
:104CD000F0B503AF93B004460079012500282846BB
:104CE00004D065712071204613B0F0BD0491059287
:104CF000B868029062792668F0694107039304D48A
:104D0000002A45D03C49794444E0002A0AD1706920
:104D1000B169CB683C49794403229847002828466A
:104D2000DFD1F06909A9009101220A702022B35C49
:104D300001930AAB01999954009908911190304858
:104D400078441090B06907907069069030690E90B1
:104D5000F0680D90B0680C9070680B9030680A9005
:104D600006A80F900499059AFFF7FEFE00280DD1C2
:104D700006A8244979440222FFF7F6FE002805D14F
:104D80000AA90398029A904700282BD02846A8E742
:104D900018497944002A01D0022200E003227069F8
:104DA000B369DB68984700282846059A049B98D188
:104DB0007069B169C96801911946019B984700283B
:104DC00028468ED17069B169CB680C4979440222BA
:104DD000984703990028284683D108463146029A0D
:104DE00090477EE71098C3680F98084979440222DB
:104DF000984776E7E33000006D3100002331000072
:104E0000143100007B310000583100008530000073
:104E1000D0B502AF044600796179002903D000289B
:104E200004D0012014E0411E8841D0BD2168087FD4
:104E3000400706D448698969CB680649794402224B
:104E400005E048698969CB6803497944012298479C
:104E50002071D0BD3D3000002E300000DCB504AF25
:104E600000220192802903D201AA117001222FE0B1
:104E7000CA0A0AD13F220A40803201AB5A7089091E
:104E8000C0220A431A70022222E00A0C0ED13F22ED
:104E90000A40803201AB9A700A0BE02414431C7064
:104EA0000905890E80315970032211E03F230B4020
:104EB000803301AAD3700B059B0E803393708B0354
:104EC0009B0E80335370C902490FF03111700422D8
:104ED00001A9FFF749FEDCBDD0B502AF88B0019053
:104EE00002AC1822204602F0F2FB01A803497944E3
:104EF0002246FFF70DFA08B0D0BDC046922F000041
:104F000080B500AF0068FFF72FFE80BD80B500AF11
:104F10000068FFF7A3FF80BDB0B502AF86B004689C
:104F20006D461822284602F0D2FB20462946FFF79C
:104F3000D3FF06B0B0BDD4D4DFB506AF0C460190A8
:104F400048698969CB680B4979440D229847014625
:104F500002A800224271017102940749794400912C
:104F600006497944042201ABFFF7B2FEFFF750FF78
:104F700004B0D0BD502F000021000000A32C000081
:104F8000D0B502AF006800780F4B7B440522C046C5
:104F90007844007940008744100206090D000B4B4D
:104FA0007B440C2209E00A4B7B4401E0094B7B4423
:104FB0000B2202E0084B7B44042248698969CC68D3
:104FC0001946A047D0BDC0463D2F00001B2F000052
:104FD000082F0000F72E0000432C000080B500AF22
:104FE00000F001F8FEDE80B500AFFFF79DFDFEDEAC
:104FF000D0B502AF0C46994204D11146224602F0C8
:1050000066FBD0BD2046194600F001F8FEDE80B5F3
:1050100000AFFFF789FDFEDE0068FEE7B0B502AF26
:105020000B46C4B2002001468A4204D05D5CA54212
:1050300003D0491CF8E71146B0BD0120B0BDD4D45F
:10504000D0B502AF9A4205D3D21A9C000C191AC0EF
:105050000260D0BD024878442321FFF76AFDFEDEDE
:10506000762E000080B500AFFFF75EFDFEDED4D4E3
:10507000D0B502AFA2B00C46C969CA0605D48906EC
:1050800013D42146FFF74AFD2AE001687F200F2252
:105090000A400A2A01D3572300E030239A1802ABB2
:1050A0001A54401E0909F2D10EE001687F200F2238
:1050B0000A400A2A01D3372300E030239A1802ABB2
:1050C0001A54401E0909F2D1411C02A8FFF7F1F859
:1050D000034600910349794402222046FFF7DCF998
:1050E00022B0D0BD7B2D0000F0B503AF87B001909A
:1050F000D51F0023072A00D21D46C81C0324009494
:10510000A043461A59487844059003950696934261
:1051100000D38CE0CE5C74B2002C19D4069E701CB7
:1051200002D0F01A800702D05B1CF0E70833AB42D4
:1051300008D2C858CC18646804434B480442F5D0E0
:1051400000E05B1C9342E2D2C8560028F9D5DEE7A6
:105150000598805D0125049504280DD003281AD0F8
:105160000228039D69D15C1C94426ED208574026E8
:10517000F643B04259DD60E0581C0025904202958C
:1051800065D20856F02E14D0F42E17D17024E443C3
:10519000A0421BDD51E0581C002502959042039D62
:1051A00055D2085CE02E21D0ED2E46B223D15F20EF
:1051B00030E07030C0B2302808D33EE00F34E4B2A3
:1051C000022C3AD83F24E443A04236DA981C90429D
:1051D0003DD20C564020C043844231DCDC1C94425A
:1051E000039D34D20E5786421FDD2BE0E024204081
:1051F000A02812D021E020461F30C0B20C2804D2D3
:105200004020C043864208DD17E0E0B2400877281E
:1052100013D13F20C04386420FDA9C1C944216D221
:1052200008574026F643B0420ADC631C6FE701983A
:10523000416001468260002012E00498009002E084
:10524000022000900498029001E000200290009853
:10525000C0B200020299081801994B608860049856
:10526000086007B0F0BDC04680808080EB2D000054
:10527000DCB504AF00680278002A0DD0401C019014
:105280000A48784400900A4C7C44042201AB08464A
:105290002146FFF73BFBDCBD48698969CB680249C1
:1052A000794404229847DCBD7129000057F7FFFFBD
:1052B00069290000F0B503AF85B00E460546001D14
:1052C000029048698969CB681049794409242246CB
:1052D0009847014603A800224271017103960C49C8
:1052E000794400910B4979440B222B46FFF7F0FCDF
:1052F0000949794400910949794402AB2246FFF7F4
:10530000E7FCFFF785FD05B0F0BDC046272D000086
:105310008DFDFFFF142D00007BFFFFFF0D2D000012
:10532000E0B502AFBC68009400F002F8FEDED4D411
:10533000F8B504AF1D4616460C4601210A0203903B
:10534000214600F06DF8BA68002808D1A64203D8BB
:10535000A54201D8AE4214D9FFF7E6FBFEDE0346B4
:10536000A04206D20398C0564021C9438842EDDCD2
:1053700000E0EBD00092002203982146FFF7D0FF17
:10538000FEDE002E11D12E460292039821463246AF
:1053900000F046F80246002810D1A24217D11F485B
:1053A00078442B21FFF7C5FBFEDEA6422DD20398E1
:1053B00080573F21C9438842E5DAE5E7A24226D279
:1053C000039880564021C9438842E6DC20E00398D8
:1053D0008018002141560029BED5C9B2E029BBD3AF
:1053E000F029B9D34278C3783F241C409206920B2F
:1053F00080788006000D101800194907C90A401866
:10540000112109048842A7D1C9E7BCD0BCE7C4D0A8
:1054100002980090039821462346AFE76E2C0000C7
:10542000D0B502AF914213D90346D01E00D200205E
:10543000511C81420ED39A18091A002907D0002363
:10544000D356521E491E3F24E443A342F5DB0918FC
:105450000846D0BDFFF7C2FDFEDED0B502AF044660
:1054600000F0D3FD002801D100F0D7FD00F0CDFD04
:1054700000280DD00421204600F0C0FD207805282A
:10548000F4D1E0784108204600F088FDC0B2D0BDDC
:105490000620D0BD80B500AF0248784400F00DFB77
:1054A00080BDC046B22B0000F0B503AFA5B00446E6
:1054B000807DC0467844007940008744010B1E710E
:1054C0000321204600F04EFD2069002800D11CE198
:1054D0009A490CE003CC0123022200920193083C7C
:1054E00000F012FD2069002800D10EE192491791C9
:1054F000169016A800F0A4FC07E101201A220890DB
:1055000000F0C8FA0646257D012D4ED904960FA855
:1055100005941126314602F082F914A900248C70FA
:105520000C80284600F09CFD0E900D9115A98C7002
:105530000C80059D687D00F093FD089B2193804AB7
:105540007A4420920D9A1F920E9A1E921D937D4AC4
:105550007A441AAB07C30220039019907A48784422
:10556000189003CD179116902046302C28D0321A6F
:1055700016A909194968914200D3114600291FD084
:105580000D1800D3C8E0112D00D9C7E016AA125992
:105590000FAB18180B46FFF72BFD08342846E4E73D
:1055A0000221204600F0DEFCAFE003CC0222009294
:1055B000089A019203223346083C00F0A5FC99E0CA
:1055C00016A80FA911252A46FFF78EFD1698002868
:1055D00000D0A8E01899179C2804099000230A938A
:1055E0000D948B4235D01D46E31800229856C6B262
:1055F000002801D4581C27E00C925C783F200E90C4
:1056000004401F203040DF2E15D90B909A780E9859
:105610000240A401A418F02E11D3DE780E980640A3
:10562000A401A4190B984007C00A261809988642BD
:105630006DD0181D07E080010619981C03E00B9837
:1056400000032618D81C0D9C031B002E1846C8D03A
:1056500002E00A9805460B4602900C958B423BD01F
:105660000E466018411E0D786AB2002A30D5811EA0
:105670000C780A9464B23F250E95ED430B94AC422E
:1056800012DAC11E0A950C78069465B20A9C079539
:10569000A5420DDA079D0E9C2540011F08784007A2
:1056A000C00D4519204607E01F200A9C044007E072
:1056B0000F20069D05400E980B9C0440A80104197C
:1056C0000E980240A0018518099885420D9C03D0D0
:1056D000091B002DC2D000E0029E0398009008989C
:1056E00001900C996018711A0322049E334600F051
:1056F0000BFC059CA068E168002202230093019244
:105700000E360322334600F0FFFB25B0F0BD2B46DA
:105710000C9D28460D9C9FE7294601E01121284653
:10572000FFF75CFCFEDE0948784422A9084A7A4467
:10573000FFF798FCFEDEC0463800020010000800AB
:10574000CF2B0000BE2B0000AE2B00006A2B000008
:105750000E290000F0B503AF8BB00B46044600687D
:105760006168294A7A440092112204935A431346ED
:1057700011338B4200D30B4600F050F80390029196
:105780000594A668358BB068F1682A4600F06EF97A
:105790000190748B03CE2246083E00F07BF906A9E7
:1057A000CC818D8148810198088101200002088206
:1057B0001448079000200690084600F07EF90398F0
:1057C0003061029870611148784400F081FB104804
:1057D000784400F07DFB049C002C03D00E487844F4
:1057E00000F02EFB601C0599C9680968884203D245
:1057F0000848784400F024FB304600F093F90BB0E1
:10580000F0BDC046FFFFFF00AC2900003C290000AE
:105810002C2900000A29000026290000BCB504AF8D
:10582000934214D3002A09D08A4205D284563F25D8
:10583000ED43AC4202DA0AE0914208D1002B0DD0D0
:105840008B4209D2C4564025ED43AC4206DCBC680D
:105850000094FFF765FDFEDE9942F8D18018991A91
:10586000BCBDD4D4F0B503AFA1B00446412085003F
:1058700000F0CBFB002801D100F0CFFB6619684691
:10588000802101F0CCFF00F0C0FB00282AD06D463B
:105890008021284600F0B2FB6878A97809020D182B
:1058A000009800F03DFAC0B20F2811D016280AD097
:1058B0001028E8D128BA000C0228E4D9694620460D
:1058C00000F06EFADFE76946204600F09DFADAE75D
:1058D00001200002A9B28142D5D16846C07800F00B
:1058E0002DFAD0E7144D2878072816D00A281AD1A7
:1058F000B18820A85322027009BA0A0E8270090CDE
:105900004170032101F004F871680020224600F084
:1059100017F889B200F0FCFF05E0B1880748784429
:10592000224600F06BFF002030607060A871287084
:10593000688021B0F0BDC04600020020AF0C00001E
:1059400080B500AF814209D341239B00994203D81F
:105950001218091A104680BD08461946FFF73EFB8B
:10596000FEDED4D480B500AF412292008B58042BC8
:1059700005D100210E4A7A440260416080BD0A7957
:10598000002A03D0052300F033F880BD052BF0D0AA
:10599000062B04D1002101600449818080BD4A7931
:1059A0008B791B029A180723EDE7C046036E0000AF
:1059B000E2280000B0B502AF2122D40003599D08AF
:1059C00041229200402D0DD804190D0AC5542368B8
:1059D0005B1C934206D2C1542168891C2160FFF7E9
:1059E00041FFB0BD18461146FFF711FBFEDED4D4CF
:1059F000B0B502AF0446002A06D00D4699184120E2
:105A000080002858814204D9002020600448A080EA
:105A1000B0BD18462A46FFF793FF03C4B0BDC04689
:105A2000036E0000F8B504AF2123DB00C518412345
:105A30009B00002A0AD02C689C4208D20E7806559A
:105A40002C68641C2C60521E491CF2E7F8BD2046ED
:105A50001946FFF7DCFAFEDE06C80838914204D08A
:105A600000230B70491C0160F8E77047D0B502AF06
:105A7000034602207B441B795B009F440901040814
:105A80007E20801AD0BD8020801A4008D0BD0846F4
:105A9000D0BDD4D4D0B502AF034603207B441B79DC
:105AA0005B009F44090105082020801A4008D0BDF2
:105AB0001D20801AD0BD0846D0BDB0B502AF88B059
:105AC000044600F0A2FA002808D0002003900290BB
:105AD000019000906846102100F090FA6D46002277
