:02000004C0DE5C
:1000000080B56F4606F0DAFD012005F01FFFFEDE29
:1000100080B56F46814207D399429FBF0244091AB7
:10002000104680BD0846194605F031F8FEDED4D4EE
:1000300080B56F468EB006F0E4FC082207480791B1
:1000400078440B90022005920990054A0290684678
:1000500000917A4406F088FC0EB080BD808D0000CF
:10006000268D000080B56F4688B0012004218DF8F0
:100070001C000691054901907944059102210391E4
:1000800001A8012105F078FE08B080BD708D000048
:1000900080B56F468EB006F0B4FC07220748079182
:1000A00078440B90022005920990054A0290684618
:1000B00000917A4406F058FC0EB080BD338D0000EC
:1000C0001A8D000080B56F468EB002F026FF002129
:1000D00001228DF8341002210D2309910792059316
:1000E0000C4B029108217B440493009200288DF868
:1000F000182018BF07210C91074808497844794413
:1001000018BF01460B916846022105F035FE0EB07E
:1001100080BD00BF8A8E0000C98C0000B28C000038
:10012000704770470A464FF4007100F00CB88A42DD
:1001300022BF0844511A704780B56F4608461146E1
:1001400004F0A5FFFEDED0B502AF04460B46114613
:1001500000202246BDE8D040FFF75ABF00B17047EB
:1001600080B56F4602482B21784404F077FFFEDE0D
:1001700067900000F8B504AF009202A803AA0349F3
:1001800079440B4604F07EFFFEDE00BF8C8A00003F
:10019000F8B504AF009102A803AA034979440B46BD
:1001A00004F070FFFEDE00BF808A0000F0B503AFF0
:1001B0004DF804BD0D460446D2E90101884201D143
:1001C000B86809E0104602F06DFD06F0FAFB4FF644
:1001D000FF734FF6FF702E70A080002063802070A8
:1001E00006F0BBBB027801460120C32A0AD0B1F851
:1001F0004420012A98BF0246B1F94810B1F1FF3FEF
:10020000C8BF10467047D4D4B0B502AF0D460168E0
:10021000144681B1A54224D2B4F5006F21D880687C
:1002200002F030FE0246284621464FF40063BDE846
:10023000B040FFF7EDBEA5420DD2B4F5007F9FBFE1
:1002400000F10C02284621464FF400739CBFBDE824
:10025000B040FFF7DDBE05483A21784404F0FEFEC9
:10026000FEDE03483C217844F8E700BFD289000055
:10027000008A0000F0B503AF4DF8048DD7F8088070
:1002800006460C3014460D4619464246FFF74FFF0E
:100290002A46234605F018F80020C6E900085DF854
:1002A000048BF0BDF0B503AF4DF804BD0646806881
:1002B00015460A461C4619462B4602F0F1FD06F08B
:1002C000FCFA02BF01216219C6E900125DF804BB05
:1002D000F0BDF0B503AF2DE9000D054684680C3084
:1002E000984692460E46FFF71DFF02460B462046F3
:1002F000002102F0D5FD81B24EF60174A1420FD16A
:10030000A86831465246434602F0CAFD81B2A14276
:1003100001BF012008EB0601C5E900014EF601709E
:1003200006F0ADBAF0B503AF4DF8048D82B00446C7
:10033000D1E900061D4658B1084611462A46334603
:10034000FFF7B0FF06F0B9FA1CD17019606017E032
:1003500006EB0508B8F5007F08D8084611462A467E
:100360003346CDF80080FFF785FF07E008463146A9
:100370002B46FFF7AEFF06F0A0FA03D1C4F80480C5
:10038000002001E060800120208002B05DF8048B35
:10039000F0BDDCB504AF0C46016839B111461A4610
:1003A000234602B0BDE8D040FFF77CBF1919B1F574
:1003B000007F08D8009111461A462346FFF75AFFDE
:1003C0004EF60170DCBD214602B0BDE8D040FFF71B
:1003D00080BFD4D4BCB504AF15461C465A18036878
:1003E000A3B1B2F5006F1ED880682A46234602F0FA
:1003F00057FD06F054FA08BFBCBD1048A7F10A012A
:100400000F4A78447A4404F02EFEFEDEB2F5007FF7
:100410000DD80C30FFF78BFE2A46234602B0BDE80C
:10042000B04004F051BF08482C21784402E0054850
:100430002A21784404F012FEFEDE00BF9E9D0000DB
:10044000F887000070880000A2880000D0B502AFD5
:10045000044606F0AFFE0648784405F0B6FC0548B1
:10046000784405F0B2FCA047BDE8D04006F0AABE33
:10047000F4890000088A000001487844FFF7E6BFCD
:1004800047FCFFFFC0B2032811D8DFE800F00208E4
:10049000060C09487844FFF7D9BFFFF7EDBF0748BE
:1004A0007844FFF7D3BF06487844FFF7CFBF80B545
:1004B0006F4604F0CEFDFEDE99FBFFFFEDFBFFFF74
:1004C000B9FBFFFFD0B502AF0088A0F56042052A56
:1004D0000CD9A0F5DC42042A11D8DFE802F003179A
:1004E0001B1F2300214C06227C4435E0DFE802F08C
:1004F000031D2125292D224C10227C442CE0B0F52F
:10050000104F26D1184C02227C4425E0184C0622BC
:100510007C4421E0174C07227C441DE0164C062247
:100520007C4419E0154C7C4415E0164C0F227C44A9
:1005300012E0154C08227C440EE0144C14227C443A
:100540000AE0134C14227C4406E0124C17227C442F
:1005500002E0114C7C440D22D1E90501CB68214613
:10056000BDE8D040184700BF6B8900008D890000AE
:100570006B890000698900006889000068890000B3
:10058000B18900008D890000CA8700008C890000B5
:1005900098890000A4890000B58900000278012133
:1005A0002B2A16D02D2A4FF0010217D0D0B502AF5A
:1005B000002300215A1E18BF0122012B0CD0C45C5D
:1005C000303C092C07D801EB8101013304EB4101D8
:1005D000F0E7012202E00121BDE8D040104670475B
:1005E00008B908467047E0B502AF0448791E044ACE
:1005F00078447A4404F037FDFEDE00BFB09B000073
:1006000016880000F0B503AF2DE9000DB0B013AEB1
:100610008046304602F058FA9DF84C401DAD05F179
:10062000080041214FF0410A07F0C0FC204629464E
:1006300032460123CDF878A08DF8744006F038FDDD
:1006400018B102F06BFA05460CE0291DBDF8766082
:100650009DF8744048229DF8755001A807F088FC69
:10066000202C09D145F06E00C0B2A8F8020013A8F2
:1006700002F099FB20240CE008F1040001A94822B3
:1006800007F076FC13A802F08EFBA8F8026088F849
:10069000015088F8004030B0BDE8000DF0BDD4D462
:1006A000F0B503AF4DF804BD92B0A7F155060D4665
:1006B0000446701C013106F05DF995F840000121F7
:1006C00061F35F0007F8550C09AD3146284602F08A
:1006D00075FB9DF8240038B9691C204606F04AF9DC
:1006E00012B05DF804BBF0BD0448A7F11201044A42
:1006F00078447A4404F0B7FCFEDE00BFB09A0000F4
:10070000268700000A464821FFF71DBD914222BFFF
:100710001044891A704780B56F4606F061F9FEDE15
:100720007047D4D4F0B503AF2DE9FC0D8246D1E972
:100730000560C4680D4631490D2230467944A04712
:1007400000284FF001084FF00100009544D1287FA8
:1007500040071BD42A49304603227944A047D0BB26
:10076000D5E905010422CB6826497944984790BB16
:10077000D5E905010222CB6823497944984750BB4B
:10078000D5E90512504600F0E3FB25E01F4930464D
:1007900003227944A04701460120E9B9D5E90512B1
:1007A00002ACA7F1190307F8190C0EC402A8042221
:1007B0001749794404F072FE68B902A8154902226B
:1007C000794404F06BFE30B902A9134A50467A44CA
:1007D00000F0BEFB58B101208DF8040068468DF88A
:1007E000058004F03DFF06B0BDE8000DF0BD02A895
:1007F0000A490222794404F051FEEDE7EC8600003C
:10080000A18B000082860000868B0000708B0000A8
:100810003A860000408B0000C6890000118B000062
:10082000F0B503AF2DE9000DD6B00446C068E84D21
:100830007D4478B1012811D10120216A8DF85C0036
:100840000020CDE91450A0681691D0E90001CDE94F
:1008500012010FE004208DF85C000BE00020216AFB
:100860008DF85C00A068169190E80E00C0681590A5
:1008700012A80EC012A800F027FA4FF0000A2A466C
:10088000CDE91A5A04F1100CD4E909564FF00108C9
:10089000E3691C952296D4E9006505F1010B9CE8FB
:1008A0000310CDE91801681E8DF874808DF88C80D6
:1008B0001092CDE9202ACDE91EC338BF50460690DC
:1008C000BBF1010038BF50460E9004201190C14882
:1008D00078440890C048784407900020584518D1C3
:1008E000044606F034F8BD48784405F06EFA1EA8B8
:1008F00004F01CFF06F066FC26A804F0DFFEC0B280
:100900000628F9D0052800F0C9810328F4D10E98F3
:10091000E4E7CDE90256A842109E019023D106F0EB
:1009200016F8089805F051FA079805F04EFA18A83D
:1009300004F0FCFE06F046FCDDE9025626A804F0B1
:10094000BDFEC0B20628F9D0052800F0A681042813
:1009500000F094810328F1D1002D00F09A8103204A
:1009600011900698BAE780F0A0810399CDF890A085
:1009700001EB00148DF894A09DF85C30224652F8EB
:100980000C1F0D923322B1FBF2F2119903294FF0A3
:10099000000108BF11460B9408340A940C4683F0FA
:1009A0000401084318BF01200990501C04920590CF
:1009B000CDF830B006F0FEFB0020022270280AD0ED
:1009C00026A941F8008001441C3081F818A0C1E933
:1009D000046A8A60F2E70D9904EB44000F94002545
:1009E000D1F800B00A990C68542D119549D008B37C
:1009F0001121A0FB0101002943D1584541D200F14A
:100A0000110122468B455B460E4638BF5E46814249
:100A100038BF5E463146FFF7FBFA05468A46324646
:100A200020465946109EFFF771FE55B380468B460F
:100A30002C460CE0BBF1000F23D04FF0110ABBF1A4
:100A4000110F38BFDA46ABEB0A0B04EB0A084AA8D1
:100A50002146524604F05CFC26A8119D0222411951
:100A600000204A62012281F83400CA614AAC1CCCE1
:100A7000002A1CBF04463346C1E90B341C354446EA
:100A8000B2E742A81521202207F0F7FB0F9981B9A0
:100A90000D98006833280CD20B9C0020616842AA94
:100AA00000F032F9D4E9002304F00EFC0DF594783F
:100AB00054E04FF0000B481C8DF822B1ADF820B186
:100AC0008DF826B1ADF824B148A905F01FFA044607
:100AD00005980D4649A905F019FA01230DF59478FA
:100AE0005593744ACDE951307A44CDE95312724896
:100AF000CDE94E457844509002204D906F4878449F
:100B00004C900B98D0E90001CDE94A010020BBF1DF
:100B1000060F22D008EBCB01C0F115064D68B54297
:100B200038BF2E46CEB1341842AA214600F0ECF868
:100B300080464AA88A46294650F83B003246FFF7CD
:100B400002FB02460B46404651460DF5947804F0F0
:100B5000BBFB0BF1010B2046D9E7109E42A9404692
:100B6000152204F0D5FBDDE94A104FF0000A4C9A3B
:100B70004FF0010800291CBF52463046DDF830B066
:100B800024AC002A3FD084181146224612F8015D99
:100B90006BB2B3F1FF3F31DC224612F8026D75B241
:100BA00015F1400F11DA224612F803CD4FFA8CF6F8
:100BB00016F1400F14DA06F03F0214F8046D06F047
:100BC000070642EA861622460CE006F01F040DE0F6
:100BD000709900007C85000092850000648500000B
:100BE0000CF00F0605F03F0444EA861403F03F03BF
:100BF000109E43EA8415B5F5881F06D0121A24AC5E
:100C0000202DBED003E0002101E0002124ACCDE97D
:100C10002A010220289009988DF8B080CDF898809C
:100C200018B12748784405F0D0F82648784405F0F4
:100C3000CCF826A8042105F09FF806F0C3FA204658
:100C400004F03CFDC0B20628F9D0042805D00328E2
:100C5000F5D10F9C54B1013CACE604990F9C8C4239
:100C600009D0601C884298BF0446A3E6019838B1B9
:100C70000138032109E00198013005E058462DE6CE
:100C800012A800F021F8002004211191DDE902569C
:100C900024E612A800F018F81FE6019CB4EB0B0044
:100CA00018BF012056B005F0EABD029904F0AAFA77
:100CB000FEDE00BF128800007E8300007283000009
:100CC000288200003C820000DCB504AF0446007DB1
:100CD000042815D006F06EFA0A48784405F075F835
:100CE000204604F023FD06F06DFA00206C460090CB
:100CF0008DF80400204604F0E1FCC0B20428F9D1CC
:100D0000DCBD00BF8E81000080B56F46814207D3F5
:100D100015299FBF0244091A104680BD08461521B7
:100D200004F0B5F9FEDEF0B503AF2DE9000DB6B065
:100D3000824618A8904601F0C7FE1998212801D2D2
:100D4000032607E0312801D2042603E009264128C2
:100D500038BF052622AD4821482405F0EFFD0020CC
:100D60003494359035A8202234A9CDE900253246A7
:100D7000CDE9021018A840F20161434606F093F94C
:100D800028B14EF20100AAF80200012014E0A7F1F8
:100D9000DA0022A9851C4822284607F0DFF80AF16C
:100DA000040029464822DDE9344607F0D7F806F06A
:100DB0000100CAE913400020AAF8000018A801F0B9
:100DC000F2FF36B0BDE8000DF0BDD0B502AF86B081
:100DD00004462020CDE9031001200290A7F109006C
:100DE0000190002007F8090C01A8114605F0D0F980
:100DF00008B1616002E04EF20201A180206006B0FD
:100E0000D0BD0A462E21FFF79EB9B0B502AF0D4600
:100E100002C81446FFF7F5FF2A462346BDE8B04056
:100E200004F02EBB80B56F4604F027F9FEDED0B586
:100E300002AF86B004462020CDE9032001200290B5
:100E4000A7F1090007F8091C1946019001A805F04F
:100E50009FF908B1616002E04EF20201A1802060BA
:100E600006B0D0BD0A46402100F000B88A429CBFBF
:100E70001146704780B56F4605F0B2FDFEDED4D452
:100E800000B1704780B56F4602482B21784404F0CA
:100E9000E5F8FEDE43830000D0B502AF0446084605
:100EA00011461A46FFF7B0F905F024FDBDE8D04021
:100EB00000F03CB880B56F4690B0CDE9032307221F
:100EC0000292144A7A440192134A7A440D92022201
:100ED000089201AA05AB07C3104878440E90082079
:100EE0000A900F48784409900E4878440F900620E5
:100EF0000C900D4878440B9005A8FFF791FC46F63E
:100F0000046100281CBF4EF60171CFF6FF71084640
:100F100010B080BD618100007E810000A2810000D0
:100F20007C7E0000C68100009C810000DFB506AF1A
:100F3000044601A804F0ECF9019820B14FF46F4089
:100F4000A080002002E0DDE9020161602060DFBDD9
:100F5000F0B503AF4DF804BD00780E460F490524E7
:100F60007944DFE800F01203070B0F000C490C2452
:100F700079440AE00B490B24794406E00A490B2422
:100F8000794402E0094904247944D3683046224672
:100F90005DF804BBBDE8F040184700BF9880000032
:100FA0008D8000009180000094800000547E00003D
:100FB000F0B503AF2DE9F00D03910646D2E901012A
:100FC000BD68884202D1B58073805FE093465FEAD6
:100FD0000548029302D00398047906E0584601F0D0
:100FE00061FE05F0F3FC03980471204600F052F80E
:100FF000052803D900207070012048E0824614F0D3
:10100000C000019603D0402818BF802812D1B8F143
:10101000000F13D1A00664F03F0058BF04F03F005A
:10102000182101EBCA01012501F01801884003993C
:10103000086003E0ADB2012D98BF0125ACB2E043DA
:101040005044C6000398D0F80080DBE901018842D3
:1010500011D054450FD2584605F0FCFB06F018009D
:10106000E9B2083E013401FA00F048EA00080398AA
:10107000C0F80080E9E7544508BF4FF0FF34019EF7
:101080000298B48008BF4FF0FF30708000203070AD
:1010900005F01FBC00F0C001802904BF0420704788
:1010A000402904BF0220704709B90120704700F0B1
:1010B0003F0005307047F0B503AF2DE9F00D0C4649
:1010C0000546D2E90101D7F80880884203D1A5F886
:1010D00004806B8054E016465FEA084001A919C1FC
:1010E00002D094F802A006E0304601F0DBFD05F0E6
:1010F00072FC84F802A05046FFF7CCFF042803D905
:101100000020687001203CE083460198009528B1DA
:1011100003981FFA88F4B0F800A00CE018200AF039
:101120003F0100EBCB00012400F0180001FA00FAA7
:101130000398A0F800A0E04358444FEAC00805F027
:10114000F9FB12D05C4510D2304605F083FB08F065
:101150001800E9B2A8F10808013401FA00F04AEADF
:10116000000A0398A0F800A0E9E75C4508BF4FF02B
:10117000FF34009D0298AC8008BF4FF0FF306880BC
:101180000020287005F0A5BBF0B503AF2DE9F00DE8
:1011900016460D46D2E90112BC6891423AD02104AC
:1011A000CDE9013003D095F800A0A4B207E03046A5
:1011B00001F078FD05F00FFC85F800A001245046F1
:1011C00005EB0408FFF766FFA4EB000B4FF0000AE5
:1011D0000390001B009005F0ADFB10D01BEB0A0044
:1011E0000BD0304605F036FB04EB0A00212817D25D
:1011F00008F80A500AF1010AEDE7DDF800A00398AB
:101200005444844211BFDDE901304FF6FF734FF6BD
:10121000FF740298002184804380017005F059BB5F
:10122000212103F0EFFFFEDEF0B503AF2DE9F00D55
:1012300083468C68B868984616460D46B4F1FF3F61
:101240001EDDD5F800A054450CD205F073FB09D083
:10125000304601F027FD00F00100FEF77FFF01346A
:10126000AC60F0E7544507BF4FF0FF30CBF8020009
:10127000B868ABF8040018BFABF80280002022E089
:101280000090A7F11E00294632464346FFF790FE24
:1012900017F81E0C28B117F81D0C8BF8010001205F
:1012A00011E037F81A0C4FF6FF7337F81C1C01EAEF
:1012B00000029A4202D10024AC60C2E7ABF80400FD
:1012C0000020ABF802108BF8000005F002BBD4D46C
:1012D000F0B503AF2DE9000D8CB00D468346D2E981
:1012E00001019846D7F808A0884207D10020ABF842
:1012F00004A0ABF802808BF80000E1E02C781646E1
:10130000042C21D1304601F0CDFC05F05FFBE0B2AA
:10131000811E022905D320B1012806D040F2011018
:10132000BCE007A8132106F041FE002014226873D8
:10133000C5F80900C5F80500C5F8010005F10E0063
:1013400007A906F00BFE2C70E0B2DFE800F00310F6
:101350000303A500C7F808A0691C58463246434657
:101360000CB0BDE8000DBDE8F04000F0AFB8CDE92D
:1013700001A8A81DD6E901A8CDF80CB00490A81CBE
:10138000CDE90505C24500F08C806C89022C00F285
:101390008F8014D0012C26D0002C40F08980A889A1
:1013A000059970B9F06801224749794401F088FC39
:1013B000C1B2042940F080800020059901E0A8898D
:1013C0000499009007A832462346FFF774FE9DF863
:1013D0001C0000286ED14246D6E901A4BDF820B019
:1013E000BDF81E8020E0B5F80CB044466888450181
:1013F0000AE0304601F056FC00F00100FEF7AEFEB8
:101400000BF1010BD6E901A41FFA8BF0A24518BF1E
:101410008542EED842464FF0010885424FF6FF70F4
:1014200008BF834608BF804630685146234601F016
:101430005FFC0246F06805F0D6FAC1B204293BD140
:1014400008EA0B014FF6FF70081A4FF6FF7318BF3A
:101450005846069D99426A8908BF02F101081FFAA1
:1014600088F2032A08BF1846A88108BF9846994207
:10147000A5F80A8015D11FFA88F19942A0467FF499
:1014800081AF80B2A04698427FF47CAF03994FF6BB
:10149000FF704FF6FF7207E040F20120ABF800004A
:1014A0000EE00399DDE90120488000208A8006E0F3
:1014B000022001E09DF81D0003994870012008708A
:1014C0000CB0BDE8000DF0BD757C0000F0B503AFB9
:1014D0002DE9F00D05F014FACBF1200003930190F3
:1014E00005F028FA10D00BEB0804B4F1200009D065
:1014F000304605F0AFF9202C17D20AF8085008F151
:101500000108EDE7DDF8048002990020087008EB7F
:101510000B00202808BF4FF0FF308880039808BFD9
:101520004FF0FF30488005F0D4B92046202103F069
:1015300069FEFEDEF0B503AF2DE9000DA4B08B46C9
:10154000044631F8440F984601231A92012898BFA7
:101550001846B1F90420B2F1FF3FD8BF18461FFA70
:1015600088F3984240F20884D7F808A0B2F1FF3F10
:1015700040F30484BBF842004FF6FF75BBF84030DF
:101580001294AB4208BFA8421DD10020C221002303
:10159000CBF824008BF80010511C8BF83A00ABF804
:1015A00038008BF83600ABF834008BF83200ABF81B
:1015B0003000ABF83C00CBF82700ABF82C50CBF850
:1015C0004000ABF848100BF1140103910BF11A0124
:1015D00016910BF1100115910BF1090114910BF10A
:1015E000040117910BF1020105910BF10101139117
:1015F0000BF13C0111910BF13D0110910BF1300108
:101600000F910BF134010E910BF138010D910BF19B
:10161000280104911A99D1E90112914200F0BB838B
:10162000BBF8282001210624012A98BF0A46BBF9ED
:101630002C10B1F1FF3FC8BF541DA4B29AB2A24210
:1016400080F0AF83042A09D8DFE802F003222A2FB2
:10165000340000901BA8119900231DE0B1F1FF3F59
:10166000189364DDBBF82460CDF80880AE4277D1D2
:10167000199CBBF82600A84201BFC2208BF80000CD
:101680000026CBF8246004BF481CABF82C0068E0AF
:1016900000901BA8109901231A9AFEF787FD10E00D
:1016A00000901BA80F99022308E000901BA80E9938
:1016B000032303E000901BA80D9904231A9AFFF757
:1016C000FAFC9DF86C00002840F09183BDF8701082
:1016D000BDF86E3003EA01020124501B18BF084612
:1016E000BBF84010AA4208BF4B1CBBF8286099B257
:1016F000012E98BF2646BBF92C40B4F1FF3F4FF0B6
:101700000604C8BF741DA4B2A14208BF2846ABF8A6
:10171000420008BF2B46AA42ABF8403040F03B8362
:1017200003EA0001A9427FF475AF00F051BB0090BD
:101730001EA804991A9AFFF7BEFC9DF878000028AD
:1017400040F05183BDF87C20BDF87A0000EA020128
:10175000A94200F0EC82ADF87020ADF86E00B5E75C
:10176000199C1A98D0E90101884200F0DA825846A3
:1017700004F0D7FCB1B280B281424FF6FF7880F01E
:1017800010839BF80060C22E40F040811A9801F04F
:1017900089FA05F016F9F0B2D42800F23481002558
:1017A000DFE810F0D600D600D500D500D500D50072
:1017B000D500D500D500D500D500D500D500D50081
:1017C000D500D500D500D50007010C012A01200164
:1017D000D600D600D500D500D500D500D500D5005F
:1017E000D500D500D500D500D500D500D500D50051
:1017F000D500D500D500D500D500D500D500D50041
:10180000D500D500D500D500D500D500D500D50030
:10181000D500D500D500D500D500D500D500D50020
:10182000D500D500D500D500D500D500D500D50010
:10183000D500D500D500D500030103010301D50073
:10184000D500D500D500D500D500D500D500D500F0
:10185000D500D500D500D500D500D500D500D500E0
:10186000D500D500D500D500D500D500D500D500D0
:10187000D500D500D500D500D500D500D500D500C0
:10188000D500D500D500D500D500D500D500D500B0
:10189000D500D500D500D500D500D500D500D500A0
:1018A0002301D500D500D500D500D500D500D50041
:1018B000D500D500D500D500D500D500D500310123
:1018C0003101310131013101310131013101310188
:1018D0003101310131013101310131013101310178
:1018E00031013101500252025402560258025A028A
:1018F0005C025E02600262026402660268026A02C0
:101900006C026E02700272027402760278027A022F
:101910007C027E02800282028402860288028A029F
:101920008C028E02900292029402960298029A020F
:101930009C029E02A002A202A402A602A802AA027F
:10194000AC02AE02B002B202B402B802BB0225463B
:101950000B988BF808000C98CBF8040006981499A3
:101960008BF8030009988BF80200BDF88C00088002
:101970009DF88E00159A88700A98CBF80C00219873
:1019800010600898DDF88710ABF818000798C2F8C7
:1019900003100A228BF801508BF800608BF81700B7
:1019A0001EA9169806F0DAFA31E00020CDE90B0006
:1019B000CDE7002100201226219103E00021002024
:1019C00021911326CDE91E118DF88E10ADF88C10E3
:1019D0000790CDF88710CDE90A000C900690CDE96C
:1019E0000800B5E704200990B1E70020CDF8870092
:1019F00021904FF6FF70089000200B904FF0FF30C1
:101A00000A9000208BE1C2268BF800602546F0B2D8
:101A1000A0F11201052912D9A0F1BB0106291BD999
:101A2000002832D0012830D04A2803D04B2818BFD4
:101A30004C2820D104F019FFFFF7BAFA30E0DFE8B4
:101A400001F003036E73242404F0A9FF139904F03A
:101A500021FFFFF799FB23E04FF6FF764FF6FF706B
:101A6000DFE801F0132727275204040004F0FDFEED
:101A700001F05EF914E07E285ED08D2805D08E2816
:101A80004FF6FF704FF6FF7613D1BBF8260000909B
:101A9000A7F13600BBF8243013991A9AFEF786FB9B
:101AA00017F8360C002840F0A98137F8320C37F8C7
:101AB000346C06EA000819955D464FF6FF7BB8EBDB
:101AC0000B0418BF0446A88CD84508BF461C2846FE
:101AD0001FFA86FA04F025FB80B22946824508BF2A
:101AE0005C46EC8408BF5E46AE84D84540F02D814C
:101AF00006EA0400D7F808A058451998189B8B46A9
:101B000004467FF42EAE2CE1BBF82430BBF826004F
:101B1000002B67D005990090A7F13600BDE704F0CF
:101B2000A4FEFFF781FBBBE704F039FF059904F041
:101B3000B1FEFFF7CDFBB3E7BBF91820B2F1FF3FD1
:101B400055DDBBF81200BBF81010414508BF4045F9
:101B50000CD100204FF0FF31CBE90310511CABF842
:101B6000181000218BF80800CBF804001A9AD2E96B
:101B700001239A4255D0090440F0138100901EA819
:101B8000179900231A9AFFF74FFB9DF87800002859
:101B900040F02681BDF87C20BDF87A1001EA0200F1
:101BA00083B2B3EB080018BF1046BBF810204345C2
:101BB00008BF511C8AB2012A08BF4046ABF8120088
:101BC00008BF4146ABF8101043452AD101EA000294
:101BD00092B24245CAD127F8348C4FF6FF704FF6C7
:101BE000FF7666E71399002304F054FE56E704F0ED
:101BF000D6FE00901EA803991A9AFFF75CFA9DF88A
:101C00007800002840F0F680BDF87C10BDF87A001E
:101C100000EA0102424509D027F8321C27F8340CAB
:101C200043E7BBF82600BBF8246042E7BBF814008A
:101C300000224FF6FF71ABF8182004F0DEFE7FF4AF
:101C400080AFE9E78D2683E68E2681E68F267EE645
:101C500090267CE691267AE6922678E6932676E62A
:101C6000942674E6952672E6962670E697266EE62A
:101C700098266CE699266AE69A2668E69B2666E62A
:101C80009C2664E69D2662E69E2660E69F265EE62A
:101C9000A0265CE6A1265AE6A22658E6A32656E62A
:101CA000A42654E6A52652E6A62650E6A7264EE62A
:101CB000A8264CE6A9264AE6AA2648E6AB2646E62A
:101CC000AC2644E6AD2642E6AE2640E6AF263EE62A
:101CD000B0263CE6B1263AE6B22638E6B32636E62A
:101CE000B42634E6B52632E6B62630E6B7262EE62A
:101CF000B8262CE6B9262AE6BA2628E6BB2627E629
:101D0000BC2624E6BD2622E6BE2620E60020BF260D
:101D100009901DE60020C02601E00020C1260C909D
:101D200015E6DDF808804FF6FF75199415E0BBF84D
:101D300028000021189B4FF6FF7204F05EFEABF8FE
:101D40002C107FF48FACFFF706BDDDF808808B46C2
:101D5000D7F808A04FF6FF75189BBBF84210FFF7A5
:101D6000B9BC4FF6FF714FF6FF7319904FF6FF7530
:101D7000DDF80880FFF7AEBC022042E0CDF800A0FD
:101D80001EA81A9A4346FFF796F99DF8780050B1BD
:101D90009DF8790035E0129CA4F804A0A4F8028014
:101DA0001CE002202CE0BDF87C104FF6FF70BDF85F
:101DB0007A2002EA010383420ED1BBF844100022CC
:101DC000ABF8482000297FF4D5ABA080608005E007
:101DD000129CA580658001E0A1806280002012E055
:101DE0009DF879000CE09DF879008DF86D009DF864
:101DF0006D0005E09DF8790007F8350C17F8350CF3
:101E0000129C60700120207024B0BDE8000DF0BD70
:101E1000F0B503AF2DE9F00D04F072FDCBF1210018
:101E20000393019004F086FD10D00BEB0804B4F18D
:101E3000210009D0304604F00DFD212C17D20AF8FC
:101E4000085008F10108EDE7DDF804800299002050
:101E5000087008EB0B00212808BF4FF0FF30888086
:101E6000039808BF4FF0FF30488004F032BD204691
:101E7000212103F0C7F9FEDE80B56F46ADF6481D9F
:101E80004FF0000B4FF489718DF86FB117AC2046FD
:101E900006F08CF85CAD142105F20C40059006F0BC
:101EA00085F805F58070CDF868B2ADF8A8B1069058
:101EB00000F0A2FF05F503704FF4007106F076F80C
:101EC000DFF8A00B0DF29C564FF400718DF890B521
:101ED0004844DE9006F10C00CDE9DCBBCDF870B1D2
:101EE00006F064F8DFF8800BCDF8A0B54844CDF8D3
:101EF000A4050120CDF89CB5CDF8CA0700208DF8C7
:101F0000A8B7FEF7BFFAA7F14C000DF5FA68011D5E
:101F10000D9108F10801039108F104010E9100F1FF
:101F200008010C91A7F1E401DFF840AB03310891FF
:101F3000C11C079106F20D21049105F10801054627
:101F4000012600200291169024E015904046802141
:101F500006F02CF809EB0A0009F80AB080F806B080
:101F6000A0F802B003F057FF08B903F05DFF404648
:101F7000802103F04CFF9DF8D017A1F10E00082836
:101F800013D8BDF8D117DFE800F005072330303053
:101F900030302C001698D8E788B2B0F5807F04BFA7
:101FA0009DF8D30703F034FD1FE005291DD19DF8EE
:101FB000D3079DF86C1141EA5002400800298DF8C2
:101FC0006C216CD0002800F0828003280DD1C4E081
:101FD00008BA000C022808D92046414603F0DEFC6E
:101FE00003E02046414603F0B1FC19F80A0000283E
:101FF000B8D009EB0A0040880028B3D004288DF837
:102000006FB1589005D2204646F6036103F05AFDA1
:10201000A8E72846214603F035FD57F84C0C38B3A5
:102020009DF85C00B02804BF9DF85E10002925D003
:102030009DF86D1119B19DF86E11884251D1179D0F
:10204000C5F30720032840F2E4805998810840290D
:102050009FBF6E2121545998013098BFB0F5827FFF
:1020600080F0E684265404F05FFCA7F14C0579E784
:1020700037F8481C204603F025FD73E79DF85F10F4
:102080000029D5D19DF85D00012830D0A72800F0A7
:10209000D484204646F6016103F014FD62E703286C
:1020A000A3D80FF21005022105EB800501220023C1
:1020B000AF4600BF00F006B800F057B800F052B8C5
:1020C00000F054B88DF86CB1A7F14C058DE70129EB
:1020D0008DF86CB148D0022943D003297FF485AF35
:1020E0003DE020464FF4DC4103F0ECFC3AE7599A1E
:1020F0008DF85C60501C5990901CB0F5827F80F088
:1021000097842118C2F58172012005F00DF801466F
:102110005998B0F5827F3FBF215459980844421C1A
:102120003EBF59920230B0F5827F80F08184211841
:1021300040F20310821A022004F0F6FF014659987B
:10214000B0F5827F80F0748421545998084401309E
:102150005990204603F0D7FC04E7022106E0052150
:1021600004E00422114601E003231946A7F14C05BF
:1021700005293FF60FAFBC487844DFE811F00700AF
:1021800009000600230220020C0003E7B748784448
:1021900003F035FEDAE61598C0B2022804D0032811
:1021A0007FF4D4AE00F04CBCB14D7D44A8471590EF
:1021B000A84700F0CFFE014640460A2205F0CEFEB9
:1021C000159800F0C7FE007804F0A3FB8DF8D00747
:1021D000A8470546159015F8801F007800F0DCFE32
:1021E000149000282846159918BF0846414600F06B
:1021F000E3FE14980028159808BF05469D49284617
:10220000A7F14C05794400F0F1FEFEF735F9022004
:102210009BE6DFE800F0040206022E0A02E0002638
:1022200000E002265898002841D0A7F1F8001421B8
:1022300005F0BCFEE8B280283CD18F4B8F4AF0B24B
:102240008F4E7B448F4D7A447E447D4415958E4D50
:102250007D441495DFE800F00231AADC8B48784415
:10226000FEF79CF900F001001590894E0D467E4462
:10227000B04788487844FEF791F900F001001491C6
:10228000B04715982946B047149841468DF8D107B4
:10229000204603228DF8D2578DF8D05703F050FC1A
:1022A0000126A7F14C05204603F02DFCD5E00325BF
:1022B0006E21C1E06E210025BEE040462146139606
:1022C000CDE9113203F0DEFBDDF8D057002D00F030
:1022D000B080DDF8D4070126152840F0A7802846F5
:1022E00015211422FDF72FFFA7F1F80204F00AF8D8
:1022F000002800F09B809DF85F3000209DF85E2054
:10230000032B88BF0120111F18BF0121CDE90A321C
:102310001A4302D0084340F0A4800B98019500288E
:1023200000F02B8204F043FB9DF8D007202800F03A
:102330002A820F9048229DF8D1071090DDE90D0107
:10234000BDF8D25705F014FE0C99109807F84B0C05
:102350004046099527F84A5C0F9D07F84C5CFEF74C
:102360009FF9002041F20551202806D018F80020DE
:1023700001EB411101301144F6E741F001000B9AE5
:1023800000BA010C81EA102181EA10614840C0B214
:10239000B0FBF2F101FB12000A99884200F0F681CD
:1023A00057F8E80C013047F8E80CBBE704F0E8FA0E
:1023B0003FD0DDF8D4070126342837D12846342110
:1023C0001422FDF7C0FEA7F1F80203F09BFF68B3EB
:1023D000A7F14C0004F0E8FA14350020202800F0A2
:1023E000C980295C5722A7F14C03A02938BF3022AD
:1023F00002EB111203F8102001F00F0157220A29F5
:1024000038BF3022114403EB400201305170E5E740
:1024100004F0B6FA0DD09DF85E000126DDF8D43741
:10242000012839D0E8B9172B80F0D6806E2103251A
:1024300003E0BDF8D457290A012659988208402A9A
:102440009FBF215459980130B0F5827F80F0F0820F
:10245000255404F069FAA7F14C051698FEF712F816
:1024600098E56E210225E8E7886C00006A6C0000A0
:10247000830D0000D66E0000066E0000366E000070
:10248000686E0000466E0000D56D0000D76B00003E
:102490006FE3FFFFC26B00000DF29C5000905CA840
:1024A00001212A4600F0A6FD054604F0F8F940F0A7
:1024B00091809DF8900502287FF4F3AE9DF8A8075F
:1024C000002800F0C882A7F1E405212104F036FAC3
:1024D0000498294604F0F6F8FEF7D2FC02460B46B3
:1024E000A7F14C0011461A46FEF720FD57F84C1C88
:1024F000002900F04F81BDF8CA0757F8483CF04A60
:102500000128F0487A44784440F04A81042547E99C
:10251000251347E927259DF8CD17EB4A0029119B84
:102520007A4408BF1A4647F82C2CE84AE84B7A440C
:102530007B4408BF1346A7F19C0247F84C2C129A23
:1025400047F8282C102247E90F02139847F8240C6B
:10255000062047F8300C0029159847F8340C4FF046
:10256000010047F8443C47F8486C08BF022047F890
:10257000400C2EE117F84C0CA7F19C0607993D2260
:10258000109037F84B0C0F90304605F0E7FC089898
:1025900031463D2205F0E2FC0F98A7F14C0627F8E2
:1025A000E30CA7F1E4011098402207F8E40C304650
:1025B00002F0AEFE57F84C0CB0B3EF217BE6159855
:1025C000013001E01598013800F003001690FDF786
:1025D00059FFDFE4010A30E7284614931946002228
:1025E000142300F095FB059E324603F08BFE0698FF
:1025F0004FF48071ADF8A8B18DF890B5CDF868B200
:1026000004F04CFDA7F1E4002E21CDE9DCBB05F080
:10261000CDFC40463146FDF7F5FF9DF8D067202EF2
:1026200051D1E021052507E7052257E9120147F8B6
:10263000502CA84A47E9250104207A4447F8542C35
:102640000722149B47F8582C314647F85C3C01267A
:1026500047F8980CA04847F8486C784447F89C0C19
:10266000119847F82C0C022047F8400CA7F15C00A9
:1026700047F8440CA7F19C0047F84C0C129847F817
:10268000280C47F8382C9548784447F83C0C04F05F
:1026900023F90846FEF7C4F8002800F0B981A7F135
:1026A000F80140462A46FEF73EFBBDF8D007002859
:1026B00069D104F032F9DDF81C182846FEF722F83B
:1026C00004F018F9A1E19DF8D10748221090BDF857
:1026D000D2070F90DDE90D0105F04AFC0F980C9927
:1026E00027F84A0C109807F84B0C404607F84C6C3A
:1026F000FDF7D6FFA7F19C00A7F1E4024146FEF7E3
:1027000064FB57F89C0C002847D00298A7F1E4011D
:102710002E2257F8986C05F021FC149901205C904A
:10272000284614225D96FDF7F1FF0B460329C0F001
:102730008B8186780546012E06D1149300F0EDFBBF
:10274000149B002800F0CC8001209DF85E10ADF8AD
:10275000CA07701EB0FA80F08DF8CCB74009CDF8EA
:10276000A0B58DF8CD070DF29C50CDF89CB5012693
:102770008DF8A8B700905CA893E604F018F99DF8CE
:10278000D057202D40D1BDF8D25796E00D99A7F132
:10279000E40042E037F8485C8FE037F8985C4AE69E
:1027A000042547E9251347E9272547F82CBC47F8B6
:1027B00040BCB549794447E91261A7F19C0147F84B
:1027C0004C1C129947F8281C102147E90F0104F00E
:1027D00083F8A7F14C00FEF723F898B19DF8900517
:1027E000022840F034810699A7F14C0000F02AFB42
:1027F00017F84C0C002800F09D8037F84A5CADF8C3
:10280000D2575AE06E2118E6BDF8D20709909DF81C
:10281000D1071090A7F1E4000E99482205F0A8FB1B
:1028200057F8E80CA7F1E4010B9048220E9805F048
:102830009FFB0998ADF8D20710988DF8D107019841
:102840008DF8D057007D002800F0D180A7F1E4007A
:102850002E2105F0ABFBA7F19C0503992846FDF757
:102860001FFFA7F15C00A7F1E4022946FEF7ADFACD
:1028700057F85C0CF8B10D9DA7F1E40157F8580C1E
:102880002E221090284605F069FB1099284647F83B
:102890004C1CFEF7B6FAA7F1E40502460B461146BA
:1028A00028461A4602F034FD57F8E40C002862D09E
:1028B000EF210025C1E537F8585C290ABDE500BFC6
:1028C000E068000095690000846A0000326A000038
:1028D000506A0000E669000086670000D4690000C5
:1028E00066487844CDF8E0070F20CDF8DC0764484F
:1028F0007844CDF8D8070D20CDF8D40761488DF87D
:10290000E4B77844CDF8D00704F054FC404602F018
:102910000DFF04F057FCA7F14C0547F84CBC07F835
:1029200048BC284602F0CAFEC0B20528F9D1E02111
:10293000042581E50D99A7F19C001D2217F84B5C39
:1029400037F84A6C05F00AFB0898A7F19C011D2294
:1029500005F004FB0599A7F1E402404627F8E36C73
:1029600007F8E45CFEF7DFF9BDF8D007002852D085
:10297000BDF8D2575FE5082257E9383147F8502CA7
:1029800028463B4A149D7A4447F8542C072247F8BE
:102990005C5C47F8582C47F8901C47E926233549DA
:1029A000794447F89C1C119947F8C41C022147F848
:1029B000D81CA7F15C0147E93861A7F19C0147F8F1
:1029C000E41C129947F8C01C0F2147F8D01C2A4973
:1029D000794447F8D41C139947F8BC1C062147F8E2
:1029E000C81C159947F8CC1CFDF71AFF80B1039954
:1029F0002046412203F0A4F80B98A7F14C050422CD
:102A000000BA47F84C0C2046294603F099F84AE4EE
:102A10006E21042511E503F080FFDDF81C1828461F
:102A2000FDF770FE03F066FF03F08AF801263AE432
:102A30004FF4827102F0E6FBFEDE17A803F063F8A4
:102A4000002003F003FAFEDE02201946F2E71048E8
:102A50002421784402E00D482721784402F0FEFA50
:102A6000FEDE00BF000A000000000000042000009D
:102A7000B263000024670000FB6600009A68000053
:102A80006468000045680000EC7900005E650000A5
:102A9000D166000080B56F4600F001F8FEDE80B51B
:102AA0006F46C6B000204FF489718DF8170101AC54
:102AB000204605F07BFA20464FF4604103F002F80F
:102AC000002003F0C3F9FEDEF0B503AF2DE9000DE1
:102AD0009AB002AD88460446402103F02FFF12AEA3
:102AE00020214FF0200A304605F060FA21204146AF
:102AF00005222B460096212604F006FB04F108006F
:102B0000294603F037FF284602F082FEC4F804A0ED
:102B100026701AB0BDE8000DF0BDD4D4014600F116
:102B20007F021020222A15D8DFE802F0121E202290
:102B30002426282A2C2E30321D1D1D1D1D1D1D1D55
:102B40001D1D1D1D1D1D1D1D1D1D1D1D1D343600A2
:102B50000120704711F1BF0204BF0D207047DF3123
:102B600004BF002070477047022070470320704761
:102B700004207047052070470620704707207047E3
:102B800008207047092070470A2070470B207047C3
:102B90000C2070470E2070470F207047F0B503AF30
:102BA0002DE9000D90B000680C460122D0E90085A7
:102BB000D1E90501CB68354979449847064601209B
:102BC000002D4FEAC67153D0CDF8088009B1012617
:102BD00049E0D4F81CA0C0075FEA4A710ED440B99E
:102BE000D4E905010222CB68294979449847002895
:102BF000EDD102A8214603F05BF833E0D4E9052BC0
:102C000050B1DBF80C301046224901260192012216
:102C100079449847019A30BB0120CDE9032B07F88E
:102C20003D0CA7F13D0005900DF11C0CCDF838A02E
:102C3000194878440D9003A80C9094F820008DF862
:102C40003C0094E84F00ACE84F0002A807A903F04D
:102C50002FF80028BBD1DDE90C010222CB680F4917
:102C600079449847064608F10108013D0020A7E78E
:102C700009B1012006E0D4E905010122CB68084929
:102C80007944984710B003F0FABD00BF56670000C2
:102C900014670000FD66000062650000A566000084
:102CA0008F660000D0E901329A423FBF511C81601B
:102CB0000068815C00209A4238BF01207047D4D45C
:102CC000E0B502AF60B113460A4601466846FDF71B
:102CD00029FBBDF800100320002908BF04208CBD8B
:102CE00002482B21784402F0B9F9FEDEEB640000C3
:102CF0009A4203D8994228BF00F00AB880B56F46BF
:102D000002484721784402F0A9F9FEDED8630000AA
:102D100080B56F46934208D38B429EBF1044991AE8
:102D200080BD184602F0B3F9FEDE10461946F9E7F9
:102D3000F0B503AF2DE9F00D16463A89D1F800B091
:102D40004FF0000801901820A0EBC20AC2F1040461
:102D500002930391009203F0EDFD13D0A04511D230
:102D6000304603F077FD0AF01800E9B2AAF1080A2C
:102D700008F1010801FA00F04BEA000B0398C0F8D3
:102D800000B0E8E70199002008700098404404284A
:102D900008BF4FF0FF308880029808BF4FF0FF3027
:102DA000488003F096BDE0B502AF00F1280108307D
:102DB00000906846019102F0FEFF8CBDF0B503AFB4
:102DC0004DF804BDC0B06E46044630460D4600F0D6
:102DD00013F830462946212200F026F803F06DFD55
:102DE00004D16946204600F02DF802E00121608000
:102DF000217040B003F0B1BDB0B502AFC0B06D46B8
:102E0000044628464FF4807105F03BFA28464FF4FB
:102E1000807104F043F9204629464FF4807205F092
:102E2000ABF840B0B0BDD4D480B56F4604F04AF9D9
:102E30000349002808BF01F57061084680BD00BF46
:102E400001E0FFFFF0B503AF4DF804BD88B06E465A
:102E50000D4604463046202105F0A8F828463146A4
:102E600004F02BF920B14EF201006080012004E053
:102E7000601C694603F07EFD0020207008B003F05E
:102E80006CBDD4D480B56F464946401A0349794495
:102E90000844BDE8804004F0E3B800BF6E75000050
:102EA000F0B503AF2DE9000D8AB01C4692460E46E0
:102EB000FFF7E8FFA519CDE900A4B5F5006F19D813
:102EC000B6F5006F1BD8804630445146224604F0C8
:102ED00011F940464FF4006132462B46FFF718FFC8
:102EE00052462346CDE9020102F0CAFA68B14EF615
:102EF000017001E04EF202000AB003F0C0BC30469F
:102F00004FF4006102F0C3F8FEDE00206946049031
:102F100002A804AAFDF72EF9FEDE80B56F4600F088
:102F200007F800F017F80078002818BF012080BDCE
:102F300080B56F46054849464844401A04497944DB
:102F40000844BDE8804004F08BB800BF00080000D2
:102F5000BE740000F0B503AF4DF8048D86B0044692
:102F6000067814F8808F05463046414600F014F884
:102F700000280CBF2C464646F0B2A52801BF04F13C
:102F8000400006B05DF8048BF0BD0020694600905B
:102F90002046FDF7FDF8FEDEC0B2A5281CBFC9B271
:102FA000A52903D1A53818BF0120704780B56F4609
:102FB00002F04FF8FEDED4D4B0B502AF0C4609499A
:102FC0000546794400F012F805F1400021460A2236
:102FD00004F090F8044928467944BDE8B04000F078
:102FE00005B800BF1861000003610000012204F071
:102FF00081B8D4D4F0B503AF2DE9000DADF50C7D4B
:10300000824690F8200428B1012809D1C8B20128CD
:1030100002D10CE0080607D046F6026B01F0C4BCF2
:103020004FF46F4B01F0C0BC01208AF82004FF2B45
:1030300003D946F6036B01F0B7BC00207BAD66AC4C
:1030400046900AF50070479005F13F00349004F176
:103050003F003390E01C1990601C239005F1210083
:10306000149004F10800389004F123003090681C9B
:103070000E9005F11700CDE944230D904EA80230C3
:103080000C9005F11E000B900AF1410025900AF109
:10309000BC0032900AF1A10013900AF14B00B9680C
:1030A00012900AF50370169001F20D202A9056A88E
:1030B00003301190281D10900AF17C002F900AF126
:1030C000C00026900AF1460027900AF144003B9088
:1030D0000AF1420036900AF16C0020900AF13E009D
:1030E0001F900AF14C002D900AF1450024900AF13E
:1030F00064000F900AF1AA001D900AF19C001C9038
:103100000AF172001B900AF149001A900AF13D0081
:1031100035900AF1E40022900AF194001E900AF121
:103120004A002B900AF170002C900AF1500029906F
:103130000AF1480015900AF1A00028900AF1C20097
:103140002E900AF1F00031900AF1400042900AF10D
:10315000390037900AF1040018900AF13C080AF18E
:10316000380500204FF6FF7B219019460020CDE95D
:10317000392317900020CDE93EA83C9581421CBF21
:10318000DDE94501884201F0F1832846BAF8F840AC
:1031900002F0DDFF80B2844281F0F9832878DFE815
:1031A00010F006000600140099007102E40003F01C
:1031B0001FFC48A8379944AAFCF7F8FF9DF82001A6
:1031C000002800F0298601F0E2BBDDE94565AE424A
:1031D00000F0F0854046BAF88840FDF703F880B269
:1031E000844281F0AC8398F80000C32832D1B54204
:1031F00081F0AF83681C46904498445D0120FCF741
:10320000ADFFD4B3012C41F0A783309800242A22CB
:10321000C0F803400460359866A904F09FFEC22000
:10322000AAF878408AF83C002F988AF87640AAF8E5
:10323000744004608AF87240AAF870408AF86E40C0
:10324000AAF86C40C0F80340BAF88840AAF868B001
:10325000AAF884B0BAF88A00414600907BA844AA34
:103260002346FEF767F99DF8EC01002841F06E83D4
:10327000BDF8F001BDF8EE4105E04FF6FF704FF6E6
:10328000FF74ADF8EEB104EA0006B6EB0B0518BF0B
:103290000546BAF888005E4508BF441CDDF8FC808E
:1032A0001FFA84FB4046FCF79DFF80B283454FF632
:1032B000FF7B08BF5D46AAF88A5008BF5C46AAF8A3
:1032C00088405E4540F0768504EA050058457FF465
:1032D0007CAF46E066ACDDE94501884200F06A85D6
:1032E000BAF86800012801F22A830CD0002841F0C6
:1032F0002683BAF86A004146009044AA204600237B
:10330000FDF756FE08E0BAF86A0001233B990090E9
:1033100044AA2046FDF738FF03F0E8FA41F0118394
:10332000BDF89C21BDF89A0100EA02018BB2B3EB13
:103330000B0118BF1146BAF868205B4508BF501C46
:1033400082B2022A08BF5946AAF86A1008BF584636
:10335000AAF868005B4540F02D85084080B25845CA
:10336000B9D103F029FB00F053BDBAF9F450B5F11F
:10337000FF3F40F32485BAF8EA60BAF8E8305B45CD
:1033800008BF5E4520D12E9803F0F7FA04200026EE
:103390008AF8A00045212D98CAE910668AF84A608B
:1033A000AAF8486004F002FE4FF0FF300023CAF88C
:1033B0009C00681C8AF89860CAF89460AAF892B0D9
:1033C000AAF8F400CAF8E8604FF0010CDDE94540C6
:1033D000844200F04086BAF8481005224FF6FF7884
:1033E000012998BF6146BAF992B0BBF1FF3FC8BF4F
:1033F0000A1D95B29AB2AA4281F0C982022A0BD064
:10340000012A45D0002A4BD100967BA82E9944AAC8
:103410000023FDF7B9FE53E0B2B23821449EA1EB80
:10342000C20542990A92C2F10802D1E900B3419261
:1034300000223D96469E409684424FD0419EB24225
:103440004CD21E46A0428046439206D23D9900F1DE
:103450000108CDF8008111F800A0A0424FF0000053
:1034600038BF0120FCF77AFE05F038025FFA8AF0D7
:10347000002104F06DFD33464BEA000B429841EA0F
:103480000603439A083DC0E900B301324046D3E742
:1034900000967BA8289944AA0123FDF719FF0FE0A5
:1034A0000320BBF1FF3FC8BF881C4FF0010C80B266
:1034B000824254D900967BA81E9944AAFDF7B4FE17
:1034C0009DF8EC014FF0010C4FF6FF7B002841F016
:1034D0005E82BDF8F001BDF8EE3111E040984FF684
:1034E000FF7BDDF8F8A04FF0010C46904FF6FF711E
:1034F0000A98BAF8E8301044082804BF0B4608467A
:1035000003EA000189B2B1EB0B0618BF0646BAF810
:10351000E800594508BF431CBAF8482098B2012A70
:1035200098BF6246BAF99250B5F1FF3F4FF00505DA
:10353000C8BF151DAAB2904208BF5E46AAF8EA604D
:1035400008BF5B46AAF8E830594540F0848503EA95
:10355000060080B258457FF439AF00F0CFBDBBF113
:10356000FF3F5FDDBAF84E004FF6FF72BAF84C101D
:10357000914208BF90420BD12D98452104F016FDD1
:103580000BF10100AAF892004FF0010C002000217D
:103590004FF6FF7BDDE945239A425ED089B20129CF
:1035A00001F2F5810AD0002941F0F181009066A86E
:1035B000299944AA0023FDF789FF06E0009066A838
:1035C0002C9944AA0123FDF7DFFD9DF898014FF0E7
:1035D000010C002841F0DB81BDF89C21BDF89A1157
:1035E00001EA020083B2B3EB0B0018BF1046BAF831
:1035F0004C205B4508BF511C8AB2022A08BF5846BE
:10360000AAF84E0008BF5946AAF84C105B4524D1D1
:1036100001EA000292B25A45BCD14FF6FF704FF654
:10362000FF736DE7009666A8159944AAFDF743FD60
:1036300003F05CF941F0AB81BDF89C11BDF89A0133
:1036400000EA010242450DD04FF0010CADF8F01137
:103650004FF6FF7BADF8EE013BE7BAF8EA00BAF8A7
:10366000E8304DE7BAF848004FF0000B4FF6FF7115
:103670004FF0010C00284FF6FF70AAF892B07FF4CB
:1036800071AFE3E7BAF9E850B5F1FF3F40F3B1831A
:10369000BAF8E210BAF8E000584508BF59450DD114
:1036A0003298242104F082FC0A2000218AF83C0090
:1036B000681CAAF8E8000020CAF8E010DDE94552CD
:1036C000954200F0E28580B2022801F2608132D09A
:1036D00001284FF6FF7B4ED0002841F058813298E8
:1036E0001FFA81FBDDF81881002658444190CBF188
:1036F000040043904498409095424ED043988642AF
:103700004BD2AA42144605D2409802F10108444621
:1037100010F802A00020AA4238BF0120FCF71EFDCD
:103720000BEB0600032801F24B814198224600F87A
:1037300006A00136E0E798F800404FF6FF7B0A2C20
:1037400040F0C680AA4281F03781501C46904498D0
:10375000855C0120FCF702FD032D01F2188109248C
:1037600056AEDFE805F0024F5D813046152104F0CA
:103770001DFC062478E000910DF59370269944AA6B
:103780000123FDF7A3FE9DF82601002841F0FF80EC
:10379000BDF82A21BDF8280113E006EB0B024FF615
:1037A000FF70CDF81881042A08BF02464FF00000D0
:1037B00008BF4FF0FF30DDF8F8A0DDF8FC804FF6D1
:1037C000FF7B00EA02018BB2B3EB0B0118BF11467D
:1037D000BAF8E0205B4508BF501C82B2032A08BF3C
:1037E0005946AAF8E21008BF5846AAF8E0005B451F
:1037F00040F04B8500EA010292B25A457FF45EAF79
:1038000000F07CBC0E981E2104F039FD7BA93046E7
:103810001F2204F0A3FBFF2007242190002022E0B8
:103820000B9800242522C0F80340046066A87BADF5
:10383000294604F093FB0C98C0F8034004604EA89E
:103840004BA90CC80CC11E220078087029460D989F
:10385000C0F803400460304604F080FBC220052419
:1038600021904FF6FF7007902598002531461F22C2
:103870008AF84050456005601A98AAF83E508AF8C8
:103880003D5004F06BFB21982622CAF86E5040F49C
:103890007F40AAF86C000798AAF868001B988AF87D
:1038A0006A5066A904F05AFB1C980922AAF898B03D
:1038B000AAF8A850C0E90055C0F807501D984BA9B8
:1038C00004F04CFBCAF8B850AAF8B4B08AF83C40EF
:1038D000A01F4FF6FF72C1B205294FF0020128BFA9
:1038E0000846C1B24FF6FF70DFE811F006009F01F5
:1038F00012000500510864E7BAF8E200BAF8E030B7
:10390000359900900DF5937044AAFEF781FA3AE7D5
:10391000DDE94504A04200F04482BAF8B010012667
:1039200002234FF6FF75012998BF3146BAF9B4203A
:103930000220B2F1FF3FC8BF4B00BAF8B8B09BB24B
:103940009B4581F02280B2F1FF3FD8BF31468B45C5
:103950001FD23E985B46B0F8BA00009066A8209946
:1039600044AAFDF7E7FD44AB22460BCBFFF7C0F9B5
:103970000246479803F037F8C1B2042941F00580A8
:1039800002F0B4FF40F0EC87BDF89C01BDF89AB19D
:1039900015E13E9AB2F96810B1F1FF3F14DDB2F8BB
:1039A00060004FF6FF73984226D1B2F86220179C50
:1039B0009A4222D13E9A0520013182F83C00002033
:1039C0001066A2F8681018E0B2F8BA005B460090E2
:1039D00066A80F9944AAFDF76EFB02F087FF40F03E
:1039E000BF87BDF89C01BDF89A1101EA0002AA4206
:1039F00000F0C8808B46E2E0179CDDE945818845F0
:103A000000F0CF80000440F09F873F9890F800A01E
:103A1000BAF1050F24D1414580F0B38744984D1C7D
:103A2000469510F801A00120FCF798FBBAF1040FAD
:103A300000F2AA8743955346099ADFE80AF01A0371
:103A400003131700002100208DF85A11ADF858110A
:103A50001221089066A804F0A9FA0023002208E0C9
:103A6000264627E04FF0FF32002302E004202346E1
:103A700008903E9C002024999E46099284F84400B8
:103A8000206484F83F00089884F83E00BDF858018F
:103A900008809DF85A0184F83D308870A264DDF8F2
:103AA000B4C066A991E86D008CE86D00764684F894
:103AB0003CA04399DFE81AF00E000600060016004D
:103AC0001E00480702F0FEFE7BA8359944AAFDF7C8
:103AD0005BFB16E088453DD13E98B0F86210B0F827
:103AE000600017E002F0EEFE7BA8429944AAFDF7C1
:103AF0009BFB06E002F0E6FE7BA81F9944AAFDF7B7
:103B0000E7FB9DF8EC01002840F03887BDF8F01184
:103B1000BDF8EE0100EA01034FF6FF755A1B18BF0E
:103B20000A463E9CAB42B4F8601008BF481C81B204
:103B3000012908BF2A46A4F8622008BF2846AB42E4
:103B4000A4F860002CD100EA02013446A9427FF4B7
:103B500054AF2DE0414504D2481C46904498445C43
:103B600000E000240020414538BF0120FCF7F6FAB0
:103B7000601E359902F0CDFE08704FF6FF714FF6CA
:103B8000FF70C7E73E9A0021B2F86400A2F86810FF
:103B900000287FF404AF4FF6FF7B4FF6FF700EE076
:103BA00034463E981794DDF8FC80B0F8BA0006E081
:103BB0004FF6FF7B4FF6FF701796DDF8FC800BEA9F
:103BC00000024FF6FF75511B4FF0010318BF01466D
:103BD0003E9CB4F8B000012898BF1846B4F9B43040
:103BE000B3F1FF3F4FF00203C8BF430098B2B4F8EF
:103BF000B830AA4208BF03F1010B1FFA8BF38342CE
:103C000008BF2946A4F8BA1008BFAB46AA42A4F8D8
:103C1000B8B040F0C280DDF8F8A00BEA0100A8427D
:103C20004FF6FF7B7FF474AEB4E0DDE945018842D6
:103C300000F0B780BAF83E000121012898BF08467D
:103C4000BAF96C40B4F1FF3FD8BF0846BAF86E30FD
:103C5000834280F07986B4F1FF3F56DD3B98369978
:103C600000880988594508BF58450BD12B9802F0A8
:103C700084FE36990020209AC1F803000860611C78
:103C800011800021DDE945239A4258D089B20129EB
:103C900000F25A860AD0002940F05686009066A8A5
:103CA0002B9944AA0023FEF7B3F806E0009066A81B
:103CB000279944AA0123FDF7FEF902F017FE40F010
:103CC0004F86BDF89C21BDF89A11369D01EA02008D
:103CD00083B228885B4508BF411C8CB2022C08BF08
:103CE0005946B3EB0B00298018BF1046022C08BFC1
:103CF00058463B9A10805B4521D101EA000292B2FE
:103D00005A45BFD102F058FE1DE02C980088009063
:103D100066A81F9944AAFDF7CEF902F0E7FD40F02E
:103D20001F8602F0AFFD0ED1209800244FF6FF71E0
:103D300004801F98008802F060FE8FD103E0BAF87B
:103D40007010BAF86E0000EA01030125B3EB0B0214
:103D500018BF0A46BAF83E10012998BF2946BAF999
:103D60006C40B4F1FF3FD8BF2946BAF86E405B45BE
:103D700008BF601C84B28C4208BF5A46AAF8702063
:103D800008BF5846AAF86E005B450AD11040584556
:103D90007FF44BAF02F010FE07E0DDF8F8A04FF61D
:103DA000FF7BBAF8E210BAF8E000ADF82A11ADF8DE
:103DB0002801EDE4BAF8FA10BAF8F80028E002F0A9
:103DC00017FE66A8319944AAFDF775F902F08EFD39
:103DD00040F0B78502F056FD1AD1BAF8F000002580
:103DE0004FF6FF71AAF8F45002F007FE7FF4C3AA61
:103DF0000EE002F0FDFD66A8229944AAFDF75BF9EA
:103E000002F074FD40F09D8502F03CFD00F044821C
:103E1000ADF82411ADF82201BDF824014FF6FF7B67
:103E2000BDF8224104EA0005B5EB0B0618BF0646B3
:103E3000BAF8F8005D4508BF441C3C981FFA84F8A6
:103E400002F085F980B2804508BF5E46AAF8FA60A4
:103E500008BF5C46AAF8F8405D4540F08785DAF86F
:103E60000000DDF8FC80002800F0D7853C9D287814
:103E700005281FD004283DD0032840F0A4823B9E93
:103E8000D8F800803578284602F016FB044628460C
:103E900002F022FB00285DD03046214602F028FBCC
:103EA00002F02AFB002100220023D7F808A00DF51C
:103EB000CC7B71E0BAF8EA00BAF8E81080EA0B00AF
:103EC000429E81EA0B01084380B2002818BF0026F9
:103ED00040F076823E99D1E98004002800F0C2804B
:103EE000D1F80802FEF7CEFF4FF400612246FCF73E
:103EF0002AF9BBE0BAF8E2004646BAF8E01080EAD8
:103F00000B0081EA0B01084380B2002818BF00268D
:103F100040F056823E98B0F8E440B0F9E850A5422F
:103F200080F0818530780638C1B205294FF0020152
:103F300028BF0846C0B2032800F27E85D7F808A043
:103F4000DFE810F0B60104000400F10101208AF856
:103F50003002E8E1D7F808A00DF5CC7B112C80F0F9
:103F6000288500202146CDE96800CDE966003B9810
:103F700002F0F2FAC1F1100204460D465846102133
:103F800002F0EFFA22462B4601F09EF966AD33CDE2
:103F90000ABA21BA03BA28BA08FB03F4A0FB080343
:103FA000A8FB0225A1FB08165B18724145EB040132
:103FB000B0F180447BAD73F1000472F1000471F143
:103FC000000407D2DDF8FC80402837D202F020FD43
:103FD0000122EAE100BA599018BA589010BA5790E5
:103FE00008BA569056AADDF8FC800020102805D0AB
:103FF000115C01300029F9D0441E00E00024239810
:10400000202104F03CF9C4F10C00C4F1110140F08E
:10401000C0008DF8980101205A4602F027FA112CB1
:1040200080F0058556AAC4F11003224401F04CF932
:1040300028465946212203F091FFB8E1B0F5804FA0
:1040400080F0A5818DF89901402101EB102002F04C
:10405000DFFC0222A9E1BAF8FA00BAF8F840ADF89C
:10406000240116E116982146FCF75CF80246B86870
:1040700096F8604088463D96D0F804B07BAD66AEB9
:1040800056A824B1012C40D0022C40F0D5843046F3
:104090002E2103F08BFF4FF0FF30032C28BF044686
:1040A0003D982146334600F161022846FCF7BFFEE9
:1040B0007B9A002A00F090847C9B56A8B968FCF794
:1040C00031F9BDF85801002840F08384579CDDF891
:1040D000FC803C9DB86859462246FCF795F802469C
:1040E00018980B4611461A46FCF78FFE002800F080
:1040F000A180B9680020C1E9000061E1ADF822B1FA
:104100004FF6FF704FF6FF748CE64021144603F023
:104110004DFF04EB080200204FF0000ACDF800B17B
:104120000492A0EB0A019442419000F0628314F8DB
:10413000015B0AEB0B000A91D846CDF818A043901A
:10414000059466AC204602F02FFC43984FF03A0BE2
:10415000804524D208F1400AB86841465246FCF72F
:1041600053F80022C626402A0CD0914200F0048465
:10417000835C05EB0323B3FBFBF505FB0633A3547C
:104180000132F0E7B868414622464023FCF701F9C6
:10419000834602F084FBD046D4D000F022BC0A98BB
:1041A00056AE412880F04B84419B0024DDF818A0D6
:1041B000C622A04209D0315D05EB0121B1FBFBF520
:1041C00005FB021131550134F3E7A3F1400855B363
:1041D000B8EB0A0402D0A3EB0A0417E04098BA68CF
:1041E0000AEB00014193402310463246FCF7D1F818
:1041F000834602F054FB40F0F483304602F0D4FBD7
:10420000419B0AF1400A4FF03A0BC622402C80F045
:10421000F983B5FBFBF008F1010800FB0251013303
:1042200005463155D3E7DDF800B108F14000DDE97E
:10423000042476E7B9684394486841903898B1F807
:104240002E42002101710160C2496791C249669105
:10425000052101F05FFF002C00F05A810DF5F67882
:1042600066AE0C200A23002C00F05A81072800F0CB
:104270008083B4FBF3F101EB8102A4EB42020C4614
:1042800042F0300232540138EDE7BAF8F840BAF89B
:10429000FA00ADF82241C5E5BAF8E40000254FF672
:1042A000FF71AAF8E85002F0A8FB7FF4F1A9AFE58E
:1042B00066A82E2103F07AFE0DF5F67B711C584698
:1042C000FEF77CFD9DF8EC01002840F092830DF58F
:1042D0009C7A10991D229DF8ED815046BDF8EE6143
:1042E00003F03CFE119851461D2203F037FEADF855
:1042F000596158468DF8588156AA66AB0021FCF7E3
:1043000096FD7B99002900F07783BE68DDF8FC807C
:1043100096F8300238B97C9A1898FCF776FD80F050
:10432000010086F83002601EA8423C9D48D1B86862
:1043300090F83002002843D00F207E9087487844C0
:104340007D900A207C90864878447B90854878440C
:104350006E90022069907BA8689000206790824848
:1043600078446690814878446F9008206B9080482C
:1043700078446A907F487844709006206D907E481B
:1043800078446C9066A8FCF74BFAC8B92EE3010A92
:104390008DF89B018DF89A11010C8DF8991140212F
:1043A00001EB106002F034FB042202F03DF82A9881
:1043B0002946212203F0D2FD3C9D01208AF80C02FF
:1043C0002878DDF8F8A000210528CAE980111AD163
:1043D000BAF9F4004FF6FF7B002800F19280319982
:1043E0000988002900F0BF8280B20139814240F083
:1043F0008880BAF8E800584504BFBAF8EA00584582
:1044000040F07F80AFE2DFE800F0030B13283700B5
:10441000379900204FF6FF7B08700120287070E06C
:104420000020CAF88800C3208AF83C0002200FE070
:10443000199802F0A2FA259866A9242203F08EFDAD
:104440000020CAF868008AF84000CAF83C0003203F
:104450008AF838004FF6FF7B53E00A202B218AF8B8
:104460003C0004208AF83800329803F09FFD4FF694
:10447000FF7BAAF8E8B044E0BAF9E8004FF6FF7B0A
:1044800000283ED42299098859B180B2013981426D
:1044900037D1BAF8E000584504BFBAF8E2005845F1
:1044A0002FD1149802F069FA2398452103F0E7FE12
:1044B000129866A9462203F051FD13987BA9422267
:1044C00003F04CFD002004218AF8A0104FF0FF31CA
:1044D000CAE910008AF8F200AAF8F000CAF8E80069
:1044E0008AF89800CAF894008AF84A00AAF84800A6
:1044F0000520AAF8F4B0CAF89C10AAF892B08AF87D
:1045000038000020CAF8F800DDE94510FEF736BE95
:1045100030200DF5F6788DF8A00166AE012030E070
:104520000021052905D03898405C302802D101319E
:10453000F7E70521389800234218C1F10500CC188F
:10454000052C1BD0052B00F06382389DD45CEC5405
:104550000133F4E7757420234F757470A14C00008B
:10456000A64C0000564C0000405E0000164D0000B6
:10457000F04900003A4D0000104D0000062980F07F
:10458000608200F1080230460D21FCF76FFC0B46FB
:10459000B96802464046FBF7C5FEBDF8EC010028AD
:1045A00040F01D82BD682121CDF800B1DDF8F0B1E9
:1045B000B5F82E02D5F804A00130A5F82E02304639
:1045C00003F0F4FC3D9C314604F1820002F07AF8DD
:1045D000FCF756FC02460B4640462946FBF7A2FE76
:1045E000BDF8EC01002840F0FA81B4F808807C9E08
:1045F000B8F1000F71D0E0894FF6FF72A189002554
:1046000050405140084380B2002808BF04F1100513
:1046100040F00382B868402140680A9066A803F021
:10462000C5FC0020202815D0295C5722A02938BFBE
:10463000302266AB02EB111201F00F0103F81020DB
:1046400057220A2938BF3022114403EB40020130BF
:104650005170E7E7CDE9056BC346D0460DF5F67A14
:1046600066AC40225046214603F078FCB96856A853
:1046700052464023FBF756FEBDF85801002840F093
:10468000A881BE684E215798049070680390204618
:1046900003F08CFC05F1200021464E2201F087FF3B
:1046A000FCF7EEFB02460B4650463146FBF73AFE5E
:1046B000BDF8EC01002840F092810A994FF6FF7096
:1046C000C246D846419A21EA0000DDE9056B3D90DB
:1046D0007C98029088B20A9003E00020419A3D90B5
:1046E0000A9066ADB9685B462846FCF7D5FB669C28
:1046F000002C00F06B81B9685246679833464190B0
:104700002846FCF7C9FB669E002E00F05F81B96861
:10471000AB46409A5846439B679DFCF7BDFBDDF8CE
:1047200098A1BAF1000F00F051814095B8F1000F47
:104730004394679DC54CC6497C44794438D0069162
:104740003D980A99049B41EA0002B9685846FCF773
:10475000A3FBDDF89881B8F1000F00F03781B9684C
:104760005846DDE90232DDF89CB1FCF795FB66980E
:10477000002800F02B8107226799CDE974A5739278
:1047800070AA13C20A2004216F90B248CDE96C8B45
:1047900078446E9008206B90AF4878446A904098B7
:1047A000CDE96860062067900698669066A80CE0E0
:1047B0000720CDE96CA5CDE96A404098CDE9686055
:1047C0000620CDE9661058460221439A419BFCF72A
:1047D00071FB8346B868DDF8FC8000213C9DC0E990
:1047E00000111FFA8BF04EF6017188423FF4E8ADDC
:1047F000CFE056A8FCF736FB0246B8680B460AEB3A
:104800000B01FBF7C6FD5C46834602F048F840F01A
:10481000E8807BAD402102F091F866A802F0C4F870
:1048200041982146A346061943968E4252D941909B
:10483000741A8548412C784482464FD3BD6801F1F3
:1048400040020A9106922846FBF7DEFC8B46A6F151
:1048500040018046284632460591FBF7D5FC4023AF
:104860001BB30BEB0302402A00F0CF8098F8002026
:104870003A2A80F0C480349DCE181AF80220402EC7
:104880001D44544605F8402C76D002783A2A80F030
:10489000B680339D54461AF8022008F101081D44E1
:1048A000013B013005F8402CDAE7BC6840230A9947
:1048B00066AA2046FBF78EFD059E7BAD2046402371
:1048C0002A463146FBF786FD419806998038DDF887
:1048D00000B1AAE7DDF8FC803C9D2DE0B8683246C7
:1048E0008B46FBF791FC419AC1F1000C002605EBC9
:1048F000020E931913D0B4453ED002783A2A7ED2E4
:10490000013B402B80F087800EEB06031AF8022053
:10491000554603F8012C0130013E419AE9E77BA896
:104920002146FCF79FFA0246B8680B465946FBF74A
:1049300051FD3C9DDDE93F8B439CFFF7CBBB022043
:104940000BE09DF8990108E002201EE09DF8ED01C2
:1049500003E00020FBF702FC01208DF8210116E0A6
:104960009DF8990111E002208AF820044EF6017B9F
:104970000FE04EF2020B34E0084624E09DF8ED0112
:1049800003E00020FBF7EAFB01208DF827014FF43C
:10499000604B3E98DDE9391200F58070FEF744FA6D
:1049A00001F08BFF18BF834658460DF50C7D01F0D2
:1049B00066BF4EF2020BECE70020FBF7CFFBE6E709
:1049C0000421CDF8188100F01DFCFEDEBDF89CB17D
:1049D00007E0BDF85AB104E0BDF8F0B101E0BDF860
:1049E000EEB1B9680020C1E90000D2E746F6046BD9
:1049F000CFE7BDF8EEB1CCE7BDF8F0B1C9E710469E
:104A00003A21E0E720464021DDE758465946DAE7FB
:104A100005200521D7E71846F5E710482B217844F3
:104A200000F01CFBFEDE0E482C217844F8E72046FF
:104A3000102100F02CFBFEDEFCF7F4F9FEDE402135
:104A4000F7E70521F5E700BFB75900008C490000E2
:104A500008480000B847000086450000B147000044
:104A6000EC44000081293EBF0844C1F18001704739
:104A700080B56F460846802100F009FBFEDEF0B5E8
:104A800003AF2DE9000D8CB003238DF82C302023CB
:104A9000079308AC00230BC414690593002C0393FF
:104AA00000923FD05069116895684FEA401820F095
:104AB0007840029101F1040B019003AEB8F1000FB0
:104AC00054D0DBF800203AB1DDE90801CB685BF88F
:104AD000041C984700285AD1206904F1200AA169D2
:104AE0000790207F0A9104F108018DF82C002846D8
:104AF00000F054F8CDE903012846214600F04EF8B5
:104B0000CDE90501616955F8310005EBC1014A683D
:104B1000314690470BF1080BA8F1200800285446B5
:104B2000CCD034E010680DF10C0802900024D2E9DA
:104B300002604FEAC00A20F060400190A24515D003
:104B400002982044426832B102980159DDE9080315
:104B5000DB689847D8B9D6E90002414606F1080556
:104B6000904708342E460028E8D010E000980199BC
:104B7000406881420DD2DDE9012050F8321000EB8F
:104B8000C2004268DDE90803DB68984708B10120EC
:104B900000E000200CB001F072BED4D40A685AB113
:104BA000012A07D1496800EBC1025268064B7B44D9
:104BB0009A4203D000207047081D01E050F83100F0
:104BC00001680120704700BF37070000F0B503AF50
:104BD0002DE9000D9A461646884604460025A8454C
:104BE00009D0DAF8102030462146904701350028D8
:104BF000F5D0691E00E041460020414538BF012044
:104C000001F03DBEF0B503AF2DE9FF0DC4698B4641
:104C1000B968064614F001004FF02B0500EB010ABD
:104C200008BF4FF488156007CDE90513079202D439
:104C30004FF0000B05E00BEB0201584600F088F83E
:104C40008244306870B3D6F80480D0452AD9200752
:104C500042D4A8EB0A0130460122012400F01AF9DF
:104C6000B0F5881F2AD0D6E90568824607980C4619
:104C70000090414630462A465B4600F0EAF8E0B92B
:104C8000D8F80C303046DDE905219847A8B95046E0
:104C900021463246434608B0BDE8000DBDE8F0406D
:104CA000FFF794BFD6E905862A460798314600905B
:104CB0005B46404600F0CDF820B10124204608B004
:104CC00001F0DDBDF3684046DDE9052108B0BDE82F
:104CD000000DBDE8F04018473069012403903020F2
:104CE00030615B4696F82000D6E9052102900798CE
:104CF00086F820400090104607922A46049100F062
:104D0000A8F80028DAD1A8EB0A013046012200F009
:104D1000C1F8B0F5881FD1D0DDF810A08846079CF7
:104D20000546DDE90521DAF80C30204698470028D1
:104D3000C3D12846414622465346FFF747FF002885
:104D4000BBD10298002486F8200003983061B5E7B3
:104D5000F0B503AF2DE9F00D091A102962D3C21C7A
:104D600022F00302121A8E1AB5085BD000EB020B78
:104D7000594600F037FA044626F00300584406F07E
:104D80000301014400F02EFA00EB0408002D5CD072
:104D90006C462B46204659462A46C02D28BFC023C4
:104DA00000F00CFA9DE8060822F003032046039D5C
:104DB00000F004FADDE900210023DDE902EC02EB5A
:104DC0008106B24211D0002104290CD052F82100F2
:104DD00001316FEA000A4FEADA1444EA901020F039
:104DE000FE300344F0E71032EBE74FF0FF1000EA2B
:104DF000132123F0FF22BCF1000F114401EB01410C
:104E000008EB1148C2D04FEA8C02002192B15EF843
:104E1000043B043ADD43ED0945EA931323F0FE33E6
:104E20001944F3E7014404B0BDE8000DBDE8F040CB
:104E300000F0D8B94FF0FF1000EA112021F0FF2157
:104E4000084400EB004008EB1048404604B001F075
:104E500016BDF0B503AF4DF8048DD7F808801C4699
:104E60000D460646B2F5881F06D02B69304611461E
:104E7000984708B101200AE044B1EB68304621466A
:104E800042465DF8048BBDE8F040184700205DF80D
:104E9000048BF0BDF0B503AF2DE9000D884690F806
:104EA0002010DFE801F0100B020908F101024FEABF
:104EB00058014FEA520806E0110603D041464FF070
:104EC000000800E00021D0E904A64C1C8569013CE3
:104ED00007D02A693046514690470028F7D04FF452
:104EE000881A50464146BDE8000DF0BDF0B503AF4D
:104EF0002DE9F00D0646D0F8008080688B4692467A
:104F000058EA00014AD040B3F068002103910BEB4E
:104F10000A01CDF804B0451C029101AC013D06D058
:104F2000204600F051F8B1F5881FF7D115E001A82F
:104F300000F04AF8B1F5881F0FD030B1504506D2C5
:104F40001BF9001011F1400F02DB594601E0FCD0C3
:104F5000002100291CBF82468B46B8F1000F1DD0EE
:104F60000BEB0A0158467468FFF7F2FE844215D92C
:104F7000211A30460022FFF78DFFB0F5881F09D0B7
:104F8000D6E905658046EB680C46594652463046E0
:104F9000984770B1012004B001F071BCD6E9050159
:104FA0005246CB68594604B0BDE8000DBDE8F0405C
:104FB00018474046214632462B4604B0BDE8000D56
:104FC000BDE8F040FFF702BED0E900318B422ED0A1
:104FD000F0B503AF4DF804BD1C4614F8011B046086
:104FE0004AB2B2F1FF3F2ADC5D789C1C01F01F023F
:104FF000DF2905F03F0504601CD99E78DC1CF029F0
:10500000046006F03F0646EA851516D3D97802F00B
:1050100007021C1D046001F03F0141EA851141EACD
:105020008241B1F5881F0AD14FF488110BE04FF48B
:1050300088110CE045EA821101E045EA02318268FC
:10504000D31A234483605DF804BBBDE8F0401046EA
:10505000704780B56F46FDF71DFDFEDE80B56F46DB
:10506000FFF7F7FFFEDE80B56F46FFF7F2FFFEDECB
:1050700080B56F46FFF7EDFFFEDE80B56F46FFF7A8
:10508000F7FFFEDE80B56F46FFF7E3FFFEDE80B57B
:105090006F4600F001F8FEDE80B56F46FFF7D9FFDE
:1050A000FEDE80B56F46FFF7D4FFFEDE80B56F46AB
:1050B00000F002F8FEDED4D480B56F4616464FF4F9
:1050C000807298460C46054600F05EF840B9A6424C
:1050D00003D8A04598BF464511D9FFF7BAFFFEDEB9
:1050E0000346A04204D2E85610F1410FEFDC00E085
:1050F000EDD0284621460022FFF7D8FFFEDE2EB174
:10510000A64203D2A85710F1400F00DB46462846BE
:105110002146324600F038F8024638B9A2420CD196
:1051200018482B217844FFF799FFFEDEA24224D2D3
:10513000A85610F1410FF1DC20E0A81890F90010FA
:10514000B1F1FF3FC9DCC9B2E02928BFF029C4D3BF
:10515000427801F007018378C07802F03F0203F043
:105160003F03120300F03F0042EA8312104440EA7A
:105170008140B0F5881FB0D1D2E7CFD02846214674
:105180002346B9E7AB40000080B56F46914210D985
:105190000346D01E38BF0020511C81420BD31A4455
:1051A000091A29B112F90139013913F1400FF8DB5D
:1051B0000144084680BDFFF76AFFFEDED0B502AFAE
:1051C0009A4221BFD21A01EB830480E81A00C26020
:1051D00028BFD0BD024823217844FFF73FFFFEDE01
:1051E000D43F000088420BD0091A0246002012F971
:1051F000013B13F1410FC8BF01300139F7D17047AE
:105200000020704780B56F46FFF723FFFEDED4D441
:10521000F0B503AF2DE9000D8CB0294BA7F13F0E7F
:105220008C4600247B4442F20F7842F2107A4FF011
:10523000640B404516D9B0FBFAF50EEB040105FBF3
:105240001A00043C86B2B6FBFBF606FB1B0033F8E3
:105250001620A1F8232080B233F81000A1F8250011
:105260002846E6E7273463280CD981B26425B1FBD0
:10527000F5F2023C02FB150080B233F810002EF864
:10528000040000E002460A2A05D2601E02F1300145
:105290000EF8001004E033F81210A01E2EF80010D3
:1052A000C0F12701009107490EEB00036046002280
:1052B0007944FFF7A7FC0CB0BDE8000DF0BD00BFBE
:1052C000B04E0000F04E0000D0B502AF0C4699423F
:1052D00001BF11462246BDE8D04002F03FBE204645
:1052E0001946FFF78FFFFEDE0068FEE7D0B502AF7C
:1052F000C0B200239A4204D0CC5C844203D0013374
:10530000F8E7002001E001201A461146D0BDD4D4B0
:10531000F0B503AF4DF8048DD41F4FF00003844661
:1053200038BF1C46C81C20F00300A0EB010E5348F8
:1053300078448046934280F08780CE5C70B2B0F1B2
:10534000FF3F17DDAEEB0300800702D00133F1E72A
:105350000833A34208D2CD18C8586D68284310F00E
:10536000803FF5D000E001339342E3D2C8560028D5
:10537000F9D5DFE7454618F80650022D0FD0032D6A
:1053800015D0042D66D15D1C954261D24D57F02E8B
:105390001AD0F42E1ED115F1710F25DD5AE0581CDC
:1053A000904255D20D5615F1410F4BDD52E05D1C78
:1053B00095424DD24D5DE02E25D06DB2ED2E27D118
:1053C00015F1610F37DD45E005F17000C0B23028FE
:1053D0000AD33FE00F300126C0B202283BD815F1B6
:1053E000400F4FF001003DDA981C904230D2085631
:1053F00010F1410F31DCD81C904229D20D5615F125
:10540000410F1FDD2CE005F0E000A02813D021E0C3
:1054100000F11F06F6B20C2E03D215F1400F0ADB85
:1054200018E020F001000126123014D115F1400FD0
:105430004FF0010016DA981C904209D20D5615F172
:10544000410F0ADC431C75E7CCE9011200200FE094
:10545000002007E00126012004E00120022601E0EF
:1054600001200326F1B240EA0120CCE901300120FD
:10547000CCF800005DF8048BF0BD00BFCA3E000010
:1054800099421CBF00207047D0B502AF0C461146B0
:10549000224602F05FFD01F03CFAD0BDF0B503AF4B
:1054A0002DE9000D90B04FF0000A0A239046CDE997
:1054B0000DA201220791CDE90A820A46CDE9051322
:1054C000002401684FF0000B029141688068ADF83C
:1054D0003CA00C93CDF820800191039006A81830D1
:1054E000009000200490BBF1000F40F08F80A04599
:1054F0005AD30598A8EB040B0619BBF1070F07D880
:1055000000218B454DD0705C0A2835D00131F8E779
:10551000F01C20F00300B04201D100250AE0851BF9
:1055200031465D4528BF5D460A202A46FFF7DEFE6C
:10553000012821D0ABF10800854214D8715981F0BF
:105540000A32A2F1013222EA01017219526882F094
:105550000A33A3F1013323EA0202114311F0803F21
:1055600001D10835E8E77119ABEB05020A20FFF716
:10557000BDFE012815D129440819441C0994B6D050
:105580004445B4D805990123009A08440121FFF746
:1055900077FF0028ABD04FF0000B264625460D9430
:1055A0000FE0CDF824804446049878BB0121012007
:1055B000049056468DF83D10C2454FF0010B45460C
:1055C00024D00398007838B101980422C3681149A7
:1055D000029879449847B8B90598B5EB0A0200EBF0
:1055E0000A0101D1002005E0501810F8010C0A381A
:1055F00001F08FF9039B18700198C36802989847CF
:105600000028B2463FF46FAF012000E0002010B048
:1056100001F035B91E380000F0B503AF4DF8048D28
:1056200084688846D0E90056207850B1F36828464F
:105630000A4904227944984718B101205DF8048B87
:10564000F0BDA8F10A00414601F063F92070284638
:1056500032695DF8048BBDE8F0401047BC370000AC
:10566000D0B502AF04460079617911B128B10120AB
:1056700015E0002818BF0120D0BD2068017F490730
:1056800006D4D0E905010222CB680649794405E039
:10569000D0E905010122CB6803497944984720717C
:1056A000D0BD00BF7C3C00006D3C00000A460249B2
:1056B0007944FFF7E4B900BF603C0000D0B502AF09
:1056C000044600F0A8FB08B900F0AEFB00F0A3FB15
:1056D00028B32046042100F09AFB20780528F5D154
:1056E000E178207940EA51024908227118B169B184
:1056F000032909D013E0032911D80020DFE801F0C5
:10570000020E110420710AE00220D0BD00210428FD
:10571000217104D20449C00021FA00F0D0BD062056
:10572000D0BD0120D0BD00BF06030405F0B503AF16
:105730002DE9C00D0446007DDFE800F0020B1B2AB6
:105740002046032100F097FA2069002853D02F4902
:1057500009E0D4E900012322012300F00BFA2069BB
:10576000002848D0284900906846019100F02DFBA0
:1057700041E0D4E900010722012300F0FBF9D4E95C
:1057800002844FF0150A11254FF0000B00222AE089
:1057900020460121BDE80C0DBDE8F04000F06BBAD9
:1057A00002F111062346A64238BF33469A4225D855
:1057B00022B118F9021011F1400F1FDBB44204D9D5
:1057C00018F9031011F1410F18DD00EB0B0108EB84
:1057D00002005246002300F0CDF9ABF1110B113558
:1057E0000AF10E0A3246AC42284638BF2046332A18
:1057F00018BF9442D4D8BDE80C0DF0BD40462146F8
:10580000FFF754FCFEDE00BF3900110039000A002A
:10581000E0B502AF009040300190684600F0CBFA4E
:105820008CBDD4D4F0B503AF4DF804BDA2B004468E
:1058300000F0F1FA08B900F0F7FA01AD802101F0AB
:105840007DF800F0E8FA38B32846802100F0DFFA4E
:105850009DF80400BDF8056000F06AF8C0B20F289A
:1058600011D016280AD01028EBD130BA000C02282B
:10587000E7D92046294600F091F8E2E7204629467C
:1058800000F064F8DDE7B0B2B0F5807FD9D19DF8C3
:10589000070000F0BDF8D4E71B4D19F805000728F4
:1058A0001ED00A2823D1B4F80801532107F8131C8D
:1058B00000BA010E000C07F8120CA7F1130007F84C
:1058C000111C032101F046FCD4F8081100202246E7
:1058D0004FF4827300F01CF889B201F03BFC06E043
:1058E000B4F8081122460948784401F095FB09EB09
:1058F0000501002009F80500C4E9410088714880CD
:1059000022B001F02AB800BF042000008514000076
:1059100080B56F46814207D399429FBF0244091A5E
:10592000104680BD08461946FFF7B1FBFEDED4D411
:105930000138C1B2172984BFFF207047024940B225
:105940007944085C704700BF17490000B0B502AF4A
:10595000044611480A4619F8001001B1B0BD0A21E9
:105960007D2509F80010484406218171B2F8011024
:1059700009BA0B0C7D2B38BF0D0CE91C45800320A8
:105980008023FFF7C5FF02460B4620462946BDE8A7
:10599000B040FFF799BC00BF04200000DCB504AFA5
:1059A0000A79012A1AD0CB78022A03F07F041CD08E
:1059B000042A28D1062C26D2134A00904A441348C0
:1059C00022444B79484413734FF48272ADF804209B
:1059D0008A1D6B46214601F0BDFCDCBD0B4806313B
:1059E0004844BDE8DC4001F08ABC062C0BD20648D6
:1059F0000022484400EB440042828A1D03482146AD
:105A0000484401F0F4FCDCBD0420000078200000D4
:105A1000D0B502AFFFF78CFFC0B20138072814D809
:105A2000DFE800F00414131A1313132013480121A4
:105A300009EB0004204601F05DFD204601F041FD28
:105A40000F4809EB0001897991B1D0BD0B4848445A
:105A5000BDE8D04001F055BD08484844BDE8D040FD
:105A600001F04BBD05484844BDE8D04001F047BDBA
:105A7000484412210C3002F099FAD0BD7820000081
:105A800004200000D1F80431042B05D10C4A002178
:105A90007A44C0E9002170470A7912B1052300F069
:105AA00036B8052BF2D0062B05D10021016046F651
:105AB000036181807047B1F80520072300F027B803
:105AC0001047000080B56F46D0F808219308402B9E
:105AD0009FBF0B0A8354D0F80821013298BFB2F55A
