:02000004C0D06A
:1000000080B500AF01F05EFD012001F026FBFEDEB1
:10001000FEB506AF81204100684681820121029130
:10002000054A049204220192044A7A44009201F0A3
:100030000BFD06B080BDC04680000B00BA3000004A
:10004000D0B502AF8CB06846022181858122520072
:10005000828201220892094B0A9305240794084CD6
:100060007C4406940493029208220192054A7A4441
:10007000009201F0E9FC0CB0D0BDC04680000B003E
:100080006F30000059300000D0B502AF8CB0684628
:100090000221818581225200828201220892094B2D
:1000A0000A9305240794084C7C4406940493029216
:1000B00007220192054A7A44009201F0C5FC0CB077
:1000C000D0BDC04680000B00333000001E30000061
:1000D000FEB506AF01900078012634462B2817D0D4
:1000E0002D2815D000221446561E701E8641012A66
:1000F0000ED001980292805C0A25294600F0FFFC90
:10010000002804D065436C18029A521CECE70124C5
:100110003046214603B0F0BDE0B502AF002801D162
:1001200008468CBD0348784401A9034A7A4401F08B
:1001300060F8FEDE063200006C2F000080B500AFD4
:10014000C6B0FF21123101AC204602F0D1FD0720DC
:100150004103204601F0ABF9002001F07EFAFEDEFB
:10016000D0B502AFC0B2002806D0012807D00228BF
:1001700013D10D4C7C4404E0094C7C4401E0094C53
:100180007C4401F0B7FA0948784401F0ADFB084817
:10019000784401F0A9FBA047D0BD00F07CFDFEDE55
:1001A000C3FEFFFF05FFFFFF99FEFFFF9831000030
:1001B00086310000F0B503AFFFB0FFB093B0FFA8E9
:1001C00024302390FF21123125AC204602F090FD0F
:1001D00000252846FFF7C4FF432080002018249004
:1001E000412080002190201820906FA8C11C03227C
:1001F00008929143091A11916FA90A4608320E928A
:100200000A4649320B920A4648320A9294AA521D73
:100210001992C8AA134649331893134648331793C3
:10022000C8AB5B1C0793C8AB1B1D0993091D0D913F
:10023000B7A9491C1691111D1591C8A9491C069111
:10024000401C1090C8A8401C0F90C8A82C301290D9
:10025000092005900003149001200C90C14E1F95B9
:10026000139520E000F0DFFF002801D100F0E3FF4C
:10027000C8AC8021204600F0CFFF6578A478C898EC
:1002800000F0BCFFC0B201460E3908291ED820027A
:100290004019C0467944097949008F44040D233040
:1002A000303030302C00C8A8802102F021FD1F988A
:1002B000B07130707080D5E70121090280B28842A8
:1002C0001DD1C8A8C07800F0C9FF18E0052816D1D4
:1002D000C8A8C0784108249801F042F8C0B20628A6
:1002E0000DD034E100BA000C022808D925A8C8A90D
:1002F00000F0E6FF03E025A8C8A901F015F8307862
:100300000028AFD070880028ACD02099086025A8BC
:100310004478032C00D35BE36AA8142102F0E8FCC4
:10032000002C00D19CE0012C00D0C0E0C8A825A979
:1003300001F0DAF8C898002800D104E1C9996AAA46
:1003400001F0A0FB002800D114E125A88578002D3C
:1003500000D1ADE1C078294602F0ADFC1D911E959B
:10036000C8AC6AA9204600F06BFB2078202800D199
:10037000A7E11C90C8A84188229140781B90A6AEA6
:100380004425304615992A4602F0A3FC189A907825
:10039000A5A9887010785278120210180880179852
:1003A000047894A831462A4602F093FC2026169839
:1003B0001999324602F088FC01201A940440A11CCD
:1003C000B7AA11700102C8AC204602F096FCC0A882
:1003D000314602F08DFC2198011F204602F030FCCE
:1003E000002800D0E4E2002500950195C8A8B7AA2E
:1003F00021242946234602F035FC23990860002871
:1004000000D0D9E20196C0A80090C8A80126002516
:1004100031462A462B4602F025FC239948600028E5
:1004200000D0CDE2D748202D05D0C0A9495D60435A
:1004300040186D1CF7E7304300BA010A020C4A402D
:10044000010E51404140C8B21E9902F034FC1D9883
:10045000814200D138E16E98401C6E90414E7FE79A
:10046000EF4878441E90EF4D7D44A8472291012625
:100470003040EF4C7C44A047EE487844A8471D919B
:100480003040A0471E98A8470D463040354EA04743
:10049000C8A98D701D9848702298087025A803225D
:1004A00001F064F825A8149901F001F8FBE6C8A84A
:1004B00025A901F019F8C898002844D0C9996E25DB
:1004C0000124342900D030E214216AAA1D9001F0E1
:1004D000D9FA002800D128E201F00CF9C8A80025BB
:1004E0000571C895D44878440F21229101F00CF988
:1004F000C8A801F0E2F8C0B20628F9D0C01E022850
:10050000F6D8C8A840211E9102F0F2FB1D981430C5
:100510001D90402D31D001784E0930225723052EF1
:10052000164600D31E460C093419C8AE7455229CD9
:1005300021400A2900D31A46511872195170401CE3
:10054000AD1C084EE5E7C8A88488250AEDE105281A
:1005500000D9A8E6784400794000874406CA05CF50
:10056000D2DDC046000200209DE6B448784401F088
:10057000BBF998E66E250124D7E1C89C3F2210986C
:100580000F9902F0A1FB6FA804700020119DAC4BE5
:100590003F2800D9C6E06FA90A5C51B2002919D4DE
:1005A000691C02D0291A890702D0401CF0E70830E4
:1005B000392808D26FA90A58091849681143194205
:1005C000F5D000E0401C3F28E2D86FA90956002969
:1005D000F8D5DDE79B4B7B449B5C042B08D0032BB9
:1005E00017D0022B00D081E03F287FD2401C57E07B
:1005F0003E287BD86FABC31801241B57F02A14D0B8
:10060000F42A17D17021C9438B426FDC3D281BD9D6
:100610006CE03F286AD26FABC3185B78E02A23D026
:10062000ED2A5AB225D1602134E07033D9B22F2996
:1006300008D95BE00F31C9B2022957D81E99C943C6
:100640008B4253DC3E2851D26FA9411802228A56B0
:100650001E99C9438A4249DC3C2847D8C01C6FAA6E
:1006600012568A4222DD41E0E0210B40A02B14D03B
:100670003CE00B461F33DBB20C2B06D21E99C9435C
:100680008A4233DC3D280AD930E0C9B249087729CB
:100690002CD11E99C9438A4228DC3E2826D2801CD0
:1006A0006FA909561E9AD24391421FDC401C6EE787
:1006B000C8AC6AA9204600F0C3F92478202C00D0E9
:1006C00002E1C8A8448840E7A6A944220D9802F098
:1006D00000FB0A981A990170A5A903220B9802F051
:1006E000F3FAC34E1C9C22991B9DF7E06825022457
:1006F0001BE1D048784401F0F7F8D4E51398801C4A
:1007000001E01398401CC0B2032102F0D4FA08465D
:100710001391FFF725FDC6E51398C0B2022800D05B
:10072000C1E55BE100F0E6FF94A800240471042019
:100730001C90B7909494C8A802212291818201262E
:10074000CA96AC49CC91C994AC497944C891B7A92F
:10075000A991A8901E98A7906FA8A690A6A8214638
:1007600000F0F6FF94A800F0A8FFC0B20628F9D068
:100770000528F7D87844007940008744060B051F08
:100780001027C04605150000ECE79D48784401F0AD
:10079000ABF8E7E79B48784401F0A6F8E2E79B480E
:1007A000784401F037F9651CB798854200D3254697
:1007B000A6A8294600F0CCFF2C46D3E792487844FF
:1007C00001F028F9641EC9D20024C7E700F092FFA7
:1007D0006FA8002101711E916F91129822990180DA
:1007E00081204100C8A88182D096824BD2930621F5
:1007F000CF91874A7A44CE92CC93CA96C9918549C3
:100800007944C89100F08EFF0C9D6FA800F055FF51
:10081000C0B20628F9D004A1085C40008744C04655
:100820009C2C000065FCFFFF142219273842C046AB
:10083000A1FCFFFF852C0000C22B0000A02D0000B2
:1008400080808080E72B00007348784401F04CF8EA
:10085000DBE77348784401F0DDF87248784401F032
:10086000D9F8D2E76D48784401F03EF8CDE76E48FC
:10087000784401F0CFF8002512984570C8AC667531
:100880000221204601F0E0F8204600F04BFFBCE7D3
:100890006648784401F0BEF812984670C8A8002156
:1008A0004175AFE7E807524E75D06FA86AA900F00E
:1008B000B6FE70982128089C19D330281C9C16D9A4
:1008C000412813D3059C12E0C8A84188229145789D
:1008D00048220D98099902F0FCF922996FA84180ED
:1008E0004570047025A841220E99D9E50524C8ADAC
:1008F00048262846314602F0FBF994960020A6903F
:10090000A6A8039094A802900195202000906FA8BB
:10091000394922461D9B02F099F9002819D06FA889
:1009200000F0D6F868250B24314E209B5868219999
:1009300088423AD225AA15545868401C884234D2BD
:1009400025A90C545868801C5860084600F032FDF8
:10095000A9E4C898229082AD4726284607993246D6
:1009600002F0B2F9949C6FA800F0B2F830487844D5
:100970000A2100F0C9FEC8A82299017006982946EC
:10098000324602F0A1F9492C2CD225A8C8A922464A
:1009900000F0ECFD164E25A8149900F088FD1E9C71
:1009A0002046FFF7DDFB13947DE400F00CFCFEDE37
:1009B0002248784420210EE00D61FFA8243002E097
:1009C0000D61FFA82830FFA92C3100F08AF8FEDE67
:1009D000194878440E2100F063F9FEDE002000F093
:1009E0003CFEFEDE4821204600F0D4FBFEDEC04681
:1009F0000002002080000B0001060000E22B000036
:100A0000802B00006C2B00004E2B0000622B00009E
:100A1000C3280000D42A00009A2A0000742A00008B
:100A20009A2A00009C2A0000742A0000482A00002C
:100A30004F2700000E2C00001E2700004E2700004C
:100A4000F0B503AFB1B0019014AE304600F0E7FD51
:100A5000307800901EAD284608304124214602F02F
:100A600047F9009828701F9401232946324602F066
:100A7000F3F8002803D000F093FDC4B20AE0291D6A
:100A80001EA846884478057802A8482202F021F979
:100A9000202D08D16E202043019E708014A800F004
:100AA00017F820250CE00096019E301D02A948226F
:100AB00002F00FF914A800F00BF800987080747021
:100AC000357031B0F0BD80B500AFFFF737FBFEDE0B
:100AD00008300021202903D000224254491CF9E7A4
:100AE000704780B500AF88B002AC1822204602F0F3
:100AF000EBF8684601A9224600F0D7F8FEDE80B583
:100B000000AF0346303B0A2906D9242915D80A2B01
:100B10000AD201201A4605E01A468A4201D3002073
:100B200000E00120114680BD024620200243613AC8
:100B30000A32F2D30020C243EFE700F0ACF8FEDE49
:100B40000068FEE7F0B503AF8FB0202406AD0323A5
:100B50002B5513460D9400260C960A9606AC43C4FA
:100B60001468002C049240D020351F20C00659681C
:100B70004A0105928143019102950598002857D0BA
:100B8000986881194A68002A07D081590798C36874
:100B900006989847049B00285AD12046203003909D
:100BA000207F2870A0690D9060690C901D69214616
:100BB0000C31284600F052F809910890211D284672
:100BC00000F04CF80B910A902068C1006858691831
:100BD000029D4A6806A99047049B0836059920396A
:100BE00005910028039CC8D032E0072040071C690B
:100BF0005969CA0005928143019100250598A842D0
:100C000016D0986841194A68002A06D041590798B9
:100C1000C3680698984700281AD12646083605CC9E
:100C200006A99047049B083500283446E6D00FE01B
:100C3000D868019981420DD20198C0009A68115874
:100C4000101842680798C36806989847002801D092
:100C5000012000E000200FB0F0BDD4D4D0B502AF29
:100C60000B68002B0CD002460020012B0AD14968EA
:100C7000CB00D1184968064C7C44A14203D0D0BDBA
:100C8000081D01E0D0BDD05801680120D0BDC0468C
:100C9000C5FEFFFF704780B500AFFFF714FFFEDE13
:100CA00080B500AFFFF7F7FFFEDE80B500AFFFF7BE
:100CB000F2FFFEDE80B500AF00F002F8FEDED4D415
:100CC000E0B502AF1D4616460C4601210A0201900E
:100CD000214600F069F8002808D1A64203D8A542B1
:100CE00001D8AE4213D9FFF7D6FFFEDE0346A0427D
:100CF00006D20198C0564021C9438842EDDC00E08D
:100D0000EBD0002201982146FFF7D4FFFEDE002E33
:100D100010D12E4601982146324600F045F8024691
:100D2000002810D1A24217D11E4878442B21FFF78A
:100D3000B7FFFEDEA6422DD2019880573F21C9435E
:100D40008842E6DAE6E7A24226D2019880564021A0
:100D5000C9438842E6DC20E0019880180021415612
:100D60000029C0D5C9B2E029BDD3F029BBD3427850
:100D7000C3783F241C409206920B80788006000DB9
:100D8000101800194907C90A40181121090488429E
:100D9000A9D1C9E7BDD0BDE7C4D0019821462346FB
:100DA000B2E7C04666240000D0B502AF914215D923
:100DB0000346D01E00D20020511C814210D31C18C3
:100DC0005918091B9A18002907D00023D356521E20
:100DD000491E3F24E443A342F5DB09180846D0BD71
:100DE00000F0D8F9FEDED4D4F0B503AF93B004928E
:100DF00005910A2110910168019141680091806874
:100E000002900024039407940694002C049A079DF2
:100E100000D08FE0AA4202D30598441900E00024D4
:100E2000561B55D3072E07D800218E424FD0605C49
:100E30000A283CD0491CF8E70795E01C03218843A9
:100E4000A04201D100250AE0051BB54200D335467A
:100E50000A2021462A4600F0BBF9012825D0304659
:100E6000083808900898854215D8615936480246D6
:100E70008A43344B5940354BC918114062195268A6
:100E8000034693432F484240304812181A400A4301
:100E900001D10835E6E7AE424FD36119721B0A2033
:100EA00000F096F9012811D14919049A079D4819B3
:100EB000451CAFD09542ADD80599085C09A9097FBA
:100EC0008842A7D100242E4607950CE0049A1546C7
:100ED000039800282ED1069890422BD00795012424
:100EE0001646069D039402980078002808D00098C2
:100EF000C36817497944042201989847002817D1FC
:100F0000069BF21A0598C1189E4201D1002005E007
:100F10005018401E03780A3B58425841029B1870F3
:100F20000098C368019898470028069500D16CE79F
:100F3000012000E0002013B0F0BD2846314600F04B
:100F400029F9FEDE0A0A0A0A80808080FFFEFEFE82
:100F5000EC210000DCB504AF00220192802903D20D
:100F600001AA117001222FE0CA0A0AD13F220A40C9
:100F7000803201AB5A708909C0220A431A700222DA
:100F800022E00A0C0ED13F220A40803201AB9A7057
:100F90000A0BE02414431C700905890E8031597036
:100FA000032211E03F230B40803301AAD3700B05CD
:100FB0009B0E803393708B039B0E80335370C9025A
:100FC000490FF0311170042201A9FFF70DFFDCBDBC
:100FD000D0B502AF88B0019002AC1822204601F0D3
:100FE00073FE01A8034979442246FFF7ABFD08B020
:100FF000D0BDC0465E21000080B500AF0068FFF79D
:10100000F3FE80BD80B500AF0068FFF7A3FF80BD91
:10101000B0B502AF86B004686D461822284601F0CC
:1010200053FE20462946FFF7D3FF06B0B0BDD4D407
:10103000F0B503AF87B00C46019003C90291CB68AD
:10104000334979440D2206461D4698470121002860
:101050004BD10091207E400720D42E4979440322B1
:101060003046A84700283FD12B4979440422304616
:10107000A847002838D12949794402223046A84798
:10108000002831D101983146029A00F057F8002823
:1010900000992AD122497944022235E02149794434
:1010A00003223046A84700281ED106A8012101705E
:1010B000059002980490039603A81B4979440422E2
:1010C000FFF792FE00280FD103A8184979440222A5
:1010D000FFF78AFE002807D103A9154A7A44019830
:1010E00000F02CF8002803D00099084607B0F0BDA6
:1010F00003A8104979440222FFF776FE00280099E0
:10110000F3D10D49794401223046A8470146ECE766
:101110001A210000E120000082200000432100008D
:10112000AB2000009A20000030200000EF200000DB
:1011300044200000472000003C200000B0B502AF72
:101140000B4600780E4979440524C046784400795E
:1011500040008744100206090D000A4979440C2416
:1011600009E00949794401E0084979440B2402E087
:10117000074979440424D56818462246A847B0BDDB
:10118000452000002320000010200000FF1F000069
:10119000761F000080B500AF00F001F8FEDE80B5DC
:1011A00000AFFFF778FDFEDED0B502AF0C469942E6
:1011B00004D11146224601F087FDD0BD20461946D4
:1011C00000F001F8FEDE80B500AFFFF764FDFEDE43
:1011D000B0B502AF0B46C4B2002001468A4204D02B
:1011E0005D5CA54203D0491CF8E71146B0BD012063
:1011F000B0BD80B500AFFFF74EFDFEDE401EC1B2B0
:10120000172904D840B203497944085C7047FF208D
:101210007047C0464F21000080B500AF89B2002260
:1012200001F0E4FC80BD80B500AF01F0D5FC411EAB
:101230004842484180BDE0B502AFFFF7F4FF002807
:101240000BD1684600210171C17002228270417089
:1012500060210170052101F0B5FC8CBDD0B502AF55
:10126000FFF7CCFFC0B2401E072813D8784400799E
:101270004000874403100F140F0F0F180E4C01216C
:10128000204600F08BFF204600F068FF0B48817974
:1012900000290CD0D0BD084800F087FFD0BD06481B
:1012A00000F07FFFD0BD044800F07DFFD0BD0C30C2
:1012B000122101F01DFDD0BD7402002000020020AB
:1012C000DCB504AF0A79012A17D0CB787F241C4003
:1012D000022A17D0042A14D1052C12D8104A121948
:1012E0004B791373412292006B469A8000908A1DBD
:1012F0000C48214600F06CFEDCBD891D094800F059
:1013000039FEDCBD062CFCD26000054A1018002214
:1013100042828A1D0348214600F0B5FEDCBDC0466E
:101320000002002074020020D0B502AF0B4A1378EF
:10133000002B00D0D0BD062393710A2313704B7885
:101340008C782402E3181BBA1B0C7D2B00D37D2361
:101350005380CA1C1946FFF727FFD0BD00020020AA
:10136000027913460B430371CBB2002A04D0002B41
:1013700011D0032B0DD016E0032B14D80021C0464A
:101380007B441B795B009F44010F11040021017114
:1013900009E0022108E000210171032A03D8D000EE
:1013A0000349C14000E00621084670470121FBE7E0
:1013B00006030405F0B503AFA1B004464120850043
:1013C000FFF731FF002801D1FFF735FF66196846A6
:1013D000802101F08DFCFFF726FF00282AD06D4602
:1013E00080212846FFF718FF6878A97809020D18B0
:1013F0000098FFF703FFC0B20F2811D016280AD0BB
:101400001028E8D128BA000C0228E4D96946204601
:10141000FFF756FFDFE769462046FFF785FFDAE76B
:1014200001200002A9B28142D5D16846C078FFF7F9
:1014300015FFD0E7134D2878072816D00A281AD1AF
:10144000B18820A85322027009BA0A0E8270090CD2
:101450004170032101F0B6FB71680020224600F0C4
:1014600015F889B201F0AEFB05E0B1880648784472
:10147000224600F0D1FC002030607060287021B05E
:10148000F0BDC046000200207B07000080B500AF21
:10149000814209D341239B00994203D81218091AAB
:1014A000104680BD08461946FFF774FEFEDEB0B553
:1014B00002AF2122D40003599D0841229200402D01
:1014C0000DD804190D0AC55423685B1C934206D23B
:1014D000C1542168891C2160FFF76CFFB0BD18461C
:1014E0001146FFF770FEFEDE80B500AF412292008C
:1014F0008B58042B05D100210E4A7A4402604160CA
:1015000080BD0A79002A03D0052300F015F880BDBC
:10151000052BF0D0062B04D1002101600449818005
:1015200080BD4A798B791B029A180723EDE7C046E4
:10153000016E0000321E0000B0B502AF0446002A62
:1015400006D00D469918412080002858814204D9C0
:10155000002020600448A080B0BD18462A46FFF74E
:1015600095FF03C4B0BDC046016E0000F8B504AFDE
:101570002123DB00C51841239B00002A0AD02C68D8
:101580009C4208D20E7806552C68641C2C60521EB2
:10159000491CF2E7F8BD20461946FFF714FEFEDEAF
:1015A000014602467F321020222A17D87A44127947
:1015B0005200974418111A1C1E20222426282A2C77
:1015C000313131313131313131313131313131310B
:1015D00031313131312E3000022070470A46BF329E
:1015E0001BD0DF3118D10020704703207047042042
:1015F0007047052070470620704707207047082075
:101600007047092070470A2070470B2070470C2054
:1016100070470E2070470F2070470D207047F0B5BF
:1016200003AF8DB00191029003AC2546083520260A
:101630002846314601F05CFB2120207004960021F1
:101640000091052201992B4601F0A0FA2822029868
:10165000214601F039FB0DB0F0BD80B500AFC0B23E
:1016600001F0A4FAFFF717FBFEDEC0B2002804D099
:10167000012804D17E20401A704702207047802044
:10168000401A40087047D4D4D0B502AF830002A4FA
:10169000E358E3189F46C0462000000010000000F9
:1016A000180000001E0000002020801A4008D0BD55
:1016B0002020801AD0BD0846D0BDD0B502AF044668
:1016C000FFF7B1FD002801D1FFF7B5FDFFF7ABFD36
:1016D00000280DD004212046FFF79EFD2078052824
:1016E000F4D1E07841082046FFF73AFEC0B2D0BD01
:1016F0000620D0BD80B500AF0248784400F0C8F89D
:1017000080BDC046C61B0000BCB504AF0C460546F4
:10171000FFF7F0FF0020009001222846214600F04C
:1017200089F8BCBDD0B502AF0446FFF7E3FF022144
:10173000204600F089F90448784400F0D5F80348C1
:10174000784400F0D1F8D0BDB61B0000B81B0000F3
:10175000F0B503AF8BB00B4641681A011446103444
:101760008C42059400D3059104930568059B934230
:1017700055D3002A0BD08A4207D2AB5603933F239E
:10178000DB43039E9E4202DA49E0914247D1059B2A
:10179000002B07D0A14205D9059BEB564024E4431A
:1017A000A3423CDD03908468207D01920295258A46
:1017B0002946FFF75AFF0090668AA068E168324622
:1017C000FFF762FF06A9CE818D81488100980881CC
:1017D0000120000208821448079000200690084665
:1017E00000F056F801990598401A029A51182160A4
:1017F0006060049D002D03D00D48784400F074F81B
:10180000681C0399C9680968884203D2074878446C
:1018100000F06AF8204600F093F80BB0F0BD2846BF
:10182000059BFFF747FAFEDEFFFFFF00081B0000E5
:10183000261B0000F0B503AF87B001AC0225A582DE
:1018400004930392084C059402910190BD68002D09
:1018500005D081256D0001AEB58201AD1FC501A87F
:1018600000F06EF807B0F0BD80000B00BCB504AF0F
:10187000044601A81C258570002141706521017076
:10188000032101F09FF92046294601F09BF9BCBDD8
:10189000D0B502AF88B00446FFF7C5FC002808D0D9
:1018A0000020049003900290019001A81021FFF7FE
:1018B000B3FC01A8002181760183418103210170DD
:1018C000617C0173E1890181A189C1806189818085
:1018D00021894180217C417006CC06920591FFF759
:1018E000C5FF08B0D0BDD4D4D0B502AF88B004468F
:1018F000FFF799FC002808D0002004900390029084
:10190000019001A81021FFF787FC01A800210183A5
:101910000173418105220280227A8276E288028167
:10192000A288C28062888280228842800691034910
:101930000591FFF79BFF08B0D0BDC046FFFFFF0039
:10194000F0B503AF8DB00546FFF76DFC002808D059
:101950000020089007900690059005A81021FFF739
:101960005BFC6E68287D697D00910024029001284F
:10197000204604D1072171430120FFF776FE019034
:101980000396A868E96804956E8A3246FFF77CFEE4
:1019900005ADAC760099002901D01B4900E019493A
:1019A00029832C736C812E810299022903D0062190
:1019B000039A514301E08021039AE98001996980EB
:1019C000072129803018401EA8800A940F480990EA
:1019D00010461C3001BA16460A0E0CA88270090C7B
:1019E0004170652101700321094C7C44A0471C21F2
:1019F0002846A0470498006800F02EFAB1B2A0472C
:101A00000DB0F0BD0A80FFFF0880FFFFFFFFFF0061
:101A1000D7110000FEB506AF0146C28801A8C281F9
:101A20008A8882814A8842810988018101210902CC
:101A300001820449029100210191FFF729FF06B0BC
:101A400080BDC046FFFFFF00F8B504AF0C46054659
:101A500018214C43204601F01BF90D22424301207E
:101A6000FFF712FE0646002C0BD003CD6A7B0092D6
:101A700003223346083DFFF7DDFE183C0D361835CE
:101A8000F1E7F8BDF0B503AF142911D10023142BF1
:101A90000ED0C45CC5186E7836023419AE783604A0
:101AA000ED782D06AD192C1924BAD4501B1DEEE784
:101AB000143948424841F0BD044601F0A3F82146DC
:101AC00000F056F870B58CB062B60024204601F0E4
:101AD000A3F8204D6E46304600F03EF8B08580B247
:101AE000052824D0002828D1684601F095F80A90EE
:101AF00001F040F80D2828D22021284601F0F8F8FE
:101B000000F020F9002000F091FF012000F08EFF8E
:101B1000FEF750FB01F076F86946884202D10A9838
:101B200001F07AF86846808D0028D3D010E068462E
:101B300084850A9801F070F8CCE7684684850A9895
:101B400001F06AF820460CB070BDFF2001F02EF8BD
:101B5000FFF7B2FF00020020F0C041464A4653465C
:101B60005C466D4676467EC02838F0C80020704737
:101B700010307CC890469946A246AB46B54608C888
:101B80002838F0C8081C00D1012018477F210140E7
:101B9000052903D802484018007B70470020704791
:101BA000000200207CB5FF2A1DD815460E460446CB
:101BB000684642712021017150210170802121432A
:101BC000C170D11C8170090A4170062100F0FAFF32
:101BD0003046294600F0F6FF6006000E024908185C
:101BE0007D21090141827CBD0002002080B50A46AA
:101BF00001468220FFF7D6FF80BDD4D4FEB5029205
:101C000004469888019018680090484FB9420FD058
:101C10000D46464E40273046394601F064F8029A98
:101C2000402A00D33A463046294601F057F83F4F44
:101C3000B878002822D0012829D002282ED00528E3
:101C400063D13879F97809020818394C21680025E0
:101C5000814261D12068002825D00298401F82B2BD
:101C600034490B68934200D2086881B23B2900D303
:101C70003B2085B230480068791D38E00025BD71F1
:101C80007D713D71FD7040213846A04744E0F81C4D
:101C9000042100F0EDFF4021384601E023484021B7
:101CA000A047002538E0B879797909020918234856
:101CB00001600168019A91422ED801681D480160B7
:101CC00079783A78120251181D4A11601A49009A1F
:101CD0000A6002680299C91F8BB29A4200D2016859
:101CE00088B2392800D339218DB2F91D00982A46CF
:101CF00000F0F4FF0F480168491B01600E480168BD
:101D0000491901602068401C20600A4800680028CA
:101D100001D0012507E002250548002101600648A1
:101D20000160044801602846FEBDC0462002002034
:101D300060020020680200206C0200206402002083
:101D4000700200200348002101600348016003483D
:101D500001607047600200206C02002068020020D1
:101D6000F8B5274A1568274B1968002921D0002D9E
:101D70001FD00090264C671D3B263846314600F0A8
:101D8000B2FF204A0520A07022480168090A21708C
:101D9000006860701C490868000AE07008682071DB
:101DA0000968106800290CD03B2800D8166838460E
:101DB00012E015480021016011601448017019609B
:101DC000F8BD392801D9392600E016681068000AE4
:101DD00060711068A071E01D2946324600F07EFF58
:101DE000084B009A06491868801B1860A8190860FB
:101DF00005490868401C0860054840219047F8BD27
:101E00006C02002068020020600200200002002016
:101E1000200200207002002010B500290AD0064BD5
:101E200000241C60054B1960054B1A60054A1160BF
:101E3000FFF796FF10BDC046600200206802002038
:101E40006C020020640200207A460249C91C891AEB
:101E5000401A7047491ED0C080B50449884204D357
:101E60000349884201D2FFF7EFFF80BD0000D0C0D8
:101E70008034D0C0F8B5002814D015460E4604466C
:101E80000746DC3745208100204600F031FF002E58
:101E900000D07E61257001203870204600F0A4F942
:101EA0000020F8BD0220F8BDB0B50446DC200121B9
:101EB00021541720C543002D0ED0601943218900FD
:101EC0004058002806D04068FFF7C6FF0246217937
:101ED000204690470835EEE7204600F0B8F9204646
:101EE00000F08CF90020B0BD002A08D00346002085
:101EF000022B03D8DB00C918F423CA507047022014
:101F0000704780B500F089F9002080BDF8B50C4617
:101F100005460026F427032E10D02846314600F04F
:101F20005DFA002807D0E8590068FFF795FF0246E0
:101F30002846214690470837761CECE70020F8BD7C
:101F4000F8B50C4605460026F427032E10D0284687
:101F5000314600F043FA002807D0E8594068FFF7FF
:101F60007BFF02462846214690470837761CECE75F
:101F70000020F8BD70B504460646D4363546143503
:101F8000284600F05AFCD42001212150EE20205A8E
:101F90007060317D1F200840022808D001280BD036
:101FA00000280ED12046294600F023FA0EE02046F4
:101FB000294600F0C1FB09E02046294600F098FBC5
:101FC00004E080200140204600F07CF9002070BD34
:101FD000F0B585B0029303920446DC300490019181
:101FE00000291CD00025F427032D49D0204629467E
:101FF00000F0F4F900280FD0E059806900280BD0D8
:1020000004990978032907D1FFF726FF06462046E1
:102010000199039A029BB04708376D1CE4E72046FC
:102020008030416D03292BD10068E16F81420AD9CC
:10203000091AE167814200D301468AB2204603991A
:1020400000F03DFC1CE00025F426032D15D02046B1
:10205000294600F0C3F900280CD0A05900690028D7
:1020600008D004990978032904D1FFF7F5FE014649
:102070002046884708366D1CE7E7204600F026FC1E
:10208000002005B0F0BDF8B504460746D4370091EE
:1020900000291AD03D460026F427032E5CD02046A6
:1020A000314600F09BF900280CD0E0594069002827
:1020B00008D0297A032905D1FFF7CEFE0246204633
:1020C000009990470837761CE7E7386802283DD129
:1020D000E069256AA84209D9401BE061F96B4919FA
:1020E000F96382B2204600F0DCFB2FE0A66930469F
:1020F000294600F0E0FD00290CD1AE420AD37868F1
:10210000864207D20025204629462A4600F0C9FB10
:102110007D601BE00025F426032D14D020462946BF
:1021200000F05CF900280BD0A059C068002807D047
:10213000397A032904D1FFF78FFE014620468847EC
:1021400008366D1CE8E7204600F0CCFB387B012800
:1021500002D13946002038730020F8BD70B504461E
:10216000DC200121215480204021215021620025C2
:10217000F426032D10D02046294600F02FF9002820
:1021800007D0A0594068FFF767FE02462179204634
:10219000904708366D1CECE7002070BD01740020EC
:1021A0007047002070470020704770B50446DC205F
:1021B000205C032815D10025F426032D11D02046DC
:1021C000294600F00BF9002808D0A059C069002862
:1021D00004D0FFF741FE01462046884708366D1CB3
:1021E000EBE7002070BDD4D402490020086002490A
:1021F000086070478C030020880300201CB501A8EC
:102200000221C17001218170002444704F210170AE
:10221000042100F0D7FC20461CBD7CB56D4600248F
:102220002C710320E8700220A8706C704F262E706D
:102230000521284600F0C6FC0120E870A8706C70EB
:102240002E700421284600F0BDFC20467CBD1CB544
:1022500001A80221C17001218170002444704F2126
:102260000170042100F0AEFC20461CBD7CB5134873
:1022700000240460124804606D46AC71697101214C
:1022800029710420E8700526AE706C704F242C7004
:10229000002A0AD0032A05D0022A05D0012A06D135
:1022A000014602E0022100E0032168468171684690
:1022B000C371082100F086FC00207CBD880300204B
:1022C0008C030020BCB50D466846002444714021B3
:1022D0000171C57003218170447050210170062185
:1022E00000F070FC280601D5064800E004480168AB
:1022F0007F2215400122AA400A4302602046BCBD4D
:102300008C03002088030020BCB50D4668460024DD
:10231000447180210171C570032181704470502186
:102320000170062100F04EFC280601D5064800E0A9
:10233000044801687F2215400122AA4091430160B0
:102340002046BCBD8C03002088030020080601D570
:10235000054800E0034802787F20014001208840C2
:10236000104070478C030020880300201CB568468D
:1023700001710321C17002218170002444704F213A
:102380000170052100F01EFC20461CBDBCB51C469A
:1023900015466846437120220271C17050210170B8
:1023A000D91C8170090A4170062100F00BFC2846F7
:1023B000214600F007FC0020BCBD1CB568464271F8
:1023C00030220271C17003218170002444705021B9
:1023D0000170062100F0F6FB20461CBD022906D83C
:1023E000C9004018F4214058411E88417047002020
:1023F000704780B54A78002A0ED0012A0FD0032AF0
:1024000010D0052A11D0092A12D0082A13D0062A82
:1024100014D100F017F813E000F0FCF810E000F021
:102420003AF90DE000F01AF90AE000F082F807E04E
:1024300000F0A2F804E000F0D6F801E000F054F952
:10244000002080BDBCB50D46044601A800210180D6
:102450002046F0306B881A0A012A26D0022A2DD095
:10246000032A0AD0062A31D0072A16D00F2A30D1E3
:102470000068C06900281AD12BE0D9B2052949D0DB
:1024800001294AD002294BD003294CD004294DD030
:1024900000291ED10068406809E0217C002918D17C
:1024A0004068002815D0006B1EE000680068FFF748
:1024B000D3FC0246207C01A990471AE0406800281E
:1024C00018D0217C00290ED0C06A0DE0217C0029A3
:1024D00004D02046294600F007F9BCBD406800281A
:1024E000F7D0406B00E0806AFFF7B6FC014601A818
:1024F0008847014601A80288002AEED0E888002813
:10250000EBD0824200D3024601A80280204600F0B0
:10251000B2F9BCBD00688069C9E700688068C6E799
:102520000068C068C3E700680069C0E700684069E8
:10253000BDE770B504468888002807D1C888002800
:1025400004D12646DC363078032803D1204600F03B
:10255000CBF870BD88787F250540B57020462946A8
:10256000FFF704FF204600F0B1F9002D01D0022052
:1025700000E00120307070BD70B50D4604468E78C5
:10258000022E1CD2DC20215C2046DC30032906D040
:10259000022914D1002E22D00321017008E0002E60
:1025A00012D06068B0421AD0C1B22046FFF7C8FC12
:1025B000666020463146FFF7A9FC02280FD120466D
:1025C000294600F091F870BD002161600221017080
:1025D00020463146FFF7B4FC204600F077F920464C
:1025E00000F074F970BD80B5CA88012A0AD1DC22D6
:1025F000825C032A09D0022A04D1002181600146AD
:10260000083103E000F070F880BD011D012200F0E8
:1026100032F980BDB0B50446DC20205CFE220240C9
:10262000022A0FD12046DC300121E16025460C351D
:10263000806800280AD0204600F054F9E1680220A2
:10264000084304E0204600F04FF8B0BD0320E060EE
:1026500002222046294600F00EF9B0BDB0B504466E
:102660004888012816D10D46E420012121502879FF
:1026700002280CD8C0002018F4214058002806D0A9
:102680008068FFF7E9FB024620462946904720462E
:1026900000F01CF9B0BDB0B50D460446DC20205C4E
:1026A000FE21014002291AD1688801281BD1204649
:1026B000DC3000218160287902280CD8C000201865
:1026C000F4214058002806D08068FFF7C5FB024679
:1026D000204629469047204600F0F8F8B0BD204635
:1026E000294600F001F8B0BD80B500F0BAF880BD11
:1026F000B0B50D460446DC20205C032816D12879AD
:10270000022813D8C0002018F421405800280DD00A
:102710008068FFF7A1FB0246204629469047E888DB
:10272000002807D1204600F0D1F803E020462946D2
:10273000FFF7DAFF0020B0BDBCB50D4604460979AD
:102740007F200840072804D320462946FFF7CCFF06
:1027500071E0022912D82A7860231340202B0DD172
:10276000CA00A218F423D258002A07D09068FFF7B5
:1027700073FB02462046294690475CE06A78002AAF
:102780000AD0012A11D0032A55D1DC20205C03286D
:102790001AD002280FD0D7E7DC22A25C032A2ED061
:1027A000022AD1D100280BD145E0DC22A25C032A09
:1027B00031D0022AC8D180200A460243802A3AD06A
:1027C0002046FFF77FFD36E06888002807D180208B
:1027D0000843802803D02046FFF774FD2979022999
:1027E00026D8C8002018F4214058002820D080683E
:1027F000FFF732FB024620462946904718E0204664
:10280000FFF7A4FD411E884101A90880022220464D
:1028100000F031F80FE06A88002A0CD1002807D0B8
:102820002046FFF771FD2879022801D8C000D9E7BA
:10283000204600F04BF80020BCBD0A7802704A78B0
:1028400042708A78CB781B029A1842800A794B79B9
:102850001B029A1882808A79C97909028918C18075
:10286000704710B504468021FFF72CFD002120465B
:10287000FFF728FD10BDB0B50C46D421022343500C
:102880008261C2610146D431CC63016A914200D8B1
:102890000A4693B2002529462246FFF777FD2846CF
:1028A000B0BDB0B50C46016A914200D80A4693B259
:1028B000002529462246FFF769FD2846B0BD10B520
:1028C00000242146FFF779FD204610BD10B5D42124
:1028D000042242500024214622462346FFF756FD9B
:1028E000204610BD10B5D4210522425000242146B7
:1028F0002246FFF762FD204610BDD4D40146EC20ED
:10290000064A125C0020002A01D0034600E0092399
:102910000B80002A01D102487844704774020020DD
:10292000580A00000146EC20064A125C0020002AEA
:1029300001D0034600E022230B80002A01D1024887
:102940007844704774020020390A000080B50229DB
:1029500003D103487844FFF703FA002080BDC04646
:1029600095F2FFFF70B502291CD11C4615460221C5
:102970004022FFF722FD0C4EB079002812D1022030
:10298000FFF704F902460A48784429462346FFF730
:1029900035F9022806D1072030700120B0710348B4
:1029A00000687080002070BD0002002064020020DA
:1029B00061F2FFFF12200880014878447047C0464A
:1029C0003A0A000004200880014878447047C04655
:1029D0003C0A00000E200880014878447047C04639
:1029E000300A00000E200880014878447047C04635
:1029F0002E0A00000A200880014878447047C0462B
:102A00002C0A00000E200880014878447047C04618
:102A10000E0A00000E200880014878447047C04626
:102A2000FE090000002008807047D4D4B0B50546E8
:102A3000452084001248214600F05AF911480C3014
:102A4000122100F055F9002D15D00D4D28462146D4
:102A500000F04EF90C497944002428462246FFF73D
:102A600009FA0A4A7A4420462946FFF73DFA2846E1
:102A7000FFF747FAB0BD0248FFF716FAB0BDC046EF
:102A800074020020000200204609000058090000DE
:102A900029210180014878447047C0469A09000006
:102AA0000A210180014878447047C046B6090000F9
:102AB000FEB50E46054602A80024048001A8047055
:102AC00009786020084010D0202837D1707801465E
:102AD0000A39022932D302281BD0032819D02846EC
:102AE0003146FFF701FE022428E070780B2813D04E
:102AF0000A280ED0062821D1F078002421280FD0F2
:102B000022282246214616D102AF3846FFF70AFF97
:102B10000AE001A901220EE02846FFF7D7FE0DE0EA
:102B200002AF3846FFF7EAFE01463A88F088824253
:102B300000D302463A802846FFF79DFE2046FEBDA0
:102B4000F8B5044682210326402532462B46FFF77E
:102B50008DFB02272046394632462B46FFF786FB7F
:102B6000204639462A46FFF728FC0020F8BD002001
:102B70007047D4D4F8B5002002900190024801A912
:102B800000F056F804B080BD3801006010B588B080
:102B90000A9C05940493039202910190024801A9B2
:102BA00000F046F808B010BDBA53006084B00021B0
:102BB00002910190024801A900F03AF8FEE7C046F0
:102BC000BE9A0060F8B5019100900248694600F095
:102BD0002FF88FBD81830060E0B50020019002488E
:102BE000694600F025F88CBDBB840060FEB501ABE2
:102BF00007C3034801A900F01BF880B206B080BDEE
:102C0000E4850060E0B5002001900248694600F0CC
:102C10000FF88CBDB1870060F8B5002102910190DA
:102C2000024801A900F004F804B080BD060B016061
:102C300001DF002900D170470846FEF73DFFD4D4DC
:102C400003B401481DE0C0460900000003B4014878
:102C500017E0C0461500000003B4014811E0C0466B
:102C60001B00000003B401480BE0C0463200000026
:102C700003B4014805E0C0465800000003B4024810
:102C8000FFE702490847C04671000000010012003A
:102C900080B500AF00F086F880BDD0B502AF144615
:102CA00000F080F8002C00D02160D0BD80B500AFCE
:102CB000FFF7F3FF80BD00B581B06A46FFF7F6FF6E
:102CC000009901B000BDFEDE80B500AF00F01AF83B
:102CD00080BD80B500AF00F01AF880BD80B500AFB0
:102CE00000F020F880BD80B500AF00F039F880BD5D
:102CF00080B500AF00F03AF880BD80B500AF00F0BD
:102D00003BF880BD80B500AF00F0A1F880BD80B574
:102D100000AF032A03D908C908C0121FF9E7FFF75B
:102D2000F1FF80BD80B500AF00F0DAF880BD80B55E
:102D300000AF0B4611461A4600F07DF980BDD0B5B4
:102D400002AF1306D2B21404E31814021B199B1825
:102D5000032902D908C0091FFAE7FFF7E8FFD0BD31
:102D600080B500AF0022FFF7E2FF80BD80B500AF65
:102D70000022FFF7E4FF80BD80B500AF0022FFF71F
:102D8000DEFF80BDD0B502AF0246002010231446FE
:102D9000DC40A14200D8C018A14200D822465B08FE
:102DA000F5D1D0BDF0B503AF85B00446884201D25D
:102DB000002148E00E462046FFF7E4FF1F22049062
:102DC0000146114001231846884035468D40611B5D
:102DD000B14202D20C46014635E02C46049D0293D6
:102DE0000392002C04D4009401900C46014614E098
:102DF000640800940C1B2B466B1E1D46039A13405F
:102E0000029A9A40002C019200DA0022002C00DA8B
:102E10000C4611460143B44215D3029A0098121A87
:102E200028462B46039E002B05D06400151900D4BC
:102E30002C465B1EF7E730402246C2400198401EF8
:102E40002040014314460846214605B0F0BDF0B5C8
:102E500003AF86B00F2A0ED94442032304931C40CB
:102E60000346051908460393AB4206D206781E7046
:102E7000401C5B1CF8E7034628E0121B0292104638
:102E8000049A904301902B180E19B007009614D0A5
:102E9000F40018206142044005940140964304CE9A
:102EA0009D420CD20598C24010CE20468840104367
:102EB00001C52246F4E702CE02C59D42FBD3029A29
:102EC0000498024001980099091803989C18A3429D
:102ED00004D20A781A70491C5B1CF8E706B0F0BDF2
:102EE000F0B503AF87B0431A93421AD28D188318F6
:102EF0000F2A00D880E005950290032610461D4653
:102F0000B5438818441E1846304003904042049050
:102F100006969D4216D226785B1E1E70069E641E83
:102F2000F7E70F2A36D9039244420322069214404F
:102F300005190E460346AB422ED232781A70761C23
:102F40005B1CF8E70398121A1046B0432B1A404254
:102F500001900598049C0419A007039200943CD0AA
:102F6000E200182021465442024005920440049495
:102F70000846B043061F0268059CAB4235D2049850
:102F8000824031680846E04010432D1F2860361FFC
:102F90000A46F2E7034644E002900398001B0390C0
:102FA000069A904304902B180E19B00701962CD066
:102FB000F40018206142044005940140964301CE7C
:102FC00014469D4227D2059AD04010CE22468A4010
:102FD000024304C52046069CF3E75018001FAB428D
:102FE00003D201682D1F2960F8E7039A0698024072
:102FF000019800990D1802989C1A691E9C4218D2DB
:103000000A785B1E1A70491EF8E714469D4202D2E8
:1030100002CE02C5FAE7039A2240049801990918E2
:1030200002989C18A34204D20A781A70491C5B1CAF
:10303000F8E707B0F0BDFEB506AF0F2A0BD9444242
:10304000032302931C40009404190346A34204D2B4
:1030500019705B1CFAE7054618E00190C8B2082316
:10306000202B06D218251D400646AE4030435B009B
:10307000F6E7009BD21A1346029DAB43E518AC421B
:1030800001D201C4FBE7029802400198AA189542B8
:1030900002D229706D1CFAE7FEBDD4D4950CD0C0C5
:1030A00001000000010000003110D0C054782068F9
:1030B000617368207265766965773A5369676E2037
:1030C0003F5369676E696E672E2E2E416C6570687E
:1030D00069756D726561647956657273696F6E307A
:1030E0002E312E3020202020517569745A65726F60
:1030F0006B696E646578706C696369742070616E69
:1031000069633031617373657274696F6E206661D3
:10311000696C65643A206572726F72203D3D204390
:10312000585F4F4B950CD0C00C000000040000000D
:10313000E90DD0C0550FD0C0D10FD0C0207B0A2CD4
:103140000A207B207D207DD4950CD0C00400000097
:1031500004000000F90FD0C00510D0C01110D0C07D
:103160005061727365496E744572726F724E656715
:103170004F766572666C6F77506F734F76657266C7
:103180006C6F77496E76616C6964446967697445F0
:103190006D70747963616C6C656420604F707469E4
:1031A0006F6E3A3A756E77726170282960206F6E83
:1031B000206120604E6F6E65602076616C75653AA7
:1031C00020010101010101010101010101010101D0
:1031D00001010101010101010101010101010101DF
:1031E00001010101010101010101010101010101CF
:1031F00001010101010101010101010101010101BF
:1032000001010101010101010101010101010101AE
:10321000010101010101010101010101010101019E
:10322000010101010101010101010101010101018E
:10323000010101010101010101010101010101017E
:10324000010000000000000000000000000000007D
:10325000000000000000000000000000000000006E
:10326000000000000000000000000000000000005E
:10327000000000000000000000000000000000004E
:103280000000000202020202020202020202020224
:10329000020202020202020202020202020202020E
:1032A00002030303030303030303030303030303EF
:1032B00003040404040400000000000000000000F7
:1032C00000D4D4D400000000FFFFFF000000000085
:1032D000800020000001000043616E63656C750092
:1032E0000800080008000C000200080008000800A0
:1032F0000B0002000C00080008000B0075000C0019
:10330000080008000C0074000C00080008000A0007
:1033100004000C0008000800090078000C000800F8
:1033200008000A0000000C00080008000900D4D4BE
:1033300063616C6C65642060526573756C743A3AB5
:10334000756E77726170282960206F6E20616E2023
:1033500060457272602076616C75650102FF04053C
:10336000FFFF08FFFFFFFF0D0E0F10FFFFFFFFFF26
:1033700016FF18D409211101000122220006A0FF26
:103380000901A1010903150026FF00750895408178
:10339000080904150026FF00750895409108C0D45F
:1033A000B529D0C0C529D0C0D529D0C0E529D0C005
:1033B000F529D0C0052AD0C0152AD0C0252AD0C0F2
:1033C000412BD0C06F2BD0C0B12AD0C0000000006C
:1033D000000000004D29D0C06529D0C000000000C9
:1033E0000000000000000000912AD0C0912AD0C047
:1033F000912AD0C0A12AD0C01201000200000040D2
:10340000972C0110010201020301040309040E03B9
:103410004C00650064006700650072000E034E00FA
:1034200061006E006F00200053000A03300030007E
:103430003000310009022900010102C032090400F4
:1034400000020300000209211101000122220007ED
:1034500005820340000107050203400001D4D4D4D3
:103460000A060002000000400100D4D4D4D4D4D411
:10347000D4D4D4D4D4D4D4D4D4D4D4D4D4D4D4D40C
:04000005C0D0000166
:00000001FF
