:02000004C0DE5C
:1000000080B500AF01F0BCFD012001F075FBFEDE04
:1000100080B500AF8AB068460221818481225200F7
:10002000028205220692074A7A440592012207922B
:10003000029207220192044A7A44009201F058FD8C
:100040000AB080BDB24700009B470000FEB506AF76
:100050008120410001A80182012103910422029222
:10006000034A7A44019201F043FD06B080BDC046C8
:100070008147000080B500AF8AB0684602218184C4
:1000800081225200028205220692074A7A44059292
:1000900001220792029208220192044A7A440092B5
:1000A00001F026FD0AB080BD424700001247000063
:1000B000F8B504AF00900178012005462B2915D032
:1000C0002D2913D000242546012C0CD00098005D6A
:1000D0000A26314600F060FD002803D06E437518F3
:1000E000641CF1E70125601E411E88412946F8BDC8
:1000F000E0B502AF002801D108468CBD0348784422
:1001000001A9034A7A4400F08BFDFEDEB65A0000D6
:100110000446000080B500AFC6B0FF21123101AC2B
:10012000204604F0DEF807204103204601F076F96E
:10013000002001F0E1FAFEDED0B502AFC0B2002827
:1001400006D0012807D0022815D10E4C7C4404E0CB
:100150000A4C7C4401E00A4C7C4404F051F80A4803
:10016000784401F095FC0948784401F091FCA047DF
:1001700004F050F8D0BD00F030FDFEDE1FFFFFFFA1
:10018000B5FEFFFFFDFEFFFFFC480000EC4800004D
:10019000F0B503AFFFB0FFB081B0FF21123124AC46
:1001A000204604F09EF800252846FFF7C5FF4320AF
:1001B000800026184120800020181F9094A8C11CA0
:1001C000032208929143091A21916EA90A46083226
:1001D0000D920A4649320B920A4648320A9294AA74
:1001E000521D1692B6AA1346493315931346483347
:1001F0001493B6AB5B1C0793B6AB1B1D0993091D8B
:100200000C91A5A9491C1391111D1291B6A9491C65
:100210000691401C0F90B6A8401C0E90B6A8243042
:10022000109001202090000222901D9511951E969D
:1002300020E001F0ACF9002801D101F0B0F9B6AC32
:100240008021204601F09CF96578A478B69801F0E9
:1002500089F9C0B201460E390A2921D82002401975
:100260007944097949008F440511313939393939CF
:1002700027392C00B6A8802104F033F848461D9990
:10028000B64A8154801881714180D2E70121090268
:1002900080B2884222D1B6A8C07801F093F91DE05F
:1002A00005281BD1B6A8C0784108304601F02CFAC9
:1002B000C0B2062812D041E124A8B6A901F0FCF989
:1002C0000CE024A8B6A901F041F907E000BA000C3F
:1002D000022803D924A8B6A901F0B2F948469F49DB
:1002E000415C0029A5D09D49401840880028A0D035
:1002F0001F99086024A84478032C00D378E369A8E8
:10030000142103F0EEFF002C00D197E0012C00D067
:10031000C5E0B6A824A901F09FF8B698002800D13E
:1003200007E1B79969AA01F00AFC002800D11DE194
:1003300024A88578002D00D1CEE1C078294604F0AC
:100340003BF81A911B95B6AC69A9204600F084FBD6
:100350002078202800D1C8E11990B6A841881C91C6
:10036000467894A84422129903F0CFFF159A90780A
:1003700093A9887010785278120210180880149887
:1003800004782025139816992A4603F0AFFF012020
:10039000189421460140891CA5AA11700102B6AC2F
:1003A000204604F012F8AEA8294603F09AFF204632
:1003B000229903F059FF002800D00CE30024009498
:1003C0000194B6A8A5AA2123214603F065FFF79062
:1003D000002800D003E30195AEA80090B6A8012143
:1003E000002423912246234603F056FFF89000286C
:1003F00000D0F7E21796E54E202C09D0AEA8005D9C
:100400003518052003F087FF8E40AE19641CF3E712
:100410002398064330BA010A4140020C4A40000EBC
:100420005040C0B21B9903F0C7FF1A98814200D117
:100430005EE16D98401C6D901E9E84E7D448784420
:100440001C90D44D7D44A847239101263040F64CA2
:100450007C44A047F5487844A8471B913040A0470A
:100460001C98A8470D4630401E9EA047B6A98D7027
:100470001B9848702398087024A8032201F02EF8D6
:1004800000240920010324A800F0C8FF2298044298
:1004900000D1EFE600201190FFF74EFEEAE6B6A885
:1004A00024A900F0D9FFB699002942D0B7986E254B
:1004B0000124342800D052E20846142169AA23906E
:1004C00001F03DFB002800D149E203F099FEB6A8F7
:1004D00000240471B694D84878440E2101F082F9C2
:1004E000B6A801F062F9C0B20628F9D0C01E0228F1
:1004F000F6D8B6A84025294603F0F3FE2398143019
:100500002390402C35D001784A090B09052A01D3E4
:10051000573300E03033B6AA13550F2319400A2988
:1005200001D3573100E0303112195170401CA41C26
:10053000E7E7B6A88088050AC4B210E2410802299C
:1005400000D997E64000C046784480884000874440
:100550000800BC010700C101C401CF010000000078
:1005600088E6B648784401F0E3FA83E66E25012474
:10057000F5E1B69C3F220F980E9903F0B7FE94A8C0
:1005800004700020219B3F2800D9D2E094A90A5C86
:1005900051B2002928D4591C02D0191A890701D058
:1005A000401CF0E70146382910D894AA501840683A
:1005B000A34C2040431E984152582242209A00D119
:1005C0000246002A219B01D10831ECE74029084668
:1005D00000D828463F29D6D894AA5256002A01D4DA
:1005E000491CF7E70846CEE7964B7B449B5C042BFF
:1005F00019D0032B07D0022B00D098E03F2800D35E
:1006000095E0401C60E03F2800D390E094ABC31815
:100610005B78E02A19D0ED2A1CD16021C9435AB277
:100620008A424EDD83E03E2800D980E094ABC318B7
:1006300001241B57F02A1AD0F42A1DD17021C94376
:100640008B4274DC3D2823D971E0E0210B40A02BC4
:1006500037D06CE00A461F32D2B20C2A28D2402191
:10066000C9435AB28A4262DC3D282CD95FE070331C
:10067000D9B22F290AD95AE00F31C9B2022956D866
:10068000002B54D5D9B28909022950D83E284ED220
:1006900094A9411802228A564021C9438A4246DC65
:1006A0003C2844D8C01C94AA12568A4212DD3EE06F
:1006B000C9B2490877293AD159B2002937D5BF2B99
:1006C00035D83E2833D2801C94A909564022D24303
:1006D00091422CDC401C55E7B6AC69A9204600F0DD
:1006E000BBF92478202C00D008E1B6A8408822E786
:1006F00082AE94A9442530462A4603F006FE93A80C
:10070000807881ACA070939820800C9831462A465E
:1007100003F0FBFD0A981899017003220B982146FB
:1007200003F0E4FD1E9E199C1C99179DF0E0022425
:1007300014E103F065FDA5A800240471A59404202C
:100740001B90AE90B6A802211C910182B794B149CA
:100750007944B6910126B896AEA985918490839587
:1007600094A8829082A8214601F064F8A5A801F01F
:100770001CF8C0B20628F9D00528F7D878440079CB
:10078000400087440A0F0923142BC04605150000BA
:10079000CF43000069FCFFFFE8E79F48784401F081
:1007A000C7F9E3E79D48784401F0C2F9DEE79D48C8
:1007B000784401F083F9651CAE98854200D3254644
:1007C00082A8294601F036F82C46CFE794487844B1
:1007D00001F074F9002CC5D0641EC3E703F010FDCE
:1007E00094A800250571949510981C99018081208A
:1007F0004100B6A801820621BC918B4A7A44BB9283
:10080000BD96B896B79189497944B69100F0FAFF40
:10081000209C94A800F0C9FFC0B20628F9D004A11A
:10082000085C40008744C0469DFCFFFFB8430000C1
:10083000101E1523343DC04640420000E84400002D
:1008400080808080454200007948784401F070F94A
:10085000DFE77948784401F031F97848784401F0CD
:100860002DF9D6E77348784401F062F9D1E774486E
:10087000784401F023F910984570B6AC66740221F3
:10088000204601F035F9204600F0BCFF2C46C0E7B9
:100890006C48784401F012F910984670B6A8457477
:1008A000B4E7E0071E9E00D190E01C9594A869A9CA
:1008B00000F02EFE95982128089C32D330281B9CEE
:1008C0002FD941282CD309242BE06048784401F02B
:1008D0002FF9CFE41198801C01E01198401CC0B2A0
:1008E000032103F069FD08461191FFF725FCC1E4DF
:1008F0001198C0B2022800D0BCE47FE0B6A84188BD
:100900001C91457848220C98099903F0FEFC1C992B
:100910006EA841804570047024A841220D99ADE570
:100920000524B6AD48262846314603F0DAFCA596E4
:100930001C98829082A80390A5A80290019520207F
:10094000009094A832492246239B03F099FC00288A
:100950001AD094A800F017F90B241E9E68251F9B3F
:1009600058682299091D884232D224AA1554586821
:10097000401C88422CD224A90C545868801C586012
:10098000084600F0ADFC75E4B69823906EAD47269E
:1009900028460799324603F0A9FCA59C94A800F0CC
:1009A000F2F8294878440A2100F01CFFB6A82399E0
:1009B000017006982946324603F098FC492C21D252
:1009C00024A8B6A9224600F089FD1E9E229C58E567
:1009D00000F021F9FEDE1F48784420210BE0FB9453
:1009E000F7A801E0FB94F8A8F9A900F0BEF8FEDE34
:1009F000174878440E2100F0F5F8FEDE002000F0E4
:100A00007BFEFEDE4821204600F0DAF9FEDEC0461D
:100A10000106000014430000B04200008A420000BA
:100A20007E420000804200002A3F0000C4410000D6
:100A3000BA41000082410000B8410000B841000006
:100A40009441000056410000883D000064410000D0
:100A50000D3E0000373E0000F0B503AFB1B001908D
:100A600014AE304600F054FD307800901EAD28469C
:100A700008304124214603F034FC009828701F946C
:100A800001232946324603F001FC002803D000F080
:100A90002DF8C4B20AE0291D1EA8468844780578BE
:100AA00002A8482203F031FC202D09D12020019911
:100AB00008706E202043488014A800F064F80DE010
:100AC0000096019E301D02A9482203F01EFC14A8C6
:100AD00000F059F8009870807470357031B0F0BD36
:100AE00080B500AFFFF716FBFEDED4D40146024608
:100AF0007F321020222A17D87A4412795200974464
:100B000018111A1C1E20222426282A2C313131319A
:100B100031313131313131313131313131313131C5
:100B2000312E3000022070470A46BF321BD0DF3121
:100B300018D100207047032070470420704705201B
:100B4000704706207047072070470820704709202B
:100B500070470A2070470B2070470C2070470E200A
:100B600070470F2070470D20704780B500AF88B0E8
:100B700002AC1822204603F0B9FB684601A92246C0
:100B800000F035F8FEDE08300021202903D00022D5
:100B90004254491CF9E7704780B500AF0346303B2B
:100BA0000A2906D9242915D80A2B0AD201201A4667
:100BB00005E01A468A4201D3002000E001201146D8
:100BC00080BD024620200243613A0A32F2D300205F
:100BD000C243EFE700F001F8FEDE80B500AFFFF79B
:100BE0007FFFFEDE80B500AFFFF7F7FFFEDE80B5CA
:100BF00000AFFFF7F2FFFEDED0B502AF0C46994220
:100C000004D11146224603F071FBD0BD204619469F
:100C100000F001F8FEDE80B500AFFFF7DEFFFEDE7C
:100C200080B500AFFFF7D9FFFEDE0068FEE7F0B544
:100C300003AF8FB0202406AD03232B5513460D942C
:100C400000260C960A9606AC43C41468002C049245
:100C500040D020351F20C00659684A0105928143C3
:100C6000019102950598002857D0986881194A6823
:100C7000002A07D081590798C36806989847049BB3
:100C800000285AD1204620300390207F2870A06988
:100C90000D9060690C901D6921460C31284600F0CA
:100CA00051F809910890211D284600F04BF80B914E
:100CB0000A902068C10068586918029D4A6806A910
:100CC0009047049B08360599203905910028039C1C
:100CD000C8D032E0072040071C695969CA00059254
:100CE0008143019100250598A84216D098684119C2
:100CF0004A68002A06D041590798C3680698984761
:100D000000281AD12646083605CC06A99047049B30
:100D1000083500283446E6D00FE0D86801998142B2
:100D20000DD20198C0009A681158101842680798AF
:100D3000C36806989847002801D0012000E00020F1
:100D40000FB0F0BDD0B502AF0B68002B0CD002463F
:100D50000020012B0AD14968CB00D1184968064C04
:100D60007C44A14203D0D0BD081D01E0D0BDD058C5
:100D700001680120D0BDC046C7FEFFFF7047B0B577
:100D800002AF0B4601460020CCB201468A4204D095
:100D90005D5CA54203D0491CF8E71146B0BD0120B7
:100DA000B0BD80B500AF814207D3994203D8121875
:100DB000091A104680BD0846194600F001F8FEDE0B
:100DC00080B500AF00F001F8FEDE80B500AFFFF7A0
:100DD00004FFFEDE80B500AF00F002F8FEDED4D4E2
:100DE000E0B502AF1D4616460C4601210A020190ED
:100DF000214600F069F8002808D1A64203D8A54290
:100E000001D8AE4213D9FFF7E8FEFEDE0346A0424A
:100E100006D20198C0564021C9438842EDDC00E06B
:100E2000EBD0002201982146FFF7D4FFFEDE002E12
:100E300010D12E4601982146324600F045F8024670
:100E4000002810D1A24217D11E4878442B21FFF769
:100E5000C9FEFEDEA6422DD2019880573F21C9432C
:100E60008842E6DAE6E7A24226D20198805640217F
:100E7000C9438842E6DC20E00198801800214156F1
:100E80000029C0D5C9B2E029BDD3F029BBD342782F
:100E9000C3783F241C409206920B80788006000D98
:100EA000101800194907C90A40181121090488427D
:100EB000A9D1C9E7BDD0BDE7C4D0019821462346DA
:100EC000B2E7C046FE3A0000B0B502AF0B46914211
:100ED00012D90546D41E00D20024511C20462A46B1
:100EE000FFF75FFF401E002905D04256491E3F23F1
:100EF000DB439A42F7DB0B191846B0BDF0B503AFE0
:100F000095B00A23129301230893119310920024A1
:100F100005910DAB16C304920C920B9401680191DC
:100F20004168009180680290039407940694002C15
:100F3000049A079D00D09EE0AA4202D30598441966
:100F400000E00024561B64D3072E07D800218E42F0
:100F50005ED0605C0A284BD0491CF8E70795E01C7E
:100F600003218843A04201D1002512E0051BB542B0
:100F700000D335460020294622463346FFF711FFAD
:100F800002460B460A2011461A46FFF7F8FE0128D2
:100F90002CD0304608380A9009960A9885421BD80A
:100FA00061194968394A8A43374B5940384E891983
:100FB00011404A1E914120466259344B9343324CB2
:100FC000624092191342089A00D10A46002A044648
:100FD000099E01D10835E0E7AE424FD36119721B7B
:100FE0000A20FFF7CCFE012811D14919049A079D68
:100FF0004819451CA0D095429ED80599085C0BA9BC
:10100000097F884298D100242E4607950CE0049A67
:101010001546039800282ED1069890422BD00795AC
:1010200001241646069D039402980078002808D0F3
:101030000098C3681749794404220198984700280A
:1010400017D1069BF21A0598C1189E4201D10020C3
:1010500005E05018401E03780A3B58425841029B55
:1010600018700098C368019898470028069500D129
:101070005DE7089800E0002015B0F0BD2846314635
:10108000FFF79EFEFEDEC0460A0A0A0A80808080C4
:10109000FFFEFEFEA9370000DCB504AF002201927E
:1010A000802903D201AA117001222FE0CA0A0AD1B5
:1010B0003F220A40803201AB5A708909C0220A439C
:1010C0001A70022222E00A0C0ED13F220A4080321E
:1010D00001AB9A700A0BE02414431C700905890EB9
:1010E00080315970032211E03F230B40803301AA65
:1010F000D3700B059B0E803393708B039B0E803354
:101100005370C902490FF0311170042201A9FFF791
:10111000F5FEDCBDD0B502AF88B0019002AC18225C
:10112000204603F0E3F801A8034979442246FFF77B
:101130007EFD08B0D0BDC0465638000080B500AF77
:101140000068FFF7DBFE80BD80B500AF0068FFF7E9
:10115000A3FF80BDB0B502AF86B004686D4618220B
:10116000284603F0C3F820462946FFF7D3FF06B010
:10117000B0BDD4D4F0B503AF87B00C46019003C91D
:101180000291CB68334979440D2206461D469847A3
:10119000012100284BD10091207E400720D42E4908
:1011A000794403223046A84700283FD12B4979448F
:1011B00004223046A847002838D129497944022220
:1011C0003046A847002831D101983146029A00F0F4
:1011D00057F8002800992AD122497944022235E0A3
:1011E0002149794403223046A84700281ED106A889
:1011F00001210170059002980490039603A81B49F1
:1012000079440422FFF77AFE00280FD103A8184979
:1012100079440222FFF772FE002807D103A9154A7C
:101220007A44019800F02CF8002803D00099084671
:1012300007B0F0BD03A8104979440222FFF75EFE13
:1012400000280099F3D10D49794401223046A8477E
:101250000146ECE712380000DA370000453600009E
:10126000BA370000A437000091370000F3350000C2
:1012700066370000103700004037000035370000A7
:10128000D0B502AF00780B4678440079400087441F
:1012900002070C101500D4680C497944052211E0AE
:1012A000D4680B4979440C220CE0D468094979448C
:1012B00002E0D468084979440B2203E0D468074966
:1012C000794404221846A047D0BDC0462D370000FF
:1012D0001737000002370000EF3600002735000006
:1012E000F0B503AFA3B004464120850000F04FF9EC
:1012F000002801D100F053F96019019002A8802163
:1013000002F0EFFF00F043F9002836D002AD802153
:10131000284600F035F96E78AD78029800F022F991
:10132000C1B20F390929EDD8280280197944097909
:1013300049008F44050F040404040418041DE1E768
:101340000121090280B28842DCD102A8C07800F0F5
:1013500039F9D7E700BA000C0228D3D902A92046F0
:1013600000F06EF9CEE702A9204600F0A5F9C9E722
:1013700002A9204600F0EAF8C4E71A4D4846405D4D
:10138000012818D00728019E1ED00A2822D1B18832
:1013900022A85322027009BA0A0E8270090C417009
:1013A000032102F0F7FE7168204600F01FF889B2B1
:1013B00002F0F0FE0EE0019E7168204600F016F883
:1013C00089B201F069FE05E0B188074878442246F9
:1013D00000F0C6FD4846002141553160716023B0E0
:1013E000F0BDC046000000001109000080B500AF4C
:1013F0000246002000F001F880BD80B500AF8142B8
:1014000009D341239B00994203D81218091A1046A8
:1014100080BD08461946FFF7D3FCFEDEB0B502AF2B
:101420002122D40003599D0841229200402D0DD85D
:1014300004190D0AC55423685B1C934206D2C1549B
:101440002168891C2160FFF74BFFB0BD184611468B
:10145000FFF7E1FBFEDED4D480B500AF412292005D
:101460008B58042B05D100210E4A7A44026041605A
:1014700080BD0A79002A03D0052300F015F880BD4D
:10148000052BF0D0062B04D1002101600449818096
:1014900080BD4A798B791B029A180723EDE7C04675
:1014A000016E0000FA350000B0B502AF0446002A14
:1014B00006D00D469918412080002858814204D951
:1014C000002020600448A080B0BD18462A46FFF7DF
:1014D00094FF03C4B0BDC046016E0000F8B504AF70
:1014E0002123DB00C51841239B00002A0AD02C6869
:1014F0009C4208D20E7806552C68641C2C60521E43
:10150000491CF2E7F8BD20461946FFF784FBFEDED2
:10151000F0B503AF8DB00191029003AC25460835BC
:1015200020262846314602F0DCFE21202070049659
:1015300000210091052201992B4602F0F7FD282297
:101540000298214602F0D2FE0DB0F0BDD0B502AF38
:101550000C464121890001F095FD204601F0FAFD7D
:10156000D0BDD4D4401EC1B2172904D840B203491B
:101570007944085C7047FF207047C0466F46000002
:1015800080B500AF89B2002202F018FE80BD80B5A0
:1015900000AF02F009FE411E4842484180BDE0B55F
:1015A00002AFFFF7F4FF00280BD16846002101715C
:1015B000C17002228270417060210170052102F029
:1015C000E9FD8CBDB0B502AFFFF7CCFFC0B2401E45
:1015D000072816D87844007940008744031312196D
:1015E0001212121F14484D462C180121204600F0FB
:1015F00087FE204600F064FE1048291889790029EA
:1016000012D0B0BD0C484946081800F080FEB0BDAD
:1016100009484946081800F076FEB0BD064849461C
:10162000081800F072FEB0BD494608180C301221AF
:1016300002F057FEB0BDC046800000000000000070
:10164000BCB504AF0A79012A1AD0CB787F241C409C
:10165000022A1CD0042A19D1052C17D8144A4D4649
:10166000AA1812194B791373412292006B469A8083
:101670000090104828188A1D214600F05BFDBCBD73
:101680000C484A461018891D00F026FDBCBD062CEA
:10169000FCD207484A4610186300C0180023438252
:1016A000044810188A1D214600F09FFDBCBDC046AD
:1016B0000000000080000000D0B502AF0D4A4B468C
:1016C0009B5C002B00D0D0BD4B460A249C549A183A
:1016D000062393714B788C782402E3181BBA1B0CF9
:1016E0007D2B00D37D235380CA1C1946FFF784FA53
:1016F000D0BDC0460000000080B500AFC0B202F00F
:101700003DFDFFF76AFAFEDE027913460B430371D3
:10171000CBB2002A04D0002B11D0032B0DD016E041
:10172000032B14D80021C0467B441B795B009F44E7
:10173000010F11040021017109E0022108E00021DC
:101740000171032A03D8D0000349C14000E00621FB
:10175000084670470121FBE706030405C0B20028D4
:1017600004D0012804D17E20401A7047022070471F
:101770008020401A40087047D0B502AF830002A411
:10178000E358E3189F46C046200000001000000008
:10179000180000001E0000004020801A4008D0BD44
:1017A0004020801AD0BD0846D0BDD0B502AF044657
:1017B000FFF7EDFE002801D1FFF7F1FEFFF7E7FE8E
:1017C00000280DD004212046FFF7DAFE20780528F6
:1017D000F4D1E07841082046FFF796FFC0B2D0BDB3
:1017E0000620D0BDBCB504AF0C46054602F008FD8E
:1017F000002002210091019001222846214600F09C
:10180000C7F8BCBDD0B502AF044602F0F9FC022116
:10181000204600F06DF90548784400F039F9044895
:10182000784400F035F902F0F5FCD0BDF431000049
:10183000F4310000F0B503AF89B00A4641681601E3
:10184000344610348C42234600D30B460792056879
:10185000B34267D3002E08950CD08E4208D2AA5707
:1018600006923F25ED43069AAA42089D02DA59E006
:10187000B14257D1002B06D0A14204D9EC564022E8
:10188000D24394424EDD069084680593657C681EC1
:101890002A46824103CC083C00F052F801460490ED
:1018A000207CFFF75BFF0390D9208000684320492C
:1018B000794408181B214901455CA068E1682A4663
:1018C000FFF75AFF0146012080021A4A7A4400239A
:1018D0000093019202900398049A2B4600F0B8F806
:1018E0000598801B0899891921606060079D002D6B
:1018F00003D01248784400F0CBF8681C0699C968F8
:101900000968884203D20C48784400F0C1F80FCC33
:10191000257864780095019400F03AF802F07AFC9A
:1019200009B0F0BD28463246FFF754FAFEDEC04645
:101930003C380000E83E00004C31000068310000F7
:10194000FEB506AF02920D46044600260F487844C5
:101950000190002D14D0204600F022FB00782038A2
:1019600060280FD2D9218900029A5143019A511857
:10197000081803210902405C36186D1E641CE8E754
:101980003046FEBD6021FFF746F9FEDE9E370000BF
:10199000F0B503AF91B009930892FC680E900D4624
:1019A0002246FFF7CDFF0146B868FFF7D7FE0D903E
:1019B000D920800060432549794409181B20400143
:1019C000079108180690079E002D35D00E9800F05C
:1019D000E7FA0478203C5F2C32D80C95E50070596A
:1019E00000F0DEFA0A90069802780B92089809999E
:1019F000FFF7C2FE01460120109000220F927219DB
:101A00005268D20004920A9A039202900FA80190A1
:101A100002200090301903221202845C0D9D28469A
:101A200022460B9B02F000FC2D190D950C9D6D1E9E
:101A30000E98401C0E90C7E702F0ECFB11B0F0BD11
:101A400060212046FFF7E7F8FEDEC046343700008D
:101A5000F0B503AF89B0069305920E460446B86808
:101A60000790012568400890F86800F099FA3969F4
:101A7000C90004910390029507A8019002200090EC
:101A800020463146059A069B02F0CEFB09B0F0BD18
:101A9000FEB506AF0446406800F082FA0021655E9C
:101AA0000221615E50C802684368007A0090019488
:101AB00002962846FFF7CCFFFEBDD4D4FEB506AF94
:101AC0000446406800F06CFA0021655E0221615E08
:101AD0008268C368007C0124A402044E7E44009006
:101AE000019602942846FFF7B3FFFEBDD83C0000E4
:101AF000FEB506AF0D460446402002F0E3FB142677
:101B00006E437E21014002910C384508002E0ED014
:101B100003CC627A02230093019203222B46083CF5
:101B2000FFF736FF02984519143E1434EEE7FEBD68
:101B300080B500AFFFF7ACFF02F06CFB80BDF0B5E5
:101B400003AF142911D10023142B0ED0C45CC51887
:101B50006E7836023419AE78ED782D02AD192D0469
:101B60002C1924BAD4501B1DEEE7143948424841C1
:101B7000F0BD044602F02EFB214600F06FF8D4D4ED
:101B8000F0B58FB062B60024204602F02DFB4F4620
:101B900003AD284600F056F8A88580B205283BD052
:101BA00000283FD103A802F01FFB0D9002F0B2FA0B
:101BB0000D283FD202A80221C1700121019181703C
:101BC000447031210170042102F0E4FA1C483E18EF
:101BD000356A2C21304602F084FB19483C54B4602D
:101BE000B4717480356200F03FF9204600F0E2FFE6
:101BF000019800F0DFFF01F085F8FEF7C9FA02F066
:101C0000E9FA03A9884202D10D9802F0EDFA03A87F
:101C1000808D0028BCD010E003A884850D9802F0C8
:101C2000E3FAB5E703A884850D9802F0DDFA2046B3
:101C30000FB0F0BDFF2002F0A1FAFFF79AFFC046F7
:101C400000000000F0C041464A4653465C466D46DF
:101C500076467EC02838F0C80020704710307CC817
:101C600090469946A246AB46B54608C82838F0C803
:101C7000081C00D1012018477F210140052905D803
:101C800003484A4610184018007B704700207047F0
:101C9000000000007CB5FF2A1FD815460E460446FA
:101CA0006846427120210171502101708021214339
:101CB000C170D11C8170090A4170062102F06AFAD4
:101CC0003046294602F066FA04484946081861067B
:101CD000090E40187D21090141827CBD00000000F1
:101CE00080B50A4601468220FFF7D4FF80BDD4D4D8
:101CF000FEB515460F460290554E48468019998804
:101D000001911968009187420FD0484684194026F6
:101D10002046314602F0E0FA402D2A4600D33246F2
:101D20002046394602F0E7FA494E48468019807845
:101D3000002828D0012831D0022838D0052875D1B4
:101D4000484681190A79C97809028918414C005915
:101D50000027884272D14846005900282ED0681FBB
:101D60003D494A46525883B29A4201D248464058A9
:101D700081B23B2900D33B2085B2384849460858F8
:101D80008919491D43E0484680190027877147712A
:101D90000771C7704021029A90474FE04846841966
:101DA000E01C042102F07EFA4021204602E0484671
:101DB00080194021029A904700273FE04946881940
:101DC000827940790002821825480A500958019A00
:101DD000914233D849460A581F4FCA518A1952783E
:101DE0008B5D1B029A181F4BCA501C4A00988850E2
:101DF000CA59E91F8BB29A4201D24946C9598AB2DF
:101E0000392A00D339218DB249468919C91D2A467C
:101E100002F071FA104849460A58521B0A500F48FE
:101E20000A5852190A500859401C08510A48494694
:101E30000858002801D0012708E002270548494634
:101E400000220A5005480A5003480A503846FEBD91
:101E50002C0000006C0000007400000078000000FE
:101E6000700000007C0000000448494600220A502F
:101E700003480A5003480A507047C0466C000000EF
:101E80007800000074000000FEB52F4B4946CA5888
:101E90002E4C0959002929D0002A27D001920290FE
:101EA0002D4D4F467C19601D3B26314602F014FA39
:101EB0002A483958090A2A4679550521A170385807
:101EC000607023497858000AE070785820711F4CE0
:101ED00079583859002912D03B2801D8484606596C
:101EE000484617468018401D019D18E0184849468D
:101EF00000220A50CA5017480A540A51FEBD392818
:101F00001746019D01D9392601E048460659484641
:101F1000C1190259120A4A7100598871C81D29460F
:101F2000324602F0E8F9029A074B48460159891BEC
:101F30000151A919C150064BC158491CC150C019C3
:101F400040219047FEBDC0467800000074000000AC
:101F50006C000000000000002C0000007C0000006D
:101F6000B0B500290BD0064B4C460025E550054B7B
:101F7000E150054BE250054AA150FFF785FFB0BD87
:101F80006C00000074000000780000007000000089
:101F90007A460249C91C891A401A7047911FDEC04F
:101FA00080B5094A0949824203D8814201D3FFF72B
:101FB000EFFF0749074A884204D3904202D8401AEB
:101FC0004946081880BDC0460000DEC0005EDEC085
:101FD00000007ADA00787ADAF8B5002814D01546CD
:101FE0000E4604460746DC3745208100204602F0B5
:101FF00078F9002E00D07E612570012038702046CF
:1020000000F0A4F90020F8BD0220F8BDB0B50446E8
:10201000DC20012121541720C543002D0ED060196A
:10202000432189004058002806D04068FFF7B8FFD8
:1020300002462179204690470835EEE7204600F019
:10204000BAF9204600F08EF90020B0BD002A08D071
:1020500003460020022B03D8DB00C918F423CA5022
:1020600070470220704780B500F08BF9002080BDDA
:10207000F8B50C4605460026F427032E10D0284656
:10208000314600F067FA002807D0E8590068FFF7EA
:1020900087FF02462846214690470837761CECE722
:1020A0000020F8BDF8B50C4605460026F427032E9F
:1020B00010D02846314600F04DFA002807D0E859E4
:1020C0004068FFF76DFF02462846214690470837D3
:1020D000761CECE70020F8BD70B504460646D43601
:1020E00035461435284600F064FCD42001212150E7
:1020F000EE20205A7060317D1F200840022808D051
:1021000001280BD000280ED12046294600F02DFAD8
:102110000EE02046294600F0CBFB09E02046294688
:1021200000F0A2FB04E080200140204600F080F98E
:10213000002070BDF0B585B0029303920446DC30F8
:102140000490019100291CD00025F427032D49D0CB
:102150002046294600F0FEF900280FD0E05980699A
:1021600000280BD004990978032907D1FFF718FF3D
:10217000064620460199039A029BB04708376D1C1A
:10218000E4E720468030416D03292BD10068E16FE0
:1021900081420AD9091AE167814200D301468AB215
:1021A0002046039900F047FC1CE00025F426032D8F
:1021B00015D02046294600F0CDF900280CD0A059B2
:1021C0000069002808D004990978032904D1FFF791
:1021D000E7FE01462046884708366D1CE7E72046A3
:1021E00000F030FC002005B0F0BDF8B5044607460D
:1021F000D437009100291AD03D460026F427032E3B
:102200005CD02046314600F0A5F900280CD0E059FA
:102210004069002808D0297A032905D1FFF7C0FEBC
:1022200002462046009990470837761CE7E7386851
:1022300002283DD1E069256AA84209D9401BE06126
:10224000F96B4919F96382B2204600F0E6FB2FE0F2
:10225000A6693046294602F0AFF800290CD1AE42FB
:102260000AD37868864207D20025204629462A46A6
:1022700000F0D3FB7D601BE00025F426032D14D075
:102280002046294600F066F900280BD0A059C06806
:10229000002807D0397A032904D1FFF781FE0146CF
:1022A0002046884708366D1CE8E7204600F0D6FB3C
:1022B000387B012802D13946002038730020F8BD50
:1022C00070B50446DC20012121548020402121509A
:1022D00021620025F426032D10D02046294600F067
:1022E00039F9002807D0A0594068FFF759FE024687
:1022F00021792046904708366D1CECE7002070BD20
:10230000017400207047002070470020704770B5AE
:102310000446DC20205C032815D10025F426032D7B
:1023200011D02046294600F015F9002808D0A05900
:10233000C069002804D0FFF733FE014620468847D5
:1023400008366D1CEBE7002070BDD4D403494A4623
:1023500000205050024950507047C046980100007C
:10236000940100001CB501A80221C17001218170F7
:10237000002444704F210170042101F00BFF20461E
:102380001CBD7CB56D4600242C710320E870022032
:10239000A8706C704F262E700521284601F0FAFEB9
:1023A0000120E870A8706C702E700421284601F09E
:1023B000F1FE20467CBD1CB501A80221C17001219F
:1023C0008170002444704F210170042101F0E2FE6D
:1023D00020461CBD7CB514484C46002525501348AA
:1023E00025506C46A5716171012121710420E070B6
:1023F0000526A67065704F252570002A0AD0032A8D
:1024000005D0022A05D0012A06D1014602E00221A8
:1024100000E00321684681716846C371082101F01C
:10242000B9FE00207CBDC046940100009801000068
:10243000BCB50D4668460024447140210171C57049
:1024400003218170447050210170062101F0A2FE29
:102450004846290601D5074900E0054940180168AA
:102460007F2215400122AA400A4302602046BCBDDB
:102470009801000094010000BCB50D466846002498
:10248000447180210171C570032181704470502115
:102490000170062101F07EFE4846290601D5074954
:1024A00000E00549401801687F2215400122AA403A
:1024B000914301602046BCBD9801000094010000DA
:1024C00048460A0601D5064A00E0044A8018027808
:1024D0007F20014001208840104070479801000093
:1024E000940100001CB5684601710321C1700221EE
:1024F0008170002444704F210170052101F04AFED3
:1025000020461CBDBCB51C461546684643712022BA
:102510000271C17050210170D91C8170090A41708B
:10252000062101F037FE2846214601F033FE002047
:10253000BCBD1CB56846427130220271C1700321D6
:1025400081700024447050210170062101F022FEA8
:1025500020461CBD022906D8C9004018F421405865
:10256000411E884170470020704780B54A78002A94
:102570000ED0012A0FD0032A10D0052A11D0092A23
:1025800012D0082A13D0062A14D100F017F813E04D
:1025900000F0FCF810E000F03AF90DE000F01AF954
:1025A0000AE000F082F807E000F0A2F804E000F092
:1025B000D6F801E000F054F9002080BDBCB50D460E
:1025C000044601A8002101802046F0306B881A0AD9
:1025D000012A26D0022A2DD0032A0AD0062A31D079
:1025E000072A16D00F2A30D10068C06900281AD1F6
:1025F0002BE0D9B2052949D001294AD002294BD074
:1026000003294CD004294DD000291ED10068406810
:1026100009E0217C002918D14068002815D0006B02
:102620001EE000680068FFF7BBFC0246207C01A9A1
:1026300090471AE04068002818D0217C00290ED06D
:10264000C06A0DE0217C002904D02046294600F014
:1026500007F9BCBD40680028F7D0406B00E0806AF5
:10266000FFF79EFC014601A88847014601A80288A1
:10267000002AEED0E8880028EBD0824200D3024640
:1026800001A80280204600F0B2F9BCBD0068806954
:10269000C9E700688068C6E70068C068C3E70068EB
:1026A0000069C0E700684069BDE770B504468888E6
:1026B000002807D1C888002804D12646DC363078A7
:1026C000032803D1204600F0CBF870BD88787F2521
:1026D0000540B57020462946FFF704FF204600F06C
:1026E000B1F9002D01D0022000E00120307070BD52
:1026F00070B50D4604468E78022E1CD2DC20215C7B
:102700002046DC30032906D0022914D1002E22D025
:102710000321017008E0002E12D06068B0421AD088
:10272000C1B22046FFF7BEFC666020463146FFF787
:102730009FFC02280FD12046294600F091F870BD79
:10274000002161600221017020463146FFF7AAFC9A
:10275000204600F077F9204600F074F970BD80B58E
:10276000CA88012A0AD1DC22825C032A09D0022A03
:1027700004D1002181600146083103E000F070F8C7
:1027800080BD011D012200F032F980BDB0B50446C4
:10279000DC20205CFE220240022A0FD12046DC30E1
:1027A0000121E16025460C35806800280AD02046CA
:1027B00000F054F9E1680220084304E0204600F0EC
:1027C0004FF8B0BD0320E06002222046294600F009
:1027D0000EF9B0BDB0B504464888012816D10D46A3
:1027E000E42001212150287902280CD8C0002018AB
:1027F000F4214058002806D08068FFF7D1FB02463C
:10280000204629469047204600F01CF9B0BDB0B5DF
:102810000D460446DC20205CFE21014002291AD12D
:10282000688801281BD12046DC300021816028798E
:1028300002280CD8C0002018F4214058002806D0E7
:102840008068FFF7ADFB02462046294690472046A8
:1028500000F0F8F8B0BD2046294600F001F8B0BD00
:1028600080B500F0BAF880BDB0B50D460446DC2056
:10287000205C032816D12879022813D8C00020181C
:10288000F421405800280DD08068FFF789FB0246EC
:10289000204629469047E888002807D1204600F0C6
:1028A000D1F803E020462946FFF7DAFF0020B0BD4B
:1028B000BCB50D46044609797F200840072804D39B
:1028C00020462946FFF7CCFF71E0022912D82A786A
:1028D00060231340202B0DD1CA00A218F423D25834
:1028E000002A07D09068FFF75BFB02462046294686
:1028F00090475CE06A78002A0AD0012A11D0032AA6
:1029000055D1DC20205C03281AD002280FD0D7E74D
:10291000DC22A25C032A2ED0022AD1D100280BD1BE
:1029200045E0DC22A25C032A31D0022AC8D18020F3
:102930000A460243802A3AD02046FFF779FD36E066
:102940006888002807D180200843802803D02046CB
:10295000FFF76EFD2979022926D8C8002018F42136
:102960004058002820D08068FFF71AFB0246204616
:102970002946904718E02046FFF7A2FD411E8841F6
:1029800001A908800222204600F031F80FE06A8891
:10299000002A0CD1002807D02046FFF76DFD2879CA
:1029A000022801D8C000D9E7204600F04BF80020EB
:1029B000BCBD0A7802704A7842708A78CB781B02D4
:1029C0009A1842800A794B791B029A1882808A7978
:1029D000C97909028918C180704710B50446802161
:1029E000FFF726FD00212046FFF722FD10BDB0B500
:1029F0000C46D421022343508261C2610146D43186
:102A0000CC63016A914200D80A4693B20025294658
:102A10002246FFF777FD2846B0BDB0B50C46016AE7
:102A2000914200D80A4693B2002529462246FFF774
:102A300069FD2846B0BD10B500242146FFF779FD99
:102A4000204610BD10B5D421042242500024214656
:102A500022462346FFF756FD204610BD10B5D4216F
:102A600005224250002421462246FFF762FD2046FF
:102A700010BDD4D4014608484A461018EC22825CA6
:102A80000020002A01D0034600E009230B80002A21
:102A900001D1024878447047800000006431000092
:102AA000014608484A461018EC22825C0020002AA1
:102AB00001D0034600E022230B80002A01D1024806
:102AC00078447047800000004131000080B5022941
:102AD00003D103487844FFF7D7F9002080BDC046F2
:102AE00009F2FFFF70B5022920D11C4615460221CC
:102AF0004022FFF71EFD0E4E4846801980790028BF
:102B000014D10220FFF7B8F802460B487844294652
:102B10002346FFF7EDF8022808D1484607218155E2
:102B2000811901228A71034A80584880002070BDB3
:102B30000000000070000000D1F1FFFF12200880AB
:102B4000014878447047C0463A31000004200880AC
:102B5000014878447047C0463C3100000E20088090
:102B6000014878447047C046303100000E2008808C
:102B7000014878447047C0462E3100000A20088082
:102B8000014878447047C0462C3100000E20088070
:102B9000014878447047C0460E3100000E2008807E
:102BA000014878447047C046FE300000002008808D
:102BB0007047D4D4F8B50546154E4F46B81945218F
:102BC0008C00214601F08DFB124838180C30122180
:102BD00001F087FB4846002D15D08519284621466F
:102BE00001F07FFB0C497944002428462246FFF778
:102BF000F3F90A4A7A4420462946FFF727FA28467D
:102C0000FFF731FAF8BD8019FFF700FAF8BDC046AA
:102C100080000000000000003E3000005030000046
:102C200029210180014878447047C0469230000055
:102C30000A210180014878447047C046AE30000048
:102C4000FEB50E46054602A80024048001A80470C3
:102C500009786020084010D0202837D170780146CC
:102C60000A39022932D302281BD0032819D028465A
:102C70003146FFF7F5FD022428E070780B2813D0C9
:102C80000A280ED0062821D1F078002421280FD060
:102C900022282246214616D102AF3846FFF700FF10
:102CA0000AE001A901220EE02846FFF7CBFE0DE065
:102CB00002AF3846FFF7DEFE01463A88F0888242CE
:102CC00000D302463A802846FFF791FE2046FEBD1B
:102CD000F8B5044682210326402532462B46FFF7ED
:102CE00079FB02272046394632462B46FFF772FB16
:102CF000204639462A46FFF71CFC0020F8BD00207C
:102D00007047D4D4F0B585B021484946081800244E
:102D1000C484204FC8195725465D5E2101F0E1FAB1
:102D2000C12E03D14846C019C121415503940294D4
:102D300002AD0821284601F009FA04210191284634
:102D400001F098FA39464F467E18F075000A307641
:102D5000281D019901F08EFA0E497C54DE21B183C1
:102D6000F121F1767076000AB0760B4830840B487A
:102D70003D18C021284601F0B4FA284600F084FD31
:102D800020462146224600F00BF805B0F0BDC046B3
:102D9000000000009C010000FFFF0000FC0100009B
:102DA000F0B587B00446AF4D48464019008CAE4E92
:102DB000B04202D0A04200D098E048464019407F7F
:102DC00000281FD0062A24D3042822D148464019BF
:102DD0004A788B781B029A184284CA780B791B02B6
:102DE0009A1882844A7989790523437709028918D8
:102DF000C184484640199E4979310184012000F080
:102E000031FE73E0484640190121417701F0C0F8D6
:102E10006CE0022A21D307281FD1484640194A787E
:102E20008978090289184C22815208214177484645
:102E300041198F48F83008844C20085A4E3101223D
:102E40001023002408250093019502940393049213
:102E500005910221874A7A4445E0022A20D30828B6
:102E60001ED1484640194A788978090289184E22AD
:102E7000815209214177484642197D48F830108433
:102E80004C20105A503201231024022108250095AD
:102E900001950291039404930592774A7A4422E0C3
:102EA000022A25D3092823D1484640194A7889782F
:102EB00009028918502281520A2141774846411956
:102EC0006B48F83008844C20085A523101221023F4
:102ED000082404250095019402920393049205911D
:102EE0000221664A7A449C2300F0F6FE07B0F0BD4A
:102EF000022A15D30A2813D1484640194A788978FE
:102F000009028918522281520B2141774846401903
:102F10005749C91C01840120072101F015F8E5E794
:102F20000C2812D1062000210A4601F01BF941426B
:102F3000414148464719F977204600F0EDFBB87F3C
:102F40000628D3D148464019407F49464919421CBA
:102F50004A770C284DD0012819D0022821D0032807
:102F60005BD0042800D144E7052868D0062820D08B
:102F7000072800D15BE7082800D17CE709289DD00D
:102F80000A28C3D00B2823D00028AFD13EE74846FB
:102F900042193748108417322E20062100F0A8FF6E
:102FA000A4E7484640193249F531018400F026FE75
:102FB0009CE7484640192E49F63101844C30009078
:102FC00002202F4979440122092300F035FE8DE7C4
:102FD000484645190024AC772E8406202146224617
:102FE00001F0C0F841424141E977204600F094FBEE
:102FF0007CE7484641195720095CC12905D149465B
:10300000491900220A5400F0CBFD484601214155E0
:10301000164A80182422815468E748464319144808
:103020007E301884184626301946243100910190CC
:10303000223301200021142200F06CFD56E748469F
:1030400040190B497A310184012000231021082204
:10305000009201910290039304900146024600F011
:1030600023FD43E79C010000FFFF0000000000007B
:103070000CFCFFFFA82E0000722E00003A2E00006C
:103080002A2D0000034A4B469A18B023D152AC2196
:1030900050507047FC010000F8B51E4C022914D1B5
:1030A0004A4612195923D25C002A0ED01A494A46C0
:1030B0000023535411195A2202238B5402785B23A4
:1030C000CA545B3140784870F8BD4A4612195A25F7
:1030D000525D002A10D04B461B191E465B3676788F
:1030E0005B27DB5D1B029B1909263603B34203D025
:1030F000484600195B30114600F064FC4846001950
:10310000002141555821405C002800D0F8BD00F056
:1031100005F8F8BD9C01000000000000BCB50B4B99
:103120004846C018A821425C022A0ED308484C46E3
:1031300020184E21415A4C25405BE3180C33009374
:10314000921ED3B2002200F02BFEBCBDFC01000099
:103150009C010000F0B585B00446C078042800D07A
:1031600006E12079FF2820D0082879D00E2800D148
:1031700088E03E2800D199E0052800D0F8E0F54825
:103180004A461318282400211955CC435C852A335C
:103190001977F14BD2182524155DF04A002D00D186
:1031A000CDE04D46EB181955CAE06179042900D2EB
:1031B000DEE0207A627A12021018FB4E4A4692191B
:1031C000528D904200D0D3E0A279E3791B029A1885
:1031D00092B2F64B9A4200D142E1F54B9A4200D1AD
:1031E00091E1F44B9A4200D190E1F34B9A4200D125
:1031F0009DE1F24B9A4200D0BAE00A1F92B2062A31
:1032000000D2B5E0A27BE37B1B029A18A37AE57A91
:103210002D02EB18257B677B3F027D1900D0F5E17D
:10322000022A00D0F2E14D46AD194E27ED5BAD1CF0
:103230009D4200D0EAE1217C627C1202511800D14B
:1032400020E249468A1956230124D454DC4A8918BD
:10325000BC22895C002900D08AE000F0CFFD87E025
:10326000E079217A09020918CF484A461218528D8E
:1032700091427DD1617A002975D0494608184621CE
:10328000012274E06279032A72D3C74849460B5C75
:10329000E179257A2D026918022B6BD0002B6BD1B6
:1032A00088B209342146FFF77BFD61E06079002890
:1032B0005ED0A0790C2800D183E0032800D193E0F0
:1032C000072800D1A8E0012852D1FD484E46351804
:1032D000207A617A090208186885A07A2C2168543E
:1032E000E07A2D21685428462E3021460C310622E2
:1032F00000F0FCFFA07CE17C09020818A886207D74
:10330000617D09020818E886A07DE17D09020818A0
:103310002887207E3A216854EA483018BC210022D0
:10332000425428216A54542117236B5256216A545F
:10333000BA21435259202A542A352A7718E0042109
:103340004B4602241C541D182A84A9770620002409
:103350002146224600F006FF41424141E9772046DE
:1033600000F0DAF904E049460818462100224254E8
:1033700005B0F0BD88B2F3E789B2D44A914200D1DA
:10338000D8E0D34A914200D1EAE0D24A9142EFD14B
:1033900049460A185821525C002AE9D04A461018BA
:1033A00000234354C7481018A821405C0228DFD3EB
:1033B000C548494608187D210901C183FFF7AEFEC3
:1033C000D6E7207A617A09020918BD484A461218E0
:1033D000528D9142CCD149460818A17A3B228154A2
:1033E000E17A3C228154C3E7B54849460818217A5E
:1033F000627A120251184185A17AE27A12025118BA
:103400008186217B627B12025118C186A17BE27BFF
:10341000120251180187ABE7E079217A09020918F5
:10342000A7484A461218528D9142A1D14946081820
:10343000617AA27A12025118C187E17A227B1202C4
:10344000511840228152617BA27B12025118422204
:103450008152E17B227C120251184422815287E77B
:103460000A1F92B2032A83D34A469319227B0492FD
:10347000A27A0392E57A582701220292DA55502760
:10348000DA5B521C2D02039BEB189DB2AA427BD142
:103490004A4692195623D25C002A75D04A469219A0
:1034A0004623D25C002A6FD0049A002A6CD02046B2
:1034B0000B30F1222273DE22E272491F89B200F042
:1034C000EFF94F46B819408D0D34049900910194DD
:1034D000002429462246234600F0DAFC79483A18AF
:1034E000B221525C022A06D1774A4B469A181B1821
:1034F000B6255B5B5380744A4B46029D9D54181859
:10350000445498187FE0FFF7FDFB31E76D484946CA
:103510000818A27AE37ABC24012505551B029A18E3
:10352000D21EBA23C25288195421425220E700F019
:103530008BFC1DE7644C4A4611192723C95C1218FD
:10354000528D654B9A423DD0002900D195E0FFF79E
:10355000D9FB92E09C01000000000000FFFF00008A
:10356000584D49464A19A82600249455081859214F
:10357000405C00282DD05448494608184919B62205
:10358000895A4180012438E04E494A465118A823FF
:103590000022CA540D34049900910194294613461F
:1035A00000F076FCE4E6C0469C010000130C00002D
:1035B000020C0000030C00000E0C0000010C0000C7
:1035C000FC010000002953D0494608182821002298
:1035D00052E048464059002809D00020014600F03A
:1035E000F1F9FFF79BFD48464059002808D14846AD
:1035F00041198C5534494018C483334849460C540A
:1036000031484946081802218171B1E648468019BF
:103610005225405B401C984200D0A9E648468019DC
:103620005623C05C002800D1A2E6484680194623F4
:10363000C05C002800D19BE6002A00D198E6204615
:103640000E30F122E273DE22A273083989B200F053
:1036500027F91C4C48460019B225405D022815D1B7
:103660001948494608180919B622895A41801BE0B1
:1036700049460818282101224254484600190021D1
:10368000C18475E64846801956216FE64846001900
:10369000A821405C02280BD30B48494608187D211D
:1036A0000901C183FFF73AFD0748494601220A5440
:1036B0004846011900224A5503494018A3E7C0466D
:1036C0009C010000FC010000000000000A20000036
:1036D00006FD000026FD0000FFFF00001CB50446AB
:1036E00001884288684638230370027103231B0255
:1036F00013408902C918090AC170E168891C8170E8
:10370000090A4170052100F045FDA189A06800F07B
:1037100041FD00201CBDD4D4F0B58DB0554D4946B7
:1037200049190A8C54498A4202D0824200D09EE054
:1037300048464019807F052806D0002809D14A460E
:1037400052195185002100E001214A4652192823CF
:10375000D15449464919421C8A77D2B2052A0ED162
:10376000C97F00290BD149464919801C88774846F2
:10377000405D02287BD148460121415577E004286D
:103780006DD001282ED002284BD0032856D0002817
:10379000EDD105AC0620A070812040002080484675
:1037A00040190490451C1521284600F095FD092676
:1037B00014223046294600F0D5FC07460498877548
:1037C0002671781CE070FAB2601D294600F08EFD6B
:1037D0002A48801C04990884781DC0B2214600F054
:1037E00027FC44E005AC0620607011202070A01C6E
:1037F00024497944102200F079FD0021E175182058
:10380000A07561750C2121751221E1740521A17447
:1038100049464919194AD21C0A84214600F030FC55
:1038200025E04846421916481084937D918C508CAF
:10383000521C0092002200F0B3FA18E048464019EA
:103840000E490184002203920720029005A80190EE
:10385000009230206021012300F0B8FB07E04846C9
:1038600040190649091D0184012000F031FC0DB00A
:10387000F0BDC0469C010000FFFF000006200000D4
:1038800006FD0000FC240000B2210022425403493E
:103890004B465850B23042807047C046BC020000D0
:1038A000F8B5002802D00D46032900D2F8BD044621
:1038B000434849460F583E460A369E2130460091FD
:1038C00000F00AFD207861780902081878813B46EB
:1038D000A833A078082812D001281AD002281DD0B9
:1038E000052825D00028E1D138460D300021C170CF
:1038F000817041700170397307201870F8BD012084
:1039000038740020F8810820B8811870987C787489
:10391000F8BD0320187001203873F8BD9E2D00D328
:10392000009D1D70304621462A4600F0DFFCF8BDA0
:10393000E81E81B202290AD32079E2781202101817
:103940009A89904203D1032904D8002802D100208B
:103950009872F8BD002805D0D8891E461B8A6D1FB5
:10396000611D10E001209872A079617909020818A0
:10397000D88181B21A899142E9D8194600230E46AE
:103980000B82ED1FE11DAAB2D21884B2A24200D967
:10399000C51AAAB27068C01800F0A8FC3246308A76
:1039A0002818308280B2F189884203D102209072B7
:1039B000002003E0012090729089401C9081F8BDA6
:1039C000BC020000F0B585B0254B4A46D55800280A
:1039D00008D0A98004902860A81DA22100F07CFCDA
:1039E000002104E02868002837D00490E9882B469D
:1039F000A833A97305242C73080A6873AA88039155
:103A0000002903D12A74100AE87307240192A6182A
:103A10005A8A2F89B91828190A3002968E420DD277
:103A20000499C919019EF21B1C4600F05FFC224656
:103A30002E81002028600298C01B0DE00499C9194E
:103A4000121B1E4600F052FC32460398401CE880D0
:103A5000708A011BC9192981107005B0F0BDC046DC
:103A6000BC020000F0B5C7B001AE30706F46002454
:103A70003C7041AD18222846214600F0B5F80120DF
:103A800046904597449043960648419028462146E3
:103A9000FFF724FE002801D4009800E0E043C0B204
:103AA00047B0F0BD3F008500F0B5C7B04F9C250E74
:103AB00001AEB572250C7572250A3572F471509CF1
:103AC000F4724E9CB4714D9C74714C9C3471F370C3
:103AD000B270717030706F4600243C7041AD182296
:103AE0002846214600F080F80120469045970C209A
:103AF000449043960648419028462146FFF7EEFD44
:103B0000002801D4009800E0E043C0B247B0F0BD07
:103B10003F008600F0B5CDB00193029203910446B8
:103B200005A804900026072731463A4600F05CF8C5
:103B300007AD0298A870039868702C7047AC1822E3
:103B40002046314600F050F84C97049F4B970320D5
:103B50004A9049951148479020463146FFF7BEFDEF
:103B6000002818D405A80078002815D1781C53998E
:103B7000529A037844782402E318019C23808378C6
:103B8000C4782402E3181380027940790002801877
:103B90000880304600E0FF204DB0F0BD3F008A00B5
:103BA00070B588B001AE0024347002AD18222846EA
:103BB000214600F019F80120079006960648029069
:103BC00028462146FFF78AFD002801D4019800E02D
:103BD000E043C0B208B070BD3F00940010B5044689
:103BE00000F084FB204610BD10B513460446CAB24F
:103BF000194600F06CFB204610BDD4D470B588B0D7
:103C000001AE0024347002AD182228462146FFF789
:103C1000EBFF0120079006960648029028462146B1
:103C2000FFF75CFD002801D4019800E0E043C0B23A
:103C300008B070BD3F000101F0B5C9B0009301921A
:103C40000F46064602A8002103242246FFF7CCFFB8
:103C500003A80670B11E4A424A410225012E294698
:103C600000D01101012E02D0022E2DD11025401CB2
:103C7000461839462A46FFF7B1FF00987070019840
:103C8000307043AF0026182238463146FFF7ACFFAC
:103C9000489402A84790E81C469003A845900D4818
:103CA000439038463146FFF719FD00280ED402A88C
:103CB000007800280BD14E9802A94A788978090229
:103CC00089180180304602E0472000E0FF2049B01B
:103CD000F0BDC0463F000201F0B5CDB01D460592D3
:103CE0000F46064606A8002103242246FFF77CFF64
:103CF00007A887700680B91E4A424A410226012F52
:103D0000314600D01101012F02D0022F40D11026E0
:103D1000C01C4718569900910494559C54990191E0
:103D2000539902915299039105993246FFF756FF34
:103D3000280A78703D700098B8717C7101983871CC
:103D40000298F8700398B87047AF002518223846DB
:103D50002946FFF749FF04984C9006A84B900A3675
:103D60004A9607A849900D48479038462946FFF7DC
:103D7000B5FC00280ED406A8007800280BD157986F
:103D800006A94A788978090289180180284602E044
:103D9000472000E0FF204DB0F0BDC0463F000401C9
:103DA000F0B5C9B01D4603AF7B713A717980388098
:103DB00002A8019000240470B81D4E991A46FFF71E
:103DC0000DFF43AE182230462146FFF70DFF0120BC
:103DD000489001984790A81D469045970648439003
:103DE00030462146FFF77AFC002801D4029800E013
:103DF000E043C0B249B0F0BD3F000601F0B5C7B026
:103E000001AE30806F4600243C7041AD1822284638
:103E10002146FFF7E9FE0120469045970220449095
:103E200043960F2042900748419028462146FFF7CD
:103E300055FC002801D4009800E0E043C0B247B030
:103E4000F0BDC0463F000B01F0B5C7B001AE3080F9
:103E50006F4600243C7041AD182228462146FFF7EA
:103E6000C3FE0120469045970220449043960748A0
:103E7000419028462146FFF731FC002801D40098E4
:103E800000E0E043C0B247B0F0BDC0463F002501AE
:103E9000F0B5C9B003AF4E9DBD717B713A717980A9
:103EA000388002A8019000240470F81D4F992A461A
:103EB000FFF794FE43AE182230462146FFF794FEEA
:103EC0000120489001984790E81D46904597074883
:103ED000439030462146FFF701FC002801D40298A8
:103EE00000E0E043C0B249B0F0BDC0463F0026014B
:103EF000F0B5C9B00D4603AF7970387002A80190D3
:103F000000240470B81C11462A46FFF767FE43AE32
:103F1000182230462146FFF767FE0120489001989D
:103F20004790A81C46904597064843903046214646
:103F3000FFF7D4FB002801D4029800E0E043C0B2B0
:103F400049B0F0BD3F000C00F0B5C7B001AE7170D4
:103F500030706F4600243C7041AD1822284621463F
:103F6000FFF742FE01204690459702204490439679
:103F70000648419028462146FFF7B0FB002801D4AF
:103F8000009800E0E043C0B247B0F0BD3F000F0032
:103F900070B588B001AE0024347002AD18222846F6
:103FA0002146FFF721FE0120079006960648029061
:103FB00028462146FFF792FB002801D4019800E033
:103FC000E043C0B208B070BD03000300F0B5C7B055
:103FD00001AE4C9CB47173713271718030806F4648
:103FE00000243C70F01D4D990622FFF7F7FD4F9815
:103FF000B0734E98707341AD182228462146FFF7E2
:10400000F3FD0120469045970F20449043960748C2
:10401000419028462146FFF761FB002801D4009813
:1040200000E0E043C0B247B0F0BDC0460800060063
:10403000F0B5C7B001AE30706F4600243C70701C04
:104040001F22FFF7CBFD41AD182228462146FFF77E
:10405000CBFD012046904597202044904396074889
:10406000419028462146FFF739FB002801D40098EB
:1040700000E0E043C0B247B0F0BDC0460800080011
:10408000F0B5C7B001AE30706F4600243C70701CB4
:104090001F22FFF7A3FD41AD182228462146FFF756
:1040A000A3FD012046904597202044904396074861
:1040B000419028462146FFF711FB002801D40098C3
:1040C00000E0E043C0B247B0F0BDC04608000900C0
:1040D000F0B5C7B001AE30706F4600243C7041AD02
:1040E000182228462146FFF77FFD0120469045977C
:1040F000449043960648419028462146FFF7EEFA41
:10410000002801D4009800E0E043C0B247B0F0BD01
:1041100008000A00F8B5002002900190024801A9A9
:1041200000F09AF804B080BD3801006010B588B086
:104130000A9C05940493039202910190024801A9FC
:1041400000F08AF808B010BDBA530060F8B50191CC
:1041500000900348694600F07FF804B080BDC04677
:10416000B36C0060FEB501AB07C3034801A900F0C2
:1041700073F806B080BDC046C570006084B00021F1
:1041800002910190024801A900F066F8FEE7C046DE
:10419000BE9A0060F8B5019100900248694600F0AF
:1041A0005BF88FBD81830060E0B50020019002487C
:1041B000694600F051F88CBDBB840060FEB501ABD0
:1041C00007C3034801A900F047F880B206B080BDDC
:1041D000E4850060E0B5002001900248694600F0E7
:1041E0003BF88CBDB1870060F8B5002102910190C9
:1041F000024801A900F030F804B080BD060B016050
:10420000E0B5002001900248694600F025F88CBD19
:10421000F4790060E0B5002001900248694600F0A2
:104220001BF88CBDF37A006010B58CB0129C099419
:10423000119C0894109C07940F9C06940E9C059466
:104240000493039202910190024801A900F004F83E
:104250000CB010BDA07C006001DF002900D17047C8
:104260000846FDF786FCD4D403B4014823E0C046D9
:104270000900000003B401481DE0C0460B00000027
:1042800003B4014817E0C0461500000003B401481C
:1042900011E0C0461B00000003B401480BE0C0461B
:1042A0002D00000003B4014805E0C04653000000A3
:1042B00003B40248FFE702490847C0466C0000000B
:1042C0000100210080B500AF00F068F880BD80B526
:1042D00000AF00F038F880BD80B500AF00F04CF8BA
:1042E00080BD80B500AF00F04DF880BD80B500AF57
:1042F00000F014F880BD80B500AF00F01FF880BD5D
:1043000080B500AF00F04FF880BD80B500AF00F081
:104310000AF880BD70470146C00F704780B500AFF6
:1043200000F0CEF880BD80B500AF032A03D908C9DC
:1043300008C0121FF9E7FFF7F1FF80BD80B500AF9D
:1043400000F007F980BD80B500AF0B4611461A4654
:1043500000F0AAF980BDD0B502AF1306D2B21404A2
:10436000E31814021B199B18032902D908C0091F5E
:10437000FAE7FFF7E8FFD0BD80B500AF0022FFF7F6
:10438000E2FF80BD80B500AF0022FFF7E4FF80BDF3
:1043900080B500AF0022FFF7DEFF80BD80B500AF23
:1043A00000F028F880BDD0B502AF144600F022F826
:1043B000002C00D02160D0BD00B581B06A46FFF767
:1043C0009FFF009901B000BDFEDE80B500AFFFF792
:1043D000DFFF80BDD0B502AF024600201023144697
:1043E000DC40A14200D8C018A14200D822465B0898
:1043F000F5D1D0BDF0B503AF85B00546884201D2F6
:10440000002459E028460E46FFF7E4FF1F230390DF
:1044100002461A40012001469140344694402A1B2E
:10442000B24202D215460C4646E025460C4600969E
:104430000399002D049304D401950294154608466F
:104440001AE006466D080195551B0846481E194698
:10445000039003460B4031469940002D0B4600DA8D
:1044600000230291002D00DA154623431C460098D4
:104470008542049B03981FD3009401994C1E03901E
:104480000646002E0ED00120FFF744FF85402D1B6D
:104490001F20FFF740FF049B284608412040451994
:1044A000761EEEE7039919402846C8400299491E36
:1044B0002940009C0C4305462046294605B0F0BD26
:1044C000F0B503AF86B00F2A0ED9444203230493FC
:1044D0001C400346051908460393AB4206D20678F2
:1044E0001E70401C5B1CF8E7034628E0121B02927A
:1044F0001046049A904301902B180E19B0070096AD
:1045000014D0F40018206142044005940140964301
:1045100004CE9D420CD20598C24010CE2046884061
:10452000104301C52246F4E702CE02C59D42FBD3EB
:10453000029A0498024001980099091803989C185F
:10454000A34204D20A781A70491C5B1CF8E706B033
:10455000F0BDF0B503AF87B0431A93421AD28D185D
:1045600083180F2A00D880E0059502900326104694
:104570001D46B5438818441E1846304003904042FB
:10458000049006969D4216D226785B1E1E70069EEB
:10459000641EF7E70F2A36D903924442032206929B
:1045A000144005190E460346AB422ED232781A70DB
:1045B000761C5B1CF8E70398121A1046B0432B1ABE
:1045C000404201900598049C0419A00703920094AE
:1045D0003CD0E2001820214654420240059204409B
:1045E00004940846B043061F0268059CAB4235D2CE
:1045F0000498824031680846E04010432D1F28602F
:10460000361F0A46F2E7034644E002900398001B77
:104610000390069A904304902B180E19B007019648
:104620002CD0F400182061420440059401409643C8
:1046300001CE14469D4227D2059AD04010CE224684
:104640008A40024304C52046069CF3E75018001F29
:10465000AB4203D201682D1F2960F8E7039A069840
:104660000240019800990D1802989C1A691E9C42FC
:1046700018D20A785B1E1A70491EF8E714469D424C
:1046800002D202CE02C5FAE7039A224004980199A9
:10469000091802989C18A34204D20A781A70491C7F
:1046A0005B1CF8E707B0F0BDFEB506AF0F2A0BD9CB
:1046B0004442032302931C40009404190346A3427E
:1046C00004D219705B1CFAE7054618E00190C8B2E5
:1046D0000823202B06D218251D400646AE40304345
:1046E0005B00F6E7009BD21A1346029DAB43E51828
:1046F000AC4201D201C4FBE7029802400198AA181B
:10470000954202D229706D1CFAE7FEBD7D0DDEC018
:1047100001000000010000007511DEC04D657373DB
:10472000616765207265766965775369676E203FBA
:104730005369676E696E672E2E2E00808F08111FD9
:1047400000000000000000007C008033C6CE618CB9
:10475000710000986F8C311C0000E031C618638C2A
:104760003D000000270C820E0000C04188080104B3
:1047700000008089278410020000E018633837C6E3
:104780001C0000002E84101C00008031C618638CB1
:10479000B1030060668661180000000CC33033036B
:1047A0000000C01B638C31C6780060086318431892
:1047B0000000416C65706869756D0000ED8D310613
:1047C00000000023C68C110300008001C618638C12
:1047D0003103726561647956657273696F6E302E4C
:1047E000312E3020202020517569745A65726F086F
:1047F0008A2808481242086B696E642184240141AA
:104800001105016578706C696369742070616E6967
:10481000633031617373657274696F6E20666169AC
:104820006C65643A206572726F72203D3D2043587A
:104830005F4F4B0101010101010101010101010172
:104840000101010101010101010101010101010158
:104850000101010101010101010101010101010148
:104860000101010101010101010101010101010138
:104870000101010101010101010101010101010128
:104880000101010101010101010101010101010118
:104890000101010101010101010101010101010108
:1048A00001010101010101010101010101010101F8
:1048B00001010100000000000000000000000000F5
:1048C00000000000000000000000000000000000E8
:1048D00000000000000000000000000000000000D8
:1048E00000000000000000000000000000000000C8
:1048F00000000000000202020202020202020202A2
:104900000202020202020202020202020202020287
:10491000020202030303030303030303030303036A
:10492000030303040404040400000000000000006A
:10493000000000D47D0DDEC00C000000040000006B
:10494000FD0EDEC09910DEC01511DEC063616C6C17
:10495000656420604F7074696F6E3A3A756E777255
:104960006170282960206F6E206120604E6F6E6537
:10497000602076616C7565207B0A3A202C0A207BCA
:10498000207D207D7D0DDEC00400000004000000BD
:104990003D11DEC04911DEC05511DEC05061727399
:1049A00065496E744572726F724E65674F766572B7
:1049B000666C6F77506F734F766572666C6F774970
:1049C0006E76616C69644469676974456D70747969
:1049D00043616E63656CD4D4FF47DEC00400000001
:1049E0000700000004000000000000007700220023
:1049F000D849DEC0EF47DEC0040000000700000019
:104A0000040000000000000002001A00F449DEC0AB
:104A100002001E00F449DEC077001E00D849DEC047
:104A2000FB47DEC004000000040000000700000097
:104A30000000000076001C00204ADEC0F347DEC004
:104A40000400000004000000070000000000000057
:104A500006001C003C4ADEC07A001C00204ADEC072
:104A600002001C003C4ADEC0000000000090240947
:104A700002006006000000000010C94FA1FC2402E3
:104A800000000000E0290A83611E0000008CA8508D
:104A9000A1CD162A54C400000000001C12120C4ABA
:104AA00052225E000000280000909424920090445E
:104AB0009292000041FC8C0400000000000000C83D
:104AC0008F000000000000005200000000060000FF
:104AD00000000002008044242201000023499224A7
:104AE000490C000000A32008822008000080034138
:104AF0001042081E00008003410C04410E0000001B
:104B000020302824247E20200000008027081E0456
:104B1000410E00000027089E24490C000080074138
:104B20000842100400000023498C24490C000000B6
:104B300023499207410E0000000400020000040017
:104B400052000000218681400000000000001EE0AD
:104B50000100000000201018460800000000E0439B
:104B6000905C4A29A5947E02F00100000004854271
:104B700011F94441000000009F48E41189443E00BF
:104B80000000009E412010080C3C000000003E4246
:104B900042424242423E0000008027089E20081EFA
:104BA0000000802F08822F08020000007C02020211
:104BB0006242427C000000004242427E4242424247
:104BC0000000009024490200404444444403009102
:104BD0004461504844420000008020088220083E82
:104BE000000000186698614A2925934C32010000A4
:104BF000000042464A4A5252624200000000F80851
:104C00001224489020417C00000000008F4824F2CC
:104C100008040200000000F8081224489020417C9B
:104C200040000100008F4824F248442200000000A8
:104C300027080606410E0000001F028140201008D0
:104C400000000000424242424242423C00000080DA
:104C5000A04824A250280800000000C428934C4A11
:104C600029A5142184000000004028310C2349218B
:104C700000004028490C82200800008007210821FC
:104C8000081E0000E0222222220E102242440800C8
:104C900070444444440700C3485208000000000424
:104CA00002000000000000000000789027491E006C
:104CB000000081C0231289441E00000000108827D4
:104CC0001289443C0000000000709227081C00007C
:104CD0000000F892E4085E187A0081C0231289442B
:104CE00022000000102449020040404444447480E3
:104CF00020488AA148120000000000807722892401
:104D0000924822010000000000C0231289442200C2
:104D10000000000080231289441C0000000000C035
:104D2000231289441E814000000080271289443CE0
:104D300010080400E02222020000F222220E0000ED
:104D40000040241289443E00000000008492243177
:104D50000C000000000088A84A952A2244000000A8
:104D60000000004812C34812000000008492243161
:104D70000C410CC0442442440C00822008822008CC
:104D80008220302242242203000000060600000098
:104D900000009F48241289443E000000B06DC30605
:104DA00000802D490000000000000012C94FF94B9F
:104DB000241200000088B72C0E87A61F02000038BE
:104DC000B1C60AFBF98D35D6C8010000000078D8BD
:104DD000B0C1C1DB3D7BBE01000000B0040000009B
:104DE0004066333366042066CCCC660200D3FE9E58
:104DF000070000000000C0303FC3000000000000BA
:104E0000C01A000000F00F00000000C00600003CC7
:104E10006666666666663C00000000C679188661B4
:104E2000180000008E0D06C370183E000000000F31
:104E30000CC681C1601E0000000030383834347E5A
:104E400030300000008067181E86611E00000038A8
:104E50000C043E6666663C000000001F0C06C36042
:104E6000300C000000003C66663C6666663C000054
:104E700000003C6666667C60301C000000006CC070
:104E80000600006CC01A000000003FF003000000A4
:104E9000C083618E011806000000E0C398DD5B2F1F
:104EA000BDF67E06E007000000183C3C7E667EE70B
:104EB000C3000000009FCDE6B1D96C3E00000000A9
:104EC0009EC16030180C3C000000003E66666666BD
:104ED00066663E0000008067189E61181E00008014
:104EE0006F189E6118060000007C060676666666EE
:104EF0007C000000006666667E66666666000000EE
:104F000060666666060000E666361E3E3666E600A9
:104F100000008061188661183E000000709CE3BCB0
:104F2000E73DEF59CD6E760300000000009C39F399
:104F3000E6CD9E3D73E60000000000F8183366CC15
:104F40009831637C00000000009FCD66F3190C06C9
:104F500000000000F8183366CC9831637CC0000371
:104F600000001E3636361E363666000000006F180A
:104F70000E87E71E0000C0CF300CC3300C000000CD
:104F8000666666666666663C000000C03CCFB3E7B6
:104F9000790C00000098B3DDEC6635AB71873BD827
:104FA000000000000000C3663C3C3C3C66C30000BF
:104FB0000080B1CDC6C1603018000000803F0C8772
:104FC00061380C7F0000000006C323990100000037
:104FD000000000000000000000F0030C0C000000C6
:104FE0000000000000000000C003F3CD663E00009A
:104FF000000083C167B3DB6D3E0000000000F0C617
:1050000071183C000000188C67BBDD6C3C00000090
:1050100000008067FE1F0C3C00000000677C86617A
:10502000180600000000C06FB3790CBEF1D807006D
:1050300083C167B3D96C3600000060606666060005
:105040000083C1E6F3786C760000000000008076F3
:10505000B6D9669B6DB60100000000004067B3D969
:105060006C3600000000008063BBDF6D1C00000098
:105070000000C067B3DB6D3E83C1000000C067BBAA
:10508000DD6C3E180C0600007886C7C31E000000C9
:1050900000C066B3D96C2E0000000000606CB3D96C
:1050A000381C000000000000C0CCB6F9E71F33CC6C
:1050B000000000000000E06EE3706C77000000006C
:1050C00000606CB3D1381C06C3000000FC18C31884
:1050D0003F000000C3300CC3300CC3300000006F31
:1050E0000F000000008027499224491E0000D4D4FC
:1050F000684ADEC0050000006D4ADEC00500000001
:10510000724ADEC006000000784ADEC00B000000D4
:10511000834ADEC0090000008C4ADEC00E00000099
:105120009A4ADEC00C000000A64ADEC00300000060
:10513000A94ADEC005000000AE4ADEC0050000003E
:10514000B34ADEC009000000BC4ADEC0090000000E
:10515000C54ADEC005000000CA4ADEC006000000E5
:10516000D04ADEC005000000D54ADEC006000000BF
:10517000DB4ADEC009000000E44ADEC0090000008E
:10518000ED4ADEC009000000F64ADEC0090000005A
:10519000FF4ADEC00C0000000B4BDEC0090000001F
:1051A000144BDEC0090000001D4BDEC009000000EA
:1051B000264BDEC0090000002F4BDEC009000000B6
:1051C000384BDEC0050000003D4BDEC0050000008E
:1051D000424BDEC0090000004B4BDEC0090000005E
:1051E000544BDEC0090000006A47DEC00800000022
:1051F0005D4BDEC00F0000006C4BDEC00B000000FA
:10520000774BDEC00B000000824BDEC00B000000BD
:105210008D4BDEC00C000000994BDEC00900000081
:10522000A24BDEC009000000AB4BDEC00C0000004A
:10523000B74BDEC00C000000C34BDEC00500000011
:10524000C84BDEC006000000CE4BDEC00B000000E5
:10525000D94BDEC009000000E24BDEC00F000000A9
:10526000F14BDEC00C000000FD4BDEC00E00000064
:105270000B4CDEC00B000000164CDEC00E00000020
:10528000244CDEC00B0000002F4CDEC009000000E3
:10529000384CDEC00B000000434CDEC00C000000A8
:1052A0004F4CDEC00B0000005A4CDEC00F00000067
:1052B000694CDEC009000000724CDEC0090000002D
:1052C0007B4CDEC009000000844CDEC006000000FC
:1052D0008A4CDEC006000000904CDEC006000000D4
:1052E000964CDEC0090000004247DEC00800000006
:1052F0009F4CDEC009000000A84CDEC00900000081
:10530000B14CDEC00B0000008247DEC00800000088
:10531000BC4CDEC00B000000C74CDEC00900000022
:105320007247DEC008000000D04CDEC0090000005B
:10533000D94CDEC00B000000E44CDEC005000000CC
:10534000E94CDEC006000000EF4CDEC009000000A2
:10535000C34BDEC005000000F84CDEC00F000000AB
:10536000074DDEC00B000000124DDEC00B00000038
:105370001D4DDEC00B000000284DDEC00B000000FC
:10538000334DDEC0060000006247DEC008000000AA
:10539000394DDEC0060000003F4DDEC00B000000AE
:1053A0004A4DDEC009000000534DDEC00E00000073
:1053B000614DDEC0090000006A4DDEC0090000003A
:1053C0003A47DEC008000000734DDEC00600000052
:1053D000794DDEC009000000824DDEC006000000ED
:1053E000884DDEC009000000914DDEC00B000000BA
:1053F0000303040706090802030306060304030463
:105400000606060608060606060603030606060541
:105410000A0707070806060808030407060A08091A
:10542000070907060708070A060606040404060516
:10543000060607050706050607030406030A07070D
:1054400007070405040706090606050406040607FF
:105450000C000000684ADEC0050000009C4DDEC064
:1054600005000000A14DDEC009000000AA4DDEC00D
:105470000B000000B54DDEC009000000BE4DDEC0CF
:105480000F000000CD4DDEC00E000000DB4DDEC081
:1054900005000000E04DDEC006000000E64DDEC065
:1054A00006000000EC4DDEC009000000F54DDEC036
:1054B00009000000FE4DDEC005000000034EDEC006
:1054C00006000000094EDEC005000000C247DEC035
:1054D000080000000E4EDEC00C0000001A4EDEC0B8
:1054E00009000000234EDEC00B0000002E4EDEC07F
:1054F0000B000000394EDEC00C000000454EDEC03F
:10550000090000004E4EDEC00C0000005A4EDEC006
:105510000B000000654EDEC00C000000714EDEC0C6
:105520000C0000007D4EDEC005000000824EDEC093
:10553000050000009247DEC008000000874EDEC074
:10554000090000009A47DEC008000000904EDEC04F
:1055500009000000994EDEC00F000000A84EDEC01A
:105560000C000000B44EDEC00B000000BF4EDEC0D9
:105570000B000000CA4EDEC00C000000D64EDEC09C
:1055800009000000DF4EDEC009000000E84EDEC06A
:105590000C000000F44EDEC00C000000004FDEC026
:1055A000060000008A47DEC008000000064FDEC08B
:1055B0000C000000124FDEC0090000001B4FDEC0CF
:1055C000110000002C4FDEC00E0000003A4FDEC07C
:1055D0000E000000484FDEC00B000000534FDEC03D
:1055E0000E000000614FDEC00C0000006D4FDEC0F9
:1055F00009000000764FDEC0090000007F4FDEC0CA
:105600000C0000008B4FDEC009000000944FDEC08C
:1056100011000000A54FDEC00C000000B14FDEC03D
:105620000B000000BC4FDEC00B000000A247DEC034
:1056300008000000AA47DEC0080000005A47DEC08C
:1056400008000000C74FDEC00B000000D24FDEC0D4
:1056500009000000DB4FDEC00B000000E64FDEC09B
:105660000B000000F14FDEC00B000000FC4FDEC05D
:10567000090000000550DEC00B0000001050DEC025
:105680000B0000001B50DEC0090000002450DEC0EB
:105690000B0000002F50DEC00B0000003A50DEC0AF
:1056A00006000000CA47DEC0080000004050DEC00F
:1056B0000B000000004FDEC0060000004B50DEC0B3
:1056C0000F0000005A50DEC00B0000006550DEC025
:1056D0000B0000007050DEC00B0000007B50DEC0ED
:1056E0000B000000BA47DEC0080000008650DEC094
:1056F000090000005247DEC0080000008F50DEC0E5
:105700000B0000009A50DEC00B000000A550DEC068
:105710000F000000B450DEC00B000000BF50DEC020
:105720000B000000CA50DEC0090000004A47DEC07E
:1057300008000000D350DEC0090000007A47DEC038
:1057400008000000DC50DEC009000000E550DEC0AB
:105750000900000003030607060A090304040606FD
:1057600003040305080607070806080708080303DB
:10577000050605060A0807070806060808040508BE
:10578000060B0909070908060608060B080707059E
:1057900005050706070707060707060707040507A5
:1057A000040A0707070705060507070A070706058E
:1057B000060506060C0000000000000000000000C6
:1057C00000000000000000000000000000000000D9
:1057D00000000000000000000000000000000000C9
:1057E00000000000000000000000000000000000B9
:1057F00000000000000000000000000000000000A9
:105BB000000000000000000063616C6C6564206000
:105BC000526573756C743A3A756E777261702829F4
:105BD00060206F6E20616E20604572726020766179
:105BE0006C75650102FF0405FFFF08FFFFFFFF0D55
:105BF0000E0F10FFFFFFFFFF16FF18D40921110140
:105C0000000122220006A0FF0901A10109031500DD
:105C100026FF007508954081080904150026FF003D
:105C2000750895409108C0D43D2BDEC04D2BDEC0D9
:105C30005D2BDEC06D2BDEC07D2BDEC08D2BDEC06C
:105C40009D2BDEC0AD2BDEC0D12CDEC0FF2CDEC014
:105C5000412CDEC00000000000000000CD2ADEC0A4
:105C6000E52ADEC000000000000000000000000087
:105C7000212CDEC0212CDEC0212CDEC0312CDEC068
:105C80001201000200000040972C014001020102B5
:105C90000301040309040E034C006500640067005F
:105CA000650072000E034E0061006E006F00200060
:105CB00058000A033000300030003100090229008A
:105CC000010102C0320904000002030000020921A0
:105CD000110100012222000705820340000107058F
:105CE0000203400001D4D4D40A06000200000040A0
:105CF000010072656764654C00000400972C003455
:105D0000D61372656764654C01000400972C00345B
:105D1000D61372656764654C02000400972C00344A
:105D2000D61372656764654C03000400972C003439
:105D3000D613D4D4D4D4D4D4D4D4D4D4D4D4D4D4E2
:105D4000D4D4D4D4D4D4D4D4D4D4D4D4D4D4D4D413
:105D5000D4D4D4D4D4D4D4D4D4D4D4D4D4D4D4D403
:105D6000D4D4D4D4D4D4D4D4D4D4D4D4D4D4D4D4F3
:105D7000D4D4D4D4D4D4D4D4D4D4D4D4D4D4D4D4E3
:105D8000D4D4D4D4D4D4D4D4D4D4D4D4D4D4D4D4D3
:105D9000D4D4D4D4D4D4D4D4D4D4D4D4D4D4D4D4C3
:105DA000D4D4D4D4D4D4D4D4D4D4D4D4D4D4D4D4B3
:105DB000D4D4D4D4D4D4D4D4D4D4D4D4D4D4D4D4A3
:105DC000D4D4D4D4D4D4D4D4D4D4D4D4D4D4D4D493
:105DD000D4D4D4D4D4D4D4D4D4D4D4D4D4D4D4D483
:105DE000D4D4D4D4D4D4D4D4D4D4D4D4D4D4D4D473
:105DF000D4D4D4D4D4D4D4D4D4D4D4D4D4D4D4D463
:04000005C0DE000158
:00000001FF
