:02000004C0DE5C
:1000000080B56F4601F074FD012001F01FFAFEDE9D
:1000100080B56F468AB005204FF48171069008487C
:10002000ADF810100221784401F04AFD082001903B
:10003000044878440090684601F088FB0AB080BD0F
:10004000553100002931000080B56F468AB0052087
:100050004FF4817106900848ADF8101002217844E1
:1000600001F02EFD07200190044878440090684676
:1000700001F06CFB0AB080BD293100001631000090
:10008000FEB506AF4FF481700121ADF814000120D8
:1000900003900420029004487844019001A801F0E4
:1000A00055FB06B080BD00BFF8300000F0B503AFCF
:1000B0004DF8048D8046007801242B2816D02D2879
:1000C0004FF0010615D0002500246E1E18BF012632
:1000D000012D0ED018F805000A2100F0E3FC38B11C
:1000E00004EB8400013501EB4004EEE7012600E05B
:1000F0000124304621465DF8048BF0BD08B908465E
:100100007047E0B502AF0448791E044A78447A4447
:1001100001F073F8FEDE00BF54440000A62F00007B
:1001200080B56F46C6B001AC01F0D7FC20464FF455
:10013000604101F03CFA002001F088F9FEDED4D4E1
:10014000D0B502AFC0B230B1012807D0022816D115
:100150000E4C7C4404E00B4C7C4401E00A4C7C4493
:1001600002F0F8FD0A48784401F0B3FA09487844EF
:1001700001F0AFFAA047BDE8D04002F0F3BD00F0B7
:10018000DCFDFEDEB5FEFFFFE7FEFFFF2BFFFFFFFE
:10019000F2430000E243000080B56F46ADF57C7D80
:1001A00012AC01F09AFC0020FFF7CAFF92AE0DF5E9
:1001B000347BF01C0BF1490820F003000BF1040A1A
:1001C000801B07900BF10800059080A804F5867548
:1001D00005300B900BF101000890A3A8CDF84480E6
:1001E00001300A90701C06900020CDE90F5A09904A
:1001F00055E212AA1154549802305490104601F05E
:1002000053F94CE2052800F24A82DFE810F00600BC
:10021000BA004802BF00C200CF00BC48784401F0D9
:10022000B9FA3CE206983F2208999DF8D05202F0B4
:10023000E5FD079C00208DF848525DAD3F2800F297
:10024000BB80335C59B2002918D4611C02D0211A3A
:10025000890702D00130F1E70830392808D2321876
:1002600031585268114311F0803FF5D000E0013061
:100270003F28E3D831560029F9D5DFE7A44A7A446C
:10028000D25C042A14D0032A05D0022A74D13F2854
:1002900072D201304DE03F286ED28219E02B5278A5
:1002A00015D052B2ED2B17D112F1610F3EDD63E094
:1002B0003E2861D88219F02B92F9015017D0F42B07
:1002C0001BD115F1710F57DC3D281FD954E002F006
:1002D000E001A0292AD04FE001F11F03DBB20C2B73
:1002E0001DD212F1410F47DC3D2821D944E005F130
:1002F0007001C9B22F2907D93EE00F31C9B20229D6
:100300003AD815F1410F37DC3E2835D292F9021068
:1003100011F1410F30DC3C282ED8033009E021F0E8
:100320000101123128D112F1410F25DC3E2823D2E0
:100330000230315611F1410F1EDC01307DE757A923
:10034000584600F047FB9DF8D042202C40F0FE803C
:10035000BDF8D212FDE25DA892A9442202F058FD38
:100360009DF846028DF87201BDF84402ADF87001A7
:10037000DDE910060C9901E16822022101F0A8FBD9
:10038000E8E26448784401F005FA88E1099802300F
:1003900001E009980130C0B20321B0FBF1F101EB9B
:1003A0004101401A0990FFF7CBFE78E10998C0B2ED
:1003B000022840F07481F2E202F0CCFC0024042018
:1003C000A39000215D948DF87841B594524878440B
:1003D000B4900220ADF8E0020120B690A3A8CDE9C8
:1003E00082B04020CDE9806080A801F0C5FA28469F
:1003F00001F07CFAC0B20628F9D00528F7D8DFE86A
:1004000000F00409030E1622F1E74448784401F095
:10041000C1F9ECE74248784401F0BCF9E7E741480C
:10042000784401F073F9013C38BF444608E03E4887
:10043000784401F06BF9A399601C884238BF0446E8
:1004400080A82146D1E702F085FC00200621929089
:1004500001258DF84C024FF00008BA913348BB9546
:100460007844B9900220CDE9B515ADF8F4024FF407
:100470008170ADF8E0022E487844B490584601F0FF
:1004800061FA304601F032FAC0B20628F9D0DFE84E
:1004900000F003110820162F2648784401F07AF95D
:1004A000EFE72548784401F031F92448784401F019
:1004B0002DF9E6E72248784401F06CF9E1E721489C
:1004C000784401F023F901258DF8E1828DF8F55289
:1004D000D4E71D48784401F019F9012000258DF872
:1004E000E102584602218DF8F55201F02FF9C5E7D7
:1004F000E8070F9D00F0AC8057A9304600F0BFFE22
:10050000939821285AD2032460E000BF2C430000B6
:10051000FB2F0000A8410000924100003C41000078
:100520001641000028410000FC400000732C000030
:10053000504000006640000064400000644000003D
:100540002E400000244000002C400000BDF8D26284
:1005500051469DF8D1525DA8442202F059FCB8F8EA
:1005600000003146ADF87001464698F802008DF85B
:10057000720150469DF818A3DDF86C81ADF8D212D7
:1005800044228DF8D1528DF8D0425DA902F040FC92
:10059000BDF87001412230809DF87201B0708DF875
:1005A00018A312AC0599204601F057F898FA88F084
:1005B000929092AE20460422314677E1302801D84D
:1005C000042403E00924412838BF05245846482163
:1005D00002F020FC4820CDF800825D902020CDE97B
:1005E000000B5DA8029080A80390304640F20161A4
:1005F0002246534602F0E6FB38B1304600F03BFAA3
:1006000068220B21DDE910A8A4E1089D0DF5DC7A34
:1006100047229DF8D0825046294602F0EFFB304633
:100620005D9C00F028FAE4480A21784401F079F949
:100630002846514647228DF8D08202F0DFFB492C34
:1006400080F0B18112A85946224601F006F80F9DAC
:1006500012A84FF4104100F0AAFF00200990FFF704
:100660006FFDDDE910A81AE000F042FE08B900F0C5
:1006700049FE5846802100F037FE9DF8D002BDF8B3
:10068000D14200F023FEC1B2A1F10E0008281BD810
:10069000DFE800F005112633333333332F0058469B
:1006A000802102F0B7FBC248002109F8001048443D
:1006B00081714180D8E7A0B2B0F5807F1DD19DF84F
:1006C000D30200F031FE18E0052916D19DF8D302BF
:1006D0004108284600F0C2FEC0B206280DD091E5C0
:1006E00020BA000C022808D912A8594600F056FE7C
:1006F00003E012A8594600F08BFEAD4819F800003F
:100700000028B1D0AA48484440880028ACD09DF8C1
:1007100049405390032C80F03C8157A8142102F0EB
:1007200079FB002C00F09F8012A95846012C40F064
:10073000C78000F05BFFB498002800F00881B599ED
:1007400057AA01F0A1F9002800F0FE809DF84A2088
:10075000002A3FF4F4AD9DF84B000E92B0FBF2F18D
:1007600001FB12000D9057A9584600F033F99DF88F
:10077000D042202C3FF4ECADBDF8D20251460C9093
:10078000304644229DF8D15202F042FBB8F80000F6
:100790003146ADF84402442298F802008DF8460232
:1007A0009DF818A380A802F033FBDDE90A0120229E
:1007B00002F024FB5046012161F35F008DF88C02AA
:1007C00058464FF4807102F01FFBACAE202130463A
:1007D00002F020FB58464FF4807102F0EEFA002838
:1007E00040F0C88000200021CDE90000A3AA5846AF
:1007F000212302F0F1FA0028F49040F0BF8020207D
:1008000001210190584600220023009602F0E4FAEC
:100810000028F59040F0B680002041F205512028D4
:1008200005D0325C01EB411101301144F7E741F092
:1008300001000E9A00BADDF86C81010C81EA1021EA
:1008400081EA10614840C0B2B0FBF2F101FB120036
:100850000D9988423FF47FAD08F101005B9092AEA4
:1008600001F036F97FE7554D554C7D447C442846D0
:10087000A047544E00F001008A467E44B0475248DB
:100880007844A04700F001008846B0472846A047BA
:1008900000F001000D46B04712A88DF8D2528DF835
:1008A000D18259468DF8D0A292AE032200F0D5FE37
:1008B00012A84FF4104100F07AFE01F009F9EEE6BB
:1008C00000F094FEB49C002C41D0B59834283BD164
:1008D00057AA2046142101F0D7F8A8B302F03AFA3B
:1008E00000200F21B4904FF000088DF8D402314859
:1008F000784401F016F8584600F0F8FFC0B2062818
:10090000F9D003380228F6D85846402102F082FA7E
:1009100004F1140A002020283FF484AC1AF80010D7
:100920005722A02938BF302202EB11120BF81020F9
:1009300001F00F0157220A2938BF302211440BEB76
:10094000400201305170E6E76E22012102E0BDF85D
:10095000D4120A0A54988308402B9FBF12AB1A5432
:100960005498013098BFB0F5827FFFF442AC01F09B
:10097000A3F8FEDE1648202178440DE00020F89010
:10098000F4A802E00020F890F5A8F6A900F07CF8A1
:10099000FEDE0E480E21784400F0D4F9FEDE002081
:1009A00000F054FDFEDE2046482100F05CFBFEDE38
:1009B00000000000D4270000AF2A000050290000EA
:1009C0003DF8FFFF7FF8FFFF3B29000016280000DD
:1009D00044280000F0B503AF2DE9000DB0B013AE10
:1009E0008046304600F04BFC9DF84C401DAD05F1B3
:1009F000080041214FF0410A02F00CFA2046294636
:100A000032460123CDF878A08DF8744002F0DFF96A
:100A100018B100F0F7FBC4B20CE0291DBDF87660F8
:100A20009DF8745048229DF8754001A802F0F0F935
:100A3000202D08D144F06E00A8F8020013A800F0A1
:100A40001AF820250CE008F1040001A9482202F060
:100A5000DFF913A800F00FF8A8F8026088F8014049
:100A600088F8005030B0BDE8000DF0BD80B56F468D
:100A7000FFF756FBFEDE083000210022202A08BFC7
:100A8000704781540132F9E780B56F4688B002AAF9
:100A900091E87850104680E8785001A9684600F047
:100AA00056F9FEDE0A46A0F130010A2A0DD9242AA1
:100AB00010D80A293CBF0120704740F0200061385F
:100AC00010F10A0128BF4FF0FF310020914238BFDA
:100AD0000120704780B56F4600F02FF9FEDE80B52B
:100AE0006F4600F001F8FEDE80B56F4616464FF403
:100AF000807298460C46054600F062F840B9A6425E
:100B000003D8A04598BF464511D900F016F9FEDE7E
:100B10000346A04204D2E85610F1410FEFDC00E09A
:100B2000EDD0284621460022FFF7D9FFFEDE7EB930
:100B3000464628462146324600F042F8024670B941
:100B4000A24213D11D482B21784400F0FBF8FEDEB1
:100B5000A6422BD2A85710F1400FE9DAE9E7A242EA
:100B600026D2A85610F1410FEADC22E0A81890F92D
:100B70000010B1F1FF3FC8DCC9B2E02928BFF0295D
:100B8000C3D3427801F007018378C07802F03F02B6
:100B900003F03F03120300F03F0042EA83121044C7
:100BA00040EA8140B0F5881FAFD1CBE7C0D0C0E7A5
:100BB000C6D0284621462346B6E700BF04270000DA
:100BC00080B56F46914210D90346D01E38BF002031
:100BD000511C81420BD31A44091A29B112F9013967
:100BE000013913F1400FF8DB0144084680BD00F0E5
:100BF0003AFAFEDE0068FEE7F0B503AF2DE9000D1E
:100C00008AB0934603228DF82420202208920022E5
:100C10000792059201ABDBF8008007C3B8F1000F23
:100C20003BD0DBF804000024450120F07840009020
:100C3000002D52D0DBF8080001194A6822B1015991
:100C400000F036FF002858D1D8E9050108F1200A44
:100C5000DBF81060089198F81C108DF8241008F14A
:100C60000C010790304600F04FF8CDE9030108F180
:100C70000401304600F048F8CDE90501D8F800102D
:100C800056F8310006EBC1014A6801A990470834C3
:100C9000203D0028D046CBD02FE0DBE904500DF1F9
:100CA00004084FEAC00A002620F060400090B245D8
:100CB00013D0DBF8080081194A681AB1815900F095
:100CC000F7FED0B9D5E90002414605F10804904786
:100CD000083625460028EAD00FE0DBF80C00009922
:100CE00081420CD2DBF80800009A50F8321000EB79
:100CF000C200426800F0DCFE08B1012000E00020E4
:100D00000AB0BDE8000DF0BD0A685AB1012A07D14A
:100D1000496800EBC1025268064B7B449A4203D0FB
:100D200000207047081D01E050F8310001680120E3
:100D3000704700BFD7FEFFFF704780B56F46FFF7D3
:100D400095FEFEDE80B56F46FFF7F7FFFEDE80B54D
:100D50006F46FFF7F2FFFEDED0B502AF0C469942B8
:100D600001BF11462246BDE8D04002F047B82046F8
:100D7000194600F001F8FEDE80B56F46FFF7DDFF93
:100D8000FEDED4D4F0B503AF2DE9000D94B00A24F3
:100D90000023CDE910440124ADF84830CDE90E24FC
:100DA0000BAC0EC4016802914168CDE90932019192
:100DB000866809A81C30069000969DF84900002816
:100DC00040F0C2800F9BDDE90C2B0E9E581E079051
:100DD0000B9808900593CDE9036296424FF000000E
:100DE00088BF01205E454FF0000138BF0121084354
:100DF000089800EB0B0418BF002475D1DDE906014B
:100E0000A6EB0B05072D10F8018007D800218D42B5
:100E100069D0605C404545D00131F8E7E01C20F026
:100E20000300A04202D14FF0000A0EE0A0EB040A3A
:100E30004046AA4528BFAA462146524600F0CCF9B2
:100E4000DDE903620128059B2CD04FF00130A5F1AC
:100E5000080108FB00F08A4515D854F80A204240E2
:100E6000A2F1013323EA020204EB0A035B68434068
:100E7000A3F1013626EA03031A4312F0803F02D1A0
:100E80000AF1080AE7E7554563D304EB0A01A5EB2D
:100E90000A02404600F0A0F9059B0128DDE9036243
:100EA00021D1514401EB0B0000F1010BCDF834B01E
:100EB0009B4592D3934590D8052B4DD20899ABEB27
:100EC0000300069A0844194600F04EF8059B0028D6
:100ED000DDE903623FF481AF099DCDF824B0ABEBAF
:100EE0000504009E0CE00D9601209DF848108DF839
:100EF0004900DDE90950009E09B9A84224D0441BED
:100F0000307838B101980422C368164902987944B0
:100F10009847B8B9089805440A2013903CB1601965
:100F20000121421E13A8012300F01EF800E000205A
:100F30003070294601982246C368029898470028D5
:100F40003FF43BAF012000E0002014B0BDE8000DED
:100F5000F0BD5046294601E01846042100F083F810
:100F6000FEDE00BF7E22000099421CBF00207047B9
:100F7000D0B502AF0C461146224601F047FFB0FA49
:100F800080F04009D0BDE0B502AF00228029019277
:100F900003D28DF80410012230E002220B4662F3E6
:100FA0009F13B1F5006F05D28DF80530C02343EAD9
:100FB000911121E0B1F5803F0DD28DF80630E0238C
:100FC00043EA1133890962F39F118DF804308DF8DB
:100FD0000510032212E08DF807308B0962F39F138E
:100FE0008DF806300B0B890C62F39F131E2262F3FF
:100FF000DF0104228DF805308DF8041001A9FFF7F8
:10100000C1FE8CBDF0B503AF4DF804BD88B00190B2
:1010100002AA91E87850104680E8785001A8044967
:101020007944FFF7E9FD08B05DF804BBF0BD00BFEF
:10103000E02100000068FFF7A5BE0068FFF7A3BF2E
:10104000F0B503AF4DF8048D86B00068EC4691E82A
:1010500074416346614683E87441FFF7D3FF06B0ED
:101060005DF8048BF0BD80B56F4600F001F8FEDE40
:1010700080B56F46FFF761FEFEDED4D4F0B503AF56
:101080002DE9F00DD1E900460D46D6F80CA08046BA
:101090002E490D2220467944D04700284BD1287E86
:1010A00040071DD42A49204603227944D04700280E
:1010B00041D12849204604227944D047D8BB26494B
:1010C000204602227944D047A8BB404621463246FA
:1010D00000F052F878BB214920460222794433E0DF
:1010E0001F49204603227944D0470146012019BBFD
:1010F000A7F1190107F8190C02916846CDE90046DD
:10110000042218497944FFF73DFEA0B91649684604
:1011100002227944FFF736FE68B9144A6946404610
:101120007A4400F029F830B911496846022279441E
:10113000FFF728FE20B1012004B0BDE8000DF0BD8E
:101140000C49204601227944D047F5E7822100006E
:101150004F210000E8200000B32100002121000001
:101160000E2100009C20000065210000BC20000032
:10117000C9200000B6200000F0B503AF4DF804BD53
:1011800000780E460F4905247944DFE800F0120389
:10119000070B0F000C490C2479440AE00B490B247F
:1011A000794406E00A490B24794402E00949042401
:1011B0007944D368304622465DF804BBBDE8F04070
:1011C000184700BFBF200000A320000090200000AF
:1011D0007D200000E41F0000D0B502AFC0B20023A4
:1011E0009A4204D0CC5C844203D00133F8E700205B
:1011F00001E001201A461146D0BD80B56F46FFF7C9
:101200009CFDFEDE014600F17F021020222A15D847
:10121000DFE802F01B121D1F21232527292B2D2F6C
:10122000343434343434343434343434343434347E
:1012300034343434343133000220704711F1BF02AA
:1012400004BF0D207047DF3118D100207047032004
:10125000704704207047052070470620704707201C
:10126000704708207047092070470A2070470B20FC
:1012700070470C2070470E2070470F207047F0B564
:1012800003AF2DE9000D8CB00DF108080D4608F1F3
:101290000806044620214FF0200A304601F0BAFD2E
:1012A000212029468DF808000020009021200522E9
:1012B0003346CDF80CA001F001FD2046414628221E
:1012C00001F09CFD0CB0BDE8000DF0BD0138C1B2CD
:1012D000172984BFFF207047024940B27944085C57
:1012E000704700BFAF32000089B2002201F014BD88
:1012F00080B56F4601F008FD0138B0FA80F0400972
:1013000080BDD4D4E0B502AFFFF7F2FF48B90020AA
:10131000052107F8010C034847F8050C781F01F078
:10132000E9FC8CBD60000200D0B502AFFFF7CEFF34
:10133000C0B20138072814D8DFE800F00414131AEB
:10134000131313201348012109EB0004204600F079
:101350007DFF204600F061FF0F4809EB000189790D
:1013600091B1D0BD0B484844BDE8D04000F075BFF6
:1013700008484844BDE8D04000F06BBF05484844E9
:10138000BDE8D04000F067BF484412210C3001F0A6
:1013900041FDD0BD7400000000000000DCB504AFCA
:1013A0000A79012A1AD0CB78022A03F07F041CD0D4
:1013B000042A28D1052C26D8134A00904A44134801
:1013C00022444B79484413734FF48272ADF80420E1
:1013D0008A1D6B46214600F06AFEDCBD0B480631D3
:1013E0004844BDE8DC4000F037BE062C0BD206486E
:1013F0000022484400EB440042828A1D03482146F3
:10140000484400F0A1FEDCBD0000000074000000B4
:10141000B0B502AF0C4A19F8023003B1B0BD0A23CF
:1014200009F802304A4406239371B1F801301CBA1E
:101430007D23250C7D2D38BF230C5380CA1C1946F3
:10144000BDE8B040FFF788BC0000000080B56F46E3
:10145000C0B201F043FCFFF770FCFEDE02460079EB
:1014600040EA0103C9B2137118B169B1032909D067
:1014700013E0032911D80020DFE801F0020E110467
:1014800010710AE00220704700210328117104D86E
:101490000449C00021FA00F070470620704701207F
:1014A000704700BF06030405F0B503AF4DF804BD57
:1014B000A2B00446FFF71CFF08B9FFF723FF01ADF8
:1014C0008021284601F0A6FCFFF712FF38B328461A
:1014D0008021FFF709FF9DF80400BDF80560FFF7C4
:1014E000F5FEC0B20F2811D016280AD01028EBD173
:1014F00030BA000C0228E7D920462946FFF74EFFF4
:10150000E2E720462946FFF783FFDDE7B0B2B0F5FA
:10151000807FD9D19DF80700FFF706FFD4E7194D6A
:1015200019F8050007281CD00A2821D1B4F80801B1
:10153000532107F8131C00BA010E000C07F8120C17
:10154000A7F1130007F8111C032101F0D3FBD4F815
:1015500008110020224600F019F889B201F0CAFBF8
:1015600006E0B4F8081122460748784400F0C0FCB1
:10157000002009F80500C4E9410022B05DF804BB71
:10158000F0BD00BF00000000D306000080B56F462C
:10159000814209D3B1F5827F9FBF0244091A1046E8
:1015A00080BD08464FF48271FFF75DFDFEDE80B519
:1015B0006F46D0F808219308402B9FBF0B0A835435
:1015C000D0F80821013298BFB2F5827F3FBF815425
:1015D000D0F808110231C0F808113CBFBDE88040C6
:1015E000FFF762BF104600F067FAFEDED1F8043163
:1015F000042B05D10C4A002141607A4402607047F7
:101600000A7912B1052300F011B8052BF2D0062B90
:1016100005D10021016046F6016181807047B1F873
:101620000520072300F002B8662F0000B0B502AF16
:1016300004462AB10D469918D5F80401814205D90E
:101640000020206046F60160A080B0BD18462A4602
:10165000FFF79CFFC4E90001B0BDD0B502AF72B185
:10166000D0F808319C08402C0AD811F8014B013AF7
:10167000C454D0F808310133C0F80831EFE7D0BDC9
:10168000184600F019FAFEDEF0B503AF4DF8048DF0
:1016900088B00446B8680690984680F0010007902C
:1016A000F86815460E4600F047FC396906AB022281
:1016B0004FF0010CC9008DE80C102A46CDE903015A
:1016C00020463146434601F055FB08B05DF8048BD7
:1016D000F0BDF0B503AF4DF804BD84B004464068DA
:1016E00000F02AFCB4F900C0B4F90210D0E900659A
:1016F000D0E90223047C6046CDE900460295FFF75D
:10170000C3FF04B05DF804BBF0BDD4D4F0B503AFA3
:101710004DF804BD84B00446406800F00DFCD0E9EB
:101720000223B4F90050B4F902104FF48064007C35
:10173000054E02947E44CDE900062846FFF7A4FF3B
:1017400004B05DF804BBF0BD451C0000F0B503AF6C
:101750002DE9C00D04464020B0FBF1F04FF0020A25
:101760000C38450820F0010000F10C0801EB810065
:10177000860066B1627C2B46D4E90001CDE900A267
:10178000032200F04FF84544143E1434F1E7BDE85D
:101790000C0DF0BD80B56F46FFF79BFFBDE88040A4
:1017A00001F0E0BAC0B238B101280EBFC1F17E002D
:1017B000C1F180004008704702207047DFE800F068
:1017C0000A020609C2F1400040087047C2F1400019
:1017D000704708467047D4D4F0B503AF4DF8048D78
:1017E00006460F480C464FF459717844002502FB19
:1017F00001086CB1304600F09FFB0078203860286B
:101800000AD24044013C013690F800030544F0E759
:1018100028465DF8048BF0BD6021FFF7ADFAFEDECF
:1018200016260000F0B503AF2DE9000D8CB0FC6862
:101830000D46CDE9072306462246FFF7CDFF0146B8
:10184000B868FFF7AFFF804627484FF459717844D6
:1018500004FB01000690DDF818B000F55870059003
:10186000B5B3304600F068FB0078A0F120045F2C8F
:1018700034D85BF8340000F05FFB0996464680469A
:10188000059890F800A0DDE907015246FFF796FFA2
:10189000014600200A900BEBC4000122022340689D
:1018A0000B92C00000930AAB04900BEB0400CDF840
:1018B0000C80B046CDE9013290F8004340465346D3
:1018C000099E224601F056FAA044013D0136C7E7C1
:1018D00001F048FA0CB0BDE8000DF0BD20466021D3
:1018E000FFF74AFAFEDE00BFB2250000D0B502AF16
:1018F0000446FFF7FDFC08B9FFF704FDFFF7F8FC0D
:1019000068B120460421FFF7EFFC20780528F5D1C7
:10191000E07841082046BDE8D040FFF79FBD062093
:10192000D0BDBCB504AF0C46054601F013FA00204B
:101930000221CDE90010284621460122FFF772FF5F
:10194000BCBDD4D4D0B502AF044601F003FA2046A2
:101950000221FFF7FBFE06487844FFF7BAFE054870
:101960007844FFF7B6FEBDE8D04001F0FBB900BFF8
:10197000B02B0000B02B0000F0B503AF2DE9FC0D3B
:101980000A46102101EB0213D0E900518B420E46AA
:1019900038BF1E461401B6EB021F059265D344B151
:1019A0008C4204D22A5712F1400F02DA5DE0A142C4
:1019B0005BD12EB1994203D9AA5712F1410F54DDE0
:1019C000D0F808B04FF4597104909BF811202A48C0
:1019D000002A784402FB010ADBE9000118BF01225A
:1019E000FFF7FAFE039505469BF810002946FFF71E
:1019F000D9FE9AF860A38046DBE902015246FFF760
:101A0000DDFE1E4A01464FF4806000237A440290B6
:101A10004046CDE900322A465346FFF735FE03998A
:101A2000301B2144059CCBE900101CB115487844BB
:101A3000FFF74FFE0499601CC9680968884203D209
:101A40000F487844FFF745FE9BE80F009BF81150C4
:101A50009BF81040CDE90045FFF7E4FE06B0BDE875
:101A6000000DBDE8F04001F07DB92846224633461E
:101A7000FFF735F8FEDE00BF2E2400006D190000D0
:101A80000E2B00002A2B0000D0B502AF142909D17B
:101A90000023052B06D050F8234024BA42F82340F7
:101AA0000133F6E7A1F11400B0FA80F04009D0BD8F
:101AB000DDE90103DB6818474FF48271FFF75CB979
:101AC00005900220ADF82400012007900290704795
:101AD000DDF84480DDE90F5A704740F211112046CD
:101AE00001F098B9044601F023F9214600F05CF8B2
:101AF0002DE9F0418CB0002462B6204601F020F9B7
:101B0000DFF888806D4620260127284600F040F83F
:101B1000ADF82C0080B2052823D040BB284601F048
:101B20000FF90A9001F0C0F80D282AD209EB08003D
:101B3000314601F06FF900F053F9204601F00CF83E
:101B4000384601F009F8FEF727FB01F0F1F8A8424A
:101B500004BF0A9801F0F4F8BDF82C000028D4D096
:101B600012E00A98ADF82C4001F0EAF8CDE70A98A7
:101B70000024ADF82C4001F0E3F820460CB0BDE89D
:101B8000F081FF2001F0AAF8FFF7ACFF0000000091
:101B9000F0C041464A4653465C466D4676467EC096
:101BA0002838F0C80020704710307CC8904699460D
:101BB000A246AB46B54608C82838F0C8081C00D174
:101BC0000120184700F07F00052884BF00207047DF
:101BD000024949440844007B704700BF00000000F0
:101BE000FF2A29D87CB5044620208DF80600502015
:101BF0008DF8020044F080008DF80500D01C8DF8AF
:101C00000400000A8DF803000DF102000E460621C3
:101C100015468DF8072001F06DF83046294601F091
:101C200069F8064804F07F01484400EB41004FF496
:101C3000FA614182BDE87C40704700BF00000000AF
:101C40000A4601468220FFF7CBBFD4D42DE9FC4DD4
:101C5000DFF874B18246B3F804800F4609EB0B003D
:101C600019681546874201910ED009EB0B044021FB
:101C70004026204601F0C6F8402D38BF2E462046AB
:101C80003946324601F0BCF809EB0B00807848B3C6
:101C9000012833D0022839D0052840F08D804B4CE4
:101CA00009EB0B0159F80400CA78097941EA0221CD
:101CB00088422FD159F80400D0B34549681F83B238
:101CC00059F801209A4238BF59F8010081B23B29E6
:101CD00028BF3B2085B23F4809EB0B01053159F87D
:101CE000000055E009EB0B0000240146047101F8E7
:101CF000034FCC708C704021D0470CE009EB0B04F3
:101D00000421E01C01F06DF8204601E009EB0B0016
:101D10004021D04700242D48002149F800102D48CB
:101D200049F800102A4849F800102046BDE8FC8D0B
:101D300009EB0B004179807940EA0121264849F8F6
:101D4000001059F800104145E4D8214E09EB0B0270
:101D500059F8001049F8061019F80B10527842EAA9
:101D600001211E4A49F802101A49019849F8010058
:101D7000E91F8BB259F806209A4238BF59F806106D
:101D80008AB2392A28BF39218DB209EB0B010731FC
:101D90002A4601F035F80E4859F80010491B49F859
:101DA00000100C4859F80010294449F8001059F85F
:101DB0000400013049F80400054859F8000008B152
:101DC0000124B2E70224A6E7200000006000000022
:101DD000680000006C00000064000000700000005B
:101DE0000548002149F80010044849F8001004484B
:101DF00049F80010704700BF600000006C00000050
:101E0000680000002DE9F04DDFF8CCA0334F59F801
:101E10000A4059F8071051B34CB3DFF8CC80834621
:101E20003B2109EB0805681D00F0ECFF2F482C4E04
:101E300059F80010090A09F808100521A97059F885
:101E40000000687059F80600000AE87059F80600AA
:101E5000287159F8061059F80700A9B13B2809EB79
:101E6000080094BF59F807503B2505301BE01C487B
:101E7000002149F800101B4849F80A1009F8001021
:101E800049F80710BDE8F08D392894BF59F807507C
:101E9000392559F8071009EB0800090A417159F86A
:101EA00007108171073021462A4600F0A9FF59F832
:101EB00007005A464021401B49F80700601949F8BD
:101EC0000A0059F80600013049F8060009EB08003D
:101ED000BDE8F04D104700BF6C0000006800000036
:101EE0006000000000000000200000007000000002
:101EF00089B110B5084B002449F80340074B49F855
:101F00000310074B49F80320064A49F80210BDE8C0
:101F10001040FFF777BF70476000000068000000C6
:101F20006C000000640000007A460249C91C891A4E
:101F3000401A7047291FDEC00A4A82420A4906D861
:101F4000814204D380B5FFF7EFFFBDE88040074929
:101F50008842074A04D3904202D8401A49460844AE
:101F6000704700BF0000DEC00048DEC000007ADA23
:101F700000787ADA98B170B50E464FF48A7115463A
:101F8000044600F047FF0EB1C4F8F0600120257050
:101F900084F8DC00204600F08BF9002070BD0220A0
:101FA0007047B0B504460120F42584F8DC00B5F58F
:101FB000867F08D0605920B14068FFF7BDFF00F070
:101FC00073F90835F3E7204600F0A4F9204600F045
:101FD0007DF90020B0BD3AB102289CBF01EBC000E2
:101FE000C0F8F420002070470220704780B500F050
:101FF00075F9002080BD70B50C4605460026032EFD
:1020000011D02846314600F087FA50B105EBC600E2
:10201000D0F8F4000068FFF78FFF024628462146FB
:1020200090470136EBE7002070BD70B50C460546C1
:102030000026032E0ED02846314600F06DFA38B146
:1020400005EBC60000F026F90246284621469047D7
:102050000136EEE7002070BDB0B500F1E80504469A
:10206000284600F068FCB4F8EE100120C4E9350100
:1020700094F8E80000F01F01022907D001290AD0D6
:1020800071B92046294600F053FA0EE02046294651
:1020900000F0DCFB09E02046294600F0BDFB04E02F
:1020A00000F08001204600F071F90020B0BD2DE95C
:1020B000F84590460446C9B19A460F460025032DBF
:1020C0003FD000F0E3F878B100F0E9F8806958B14A
:1020D00094F8DC10032907D1FFF72EFF06462046AF
:1020E000394642465346B0470135E8E7D4F8D400B4
:1020F000032826D1D4E91F1081420AD9091AE167C1
:10210000814238BF084682B22046414600F061FC59
:1021100017E00025032D11D000F0B8F860B100F0F1
:10212000BEF8006940B194F8DC10032904D1FFF730
:1021300003FF0146204688470135EBE7204600F0C3
:102140004EFC0020BDE8F88570B50446D1B10D46BF
:102150000026032E5FD02046314600F0DDF978B12D
:1021600004EBC600D0F8F400406948B194F8DC10E4
:10217000032905D1FFF7E0FE024620462946904795
:102180000136E6E7D4F8D40002283DD1D4E907109F
:1021900081420BD90A1AD4F81011E26192B20144BB
:1021A0002046C4F8101100F00AFC2DE0A169B1FB33
:1021B000F0F202FB101272B981420CD3D4F8D800AD
:1021C000814208D2204600210022002500F0F7FBC2
:1021D000C4F8D85018E000252046032D12D0294617
:1021E00000F09AF960B100F05AF8C06840B194F874
:1021F000DC10032904D1FFF79FFE014620468847E3
:102200000135E9E700F0F6FB94F8E000012804BF8F
:10221000002084F8E000002070BDB0B50446012025
:1022200084F8DC00402000252062C4F88000032DE3
:102230000AD000F02BF828B104EBC50000F02AF812
:1022400000F032F80135F2E70020B0BD0174002043
:1022500070470020704700207047B0B5044690F8E2
:10226000DC00032810D10025032D0DD000F00EF85E
:1022700040B100F014F8C06920B1FFF75DFE0146DF
:10228000204688470135EFE70020B0BD20462946AB
:1022900000F042B9D0F8F4004068FFF74DBE04EBFF
:1022A000C500D0F8F4007047217902462046104757
:1022B0000448002149F80010034849F800100020A4
:1022C000704700BF8C01000088010000E0B500F0FD
:1022D000FDF801A800F00EFD00208CBD7CB50320A8
:1022E0000DF103048DF80600022000258DF805008D
:1022F0004F26204605218DF8075000F007F90120F0
:1023000004218DF806008DF80500204600F0FEF847
:1023100000207CBDE0B500F0D9F801A800F0EAFC8F
:1023200000208CBD1CB5174800248DF80510042131
:102330008DF80310052149F8004013488DF802106C
:102340004F218DF8064049F8004001208DF8040027
:102350008DF801408DF8001052B1032A05D0022AF1
:1023600005D0012A06D1042002E0022000E003206B
:102370008DF80600684608218DF8073000F0BAFC99
:1023800000201CBD880100008C0100001CB500204D
:102390000C46402100F0A8F80DF1020000F0AFF863
:1023A00009492206074804F07F02494458BF09EB57
:1023B00000010123086803FA02F2104308600020BC
:1023C0001CBD00BF8C010000880100001CB500206E
:1023D0000C46802100F088F80DF1020000F08FF823
:1023E00009492206074804F07F02494458BF09EB17
:1023F00000010123086803FA02F2904308600020FC
:102400001CBD00BF8C01000088010000084A0B06BB
:10241000064801F07F014A4458BF09EB00021078DA
:10242000012202FA01F10840704700BF8C01000050
:1024300088010000E0B503208DF807108DF8060034
:1024400002208DF8050000208DF804004F208DF843
:1024500003000DF10300052100F04CFC00208CBDB1
:10246000BCB520208DF805108DF8060050208DF8A1
:102470000200D81C8DF80400000A8DF803000DF14D
:10248000020006211C4615468DF8073000F032FC8C
:102490002846214600F02EFC0020BCBDE0B53020CF
:1024A0008DF805108DF8060003208DF8040000203B
:1024B0008DF8030050208DF802000DF10200062176
:1024C0008DF8072000F016FC00208CBD02200421AE
:1024D0008DF8070001208DF8060000208DF805001A
:1024E0004F208DF8040070478DF807008DF8030029
:1024F00050208DF8061003218DF8020070478DF8EA
:10250000041006218DF8054000F0F4BB8DF804504E
:102510008DF8036000F0EEBB022984BF00207047F5
:1025200000EBC100D0F8F400002818BF012070476C
:1025300080B54A7872B1012A0FD0032A10D0052A3B
:1025400011D0092A12D0082A13D0062A14D100F07B
:1025500017F813E000F0FCF810E000F036F90DE099
:1025600000F01AF90AE000F088F807E000F0A6F899
:1025700004E000F0D9F801E000F04CF9002080BD43
:10258000BCB50D46498804460020ADF80600012080
:10259000B0EB112F26D0080A02282ED003280AD02B
:1025A000062831D0072816D00F282FD1D4F8F000F4
:1025B000C069D0B92AE0C8B205284AD001284CD059
:1025C00002284ED0032850D0042852D0F0B9D4F8B5
:1025D000F000406809E0207CC0B9D4F8F400A8B14C
:1025E000006B1FE0D4F8F0000068FFF7A5FC02467E
:1025F000207C0DF1060190471AE0D4F8F40040B1B8
:10260000217C71B1C06A0DE0207C20B100F0BCF9E2
:10261000BCBD00210DE0D4F8F4000028F6D0406BDA
:1026200000E0806AFFF788FC01460DF1060088474C
:102630000146BDF806000028EAD0EA88002AE7D063
:10264000904238BF02462046ADF8062000F0A6F9B9
:10265000BCBDD4F8F0008069C7E7D4F8F00080680A
:10266000C3E7D4F8F000C068BFE7D4F8F000006911
:10267000BBE7D4F8F0004069B7E7B0B504468888F6
:1026800028B9C88818B994F8DC00032804D120467A
:10269000BDE8B04000F0BEB8887800F07F05204665
:1026A00084F8DE502946FFF7C5FE00F074F90DB13D
:1026B000022000E0012084F8DC00B0BD70B58E7807
:1026C0000D460446022E19D294F8DC00032806D0E9
:1026D000022813D11EB3032084F8DC0007E09EB16A
:1026E0006068B0421BD0C1B22046FFF79EFC204676
:1026F00031466660FFF77FFC022810D1204629464C
:10270000BDE8704000F086B80020314660600220CD
:1027100084F8DC002046FFF788FC00F03CF92046F6
:10272000BDE8704000F05BB9CA88012A0AD190F870
:10273000DC20032A08D0022A04D10022014641F8F5
:10274000082F02E000F066B8011D012200F026B952
:10275000B0B5044690F8DC0000F0FE0002280DD170
:102760000120254645F80C0FD5F8D80058B1204671
:1027700000F040F9E06840F0020005E02046BDE8C6
:10278000B04000F047B80320E0602046294602220E
:10279000BDE8B04000F002B9B0B504464888012851
:1027A00018BFB0BD01200D46C4F8E4000879022826
:1027B00006D800F0E3F803D000F0EAF800F0DAF809
:1027C0002046BDE8B04000F00AB9B0B5044690F824
:1027D000DC000D4600F0FE00022815D168880128B3
:1027E00018BFB0BD0020C4F8E4002879022806D83C
:1027F00000F0C4F803D000F0CBF800F0BBF820469E
:10280000BDE8B04000F0EBB820462946BDE8B04036
:1028100000F000B800F0A3B8B0B5044690F8DC00B2
:102820000D4603280ED1287902280BD800F0A6F80F
:1028300008D000F0ADF800F09DF8E88820B900F06D
:10284000AAF801E000F0A0F80020B0BDBCB50D462C
:102850000979044601F07F00072802D300F094F8BC
:1028600067E002290FD82A7802F06002202A0AD1F4
:1028700004EBC102D2F8F4202AB19068FFF75CFBA8
:1028800000F078F855E06A7852B1012A10D0032A96
:102890004FD194F8DC00032818D002280ED0DDE7D1
:1028A00094F8DC20032A27D0022AD7D150B940E07F
:1028B00094F8DC20032A2ED0022ACFD141F08000E8
:1028C000802836D02046FFF761FD32E0688838B9AD
:1028D00041F08000802803D02046FFF757FD29797A
:1028E000022924D804EBC100D0F8F400F8B100F0BC
:1028F0004FF800F03FF81AE02046FFF787FD002868
:1029000018BF01200DF10601ADF806002046022295
:1029100000F044F80DE06A885AB940B12046FFF74C
:1029200055FD2879022802D804EBC000DCE700F04E
:1029300032F80020BCBD0A7802704A784270CB7829
:102940008A7842EA032242804B790A7942EA0322DA
:1029500082808A79C97942EA0121C180704710B525
:1029600080210446FFF712FD20460021BDE81040FB
:10297000FFF70CBD024620462946104704EBC00075
:10298000D0F8F4000028704720462946FFF742BFE0
:102990008068FFF7D1BA204600F021B810B50C4688
:1029A000C0F810110221C0E90622C0F8D410016A53
:1029B000914288BF114600F029F8002010BD10B5E3
:1029C0000C46016A914288BF114600F01FF80020B2
:1029D00010BD80B50021FFF761FD002080BD80B5EE
:1029E00004210022C0F8D41000210023FFF738FD95
:1029F000002080BD80B50521002200F002F80020F3
:102A000080BDC0F8D4100021FFF748BD8BB2002173
:102A10002246FFF725BDD4D407490022494491F846
:102A2000EC1000294FF0000108BF09210180034884
:102A3000784418BF1046704774000000741B0000F3
:102A400007490022494491F8EC1000294FF0000199
:102A500008BF222101800348784418BF1046704700
:102A600074000000551B0000022906D180B50448FF
:102A70007844FFF7C7F9BDE880400020704700BFE9
:102A8000CDF1FFFF70B5022921D115460221402268
:102A90001C46FFF703FD0F4E09EB06008079B0B925
:102AA0000220FFF78FF802460C4829462346784457
:102AB000FFF7CCF802280AD10720012109F8060007
:102AC00009EB06008171044959F80110418000208A
:102AD00070BD00BF00000000640000008FF1FFFF28
:102AE0001220088001487844704700BF421B000054
:102AF0000420088001487844704700BF441B000050
:102B00000E20088001487844704700BF381B000041
:102B10001820088001487844704700BF361B000029
:102B20000A20088001487844704700BF3E1B00001F
:102B30001820088001487844704700BF161B000029
:102B40001820088001487844704700BF061B000029
:102B50000020088000207047B0B5164D04464FF4A1
:102B60008A7109EB050000F055F913481221484419
:102B70000C3000F04FF9BCB109EB05044FF48A7139
:102B8000204600F047F90D49204600227944FFF71E
:102B9000F1F90B4A002021467A44FFF71CFA20463F
:102BA000BDE8B040FFF722BA09EB0500BDE8B04030
:102BB000FFF7F7B97400000000000000441A00009D
:102BC000581A00002921018001487844704700BF4D
:102BD000A61A00000A21018001487844704700BF0E
:102BE000C21A0000BCB50D4609780446002011F059
:102BF0006001ADF806008DF8050010D020293CD109
:102C00006878A0F10A01022936D3022818BF0328E8
:102C100016D020462946FFF7FDFD0220BCBD68788E
:102C20000B2812D00A280BD0062825D1E8782128B5
:102C30000FD022281BD10DF10600FFF701FF0CE099
:102C40000DF105012046012214E02046FFF7C7FEE2
:102C500012E00DF10600FFF7DFFE0146EA88BDF83D
:102C60000600904238BF0246ADF8062001E000227F
:102C700000212046FFF792FE0020BCBD10B5822146
:102C8000032240230446FFF74DFB20460221032286
:102C90004023FFF747FB204602214022FFF7FEFBBF
:102CA000002010BD00207047E0B500206946CDE946
:102CB0000000012000F07AF88CBDD4D410B586B0A5
:102CC0000DF1040C089CACE81F0001A9024800F0BB
:102CD0006DF806B010BD00BF5300000582B000F0D3
:102CE00061F86946024800F061F8FFDEFEE700BFC8
:102CF0009A000001E0B5CDE900016946014800F005
:102D000055F88CBD83000002E0B5002069460190B3
:102D1000842000F04BF88CBDF8B501AB07C301A9C6
:102D2000024800F043F880B204B080BD8500000383
:102D3000E0B5002069460190872000F037F88CBD8F
:102D4000E0B500F02FF86946014800F02FF88CBD7F
:102D50000B010001E0B5002069460190792000F0E8
:102D600025F88CBDE0B50020694601907A2000F07E
:102D70001DF88CBD10B58AB0109C0DF1040C09949F
:102D80000F9C08940E9C07940D9C06940C9CACE838
:102D90001F0001A9024800F009F80AB010BD00BFE9
:102DA0007C0000090021CDE90001704701DF002906
:102DB00000D170470846FEF795FE03B44FF01300AC
:102DC00000F018B803B44FF0240000F013B803B4B7
:102DD0004FF02A0000F00EB803B44FF03C0000F0B2
:102DE00009B803B44FF0620000F004B803B44FF028
:102DF0007B00FFE7004908470180800000F00CB825
:102E000000F014B800F02CB800F030B800F03EB973
:102E100000F004B800F027B800F02BB8032A98BFE0
:102E2000FFF7FABF08C9043A08C0F7E700F066B830
:102E30000B4611461A4600F0F7B8D0B502AF13465C
:102E4000D2B2140444EA036343EA0223134403297D
:102E500002D908C00439FAE7BDE8D040FFF7E8BF5F
:102E60000022FFF7E5BF0022FFF7E7BF0022FFF7D0
:102E7000E4BFF0B503AF2DE9000D0F2A08D900F02B
:102E800013F9A64206D213F8015B06F8015BF8E7D6
:102E9000034628E0A2EB080C88442CF0030E04EB58
:102EA0000E035FEA887114D0182101EAC80A0021D4
:102EB00028F00305A1EBC80101F0180B02CD9C42DC
:102EC0000DD221FA0AF602CD01FA0BF2324304C404
:102ED000F5E741469C4202D204C904C4FAE708EB74
:102EE0000E010CF003021A44934204D211F8014B74
:102EF00003F8014BF8E7BDE8000DF0BDF0B503AFF6
:102F00002DE9000D431A934213D2831801EB020AF4
:102F10000F2A6AD903F0030CAAF1010523F0030478
:102F2000CCF100089C420FD215F8016903F8016D3D
:102F3000F8E70F2A2BD900F0B7F8A64229D213F8E8
:102F4000015B06F8015BF8E7A2EB0C0ED0442EF013
:102F50000302A31AC2F1000C5FEA887238D0002283
:102F60001821A2EBC80201EAC80A02F0180B28F0E7
:102F7000030252F80469A34233D206FA0BF152F865
:102F8000046926FA0AF5294344F8041DF3E70346C9
:102F90003FE0A2EB080C88442CF0030E04EB0E0378
:102FA0005FEA88712BD0182101EAC80A002128F0B5
:102FB0000305A1EBC80101F0180B02CD9C4224D2FD
:102FC00021FA0AF602CD01FA0BF2324304C4F5E706
:102FD00071440439A34204D251F8042944F8042D61
:102FE000F8E708EB0C0A0EF00302991AAAF10102A5
:102FF000994216D212F8014903F8014DF8E741460B
:103000009C4202D204C904C4FAE708EB0E010CF09A
:1030100003021A44934204D211F8014B03F8014B06
:10302000F8E7BDE8000DF0BDF0B503AF4DF804BD05
:103030000F2A0AD94342044603F0030C00EB0C03A9
:103040009C4204D204F8011BFAE7054615E0CCB215
:103050000826202E06D206F01805760004FA05F59B
:103060002C43F6E7A2EB0C0222F003051D44AB4211
:1030700001D210C3FBE702F003022A44954202D2B8
:1030800005F8011BFAE75DF804BBF0BDD0B502AF4F
:1030900042B110F8013B013A11F8014BA342F7D0BD
:1030A000181BD0BD0020D0BD4342064603F00308E4
:1030B0000B4600EB08047047390DDEC0010000002C
:1030C000010000007D10DEC0547820686173682024
:1030D0007265766965773A5369676E203F53696711
:1030E0006E696E672E2E2E00808F08111F00000063
:1030F00000000000007C008033C6CE618C710000AF
:10310000986F8C311C0000E031C618638C3D0000C4
:1031100000270C820E0000C04188080104000080D6
:1031200089278410020000E018633837C61C0000AD
:10313000002E84101C00008031C618638CB103007F
:1031400060668661180000000CC33033030000C0C5
:103150001B638C31C6780060086318431800004177
:103160006C65706869756D0000ED8D3106000000BA
:1031700023C68C110300008001C618638C310372D2
:103180006561647956657273696F6E302E312E30C9
:1031900020202020517569745A65726F088A2808AA
:1031A000481242086B696E642184240141110501B3
:1031B0006578706C696369742070616E6963303121
:1031C000617373657274696F6E206661696C6564A2
:1031D0003A206572726F72203D3D2043585F4F4B1D
:1031E000390DDEC00C00000004000000850DDEC0BB
:1031F000870FDEC00510DEC0207B0A2C0A207B2052
:103200007D207DD4390DDEC00400000004000000E4
:103210003510DEC03B10DEC04110DEC0506172735D
:1032200065496E744572726F724E65674F7665724E
:10323000666C6F77506F734F766572666C6F774907
:103240006E76616C69644469676974456D70747900
:1032500063616C6C656420604F7074696F6E3A3A9C
:10326000756E77726170282960206F6E2061206012
:103270004E6F6E65602076616C75653A20010101C4
:10328000010101010101010101010101010101012E
:10329000010101010101010101010101010101011E
:1032A000010101010101010101010101010101010E
:1032B00001010101010101010101010101010101FE
:1032C00001010101010101010101010101010101EE
:1032D00001010101010101010101010101010101DE
:1032E00001010101010101010101010101010101CE
:1032F00001010101010101010101010101000000C1
:1033000000000000000000000000000000000000BD
:1033100000000000000000000000000000000000AD
:10332000000000000000000000000000000000009D
:10333000000000000000000000000000000000028B
:10334000020202020202020202020202020202025D
:10335000020202020202020202020202020303034A
:10336000030303030303030303030303030404042A
:103370000404000000000000000000000000000045
:10338000000000000000000000000000000000003D
:10339000000000000000000000000000000000002D
:1033A000000000000000000000000000000000001D
:1033B000000000000000000000000000000000000D
:10378000000090240902006006000000000010C93B
:103790004FA1FC240200000000E0290A83611E0002
:1037A00000008CA850A1CD162A54C40000000000CF
:1037B0001C12120C4A52225E000000280000909455
:1037C00024920090449292000041FC8C040000007E
:1037D00000000000C88F0000000000000052000040
:1037E00000000600000000000200804424220100C6
:1037F0000023499224490C000000A32008822008DD
:1038000000008003411042081E00008003410C04A8
:10381000410E00000020302824247E2020000000DB
:103820008027081E04410E00000027089E24490C32
:1038300000008007410842100400000023498C2446
:10384000490C00000023499207410E0000000400CB
:1038500002000004005200000021868140000000A8
:103860000000001EE00100000000201018460800C3
:10387000000000E043905C4A29A5947E02F001001C
:10388000000004854211F94441000000009F48E413
:103890001189443E000000009E412010080C3C00AD
:1038A0000000003E4242424242423E000000802769
:1038B000089E20081E0000802F08822F08020000AA
:1038C000007C0202026242427C000000004242424E
:1038D0007E4242424200000090244902004044449B
:1038E0004444030091446150484442000000802059
:1038F000088220083E000000186698614A29259336
:103900004C32010000000042464A4A5252624200D4
:10391000000000F8081224489020417C00000000BC
:10392000008F4824F208040200000000F808122466
:10393000489020417C40000100008F4824F2484418
:10394000220000000027080606410E0000001F02AA
:1039500081402010080000000042424242424242A0
:103960003C00000080A04824A2502808000000006D
:10397000C428934C4A29A514218400000000402843
:10398000310C23492100004028490C822008000006
:103990008007210821081E0000E0222222220E10AA
:1039A000224244080070444444440700C34852087B
:1039B0000000000004020000000000000000007889
:1039C0009027491E00000081C0231289441E000078
:1039D00000001088271289443C000000000070920B
:1039E00027081C00000000F892E4085E187A0081A5
:1039F000C0231289442200000010244902004040E4
:103A0000444444748020488AA14812000000000009
:103A10008077228924924822010000000000C02300
:103A200012894422000000000080231289441C00F7
:103A300000000000C0231289441E81400000008065
:103A4000271289443C10080400E02222020000F200
:103A500022220E00000040241289443E0000000093
:103A600000849224310C000000000088A84A952AA6
:103A700022440000000000004812C3481200000069
:103A800000849224310C410CC0442442440C008236
:103A900020088220088220302242242203000000D5
:103AA000060600000000009F48241289443E0000E2
:103AB00000B06DC30600802D49000000000000002A
:103AC00012C94FF94B241200000088B72C0E87A6AC
:103AD0001F02000038B1C60AFBF98D35D6C80100B7
:103AE00000000078D8B0C1C1DB3D7BBE0100000002
:103AF000B0040000004066333366042066CCCC6618
:103B00000200D3FE9E070000000000C0303FC3004B
:103B10000000000000C01A000000F00F00000000CC
:103B2000C00600003C6666666666663C00000000F3
:103B3000C679188661180000008E0D06C370183E05
:103B4000000000000F0CC681C1601E0000000030A4
:103B5000383834347E30300000008067181E8661AB
:103B60001E000000380C043E6666663C0000000043
:103B70001F0C06C360300C000000003C66663C660B
:103B800066663C000000003C6666667C60301C0097
:103B90000000006CC00600006CC01A000000003F6E
:103BA000F003000000C083618E011806000000E0F1
:103BB000C398DD5B2FBDF67E06E007000000183CD1
:103BC0003C7E667EE7C3000000009FCDE6B1D96C65
:103BD0003E000000009EC16030180C3C0000000058
:103BE0003E6666666666663E0000008067189E61F7
:103BF000181E0000806F189E6118060000007C06E9
:103C000006766666667C000000006666667E66660E
:103C1000666600000060666666060000E666361EA0
:103C20003E3666E60000008061188661183E00009E
:103C300000709CE3BCE73DEF59CD6E7603000000B9
:103C400000009C39F3E6CD9E3D73E60000000000C5
:103C5000F8183366CC9831637C00000000009FCDDB
:103C600066F3190C0600000000F8183366CC983192
:103C7000637CC0000300001E3636361E36366600F2
:103C80000000006F180E87E71E0000C0CF300CC385
:103C9000300C000000666666666666663C000000E2
:103CA000C03CCFB3E7790C00000098B3DDEC66357B
:103CB000AB71873BD8000000000000C3663C3C3C71
:103CC0003C66C300000080B1CDC6C1603018000062
:103CD00000803F0C8761380C7F0000000006C32382
:103CE0009901000000000000000000000000F00347
:103CF0000C0C0000000000000000000000C003F3F6
:103D0000CD663E0000000083C167B3DB6D3E00005E
:103D1000000000F0C671183C000000188C67BBDD85
:103D20006C3C00000000008067FE1F0C3C0000009F
:103D300000677C8661180600000000C06FB3790C34
:103D4000BEF1D8070083C167B3D96C3600000060AC
:103D500060666606000083C1E6F3786C76000000BA
:103D60000000008076B6D9669B6DB60100000000A9
:103D7000004067B3D96C3600000000008063BBDFF1
:103D80006D1C0000000000C067B3DB6D3E83C10006
:103D90000000C067BBDD6C3E180C0600007886C7CB
:103DA000C31E00000000C066B3D96C2E00000000E6
:103DB00000606CB3D9381C000000000000C0CCB615
:103DC000F9E71F33CC000000000000E06EE3706CE8
:103DD000770000000000606CB3D1381C06C30000FF
:103DE00000FC18C3183F000000C3300CC3300CC3E4
:103DF000300000006F0F0000000080274992244926
:103E00001E0000D47D37DEC0050000008237DEC012
:103E1000050000008737DEC0060000008D37DEC0D9
:103E20000B0000009837DEC009000000A137DEC09B
:103E30000E000000AF37DEC00C000000BB37DEC054
:103E400003000000BE37DEC005000000C337DEC03F
:103E500005000000C837DEC009000000D137DEC011
:103E600009000000DA37DEC005000000DF37DEC0E1
:103E700006000000E537DEC005000000EA37DEC0BE
:103E800006000000F037DEC009000000F937DEC090
:103E9000090000000238DEC0090000000B38DEC057
:103EA000090000001438DEC00C0000002038DEC01D
:103EB000090000002938DEC0090000003238DEC0E9
:103EC000090000003B38DEC0090000004438DEC0B5
:103ED000090000004D38DEC0050000005238DEC089
:103EE000050000005738DEC0090000006038DEC061
:103EF000090000006938DEC0090000001731DEC08B
:103F0000080000007238DEC00F0000008138DEC0FB
:103F10000B0000008C38DEC00B0000009738DEC0BC
:103F20000B000000A238DEC00C000000AE38DEC07E
:103F300009000000B738DEC009000000C038DEC04C
:103F40000C000000CC38DEC00C000000D838DEC009
:103F500005000000DD38DEC006000000E338DEC0EA
:103F60000B000000EE38DEC009000000F738DEC0AC
:103F70000F0000000639DEC00C0000001239DEC060
:103F80000E0000002039DEC00B0000002B39DEC01F
:103F90000E0000003939DEC00B0000004439DEC0DD
:103FA000090000004D39DEC00B0000005839DEC0AA
:103FB0000C0000006439DEC00B0000006F39DEC069
:103FC0000F0000007E39DEC0090000008739DEC026
:103FD000090000009039DEC0090000009939DEC0F8
:103FE000060000009F39DEC006000000A539DEC0D3
:103FF00006000000AB39DEC009000000EF30DEC073
:1040000008000000B439DEC009000000BD39DEC080
:1040100009000000C639DEC00B0000002F31DEC0F1
:1040200008000000D139DEC00B000000DC39DEC022
:10403000090000001F31DEC008000000E539DEC0C5
:1040400009000000EE39DEC00B000000F939DEC0C7
:1040500005000000FE39DEC006000000043ADEC0A4
:1040600009000000D838DEC0050000000D3ADEC0AF
:104070000F0000001C3ADEC00B000000273ADEC033
:104080000B000000323ADEC00B0000003D3ADEC0FB
:104090000B000000483ADEC0060000000F31DEC011
:1040A000080000004E3ADEC006000000543ADEC0B0
:1040B0000B0000005F3ADEC009000000683ADEC075
:1040C0000E000000763ADEC0090000007F3ADEC034
:1040D00009000000E730DEC008000000883ADEC0BA
:1040E000060000008E3ADEC009000000973ADEC0EC
:1040F000060000009D3ADEC009000000A63ADEC0BE
:104100000B00000003030407060908020303060668
:10411000030403040606060608060606060603034D
:10412000060606050A070707080606080803040727
:10413000060A0809070907060708070A060606040B
:104140000404060506060705070605060703040618
:10415000030A0707070704050407060906060504FE
:10416000060406070C0000007D37DEC005000000D5
:10417000B13ADEC005000000B63ADEC0090000001A
:10418000BF3ADEC00B000000CA3ADEC009000000E2
:10419000D33ADEC00F000000E23ADEC00E0000009D
:1041A000F03ADEC005000000F53ADEC0060000006F
:1041B000FB3ADEC006000000013BDEC00900000043
:1041C0000A3BDEC009000000133BDEC00500000012
:1041D000183BDEC0060000001E3BDEC005000000EC
:1041E0006F31DEC008000000233BDEC00C00000081
:1041F0002F3BDEC009000000383BDEC00B00000092
:10420000433BDEC00B0000004E3BDEC00C00000054
:104210005A3BDEC009000000633BDEC00C0000001A
:104220006F3BDEC00B0000007A3BDEC00C000000DC
:10423000863BDEC00C000000923BDEC005000000A3
:10424000973BDEC0050000003F31DEC008000000E3
:104250009C3BDEC0090000004731DEC008000000C2
:10426000A53BDEC009000000AE3BDEC00F00000031
:10427000BD3BDEC00C000000C93BDEC00B000000EF
:10428000D43BDEC00B000000DF3BDEC00C000000B2
:10429000EB3BDEC009000000F43BDEC0090000007B
:1042A000FD3BDEC00C000000093CDEC00C0000003D
:1042B000153CDEC0060000003731DEC008000000FB
:1042C0001B3CDEC00C000000273CDEC009000000E3
:1042D000303CDEC011000000413CDEC00E0000009A
:1042E0004F3CDEC00E0000005D3CDEC00B00000055
:1042F000683CDEC00E000000763CDEC00C00000012
:10430000823CDEC0090000008B3CDEC009000000DA
:10431000943CDEC00C000000A03CDEC009000000A0
:10432000A93CDEC011000000BA3CDEC00C00000059
:10433000C63CDEC00B000000D13CDEC00B0000001C
:104340004F31DEC0080000005731DEC00800000019
:104350000731DEC008000000DC3CDEC00B000000BE
:10436000E73CDEC009000000F03CDEC00B000000AE
:10437000FB3CDEC00B000000063DDEC00B00000071
:10438000113DDEC0090000001A3DDEC00B00000038
:10439000253DDEC00B000000303DDEC009000000FE
:1043A000393DDEC00B000000443DDEC00B000000C4
:1043B0004F3DDEC0060000007731DEC0080000007F
:1043C000553DDEC00B000000153CDEC006000000BD
:1043D000603DDEC00F0000006F3DDEC00B0000003E
:1043E0007A3DDEC00B000000853DDEC00B00000002
:1043F000903DDEC00B0000006731DEC00800000009
:104400009B3DDEC009000000FF30DEC00800000058
:10441000A43DDEC00B000000AF3DDEC00B0000007D
:10442000BA3DDEC00F000000C93DDEC00B00000039
:10443000D43DDEC00B000000DF3DDEC009000000FF
:10444000F730DEC008000000E83DDEC009000000D3
:104450002731DEC008000000F13DDEC00900000089
:10446000FA3DDEC00900000003030607060A09033F
:1044700004040606030403050806070708060807E0
:1044800008080303050605060A08070708060608C4
:1044900008040508060B0909070908060608060BA3
:1044A00008070705050507060707070607070607A4
:1044B00007040507040A0707070705060507070A93
:1044C00007070605060506060C00000043616E633B
:1044D000656CD4D4AC31DEC00400000007000000DD
:1044E000040000000000000077002200D444DEC079
:1044F0009C31DEC004000000070000000400000042
:104500000000000002001A00F044DEC002001E009D
:10451000F044DEC077001E00D444DEC0A831DEC007
:10452000040000000400000007000000000000007C
:1045300076001C001C45DEC0A031DEC00400000077
:1045400004000000070000000000000006001C003E
:104550003845DEC07A001C001C45DEC002001C008D
:104560003845DEC063616C6C6564206052657375AC
:104570006C743A3A756E77726170282960206F6E9C
:1045800020616E2060457272602076616C756501F5
:1045900002FF0405FFFF08FFFFFFFF0D0E0F10FFD6
:1045A000FFFFFFFF16FF18D409211101000122228D
:1045B0000006A0FF0901A1010903150026FF0075EF
:1045C00008954081080904150026FF0075089540EC
:1045D0009108C0D4E12ADEC0F12ADEC0012BDEC082
:1045E000112BDEC0212BDEC0312BDEC0412BDEC003
:1045F000512BDEC07D2CDEC0A52CDEC0E52BDEC03D
:104600000000000000000000692ADEC0852ADEC02C
:10461000000000000000000000000000C52BDEC00C
:10462000C52BDEC0C52BDEC0D52BDEC012010002BB
:1046300000000040972C0150010201020301040315
:1046400009040E034C0065006400670065007200F9
:1046500018034E0061006E006F0020005300200020
:1046600050006C00750073000A0330003000300009
:104670003100D4D409022900010102C0320904002A
:10468000000203000002092111010001222200079B
:1046900005820340000107050203400001D4D4D481
:1046A0000A060002000000400100D4D4D4D4D4D4BF
:1046B000D4D4D4D4D4D4D4D4D4D4D4D4D4D4D4D4BA
:1046C000D4D4D4D4D4D4D4D4D4D4D4D4D4D4D4D4AA
:1046D000D4D4D4D4D4D4D4D4D4D4D4D4D4D4D4D49A
:1046E000D4D4D4D4D4D4D4D4D4D4D4D4D4D4D4D48A
:1046F000D4D4D4D4D4D4D4D4D4D4D4D4D4D4D4D47A
:10470000D4D4D4D4D4D4D4D4D4D4D4D4D4D4D4D469
:10471000D4D4D4D4D4D4D4D4D4D4D4D4D4D4D4D459
:10472000D4D4D4D4D4D4D4D4D4D4D4D4D4D4D4D449
:10473000D4D4D4D4D4D4D4D4D4D4D4D4D4D4D4D439
:10474000D4D4D4D4D4D4D4D4D4D4D4D4D4D4D4D429
:10475000D4D4D4D4D4D4D4D4D4D4D4D4D4D4D4D419
:10476000D4D4D4D4D4D4D4D4D4D4D4D4D4D4D4D409
:10477000D4D4D4D4D4D4D4D4D4D4D4D4D4D4D4D4F9
:10478000D4D4D4D4D4D4D4D4D4D4D4D4D4D4D4D4E9
:10479000D4D4D4D4D4D4D4D4D4D4D4D4D4D4D4D4D9
:1047A000D4D4D4D4D4D4D4D4D4D4D4D4D4D4D4D4C9
:1047B000D4D4D4D4D4D4D4D4D4D4D4D4D4D4D4D4B9
:1047C000D4D4D4D4D4D4D4D4D4D4D4D4D4D4D4D4A9
:1047D000D4D4D4D4D4D4D4D4D4D4D4D4D4D4D4D499
:1047E000D4D4D4D4D4D4D4D4D4D4D4D4D4D4D4D489
:1047F000D4D4D4D4D4D4D4D4D4D4D4D4D4D4D4D479
:04000005C0DE000158
:00000001FF
