:02000004C0D06A
:1000000080B500AF01F070FD012001F023FAFEDEA3
:10001000D0B502AF8CB068460221818581225200A2
:10002000828201220892094B0A9305240794084C06
:100030007C4406940493029208220192054A7A4471
:10004000009201F013FD0CB0D0BDC04680000B0043
:10005000EA300000D4300000FEB506AF8120410038
:100060006846818201210291054A0492042201928C
:10007000044A7A44009201F0F9FC06B080BDC04603
:1000800080000B00BD300000D0B502AF8CB06846D8
:100090000221818581225200828201220892094B2D
:1000A0000A9305240794084C7C4406940493029216
:1000B00007220192054A7A44009201F0D7FC0CB065
:1000C000D0BDC04680000B007E30000069300000CB
:1000D000F8B504AF00900178012005462B2915D012
:1000E0002D2913D000242546012C0CD00098005D4A
:1000F0000A26314600F033FD002803D06E43751800
:10010000641CF1E70125601E411E88412946F8BDA7
:10011000E0B502AF002801D108468CBD0348784401
:1001200001A9034A7A4400F059FDFEDE5232000074
:10013000C02F000080B500AFC6B0FF21123101AC66
:10014000204602F0C2FD07204103204601F007FAD5
:10015000002001F07FF9FEDED0B502AFC0B200286A
:1001600006D0012807D0022813D10D4C7C4404E0AE
:10017000094C7C4401E0094C7C4401F0A5FA094893
:10018000784401F0C3FB0848784401F0BFFBA04766
:10019000D0BD00F005FDFEDE9BFEFFFF0DFFFFFF63
:1001A000E9FEFFFFE4310000D2310000D0B502AF1C
:1001B000FFB0AFB0FF2112311AAC204602F085FD2E
:1001C00000263046FFF7C8FF432080002018199012
:1001D000412080002018169077A8C11C03220692A7
:1001E0009143091A189164A90A4608320E9287AA07
:1001F000521C059287AA121D0792091D0D9187A90D
:10020000091D099187A9491C0491401C0C9087A8DD
:10021000401C0B9087A82C300F90012017900002F3
:1002200015901096119620E001F04DF8002801D1AC
:1002300001F051F887AC8021204601F03DF8657847
:10024000A478879801F02AF8C0B201460E3908292F
:100250001ED820024019C0467944097949008F44CC
:10026000040D2330303030302C0087A8802102F07C
:100270002CFD7A48867106704680D5E70121090277
:1002800080B288421DD187A8C07801F037F818E005
:10029000052816D187A8C0784108199801F0B0F850
:1002A000C0B206280DD0CDE000BA000C022808D953
:1002B0001AA887A901F054F803E01AA887A901F049
:1002C00083F8664800780028AED06448408800284B
:1002D000AAD0169908601AA84478032C00D3D9E252
:1002E0005FA8142102F0F1FC002C2BD0012C5AD174
:1002F00087A81AA901F050F98798002800D19CE03E
:1003000088995FAA01F0D0FB002800D1AEE01AA8BE
:100310008478002C00D15BE1C078214602F03AFDE0
:100320000B4687AD5FA92846224600F02DFB2C78AE
:10033000202C00D155E187A84588467848220D98A1
:10034000099942E2CE4878441390CE4C7C44A047B1
:10035000149101263040F24D7D44A847F14878447D
:10036000A04712913040A8471398A0470C46304050
:10037000A84787A98C7012984870149808701AA81A
:10038000032201F04BF90024119E092001031AA851
:1003900001F0E5F81598044200D166E700201090BE
:1003A000FFF7DAFE61E787A81AA901F0F5F8879947
:1003B000002942D088986E250124342800D02DE2EF
:1003C000084614215FAA149001F06EFB002800D1AA
:1003D00024E201F079F987A8002404718794D448B5
:1003E00078440E2101F07AF987A801F04FF9C0B2E4
:1003F0000628F9D0C01E0228F6D887A8402529462D
:1004000002F063FC149814301490402C31D0017821
:100410004A090B09052A01D3573300E0303387AA74
:1004200013550F2319400A2901D3573100E0303109
:1004300012195170401CA41CE7E787A88088050AA0
:10044000C4B2EBE14108022900D90EE778440079F3
:100450004000874406CB05D0D3DEC0460002002012
:1004600003E7B448784401F051FAFEE66E25012412
:10047000D4E1879C3F220C980B9902F02BFC77A8C3
:1004800004700020189B3F2800D9C8E077A90A5CB7
:1004900051B2002928D4591C02D0191A890701D059
:1004A000401CF0E70146382910D877AA5018406858
:1004B000A14C2040431E984152582242179A00D125
:1004C0000246002A189B01D10831ECE74029084672
:1004D00000D828463F29D6D877AA5256002A01D4F8
:1004E000491CF7E70846CEE7F44B7B449B5C042BA2
:1004F00007D0032B16D0022B76D13F2874D2401C94
:100500005EE03E2870D877ABC31801241B57F02A51
:1005100017D0F42A1AD17021C9438B4264DC3D28DC
:1005200020D961E03F285FD277ABC3185B78E02A1F
:1005300028D0ED2A2BD16021C9435AB28A423CDD32
:1005400052E07033D9B22F290AD94DE00F31C9B228
:10055000022949D8002B47D5D9B28909022943D8A5
:100560003E2841D277A9411802228A564021C94328
:100570008A4239DC3C2837D8C01C77AA12568A42F6
:1005800024DD31E0E0210B40A02B16D02CE00A4600
:100590001F32D2B20C2A07D24021C9435AB28A4232
:1005A00022DC3D280BD91FE0C9B2490877291BD1AD
:1005B00059B2002918D5BF2B16D83E2814D2801C5A
:1005C00077A909564022D24391420DDC401C59E7DD
:1005D00087AC5FA9204600F093F92478202C00D046
:1005E000EDE087A840882AE7022416E1C248784453
:1005F00001F08CF939E61098801C01E01098401C3D
:10060000C0B2032102F0C6FB08461091FFF7A4FD1B
:100610002BE61098C0B2022800D026E640E101F097
:1006200053F8A7A82A4600250571A795042008902D
:10063000A99087A802210A918182012113918991B1
:100640009C498B9188959E4979448791A9A9AD9140
:10065000AC90AB9277A8AA90AAA8294601F062F8BC
:10066000A7A801F013F8C0B20628F9D00528F7D8DA
:100670007844007940008744080D07211229C046BC
:10068000032E000081FDFFFFEAE78E48784401F069
:100690003DF9E5E78C48784401F038F9E0E78C480B
:1006A000784401F0C9F96C1CA998844200D32C4607
:1006B000AAA8214601F036F82546D1E783487844B8
:1006C00001F0BAF9002DC7D06D1EC5E700F0FCFFA0
:1006D00077A800210171129177910F980A990180F2
:1006E0008120410087A88182139C8F94714B919344
:1006F00006218E91774A7A448D928B9389948891C2
:1007000075497944879100F0F7FF179D77A800F0AD
:10071000BDFFC0B20628F9D003A1085C40008744A1
:10072000B5FDFFFFEC2D00000D1B1220323DC04631
:10073000142D0000EC2E00008080808067487844F3
:1007400001F0E4F8E2E76748784401F075F966489B
:10075000784401F071F9D9E76148784401F0D6F89E
:10076000D4E76248784401F067F90F98129D45700C
:1007700087AC139860750221204601F077F9204676
:1007800000F0BAFFC2E75A48784401F055F90F98D3
:100790001399417087A812994175B4E7E80774D09E
:1007A00077A85FA900F054FF78982128069917D3FD
:1007B0003028089914D9412811D3092110E087A8BD
:1007C0004588467848220D98079902F088FA64A86F
:1007D0004580467004701AA841220E99D1E5052182
:1007E000139187AC48252046294602F06EFAA7955A
:1007F0001298AA90AAA80390A7A80290019420207A
:10080000009077A82C49139A149B02F02BFA002829
:1008100019D077A800F05BF90B246825169B58685F
:100820001599091D884232D21AAA15545868401CDD
:1008300088422CD21AA90C545868801C586008466B
:1008400000F010FE11E58798149064AC472620460E
:100850000599324602F03EFAA79D77A800F037F9D5
:10086000244878440A2100F039FF87A814990170C0
:1008700004982146324602F02DFA492D14D21AA8C6
:1008800087A92A4600F0CAFE119E159C7DE500F05E
:10089000A0F9FEDE194878440E2100F086F9FEDE4C
:1008A000002000F0D7FDFEDE4821284600F066FA61
:1008B000FEDEC04680000B00010600007D2C00001B
:1008C000282D0000C42C0000B02C0000922C000049
:1008D000A62C00000C2A0000162C0000EA2B0000B9
:1008E000C42B0000EA2B0000EC2B0000C42B0000FE
:1008F000962B0000A6280000582D0000A528000017
:10090000F0B503AFB1B0019014AE304600F0A0FED8
:10091000307800901EAD284608304124214602F070
:10092000D4F9009828701F9401232946324602F01A
:100930009FF9002803D000F0D3F8C4B20AE0291DC3
:100940001EA846884478057802A8482202F0C7F914
:10095000202D09D12020019908706E202043488065
:1009600014A800F0B4F80DE00096019E301D02A915
:10097000482202F0B4F914A800F0A9F80098708099
:100980007470357031B0F0BDF0B503AFB9B01D462D
:10099000099204461CAE30460891FFF7B1FF30784B
:1009A000202805D11CA840882021217060807CE08F
:1009B0000490069507941CAC6088029060780390C0
:1009C000211D0BAE4422304602F089F92046493001
:1009D00081780AAA91704921615C40780002401830
:1009E000108048200190255C1CAC601C711D2026E5
:1009F000324602F06FF90121009528460591084022
:100A0000801C20700024389437942FA8314602F0BF
:100A10005CF937A80921324602F036F9002846D1A0
:100A200037AD1CA921262846324602F033F92FA9FA
:100A3000284602F023F92148069D202C05D02FA935
:100A4000095D70434018641CF7E70599084300BA34
:100A5000010A4140020C4A40000E5040C0B2099CBD
:100A6000E1B202F097F9E8B2814215D1079C0298F1
:100A700060800398607004982070201D0BA94422A8
:100A800002F02DF901980099215449340AA9032252
:100A9000204602F01FF908E008990869401C086127
:100AA000079822462B46FFF76FFF39B0F0BD044888
:100AB00078441C2100F079F8FEDEC04605150000E0
:100AC0009B26000080B500AFFFF734FBFEDE083048
:100AD0000021202903D000224254491CF9E7704725
:100AE000014602467F321020222A17D87A44127912
:100AF0005200974418111A1C1E20222426282A2C42
:100B000031313131313131313131313131313131D5
:100B100031313131312E3000022070470A46BF3268
:100B20001BD0DF3118D1002070470320704704200C
:100B3000704705207047062070470720704708203F
:100B40007047092070470A2070470B2070470C201F
:100B500070470E2070470F2070470D20704780B5FA
:100B600000AF0346303B0A2906D9242915D80A2BA1
:100B70000AD201201A4605E01A468A4201D3002013
:100B800000E00120114680BD024620200243613A68
:100B90000A32F2D30020C243EFE700F001F8FEDE94
:100BA00080B500AFFFF78EFFFEDE80B500AFFFF728
:100BB000F7FFFEDED0B502AF0C46994204D11146D4
:100BC000224602F087F8D0BD2046194600F001F811
:100BD000FEDE80B500AFFFF7E3FFFEDE80B500AFBD
:100BE000FFF7DEFFFEDE0068FEE7F0B503AF8FB073
:100BF000202406AD03232B5513460D9400260C9696
:100C00000A9606AC43C41468002C049240D02035E8
:100C10001F20C00659684A0105928143019102953F
:100C20000598002857D0986881194A68002A07D08B
:100C300081590798C36806989847049B00285AD1A1
:100C4000204620300390207F2870A0690D906069B5
:100C50000C901D6921460C31284600F051F809918D
:100C60000890211D284600F04BF80B910A9020684F
:100C7000C10068586918029D4A6806A99047049BFC
:100C800008360599203905910028039CC8D032E028
:100C9000072040071C695969CA00059281430191E8
:100CA00000250598A84216D0986841194A68002A7C
:100CB00006D041590798C3680698984700281AD16A
:100CC0002646083605CC06A99047049B083500281F
:100CD0003446E6D00FE0D868019981420DD20198E0
:100CE000C0009A681158101842680798C36806989F
:100CF0009847002801D0012000E000200FB0F0BD8F
:100D0000D0B502AF0B68002B0CD002460020012B9F
:100D10000AD14968CB00D1184968064C7C44A142ED
:100D200003D0D0BD081D01E0D0BDD058016801201E
:100D3000D0BDC046C7FEFFFF7047B0B502AF0B463F
:100D400001460020CCB201468A4204D05D5CA54237
:100D500003D0491CF8E71146B0BD0120B0BD80B5F5
:100D600000AF814207D3994203D81218091A1046DE
:100D700080BD0846194600F001F8FEDE80B500AFE0
:100D800000F001F8FEDE80B500AFFFF709FFFEDEE0
:100D900080B500AF00F002F8FEDED4D4E0B502AFBB
:100DA0001D4616460C4601210A020190214600F01C
:100DB00069F8002808D1A64203D8A54201D8AE425E
:100DC00013D9FFF7EDFEFEDE0346A04206D20198DE
:100DD000C0564021C9438842EDDC00E0EBD0002240
:100DE00001982146FFF7D4FFFEDE002E10D12E46DB
:100DF00001982146324600F045F80246002810D1FD
:100E0000A24217D11E4878442B21FFF7CEFEFEDE0A
:100E1000A6422DD2019880573F21C9438842E6DA85
:100E2000E6E7A24226D2019880564021C943884273
:100E3000E6DC20E001988018002141560029C0D549
:100E4000C9B2E029BDD3F029BBD34278C3783F248F
:100E50001C409206920B80788006000D1018001935
:100E60004907C90A4018112109048842A9D1C9E7D4
:100E7000BDD0BDE7C4D0019821462346B2E7C046A5
:100E80007A240000B0B502AF0B46914212D9054654
:100E9000D41E00D20024511C20462A46FFF75FFFD3
:100EA000401E002905D04256491E3F23DB439A428B
:100EB000F7DB0B191846B0BDF0B503AF95B00A23A8
:100EC00012930123089311931092002405910DAB06
:100ED00016C304920C920B94016801914168009131
:100EE00080680290039407940694002C049A079D4E
:100EF00000D09EE0AA4202D30598441900E00024E5
:100F0000561B64D3072E07D800218E425ED0605C4A
:100F10000A284BD0491CF8E70795E01C03218843B9
:100F2000A04201D1002512E0051BB54200D3354691
:100F30000020294622463346FFF711FF02460B46A2
:100F40000A2011461A46FFF7F8FE01282CD0304639
:100F500008380A9009960A9885421BD86119496891
:100F6000394A8A43374B5940384E891911404A1E35
:100F7000914120466259344B9343324C624092195E
:100F80001342089A00D10A46002A0446099E01D15C
:100F90000835E0E7AE424FD36119721B0A20FFF714
:100FA000CCFE012811D14919049A079D4819451C06
:100FB000A0D095429ED80599085C0BA9097F88426C
:100FC00098D100242E4607950CE0049A1546039804
:100FD00000282ED1069890422BD007950124164662
:100FE000069D039402980078002808D00098C368F2
:100FF00017497944042201989847002817D1069B85
:10100000F21A0598C1189E4201D1002005E050183F
:10101000401E03780A3B58425841029B18700098C2
:10102000C368019898470028069500D15DE70898A5
:1010300000E0002015B0F0BD28463146FFF79EFEC7
:10104000FEDEC0460A0A0A0A80808080FFFEFEFE9D
:1010500039210000DCB504AF00220192802903D2BF
:1010600001AA117001222FE0CA0A0AD13F220A40C8
:10107000803201AB5A708909C0220A431A700222D9
:1010800022E00A0C0ED13F220A40803201AB9A7056
:101090000A0BE02414431C700905890E8031597035
:1010A000032211E03F230B40803301AAD3700B05CC
:1010B0009B0E803393708B039B0E80335370C90259
:1010C000490FF0311170042201A9FFF7F5FEDCBDD4
:1010D000D0B502AF88B0019002AC1822204601F0D2
:1010E000F9FD01A8034979442246FFF77EFD08B0C7
:1010F000D0BDC046D221000080B500AF0068FFF728
:10110000DBFE80BD80B500AF0068FFF7A3FF80BDA8
:10111000B0B502AF86B004686D461822284601F0CB
:10112000D9FD20462946FFF7D3FF06B0B0BDD4D481
:10113000F0B503AF87B00C46019003C90291CB68AC
:10114000334979440D2206461D469847012100285F
:101150004BD10091207E400720D42E4979440322B0
:101160003046A84700283FD12B4979440422304615
:10117000A847002838D12949794402223046A84797
:10118000002831D101983146029A00F057F8002822
:1011900000992AD122497944022235E02149794433
:1011A00003223046A84700281ED106A8012101705D
:1011B000059002980490039603A81B4979440422E1
:1011C000FFF77AFE00280FD103A8184979440222BC
:1011D000FFF772FE002807D103A9154A7A44019847
:1011E00000F02CF8002803D00099084607B0F0BDA5
:1011F00003A8104979440222FFF75EFE00280099F7
:10120000F3D10D49794401223046A8470146ECE765
:101210008E21000056210000CD1F00003621000065
:10122000202100000D2100007B1F0000E2200000B3
:101230008C200000BC200000B1200000D0B502AF1F
:1012400000780B46784400794000874402070C1070
:101250001500D4680C497944052211E0D4680B4983
:1012600079440C220CE0D4680949794402E0D4683E
:10127000084979440B2203E0D468074979440422E1
:101280001846A047D0BDC046A9200000932000000A
:101290007E2000006B200000B71E0000401EC1B27F
:1012A000172904D840B203497944085C7047FF20ED
:1012B0007047C046F320000080B500AF89B200221D
:1012C00001F0A6FC80BD80B500AF01F097FC411E87
:1012D0004842484180BDE0B502AFFFF7F4FF002867
:1012E0000BD1684600210171C170022282704170E9
:1012F00060210170052101F077FC8CBDD0B502AFF3
:10130000FFF7CCFFC0B2401E072813D878440079FD
:101310004000874403100F140F0F0F180E4C0121CB
:10132000204600F04DFF204600F02AFF0B4881794F
:1013300000290CD0D0BD084800F049FFD0BD0648B8
:1013400000F041FFD0BD044800F03FFFD0BD0C309D
:10135000122101F0BAFCD0BD74020020000200206E
:10136000DCB504AF0A79012A17D0CB787F241C4062
:10137000022A17D0042A14D1052C12D8104A1219A7
:101380004B791373412292006B469A8000908A1D1C
:101390000C48214600F02EFEDCBD891D094800F0F6
:1013A000FBFDDCBD062CFCD26000054A10180022B3
:1013B00042828A1D0348214600F077FEDCBDC0460C
:1013C0000002002074020020D0B502AF0B4A13784F
:1013D000002B00D0D0BD062393710A2313704B78E5
:1013E0008C782402E3181BBA1B0C7D2B00D37D23C1
:1013F0005380CA1C1946FFF7DDFBD0BD0002002058
:10140000027913460B430371CBB2002A04D0002BA0
:1014100011D0032B0DD016E0032B14D80021C046A9
:101420007B441B795B009F44010F11040021017173
:1014300009E0022108E000210171032A03D8D0004D
:101440000349C14000E00621084670470121FBE73F
:101450000603040580B500AFC0B201F0B9FBFFF789
:101460009FFBFEDEF0B503AFA1B00446412085002E
:10147000FFF729FF002801D1FFF72DFF6619684605
:10148000802101F022FCFFF71EFF00282AD06D46C4
:1014900080212846FFF710FF6878A97809020D1807
:1014A0000098FFF7FBFEC0B20F2811D016280AD013
:1014B0001028E8D128BA000C0228E4D96946204651
:1014C000FFF74EFFDFE769462046FFF77DFFDAE7CB
:1014D00001200002A9B28142D5D16846C078FFF749
:1014E0000DFFD0E7134D2878072816D00A281AD107
:1014F000B18820A85322027009BA0A0E8270090C22
:101500004170032101F070FB71680020224600F059
:1015100015F889B201F068FB05E0B1880648784407
:10152000224600F08BFC002030607060287021B0F3
:10153000F0BDC04600020020EF06000080B500AFFD
:10154000814209D341239B00994203D81218091AFA
:10155000104680BD08461946FFF710FCFEDEB0B508
:1015600002AF2122D40003599D0841229200402D50
:101570000DD804190D0AC55423685B1C934206D28A
:10158000C1542168891C2160FFF76CFFB0BD18466B
:101590001146FFF71EFBFEDE80B500AF4122920030
:1015A0008B58042B05D100210E4A7A440260416019
:1015B00080BD0A79002A03D0052300F015F880BD0C
:1015C000052BF0D0062B04D1002101600449818055
:1015D00080BD4A798B791B029A180723EDE7C04634
:1015E000016E0000C61D0000B0B502AF0446002A1F
:1015F00006D00D469918412080002858814204D910
:10160000002020600448A080B0BD18462A46FFF79D
:1016100095FF03C4B0BDC046016E0000F8B504AF2D
:101620002123DB00C51841239B00002A0AD02C6827
:101630009C4208D20E7806552C68641C2C60521E01
:10164000491CF2E7F8BD20461946FFF7C2FAFEDE54
:10165000F0B503AF8DB00191029003AC254608357B
:1016600020262846314601F030FB212020700496C8
:1016700000210091052201992B4601F099FA2822B8
:101680000298214601F026FB0DB0F0BDD0B502AFA7
:101690000446FFF718FE002801D1FFF71CFEFFF7F4
:1016A00012FE00280DD004212046FFF705FE207809
:1016B0000528F4D1E07841082046FFF7A1FEC0B22A
:1016C000D0BD0620D0BDD4D480B500AF0248784448
:1016D00000F0F0F880BDC046361C0000BCB504AF79
:1016E0000C460546FFF7F0FF002000900122284637
:1016F000214600F0B1F8BCBDD0B502AF0446FFF7FB
:10170000E3FF0221204600F0B1F90448784400F0DC
:10171000FDF80348784400F0F9F8D0BD261C00001D
:10172000281C0000F0B503AF8BB00B4641681A01CE
:10173000144610348C42059400D305910493056837
:10174000059B934255D3002A0BD08A4207D2AB5651
:1017500003933F23DB43039E9E4202DA49E091421A
:1017600047D1059B002B07D0A14205D9059BEB561D
:101770004024E443A3423CDD03908468207D019231
:101780000295258A294600F03FF80090668AA068F5
:10179000E168324600F046F806A9CE818D81488185
:1017A0000098088101200002088214480790002058
:1017B0000690084600F07EF801990598401A029AB2
:1017C000511821606060049D002D03D00D487844BD
:1017D00000F09CF8681C0399C9680968884203D224
:1017E0000748784400F092F8204600F0BBF80BB0B0
:1017F000F0BD2846059BFFF7CBFAFEDEFFFFFF009A
:10180000781B0000961B0000C0B2002804D00128FD
:1018100004D17E20401A7047022070478020401A71
:1018200040087047D0B502AF830002A4E358E31824
:101830009F46C04620000000100000001800000075
:101840001E0000002020801A4008D0BD2020801AF1
:10185000D0BD0846D0BDD4D4F0B503AF87B001AC3D
:101860000225A58204930392084C059402910190ED
:10187000BD68002D05D081256D0001AEB58201AD9A
:101880001FC501A800F06EF807B0F0BD80000B0086
:10189000BCB504AF044601A81C2585700021417029
:1018A00065210170032101F09FF92046294601F0CE
:1018B0009BF9BCBDD0B502AF88B00446FFF703FD6D
:1018C000002808D00020049003900290019001A805
:1018D0001021FFF7F1FC01A80021817601834181ED
:1018E00003210170617C0173E1890181A189C180BB
:1018F0006189818021894180217C417006CC0692DA
:101900000591FFF7C5FF08B0D0BDD4D4D0B502AF64
:1019100088B00446FFF7D7FC002808D000200490C8
:1019200003900290019001A81021FFF7C5FC01A8C7
:10193000002101830173418105220280227A82768F
:10194000E2880281A288C2806288828022884280E6
:10195000069103490591FFF79BFF08B0D0BDC04633
:10196000FFFFFF00F0B503AF8DB00546FFF7ABFCFE
:10197000002808D00020089007900690059005A840
:101980001021FFF799FC6E68287D697D0091002485
:1019900002900128204604D1072171430120FFF75E
:1019A00033FF01900396A868E96804956E8A324671
:1019B000FFF738FF05ADAC760099002901D01B492F
:1019C00000E0194929832C736C812E810299022928
:1019D00003D00621039A514301E08021039AE98054
:1019E00001996980072129808019401EA8800A94E6
:1019F0000F48099010461C3001BA16460A0E0CA872
:101A00008270090C4170652101700321094C7C44EE
:101A1000A0471C212846A0470498006800F02EFA31
:101A2000B1B2A0470DB0F0BD0A80FFFF0880FFFFF4
:101A3000FFFFFF00D7110000FEB506AF0146C288C8
:101A400001A8C2818A8882814A88428109880181ED
:101A50000121090201820449029100210191FFF74D
:101A600029FF06B080BDC046FFFFFF00F8B504AFF8
:101A70000C46054618214C43204601F021F90D2261
:101A800042430120FFF7CEFE0646002C0BD003CDCB
:101A90006A7B009203223346083DFFF7DDFE183CC7
:101AA0000D361835F1E7F8BDF0B503AF142911D1A3
:101AB0000023142B0ED0C45CC5186E78360234197E
:101AC000AE78ED782D02AD192D042C1924BAD4501E
:101AD0001B1DEEE7143948424841F0BD044601F0B1
:101AE000A3F8214600F056F870B58CB062B6002419
:101AF000204601F0A3F8204D6E46304600F03EF837
:101B0000B08580B2052824D0002828D1684601F08D
:101B100095F80A9001F040F80D2828D22021284697
:101B200001F0D3F800F020F9002000F091FF01202F
:101B300000F08EFFFEF73AFB01F076F86946884226
:101B400002D10A9801F07AF86846808D0028D3D037
:101B500010E0684684850A9801F070F8CCE7684682
:101B600084850A9801F06AF820460CB070BDFF2009
:101B700001F02EF8FFF7B2FF00020020F0C041464E
:101B80004A4653465C466D4676467EC02838F0C8C5
:101B90000020704710307CC890469946A246AB465C
:101BA000B54608C82838F0C8081C00D101201847DD
:101BB0007F210140052903D802484018007B704767
:101BC00000207047000200207CB5FF2A1DD8154672
:101BD0000E46044668464271202101715021017071
:101BE00080212143C170D11C8170090A41700621F6
:101BF00000F0FAFF3046294600F0F6FF6006000EBE
:101C0000024908187D21090141827CBD00020020A3
:101C100080B50A4601468220FFF7D6FF80BDD4D4A6
:101C2000FEB5029204469888019018680090484FCB
:101C3000B9420FD00D46464E40273046394601F096
:101C4000B2F8029A402A00D33A463046294601F0BB
:101C500050F83F4FB878002822D0012829D0022818
:101C60002ED0052863D13879F97809020818394C43
:101C700021680025814261D12068002825D0029882
:101C8000401F82B234490B68934200D2086881B287
:101C90003B2900D33B2085B230480068791D38E0ED
:101CA0000025BD717D713D71FD7040213846A04712
:101CB00044E0F81C042100F0F3FF4021384601E025
:101CC00023484021A047002538E0B87979790902F6
:101CD0000918234801600168019A91422ED80168D1
:101CE0001D48016079783A78120251181D4A116036
:101CF0001A49009A0A6002680299C91F8BB29A4277
:101D000000D2016888B2392800D339218DB2F91D7B
:101D100000982A4600F0EDFF0F480168491B01605A
:101D20000E480168491901602068401C20600A487B
:101D30000068002801D0012507E0022505480021A0
:101D4000016006480160044801602846FEBDC046A7
:101D50002002002060020020680200206C020020A7
:101D60006402002070020020034800210160034843
:101D70000160034801607047600200206C0200208F
:101D800068020020F8B5274A1568274B1968002912
:101D900021D0002D1FD00090264C671D3B263846D1
:101DA000314601F000F8204A0520A0702248016861
:101DB000090A2170006860701C490868000AE07018
:101DC000086820710968106800290CD03B2800D8E9
:101DD0001668384612E01548002101601160144869
:101DE00001701960F8BD392801D9392600E016685C
:101DF0001068000A60711068A071E01D2946324623
:101E000000F077FF084B009A06491868801B18609D
:101E1000A819086005490868401C08600548402169
:101E20009047F8BD6C02002068020020600200208C
:101E300000020020200200207002002010B50029BE
:101E40000AD0064B00241C60054B1960054B1A6034
:101E5000054A1160FFF796FF10BDC04660020020E2
:101E6000680200206C020020640200207A460249C9
:101E7000C91C891A401A70476D1ED0C080B504492C
:101E8000884204D30349884201D2FFF7EFFF80BDA7
:101E90000000D0C0C034D0C0F8B5002814D015461A
:101EA0000E4604460746DC3745208100204600F0F8
:101EB0000CFF002E00D07E61257001203870204676
:101EC00000F0A4F90020F8BD0220F8BDB0B504462A
:101ED000DC20012121541720C543002D0ED06019AC
:101EE000432189004058002806D04068FFF7C6FF0C
:101EF00002462179204690470835EEE7204600F05B
:101F0000B8F9204600F08CF90020B0BD002A08D0B6
:101F100003460020022B03D8DB00C918F423CA5063
:101F200070470220704780B500F089F9002080BD1D
:101F3000F8B50C4605460026F427032E10D0284697
:101F4000314600F05DFA002807D0E8590068FFF735
:101F500095FF02462846214690470837761CECE755
:101F60000020F8BDF8B50C4605460026F427032EE0
:101F700010D02846314600F043FA002807D0E8592F
:101F80004068FFF77BFF0246284621469047083706
:101F9000761CECE70020F8BD70B504460646D43642
:101FA00035461435284600F05AFCD4200121215032
:101FB000EE20205A7060317D1F200840022808D092
:101FC00001280BD000280ED12046294600F023FA24
:101FD0000EE02046294600F0C1FB09E020462946D4
:101FE00000F098FB04E080200140204600F07CF9DE
:101FF000002070BDF0B585B0029303920446DC303A
:102000000490019100291CD00025F427032D49D00C
:102010002046294600F0F4F900280FD0E0598069E5
:1020200000280BD004990978032907D1FFF726FF70
:10203000064620460199039A029BB04708376D1C5B
:10204000E4E720468030416D03292BD10068E16F21
:1020500081420AD9091AE167814200D301468AB256
:102060002046039900F03DFC1CE00025F426032DDA
:1020700015D02046294600F0C3F900280CD0A059FD
:102080000069002808D004990978032904D1FFF7D2
:10209000F5FE01462046884708366D1CE7E72046D6
:1020A00000F026FC002005B0F0BDF8B50446074658
:1020B000D437009100291AD03D460026F427032E7C
:1020C0005CD02046314600F09BF900280CD0E05946
:1020D0004069002808D0297A032905D1FFF7CEFEF0
:1020E00002462046009990470837761CE7E7386893
:1020F00002283DD1E069256AA84209D9401BE06168
:10210000F96B4919F96382B2204600F0DCFB2FE03D
:10211000A6693046294600F03DFE00290CD1AE42AA
:102120000AD37868864207D20025204629462A46E7
:1021300000F0C9FB7D601BE00025F426032D14D0C0
:102140002046294600F05CF900280BD0A059C06851
:10215000002807D0397A032904D1FFF78FFE014602
:102160002046884708366D1CE8E7204600F0CCFB87
:10217000387B012802D13946002038730020F8BD91
:1021800070B50446DC2001212154802040212150DB
:1021900021620025F426032D10D02046294600F0A8
:1021A0002FF9002807D0A0594068FFF767FE0246C4
:1021B00021792046904708366D1CECE7002070BD61
:1021C000017400207047002070470020704770B5F0
:1021D0000446DC20205C032815D10025F426032DBD
:1021E00011D02046294600F00BF9002808D0A0594C
:1021F000C069002804D0FFF741FE01462046884709
:1022000008366D1CEBE7002070BDD4D402490020D5
:1022100008600249086070478C0300208803002092
:102220001CB501A80221C1700121817000244470F5
:102230004F210170042100F0D7FC20461CBD7CB565
:102240006D4600242C710320E8700220A8706C7089
:102250004F262E700521284600F0C6FC0120E870AC
:10226000A8706C702E700421284600F0BDFC20463A
:102270007CBD1CB501A80221C17001218170002420
:1022800044704F210170042100F0AEFC20461CBDBB
:102290007CB5134800240460124804606D46AC719C
:1022A0006971012129710420E8700526AE706C70F7
:1022B0004F242C70002A0AD0032A05D0022A05D008
:1022C000012A06D1014602E0022100E0032168460E
:1022D00081716846C371082100F086FC00207CBD36
:1022E000880300208C030020BCB50D4668460024FE
:1022F000447140210171C5700321817044705021E7
:102300000170062100F070FC280601D5064800E0A7
:10231000044801687F2215400122AA400A43026056
:102320002046BCBD8C03002088030020BCB50D46B0
:1023300068460024447180210171C57003218170B9
:10234000447050210170062100F04EFC280601D592
:10235000064800E0044801687F2215400122AA4097
:10236000914301602046BCBD8C03002088030020FF
:10237000080601D5054800E0034802787F200140A7
:1023800001208840104070478C0300208803002003
:102390001CB5684601710321C170022181700024BF
:1023A00044704F210170052100F01EFC20461CBD29
:1023B000BCB51C4615466846437120220271C170A7
:1023C00050210170D91C8170090A4170062100F06A
:1023D0000BFC2846214600F007FC0020BCBD1CB5C4
:1023E0006846427130220271C1700321817000245D
:1023F000447050210170062100F0F6FB20461CBD00
:10240000022906D8C9004018F4214058411E8841CD
:1024100070470020704780B54A78002A0ED0012A04
:102420000FD0032A10D0052A11D0092A12D0082A69
:1024300013D0062A14D100F017F813E000F0FCF8CE
:1024400010E000F03AF90DE000F01AF90AE000F0AF
:1024500082F807E000F0A2F804E000F0D6F801E00E
:1024600000F054F9002080BDBCB50D46044601A81B
:10247000002101802046F0306B881A0A012A26D0FC
:10248000022A2DD0032A0AD0062A31D0072A16D0D4
:102490000F2A30D10068C06900281AD12BE0D9B2C8
:1024A000052949D001294AD002294BD003294CD013
:1024B00004294DD000291ED10068406809E0217C24
:1024C000002918D14068002815D0006B1EE0006874
:1024D0000068FFF7D3FC0246207C01A990471AE070
:1024E0004068002818D0217C00290ED0C06A0DE079
:1024F000217C002904D02046294600F007F9BCBD04
:1025000040680028F7D0406B00E0806AFFF7B6FC17
:10251000014601A88847014601A80288002AEED09A
:10252000E8880028EBD0824200D3024601A802804E
:10253000204600F0B2F9BCBD00688069C9E70068B8
:102540008068C6E70068C068C3E700680069C0E744
:1025500000684069BDE770B504468888002807D147
:10256000C888002804D12646DC363078032803D1F9
:10257000204600F0CBF870BD88787F250540B57007
:1025800020462946FFF704FF204600F0B1F9002D50
:1025900001D0022000E00120307070BD70B50D4602
:1025A00004468E78022E1CD2DC20215C2046DC30D2
:1025B000032906D0022914D1002E22D00321017054
:1025C00008E0002E12D06068B0421AD0C1B2204696
:1025D000FFF7C8FC666020463146FFF7A9FC0228D9
:1025E0000FD12046294600F091F870BD00216160AE
:1025F0000221017020463146FFF7B4FC204600F06E
:1026000077F9204600F074F970BD80B5CA88012AB8
:102610000AD1DC22825C032A09D0022A04D10021DB
:1026200081600146083103E000F070F880BD011DB3
:10263000012200F032F980BDB0B50446DC20205CF8
:10264000FE220240022A0FD12046DC300121E16047
:1026500025460C35806800280AD0204600F054F941
:10266000E1680220084304E0204600F04FF8B0BDC6
:102670000320E06002222046294600F00EF9B0BD9A
:10268000B0B504464888012816D10D46E420012142
:102690002150287902280CD8C0002018F421405875
:1026A000002806D08068FFF7E9FB0246204629464D
:1026B0009047204600F01CF9B0BDB0B50D46044669
:1026C000DC20205CFE21014002291AD16888012803
:1026D0001BD12046DC3000218160287902280CD8EB
:1026E000C0002018F4214058002806D08068FFF769
:1026F000C5FB0246204629469047204600F0F8F8E0
:10270000B0BD2046294600F001F8B0BD80B500F00C
:10271000BAF880BDB0B50D460446DC20205C032825
:1027200016D12879022813D8C0002018F421405867
:1027300000280DD08068FFF7A1FB024620462946FD
:102740009047E888002807D1204600F0D1F803E040
:1027500020462946FFF7DAFF0020B0BDBCB50D4684
:10276000044609797F200840072804D320462946DB
:10277000FFF7CCFF71E0022912D82A7860231340BA
:10278000202B0DD1CA00A218F423D258002A07D05A
:102790009068FFF773FB02462046294690475CE0AD
:1027A0006A78002A0AD0012A11D0032A55D1DC20E8
:1027B000205C03281AD002280FD0D7E7DC22A25CC5
:1027C000032A2ED0022AD1D100280BD145E0DC22E9
:1027D000A25C032A31D0022AC8D180200A460243D3
:1027E000802A3AD02046FFF77FFD36E0688800282F
:1027F00007D180200843802803D02046FFF774FDCE
:102800002979022926D8C8002018F4214058002828
:1028100020D08068FFF732FB0246204629469047C9
:1028200018E02046FFF7A4FD411E884101A9088059
:102830000222204600F031F80FE06A88002A0CD10D
:10284000002807D02046FFF771FD2879022801D81B
:10285000C000D9E7204600F04BF80020BCBD0A7844
:1028600002704A7842708A78CB781B029A184280AC
:102870000A794B791B029A1882808A79C9790902F0
:102880008918C180704710B504468021FFF72CFDE0
:1028900000212046FFF728FD10BDB0B50C46D4211D
:1028A000022343508261C2610146D431CC63016A84
:1028B000914200D80A4693B2002529462246FFF7E6
:1028C00077FD2846B0BDB0B50C46016A914200D8EC
:1028D0000A4693B2002529462246FFF769FD28469D
:1028E000B0BD10B500242146FFF779FD204610BD8C
:1028F00010B5D4210422425000242146224623460A
:10290000FFF756FD204610BD10B5D42105224250D8
:10291000002421462246FFF762FD204610BDD4D494
:102920000146EC20064A125C0020002A01D0034632
:1029300000E009230B80002A01D102487844704747
:1029400074020020780A00000146EC20064A125C5E
:102950000020002A01D0034600E022230B80002A39
:1029600001D102487844704774020020590A0000DF
:1029700080B5022903D103487844FFF703FA002009
:1029800080BDC04695F2FFFF70B502291CD11C46E0
:10299000154602214022FFF722FD0C4EB079002897
:1029A00012D10220FFF704F902460A48784429466A
:1029B0002346FFF735F9022806D1072030700120A1
:1029C000B071034800687080002070BD00020020D4
:1029D0006402002061F2FFFF122008800148784461
:1029E0007047C0465A0A0000042008800148784415
:1029F0007047C0465C0A00000E20088001487844F9
:102A00007047C046500A00000E20088001487844F4
:102A10007047C0464E0A00000A20088001487844EA
:102A20007047C0464C0A00000E20088001487844D8
:102A30007047C0462E0A00000E20088001487844E6
:102A40007047C0461E0A0000002008807047D4D49A
:102A5000B0B50546452084001248214600F035F9FE
:102A600011480C30122100F030F9002D15D00D4D19
:102A70002846214600F029F90C49794400242846CB
:102A80002246FFF709FA0A4A7A4420462946FFF708
:102A90003DFA2846FFF747FAB0BD0248FFF716FA9D
:102AA000B0BDC0467402002000020020660900008C
:102AB0007809000029210180014878447047C04608
:102AC000BA0900000A210180014878447047C046D5
:102AD000D6090000FEB50E46054602A80024048073
:102AE00001A8047009786020084010D0202837D150
:102AF000707801460A39022932D302281BD00328F4
:102B000019D028463146FFF701FE022428E07078EC
:102B10000B2813D00A280ED0062821D1F0780024E3
:102B200021280FD022282246214616D102AF38464E
:102B3000FFF70AFF0AE001A901220EE02846FFF78D
:102B4000D7FE0DE002AF3846FFF7EAFE01463A88AD
:102B5000F088824200D302463A802846FFF79DFE65
:102B60002046FEBDF8B504468221032640253246A4
:102B70002B46FFF78DFB02272046394632462B466F
:102B8000FFF786FB204639462A46FFF728FC00203F
:102B9000F8BD00207047D4D4F8B500200290019011
:102BA000024801A900F056F804B080BD3801006069
:102BB00010B588B00A9C0594049303920291019089
:102BC000024801A900F046F808B010BDBA530060F1
:102BD00084B0002102910190024801A900F03AF866
:102BE000FEE7C046BE9A0060F8B501910090024829
:102BF000694600F02FF88FBD81830060E0B50020AA
:102C000001900248694600F025F88CBDBB84006045
:102C1000FEB501AB07C3034801A900F01BF880B261
:102C200006B080BDE4850060E0B500200190024858
:102C3000694600F00FF88CBDB1870060F8B500213F
:102C400002910190024801A900F004F804B080BD8F
:102C5000060B016001DF002900D170470846FEF72E
:102C60003DFFD4D403B4014823E0C0461500000062
:102C700003B401481DE0C0461B00000003B4014836
:102C800017E0C0462D00000003B4014811E0C04623
:102C90003100000003B401480BE0C04635000000DD
:102CA00003B4014805E0C0465800000003B40248E0
:102CB000FFE702490847C04671000000010012000A
:102CC00080B500AF00F058F880BD80B500AF00F0CF
:102CD0004DF880BD80B500AF00F014F880BD80B520
:102CE00000AF00F014F880BD80B500AF00F049F8E7
:102CF00080BD80B500AF00F015F880BD704701467B
:102D0000C00F704780B500AF00F0C8F880BD80B537
:102D100000AF032A03D908C908C0121FF9E7FFF75B
:102D2000F1FF80BD80B500AF00F001F980BD80B536
:102D300000AF0B4611461A4600F0A4F980BDD0B58D
:102D400002AF1306D2B21404E31814021B199B1825
:102D5000032902D908C0091FFAE7FFF7E8FFD0BD31
:102D600080B500AF0022FFF7E2FF80BD80B500AF65
:102D70000022FFF7E4FF80BD80B500AF00F028F827
:102D800080BDD0B502AF144600F022F8002C00D070
:102D90002160D0BD00B581B06A46FFF7A5FF00995C
:102DA00001B000BDFEDE80B500AFFFF7D9FF80BDEA
:102DB000D0B502AF0246002010231446DC40A142E9
:102DC00000D8C018A14200D822465B08F5D1D0BD7A
:102DD000F0B503AF85B00546884201D2002459E022
:102DE00028460E46FFF7E4FF1F23039002461A40D1
:102DF000012001469140344694402A1BB24202D23F
:102E000015460C4646E025460C4600960399002DD3
:102E1000049304D401950294154608461AE0064628
:102E20006D080195551B0846481E19460390034638
:102E30000B4031469940002D0B4600DA00230291E9
:102E4000002D00DA154623431C4600988542049B5A
:102E500003981FD3009401994C1E03900646002E40
:102E60000ED00120FFF74AFF85402D1B1F20FFF7E2
:102E700046FF049B2846084120404519761EEEE790
:102E8000039919402846C8400299491E2940009CD0
:102E90000C4305462046294605B0F0BDF0B503AF0A
:102EA00086B00F2A0ED94442032304931C400346E4
:102EB000051908460393AB4206D206781E70401CE3
:102EC0005B1CF8E7034628E0121B02921046049AA6
:102ED000904301902B180E19B007009614D0F400FF
:102EE00018206142044005940140964304CE9D425F
:102EF0000CD20598C24010CE20468840104301C530
:102F00002246F4E702CE02C59D42FBD3029A049802
:102F1000024001980099091803989C18A34204D212
:102F20000A781A70491C5B1CF8E706B0F0BDF0B5D2
:102F300003AF87B0431A93421AD28D1883180F2A11
:102F400000D880E005950290032610461D46B54343
:102F50008818441E1846304003904042049006965C
:102F60009D4216D226785B1E1E70069E641EF7E7F1
:102F70000F2A36D9039244420322069214400519BF
:102F80000E460346AB422ED232781A70761C5B1C7A
:102F9000F8E70398121A1046B0432B1A40420190EA
:102FA0000598049C0419A007039200943CD0E20009
:102FB00018202146544202400592044004940846D9
:102FC000B043061F0268059CAB4235D2049882408C
:102FD00031680846E04010432D1F2860361F0A461E
:102FE000F2E7034644E002900398001B0390069A20
:102FF000904304902B180E19B00701962CD0F400C2
:1030000018206142044005940140964301CE1446C5
:103010009D4227D2059AD04010CE22468A400243D4
:1030200004C52046069CF3E75018001FAB4203D2AC
:1030300001682D1F2960F8E7039A0698024001985D
:1030400000990D1802989C1A691E9C4218D20A78A1
:103050005B1E1A70491EF8E714469D4202D202CE4A
:1030600002C5FAE7039A22400498019909180298C8
:103070009C18A34204D20A781A70491C5B1CF8E71A
:1030800007B0F0BDFEB506AF0F2A0BD944420323AB
:1030900002931C40009404190346A34204D2197001
:1030A0005B1CFAE7054618E00190C8B20823202B04
:1030B00006D218251D400646AE4030435B00F6E7B9
:1030C000009BD21A1346029DAB43E518AC4201D2D5
:1030D00001C4FBE7029802400198AA18954202D267
:1030E00029706D1CFAE7FEBD390DD0C0010000004B
:1030F000010000003111D0C04D6573736167652018
:103100007265766965775369676E203F5369676EAC
:10311000696E672E2E2E416C65706869756D7265DB
:1031200061647956657273696F6E302E312E30206E
:10313000202020517569745A65726F6B696E6465E1
:1031400078706C696369742070616E696330316195
:103150007373657274696F6E206661696C65643A39
:10316000206572726F72203D3D2030010101010126
:10317000010101010101010101010101010101013F
:10318000010101010101010101010101010101012F
:10319000010101010101010101010101010101011F
:1031A000010101010101010101010101010101010F
:1031B00001010101010101010101010101010101FF
:1031C00001010101010101010101010101010101EF
:1031D00001010101010101010101010101010101DF
:1031E00001010101010101010101010000000000D4
:1031F00000000000000000000000000000000000CF
:1032000000000000000000000000000000000000BE
:1032100000000000000000000000000000000000AE
:103220000000000000000000000000000002020298
:10323000020202020202020202020202020202026E
:103240000202020202020202020202030303030359
:103250000303030303030303030303040404040439
:103260000000000000000000000000D4390DD0C0B4
:103270000C00000004000000B90ED0C05510D0C0F2
:10328000D110D0C063616C6C656420604F7074694C
:103290006F6E3A3A756E77726170282960206F6E92
:1032A000206120604E6F6E65602076616C756520D0
:1032B0007B0A3A202C0A207B207D207D390DD0C04E
:1032C0000400000004000000F910D0C00511D0C0B7
:1032D0001111D0C05061727365496E744572726F7E
:1032E000724E65674F766572666C6F77506F734F7D
:1032F000766572666C6F77496E76616C6964446955
:10330000676974456D70747900000000FFFFFF006D
:1033100000000000800020000001000043616E6397
:10332000656C75000800080008000C000200080029
:10333000080008000B0002000C00080008000B0049
:1033400075000C00080008000C0074000C00080058
:1033500008000A0004000C000800080009007800BA
:103360000C00080008000A0000000C00080008001B
:103370000900D4D463616C6C656420605265737518
:103380006C743A3A756E77726170282960206F6E9E
:1033900020616E2060457272602076616C756501F7
:1033A00002FF0405FFFF08FFFFFFFF0D0E0F10FFD8
:1033B000FFFFFFFF16FF18D409211101000122228F
:1033C0000006A0FF0901A1010903150026FF0075F1
:1033D00008954081080904150026FF0075089540EE
:1033E0009108C0D4D929D0C0E929D0C0F929D0C0CA
:1033F000092AD0C0192AD0C0292AD0C0392AD0C061
:10340000492AD0C0652BD0C0932BD0C0D52AD0C0BC
:1034100000000000000000007129D0C08929D0C040
:10342000000000000000000000000000B52AD0C02D
:10343000B52AD0C0B52AD0C0C52AD0C0120100021A
:1034400000000040972C0110010201020301040357
:1034500009040E034C0065006400670065007200FB
:103460000E034E0061006E006F00200053000A033F
:10347000300030003000310009022900010102C093
:1034800032090400000203000002092111010001B9
:1034900022220007058203400001070502034000C5
:1034A00001D4D4D40A060002000000400100D4D4A4
:1034B000D4D4D4D4D4D4D4D4D4D4D4D4D4D4D4D4CC
:04000005C0D0000166
:00000001FF
